:020000040000FA
:0400000037EF00F0E6
:100008004E82D9CF0EF0DACF0FF0F3CF10F0F4CF45
:1000180011F0F0B0F0A613D0F1BA08D0F18AF09040
:10002800010E076E010EACEC29F009D0F1AA07D039
:10003800F19AF090010E076E020EACEC29F0F2B4C2
:10004800F2AA07D011EC26F0FB0ED76E1D0ED66E65
:10005800F29411C0F4FF10C0F3FF0FC0DAFF0EC016
:10006800D9FF4E92110015EF2BF020EEBAF01B507D
:10007800D9261C50DA22DECF1DF0DDCF1EF020EE8F
:10008800B2F01B50D9261C50DA22DECF1FF0DDCF8C
:1000980020F01D501F261E502022080E1F26000E7D
:1000A8002022205004E1EF0E1F5CD8A02CD020EEB7
:1000B800BAF01B50D9261C50DA22DECF1DF0DDCF56
:1000C8001EF01D1E1E1E1D4A1E2A20EEBAF01B50D1
:1000D800D9261C50DA221DC0DEFF1EC0DDFF20EE2F
:1000E800BAF01B50D9261C50DA22DECF1DF0DDCF26
:1000F8001EF020EEB2F01B50D9261C50DA221D50FB
:10010800DE261E50DD22F80E1D6EFF0E1E6E20EE3E
:10011800BAF01B50D9261C50DA22DECF1FF0DDCFF3
:1001280020F020EEB2F01B50D9261C50DA22DECF88
:1001380021F0DDCF22F01F502126205022221D5011
:1001480021261E50222222BE06D0225030E1020E65
:10015800215CD8B02CD020EEBAF01B50D9261C5008
:10016800DA22DECF1DF0DDCF1EF01D1E1E1E1D4A39
:100178001E2A20EEBAF01B50D9261C50DA221DC0C8
:10018800DEFF1EC0DDFF20EEBAF01B50D9261C5042
:10019800DA22DECF1DF0DDCF1EF020EEB2F01B50CC
:1001A800D9261C50DA221D50DE261E50DD22FF0EF5
:1001B8001D6EFF0E1E6E20EEC0F01B50D9261C507F
:1001C800DA22DECF1FF0DDCF20F01D501F261E5093
:1001D800202220EEB4F01B50D9261C50DA22DECFA4
:1001E80021F0DDCF22F0080E2126000E22221F501A
:1001F800211803E120502218D8A47DD120EEB2F0B6
:100208001B50D9261C50DA22DECF1DF0DDCF1EF0A0
:10021800080E1D26000E1E2220EEBEF01B50D92609
:100228001C50DA221D50DE5C1E50DE58D8B063D157
:1002380020EEBEF01B50D9261C50DA22DECF1DF06E
:10024800DDCF1EF0320E1D26000E1E22F80E1F6E88
:10025800FF0E206E20EEB2F01B50D9261C50DA2279
:10026800DECF21F0DDCF22F01F50212620502222A0
:100278001D50215C1E502258D8B03DD120EEBEF052
:100288001B50D9261C50DA22DECF1DF0DDCF1EF020
:1002980020EEB2F01B50D9261C50DA22DECF1FF018
:1002A800DDCF20F01D501F5E1E50205A205026E141
:1002B8000A0E1F5CD8B022D020EEBCF01B50D92605
:1002C8001C50DA22DECF1DF0DDCF1EF01D1E1E1ED3
:1002D8001D4A1E2A20EEBCF01B50D9261C50DA22DB
:1002E8001DC0DEFF1EC0DDFF20EEBAF01B50D92670
:1002F8001C50DA22FE0EDE26FF0EEED020EEBEF0F7
:100308001B50D9261C50DA22DECF1DF0DDCF1EF09F
:1003180020EEB2F01B50D9261C50DA22DECF1FF097
:10032800DDCF20F01D501F5E1E50205A205026E1C0
:10033800140E1F5CD8B022D020EEBCF01B50D9267A
:100348001C50DA22DECF1DF0DDCF1EF01D1E1E1E52
:100358001D4A1E2A20EEBCF01B50D9261C50DA225A
:100368001DC0DEFF1EC0DDFF20EEBAF01B50D926EF
:100378001C50DA22DE06000EDD5AAFD020EEBEF0A9
:100388001B50D9261C50DA22DECF1DF0DDCF1EF01F
:1003980020EEB2F01B50D9261C50DA22DECF1FF017
:1003A800DDCF20F01D501F5E1E50205A205035E131
:1003B8001E0E1F5CD8B031D020EEBAF01B50D926E3
:1003C8001C50DA22DECF1DF0DDCF1EF01D1E1E1ED2
:1003D8001D4A1E2A20EEBAF01B50D9261C50DA22DC
:1003E8001DC0DEFF1EC0DDFF20EEBCF01B50D9266D
:1003F8001C50DA22DECF1DF0DDCF1EF01D1E1E1EA2
:100408001D4A1E2A20EEBCF01B50D9261C50DA22A9
:100418001DC0DEFF1EC0DDFF60D020EEBEF01B5009
:10042800D9261C50DA22DECF1DF0DDCF1EF020EEDB
:10043800B2F01B50D9261C50DA22DECF1FF0DDCFD8
:1004480020F01D501F5E1E50205A205024E1280E17
:100458001F5CD8B020D020EEBCF01B50D9261C5011
:10046800DA22DECF1DF0DDCF1EF01D1E1E1E1D4A36
:100478001E2A20EEBCF01B50D9261C50DA221DC0C3
:10048800DEFF1EC0DDFF20EEBAF01B50D9261C503F
:10049800DA22DE2A20D020EEBCF01B50D9261C50D0
:1004A800DA22DECF1DF0DDCF1EF01D1E1E1E1D4AF6
:1004B8001E2A20EEBCF01B50D9261C50DA221DC083
:1004C800DEFF1EC0DDFF20EEBAF01B50D9261C50FF
:1004D800DA22020EDE26000EDD2220EED2F01B50BC
:1004E800D9261C50DA22DE2A000EDD22000E186EF4
:1004F8000E0E31EC29F020EECAF01B50D9261C5004
:10050800DA22DECF1DF0DDCF1EF00B0E1D26000E09
:100518001E22F80E1F6EFF0E206E20EEB4F01B5048
:10052800D9261C50DA22DECF21F0DDCF22F01F5071
:100538002126205022221D50211803E11E50221886
:10054800D8A47DD120EEB2F01B50D9261C50DA2257
:10055800DECF1DF0DDCF1EF0080E1D26000E1E2278
:1005680020EEC8F01B50D9261C50DA221D50DE5C44
:100578001E50DE58D8B063D120EEC8F01B50D926E3
:100588001C50DA22DECF1DF0DDCF1EF0320E1D2604
:10059800000E1E22F80E1F6EFF0E206E20EEB2F027
:1005A8001B50D9261C50DA22DECF21F0DDCF22F0F5
:1005B8001F502126205022221D50215C1E502258F7
:1005C800D8B03DD120EEC8F01B50D9261C50DA22F5
:1005D800DECF1DF0DDCF1EF020EEB2F01B50D92685
:1005E8001C50DA22DECF1FF0DDCF20F01D501F5E39
:1005F8001E50205A205026E10A0E1F5CD8B022D087
:1006080020EEBCF01B50D9261C50DA22DECF1DF09C
:10061800DDCF1EF01D1E1E1E1D4A1E2A20EEBCF038
:100628001B50D9261C50DA221DC0DEFF1EC0DDFF7C
:1006380020EEBAF01B50D9261C50DA22FE0EDE2618
:10064800FF0EEED020EEC8F01B50D9261C50DA223F
:10065800DECF1DF0DDCF1EF020EEB2F01B50D92604
:100668001C50DA22DECF1FF0DDCF20F01D501F5EB8
:100678001E50205A205026E1140E1F5CD8B022D0FC
:1006880020EEBCF01B50D9261C50DA22DECF1DF01C
:10069800DDCF1EF01D1E1E1E1D4A1E2A20EEBCF0B8
:1006A8001B50D9261C50DA221DC0DEFF1EC0DDFFFC
:1006B80020EEBAF01B50D9261C50DA22DE06000EB6
:1006C800DD5AAFD020EEC8F01B50D9261C50DA22D4
:1006D800DECF1DF0DDCF1EF020EEB2F01B50D92684
:1006E8001C50DA22DECF1FF0DDCF20F01D501F5E38
:1006F8001E50205A205035E11E0E1F5CD8B031D054
:1007080020EEBAF01B50D9261C50DA22DECF1DF09D
:10071800DDCF1EF01D1E1E1E1D4A1E2A20EEBAF039
:100728001B50D9261C50DA221DC0DEFF1EC0DDFF7B
:1007380020EEBCF01B50D9261C50DA22DECF1DF06B
:10074800DDCF1EF01D1E1E1E1D4A1E2A20EEBCF007
:100758001B50D9261C50DA221DC0DEFF1EC0DDFF4B
:1007680060D020EEC8F01B50D9261C50DA22DECF0C
:100778001DF0DDCF1EF020EEB2F01B50D9261C5024
:10078800DA22DECF1FF0DDCF20F01D501F5E1E5095
:10079800205A205024E1280E1F5CD8B020D020EE2B
:1007A800BCF01B50D9261C50DA22DECF1DF0DDCF5D
:1007B8001EF01D1E1E1E1D4A1E2A20EEBCF01B50D8
:1007C800D9261C50DA221DC0DEFF1EC0DDFF20EE38
:1007D800BAF01B50D9261C50DA22DE2A20D020EE8F
:1007E800BCF01B50D9261C50DA22DECF1DF0DDCF1D
:1007F8001EF01D1E1E1E1D4A1E2A20EEBCF01B5098
:10080800D9261C50DA221DC0DEFF1EC0DDFF20EEF7
:10081800BAF01B50D9261C50DA22020EDE26000E32
:10082800DD2220EED4F01B50D9261C50DA22DE2A15
:10083800000EDD22000E186E0E0E31EC29F0F60EB9
:100848001D6EFF0E1E6E20EECAF01B50D9261C50DE
:10085800DA22DECF1FF0DDCF20F01D501F261E50FC
:100868002022F80E216EFF0E226E20EEB4F01B50EF
:10087800D9261C50DA22DECF23F0DDCF24F0215018
:100888002326225024221F50235C20502458D8B0FD
:100898000FD0000E186E090E31EC29F020EED4F0BE
:1008A8001B50D9261C50DA22000EDE6E000EDD6EBB
:1008B80020EEB4F01B50D9261C50DA22DECF1DF0F2
:1008C800DDCF1EF0080E1D26000E1E2220EEC0F001
:1008D8001B50D9261C50DA22DECF1FF0DDCF20F0C6
:1008E8000A0E1F26000E20221D501F5C1E50205885
:1008F800D8B01200000E186E090E31EC29F020EE67
:10090800D2F01B50D9261C50DA22000EDE6E000EE3
:10091800DD6E120027C071F028C072F00A0E712532
:100928002D6E000E72212E6E2DC0F6FF2EC0F7FF21
:100938000900F5CF60F00900F5CF61F00900F5CFA7
:1009480062F00A00F5CF63F0120E71252D6E000ECD
:1009580072212E6E2DC0F6FF2EC0F7FF0900F5CFCD
:1009680076F00A00F5CF77F0160E71252D6E000E81
:1009780072212E6E2DC0F6FF2EC0F7FF0900F5CFAD
:100988006BF00A00F5CF6CF01C0E71252D6E000E71
:1009980072212E6E2DC0F6FF2EC0F7FF0900080E3B
:1009A800F5180900F510D8A412001E0E71252D6E39
:1009B800000E72212E6E2DC0F6FF2EC0F7FF090023
:1009C800F5040900F5100900F5100900F510D8A480
:1009D8001200765129242D6E77512A202E6E2E5022
:1009E80003E1F10E2D5CD8B012006B512B242D6E53
:1009F8006C512C202E6E410E2D5C010E2E58D8B055
:100A08001200360E806E8B988B968B868B88800EA4
:100A1800806E8B968B86360E2724696F000E2820F1
:100A28006A6F6051272661512822000E646F69C0E1
:100A380012F06AC013F06FEC23F012C078F013C004
:100A480079F02A0E806E8B988B968B868B882AC0BD
:100A580080FF8B968B8629C080FF8B968B8676517C
:100A680029242D6E77512A202E6EFF0E2D24296EF3
:100A7800FF0E2E202A6E2AC080FF8B968B8629C0F7
:100A880080FF8B968B862B0E806E8B988B968B8631
:100A98008B882BC02DF02CC02EF02D1E2E1E2D4A1B
:100AA8002E2A6B512D5E6C512E5A400E2D24746FD8
:100AB800010E2E20756F75C080FF8B968B8674C0D3
:100AC80080FF8B968B866B5174252D6E6C5175212A
:100AD8002E6EFF0E2D24746FFF0E2E20756F75C0BD
:100AE80080FF8B968B8674C080FF8B968B862C0E2E
:100AF800806E8B988B968B868B88000E6E6F000E9F
:100B08006D6F000E686F000E676F27C0F6FF28C074
:100B1800F7FF0800F5500009D8B428D144D1020ED7
:100B28002726000E2822000E7B6F000E7A6F0AD04F
:100B380079C080FF8B968B8678C080FF8B968B86DA
:100B48007A4B7B2B6D51765D2D6E6E5177592E6EDB
:100B58002D507A5D2E507B59D8A0EAD7000E6E6FC3
:100B6800000E6D6F674B682B60D1000E7B6F000E17
:100B78007A6F0AD079C080FF8B968B8678C080FF09
:100B88008B968B867A4B7B2B6D51765D2D6E6E51D5
:100B980077592E6E2D507A5D2E507B59D8A0EAD702
:100BA800000E7B6F000E7A6F0AD079C080FF8B969B
:100BB8008B8678C080FF8B968B867A4B7B2B675110
:100BC8006B5D2D6E68516C592E6EFF0E2D241A6EBA
:100BD800FF0E2E201B6E76C01CF077C01DF0E2ECD5
:100BE8002BF01A5000017A5D1B507B59D8A0DDD735
:100BF800010E646F1AD1030E27242D6E000E2820D3
:100C08002E6E2DC0F6FF2EC0F7FF0800F5501A6EA5
:100C18001B6A76C01CF077C01DF0E2EC2BF0020EC8
:100C280027242F6E000E2820306E2FC0F6FF30C00C
:100C3800F7FF0800F5501A240001656F000E1B200D
:100C4800666F000E7B6F000E7A6F0CD06D4B6E2BAB
:100C580079C080FF8B968B8678C080FF8B968B86B9
:100C68007A4B7B2B65517A5D66517B59D8A0EED7BC
:100C780065C020F066C021F076C022F077C023F06E
:100C880083EC29F0000167512024676F6851212007
:100C9800686F6DC012F06EC013F076C014F077C0A4
:100CA80015F044EC2AF012C06DF013C06EF0040E7B
:100CB800B9D0010E27242D6E000E28202E6E2DC0CF
:100CC800F6FF2EC0F7FF0800F5CF73F0000E7B6F1C
:100CD800000E7A6F2DD07A5127242D6E7B51282053
:100CE8002E6E020E2D26000E2E222DC0F6FF2EC0CF
:100CF800F7FF0800F550040DF3CF2FF0F4CF30F0D4
:100D08002F506925126E30506A21136E6FEC23F054
:100D180012C06FF013C070F06D4B6E2B70C080FF67
:100D28008B968B866FC080FF8B968B867A4B7B2B3E
:100D380073512D6E2E6A2D507A5D2E507B59D8A096
:100D4800CAD77329D8B40ED07329FE0B736F7351A9
:100D58002D6E2E6A020E2D26000E2E222D502726CD
:100D68002E5062D0020E2726010E5ED0010E2724D7
:100D78002D6E000E28202E6E2DC0F6FF2EC0F7FF18
:100D88000800F5502F6E306A3050000AD8A491D769
:100D98002F50000AD8B4C3D6010AD8B4E6D6030A3D
:100DA800D8B429D786D727C0F6FF28C0F7FF080090
:100DB800F5CF73F0010E27242D6E000E28202E6E1D
:100DC8002DC0F6FF2EC0F7FF0800F550040DF3CF35
:100DD8002FF0F4CF30F02F506925126E30506A2171
:100DE800136E6FEC23F012C06FF013C070F0000E9A
:100DF8007B6F000E7A6F0CD06D4B6E2B70C080FF2E
:100E08008B968B866FC080FF8B968B867A4B7B2B5D
:100E180073512D6E2E6A2D507A5D2E507B59D8A0B5
:100E2800EBD7020E2726000E28226451D8B46DD6BF
:100E3800360E806E8B988B968B868B88000E806E14
:100E48008B968B861200000E00018A6F000E896F48
:100E580042C0D9FF43C0DAFFDECF8BF0DDCF8CF084
:100E680020EE04F04250D9264350DA22DECF7CF03F
:100E7800DDCF7DF042C0D9FF43C0DAFFDECF7EF080
:100E8800DDCF7FF07C517E258D6F7D517F218E6F68
:100E980020EE02F04250D9264350DA22DECF8FF0FE
:100EA800DDCF90F020EE06F04250D9264350DA22EA
:100EB800DECF7CF0DDCF7DF020EE02F04250D92667
:100EC8004350DA22DECF7EF0DDCF7FF07C517E25E5
:100ED800916F7D517F21926F20EE08F04250D92604
:100EE8004350DA2210EE0AF04250E1264350E22243
:100EF800DE50E61804E1DE50E618D8B43CD08BC0CA
:100F080012F08CC013F08FC014F090C015F08DC093
:100F180016F08EC017F091C018F092C019F0010EAB
:100F28001A6E20EE0AF04250D9264350DA22DECF5C
:100F38001BF0DDCF1CF07DEC12F08BC012F08CC0E2
:100F480013F08FC014F090C015F08DC016F08EC04D
:100F580017F091C018F092C019F0000E1A6E20EE2A
:100F680008F04250D9264350DA22DECF1BF0DDCFFD
:100F78001CF07DEC12F020EE0CF04250D9264350C4
:100F8800DA22DECFF6FFDDCFF7FF0800F550420A80
:100F9800D8A4ABD020EE0CF04250D9264350DA2228
:100FA800DECF7CF0DDCF7DF0010E00017C27000E46
:100FB8007D237CC0F6FF7DC0F7FF0800F5504D0A81
:100FC800D8A493D020EE0CF04250D9264350DA2210
:100FD800DECF98F0DDCF99F020EE02F04250D9260E
:100FE8004350DA22DECF7CF0DDCF7DF0160E982557
:100FF8007E6F000E99217F6F7EC0F6FF7FC0F7FFDE
:101008000900F5CF80F00900F5CF81F00900F5CF90
:1010180082F00900F5CF83F0D8908333823381338F
:10102800803320EE06F04250D9264350DA22DECF34
:1010380084F0DDCF85F0D8908531876F8431866F55
:101048008051865F8151875B7C518625956F7D51E4
:101058008721966F42C0D9FF43C0DAFFDECF7CF00C
:10106800DDCF7DF0120E98257E6F000E99217F6FDF
:101078007EC0F6FF7FC0F7FF0900F5CF80F00900BA
:10108800F5CF81F00900F5CF82F00900F5CF83F0A4
:10109800D890833382338133803320EE04F042507A
:1010A800D9264350DA22DECF84F0DDCF85F0D89000
:1010B8008531876F8431866F8051865F8151875B68
:1010C8007C518625936F7D518721946F98C027F0B6
:1010D80099C028F093C029F094C02AF095C02BF04D
:1010E80096C02CF08EEC04F002D120EE02F04250B3
:1010F800D9264350DA22DECF7CF0DDCF7DF020EE1A
:1011080006F04250D9264350DA22DECF7EF0DDCFFA
:101118007FF0D89000017F31816F7E31806F20EEA3
:101128000EF04250D9264350DA22DECFF6FFDDCF4B
:10113800F7FF0800F5CF82F0D89082338251805FA4
:10114800000E815B7C518025956F7D518121966FC2
:10115800000E976F5CD020EE0EF04250D926435017
:10116800DA22DECF7CF0DDCF7DF0010E7C27000E89
:101178007D237CC0F6FF7DC0F7FF0800F5CF7EF029
:1011880020EE0CF04250D9264350DA22DECF7FF011
:10119800DDCF80F097517F27000E80237FC0F6FFB8
:1011A80080C0F7FF0800F5CF81F07E51815D886F20
:1011B8008851030D20EE0EF04250D9264350DA2212
:1011C800DECF7CF0DDCF7DF0030E7C27000E7D2383
:1011D8007CC0F6FF7DC0F7FF0900F5CF7EF009005F
:1011E800F5CF7FF0F3507E27F4507F237EC0F6FFC3
:1011F8007FC0F7FF0800F550806F816B020E8027D3
:10120800000E81238051892781518A23972B20EE54
:101218000CF04250D9264350DA22DECF12F0DDCF4F
:1012280013F086EC2AF0000197517C6F7D6B125009
:101238007C5D13507D59D8A08ED742C0D9FF43C0DA
:10124800DAFFDECF7CF0DDCF7DF0D8908A317F6F7A
:1012580089317E6F20EE04F04250D9264350DA22BD
:10126800DECF80F0DDCF81F0D8908131836F80317F
:10127800826F7E51825F7F51835B7C518225936FA1
:101288007D518321946F20EE0CF04250D9264350B3
:10129800DA22DECF20F0DDCF21F020EE0EF0425032
:1012A800D9264350DA22DECF22F0DDCF23F0000E1C
:1012B800246E93C025F094C026F095C027F096C000
:1012C80028F020EE08F04250D9264350DA22DECF2B
:1012D80029F0DDCF2AF020EE0AF04250D9264350FB
:1012E800DA22DECF2BF0DDCF2CF083EC0BF042C0FE
:1012F80025F043C026F0C6EC18F0120020EE0EF0E0
:101308002750D9262850DA22DE50DE10D8B45CD017
:1013180027C0D9FF28C0DAFFDECF29F0DDCF2AF0B9
:1013280020EE0EF02750D9262850DA22DECF2BF0F7
:10133800DDCF2CF020EE04F02750D9262850DA22F1
:10134800DECF2DF0DDCF2EF02B502D5C1A6E2C50F9
:101358002E581B6E20EE13F02750D9262850DA227B
:10136800DECF1CF0DDCF1DF0E2EC2BF01AC020F030
:101378001BC021F020EE15F02750D9262850DA227C
:10138800DECF22F0DDCF23F083EC29F02950202690
:101398002A502122010E2024356E000E2120366E9F
:1013A80020EE0EF02750D9262850DA22DECF29F079
:1013B800DDCF2AF03550292636502A22FE0E292460
:1013C8002F6EFF0E2A2045D027C0D9FF28C0DAFF8C
:1013D800DECF29F0DDCF2AF0010E2924356E000E6C
:1013E8002A20366E27C0D9FF28C0DAFFDECF29F0C1
:1013F800DDCF2AF020EE04F02750D9262850DA2233
:10140800DECF1AF0DDCF1BF020EE13F02750D926DF
:101418002850DA22DECF1CF0DDCF1DF0E2EC2BF0F5
:101428001AC020F01BC021F020EE15F02750D92655
:101438002850DA22DECF22F0DDCF23F083EC29F02A
:10144800295020262A502122FF0E20242F6EFF0E1D
:101458002120306E20EE02F02750D9262850DA22BB
:10146800DECF29F0DDCF2AF0020E2924316E000EDE
:101478002A20326E20EE06F02750D9262850DA228C
:10148800DECF29F0DDCF2AF020EE02F02750D92652
:101498002850DA22DECF2BF0DDCF2CF029502B2676
:1014A8002A502C22FE0E2B24336EFF0E2C20346E75
:1014B80035C012F036C013F031C014F032C015F048
:1014C8002FC016F030C017F033C018F034C019F030
:1014D800010E1A6E20EE0AF02750D9262850DA227B
:1014E800DECF1BF0DDCF1CF07DEC12F020EE11F00A
:1014F8002750D9262850DA2210EE13F02750E1267B
:101508002850E222DECFE6FFDDCFE5FF20EE0EF029
:101518002750D9262850DA22DE50DE10D8A446D02B
:1015280027C0D9FF28C0DAFFDECF29F0DDCF2AF0A7
:10153800010E2924356E000E2A20366E27C0D9FFE9
:1015480028C0DAFFDECF29F0DDCF2AF020EE04F044
:101558002750D9262850DA22DECF1AF0DDCF1BF02B
:1015680020EE11F02750D9262850DA22DECF1CF0C1
:10157800DDCF1DF0E2EC2BF01AC020F01BC021F0EB
:1015880020EE15F02750D9262850DA22DECF22F097
:10159800DDCF23F083EC29F0295020262A50212280
:1015A800FF0E20242F6EFF0E21205BD027C0D9FF0D
:1015B80028C0DAFFDECF29F0DDCF2AF020EE0EF0CA
:1015C8002750D9262850DA22DECF2BF0DDCF2CF099
:1015D80020EE04F02750D9262850DA22DECF2DF04D
:1015E800DDCF2EF02B502D5C1A6E2C502E581B6E12
:1015F80020EE11F02750D9262850DA22DECF1CF031
:10160800DDCF1DF0E2EC2BF01AC020F01BC021F05A
:1016180020EE15F02750D9262850DA22DECF22F006
:10162800DDCF23F083EC29F0295020262A502122EF
:10163800010E2024356E000E2120366E20EE0EF0AD
:101648002750D9262850DA22DECF29F0DDCF2AF01C
:101658003550292636502A22FE0E29242F6EFF0ED9
:101668002A20306E20EE02F02750D9262850DA22A0
:10167800DECF29F0DDCF2AF0020E2924316E000ECC
:101688002A20326E20EE06F02750D9262850DA227A
:10169800DECF29F0DDCF2AF020EE02F02750D92640
:1016A8002850DA22DECF2BF0DDCF2CF029502B2664
:1016B8002A502C22FE0E2B24336EFF0E2C20346E63
:1016C80035C012F036C013F031C014F032C015F036
:1016D8002FC016F030C017F033C018F034C019F01E
:1016E800010E1A6E20EE08F02750D9262850DA226B
:1016F800DECF1BF0DDCF1CF07DEC12F01200000EE7
:10170800416E000E3E6E4FD0010E22242D6E000E4B
:1017180023202E6E2DC0F6FF2EC0F7FF0800F5CF50
:101728002FF03E502024306E000E2120316E30C044
:10173800F6FF31C0F7FFF86A050EF76403D008001A
:10174800F55005D0F6CFE1FFF7CFE2FFE750326E54
:101758002F50325C3F6E3F501A6E1B6A1ABE1B0632
:10176800000E1D6E030E1C6EE2EC2BF0030E2224FD
:101778002D6E000E23202E6E2DC0F6FF2EC0F7FF13
:101788000900F5CF2FF00900F5CF30F01A502F26B9
:101798001B5030222FC0F6FF30C0F7FF0800F5506D
:1017A800020F41263E2A20C012F021C013F086EC19
:1017B8002AF03E502D6E2E6A12502D5C13502E5872
:1017C800D8A0A2D72404D8A402D0415009D0020E30
:1017D8002418D8A40BD041C02DF0D8902D322D500C
:1017E800255C256E2650D8A02604266E010E2224DC
:1017F8002D6E000E23202E6E2DC0F6FF2EC0F7FF93
:101808000800F5CF2FF020C0F6FF21C0F7FFF86AD7
:10181800050EF76403D00800F55005D0F6CFE1FFB8
:10182800F7CFE2FFE750306E2F50305C3F6E3F50ED
:101838001A6E1B6A1ABE1B06000E1D6E030E1C6E66
:10184800E2EC2BF0030E22242D6E000E23202E6EC8
:101858002DC0F6FF2EC0F7FF0900F5CF2FF00900C5
:10186800F5CF30F01A502F261B503022010E2F26AC
:10187800000E30222FC0F6FF30C0F7FF0900F5CF69
:1018880033F00A00F5CF34F03F501A6E1B6A1ABEC7
:101898001B06000E1D6E030E1C6EE2EC2BF0030EF1
:1018A80022242D6E000E23202E6E2DC0F6FF2EC092
:1018B800F7FF0900F5CF2FF00900F5CF30F01A50E7
:1018C8002F261B5030222FC0F6FF30C0F7FF08002C
:1018D800F5CF41F02A0E806E8B988B968B868B887D
:1018E80026C080FF8B968B8625C080FF8B968B86C3
:1018F800415025242D6E000E26202E6E010E2D241B
:101908003B6E000E2E203C6E3CC080FF8B968B8673
:101918003BC080FF8B968B862B0E806E8B988B96A8
:101928008B868B8828C080FF8B968B8627C080FF8C
:101938008B968B8622C0F6FF23C0F7FF0800F55070
:1019480027242D6E000E28202E6EFF0E2D24396EB2
:10195800FF0E2E203A6E3AC080FF8B968B8639C0D8
:1019680080FF8B968B862C0E806E8B988B968B8641
:101978008B88000E3D6E7DD03DC01AF01B6A000EAC
:10198800156E080E146E070E4124126E136A000EAF
:1019980013222BEC27F012C01CF013C01DF0E2EC50
:1019A8002BF033501A24356E34501B20366E000E3F
:1019B800406E4CD0050E22242D6E000E23202E6E74
:1019C8002DC0F6FF2EC0F7FF0900F5CF2FF0090054
:1019D800F5CF30F040C031F0D8903132D890313264
:1019E800D890313231502F26000E302235502F2614
:1019F800365030222FC0F6FF30C0F7FF0800F5CF71
:101A080037F040C02DF0070E2D16800E2E6E000EFA
:101A18002F6E2D2A03D02F342F322E322D2EFBD7A6
:101A28002E503714386E3850D8B407D02AC080FFEB
:101A38008B968B8629C080FF06D02CC080FF8B96A2
:101A48008B862BC080FF8B968B86402A4150405C4A
:101A5800D8A0B0D7000E406E2CC080FF8B968B8626
:101A68002BC080FF8B968B86402A010E4064F4D7EA
:101A78003D2A22C0F6FF23C0F7FF0900F5503D5C60
:101A8800D8A07AD7415025242D6E000E26202E6E20
:101A9800020E2D24256E000E2E20266E204A212AA5
:101AA80020C0F6FF21C0F7FFF86A050EF76403D0DF
:101AB8000800F55005D0F6CFE1FFF7CFE2FFE75079
:101AC8000009D8B4120092D620EE02F01850D92698
:101AD8001950DA22010EDB5004E1320EDE5CD8A088
:101AE80018D020EE02F01850D9261950DA22010E2B
:101AF800DB500FE1400EDE5CD8B00BD018C012F0FE
:101B080019C013F0000E156E000E146EC5EC2AF005
:101B180096D120EE02F01850D9261950DA22010E7B
:101B2800DB5004E1400EDE5CD8A018D020EE02F0B5
:101B38001850D9261950DA22010EDB500FE14E0E4B
:101B4800DE5CD8B00BD018C012F019C013F0000E2C
:101B5800156E010E146EC5EC2AF071D120EE02F05C
:101B68001850D9261950DA22010EDB5004E14E0E26
:101B7800DE5CD8A018D020EE02F01850D9261950F3
:101B8800DA22010EDB500FE15C0EDE5CD8B00BD020
:101B980018C012F019C013F0000E156E020E146E64
:101BA800C5EC2AF04CD120EE02F01850D926195075
:101BB800DA22010EDB5004E15C0EDE5CD8A018D0FE
:101BC80020EE02F01850D9261950DA22010EDB5007
:101BD8000FE16A0EDE5CD8B00BD018C012F019C045
:101BE80013F0000E156E030E146EC5EC2AF027D103
:101BF80020EE02F01850D9261950DA22010EDB50D7
:101C080004E16A0EDE5CD8A018D020EE02F018506D
:101C1800D9261950DA22010EDB500FE1780EDE5C6E
:101C2800D8B00BD018C012F019C013F0000E156E02
:101C3800040E146EC5EC2AF002D120EE02F0185002
:101C4800D9261950DA22010EDB5004E1780EDE5C49
:101C5800D8A018D020EE02F01850D9261950DA2250
:101C6800010EDB500FE1860EDE5CD8B00BD018C039
:101C780012F019C013F0000E156E050E146EC5ECA7
:101C88002AF0DDD020EE02F01850D9261950DA22B9
:101C9800010EDB5004E1860EDE5CD8A018D020EEE1
:101CA80002F01850D9261950DA22010EDB500FE144
:101CB800960EDE5CD8B00BD018C012F019C013F025
:101CC800000E156E060E146EC5EC2AF0B8D020EE84
:101CD80002F01850D9261950DA22010EDB5004E11F
:101CE800960EDE5CD8A018D020EE02F01850D92647
:101CF8001950DA22010EDB500FE1A40EDE5CD8B0D9
:101D08000BD018C012F019C013F0000E156E070E94
:101D1800146EC5EC2AF093D020EE02F01850D926A4
:101D28001950DA22010EDB5004E1A40EDE5CD8A0C3
:101D380018D020EE02F01850D9261950DA22010ED8
:101D4800DB500FE1B20EDE5CD8B00BD018C012F039
:101D580019C013F0000E156E080E146EC5EC2AF0AB
:101D68006ED020EE02F01850D9261950DA22010E52
:101D7800DB5004E1B20EDE5CD8A018D020EE02F0F1
:101D88001850D9261950DA22010EDB500FE1C00E87
:101D9800DE5CD8B00BD018C012F019C013F0000EDA
:101DA800156E090E146EC5EC2AF049D020EE02F02B
:101DB8001850D9261950DA22010EDB5004E1C00E62
:101DC800DE5CD8A018D020EE02F01850D9261950A1
:101DD800DA22010EDB500FE1CE0EDE5CD8B00BD05C
:101DE80018C012F019C013F0000E156E0A0E146E0A
:101DF800C5EC2AF024D020EE02F01850D92619504C
:101E0800DA22010EDB5004E1CE0EDE5CD8A017D03A
:101E180020EE02F01850D9261950DA22010EDB50B4
:101E28000EE1D70EDE5CD8B00AD018C012F019C087
:101E380013F0000E156E0B0E146EC5EC2AF018C0C8
:101E4800D9FF19C0DAFF10EE91F01850E1261950A9
:101E5800E222DECFE6FFDDCFE5FF12002BC0D9FF7F
:101E68002CC0DAFF0B0EDE6E000EDD6E676820EE0A
:101E780002F02B50D9262C50DA22000EDE6E000E0E
:101E8800DD6E20EE04F02B50D9262C50DA22000EFD
:101E9800DE6E000EDD6E20EE06F02B50D9262C509B
:101EA800DA22010EDE6E000EDD6ED20E2B24126ECB
:101EB800000E2C20136ECFEC2BF0B20E2B24126EDA
:101EC800000E2C20136ED1EC28F020EEBCF02B5025
:101ED800D9262C50DA22010EDE6E000EDD6EBE0E03
:101EE8002B24126E000E2C20136E000E156E000EA1
:101EF800146E21EC25F0C80E2B24126E000E2C2037
:101F0800136E000E156E010E146E21EC25F0000EF6
:101F1800136E820E126E000E156E320E146E000EC7
:101F2800176E5A0E166E000E196E140E186EFF0EEE
:101F38001B6E1A68000E1D6E000E1C6EB20E1E6E11
:101F48007F0E1F6E7B0E206E7F0E216E000E226E9E
:101F5800000E236E000E246E000E256E000E266EF7
:101F6800000E276E080E2B24286E000E2C20296EDA
:101F7800010E2A6E43EC1FF0000E136E0A0E126E4D
:101F8800000E156EFA0E146E000E176E460E166EC3
:101F9800000E196E140E186EFF0E1B6E1A68000ED6
:101FA8001D6E000E1C6ED00E1E6E7F0E1F6E7B0EF9
:101FB800206E7F0E216E000E226E000E236E000E24
:101FC800246E000E256E000E266E000E276E200E63
:101FD8002B24286E000E2C20296E020E2A6E43EC4C
:101FE8001FF0000E136E960E126E000E156EFA0E8E
:101FF800146E000E176E460E166E000E196E140E35
:10200800186EFF0E1B6E1A68000E1D6E000E1C6EF9
:10201800D90E1E6E7F0E1F6E7B0E206E7F0E216EF8
:10202800000E226E000E236E000E246E000E256E2A
:10203800000E266E000E276E380E2B24286E000E1A
:102048002C20296E030E2A6E43EC1FF0000E136E2F
:10205800D20E126E000E156E0A0E146E000E176E5A
:10206800140E166E000E196E140E186EFF0E1B6EEF
:102078001A68F80E1D6E000E1C6EFC0E1E6E7F0E8A
:102088001F6E7B0E206E7F0E216E000E226E000EDC
:10209800236E000E246E000E256E000E266E000EB6
:1020A800276E500E2B24286E000E2C20296E040E4D
:1020B8002A6E43EC1FF0000E136E960E126E000E81
:1020C800156EDC0E146E000E176E460E166E000EA0
:1020D800196E320E186E000E1B6E000E1A6EFF0E71
:1020E8001D6E1C68C70E1E6E7F0E1F6E7B0E206E47
:1020F8007F0E216E000E226E000E236E000E246EDF
:10210800000E256E000E266E000E276E680E2B241C
:10211800286E000E2C20296E050E2A6E43EC1FF047
:10212800000E136E320E126E000E156E6E0E146EC9
:10213800000E176EA50E166E000E196E140E186E90
:10214800000E1B6E000E1A6EFF0E1D6E1C68F80E38
:102158001F6E000E1E6E000E216E000E206E000E09
:10216800236E0B0E226E000E246E000E256E800E5E
:102178002B24266E000E2C20276EC0EC1FF0000EBC
:10218800136E320E126E000E156EA00E146E000E37
:10219800176EA50E166E000E196E140E186E000E30
:1021A8001B6E000E1A6EFF0E1D6E1C68F80E1F6E59
:1021B800000E1E6E000E216E000E206E000E236EA5
:1021C800030E226E000E246E000E256E990E2B242F
:1021D800266E000E2C20276EC0EC1FF0120071D165
:1021E800080E3724126E000E3820136E20EE02F00F
:1021F8003750D9263850DA22DECF14F0DDCF15F06B
:1022080020EE04F03750D9263850DA22DECF16F007
:10221800DDCF17F0CDEC24F00009D8B40BD0000EB8
:10222800186E070E31EC29F037C012F038C013F0E1
:10223800A7EC2BF0200E3724126E000E3820136EF8
:1022480020EE02F03750D9263850DA22DECF14F0CB
:10225800DDCF15F020EE04F03750D9263850DA22B9
:10226800DECF16F0DDCF17F0CDEC24F00009D8B49E
:102278000BD0000E186E050E31EC29F037C012F0A5
:1022880038C013F0A7EC2BF0380E3724126E000E6E
:102298003820136E20EE02F03750D9263850DA2253
:1022A800DECF14F0DDCF15F020EE04F03750D9263C
:1022B8003850DA22DECF16F0DDCF17F0CDEC24F05F
:1022C8000009D8B41200000E186E060E31EC29F081
:1022D80037C012F038C013F0A7EC2BF01200800EB4
:1022E8003724126E000E3820136E20EE02F037509D
:1022F800D9263850DA22DECF14F0DDCF15F020EEE3
:1023080004F03750D9263850DA22DECF16F0DDCF68
:1023180017F079EC24F00009D8B414D037C018F0BD
:1023280038C019F068EC0DF0800E3724276E000EC7
:102338003820286E82EC09F037C012F038C013F04C
:10234800A7EC2BF0990E3724126E000E3820136E6E
:1023580020EE02F03750D9263850DA22DECF14F0BA
:10236800DDCF15F020EE04F03750D9263850DA22A8
:10237800DECF16F0DDCF17F079EC24F00009D8B4E1
:1023880014D037C016F038C017F0EEEC21F0990ED3
:102398003724276E000E3820286E82EC09F037C0EB
:1023A80012F038C013F0A7EC2BF0500E3724126E41
:1023B800000E3820136E20EE02F03750D926385020
:1023C800DA22DECF14F0DDCF15F020EE04F037501E
:1023D800D9263850DA22DECF16F0DDCF17F0CDEC53
:1023E80024F00009D8B41200000E186E080E31EC63
:1023F80029F037C012F038C013F0A7EC2BF0120008
:10240800040E3918D8A407D037C01CF038C01DF006
:1024180023EC24F012000A0E3918D8A4120037C091
:1024280025F038C026F047EC2BF037C01CF038C038
:102438001DF0AEEC20F020EE06F03750D9263850CB
:10244800DA22DECF3AF0DDCF3BF03A500408136EC3
:102458003B50D8A0E82A0008146E0A0E156E010E2B
:10246800166E5AEC29F01200680E3724126E000E10
:102478003820136E20EE02F03750D9263850DA2271
:10248800DECF14F0DDCF15F020EE04F03750D9265A
:102498003850DA22DECF16F0DDCF17F0CDEC24F07D
:1024A8000009D8B4120037C02BF038C02CF032EC39
:1024B8000FF0000E186E0F0E31EC29F0000E4D6E65
:1024C80012004D503A6E3B6A3B50000AD8A41200E5
:1024D8003A50000AD8B484D6010AD8B400D7030AFF
:1024E800D8B48ED7010AD8B41200070AD8A41200AB
:1024F800BBD71CC021F01BC022F01250165C135031
:102508001758D8B00CD012C01FF013C020F016C056
:1025180012F017C013F01FC016F020C017F01450A7
:10252800185C15501958D8B00CD014C01FF015C03D
:1025380020F018C014F019C015F01FC018F020C002
:1025480019F01A04D8A455D02A0E806E8B988B9651
:102558008B868B8813C080FF8B968B8612C080FF7A
:102568008B968B8617C080FF8B968B8616C080FF54
:102578008B968B862B0E806E8B988B968B868B8892
:1025880015C080FF8B968B8614C080FF8B968B8638
:10259800010E806E8B968B863F0E806E8B968B8697
:1025A8002C0E806E8B988B968B868B8812C023F0AE
:1025B80013C024F017D014C01DF015C01EF00AD0A7
:1025C80021C080FF8B968B8622C080FF8B968B86DE
:1025D8001D4A1E2A1D50185C1E501958D8B0F0D735
:1025E800234A242A2350165C24501758D8A01200D6
:1025F800E2D72A0E806E8B988B968B868B8813C0B9
:1026080080FF8B968B8612C080FF8B968B8617C0B7
:1026180080FF8B968B8616C080FF8B968B862B0E41
:10262800806E8B988B968B868B8815C080FF8B96D7
:102638008B8614C080FF8B968B86010E806E8B96DE
:102648008B863F0E806E8B968B862C0E806E8B98B9
:102658008B968B868B8812C023F013C024F00AD087
:1026680021C080FF8B968B8622C080FF8B968B863D
:10267800234A242A2350165C24501758D8B0F0D780
:102688002B0E806E8B988B968B868B8819C080FF5B
:102698008B968B8618C080FF8B968B862C0E806E4F
:1026A8008B988B968B868B8812C023F013C024F0EE
:1026B8000AD021C080FF8B968B8622C080FF8B9624
:1026C8008B86234A242A2350165C24501758D8B0E6
:1026D800F0D72A0E806E8B988B968B868B8813C0CA
:1026E80080FF8B968B8612C080FF8B968B8613C0DB
:1026F80080FF8B968B8612C080FF8B968B862B0E65
:10270800806E8B988B968B868B8815C080FF8B96F6
:102718008B8614C080FF8B968B86010E806E8B96FD
:102728008B863F0E806E8B968B862C0E806E8B98D8
:102738008B968B868B8814C023F015C024F00AD0A2
:1027480021C080FF8B968B8622C080FF8B968B865C
:10275800234A242A2350185C24501958D8B0F0D79B
:102768002A0E806E8B988B968B868B8817C080FF7D
:102778008B968B8616C080FF8B968B8617C080FF42
:102788008B968B8616C080FF8B968B862C0E806E60
:102798008B988B968B868B8814C023F015C024F0F9
:1027A8000AD021C080FF8B968B8622C080FF8B9633
:1027B8008B86234A242A2350185C24501958D8A001
:1027C8001200EFD7A3EC26F0110E806E8B988B9633
:1027D8008B868B88000E186ED00E176ECA0EE82EE8
:1027E800FED7172EFCD7182A090E1864F5D7360E0F
:1027F800806E8B988B968B868B88000E806E8B965E
:102808008B863A0E806E8B988B968B868B88550EAE
:10281800806E8B968B86B20E806E8B988B968B868D
:102828008B880C0E806E8B968B860C0E806E8B962A
:102838008B86330E806E8B968B86330E806E8B96CE
:102848008B86B70E806E8B988B968B868B88350E11
:10285800806E8B968B86BB0E806E8B988B968B8644
:102868008B882B0E806E8B968B86C00E806E8B9815
:102878008B968B868B882C0E806E8B968B86C20EE1
:10288800806E8B988B968B868B88010E806E8B96CC
:102898008B8680688B968B86C30E806E8B988B9602
:1028A8008B868B88110E806E8B968B86C40E806EFD
:1028B8008B988B968B868B88200E806E8B968B865A
:1028C800C60E806E8B988B968B868B88090E806ED1
:1028D8008B968B86D00E806E8B988B968B868B888A
:1028E800A40E806E8B968B86A10E806E8B968B863F
:1028F800E00E806E8B988B968B868B88D00E806EC0
:102908008B968B86000E806E8B968B86050E806E5E
:102918008B968B860E0E806E8B968B86150E806E30
:102928008B968B860D0E806E8B968B86370E806EFF
:102938008B968B86430E806E8B968B86470E806EA9
:102948008B968B86090E806E8B968B86150E806E05
:102958008B968B86120E806E8B968B86160E806EEB
:102968008B968B86190E806E8B968B86E10E806E09
:102978008B988B968B868B88D00E806E8B968B86E9
:10298800000E806E8B968B86050E806E8B968B86DE
:102998000D0E806E8B968B860C0E806E8B968B86BA
:1029A800060E806E8B968B862D0E806E8B968B8690
:1029B800440E806E8B968B86400E806E8B968B862F
:1029C8000E0E806E8B968B861C0E806E8B968B8679
:1029D800180E806E8B968B86160E806E8B968B8665
:1029E800190E806E8B968B862A0E806E8B988B962E
:1029F8008B868B88000E806E8B968B86000E806E81
:102A08008B968B86000E806E8B968B86EF0E806E73
:102A18008B968B862B0E806E8B988B968B868B88ED
:102A2800000E806E8B968B86000E806E8B968B8642
:102A3800010E806E8B968B863F0E806E8B968B86F2
:102A4800260E806E8B988B968B868B88010E806EF7
:102A58008B968B86290E806E8B988B968B868B88AF
:102A680012002350800B306E23502324376E22BE71
:102A780037803750D8B40DD03728D8A408D0000EE6
:102A8800206E000E216E000E226E000E236E228E26
:102A980006D0000E206E000E216E000E226E000E73
:102AA800236E2750800B301A27502724386E26BEF5
:102AB80038803850D8B40DD03828D8A408D0000EA3
:102AC800246E000E256E000E266E000E276E268ED2
:102AD80006D0000E246E000E256E000E266E000E27
:102AE800276E2450251026102710D8A417D0000EC2
:102AF800206E000E216E000E226E000E236E800ED8
:102B080022127F0E23123050231220C020F021C041
:102B180021F022C022F023C023F012003750D8A49D
:102B280009D0000E206E000E216E000E226E000EDF
:102B3800236E1200385037C028F0296A285E000E2C
:102B4800295A7F0E2824316E000E2920326E20C0AB
:102B58002CF021C02DF022C02EF023C02FF0000E43
:102B6800206E000E216E000E226E000E236E000EE7
:102B7800336E000E346E000E356E000E366E000E8B
:102B8800386E28D03850D8B411D0D8902C362D367D
:102B98002E362F36D890203621362236233636BEAA
:102BA8002080D890333634363536363624502C5C6F
:102BB80025502D5826502E5827502F58D8A009D0C8
:102BC800368C24502C5E25502D5A26502E5A2750CC
:102BD8002F5A382A190E3864D5D72C502D102E109C
:102BE8002F10D8B411D033800FD0D890203621368A
:102BF8002236233636BE2080D890333634363536E2
:102C080036363106D8A0320622AEEFD7000E386E1F
:102C180036AE17D0FF0E3314286EFF0E3414296E0B
:102C2800FF0E35142A6E7F0E36142B6E285029108D
:102C38002A102B10D8B403D0010E386E02D020B061
:102C4800FBD73850D8B41FD0010E2026000E212201
:102C58002222232223A017D020C028F021C029F047
:102C680022C02AF023C02BF02B342B322A322932EF
:102C7800283228C020F029C021F02AC022F02BC019
:102C880023F0314A322A32BE10D0325003E13128C3
:102C9800D8A00BD0000E326E3168000E206E000EE8
:102CA800216E000E226E000E236E32BE05D0325009
:102CB80011E13104D8B00ED0000E326E000E316E24
:102CC800000E206E000E216E000E226E000E236E86
:102CD800000E306E31C037F037A002D0228E01D0FE
:102CE800229ED8903730236E0ED725D1F19A0B0E3D
:102CF800146EB80E136E030E156E000E166E5AEC97
:102D080029F0F5EC2BF01200000EA86F000EA76F4B
:102D1800A751030DF350B20FD96EDA6A030EDE180D
:102D2800D8A405D0000E136EA751E1EC2AF00001DB
:102D3800A74BA82BA8BFECD7A85104E1080EA75DA4
:102D4800D8A0E6D7F096000EA7EC2AF0C2B2FED7BC
:102D5800C45000018E6F8D6BC3508D25AB6F000E74
:102D68008E21AC6FAC5108E1790EAB5DD8B004D0C0
:102D7800000EAC6F780EAB6F660E246E660E256E75
:102D8800160E266E400E276E880E8D6FFF0E8E6F04
:102D9800ABC08FF0ACC090F08D518F278E5190232F
:102DA8008FC012F090C013F0146A156A000EC5ECBB
:102DB8001BF012C020F013C021F014C022F015C07F
:102DC80023F035EC15F020C039F021C03AF022C0CC
:102DD8003BF023C03CF012EC23F039C0ABF03AC012
:102DE800ACF00001AB51F008AB6FAC51D8A0E82AA9
:102DF8000008AC6F010EA7EC2AF0C2B2FED7C4508F
:102E080000018E6F8D6BC3508D25A96F000E8E212A
:102E1800AA6FAA5108E16A0EA95DD8B004D0000EC5
:102E2800AA6F690EA96F970E8D6FFF0E8E6FA9C0DE
:102E38008FF0AAC090F08D518F278E519023D89093
:102E48009031916F8F31A96F91C0AAF0000E146E66
:102E5800090E136E040E156E000E166E5AEC29F04C
:102E6800280EC26EF5EC2BF081B21200930E000111
:102E78007E6F7F6BEA0E806F7F0E816FABC082F032
:102E8800ACC083F065EC2AF0930E206E216A7B0EAD
:102E9800226E7F0E236E010E246E000E266EC80E63
:102EA800256E000E286EC80E276E000E2A6E000EC4
:102EB800296EFF0E2C6E2B6883EC0BF08BC012F082
:102EC8008CC013F0ABC014F0ACC015F046EC2CF07D
:102ED800930E00017E6F7F6BF00E806F7F0E816F07
:102EE800A9C082F0AAC083F065EC2AF0930E206E88
:102EF800216A7B0E226E7F0E236E010E246E000E59
:102F0800266EC80E256E000E286EFA0E276E000E6D
:102F18002A6E000E296EFF0E2C6E2B6883EC0BF0C8
:102F28008BC012F08CC013F0A9C014F0AAC015F021
:102F38003BEC2CF012000001D9518D6F8E6B8E5135
:102F4800000AD8A412008D51000AD8B4CFD6010ABD
:102F5800D8A41200D9D62DC068F02EC069F02FC0B1
:102F68006AF030C06BF031C06CF032C06DF033C025
:102F78006EF034C06FF06FAF02D0010E01D0000EBA
:102F8800666F676B66516711D8B410D06F1F6E1FDC
:102F98006D1F6C1F6B1F6A1F691F686D000E692308
:102FA8006A236B236C236D236E236F234AAE4B92E7
:102FB8004ABE05D04A5008E14904D8B005D0000EF1
:102FC800636F010E626F04D049C062F04AC063F0BB
:102FD80047C064F048C065F066516711D8A402D0B4
:102FE8004BA403D06407D8A06507000E716F1F0EAD
:102FF800706F000EFA6F7AD07007D8A07107705101
:10300800DB0FD96EDA6A68C012F069C013F06AC0C3
:1030180014F06BC015F06CC016F06DC017F06EC0E0
:1030280018F06FC019F00A0E1A6E000E1B6E000E13
:103038001C6E000E1D6E000E1E6E000E1F6E000E22
:10304800206E000E216E9DEC1DF012C035F013C0ED
:1030580036F014C037F015C038F016C039F017C074
:103068003AF018C03BF019C03CF035C024F037C026
:1030780025F060EC2BF02450300FDF6E6207D8A0EB
:1030880063076407D8A0650768C012F069C013F029
:103098006AC014F06BC015F06CC016F06DC017F064
:1030A8006EC018F06FC019F00A0E1A6E000E1B6E73
:1030B800000E1C6E000E1D6E000E1E6E000E1F6EA2
:1030C800000E206E000E216E21EC1BF012C068F07D
:1030D80013C069F014C06AF015C06BF016C06CF02C
:1030E80017C06DF018C06EF019C06FF071BF1FD017
:1030F800715103E17005D8A01AD0685169116A119D
:103108006B116C116D116E116F11D8A475D763BF57
:1031180005D0635102E16205D8B06ED765BF07D00C
:10312800655103E16405D8A002D04BB265D766515A
:103138006711D8A402D04BA415D07007D8A0710786
:1031480066516711D8A404D0000E616F2B0E03D00E
:10315800000E616F2D0E606F7051DB0FD96EDA6A49
:1031680060C0DFFF2CC01FF07051DB0F206E64C001
:1031780021F065C022F0AEEC27F01FC02CF020C073
:103188002DF0120025C0D9FF26C0DAFFDECF33F0BC
:10319800DDCF34F020EE04F02550D9262650DA226F
:1031A800DECF27F0DDCF28F025C0D9FF26C0DAFF13
:1031B800DECF29F0DDCF2AF0275029242F6E2850A2
:1031C8002A20306E20EE02F02550D9262650DA2229
:1031D800DECF31F0DDCF32F020EE06F02550D926D3
:1031E8002650DA22DECF27F0DDCF28F020EE02F0DD
:1031F8002550D9262650DA22DECF29F0DDCF2AF055
:1032080027502924356E28502A20366E20EE10F0DB
:103218002550D9262650DA22DF50D8A40DD020EE2A
:1032280008F02550D9262650DA22DECF2BF0DDCF44
:103238002CF020EE0AF012D033C012F034C013F094
:10324800010E3524146E000E3620156E65EC1CF048
:1032580012C02BF013C02CF020EE08F02550D92610
:103268002650DA22DECF2DF0DDCF2EF020EE08F04A
:103278002550D9262650DA2210EE0AF02550E126EC
:103288002650E222DE50E61804E1DE50E618D8B4F3
:103298001200030E3324126E000E3420136E010E3A
:1032A8003524146E000E3620156E030E2F24166E6C
:1032B800000E3020176E030E3524186E000E3620CF
:1032C800196E010E1A6E2BC01BF02CC01CF07DEC81
:1032D80012F0010E2F24126E000E3020136E030E12
:1032E8003124146E000E3220156E030E2F24166E34
:1032F800000E3020176E030E3524186E000E36208F
:10330800196E010E1A6E2BC01BF02CC01CF07DEC40
:1033180012F0010E3324126E000E3420136E010ECB
:103328003124146E000E3220156EFF0E2F24166EF7
:10333800FF0E3020176E020E3124186E000E322058
:10334800196E010E1A6E2DC01BF02EC01CF07DECFC
:1033580012F0010E3324126E000E3420136E010E8B
:103368003124146E000E3220156E020E3324166EB0
:10337800000E3420176EFF0E3524186EFF0E36200F
:10338800196E010E1A6E2DC01BF02EC01CF07DECBC
:1033980012F0120020EE04F02550D9262650DA2229
:1033A800DECF27F0DDCF28F0F80E2724126EFF0EAF
:1033B8002820136E20EE06F02550D9262650DA2252
:1033C800DECF29F0DDCF2AF0F80E2924146EFF0E87
:1033D8002A20156E20EE04F02550D9262650DA2230
:1033E800DECF2BF0DDCF2CF0080E2B24166E000E4E
:1033F8002C20176E20EE06F02550D9262650DA220A
:10340800DECF2DF0DDCF2EF0080E2D24186E000E25
:103418002E20196E010E1A6E000E1C6E000E1B6E09
:103428007DEC12F025C0D9FF26C0DAFF10EE04F0BB
:103438002550E1262650E222DECFE6FFDDCFE5FF6C
:1034480020EE02F02550D9262650DA2210EE06F09A
:103458002550E1262650E222DECFE6FFDDCFE5FF4C
:1034680025C0D9FF26C0DAFFDECF27F0DDCF28F050
:10347800F80E2724126EFF0E2820136E20EE02F09D
:103488002550D9262650DA22DECF29F0DDCF2AF0C2
:10349800F80E2924146EFF0E2A20156E25C0D9FFB8
:1034A80026C0DAFFDECF2BF0DDCF2CF0080E2B2460
:1034B800166E000E2C20176E20EE02F02550D9262D
:1034C8002650DA22DECF2DF0DDCF2EF0080E2D2487
:1034D800186E000E2E20196E010E1A6EF80E1C6E54
:1034E800000E1B6E7DEC12F012003E50D96EDA6AA7
:1034F800DECFF6FFDDCFF7FF0800F550250AD8A488
:1035080086D03E50D96EDA6ADE2A000EDD22000E21
:10351800486E000E476E47C04BF048C04CF04968F3
:103528004A683E50D96EDA6ADECFF6FFDDCFF7FF84
:103538000800F550640AD8B40CD03E50D96EDA6A47
:10354800DECFF6FFDDCFF7FF0800F550690AD8A4F3
:1035580034D03E50D96EDA6ADE2A000EDD223F50A2
:10356800D96EDA6ADF50DF2ADF2AD96EDA6ADECF4F
:1035780072F0DDCF73F0000E73BFFF0E746F756FBE
:10358800766F776F786F796F3DC02CF072C02DF031
:1035980073C02EF074C02FF075C030F076C031F0D3
:1035A80077C032F078C033F079C034F0AFEC17F060
:1035B8002CC03DF02DC03EF012003E50D96EDA6AA4
:1035C800DECFF6FFDDCFF7FF0800F550250AD8A4B7
:1035D80013D03E50D96EDA6ADE2A000EDD22000EC4
:1035E800136E250E126E3DC014F05BEC26F0000E33
:1035F8003E6E010E3D6E12003E50D96EDA6ADE2A2A
:10360800000EDD22000E3E6E000E3D6E12003E5092
:10361800D96EDA6ADECFF6FFDDCFF7FF0800F55086
:10362800126E136A3DC014F05BEC26F03E50D96E62
:10363800DA6ADE2A000EDD22DAD7000E236E21AE0A
:1036480012D0211E201E1F1E1E1E1D1E1C1E1B1EEC
:103658001A6C000E1B221C221D221E221F22202251
:103668002122010E236E19AE12D0191E181E171E24
:10367800161E151E141E131E126C000E1322142281
:1036880015221622172218221922010E231A20EEBB
:1036980024F0070EDE6AE806FDE21A501B101C1023
:1036A8001D101E101F1020102110D8B446D0010E76
:1036B800226E0AD0D8901A361B361C361D361E3696
:1036C8001F3620362136222A21AEF4D7D890243648
:1036D800253626362736283629362A362B361A50E6
:1036E800125C1B5013581C5014581D5015581E506E
:1036F80016581F5017582050185821501958D8A03C
:1037080011D01A50125E1B50135A1C50145A1D50D7
:10371800155A1E50165A1F50175A2050185A215021
:10372800195A2480D890213220321F321E321D327D
:103738001C321B321A32222EC9D72350D8B410D0CB
:103748002B1E2A1E291E281E271E261E251E246CF7
:10375800000E252226222722282229222A222B224D
:1037680024C012F025C013F026C014F027C015F0AD
:1037780028C016F029C017F02AC018F02BC019F07D
:1037880012001A6E1A50D8A415AE1AD012C016F02C
:1037980013C017F014C018F015C019F0161E171E24
:1037A800181E191E162A000E17221822192216C0D2
:1037B8001CF017C01DF018C01EF019C01FF008D06B
:1037C80012C01CF013C01DF014C01EF015C01FF06D
:1037D8001250131014101510D8A409D0000E126E30
:1037E800000E136E000E146E000E156E1200960E6B
:1037F8001B6E06D01B2AD8901F321E321D321C3277
:10380800000E1C14166E000E1D14176E000E1E14EA
:10381800186EFE0E1F14196E165017101810191076
:10382800D8B40DD0E7D71B2A010E1C26000E1D2286
:103838001E221F22D8901F321E321D321C32000E4B
:103848001C14166E000E1D14176E000E1E14186E32
:10385800FF0E1F14196E1650171018101910D8B42F
:1038680007D0E1D71B06D8901C361D361E361F36EA
:103878001EBE03D0020E1B60F5D71BA01E9ED8905B
:103888001B321BC016F0176A186A196A16C019F09D
:10389800186A176A166A16501C1217501D1218500B
:1038A8001E1219501F121A50D8A415AE01D01F8E1F
:1038B8001CC012F01DC013F01EC014F01FC015F07C
:1038C80012002A0E806E8B988B968B868B8813C07D
:1038D80080FF8B968B8612C080FF8B968B86000E9E
:1038E800806E8B968B86EF0E806E8B968B862B0E5A
:1038F800806E8B988B968B868B8815C080FF8B96F5
:103908008B8614C080FF8B968B86010E806E8B96FB
:103918008B863F0E806E8B968B862E0E806E8B98D4
:103928008B968B868B8892688B9400F08B84926838
:103938008B9400F080CF1AF01B6A8B841AC016F0A3
:103948001BC017F0D89017321632D890173216329B
:10395800D8901732163216C01AF017C01BF01AC0CA
:1039680016F01BC017F00B0ED89016361736E82E37
:10397800FBD716C018F017C019F08B9400F080CF51
:103988001AF01B6A8B841AC016F01BC017F0D89067
:1039980017321632D8901732163216C01AF017C0DE
:1039A8001BF01AC016F01BC017F0050ED89016367B
:1039B8001736E82EFBD716501812175019128B9489
:1039C80000F080501A128B841AC016F01BC017F032
:1039D800D89017321632D89017321632D89017323C
:1039E800163216C01AF017C01BF01A5018121B50C6
:1039F8001912000E926E18C012F019C013F01200BE
:103A080020EE04F02550D9262650DA22DECF12F017
:103A1800DDCF13F020EE06F02550D9262650DA2205
:103A2800DECF14F0DDCF15F020EE04F02550D926B6
:103A38002650DA22DECF27F0DDCF28F0320E2724F9
:103A4800166E000E2820176E20EE06F02550D92697
:103A58002650DA22DECF29F0DDCF2AF00A0E2924FB
:103A6800186E000E2A20196E010E1A6E000E1C6EBA
:103A7800000E1B6E7DEC12F025C0D9FF26C0DAFFC0
:103A880010EE04F02550E1262650E222DECFE6FFB4
:103A9800DDCFE5FF20EE02F02550D9262650DA22A8
:103AA80010EE06F02550E1262650E222DECFE6FF92
:103AB800DDCFE5FF25C0D9FF26C0DAFFDECF12F043
:103AC800DDCF13F020EE02F02550D9262650DA2259
:103AD800DECF14F0DDCF15F025C0D9FF26C0DAFF00
:103AE800DECF27F0DDCF28F0320E2724166E000E29
:103AF8002820176E20EE02F02550D9262650DA220B
:103B0800DECF29F0DDCF2AF00A0E2924186E000E28
:103B18002A20196E010E1A6E20EE08F02550D926BB
:103B28002650DA22DECF1BF0DDCF1CF07DEC12F040
:103B38001200000E236E19AE12D0191E181E171E81
:103B4800161E151E141E131E126C000E13221422AC
:103B580015221622172218221922010E236E21AED1
:103B680010D0211E201E1F1E1E1E1D1E1C1E1B1EC9
:103B78001A6C000E1B221C221D221E221F2220222C
:103B880021221A501B101C101D101E101F1020106F
:103B98002110D8B43CD0010E226E0AD0D8901A3623
:103BA8001B361C361D361E361F3620362136222A75
:103BB80021AEF4D71A50125C1B5013581C501458DD
:103BC8001D5015581E5016581F5017582050185879
:103BD80021501958D8A010D01A50125E1B50135AF1
:103BE8001C50145A1D50155A1E50165A1F50175A59
:103BF8002050185A2150195AD890213220321F3299
:103C08001E321D321C321B321A32222ED3D72350B9
:103C1800D8B410D0191E181E171E161E151E141EF5
:103C2800131E126C000E13221422152216221722BC
:103C38001822192212C012F013C013F014C014F085
:103C480015C015F016C016F017C017F018C018F0F8
:103C580019C019F01200FF0E136E1268CCEC23F095
:103C68009C0E206E7F0E216E7B0E226E7F0E236EC1
:103C7800000E246E000E266E0A0E256E000E286EAB
:103C8800320E276E000E2A6E000E296EFF0E2C6E65
:103C98002B6883EC0BF0500E4524426E000E462034
:103CA800436E27EC07F045C0D9FF46C0DAFF10EE97
:103CB80091F04550E1264650E222DECFE6FFDDCF07
:103CC800E5FF800E4524376E000E4620386EBCECAA
:103CD8001EF0A70E206E7F0E216E7B0E226E7F0EC9
:103CE800236E000E246E000E266E320E256E000E18
:103CF800286E5F0E276E000E2A6E000E296EFF0ECC
:103D08002C6E2B6883EC0BF020EE06F04550D9267C
:103D18004650DA2210EEAAF04550E1264650E2223B
:103D2800DECFE6FFDDCFE5FF990E4524376E000EA6
:103D38004620386EBCEC1EF0F60E206E7F0E216E0B
:103D48007B0E226E7F0E236E000E246E000E266EF2
:103D5800320E256E000E286E910E276E000E2A6E0A
:103D6800000E296EFF0E2C6E2B6883EC0BF01200F0
:103D780037C0D9FF38C0DAFFDECF3DF0DDCF3EF0E7
:103D880020EE04F03750D9263850DA22DECF39F049
:103D9800DDCF3AF037C0D9FF38C0DAFFDECF3BF0CD
:103DA800DDCF3CF039503B243F6E3A503C20406E0A
:103DB80020EE02F03750D9263850DA22DECF41F013
:103DC800DDCF42F020EE06F03750D9263850DA22FF
:103DD800DECF39F0DDCF3AF020EE02F03750D926A9
:103DE8003850DA22DECF3BF0DDCF3CF039503B24AF
:103DF800436E3A503C20446E3DC012F03EC013F072
:103E080041C014F042C015F03FC016F040C017F092
:103E180043C018F044C019F0010E1A6E20EE0AF0E3
:103E28003750D9263850DA22DECF1BF0DDCF1CF010
:103E38007DEC12F03DC012F03EC013F041C014F00A
:103E480042C015F03FC016F040C017F043C018F04C
:103E580044C019F0000E1A6E20EE0CF03750D92627
:103E68003850DA22DECF1BF0DDCF1CF07DEC12F0EB
:103E780037C027F038C028F082EC09F0120028C0BB
:103E8800D9FF29C0DAFF12C0DEFF13C0DDFF20EE24
:103E980002F02850D9262950DA2214C0DEFF15C0B6
:103EA800DDFF20EE06F02850D9262950DA2218C066
:103EB800DEFF19C0DDFF20EE04F02850D926295076
:103EC800DA2216C0DEFF17C0DDFF20EE08F028500A
:103ED800D9262950DA221AC0DEFF1BC0DDFF20EEEA
:103EE8000AF02850D9262950DA221CC0DEFF1DC04E
:103EF800DDFF20EE0CF02850D9262950DA221EC00A
:103F0800DEFF1FC0DDFF20EE0EF02850D926295015
:103F1800DA2220C0DEFF21C0DDFF20EE11F028509C
:103F2800D9262950DA2222C0DEFF23C0DDFF20EE89
:103F380013F02850D9262950DA2224C0DEFF25C0E4
:103F4800DDFF20EE15F02850D9262950DA2226C0A8
:103F5800DEFF27C0DDFF20EE17F02850D9262950B4
:103F6800DA222AC0DFFF20EE10F02850D926295087
:103F7800DA22000EDF6E120026C0D9FF27C0DAFF52
:103F880012C0DEFF13C0DDFF20EE02F02650D92656
:103F98002750DA2214C0DEFF15C0DDFF20EE06F040
:103FA8002650D9262750DA2218C0DEFF19C0DDFFB7
:103FB80020EE04F02650D9262750DA2216C0DEFF5C
:103FC80017C0DDFF20EE08F02650D9262750DA2248
:103FD8001AC0DEFF1BC0DDFF20EE0AF02650D926EE
:103FE8002750DA221CC0DEFF1DC0DDFF20EE0CF0DA
:103FF8002650D9262750DA221EC0DEFF1FC0DDFF5B
:1040080020EE0EF02650D9262750DA2220C0DEFFF7
:1040180021C0DDFF20EE17F02650D9262750DA22DE
:1040280024C0DEFF25C0DDFF20EE15F02650D9267E
:104038002750DA2222C0DEFF23C0DDFF20EE11F078
:104048002650D9262750DA22000EDE6E000EDD6ECD
:1040580020EE13F02650D9262750DA22000EDE6E05
:10406800000EDD6E120060D09CC044F09DC045F08B
:1040780028EC28F012009CC045F09DC046F02FECBB
:104088001EF012000B0E9E19D8A408D0BE0E9C2557
:10409800256E000E9D21266E04EC1DF00C0E00010D
:1040A8009E19D8A408D0C80E9C25256E000E9D2107
:1040B800266E04EC1DF00D0E00019E19D8A408D040
:1040C800B20E9C25256E000E9D21266ECEEC19F0B1
:1040D8000E0E00019E19D8A41200D20E9C258B6FDB
:1040E800000E9D218C6F88EC21F0000E136E000EDF
:1040F800126E000E156EA00E146E000E176EEF0EE7
:10410800166E000E196EA00E186E010E1A6EFF0EB6
:104118001C6E1B687DEC12F012009CC044F09DC020
:1041280045F073EC25F012000001D8519F6FA06B89
:10413800A051000AD8A412009F51000AD8B494D7FD
:10414800010AD8B498D7030AD8B49CD7010AD8A4CE
:104158001200E3D7FE0E1E6EFF0E1F6E20EEB2F0A9
:104168001C50D9261D50DA22DECF20F0DDCF21F0F9
:104178001E5020261F50212220EEC8F01C50D926A0
:104188001D50DA22DECF22F0DDCF23F0190E2226D1
:10419800000E23222050225C21502358D8B016D07C
:1041A800C80E1C24126E000E1D20136E000E156E14
:1041B800020E146E000E176E010E166E53EC22F0EE
:1041C800000E186E0C0E31EC29F0120020EEC8F02B
:1041D8001C50D9261D50DA22DECF1EF0DDCF1FF08D
:1041E800190E1E26000E1F2220EEB2F01C50D926F2
:1041F8001D50DA22DECF20F0DDCF21F0020E20267E
:10420800000E21221E50205C1F502158D8B01200E9
:10421800C80E1C24126E000E1D20136E000E156EA3
:10422800020E146E000E176E000E166E53EC22F07E
:10423800000E186E0C0E31EC29F01200406E4CD0B6
:104248003CC037F03DC038F0000E396EF3EC10F08A
:10425800070E4018D8A402D0010E4D6E050E401866
:10426800D8A41200020E4D6E20EE06F03C50D9265E
:104278003D50DA22DECF3EF0DDCF3FF03E5004085D
:10428800136E3F50D8A0E82A0008146E0A0E156E67
:10429800010E166E5AEC29F012003CC037F03DC0F2
:1042A80038F0000E396EF3EC10F0080E4018D8A460
:1042B8001200000E4D6E1200090E4018D8A403D04B
:1042C800040E4D6E12003CC037F03DC038F040C0BF
:1042D80039F0F3EC10F012004D503E6E3F6A3F503B
:1042E800000AD8A412003E50000AD8B4A9D7010A7F
:1042F800D8B4D3D7030AD8B4DFD7010AD8B4120088
:10430800070AD8A41200DFD7040E8B257E6F000E93
:104318008C217F6FED0E806F7F0E816F8BC0D9FF70
:104328008CC0DAFFDECF82F0DDCF83F065EC2AF0B7
:10433800040E8B25206E000E8C21216E7B0E226EC2
:104348007F0E236E000E246E000E266E140E256E50
:10435800000E286EAA0E276EFF0E2A6E2968000E20
:104368002C6E000E2B6E83EC0BF0040E00018B25D7
:104378007E6F000E8C217F6FED0E806F7F0E816F38
:1043880020EE02F08B51D9268C51DA22DECF82F052
:10439800DDCF83F065EC2AF0040E8B25206E000E2D
:1043A8008C21216E7B0E226E7F0E236E000E246EF2
:1043B800000E266E140E256E000E286E8A0E276ECD
:1043C800FF0E2A6E2968000E2C6E000E2B6E83ECF1
:1043D8000BF0120020EE02F01650D9261750DA2200
:1043E800010EDB5004E1690EDE5CD8A018D020EE87
:1043F80002F01650D9261750DA22010EDB500FE1D1
:10440800A00EDE5CD8B00BD016C012F017C013F0A7
:10441800000E156E020E146E51EC2CF02FD020EE0B
:1044280002F01650D9261750DA22010EDB5004E1AB
:10443800A00EDE5CD8A018D020EE02F01650D926C7
:104448001750DA22010EDB500FE1D70EDE5CD8B030
:104458000BD016C012F017C013F0000E156E030E25
:10446800146E51EC2CF00AD016C012F017C013F0DD
:10447800000E156E010E146E51EC2CF020EE06F0B5
:104488001650D9261750DA2210EEAAF01650E12657
:104498001750E222DECFE6FFDDCFE5FF120016045B
:1044A8001710D8A42FD012C0D9FF13C0DAFFDECF5F
:1044B80018F0DDCF19F0145018261550192212C023
:1044C800D9FF13C0DAFF18C0DEFF19C0DDFF12C024
:1044D800D9FF13C0DAFFDECF18F0DDCF19F0320EA6
:1044E8001826000E1922195004E1F00E185CD8A005
:1044F800120012C0D9FF13C0DAFFBD0EDE6E000E27
:10450800DD6E1200010E1424186E000E1520196EAF
:1045180012C0D9FF13C0DAFF1850DE5C1950DE58FC
:10452800D8B009D012C0D9FF13C0DAFF000EDE6E72
:10453800000EDD6E120012C0D9FF13C0DAFFDECF05
:1045480018F0DDCF19F01450185E1550195A12C022
:10455800D9FF13C0DAFF18C0DEFF19C0DDFF120053
:104568009B8C700ED36E090E0001A66F1E0EA56FF0
:10457800E40EE82EFED7A52FFCD7A62FFAD700F019
:10458800E6EC13F0000E136E1F0E126ECCEC23F047
:10459800BD0E206E7F0E216E7B0E226E7F0E236E67
:1045A800020E246E000E266E320E256E000E286E48
:1045B800320E276E000E2A6E000E296EFF0E2C6E2C
:1045C8002B6883EC0BF0F28EF096F19A94908B8026
:1045D800860ED56EFB0ED76E1D0ED66EF28A94929D
:1045E800BB686650F00B0C09666E6768CF0E6616DE
:1045F8009E92BA80BA92BA84A60EC06EEEEC27F0EC
:10460800000E2B6E010E2C6E32EC0FF0000E000126
:10461800A36F010EA46FBCEC2BF012003B343C34AA
:10462800426E4250D8A409D0000E396E000E3A6E80
:10463800000E3B6E000E3C6E120039C03DF03AC0D1
:104648003EF03BC03FF03CC040F0200E05D0D89073
:1046580040323F323E323D32E82EF9D73D50416E6E
:104668003B8EFF0E3916FF0E3A16FF0E3B16000E54
:104678003C16960E425E42AE0DD04250800A970F0D
:10468800D8A0D2D7D8903C323B323A323932423E67
:10469800F9D70DD01F0E426407D0C6D7D890393647
:1046A8003A363B363C3642064250D8A4F7D74150FA
:1046B800D8B408D03C1E3B1E3A1E396C000E3A2274
:1046C8003B223C2239C039F03AC03AF03BC03BF0BB
:1046D8003CC03CF01200020E1224146E000E13208F
:1046E800156E14C0F6FF15C0F7FF0800F5CF16F0D9
:1046F800D8901632D8901632D89016321650186EB6
:10470800196A010E1224146E000E1320156E14C0BF
:10471800F6FF15C0F7FF0800F5CF16F0D89016324F
:10472800D890163216501A6E1B6A12C0F6FF13C0C4
:10473800F7FF0800F5CF14F0D8901432D89014324F
:10474800D890143214501C6E1D6A1AC014F01BC085
:1047580015F0050ED89014361536E82EFBD718C07C
:1047680016F019C017F00B0ED89016361736E82E2B
:10477800FBD714501612155017121C5016101E6E27
:104788001D5017101F6E1EC012F01FC013F012002C
:1047980013C014F012C015F02A0E806E8B988B96F9
:1047A8008B868B88000E806E8B968B86000E806EB3
:1047B8008B968B86000E806E8B968B86EF0E806EA6
:1047C8008B968B862B0E806E8B988B968B868B8820
:1047D800000E806E8B968B86000E806E8B968B8675
:1047E800010E806E8B968B863F0E806E8B968B8625
:1047F8002C0E806E8B988B968B868B88000E176E8E
:10480800000E166E000E196E000E186E14C080FF92
:104818008B968B8615C080FF8B968B86184A192A33
:10482800195004E1F00E185CD8A0F0D7164A172AE0
:10483800400E165C010E1758D8B01200E3D720EED0
:1048480002F01C50D9261D50DA22DE50DE10D8B4F2
:1048580023D020EE02F01C50D9261D50DA22010E7A
:10486800DB501AE16E0EDE5CD8B016D01CC012F018
:104878001DC013F0A7EC2BF0BE0E1C24126E000E08
:104888001D20136E000E156E140E146E000E176E9A
:10489800000E166E53EC22F020EE02F01C50D926C2
:1048A8001D50DA22010EDB5004E1820EDE5CD8A036
:1048B80016D01CC012F01DC013F0A7EC2BF0BE0ED2
:1048C8001C24126E000E1D20136E000E156E140EA1
:1048D800146E000E176E010E166E53EC22F0000EC9
:1048E800186E0B0E31EC29F0120012C0D9FF13C05C
:1048F800DAFFDE50145CDE501558D8B002D0000E36
:10490800120020EE04F01250D9261350DA22DECF1E
:1049180018F0DDCF19F012C0D9FF13C0DAFFDECFCF
:104928001AF0DDCF1BF018501A2619501B2214500C
:104938001A5C15501B58D8A0E2D720EE02F012508E
:10494800D9261350DA22DE50165CDE501758D8A04C
:10495800D6D720EE06F01250D9261350DA22DECF31
:1049680018F0DDCF19F020EE02F01250D9261350BE
:10497800DA22DECF1AF0DDCF1BF018501A261950B4
:104988001B2216501A5C17501B58D8A0B8D7010E16
:10499800120012C0D9FF13C0DAFFDE50145CDE50DB
:1049A8001558D8B002D0000E120020EE04F01250B4
:1049B800D9261350DA22DECF18F0DDCF19F012C055
:1049C800D9FF13C0DAFFDECF1AF0DDCF1BF0185085
:1049D8001A2619501B2214501A5C15501B58D8A0BF
:1049E800E2D720EE02F01250D9261350DA22DE5018
:1049F800165CDE501758D8A0D6D720EE06F0125015
:104A0800D9261350DA22DECF18F0DDCF19F020EEC8
:104A180002F01250D9261350DA22DECF1AF0DDCF79
:104A28001BF018501A2619501B2216501A5C1750E2
:104A38001B58D8A0B8D7010E120020EE04F012506F
:104A4800D9261350DA22000EDE6E000EDD6E20EE3F
:104A580006F01250D9261350DA22000EDE6E000E30
:104A6800DD6E14501510D8B41DD012C0D9FF13C074
:104A7800DAFF5A0EDE6E000EDD6E20EE02F01250E6
:104A8800D9261350DA22140EDE6E000EDD6E20EEEB
:104A980008F01250D9261350DA22FF0EDE6EFF0EF0
:104AA800DD6E120012C0D9FF13C0DAFF5A0EDE6E97
:104AB800000EDD6E20EE02F01250D9261350DA22D5
:104AC800180EDE6E010EDD6E20EE08F01250D926AB
:104AD8001350DA22FF0EDE6EFF0EDD6E1200000E9E
:104AE800136E000E126ECCEC23F0680E4424426E56
:104AF800000E4520436E27EC07F020EED2F044501C
:104B0800D9264550DA22DE50DE10D8A41CD08F0EEC
:104B1800206E7F0E216E7B0E226E7F0E236E020E9C
:104B2800246E000E266E640E256E000E286E320E60
:104B3800276EFF0E2A6E2968000E2C6E000E2B6E53
:104B480083EC0BF01200820E206E7F0E216E7B0E1E
:104B5800226E7F0E236E020E246E000E266E640EE9
:104B6800256E000E286E320E276EFF0E2A6E2968FB
:104B7800000E2C6E000E2B6E83EC0BF01200A56F4E
:104B880036D0050EA519D8B404D0060EA519D8A498
:104B980010D0020ED86FA1C08DF0A2C08EF0E9EC43
:104BA80026F0A1C09CF0A2C09DF0A5C09EF037ECF5
:104BB80020F0070E0001A519D8A41200010ED86F25
:104BC800A1C09CF0A2C09DF0A5C09EF037EC20F0DB
:104BD8001200080EA519D8A41200000EF0D7090E6D
:104BE800A519D8A4EDD7030EEAD70F0EF3D7000105
:104BF800D851A36FA46BA451000AD8A41200A351E2
:104C0800000AD8B4BED7010AD8B4E3D7030AD8B487
:104C1800E6D7010AD8A41200E8D7000E0D6E000EE0
:104C28000C6E0C50030DF350B20FD96EDA6ADF50D8
:104C3800D8B431D00C50030DF350B00FD96EDA6AE6
:104C4800DE06000EDD5A0C50030DF350B00FD96E7E
:104C5800DA6ADE50DE10D8A41ED0010E076E0C50A2
:104C6800030DF350B20FD96EDA6ADF50ACEC29F0BD
:104C7800E806D8A406D0010E026E0C50FBEC2AF010
:104C88000AD00C50030DF350B00FD96EDA6A010E3A
:104C9800DE6E000EDD6E0C4A0D2A0DBEC2D70D5019
:104CA80005E1080E0C5CD8B01200BBD712001450F6
:104CB800D8B403D01450D8A404D0125079EC2CF0F6
:104CC80012001450D96EDA6A040ED926DE50DE10AE
:104CD800D8B414D01450D96EDA6A040ED9261450F8
:104CE800E16EE26A020EE126DE50E65CE650800ADA
:104CF800196EDE50800A1958D8B012001450D96EB7
:104D0800DA6A020ED926DECF15F0DDCF16F0145080
:104D1800D96EDA6ADECF17F0DDCF18F015501724F8
:104D2800D96E16501820DA6E12C0DFFF1450D96EF3
:104D3800DA6A020ED926DE2A000EDD221200949AC3
:104D4800949494969498000E926E8B9A8B848B868A
:104D58008B88000E136E000E146E000E156E000E7A
:104D6800166ED00E126ECA0EE82EFED7122EFCD783
:104D7800010E1326000E14221522162216501510A5
:104D8800141004E10C0E135CD8A0EBD7000E136EC0
:104D9800000E146E000E156E000E166ED00E126EFA
:104DA800CA0EE82EFED7122EFCD7010E1326000ECF
:104DB80014221522162216501510141005E10C0E97
:104DC800135CD8B01200EAD71200000E136E000E62
:104DD800126ECCEC23F0000E136E000E126E000E55
:104DE800156EA00E146E000E176EEF0E166E000EE6
:104DF800196EA00E186E010E1A6EFF0E1C6E1B683F
:104E08007DEC12F0D20E00018D258B6F000E8E21E5
:104E18008C6F88EC21F0BE0E00018D25256E000EEA
:104E28008E21266E04EC1DF0C80E00018D25256E1E
:104E3800000E8E21266E04EC1DF0B20E00018D25A9
:104E4800256E000E8E21266ECEEC19F01200000E93
:104E5800176E15AE06D0146C151ED8B0152A010EA3
:104E6800176E13AE06D0126C131ED8B0132A010E9B
:104E7800171A000E196E000E186E14501510D8B4BB
:104E88001CD0010E166E04D0D89014361536162A8A
:104E980015AEFAD7D890183619361450125C15503A
:104EA8001358D8A005D01450125E1550135A188004
:104EB800D89015321432162EEDD71750D8B404D026
:104EC800186C191ED8B0192A18C012F019C013F09E
:104ED800120020EE08F01250D9261350DA22DECF45
:104EE80014F0DDCF15F012C0D9FF13C0DAFFDECF02
:104EF80016F0DDCF17F0145016261550172212C0E1
:104F0800D9FF13C0DAFF16C0DEFF17C0DDFF20EEA1
:104F18000AF01250D9261350DA22DECF14F0DDCF72
:104F280015F020EE02F01250D9261350DA22DECF07
:104F380016F0DDCF17F0145016261550172220EE64
:104F480002F01250D9261350DA2216C0DEFF17C01D
:104F5800DDFF12004BA006D020C01AF01FC01BF0C6
:104F680079EC2BF022BE05D021C026F022C027F014
:104F780004D0000E276E000E266E000E256E000E61
:104F8800246E0AD0000E136E200E126E1FC014F08D
:104F98005BEC26F0244A252A2650245C2550800AFA
:104FA800236E2750800A2358D8A0ECD74BB006D0E0
:104FB80020C01AF01FC01BF079EC2BF020C012F0B3
:104FC800136A86EC2AF0265012241F6E27501320ED
:104FD800206E1200000E136E000E126E1250C80FD3
:104FE800D96EDA6A000EDF6E124A132A13BEF6D79C
:104FF800135004E10C0E125CD8A0F0D7000E136E0B
:10500800000E126E1250030DF350B00FD96EDA6A0B
:10501800000EDE6E000EDD6E1250030DF350B20F5F
:10502800D96EDA6A000EDF6E124A132A13BEEAD767
:10503800135004E1080E125CD8A0E4D7000E00015A
:10504800D46F000ED56F1200FF0E136E1268CCECF1
:1050580023F0E20E206E7F0E216E7B0E226E7F0EF5
:10506800236E020E246E000E266E320E256E000E82
:10507800286E320E276E000E2A6E000E296EFF0E65
:105088002C6E2B6883EC0BF0080E4424426E000E45
:105098004520436E27EC07F0200E4424426E000E94
:1050A8004520436E27EC07F0380E4424426E000E6C
:1050B8004520436E27EC07F01200000E176E13AE62
:1050C80006D0126C131ED8B0132A010E176E15AE37
:1050D80004D0146C151ED8B0152A14501510D8B465
:1050E80018D0010E166E04D0D89014361536162A2C
:1050F80015AEFAD71450125C15501358D8A004D026
:105108001450125E1550135AD89015321432162EB8
:10511800F1D71750D8B404D0126C131ED8B0132A84
:1051280012C012F013C013F01200000E066E02AE89
:1051380006D0016C021ED8B0022A010E066E04AE1B
:1051480004D0036C041ED8B0042A03500410D8B449
:1051580018D0010E056E04D0D89003360436052AFF
:1051680004AEFAD70350015C04500258D8A004D00A
:105178000350015E0450025AD89004320332052EBF
:10518800F1D70650D8B404D0016C021ED8B0022A58
:1051980001C001F002C002F0120012C0D9FF13C012
:1051A800DAFF5A0EDE6E000EDD6E20EE02F01250AF
:1051B800D9261350DA22960EDE6E000EDD6E20EE32
:1051C80004F01250D9261350DA22140EDE6E000EA7
:1051D800DD6E20EE06F01250D9261350DA22140E96
:1051E800DE6E000EDD6E20EE08F01250D926135048
:1051F800DA22000EDE6E000EDD6E1200456E1DD046
:105208004504D8A41200010ED96FADC08BF0AEC012
:105218008CF079EC16F01200020E4518D8A408D0CC
:10522800000ED96FADC08BF0AEC08CF079EC16F0E3
:10523800040E4518D8A41200E8D70001D951436ECE
:10524800446A4450000AD8A412004350000AD8B453
:10525800D7D7010AD8A41200DFD7196E185062EC0C
:105268002CF0010E0001D425126E136A000E1322D1
:10527800000E156E0C0E146E61EC28F012501A6EAA
:105288001A50D519D8A405D018505CEC2CF0000E93
:105298001200D451C80FD96EDA6A19C0DFFF1AC0DC
:1052A800D4F018505CEC2CF0010E1200165062EC91
:1052B8002CF0000E176E1750030DF350B20FD96E75
:1052C800DA6ADF50D8A413D01750030DF350B00F8B
:1052D800D96EDA6A13C0DEFF14C0DDFF1750030D64
:1052E800F350B20FD96EDA6A15C0DFFF04D0172A5F
:1052F800070E1764E0D716505CEC2CF01200000E75
:10530800256E000E246E22502310D8B41CD0010E36
:10531800266E04D0D89022362336262A23AEFAD712
:10532800D890243625362250205C23502158D8A006
:1053380005D02250205E2350215A2480D890233251
:105348002232262EEDD724C020F025C021F01200ED
:10535800086E07506EEC2CF0010E0001D425016E8A
:10536800026A000E0222000E046E0C0E036E99EC07
:1053780028F00150096E0950D519D8A405D0075056
:1053880068EC2CF0000E1200D451C80FD96EDA6AFE
:1053980008C0DFFF09C0D4F0075068EC2CF0010EFC
:1053A8001200196E195062EC2CF00001D551D41975
:1053B800D8A405D019505CEC2CF0000E1200D55181
:1053C800C80FD96EDA6ADF50186E010ED525126E35
:1053D800136A000E1322000E156E0C0E146E61EC8B
:1053E80028F01250D56F19505CEC2CF018501200B0
:1053F800000ED5EC29F00001AF6FAF51D8B4120000
:10540800AF512EEC2BF0000E0001AD6F010EAE6F08
:10541800AF5102EC29F0000E0001A16F010EA26F3E
:10542800AF51C3EC25F0000E3C6E010E3D6E00013D
:10543800AF5122EC21F012007BC040F07CC041F05B
:10544800000ED76F000ED66F0DD07AC03DF0400E1B
:105458003E6E7DC03FF079EC1AF03D500001D62732
:105468003E50D72340C0F6FF41C0F7FF0800F55073
:105478000009D8A4EAD7D6C07AF0D7C07BF01200CA
:1054880014501510D8B418D0010E166E04D0D89048
:1054980014361536162A15AEFAD71450125C155064
:1054A8001358D8A004D01450125E1550135AD8902F
:1054B80015321432162EF1D712C012F013C013F0A1
:1054C8001200820E846F7EC085F07FC086F0000EC9
:1054D800886F000E876F000E8A6F000E896F850E29
:1054E8007A6F80C07BF081C07CF0840E7D6F20ECE9
:1054F8002AF087517E25D96E88517F21DA6E000EF9
:10550800DF6E120012C014F013C015F002D0124A58
:10551800132A12C0F6FF13C0F7FFF86A050EF764E6
:1055280003D00800F55005D0F6CFE1FFF7CFE2FF32
:10553800E7500009D8A4EBD71450125C126E15502E
:105548001358136E1200126E1250D8A40BD00F010C
:10555800399393928A9293968A869388938439850D
:10556800230EC26E1204D8A412000F013995939429
:105578008A9493988A889386938239832B0EC26E75
:10558800120012C0D9FF13C0DAFF14C0DEFF15C025
:10559800DDFF12C0D9FF13C0DAFF0B0EDE18DE10D4
:1055A800D8A402D06768120012C0D9FF13C0DAFF6E
:1055B800DF50170DF3CF67FF1200146E135062EC23
:1055C8002CF01450030DF350B00FD96EDA6A000EA8
:1055D800DE6E000EDD6E1450030DF350B20FD96E5F
:1055E800DA6A000EDF6E13505CEC2CF01200036ECA
:1055F80002506EEC2CF00350030DF350B00FD96E2F
:10560800DA6A000EDE6E000EDD6E0350030DF350F5
:10561800B20FD96EDA6A000EDF6E025068EC2CF019
:10562800120001EE00F0D80EEE6AE806FDE100EE89
:10563800B0F04B0EEE6AE806FDE100EE47F0070E0B
:10564800EE6AE806FDE14E904E92000EF86E0001FB
:1056580074EF2CF0166E09D0030E1618D8A4120099
:10566800010EDA6F91EC2BF012000001DA51146E82
:10567800156A1550000AD8A412001450000AD8B4AC
:10568800EBD7010A120025C01BF026C01CF039EC2C
:1056980000F0B20E2524126E000E2620136E6DEC5B
:1056A80027F0000E186E0D0E31EC29F0000E186E62
:1056B8000E0E31EC29F0120025BE05D0255010E160
:1056C8002404D8B00DD024C026F025C027F0261E0B
:1056D800271E264A272A26C024F027C025F01200B4
:1056E80024C024F025C025F01200000E1E6E000E06
:1056F8001D6E09D01CC012F0136A1BC014F05BECBD
:1057080026F01D4A1E2A1A501D24D96EDA6ADF5067
:105718001C6E1C50D8B41200EDD705D016EC2CF036
:105728000300FF0012000001DA51126E136A1350D1
:10573800000AD8A412001250000AD8B41200010AB4
:10574800D8A41200EBD720EE02F01250D92613503D
:10575800DA22000EDE6E000EDD6E20EE04F012502E
:10576800D9261350DA22000EDE6E000EDD6E12000E
:10577800000EDA6FA3C0A1F0A4C0A2F030EC2CF0A8
:10578800A3C03CF0A4C03DF025EC2CF006EC2CF0B6
:1057980091EC2BF0120012C0D9FF13C0DAFF000EF3
:1057A800DE6E000EDD6E20EE02F01250D926135088
:1057B800DA22000EDE6E000EDD6E12001A501C0298
:1057C800F3CF1EF0F4CF1FF01A501D02F3501F261E
:1057D8001B501C02F3501F261EC01AF01FC01BF0DE
:1057E80012000F013993399593948A949382F19E0C
:1057F800020E616E93968A8600F093869388F090E5
:10580800F0861200000E0001D96FF5EC2BF00B0E9C
:10581800146EB80E136E030E156E000E166E5AEC4B
:1058280029F01200820E946E000E926E89688B9099
:10583800000E676E8B848B868B888B8AF5EC2BF039
:105848001200000E4D6E3CC037F03DC038F0000E1F
:10585800396EF3EC10F01200000ED86FA1C09CF066
:10586800A2C09DF0000E9E6F37EC20F0120020EED3
:1058780004F01250D9261350DA2214C0DEFF15C0E6
:10588800DDFF120020EE02F01250D9261350DA2262
:1058980014C0DEFF15C0DDFF120020EE06F0125026
:1058A800D9261350DA2214C0DEFF15C0DDFF12001E
:1058B800126E1250D8A41200F28E1200126E1250FC
:1058C800D8A41200F29E1200016E0150D8A4120052
:1058D800F28E1200016E0150D8A41200F29E12003E
:0C58E800B4EC22F0FCEC29F0FDD712001B
:107836000000000000000000000000000000000042
:1078460000C0C0C0C0C0C0C0C000C0C000000000B2
:10785600D8D8D8D8000000000000000000000012B0
:107866001224FEFE48FEFE489090000000107CFCAC
:10787600D6D0F07C1E16D67E7C100000000061007B
:107886009100920092009400658006400A400A40EA
:107896001240118000000000000000387C6C7C3033
:1078A60078DACECEFF7A00000000C0C0C0C000006B
:1078B60000000000000000000010206060C0C0C092
:1078C600C0C0C06060201000804060203030303082
:1078D6003030606040800020A8F820505000000042
:1078E600000000000000000000303030FCFC3030AA
:1078F6003000000000000000000000000000C0C0D2
:1079060040408000000000000000F0F00000000091
:10791600000000000000000000000000C0C00000E1
:1079260000003030306060606060C0C0C0000000A1
:10793600007878CCCCCCCCCCCCCC787800000000CD
:10794600303070F0B0303030303030000000003869
:107956007CCCCC0C18387060FCFC0000000078FC75
:10796600CC0C38380C0CCCF878000000000C1C1C31
:107976003C2C6CCCFEFE0C0C000000007C7C60D81D
:10798600FCCC0CCCCC7878000000007078D8C0F025
:10799600F8D8D8D8787000000000F8F81810303001
:1079A60020606060600000000078FCCCCC7878CC69
:1079B600CCCCFC780000000070F8CCCCCCFC7C0C65
:1079C600CCF87000000000000000C0C000000000FD
:1079D600C0C000000000000000C0C000000000C0E1
:1079E600C04040800000041C38F0C0F0381C040081
:1079F60000000000000000FCFC00FCFC0000000091
:107A06000000000080E0703C0C1C70E0800000006C
