:020000040000FA
:0400000058EF00F0C5
:100008004E82D9CF0EF0DACF0FF0F3CF10F0F4CF45
:1000180011F0F0A012EF00F014EF00F039EF00F04B
:10002800F0A619EF00F01BEF00F039EF00F0F1BA7D
:1000380020EF00F022EF00F02BEF00F0F18AF090B3
:10004800010E076E010EF5EC0DF039EF00F0F1AA84
:1000580030EF00F032EF00F039EF00F0F19AF09055
:10006800010E076E020EF5EC0DF0F2A43EEF00F063
:1000780040EF00F04EEF00F0F2AA45EF00F047EF36
:1000880000F04EEF00F067EC08F0E70ED76E950E23
:10009800D66EF29411C0F4FF10C0F3FF0FC0DAFF60
:1000A8000EC0D9FF4E9211004FEF10F0000E000164
:1000B8006E6F000E6B6FB2EF00F0010E22242D6EF2
:1000C800000E23202E6E2DC0F6FF2EC0F7FF08006D
:1000D800F5CF2FF06B512024306E000E2120316EA9
:1000E80030C0F6FF31C0F7FFF86A050EF76403D099
:1000F8000800F55005D0F6CFE9FFF7CFEAFFEF503B
:10010800326E2F50325C00016C6F6C511A6E1B6A94
:100118001ABE1B06000E1D6E030E1C6E68EC10F056
:10012800030E22242D6E000E23202E6E2DC0F6FF06
:100138002EC0F7FF0900F5CF2FF00900F5CF30F0FA
:100148001A502F261B5030222FC0F6FF30C0F7FF61
:100158000800F550020F00016E276B2B20C012F02B
:1001680021C013F059EC0FF000016B512D6E2E6A6F
:1001780012502D5C13502E58D8A0C5EF00F0C7EFD1
:1001880000F061EF00F02404D8A4CDEF00F0CFEF29
:1001980000F0D8EF00F06E51255C256E2650D8A0EF
:1001A8002604266EF0EF00F0020E2418D8A4DFEF24
:1001B80000F0E1EF00F0F0EF00F06EC012F0136A0B
:1001C800000E156E020E146E46EC0AF01250255CF5
:1001D800256E13502658266E010E22242D6E000E11
:1001E80023202E6E2DC0F6FF2EC0F7FF0800F5CF96
:1001F8002FF020C0F6FF21C0F7FFF86A050EF7645C
:1002080003D00800F55005D0F6CFE9FFF7CFEAFF95
:10021800EF50306E2F50305C00016C6F6C511A6ECD
:100228001B6A1ABE1B06000E1D6E030E1C6E68ECC0
:1002380010F0030E22242D6E000E23202E6E2DC0EA
:10024800F6FF2EC0F7FF0900F5CF2FF00900F5CF14
:1002580030F01A502F261B503022010E2F26000E88
:1002680030222FC0F6FF30C0F7FF0900F5CF60F04D
:100278000A00F5CF61F000016C511A6E1B6A1ABEB4
:100288001B06000E1D6E030E1C6E68EC10F0030EAC
:1002980022242D6E000E23202E6E2DC0F6FF2EC0B8
:1002A800F7FF0900F5CF2FF00900F5CF30F01A500D
:1002B8002F261B5030222FC0F6FF30C0F7FF080052
:1002C800F5CF6EF02A0E806E8B988B968B868B8876
:1002D8002650806E8B968B8625C080FF8B968B86EA
:1002E80000016E5125242D6E000E26202E6E010E63
:1002F8002D24686F000E2E20696F6951806E8B96D1
:100308008B8668C080FF8B968B862B0E806E8B98B1
:100318008B968B868B882850806E8B968B8627C011
:1003280080FF8B968B8622C0F6FF23C0F7FF08005C
:10033800F55027242D6E000E28202E6EFF0E2D243A
:10034800666FFF0E2E20676F6751806E8B968B86C7
:1003580066C080FF8B968B862C0E806E8B988B9652
:100368008B868B88000E6A6F54EF02F06AC01AF011
:100378001B6A000E156E080E146E070E6E25126E9F
:10038800136A000E132246EC0AF012C01CF013C0C8
:100398001DF068EC10F0000160511A24626F615181
:1003A8001B20636F000E6D6F33EF02F06DC012F00B
:1003B800136A000E156E080E146E46EC0AF0050E50
:1003C80022242D6E000E23202E6E2DC0F6FF2EC087
:1003D800F7FF0900F5CF2FF00900F5CF30F01250E4
:1003E8002F2613503022000162512F2663513022EC
:1003F8002FC0F6FF30C0F7FF0800F5CF64F06DC0DE
:100408002DF0070E2D16800E2E6E000E2F6E2D2A43
:1004180011EF02F02F342F322E322D2E0EEF02F074
:100428002E5000016415656F6551D8B41EEF02F0B7
:1004380020EF02F02AEF02F02A50806E8B968B860E
:1004480029C080FF8B968B8632EF02F02C50806E8D
:100458008B968B862BC080FF26EF02F06D2B6E519A
:100468006D5DD8A03AEF02F03CEF02F0DAEF01F050
:10047800000E6D6F010E6D6544EF02F046EF02F05D
:1004880048EF02F053EF02F02C50806E8B968B866B
:100498002BC080FF8B968B866D2B3EEF02F06A2B6C
:1004A80022C0F6FF23C0F7FF0900F5506A5DD8A007
:1004B80060EF02F062EF02F0BAEF01F06E5125240E
:1004C8002D6E000E26202E6E020E2D24256E000E97
:1004D8002E20266E204A212A20C0F6FF21C0F7FFD1
:1004E800F86A050EF76403D00800F55005D0F6CF7A
:1004F800E9FFF7CFEAFFEF500009D8A486EF02F032
:1005080088EF02F0F0EF00F012002FC068F030C062
:1005180069F031C06AF032C06BF033C06CF034C09F
:100528006DF035C06EF036C06FF000016FBF9FEF01
:1005380002F0A2EF02F0010EA3EF02F0000E666FC8
:10054800676B66516711D8B4ACEF02F0AEEF02F0FA
:10055800BEEF02F06F1F6E1F6D1F6C1F6B1F6A1FAF
:10056800691F686D000E69236A236B236C236D2352
:100578006E236F2348BEC3EF02F0C5EF02F0C6EF4B
:1005880002F0499248BED3EF02F0485006E1470412
:10059800D8B0D1EF02F0D3EF02F0D9EF02F0000E9D
:1005A800636F010E626FDDEF02F047C062F048C072
:1005B80063F045C064F046C065F066516711D8A481
:1005C800E8EF02F0EAEF02F0F1EF02F049A4EFEFF2
:1005D80002F0F1EF02F0F4EF02F06407D8A065072B
:1005E800000E716F1F0E706F000E01011F6F7AEF02
:1005F80003F07007D8A07107000E7025D96E010EA0
:100608007121DA6E68C012F069C013F06AC014F084
:100618006BC015F06CC016F06DC017F06EC018F006
:100628006FC019F00A0E1A6E000E1B6E000E1C6EBB
:10063800000E1D6E000E1E6E000E1F6E000E206E48
:10064800000E216EB5EC07F012C037F013C038F079
:1006580014C039F015C03AF016C03BF017C03CF092
:1006680018C03DF019C03EF037C024F039C025F05D
:10067800C3EC0FF02450300FDF6E00016207D8A0E2
:1006880063076407D8A0650768C012F069C013F053
:100698006AC014F06BC015F06CC016F06DC017F08E
:1006A8006EC018F06FC019F00A0E1A6E000E1B6E9D
:1006B800000E1C6E000E1D6E000E1E6E000E1F6ECC
:1006C800000E206E000E216EF1EC06F012C068F0EC
:1006D80013C069F014C06AF015C06BF016C06CF056
:1006E80017C06DF018C06EF019C06FF0000171BF2F
:1006F80086EF03F0715108E17005D8A086EF03F08A
:1007080088EF03F0B8EF03F0685169116A116B11B3
:100718006C116D116E116F11D8A495EF03F097EF5E
:1007280003F0FDEF02F063BFA4EF03F0635106E1AD
:100738006205D8B0A2EF03F0A4EF03F0FDEF02F0DA
:1007480065BFAFEF03F0655108E16405D8A0AFEFCE
:1007580003F0B1EF03F0B8EF03F049B2B6EF03F0DE
:10076800B8EF03F0FDEF02F066516711D8A4BFEFB0
:1007780003F0C1EF03F0C8EF03F049A4C6EF03F09C
:10078800C8EF03F0E6EF03F07007D8A071076651D1
:100798006711D8A4D2EF03F0D4EF03F0DAEF03F037
:1007A800000E616F2B0E606FDEEF03F0000E616FBD
:1007B8002D0E606F000E7025D96E010E7121DA6E54
:1007C80060C0DFFF2DC022F02EC023F0000E702580
:1007D800246E010E7121256E64C026F065C027F0D5
:1007E800A8EC0AF022C02DF023C02EF01200D0ECA5
:1007F8000CF0110E806E8B988B968B868B88000E72
:10080800186ED00E176ECA0EE82EFED7172EFCD71C
:10081800182A090E186413EF04F015EF04F005EF19
:1008280004F0360E806E8B988B968B868B88000E24
:10083800806E8B968B863A0E806E8B988B968B8605
:100848008B88550E806E8B968B86B20E806E8B9839
:100858008B968B868B880C0E806E8B968B860C0EF7
:10086800806E8B968B86330E806E8B968B86330EBE
:10087800806E8B968B86B70E806E8B988B968B8648
:100888008B88350E806E8B968B86BB0E806E8B9810
:100898008B968B868B882B0E806E8B968B86C00EE4
:1008A800806E8B988B968B868B882C0E806E8B96A1
:1008B8008B86C20E806E8B988B968B868B88010EEA
:1008C800806E8B968B8680688B968B86C30E806E27
:1008D8008B988B968B868B88110E806E8B968B8669
:1008E800C40E806E8B988B968B868B88200E806EBC
:1008F8008B968B86C60E806E8B988B968B868B8894
:10090800090E806E8B968B86D00E806E8B988B9698
:100918008B868B88A40E806E8B968B86A10E806E3C
:100928008B968B86E00E806E8B988B968B868B8849
:10093800D00E806E8B968B86000E806E8B968B8683
:10094800050E806E8B968B860E0E806E8B968B8630
:10095800150E806E8B968B860D0E806E8B968B8611
:10096800370E806E8B968B86430E806E8B968B86A9
:10097800470E806E8B968B86090E806E8B968B86C3
:10098800150E806E8B968B86120E806E8B968B86DC
:10099800160E806E8B968B86190E806E8B968B86C4
:1009A800E10E806E8B988B968B868B88D00E806E2E
:1009B8008B968B86000E806E8B968B86050E806ECE
:1009C8008B968B860D0E806E8B968B860C0E806EAA
:1009D8008B968B86060E806E8B968B862D0E806E80
:1009E8008B968B86440E806E8B968B86400E806E1F
:1009F8008B968B860E0E806E8B968B861C0E806E69
:100A08008B968B86180E806E8B968B86160E806E54
:100A18008B968B86190E806E8B968B862A0E806E2F
:100A28008B988B968B868B88000E806E8B968B8628
:100A3800000E806E8B968B86000E806E8B968B8652
:100A4800EF0E806E8B968B862B0E806E8B988B9616
:100A58008B868B88000E806E8B968B86000E806E40
:100A68008B968B86010E806E8B968B863F0E806EE2
:100A78008B968B86260E806E8B988B968B868B88B2
:100A8800010E806E8B968B86290E806E8B988B96C6
:100A98008B868B88120074C0D9FF75C0DAFFDECF51
:100AA800F6FFDDCFF7FF0800F550250AD8A45FEF61
:100AB80005F061EF05F00FEF06F074C0D9FF75C0BF
:100AC800DAFFDE2A000EDD22000E466E000E456EAD
:100AD80045C049F046C04AF04768486874C0D9FF25
:100AE80075C0DAFFDECFF6FFDDCFF7FF0800F5505F
:100AF800640AD8B482EF05F084EF05F096EF05F0AC
:100B080074C0D9FF75C0DAFFDECFF6FFDDCFF7FF7F
:100B18000800F550690AD8A494EF05F096EF05F09F
:100B2800D7EF05F074C0D9FF75C0DAFFDE2A000ED2
:100B3800DD2276C0D9FF77C0DAFFDFCF3FF0020EA3
:100B4800DE26DFCF40F0000EDD223FC0D9FF40C0D7
:100B5800DAFFDECF78F0DDCF79F00001000E79BF43
:100B6800FF0E7A6F7B6F7C6F7D6F7E6F7F6F72C0B9
:100B78002DF073C02EF078C02FF079C030F07AC015
:100B880031F07BC032F07CC033F07DC034F07EC0E1
:100B980035F07FC036F089EC02F02DC072F02EC01F
:100BA80073F02AEF06F074C0D9FF75C0DAFFDECF04
:100BB800F6FFDDCFF7FF0800F550250AD8A4E7EFC8
:100BC80005F0E9EF05F001EF06F074C0D9FF75C034
:100BD800DAFFDE2A000EDD22000E136E250E126EDD
:100BE80072C014F073C015F0E1EC09F0000E0001BA
:100BF800736F010E726F2AEF06F074C0D9FF75C0CB
:100C0800DAFFDE2A000EDD22000E0001736F000EEF
:100C1800726F2AEF06F074C0D9FF75C0DAFFDECF15
:100C2800F6FFDDCFF7FF0800F550126E136A72C0A9
:100C380014F073C015F0E1EC09F074C0D9FF75C069
:100C4800DAFFDE2A000EDD22FAEF05F01200DAEFF5
:100C580006F08EEC10F0F0EF06F0000EE2EC0EF06D
:100C6800C2B239EF06F03BEF06F034EF06F0C4509D
:100C78000001996F986BC3509825AE6F000E9921AB
:100C8800AF6F010EE2EC0EF0C2B24DEF06F04FEF7F
:100C980006F048EF06F0C4500001996F986BC350F6
:100CA8009825B06F000E9921B16F000E146E010ED9
:100CB800136E040E156E000E166EBBEC0DF0290EA9
:100CC800C26E8EEC10F0F090F08681B26EEF06F0F6
:100CD80070EF06F0F0EF06F09A0E0001886F000E34
:100CE800896FF30E8A6F7F0E8B6FAEC08CF0AFC02A
:100CF8008DF0B9EC0EF09A0E206E000E216EC80E23
:100D0800226E7F0E236E020E246E000E266E640E77
:100D1800256E000E286E640E276E000E2A6E000ED9
:100D2800296EFF0E2C6E2B685AEC00F096C012F05C
:100D380097C013F0AEC014F0AFC015F0B2EC10F0CD
:100D48009A0E0001886F000E896FF90E8A6F7F0E68
:100D58008B6FB0C08CF0B1C08DF0B9EC0EF09A0E6C
:100D6800206E000E216EC80E226E7F0E236E020EBC
:100D7800246E000E266E640E256E000E286EC80EB8
:100D8800276E000E2A6E000E296EFF0E2C6E2B6841
:100D98005AEC00F096C012F097C013F0B0C014F0EF
:100DA800B1C015F0A7EC10F0F0EF06F00001DB5130
:100DB800986F996B9951000AD8B4E5EF06F0F0EFF7
:100DC80006F09851000AD8B42DEF06F0010AD8B4FD
:100DD80031EF06F0F0EF06F01200000E236E21BE90
:100DE800FAEF06F0F8EF06F00CEF07F0211E201ED0
:100DF8001F1E1E1E1D1E1C1E1B1E1A6C000E1B22F3
:100E08001C221D221E221F2220222122010E236EB7
:100E180019BE13EF07F011EF07F025EF07F0191EC1
:100E2800181E171E161E151E141E131E126C000EF9
:100E38001322142215221622172218221922010E13
:100E4800231A20EE24F0070EDE6AE806FDE21A50A7
:100E58001B101C101D101E101F1020102110D8B4BC
:100E680038EF07F03AEF07F08CEF07F0010E226E2B
:100E780048EF07F0D8901A361B361C361D361E363A
:100E88001F3620362136222A21AE4DEF07F04FEFCC
:100E980007F03EEF07F0D890243625362636273659
:100EA800283629362A362B361A50125C1B5013580E
:100EB8001C5014581D5015581E5016581F501758BE
:100EC8002050185821501958D8A06DEF07F06FEF2F
:100ED80007F080EF07F01A50125E1B50135A1C508F
:100EE800145A1D50155A1E50165A1F50175A205082
:100EF800185A2150195A2480D890213220321F3292
:100F08001E321D321C321B321A32222E4FEF07F0CE
:100F18002350D8B492EF07F094EF07F0A4EF07F04E
:100F28002B1E2A1E291E281E271E261E251E246C3F
:100F3800000E252226222722282229222A222B2295
:100F480024C012F025C013F026C014F027C015F0F5
:100F580028C016F029C017F02AC018F02BC019F0C5
:100F68001200000E236E19BEBEEF07F0BCEF07F0AB
:100F7800D0EF07F0191E181E171E161E151E141E78
:100F8800131E126C000E1322142215221622172289
:100F980018221922010E236E21BED7EF07F0D5EFD4
:100FA80007F0E7EF07F0211E201E1F1E1E1E1D1E44
:100FB8001C1E1B1E1A6C000E1B221C221D221E2228
:100FC8001F22202221221A501B101C101D101E1037
:100FD8001F1020102110D8B4F4EF07F0F6EF07F037
:100FE8003EEF08F0010E226E04EF08F0D8901A3692
:100FF8001B361C361D361E361F3620362136222A51
:1010080021AE09EF08F00BEF08F0FAEF07F01A50DD
:10101800125C1B5013581C5014581D5015581E5064
:1010280016581F5017582050185821501958D8A032
:1010380020EF08F022EF08F032EF08F01A50125EA5
:101048001B50135A1C50145A1D50155A1E50165A2C
:101058001F50175A2050185A2150195AD890213227
:1010680020321F321E321D321C321B321A32222EFF
:101078000BEF08F02350D8B444EF08F046EF08F01F
:1010880056EF08F0191E181E171E161E151E141EE0
:10109800131E126C000E1322142215221622172278
:1010A8001822192212C012F013C013F014C014F041
:1010B80015C015F016C016F017C017F018C018F0B4
:1010C80019C019F01200000E0D6E000E0C6E0CC047
:1010D80001F00DC002F0000E046E030E036E7BECEF
:1010E80010F0B50E0124D96E000E0220DA6EDF5022
:1010F800D8B481EF08F083EF08F0E7EF08F00CC0F0
:1011080001F00DC002F0000E046E030E036E7BECBE
:1011180010F0B30E0124D96E000E0220DA6EDE063E
:10112800000EDD5A0CC001F00DC002F0000E046E76
:10113800030E036E7BEC10F0B30E0124D96E000E83
:101148000220DA6EDE50DE10D8A4ADEF08F0AFEF63
:1011580008F0E7EF08F0010E076E0CC001F00DC0B3
:1011680002F0000E046E030E036E7BEC10F0B50E59
:101178000124D96E000E0220DA6EDF50F5EC0DF076
:10118800E806D8A4CAEF08F0CCEF08F0D3EF08F0CF
:10119800010E026E0C50E3EC0FF0E7EF08F00CC004
:1011A80001F00DC002F0000E046E030E036E7BEC1E
:1011B80010F0B30E0124D96E000E0220DA6E010E73
:1011C800DE6E000EDD6E0C4A0D2A0DBEF5EF08F03E
:1011D8000D5009E1080E0C5CD8A0F5EF08F0F7EF08
:1011E80008F06BEF08F0120060EF09F0FF0E136EC5
:1011F800126809EC0BF0E40E206E7F0E216EC80E0B
:10120800226E7F0E236E020E246E000E266E320EA4
:10121800256E000E286E320E276E000E2A6E000E06
:10122800296EFF0E2C6E2B685AEC00F079EF09F04E
:10123800FF0E136E126809EC0BF0CF0E206E7F0EB6
:10124800216EC80E226E7F0E236E020E246E000ED3
:10125800266E320E256E000E286E320E276E000E98
:101268002A6E000E296EFF0E2C6E2B685AEC00F0C9
:1012780079EF09F0FF0E136E126809EC0BF0EC0E13
:10128800206E7F0E216EC80E226E7F0E236E020E18
:10129800246E000E266E320E256E000E286E320E5B
:1012A800276E000E2A6E000E296EFF0E2C6E2B681C
:1012B8005AEC00F079EF09F04C50336E346A345030
:1012C800000AD8B46AEF09F079EF09F03350000A40
:1012D800D8B4FAEF08F0010AD8B41CEF09F0030AF1
:1012E800D8B43EEF09F079EF09F012009B8C700E2C
:1012F800D36E090E366E1E0E356EE40EE82EFED73E
:10130800352EFCD7362EFAD700D0FBEC03F0000EB2
:10131800136E1F0E126E09EC0BF0DA0E206E7F0EA4
:10132800216EC80E226E7F0E236E020E246E000EF2
:10133800266E320E256E000E286E320E276E000EB7
:101348002A6E000E296EFF0E2C6E2B685AEC00F0E8
:10135800F28EF096860ED56EE70ED76E950ED66E87
:10136800F28A9492BB686650F00B0C09666E676847
:10137800CF0E66169E92BA80BA92BA84A60EC06E36
:101388006AEC0BF09CEC10F0F80E126E000E136E67
:1013980032EC0FF0E60E126E000E136E27EC0EF014
:1013A800DC0E126E000E136E27EC0EF0F00E126EAD
:1013B800000E136E0BEC0FF0120014501510D8B479
:1013C800E8EF09F0EAEF09F0F3EF09F0145015100F
:1013D800D8A4F1EF09F0F3EF09F0F8EF09F0125093
:1013E80001EC11F045EF0AF020EE04F01450D92674
:1013F8001550DA22DE50DE10D8B405EF0AF007EFF8
:101408000AF022EF0AF020EE04F01450D926155005
:10141800DA2210EE02F01450E1261550E222DE50D6
:10142800E65CE650800A1A6EDE50800A1A58D8B078
:1014380020EF0AF022EF0AF045EF0AF020EE02F062
:101448001450D9261550DA22DECF16F0DDCF17F06A
:1014580014C0D9FF15C0DAFFDECF18F0DDCF19F0C0
:1014680016501824D96E17501920DA6E12C0DFFFF3
:1014780020EE02F01450D9261550DA22DE2A000E8A
:10148800DD221200000E176E15BE4FEF0AF04DEF69
:101498000AF055EF0AF0146C151ED8B0152A010E83
:1014A800176E13BE5CEF0AF05AEF0AF062EF0AF00B
:1014B800126C131ED8B0132A010E171A000E196EDB
:1014C800000E186E14501510D8B46DEF0AF06FEFB7
:1014D8000AF097EF0AF0010E166E77EF0AF0D8902F
:1014E80014361536162A15AE7CEF0AF07EEF0AF090
:1014F80073EF0AF0D890183619361450125C15504C
:101508001358D8A08AEF0AF08CEF0AF091EF0AF08E
:101518001450125E1550135A1880D8901532143290
:10152800162E7EEF0AF01750D8B49DEF0AF09FEF01
:101538000AF0A3EF0AF0186C191ED8B0192A18C0BF
:1015480012F019C013F0120049A0ADEF0AF0AFEF86
:101558000AF0B9EF0AF024C01BF025C01CF022C025
:101568001DF023C01EF080EC0FF027BEBEEF0AF07E
:10157800C0EF0AF0C6EF0AF026C02BF027C02CF007
:10158800CAEF0AF0000E2C6E000E2B6E000E2A6EAB
:10159800000E296EDCEF0AF0000E136E200E126E9C
:1015A80022C014F023C015F0E1EC09F0294A2A2AD8
:1015B8002B50295C2A50800A286E2C50800A285803
:1015C800D8A0E9EF0AF0EBEF0AF0D0EF0AF049B043
:1015D800F0EF0AF0F2EF0AF0FCEF0AF024C01BF07B
:1015E80025C01CF022C01DF023C01EF080EC0FF0B7
:1015F80024C012F025C013F059EC0FF02B50122420
:10160800226E2C501320236E12001350146E12C039
:1016180015F02A0E806E8B988B968B868B88000E21
:10162800806E8B968B86000E806E8B968B86000E56
:10163800806E8B968B86EF0E806E8B968B862B0E2C
:10164800806E8B988B968B868B88000E806E8B961F
:101658008B86000E806E8B968B86010E806E8B9625
:101668008B863F0E806E8B968B862C0E806E8B98A9
:101678008B968B868B88000E176E000E166E000EEA
:10168800196E000E186E14C080FF8B968B8615C0DD
:1016980080FF8B968B86184A192A195009E1F00E9B
:1016A800185CD8A05AEF0BF05CEF0BF047EF0BF08B
:1016B800164A172A400E165C010E1758D8A067EF75
:1016C8000BF069EF0BF043EF0BF01200000E216EE8
:1016D800000E206ECB0E2024D96E000E2120DA6E6B
:1016E800000EDF6E204A212A21BE84EF0BF0215024
:1016F80009E10C0E205CD8A084EF0BF086EF0BF00C
:101708006EEF0BF0000E216E000E206E20C01AF056
:1017180021C01BF0000E1D6E030E1C6E68EC10F04D
:10172800B30E1A24D96E000E1B20DA6E000EDE6E80
:10173800000EDD6E20C01AF021C01BF0000E1D6ED9
:10174800030E1C6E68EC10F0B50E1A24D96E000E4C
:101758001B20DA6E000EDF6E204A212A21BEBEEF62
:101768000BF0215009E1080E205CD8A0BEEF0BF069
:10177800C0EF0BF08AEF0BF0000E0001D76F000EE0
:10178800D86F1200376E06EF0CF0050E3718D8B474
:10179800D0EF0BF0D2EF0BF0DBEF0BF0060E3718A3
:1017A800D8A4D9EF0BF0DBEF0BF0DFEF0BF0020E54
:1017B8004C6EF8EC08F0070E3718D8A4E6EF0BF0DB
:1017C800E8EF0BF01FEF0CF0010E4C6EF8EC08F090
:1017D8001FEF0CF0080E3718D8A4F5EF0BF0F7EF51
:1017E8000BF01FEF0CF0000E4C6EEAEF0BF00A0E38
:1017F8003718D8A402EF0CF004EF0CF01FEF0CF030
:10180800F7EF0BF04C50356E366A3650000AD8B4F4
:1018180010EF0CF01FEF0CF03550000AD8B4C9EFE8
:101828000BF0010AD8B4EEEF0BF0030AD8B4FBEFC3
:101838000BF01FEF0CF01200000E176E13BE29EF0D
:101848000CF027EF0CF02FEF0CF0126C131ED8B031
:10185800132A010E176E15BE36EF0CF034EF0CF09C
:101868003AEF0CF0146C151ED8B0152A1450151048
:10187800D8B441EF0CF043EF0CF067EF0CF0010E19
:10188800166E4BEF0CF0D89014361536162A15AE96
:1018980050EF0CF052EF0CF047EF0CF01450125CC4
:1018A80015501358D8A05BEF0CF05DEF0CF061EF0A
:1018B8000CF01450125E1550135AD8901532143289
:1018C800162E52EF0CF01750D8B46DEF0CF06FEFE6
:1018D8000CF073EF0CF0126C131ED8B0132A12C060
:1018E80012F013C013F01200000E066E02BE81EF54
:1018F8000CF07FEF0CF087EF0CF0016C021ED8B0F3
:10190800022A010E066E04BE8EEF0CF08CEF0CF06E
:1019180092EF0CF0036C041ED8B0042A0350041094
:10192800D8B499EF0CF09BEF0CF0BFEF0CF0010E60
:10193800056EA3EF0CF0D89003360436052A04AEE2
:10194800A8EF0CF0AAEF0CF09FEF0CF00350015C2D
:1019580004500258D8A0B3EF0CF0B5EF0CF0B9EF73
:101968000CF00350015E0450025AD890043203323E
:10197800052EAAEF0CF00650D8B4C5EF0CF0C7EF4F
:101988000CF0CBEF0CF0016C021ED8B0022A01C09B
:1019980001F002C002F01200949A949494969498DC
:1019A800000E926E8B9A8B848B868B88000E136E3A
:1019B800000E146E000E156E000E166ED00E126E0E
:1019C800CA0EE82EFED7122EFCD7010E1326000EE3
:1019D80014221522162216501510141009E10C0EA7
:1019E800135CD8A0FAEF0CF0FCEF0CF0E2EF0CF06F
:1019F800000E136E000E146E000E156E000E166E9D
:101A0800D00E126ECA0EE82EFED7122EFCD7010E8B
:101A18001326000E14221522162216501510141023
:101A280009E10C0E135CD8A01CEF0DF01EEF0DF0B1
:101A380004EF0DF01200166E54EF0DF0030E161899
:101A4800D8A429EF0DF02BEF0DF06DEF0DF0010E7E
:101A58004D6E1BEC10F06DEF0DF0030E1618D8A4A8
:101A680038EF0DF03AEF0DF03EEF0DF0020E4D6E2F
:101A78001BEC10F01604D8A444EF0DF046EF0DF05F
:101A88006DEF0DF0000E4D6E2DEF0DF01604D8A47D
:101A980050EF0DF052EF0DF06DEF0DF046EF0DF039
:101AA8004D50146E156A1550000AD8B45EEF0DF04B
:101AB8006DEF0DF01450000AD8B422EF0DF0010AB2
:101AC800D8B431EF0DF0030AD8B44AEF0DF06DEF3A
:101AD8000DF012000001B26FA3EF0DF00001B20586
:101AE800D8A479EF0DF07BEF0DF0BAEF0DF0010EF1
:101AF800DB6F20C196F021C197F02BEC06F0BAEF0E
:101B08000DF0020E0001B219D8A48DEF0DF08FEF81
:101B18000DF097EF0DF0000EDB6F20C196F021C19C
:101B280097F02BEC06F0040E0001B219D8A49FEF31
:101B38000DF0A1EF0DF0BAEF0DF07DEF0DF0000103
:101B4800DB510101226F236B2351000AD8B4AFEF98
:101B58000DF0BAEF0DF02251000AD8B472EF0DF073
:101B6800010AD8B485EF0DF0BAEF0DF01200165047
:101B7800C8EC10F0000E176E1750030DB50EF324C5
:101B8800D96E000EF420DA6EDF50D8A4CEEF0DF037
:101B9800D0EF0DF0E8EF0DF01750030DB30EF3245E
:101BA800D96E000EF420DA6E13C0DEFF14C0DDFF1C
:101BB8001750030DB50EF324D96E000EF420DA6E1B
:101BC80015C0DFFFF1EF0DF0172A070E1764EFEFCE
:101BD8000DF0F1EF0DF0C0EF0DF01650BDEC10F068
:101BE8001200086E0750DEEC10F0010E0001D72538
:101BF800016E026A000E0222000E046E0C0E036EC5
:101C080078EC0CF00150096E09500001D819D8A4DD
:101C180010EF0EF012EF0EF018EF0EF00750D3ECA5
:101C280010F0000E26EF0EF0CB0ED725D96EDA6A2B
:101C3800000EDA2208C0DFFF09C0D7F00750D3EC46
:101C480010F0010E120012C0D9FF13C0DAFF000E07
:101C5800DE6E000EDD6E20EE02F01250D926135013
:101C6800DA22000EDE6E000EDD6E20EE04F0125059
:101C7800D9261350DA22000EDE6E000EDD6E20EE3D
:101C880006F01250D9261350DA22000EDE6E000E2E
:101C9800DD6E20EE08F01250D9261350DA22000E1D
:101CA800DE6E000EDD6E120082C086F083C087F003
:101CB800000E0001DA6F000ED96F76EF0EF080C0CB
:101CC80072F081C073F0860E746F000E756F84C059
:101CD80076F085C077F04FEC05F000017251D927F6
:101CE8007351DA2386C0F6FF87C0F7FF0800F55066
:101CF8000009D8A482EF0EF084EF0EF063EF0EF027
:101D0800D9C080F0DAC081F01200196E1950C8EC01
:101D180010F00001D851D719D8A495EF0EF097EF1D
:101D28000EF09DEF0EF01950BDEC10F0000EB8EF5C
:101D38000EF0CB0ED825D96EDA6A000EDA22DF5003
:101D4800186E010ED825126E136A000E1322000EAB
:101D5800156E0C0E146E20EC0CF012500001D86FAA
:101D68001950BDEC10F0185012008C0E00018E6F47
:101D7800000E8F6F88C090F089C091F0000E936FAD
:101D8800000E926F000E956F000E946F900E806F8C
:101D9800000E816F8AC082F08BC083F08E0E846F34
:101DA800000E856F58EC0EF0000192518825D96E0F
:101DB80093518921DA6E000EDF6E1200126E1250F6
:101DC800D8A4E9EF0EF0EBEF0EF0F7EF0EF0F09677
:101DD8000F01399393928A9293968A869388938473
:101DE8003985230EC26E1204D8A4FDEF0EF0FFEF62
:101DF8000EF00AEF0FF00F01399593948A94939897
:101E08008A889386938239832B0EC26E120012C081
:101E1800D9FF13C0DAFF000EDE6E000EDD6E20EE75
:101E280002F01250D9261350DA22000EDE6E000E90
:101E3800DD6E20EE04F01250D9261350DA22000E7F
:101E4800DE6E000EDD6E20EE06F01250D92613501D
:101E5800DA22000EDE6E000EDD6E120012C0D9FF0F
:101E680013C0DAFF000EDE6E000EDD6E20EE02F00B
:101E78001250D9261350DA22000EDE6E000EDD6EE7
:101E880020EE04F01250D9261350DA22000EDE6E2E
:101E9800000EDD6E20EE06F01250D9261350DA221D
:101EA800000EDE6E000EDD6E120012C014F013C0BC
:101EB80015F061EF0FF0124A132A12C0F6FF13C093
:101EC800F7FFF86A050EF76403D00800F55005D04F
:101ED800F6CFE9FFF7CFEAFFEF500009D8A477EF74
:101EE8000FF079EF0FF05FEF0FF01450125C126EE5
:101EF80015501358136E1200000E216E000E206E3E
:101F080091EF0FF01FC012F0136A1DC014F01EC02D
:101F180015F0E1EC09F0204A212A20501B24D96E43
:101F280021501C20DA6EDF501F6E1F50D8A49FEF7F
:101F38000FF0A1EF0FF086EF0FF01200000E89EC02
:101F48000EF00101246F2451D8B4ADEF0FF0AFEFBC
:101F58000FF0C2EF0FF024511FEC0DF0F00E01014D
:101F6800206F000E216F24516EEC0DF001012451F9
:101F7800C6EC0BF00101245135EC10F0120025BE1F
:101F8800D0EF0FF0255006E12404D8B0CEEF0FF0C3
:101F9800D0EF0FF0DEEF0FF024C026F025C027F0B9
:101FA800261E271E264A272A26C024F027C025F0E9
:101FB800E2EF0FF024C024F025C025F01200036ED4
:101FC8000250DEEC10F00350030DB30EF324D96E6B
:101FD800000EF420DA6E000EDE6E000EDD6E035089
:101FE800030DB50EF324D96E000EF420DA6E000E40
:101FF800DF6E0250D3EC10F012004B50126E136AD1
:102008001350000AD8B40BEF10F01AEF10F012506A
:10201800000AD8B41AEF10F0010AD8B41AEF10F079
:10202800030AD8B41AEF10F01AEF10F012004D504E
:10203800126E136A1350000AD8B425EF10F034EF6B
:1020480010F01250000AD8B434EF10F0010AD8B4D6
:1020580034EF10F0030AD8B434EF10F034EF10F076
:1020680012004B50126E136A1350000AD8B43FEF97
:1020780010F04EEF10F01250000AD8B44EEF10F0E6
:10208800010AD8B44EEF10F0030AD8B44EEF10F09E
:102098004EEF10F0120001EE00F0200EEE6AE80696
:1020A800FDE100EEB3F04D0EEE6AE806FDE100EE4C
:1020B80041F00D0EEE6AE806FDE14E904E92000EDC
:1020C800F86E0001E9EF10F01A501C02F3CF1EF071
:1020D800F4CF1FF01A501D02F3501F261B501C028C
:1020E800F3501F261EC01AF01FC01BF0120001502B
:1020F8000302F3CF05F0F4CF06F001500402F350C9
:10210800062602500302F350062605C001F006C059
:1021180002F012000F013993399593948A949382AF
:10212800F19E020E616EF19A93869388F0861200F2
:10213800000E4D6EFCEC10F0F7EC10F0F1EC10F026
:102148001BEC10F0120020EE06F01250D9261350A6
:10215800DA2214C0DEFF15C0DDFF120020EE04F005
:102168001250D9261350DA2214C0DEFF15C0DDFF45
:102178001200126E1250D8A4C4EF10F0C6EF10F07F
:10218800C7EF10F0F28E1200126E1250D8A4CFEFE3
:1021980010F0D1EF10F0D2EF10F0F29E1200016EA5
:1021A8000150D8A4DAEF10F0DCEF10F0DDEF10F0FA
:1021B800F28E1200016E0150D8A4E5EF10F0E7EF9F
:1021C80010F0E8EF10F0F29E12007AEC09F0A2ECA1
:1021D8000FF0EBEF10F058EF00F0000E0001DB6F8E
:1021E8008EEC10F01200000E4B6E01EC10F0120095
:0C21F800000E4C6EF8EC08F01200120013
:10667A000019207E8E7D8266000000000000000066
:10668A000000000000000000000000000000000000
:10669A0000000000E0E0E0E0E0E0E0E0E0E0C04030
:1066AA000000E0E0E00000000000000000E7E7E78B
:1066BA00E7E7E7000000000000000000000000001B
:1066CA000000000000000000000E300E700C701C6C
:1066DA0060FFF8FFF818E018E038C038C0FFF8FF8C
:1066EA00F83180718073807380618000000000003F
:1066FA000000000000060006000F003FC07FE0F621
:10670A00E0E6E0E660F600FE007F801FC007E006D4
:10671A00F0C670E670E670F6F07FE03FC00F000644
:10672A00000600060006000000000000000000004D
:10673A00780200440600C60C00C60C00C61800C643
:10674A001000C630007C60000047C000C640018CC3
:10675A0060018C60030C60020C60060C600C064041
:10676A000C03800800000000000000000000000088
:10677A0000000000000000000F801FC038E038E071
:10678A0038E01DC01F800F003F087F9CF3DCE1F852
:10679A00E0F8E0F871FE7FDE1F86000000000000CE
:1067AA0000000000000000E0E0E0E0E0E00000009F
:1067BA0000000000000000000000000000000000CF
:1067CA000C183830707070E0E0E0E0E0E0E0E07073
:1067DA0070703038180C000000C0607030383838DB
:1067EA001C1C1C1C1C1C1C1C383838307060C00057
:1067FA000000000C000C000C00EDC07F800C001E95
:10680A00003300210000000000000000000000002A
:10681A00000000000000000000000000000000006E
:10682A0000000000000000000000000E000E000E34
:10683A00000E000E00FFF0FFF0FFF00E000E000E3B
:10684A00000E000E00000000000000000000000022
:10685A00000000000000000000000000000000002E
:10686A000000000060F0F03030E0C00000000000DE
:10687A000000000000000000FEFEFE000000000014
:10688A0000000000000000000000000000000000FE
:10689A00000000000000E0E0E0000000000000004E
:1068AA00000C0C1C1818183830303070606060E02A
:1068BA00C0C000000000000000000000001F003FF0
:1068CA00C070E070E0E070E070E070E070E070E0EE
:1068DA0070E070E070E07070E070E03FC00F800020
:1068EA0000000000000000000000000003070F1F66
:1068FA007FF7E707070707070707070707000000EB
:10690A0000000000000000000F803FE078E0707097
:10691A006070607000F000E003C007800F001E0086
:10692A003C0078007FF0FFF07FF0000000000000DC
:10693A00000000000000000000000F803FC071E06E
:10694A0070E060E000E001E00FC01FC000E00070EE
:10695A006070E070F07070E03FC01F8000000000BF
:10696A0000000000000000000000000000E001E05C
:10697A0003E003E007E00EE01CE038E038E070E0F6
:10698A00E0E0FFF8FFFC00E000E000E000E00000CB
:10699A0000000000000000000000000000003FE0CE
:1069AA003FF03FE07000700070007F807FE070E091
:1069BA00607000700070E070E07070E07FC01F804F
:1069CA0000000000000000000000000000000000BD
:1069DA000F803FC038E070606060E000EF80FFC069
:1069EA00F0E0E070E070E070E070707070E03FC05E
:1069FA000F800000000000000000000000000000FE
:106A0A000000FFF0FFF000F001E001C00380078002
:106A1A0007000F000E000E001E001C001C001C00C8
:106A2A001C00180000000000000000000000000028
:106A3A00000000001F803FC070E070E0606070E0FE
:106A4A0070E03FC03FC070E0E070E070E070E0705E
:106A5A0070E07FE01F8000000000000000000000DE
:106A6A000000000000001F003FC071E0E0E0E0709D
:106A7A00E070E070E07070F03FF01F7000706060CE
:106A8A0070E071C03FC01F0000000000000000005D
:106A9A0000000000000000000000E0E0E00000004C
:106AAA00000000E0E0E0000000000000000000003C
:106ABA00000000E0E0E0000000000000C0E0E0604C
:106ACA0060C080000000000000000000000000100C
:106ADA0000F003F00FF07F80FC00F000FC007F80E4
:106AEA000FE003F000F000100000000000000000BA
:106AFA00000000000000000000000000000000008C
:106B0A00000000000000FFF0FFF0FFF000000000AE
:106B1A00FFF0FFF0FFF0000000000000000000009E
:106B2A00000000000000000000000000000000005B
:106B3A0000008000F000FC007F001FE003F000F07E
:106B4A0003F01FE0FF00FC00F000800000000000DE
:106B5A00000000000000000000000000000000002B
:106B6A001F007FC0F1C0E0E0E0E0C0E003C007C062
:106B7A000F800E001C001C00080000001C001C00F6
:106B8A001C000000000000000000000000000000DF
:106B9A00000000000000FF0003FFC00F01E01C001E
:106BAA007038003830FB9861FF8C638F8CC7070CF4
:106BBA00C7070CCE070CCE071CCE0F18CE0E38CF47
:106BCA001E7067FFE063EF8030000E1C003C0F0070
:106BDA00F807FFE000FF0000000000000003C00308
:106BEA00C007E007E00EF00E700E701C781C383CEF
:106BFA003C3C3C7FFE7FFE700EF00FE007E0070092
:106C0A00000000000000000000000000000000FF7B
:106C1A00E0FFF8E078E038E038E038E078FFF0FFAD
:106C2A00F0E038E01CE01CE01CE01CE03CFFF87FD0
:106C3A00F00000000000000000000000000000005A
:106C4A000007E01FF83FFC783C701EF00EE004E0FD
:106C5A0000E000E000E00CF00E701E783C3FFC1FE4
:106C6A00F807E0000000000000000000000000003B
:106C7A00000000FFC0FFE0FFF0E078E038E01CE031
:106C8A001CE01CE01CE01CE01CE03CE038E078FF63
:106C9A00F0FFF0FFC000000000000000000000004C
:106CAA000000000000FFF0FFF0E000E000E000E07C
:106CBA0000E000FFF0FFF0E000E000E000E000E0AC
:106CCA0000FFF0FFF8FFF0000000000000000000E5
:106CDA0000000000000000FFE0FFF0E000E000E03C
:106CEA0000E000E000FFC0FFC0E000E000E000E0DC
:106CFA0000E000E000E000E000000000000000000A
:106D0A0000000000000000000007F01FFC3C1E7895
:106D1A000E700FE006E000E000E0FFE0FFE007E0B1
:106D2A0007700778073C1F1FFE07F80000000000E5
:106D3A000000000000000000000000E01CE01CE071
:106D4A001CE01CE01CE01CFFFCFFFCFFFCE01CE05C
:106D5A001CE01CE01CE01CE01CE01CE01C00000025
:106D6A0000000000000000000000E0E0E0E0E0E0D9
:106D7A00E0E0E0E0E0E0E0E0E0E0E0000000000069
:106D8A0000000000000000E000E000E000E000E099
:106D9A0000E000E000E000E000E0E0E0E0E0F0E039
:106DAA00F1E07FC03FC01F000000000000000000AB
:106DBA000000000000000000E038E078E0F8E1F0B0
:106DCA00E3E0E7C0EF80FF80FFC0FBC0F1E0E0F046
:106DDA00E0F0E078E03CE03CE01C0000000000004D
:106DEA0000000000000000000000E000E000E000F9
:106DFA00E000E000E000E000E000E000E000E00089
:106E0A00E000E000E000FFE0FFF0FFE0000000002B
:106E1A00000000000000000000000000F81FF81F3A
:106E2A00FC3FFC3FFC3FEC37EE77EE77EE77E66708
:106E3A00E7E7E7E7E7E7E3C7E3C7E3C7E187000078
:106E4A000000000000000000000000000000601CBC
:106E5A00F01CF81CF81CFC1CFE1CEE1CE71CE79C32
:106E6A00E39CE1DCE1FCE0FCE07CE07CE03CE01C53
:106E7A000000000000000000000000000000000008
:106E8A0000000007F0001FFC003FFE007C1F00709E
:106E9A000700F00780E00380E00380E00380E0035E
:106EAA0080E00380F007807007007C1F003FFE002F
:106EBA001FFC0007F00000000000000000000000B6
:106ECA0000000000000000000000007FE0FFF0E08A
:106EDA0078E038E038E038E038E070FFF0FFC0E0F2
:106EEA0000E000E000E000E000E000E00000000058
:106EFA000000000000000000000000000000000088
:106F0A0007F0001FFC003FFE007C1F00700700F026
:106F1A000780E00380E00380E00380E00380E00371
:106F2A0080F1C78070FF007C3F003FFE001FFF809A
:106F3A0007F3C00001C000000000000000000000CC
:106F4A0000000000000000007FF0FFF8E03CE01CB9
:106F5A00E01CE01CE03CFFF8FFE0E1E0E0F0E07854
:106F6A00E078E03CE03CE01CE00C0000000000009F
:106F7A00000000000000000000001F807FE070F0A9
:106F8A00E070E030F000FE007FC03FF007F00078CC
:106F9A00C038E038E038F0707FE01FC00000000021
:106FAA000000000000000000000000007FFCFFFE5F
:106FBA007FFC0380038003800380038003800380B7
:106FCA000380038003800380038003800380000022
:106FDA000000000000000000000000000000E01CAB
:106FEA00E01CE01CE01CE01CE01CE01CE01CE01CB7
:106FFA00E01CE01CE01CF03C78787FF83FF00FC002
:10700A000000000000000000000000000000000076
:10701A00E00EE00EF01E701C781C783C38383C38C4
:10702A003C701C701EF00EE00EE00FE007C007C0B7
:10703A0003800000000000000000000000000000C3
:10704A000000000000E07038E0F838E0F838F0F8A6
:10705A007870D87071DC7071DC7079DCF03B8EE08E
:10706A003B8EE03B8EE03B06E01F07C01F07C01FB8
:10707A0007C01E03C00E03800000000000000000CD
:10708A0000000000000000000000000000603070F6
:10709A0038707078F03CE01DC01FC00F800F800F61
:1070AA00801FC03DE038E078F0F078E038E0380042
:1070BA00000000000000000000000000000000E0E6
:1070CA0018E038F078787078F03DE01DC01FC00FE6
:1070DA0080070007000700070007000700070007EE
:1070EA000000000000000000000000000000000096
:1070FA00007FFC7FFC003C007C00F801F001E0030B
:10710A00E007C00F800F001E003C007C00F800FF63
:10711A00FE7FFE00000000000000000000000000EA
:10712A00FCFCE0E0E0E0E0E0E0E0E0E0E0E0E0E01D
:10713A00E0E0E0FC7C00000000E0E060607070309D
:10714A0030383818181C1C0C0C0C00000000000009
:10715A000000FCFC1C1C1C1C1C1C1C1C1C1C1C1CDD
:10716A001C1C1C1C1CFCFC0000000000000007008A
:10717A000F000F801F801FC039C039C070E0F0F0C7
:10718A0000000000000000000000000000000000F5
:10719A0000000000000000000000000000000000E5
:1071AA0000000000000000000000000000000000D5
:1071BA0000000000000000000000000000000000C5
:1071CA00000000000000FFF000000000000000E0E6
:1071DA00701800000000000000000000000000001D
:1071EA000000000000000000000000000000000095
:1071FA0000000000001FC07FE070F0607001F03FE7
:10720A00F07E70E070E070F1F07FF83E3000000030
:10721A0000000000000000000000000000E000E0A4
:10722A0000E000E000E000E780FFE0F8E0F0F0E0D6
:10723A0070E070E070E070F0F0F8E0FFC0E7800006
:10724A000000000000000000000000000000000034
:10725A000000000000000000001F803FE070E0F026
:10726A0070E020E000E000E020F07070F03FE01FE6
:10727A008000000000000000000000000000000084
:10728A0000007000700070007000701E707FF07156
:10729A00F0F0F0E070E070E070E070F0F071F03F54
:1072AA00F01E700000000000000000000000000056
:1072BA00000000000000000000000000001F803FE6
:1072CA00C070E0E0F0E070FFF0FFE0E000E0307056
:1072DA00F03FE01F800000000000000000000000F6
:1072EA0000000000001F003F80380038003800FE10
:1072FA0000FF0038003800380038003800380038FD
:10730A0000380038003800000000000000000000CB
:10731A000000000000000000000000000000000063
:10732A00001E707FF070F0F0F0E070E070E070E046
:10733A0070E0F070F03FF01E704070E07070E07F17
:10734A00E01F80000000000000E000E000E000E034
:10735A0000E000EF80FFC0F1E0E0E0E0E0E0E0E024
:10736A00E0E0E0E0E0E0E0E0E0E0E0000000000073
:10737A000000000000000000E0E0E00000E0E0E0C3
:10738A00E0E0E0E0E0E0E0E0E00000000000000013
:10739A00001C1C1C00001C1C1C1C1C1C1C1C1C1C77
:1073AA001C1C1C1C1CFCF8000000000000E000E093
:1073BA0000E000E000E000E1C0E3C0E780EF00FE8B
:1073CA0000FF00F700E380E3C0E1C0E0E0E0E00096
:1073DA00000000000000000000000000E0E0E0E023
:1073EA00E0E0E0E0E0E0E0E0E0E0E0E0E000000033
:1073FA000000000000000000000000000000000083
:10740A0000000000000000000000EF9F00FFFFC026
:10741A00F1E3C0E1C1C0E1C1C0E1C1C0E1C1C0E165
:10742A00C1C0E1C1C0E1C1C0E1C1C0E1C1C0000049
:10743A000000000000000000000000000000000042
:10744A0000000000000000000000000000EF80FFC4
:10745A00C0F1E0E0E0E0E0E0E0E0E0E0E0E0E0E031
:10746A00E0E0E0E0E00000000000000000000000B2
:10747A000000000000000000000000000000000FF3
:10748A00803FE078F0F078E038E038E038E038F033
:10749A007878F03FE00F8000000000000000000054
:1074AA0000000000000000000000000000000000D2
:1074BA0000E780FFC0F8E0F0F0E070E070E070E014
:1074CA0070F0F0F8E0FFC0E780E000E000E000E0E4
:1074DA0000E00000000000000000000000000000C2
:1074EA000000001E703FF071F0F0F0E070E070E014
:1074FA0070E070F0F071F03FF01E700070007000E4
:10750A007000700070000000000000000000000021
:10751A000000000000EF00FF80F000E000E000E063
:10752A0000E000E000E000E000E000E00000000011
:10753A000000000000000000000000000000000041
:10754A00000000000000003F007FC0E1C0E0C0F87A
:10755A00007F801FC001E0E0E0F0E07FC03F8000D4
:10756A0000000000000000000000000000000038D9
:10757A00003800380038003800FE00FF00380038B4
:10758A00003800380038003800380038003F801FC3
:10759A0000000000000000000000000000000000E1
:1075AA000000000000000000000000E0E0E0E0E071
:1075BA00E0E0E0E0E0E0E0E0E0E0E0E0E0F1E07F11
:1075CA00E03CE000000000000000000000000000B5
:1075DA0000000000000000000000000000C060E0A1
:1075EA00E0E0E071C071C031803B803B801B001F2E
:1075FA00000E000E00000000000000000000000065
:10760A000000000000000000000000000000000070
:10761A0000000000000000E0C1C0E1E1C0E1E1C0FB
:10762A0071E38073F3807333803B37003F3F003E42
:10763A001F001E1E001E1E000C0C00000000000091
:10764A000000000000000000000000000000000030
:10765A0000000000000000000000E0E0F1E07BC054
:10766A003F801F001F003F803B807BC0F1E0E0E0CD
:10767A00C0E0000000000000000000000000000060
:10768A00000000000000000000000000E060E0E0F0
:10769A00E0E071C071C071C03B803B801B001F00DD
:1076AA001F000E000E000E001C00FC00F800000077
:1076BA0000000000000000000000000000007FE061
:1076CA00FFE001E003C007800F001E001C00380025
:1076DA007800FFF0FFF0000000000000000000004A
:1076EA00000000070F1F1C1C1C1C1C1C78F8F878D3
:1076FA001C1C1C1C1C1C1F0F07000000E0E0E0E023
:10770A00E0E0E0E0E0E0E0E0E0E0E0E0E0E0E0E06F
:10771A00E0E0000000E0F0F83838383838381E1F4A
:10772A001F1E383838383838F8F0E00000000000FA
:10773A000000000000000000000000000000007CC3
:10774A0010FFF0FFF083E0000000000000000000DE
:10775A00000000000000000000000000000000001F
:10776A0000000000000000000000000000C0C0C0CF
:10777A00C0C0C0C0C000C0C000000000D8D8D8D85F
:10778A000000000000000000000000121224FEFEAB
:10779A0048FEFE489090000000107CFCD6D0F07C99
:1077AA001E16D67E7C100000000061009100920037
:1077BA0092009400658006400A400A4012401180F7
:1077CA0000000000000000387C6C7C3078DACECEF5
:1077DA00FF7A00000000C0C0C0C000000000000026
:1077EA00000000000010206060C0C0C0C0C0C060BF
:1077FA0060201000804060203030303030306060CF
:10780A0040800020A8F8205050000000000000002E
:10781A000000000000303030FCFC30303000000046
:10782A0000000000000000000000C0C040408000CE
:10783A00000000000000F0F000000000000000005E
:10784A000000000000000000C0C00000000030304E
:10785A00306060606060C0C0C0000000007878CC12
:10786A00CCCCCCCCCCCC787800000000303070F096
:10787A00B030303030303000000000387CCCCC0CD6
:10788A0018387060FCFC0000000078FCCC0C38381A
:10789A000C0CCCF878000000000C1C1C3C2C6CCCA6
:1078AA00FEFE0C0C000000007C7C60D8FCCC0CCCEA
:1078BA00CC7878000000007078D8C0F0F8D8D8D812
:1078CA00787000000000F8F818103030206060600E
:1078DA00600000000078FCCCCC7878CCCCCCFC786A
:1078EA000000000070F8CCCCCCFC7C0CCCF870000A
:1078FA00000000000000C0C000000000C0C000007E
:10790A000000000000C0C000000000C0C04040806D
:10791A000000041C38F0C0F0381C0400000000000D
:10792A00000000FCFC00FCFC00000000000000005D
:10793A0080E0703C0C1C70E080000000000078FCC5
:10794A00CCCC1C18303000303000000000000FC0D2
:10795A001FE0303066D8EFD8DDD8D898D998D9B09A
:10796A00DFF06EC870103FE00FC000001C001C0062
:10797A001C0036003600360063007F007F00C1809D
:10798A00C18000000000000000FCFEC6C6FCFCC668
:10799A00C6C6FEFC000000003C7E67C2C0C0C0C272
:1079AA00677E3C00000000F8FCCEC6C6C6C6C6CE3E
:1079BA00FCF800000000FEFEC0C0FEFEC0C0C0FE13
:1079CA00FE00000000FCFCC0C0F8F8C0C0C0C0C087
:1079DA00000000003C7E67C3C0CFCFC3637F3C007A
:1079EA00000000C6C6C6C6FEFEC6C6C6C6C600009B
:1079FA000000C0C0C0C0C0C0C0C0C0C0C00000003D
:107A0A00000C0C0C0C0C0C0CCCCCFC78000000000C
:107A1A00C3C6CCCCD8FCECC6C6C3C300000000C0A9
:107A2A00C0C0C0C0C0C0C0C0FEFE0000000000E36D
:107A3A0080E380E380F780D580D580D580D580DD4E
:107A4A0080D980C98000000000000000C6E6E6E692
:107A5A00F6D6DEDECECEC6000000003C7E67C3C38B
:107A6A00C3C3C3667E3C00000000FCFEC6C6C6FE59
:107A7A00FCC0C0C0C000000000003C007E00E7005F
:107A8A00C300C300C300C300CB0066007F003D8073
:107A9A0000800000000000FCFEC6C6FEFCCCC6C684
:107AAA00C6C3000000007CFEC6C6F07C0EC6C6FE39
:107ABA007C00000000FFFF1818181818181818186A
:107ACA0000000000C6C6C6C6C6C6C6C6C67E380000
:107ADA0000000000C180C1806300630063003600BB
:107AEA00360036001C001C001C00000000000000CC
:107AFA000000C460C460CA606AC06AC06AC06AC062
:107B0A006AC031803180318000000000000000002E
:107B1A00C1806300360036001C001C001C003600C1
:107B2A0036006300C18000000000000000C36666E2
:107B3A003C3C18181818181800000000FEFE060C25
:107B4A0018303060C0FEFE00000000E0E0C0C0C097
:107B5A00C0C0C0C0C0C0C0E0E000C0C0C0606060BB
:107B6A00606030303000000000E0E060606060601B
:107B7A006060606060E0E00038386C6C6CC60000E1
:107B8A0000000000000000000000000000000000EB
:107B9A00000000FE0000C0600000000000000000BD
:107BAA00000000000000000078FCCC3CFCCCFC6C1F
:107BBA0000000000C0C0C0F8FCCCCCCCCCF8F80067
:107BCA000000000000007078D8C0C0D878700000AB
:107BDA0000000C0C0C7CFCCCCCCCCCFC7C00000057
:107BEA000000000070F8D8F8C0D8F8700000000053
:107BFA00307060F0F060606060606000000000005B
:107C0A0000006CFCCCCCCCCCFC6C0CCC7800C0C09A
:107C1A00C0D8FCCCCCCCCCCCCC00000000C0C0007E
:107C2A00C0C0C0C0C0C0C0C00000000030300030BA
:107C3A003030303030303030F0E000C0C0C0CCD806
:107C4A00F0F8D8D8CCCC00000000C0C0C0C0C0C07A
:107C5A00C0C0C0C0C000000000000000000000005A
:107C6A00D980FFC0CCC0CCC0CCC0CCC0CCC0CCC0AA
:107C7A0000000000000000000000D8FCCCCCCCCCF6
:107C8A00CCCC000000000000007878CCCCCCCC78BA
:107C9A007800000000000000D8FCCCCCCCCCF8D88E
:107CAA00C0C0C0000000006CFCCCCCCCCCFC6C0C7E
:107CBA000C0C00000000D0F0C0C0C0C0C0C0000062
:107CCA00000000000070F8C8E03898F87000000062
:107CDA0000206060F0F0606060607070000000007A
:107CEA00000000CCCCCCCCCCCCFC6C00000000005A
:107CFA000000C6C66C6C6C38383800000000000002
:107D0A000000000000DD80DD80DD80D58055007731
:107D1A00007700770000000000000000000000CC9F
:107D2A00787830307878CC00000000000000C6C6B1
:107D3A006C6C6C38383830F0E000000000FCFC183D
:107D4A00303060FCFC00000000307060606060C091
:107D5A00C060606060703000C0C0C0C0C0C0C0C039
:107D6A00C0C0C0C0C0C000C0E060606060303060A9
:107D7A00606060E0C00000000000E4FC9C000000BD
:107D8A00000000000800000319000832000D4B0033
:107D9A000C7D0013AF000FFA00032C010645010603
:107DAA005E010A77010CA90104DB0107F401030D46
:107DBA00020626020C3F020871020C8A020CBC025F
:107DCA000EEE020C20030C52030C84030CB6030CB7
:107DDA00E803031A040333040C4C040C7E040CB0AD
:107DEA00040BE204171405105F050E91050FC30575
:107DFA000EF5050D27060C5906108B060EBD060357
:107E0A00EF060B08070E3A070C6C07109E070ED0F8
:107E1A00071102080D4D08127F080ECA080DFC084A
:107E2A000F2E090E60090F920915C4090D0F0A0DCC
:107E3A00410A0F730A06A50A06BE0A06D70A0CF0FB
:107E4A000A0C220B05540B0D6D0B0C9F0B0CD10B5E
:107E5A000C030C0C350C09670C0C990C0BCB0C039E
:107E6A00FD0C06160D0B2F0D03610D127A0D0BC5B5
:107E7A000D0DF70D0C290E0C5B0E098D0E0BBF0EA6
:107E8A0009F10E0B230F0B550F12870F0BD20F0B95
:107E9A0004100C3610086810038110089A100CB3ED
:107EAA0010080000020F00051E00072D00073C0005
:107EBA000A4B00086900027800048700049600054E
:107ECA00A50006B40002C30004D20002E10004F0D7
:107EDA000006FF00040E01061D01062C01073B01E6
:107EEA00064A01055901056801067701068601025D
:107EFA00950102A40106B30106C20106D10106E0FA
:107F0A00010DEF01090D02072B02083A0207490287
:107F1A0007580206670208760207850202940206DB
:107F2A00A30208B20207C10209D00207EE0208FD45
:107F3A0002070C03091B0308390307480308570300
:107F4A000766030975030B930309B10308CF0307F7
:107F5A00DE0303ED0304FC03030B04071A040729D9
:107F6A000403380406470406560405650406740427
:107F7A0005830404920406A10406B00402BF0404A3
:107F8A00CE0406DD0402EC040AFB040619050628E1
:107F9A0005063705064605045505056405047305F7
:107FAA0006820507910509A00506BE0507CD050647
:107FBA00DC0504EB0502FA050409060618060F207B
:107FCA007EAB7E6777504152414D4554455253002E
:107FDA004D656E7553746172740057454C434F4D2D
:107FEA004500494E47414D4500583A2025640059FD
:067FFA003A20256400009E
:020000040020DA
:08000000FFFFFFFFFFFFFFFF00
:020000040030CA
:0E000000FF381F3EFFBD85FF0FC00FE00F4011
:00000001FF
