:020000040000FA
:0400000036EF00F0E7
:100008004E82D9CF0EF0DACF0FF0F3CF10F0F4CF45
:1000180011F0F0B0F0A613D0F1BA08D0F18AF09040
:10002800010E076E010E51EC2AF009D0F1AA07D093
:10003800F19AF090010E076E020E51EC2AF0F2B41C
:10004800F2AA06D0EFEC26F0D768820ED66EF294AC
:1000580011C0F4FF10C0F3FF0FC0DAFF0EC0D9FFC4
:100068004E921100D9EF2BF020EED2F01B50D9267A
:100078001C50DA22DECF1DF0DDCF1EF020EECAF0D4
:100088001B50D9261C50DA22DECF1FF0DDCF20F01E
:100098001D501F261E502022080E1F26000E20224B
:1000A800205004E1EF0E1F5CD8A02CD020EED2F037
:1000B8001B50D9261C50DA22DECF1DF0DDCF1EF0F2
:1000C8001D1E1E1E1D4A1E2A20EED2F01B50D926C8
:1000D8001C50DA221DC0DEFF1EC0DDFF20EED2F06C
:1000E8001B50D9261C50DA22DECF1DF0DDCF1EF0C2
:1000F80020EECAF01B50D9261C50DA221D50DE26ED
:100108001E50DD22F80E1D6EFF0E1E6E20EED2F080
:100118001B50D9261C50DA22DECF1FF0DDCF20F08D
:1001280020EECAF01B50D9261C50DA22DECF21F06F
:10013800DDCF22F01F502126205022221D502126DB
:100148001E50222222BE06D0225030E1020E215C2F
:10015800D8B02CD020EED2F01B50D9261C50DA2271
:10016800DECF1DF0DDCF1EF01D1E1E1E1D4A1E2AED
:1001780020EED2F01B50D9261C50DA221DC0DEFF1B
:100188001EC0DDFF20EED2F01B50D9261C50DA220B
:10019800DECF1DF0DDCF1EF020EECAF01B50D926B1
:1001A8001C50DA221D50DE261E50DD22FF0E1D6E69
:1001B800FF0E1E6E20EED8F01B50D9261C50DA22F6
:1001C800DECF1FF0DDCF20F01D501F261E5020224D
:1001D80020EECCF01B50D9261C50DA22DECF21F0BD
:1001E800DDCF22F0080E2126000E22221F502118F2
:1001F80003E120502218D8A47DD120EECAF01B506C
:10020800D9261C50DA22DECF1DF0DDCF1EF0080EF5
:100218001D26000E1E2220EED6F01B50D9261C509B
:10022800DA221D50DE5C1E50DE58D8B063D120EEB5
:10023800D6F01B50D9261C50DA22DECF1DF0DDCFB8
:100248001EF0320E1D26000E1E22F80E1F6EFF0E27
:10025800206E20EECAF01B50D9261C50DA22DECFC1
:1002680021F0DDCF22F01F502126205022221D50E0
:10027800215C1E502258D8B03DD120EED6F01B503C
:10028800D9261C50DA22DECF1DF0DDCF1EF020EE7D
:10029800CAF01B50D9261C50DA22DECF1FF0DDCF62
:1002A80020F01D501F5E1E50205A205026E10A0ED5
:1002B8001F5CD8B022D020EED4F01B50D9261C5099
:1002C800DA22DECF1DF0DDCF1EF01D1E1E1E1D4AD8
:1002D8001E2A20EED4F01B50D9261C50DA221DC04D
:1002E800DEFF1EC0DDFF20EED2F01B50D9261C50C9
:1002F800DA22FE0EDE26FF0EEED020EED6F01B50E0
:10030800D9261C50DA22DECF1DF0DDCF1EF020EEFC
:10031800CAF01B50D9261C50DA22DECF1FF0DDCFE1
:1003280020F01D501F5E1E50205A205026E1140E4A
:100338001F5CD8B022D020EED4F01B50D9261C5018
:10034800DA22DECF1DF0DDCF1EF01D1E1E1E1D4A57
:100358001E2A20EED4F01B50D9261C50DA221DC0CC
:10036800DEFF1EC0DDFF20EED2F01B50D9261C5048
:10037800DA22DE06000EDD5AAFD020EED6F01B5092
:10038800D9261C50DA22DECF1DF0DDCF1EF020EE7C
:10039800CAF01B50D9261C50DA22DECF1FF0DDCF61
:1003A80020F01D501F5E1E50205A205035E11E0EB1
:1003B8001F5CD8B031D020EED2F01B50D9261C508B
:1003C800DA22DECF1DF0DDCF1EF01D1E1E1E1D4AD7
:1003D8001E2A20EED2F01B50D9261C50DA221DC04E
:1003E800DEFF1EC0DDFF20EED4F01B50D9261C50C6
:1003F800DA22DECF1DF0DDCF1EF01D1E1E1E1D4AA7
:100408001E2A20EED4F01B50D9261C50DA221DC01B
:10041800DEFF1EC0DDFF60D020EED6F01B50D926CF
:100428001C50DA22DECF1DF0DDCF1EF020EECAF020
:100438001B50D9261C50DA22DECF1FF0DDCF20F06A
:100448001D501F5E1E50205A205024E1280E1F5CAC
:10045800D8B020D020EED4F01B50D9261C50DA2278
:10046800DECF1DF0DDCF1EF01D1E1E1E1D4A1E2AEA
:1004780020EED4F01B50D9261C50DA221DC0DEFF16
:100488001EC0DDFF20EED2F01B50D9261C50DA2208
:10049800DE2A20D020EED4F01B50D9261C50DA22B8
:1004A800DECF1DF0DDCF1EF01D1E1E1E1D4A1E2AAA
:1004B80020EED4F01B50D9261C50DA221DC0DEFFD6
:1004C8001EC0DDFF20EED2F01B50D9261C50DA22C8
:1004D800020EDE26000EDD2220EEEAF01B50D926A1
:1004E8001C50DA22DE2A000EDD22000E186E0E0ED7
:1004F800D6EC29F020EEE2F01B50D9261C50DA2267
:10050800DECF1DF0DDCF1EF00B0E1D26000E1E22C5
:10051800F80E1F6EFF0E206E20EECCF01B50D92671
:100528001C50DA22DECF21F0DDCF22F01F50212629
:10053800205022221D50211803E11E502218D8A451
:100548007DD120EECAF01B50D9261C50DA22DECF0E
:100558001DF0DDCF1EF0080E1D26000E1E2220EE17
:10056800E0F01B50D9261C50DA221D50DE5C1E50CC
:10057800DE58D8B063D120EEE0F01B50D9261C50CD
:10058800DA22DECF1DF0DDCF1EF0320E1D26000E62
:100598001E22F80E1F6EFF0E206E20EECAF01B50B2
:1005A800D9261C50DA22DECF21F0DDCF22F01F50F1
:1005B8002126205022221D50215C1E502258D8B0DE
:1005C8003DD120EEE0F01B50D9261C50DA22DECFB8
:1005D8001DF0DDCF1EF020EECAF01B50D9261C50AE
:1005E800DA22DECF1FF0DDCF20F01D501F5E1E5037
:1005F800205A205026E10A0E1F5CD8B022D020EEE7
:10060800D4F01B50D9261C50DA22DECF1DF0DDCFE6
:100618001EF01D1E1E1E1D4A1E2A20EED4F01B5061
:10062800D9261C50DA221DC0DEFF1EC0DDFF20EED9
:10063800D2F01B50D9261C50DA22FE0EDE26FF0E01
:10064800EED020EEE0F01B50D9261C50DA22DECF87
:100658001DF0DDCF1EF020EECAF01B50D9261C502D
:10066800DA22DECF1FF0DDCF20F01D501F5E1E50B6
:10067800205A205026E1140E1F5CD8B022D020EE5C
:10068800D4F01B50D9261C50DA22DECF1DF0DDCF66
:100698001EF01D1E1E1E1D4A1E2A20EED4F01B50E1
:1006A800D9261C50DA221DC0DEFF1EC0DDFF20EE59
:1006B800D2F01B50D9261C50DA22DE06000EDD5A75
:1006C800AFD020EEE0F01B50D9261C50DA22DECF46
:1006D8001DF0DDCF1EF020EECAF01B50D9261C50AD
:1006E800DA22DECF1FF0DDCF20F01D501F5E1E5036
:1006F800205A205035E11E0E1F5CD8B031D020EEB4
:10070800D2F01B50D9261C50DA22DECF1DF0DDCFE7
:100718001EF01D1E1E1E1D4A1E2A20EED2F01B5062
:10072800D9261C50DA221DC0DEFF1EC0DDFF20EED8
:10073800D4F01B50D9261C50DA22DECF1DF0DDCFB5
:100748001EF01D1E1E1E1D4A1E2A20EED4F01B5030
:10075800D9261C50DA221DC0DEFF1EC0DDFF60D086
:1007680020EEE0F01B50D9261C50DA22DECF1DF017
:10077800DDCF1EF020EECAF01B50D9261C50DA221D
:10078800DECF1FF0DDCF20F01D501F5E1E50205A17
:10079800205024E1280E1F5CD8B020D020EED4F0E1
:1007A8001B50D9261C50DA22DECF1DF0DDCF1EF0FB
:1007B8001D1E1E1E1D4A1E2A20EED4F01B50D926CF
:1007C8001C50DA221DC0DEFF1EC0DDFF20EED2F075
:1007D8001B50D9261C50DA22DE2A20D020EED4F075
:1007E8001B50D9261C50DA22DECF1DF0DDCF1EF0BB
:1007F8001D1E1E1E1D4A1E2A20EED4F01B50D9268F
:100808001C50DA221DC0DEFF1EC0DDFF20EED2F034
:100818001B50D9261C50DA22020EDE26000EDD22DD
:1008280020EEECF01B50D9261C50DA22DE2A000EEE
:10083800DD22000E186E0E0ED6EC29F0F60E1D6E97
:10084800FF0E1E6E20EEE2F01B50D9261C50DA2255
:10085800DECF1FF0DDCF20F01D501F261E502022B6
:10086800F80E216EFF0E226E20EECCF01B50D9261A
:100878001C50DA22DECF23F0DDCF24F021502326CE
:10088800225024221F50235C20502458D8B00FD067
:10089800000E186E090ED6EC29F020EEECF01B5075
:1008A800D9261C50DA22000EDE6E000EDD6E20EE18
:1008B800CCF01B50D9261C50DA22DECF1DF0DDCF3C
:1008C8001EF0080E1D26000E1E2220EED8F01B502A
:1008D800D9261C50DA22DECF1FF0DDCF20F00A0E19
:1008E8001F26000E20221D501F5C1E502058D8B015
:1008F8001200000E186E090ED6EC29F020EEEAF070
:100908001B50D9261C50DA22000EDE6E000EDD6E5A
:10091800120027C0BBF028C0BCF00A0EBB252D6E04
:10092800000EBC212E6E2DC0F6FF2EC0F7FF090069
:10093800F5CFAAF00900F5CFABF00900F5CFACF080
:100948000A00F5CFADF0120EBB252D6E000EBC21AE
:100958002E6E2DC0F6FF2EC0F7FF0900F5CFC0F0B0
:100968000A00F5CFC1F0160EBB252D6E000EBC2176
:100978002E6E2DC0F6FF2EC0F7FF0900F5CFB5F09B
:100988000A00F5CFB6F01C0EBB252D6E000EBC215B
:100998002E6E2DC0F6FF2EC0F7FF0900080EF518C1
:1009A8000900F510D8A412001E0EBB252D6E000EEE
:1009B800BC212E6E2DC0F6FF2EC0F7FF0900F504EE
:1009C8000900F5100900F5100900F510D8A4120067
:1009D800C05129242D6EC1512A202E6E2E5003E1BC
:1009E800F10E2D5CD8B01200B5512B242D6EB651E6
:1009F8002C202E6E410E2D5C010E2E58D8B0120000
:100A0800360E806E8B988B968B868B88800E806EC8
:100A18008B968B86360E2724B36F000E2820B46F72
:100A2800AA512726AB512822000EAE6FB3C012F090
:100A3800B4C013F0F5EC23F012C0C2F013C0C3F039
:100A48002A0E806E8B988B968B868B882AC080FFA7
:100A58008B968B8629C080FF8B968B86C051292464
:100A68002D6EC1512A202E6EFF0E2D24296EFF0EE9
:100A78002E202A6E2AC080FF8B968B8629C080FF85
:100A88008B968B862B0E806E8B988B968B868B889D
:100A98002BC02DF02CC02EF02D1E2E1E2D4A2E2AD6
:100AA800B5512D5EB6512E5A400E2D24BD6F010E44
:100AB8002E20BE6FBEC080FF8B968B86BDC080FF88
:100AC8008B968B86B551BD252D6EB651BE212E6EE7
:100AD800FF0E2D24BD6FFF0E2E20BE6FBEC080FFFF
:100AE8008B968B86BDC080FF8B968B862C0E806E76
:100AF8008B988B968B868B88000EB86F000EB76F1D
:100B0800000EB26F000EB16F27C0F6FF28C0F7FFC6
:100B18000800F5500009D8B428D144D1020E272680
:100B2800000E2822000EC56F000EC46F0AD0C3C085
:100B380080FF8B968B86C2C080FF8B968B86C44BBA
:100B4800C52BB751C05D2D6EB851C1592E6E2D50B1
:100B5800C45D2E50C559D8A0EAD7000EB86F000E54
:100B6800B76FB14BB22B60D1000EC56F000EC46FCA
:100B78000AD0C3C080FF8B968B86C2C080FF8B963D
:100B88008B86C44BC52BB751C05D2D6EB851C1596A
:100B98002E6E2D50C45D2E50C559D8A0EAD7000E30
:100BA800C56F000EC46F0AD0C3C080FF8B968B86BA
:100BB800C2C080FF8B968B86C44BC52BB151B55DE7
:100BC8002D6EB251B6592E6EFF0E2D241A6EFF0EE1
:100BD8002E201B6EC0C01CF0C1C01DF0A6EC2CF06E
:100BE8001A500001C45D1B50C559D8A0DDD7010EAD
:100BF800AE6F1AD1030E27242D6E000E28202E6EFC
:100C08002DC0F6FF2EC0F7FF0800F5501A6E1B6ABC
:100C1800C0C01CF0C1C01DF0A6EC2CF0020E2724A9
:100C28002F6E000E2820306E2FC0F6FF30C0F7FF61
:100C38000800F5501A240001AF6F000E1B20B06F9A
:100C4800000EC56F000EC46F0CD0B74BB82BC3C0D5
:100C580080FF8B968B86C2C080FF8B968B86C44B99
:100C6800C52BAF51C45DB051C559D8A0EED7AFC0A0
:100C780020F0B0C021F0C0C022F0C1C023F028ECA1
:100C88002AF00001B1512024B16FB2512120B26F76
:100C9800B7C012F0B8C013F0C0C014F0C1C015F04E
:100CA8002BEC2BF012C0B7F013C0B8F0040EB9D07B
:100CB800010E27242D6E000E28202E6E2DC0F6FF63
:100CC8002EC0F7FF0800F5CFBFF0000EC56F000E6D
:100CD800C46F2DD0C45127242D6EC55128202E6EE7
:100CE800020E2D26000E2E222DC0F6FF2EC0F7FF75
:100CF8000800F550040DF3CF2FF0F4CF30F02F504B
:100D0800B325126E3050B421136EF5EC23F012C0E7
:100D1800B9F013C0BAF0B74BB82BBAC080FF8B96A6
:100D28008B86B9C080FF8B968B86C44BC52BBF5171
:100D38002D6E2E6A2D50C45D2E50C559D8A0CAD725
:100D4800BF29D8B40ED0BF29FE0BBF6FBF512D6E7F
:100D58002E6A020E2D26000E2E222D5027262E50EA
:100D680062D0020E2726010E5ED0010E27242D6EBA
:100D7800000E28202E6E2DC0F6FF2EC0F7FF0800AB
:100D8800F5502F6E306A3050000AD8A491D72F50F2
:100D9800000AD8B4C3D6010AD8B4E6D6030AD8B430
:100DA80029D786D727C0F6FF28C0F7FF0800F5CF58
:100DB800BFF0010E27242D6E000E28202E6E2DC0A8
:100DC800F6FF2EC0F7FF0800F550040DF3CF2FF003
:100DD800F4CF30F02F50B325126E3050B421136E7B
:100DE800F5EC23F012C0B9F013C0BAF0000EC56FCD
:100DF800000EC46F0CD0B74BB82BBAC080FF8B96CF
:100E08008B86B9C080FF8B968B86C44BC52BBF5190
:100E18002D6E2E6A2D50C45D2E50C559D8A0EBD723
:100E2800020E2726000E2822AE51D8B46DD6360EF3
:100E3800806E8B988B968B868B88000E806E8B9637
:100E48008B861200000E0001D46F000ED36F42C0D3
:100E5800D9FF43C0DAFFDECFD5F0DDCFD6F020EEE4
:100E680004F04250D9264350DA22DECFC6F0DDCF57
:100E7800C7F042C0D9FF43C0DAFFDECFC8F0DDCFEC
:100E8800C9F0C651C825D76FC751C921D86F20EE00
:100E980002F04250D9264350DA22DECFD9F0DDCF16
:100EA800DAF020EE06F04250D9264350DA22DECF9F
:100EB800C6F0DDCFC7F020EE02F04250D9264350ED
:100EC800DA22DECFC8F0DDCFC9F0C651C825DB6F06
:100ED800C751C921DC6F20EE08F04250D926435093
:100EE800DA2210EE0AF04250E1264350E222DE50A8
:100EF800E61804E1DE50E618D8B43CD0D5C012F0AC
:100F0800D6C013F0D9C014F0DAC015F0D7C016F067
:100F1800D8C017F0DBC018F0DCC019F0010E1A6E4B
:100F280020EE0AF04250D9264350DA22DECF1BF0D9
:100F3800DDCF1CF036EC13F0D5C012F0D6C013F09C
:100F4800D9C014F0DAC015F0D7C016F0D8C017F021
:100F5800DBC018F0DCC019F0000E1A6E20EE08F0A5
:100F68004250D9264350DA22DECF1BF0DDCF1CF0E9
:100F780036EC13F020EE0CF04250D9264350DA221A
:100F8800DECFF6FFDDCFF7FF0800F550420AD8A400
:100F9800ABD020EE0CF04250D9264350DA22DECFF7
:100FA800C6F0DDCFC7F0010E0001C627000EC7232B
:100FB800C6C0F6FFC7C0F7FF0800F5504D0AD8A411
:100FC80093D020EE0CF04250D9264350DA22DECFDF
:100FD800E2F0DDCFE3F020EE02F04250D926435094
:100FE800DA22DECFC6F0DDCFC7F0160EE225C86FD5
:100FF800000EE321C96FC8C0F6FFC9C0F7FF09009A
:10100800F5CFCAF00900F5CFCBF00900F5CFCCF049
:101018000900F5CFCDF0D890CD33CC33CB33CA33DC
:1010280020EE06F04250D9264350DA22DECFCEF029
:10103800DDCFCFF0D890CF31D16FCE31D06FCA513C
:10104800D05FCB51D15BC651D025DF6FC751D121BD
:10105800E06F42C0D9FF43C0DAFFDECFC6F0DDCF74
:10106800C7F0120EE225C86F000EE321C96FC8C091
:10107800F6FFC9C0F7FF0900F5CFCAF00900F5CFA0
:10108800CBF00900F5CFCCF00900F5CFCDF0D89022
:10109800CD33CC33CB33CA3320EE04F04250D926BB
:1010A8004350DA22DECFCEF0DDCFCFF0D890CF316B
:1010B800D16FCE31D06FCA51D05FCB51D15BC65101
:1010C800D025DD6FC751D121DE6FE2C027F0E3C024
:1010D80028F0DDC029F0DEC02AF0DFC02BF0E0C028
:1010E8002CF08DEC04F002D120EE02F04250D9260B
:1010F8004350DA22DECFC6F0DDCFC7F020EE06F08F
:101108004250D9264350DA22DECFC8F0DDCFC9F0ED
:10111800D8900001C931CB6FC831CA6F20EE0EF0EC
:101128004250D9264350DA22DECFF6FFDDCFF7FF53
:101138000800F5CFCCF0D890CC33CC51CA5F000E64
:10114800CB5BC651CA25DF6FC751CB21E06F000EBC
:10115800E16F5CD020EE0EF04250D9264350DA22DF
:10116800DECFC6F0DDCFC7F0010EC627000EC723BD
:10117800C6C0F6FFC7C0F7FF0800F5CFC8F020EEDD
:101188000CF04250D9264350DA22DECFC9F0DDCF29
:10119800CAF0E151C927000ECA23C9C0F6FFCAC068
:1011A800F7FF0800F5CFCBF0C851CB5DD26FD25115
:1011B800030D20EE0EF04250D9264350DA22DECF3E
:1011C800C6F0DDCFC7F0030EC627000EC723C6C082
:1011D800F6FFC7C0F7FF0900F5CFC8F00900F5CF43
:1011E800C9F0F350C827F450C923C8C0F6FFC9C0D6
:1011F800F7FF0800F550CA6FCB6B020ECA27000E26
:10120800CB23CA51D327CB51D423E12B20EE0CF0AA
:101218004250D9264350DA22DECF12F0DDCF13F048
:101228000AEC2BF00001E151C66FC76B1250C65D86
:101238001350C759D8A08ED742C0D9FF43C0DAFF90
:10124800DECFC6F0DDCFC7F0D890D431C96FD33127
:10125800C86F20EE04F04250D9264350DA22DECF80
:10126800CAF0DDCFCBF0D890CB31CD6FCA31CC6F7F
:10127800C851CC5FC951CD5BC651CC25DD6FC75174
:10128800CD21DE6F20EE0CF04250D9264350DA22F1
:10129800DECF20F0DDCF21F020EE0EF04250D9262F
:1012A8004350DA22DECF22F0DDCF23F0000E246E89
:1012B800DDC025F0DEC026F0DFC027F0E0C028F052
:1012C80020EE08F04250D9264350DA22DECF29F02A
:1012D800DDCF2AF020EE0AF04250D9264350DA2218
:1012E800DECF2BF0DDCF2CF087EC0FF042C025F0DD
:1012F80043C026F049EC18F01200F5D1080E372447
:10130800126E000E3820136E20EE02F03750D926E8
:101318003850DA22DECF14F0DDCF15F020EE04F0DD
:101328003750D9263850DA22DECF16F0DDCF17F045
:10133800ABEC25F00009D8B40BD0000E186E070EE0
:10134800D6EC29F037C012F038C013F06BEC2CF053
:10135800200E3724126E000E3820136E20EE02F095
:101368003750D9263850DA22DECF14F0DDCF15F009
:1013780020EE04F03750D9263850DA22DECF16F0A6
:10138800DDCF17F0ABEC25F00009D8B40BD0000E78
:10139800186E050ED6EC29F037C012F038C013F0DD
:1013A8006BEC2CF0380E3724126E000E3820136EBA
:1013B80020EE02F03750D9263850DA22DECF14F06A
:1013C800DDCF15F020EE04F03750D9263850DA2258
:1013D800DECF16F0DDCF17F0ABEC25F00009D8B45E
:1013E8000BD0000E186E060ED6EC29F037C012F09E
:1013F80038C013F06BEC2CF0800E3724126E000E00
:101408003820136E20EE02F03750D9263850DA22F1
:10141800DECF14F0DDCF15F020EE04F03750D926DA
:101428003850DA22DECF16F0DDCF17F0ABEC25F01E
:101438000009D8B41200000E186E030ED6EC29F07D
:1014480037C012F038C013F06BEC2CF01200980E75
:101458003724126E000E3820136E20EE02F037503B
:10146800D9263850DA22DECF14F0DDCF15F020EE81
:1014780004F03750D9263850DA22DECF16F0DDCF07
:1014880017F057EC25F00009D8B414D037C018F07D
:1014980038C019F06CEC11F0980E3724276E000E46
:1014A8003820286E8FEC0BF037C012F038C013F0DC
:1014B8006BEC2CF0B10E3724126E000E3820136E30
:1014C80020EE02F03750D9263850DA22DECF14F059
:1014D800DDCF15F020EE04F03750D9263850DA2247
:1014E800DECF16F0DDCF17F057EC25F00009D8B4A1
:1014F80014D037C016F038C017F075EC22F0B10ED2
:101508003724276E000E3820286E8FEC0BF037C07A
:1015180012F038C013F06BEC2CF0500E3724126E1A
:10152800000E3820136E20EE02F03750D9263850BE
:10153800DA22DECF14F0DDCF15F020EE04F03750BC
:10154800D9263850DA22DECF16F0DDCF17F0ABEC13
:1015580025F00009D8B41200000E186E080ED6EC5B
:1015680029F037C012F038C013F06BEC2CF01200E1
:10157800500E3724126E000E3820136E20EE02F043
:101588003750D9263850DA22DECF14F0DDCF15F0E7
:1015980020EE04F03750D9263850DA22DECF16F084
:1015A800DDCF17F0ABEC25F00009D8B40BD0000E56
:1015B800186E080ED6EC29F037C012F038C013F0B8
:1015C8006BEC2CF0040E3918D8A407D037C01CF0E7
:1015D80038C01DF001EC25F012000A0E3918D8A405
:1015E80012004CEC2BF037C025F038C026F00BEC7D
:1015F8002CF037C01CF038C01DF09BEC21F020EE19
:1016080006F03750D9263850DA22DECF1AF0DDCF6F
:101618001BF0FF0E1D6EF60E1C6EA6EC2CF0280EAD
:101628001A24206E000E1B20216E0A0E226E000E58
:10163800236EFFEC29F01200680E3724126E000E9C
:101648003820136E20EE02F03750D9263850DA22AF
:10165800DECF14F0DDCF15F020EE04F03750D92698
:101668003850DA22DECF16F0DDCF17F0ABEC25F0DC
:101678000009D8B40DD037C02BF038C02CF090EC4E
:101688000DF0000E186E0F0ED6EC29F0000E4C6E01
:10169800800E3724126E000E3820136E20EE02F0F2
:1016A8003750D9263850DA22DECF14F0DDCF15F0C6
:1016B80020EE04F03750D9263850DA22DECF16F063
:1016C800DDCF17F0ABEC25F00009D8B41200000EFE
:1016D800186E030ED6EC29F037C012F038C013F09C
:1016E8006BEC2CF012004C503A6E3B6A3B50000AEF
:1016F800D8A412003A50000AD8B400D6010AD8B4C7
:10170800A6D6030AD8B434D7010AD8B41200070AF7
:10171800D8A4120091D720EE0EF02750D9262850D1
:10172800DA22DE50DE10D8B45CD027C0D9FF28C03A
:10173800DAFFDECF29F0DDCF2AF020EE0EF02750B9
:10174800D9262850DA22DECF2BF0DDCF2CF020EE80
:1017580004F02750D9262850DA22DECF2DF0DDCF2D
:101768002EF02B502D5C1A6E2C502E581B6E20EE2E
:1017780013F02750D9262850DA22DECF1CF0DDCF0F
:101788001DF0A6EC2CF01AC020F01BC021F020EEB2
:1017980015F02750D9262850DA22DECF22F0DDCFE7
:1017A80023F028EC2AF0295020262A502122010E65
:1017B8002024356E000E2120366E20EE0EF02750C4
:1017C800D9262850DA22DECF29F0DDCF2AF035508D
:1017D800292636502A22FE0E29242F6EFF0E2A2093
:1017E80045D027C0D9FF28C0DAFFDECF29F0DDCFEA
:1017F8002AF0010E2924356E000E2A20366E27C0E5
:10180800D9FF28C0DAFFDECF29F0DDCF2AF020EE9D
:1018180004F02750D9262850DA22DECF1AF0DDCF7F
:101828001BF020EE13F02750D9262850DA22DECFFD
:101838001CF0DDCF1DF0A6EC2CF01AC020F01BC068
:1018480021F020EE15F02750D9262850DA22DECFD5
:1018580022F0DDCF23F028EC2AF0295020262A5048
:101868002122FF0E20242F6EFF0E2120306E20EE45
:1018780002F02750D9262850DA22DECF29F0DDCF12
:101888002AF0020E2924316E000E2A20326E20EE34
:1018980006F02750D9262850DA22DECF29F0DDCFEE
:1018A8002AF020EE02F02750D9262850DA22DECF7F
:1018B8002BF0DDCF2CF029502B262A502C22FE0E9F
:1018C8002B24336EFF0E2C20346E35C012F036C038
:1018D80013F031C014F032C015F02FC016F030C02C
:1018E80017F033C018F034C019F0010E1A6E20EE4C
:1018F8000AF02750D9262850DA22DECF1BF0DDCF98
:101908001CF036EC13F020EE11F02750D9262850A1
:10191800DA2210EE13F02750E1262850E222DECF1B
:10192800E6FFDDCFE5FF20EE0EF02750D926285040
:10193800DA22DE50DE10D8A446D027C0D9FF28C04E
:10194800DAFFDECF29F0DDCF2AF0010E2924356E2B
:10195800000E2A20366E27C0D9FF28C0DAFFDECF56
:1019680029F0DDCF2AF020EE04F02750D9262850A0
:10197800DA22DECF1AF0DDCF1BF020EE11F027506F
:10198800D9262850DA22DECF1CF0DDCF1DF0A6ECD8
:101998002CF01AC020F01BC021F020EE15F02750C3
:1019A800D9262850DA22DECF22F0DDCF23F028EC2A
:1019B8002AF0295020262A502122FF0E20242F6E9B
:1019C800FF0E21205BD027C0D9FF28C0DAFFDECF69
:1019D80029F0DDCF2AF020EE0EF02750D926285026
:1019E800DA22DECF2BF0DDCF2CF020EE04F02750EA
:1019F800D9262850DA22DECF2DF0DDCF2EF02B505D
:101A08002D5C1A6E2C502E581B6E20EE11F02750AC
:101A1800D9262850DA22DECF1CF0DDCF1DF0A6EC47
:101A28002CF01AC020F01BC021F020EE15F0275032
:101A3800D9262850DA22DECF22F0DDCF23F028EC99
:101A48002AF0295020262A502122010E2024356E02
:101A5800000E2120366E20EE0EF02750D926285091
:101A6800DA22DECF29F0DDCF2AF03550292636508C
:101A78002A22FE0E29242F6EFF0E2A20306E20EE19
:101A880002F02750D9262850DA22DECF29F0DDCF00
:101A98002AF0020E2924316E000E2A20326E20EE22
:101AA80006F02750D9262850DA22DECF29F0DDCFDC
:101AB8002AF020EE02F02750D9262850DA22DECF6D
:101AC8002BF0DDCF2CF029502B262A502C22FE0E8D
:101AD8002B24336EFF0E2C20346E35C012F036C026
:101AE80013F031C014F032C015F02FC016F030C01A
:101AF80017F033C018F034C019F0010E1A6E20EE3A
:101B080008F02750D9262850DA22DECF1BF0DDCF87
:101B18001CF036EC13F012002BC0D9FF2CC0DAFFF2
:101B28000B0EDE6E000EDD6E676820EE02F02B50A5
:101B3800D9262C50DA22000EDE6E000EDD6E20EE65
:101B480004F02B50D9262C50DA22000EDE6E000E3F
:101B5800DD6E20EE06F02B50D9262C50DA22010E2D
:101B6800DE6E000EDD6EEA0E2B24126E000E2C20A7
:101B7800136E93EC2CF0CA0E2B24126E000E2C2040
:101B8800136E76EC29F020EED4F02B50D9262C5089
:101B9800DA22010EDE6E000EDD6ED60E2B24126EDA
:101BA800000E2C20136E000E156E000E146E52ECF3
:101BB80026F0E00E2B24126E000E2C20136E000E61
:101BC800156E010E146E52EC26F0000E136E0A0EFE
:101BD800126E000E156EC80E146E000E176E5A0E99
:101BE800166E000E196E1E0E186E000E1B6E000E7D
:101BF8001A6EFF0E1D6E1C68D90E1E6E7F0E1F6EAC
:101C08007B0E206E7F0E216E000E226E000E236E5C
:101C1800000E246E000E256E000E266E000E276E36
:101C2800200E2B24286E000E2C20296E010E2A6E01
:101C380030EC20F0000E136E8C0E126E000E156E36
:101C4800C80E146E000E176E5A0E166E000E196E20
:101C58001E0E186E000E1B6E000E1A6EFF0E1D6E05
:101C68001C68E20E1E6E7F0E1F6E7B0E206E7F0EAE
:101C7800216E000E226E000E236E000E246E000EE2
:101C8800256E000E266E000E276E380E2B24286E49
:101C9800000E2C20296E020E2A6E30EC20F0000E69
:101CA800136E0A0E126E000E156EFA0E146E000EEA
:101CB800176E5A0E166E000E196E1E0E186E000E56
:101CC8001B6E000E1A6EFF0E1D6E1C68B20E1E6E85
:101CD8007F0E1F6E7B0E206E7F0E216E000E226E11
:101CE800000E236E000E246E000E256E000E266E6A
:101CF800000E276E080E2B24286E000E2C20296E4D
:101D0800030E2A6E30EC20F0000E136E8C0E126E4D
:101D1800000E156EFA0E146E000E176E5A0E166E21
:101D2800000E196E1E0E186E000E1B6E000E1A6E37
:101D3800FF0E1D6E1C68D00E1E6E7F0E1F6E7B0E72
:101D4800206E7F0E216E000E226E000E236E000E96
:101D5800246E000E256E000E266E000E276E800E75
:101D68002B24286E000E2C20296E040E2A6E30ECCF
:101D780020F0000E136EDC0E126E000E156E000EB3
:101D8800146E000E176E140E166E000E196E140ED9
:101D9800186E000E1B6E000E1A6EF80E1D6E000EE9
:101DA8001C6EFC0E1E6E7F0E1F6E7B0E206E7F0E4D
:101DB800216E000E226E000E236E000E246E000EA1
:101DC800256E000E266E000E276E500E2B24286EF0
:101DD800000E2C20296E050E2A6E30EC20F0000E25
:101DE800136E0A0E126E000E156EFA0E146E000EA9
:101DF800176E5A0E166E000E196E1E0E186E000E15
:101E08001B6E000E1A6EFF0E1D6E1C68C70E1E6E2E
:101E18007F0E1F6E7B0E206E7F0E216E000E226ECF
:101E2800000E236E000E246E000E256E000E266E28
:101E3800000E276E680E2B24286E000E2C20296EAB
:101E4800060E2A6E30EC20F0000E136E320E126E63
:101E5800000E156E6E0E146E000E176EA50E166E21
:101E6800000E196E140E186E000E1B6E000E1A6E00
:101E7800FF0E1D6E1C68F80E1F6E000E1E6E000E03
:101E8800216E000E206E000E236E0B0E226E000EC9
:101E9800246E000E256E980E2B24266E000E2C2024
:101EA800276EADEC20F0000E136E320E126E000E8F
:101EB800156EA00E146E000E176EA50E166E000E8F
:101EC800196E140E186E000E1B6E000E1A6EFF0EA1
:101ED8001D6E1C68F80E1F6E000E1E6E000E216E21
:101EE800000E206E000E236E030E226E000E246E6E
:101EF800000E256EB10E2B24266E000E2C20276EA8
:101F0800ADEC20F01200000E416E000E3E6E4FD078
:101F1800010E22242D6E000E23202E6E2DC0F6FFFA
:101F28002EC0F7FF0800F5CF2FF03E502024306E6A
:101F3800000E2120316E30C0F6FF31C0F7FFF86A7D
:101F4800050EF76403D00800F55005D0F6CFE1FF81
:101F5800F7CFE2FFE750326E2F50325C3F6E3F50B2
:101F68001A6E1B6A1ABE1B06000E1D6E030E1C6E2F
:101F7800A6EC2CF0030E22242D6E000E23202E6ECC
:101F88002DC0F6FF2EC0F7FF0900F5CF2FF009008E
:101F9800F5CF30F01A502F261B5030222FC0F6FFF5
:101FA80030C0F7FF0800F550020F41263E2A20C036
:101FB80012F021C013F00AEC2BF03E502D6E2E6A61
:101FC80012502D5C13502E58D8A0A2D72404D8A4A0
:101FD80002D0415009D0020E2418D8A40BD041C019
:101FE8002DF0D8902D322D50255C256E2650D8A086
:101FF8002604266E010E22242D6E000E23202E6E3E
:102008002DC0F6FF2EC0F7FF0800F5CF2FF020C037
:10201800F6FF21C0F7FFF86A050EF76403D0080041
:10202800F55005D0F6CFE1FFF7CFE2FFE750306E6D
:102038002F50305C3F6E3F501A6E1B6A1ABE1B064B
:10204800000E1D6E030E1C6EA6EC2CF0030E22244F
:102058002D6E000E23202E6E2DC0F6FF2EC0F7FF2A
:102068000900F5CF2FF00900F5CF30F01A502F26D0
:102078001B503022010E2F26000E30222FC0F6FFF3
:1020880030C0F7FF0900F5CF33F00A00F5CF34F080
:102098003F501A6E1B6A1ABE1B06000E1D6E030EF9
:1020A8001C6EA6EC2CF0030E22242D6E000E2320AD
:1020B8002E6E2DC0F6FF2EC0F7FF0900F5CF2FF0CA
:1020C8000900F5CF30F01A502F261B5030222FC0B0
:1020D800F6FF30C0F7FF0800F5CF41F02A0E806EFA
:1020E8008B988B968B868B8826C080FF8B968B86E9
:1020F80025C080FF8B968B86415025242D6E000EBF
:1021080026202E6E010E2D243B6E000E2E203C6ED6
:102118003CC080FF8B968B863BC080FF8B968B865E
:102128002B0E806E8B988B968B868B8828C080FFB1
:102138008B968B8627C080FF8B968B8622C0F6FFF6
:1021480023C0F7FF0800F55027242D6E000E282025
:102158002E6EFF0E2D24396EFF0E2E203A6E3AC0D9
:1021680080FF8B968B8639C080FF8B968B862C0ED2
:10217800806E8B988B968B868B88000E3D6E7DD0FB
:102188003DC01AF01B6A000E156E080E146E070E7D
:102198004124126E136A000E132209EC28F012C0B3
:1021A8001CF013C01DF0A6EC2CF033501A24356E29
:1021B80034501B20366E000E406E4CD0050E222483
:1021C8002D6E000E23202E6E2DC0F6FF2EC0F7FFB9
:1021D8000900F5CF2FF00900F5CF30F040C031F0FD
:1021E800D8903132D8903132D890313231502F26B0
:1021F800000E302235502F26365030222FC0F6FFE1
:1022080030C0F7FF0800F5CF37F040C02DF0070EBB
:102218002D16800E2E6E000E2F6E2D2A03D02F3411
:102228002F322E322D2EFBD72E503714386E3850C1
:10223800D8B407D02AC080FF8B968B8629C080FF30
:1022480006D02CC080FF8B968B862BC080FF8B9688
:102258008B86402A4150405CD8A0B0D7000E406E13
:102268002CC080FF8B968B862BC080FF8B968B862D
:10227800402A010E4064F4D73D2A22C0F6FF23C04D
:10228800F7FF0900F5503D5CD8A07AD741502524C6
:102298002D6E000E26202E6E020E2D24256E000EA9
:1022A8002E20266E204A212A20C0F6FF21C0F7FFE3
:1022B800F86A050EF76403D00800F55005D0F6CF8C
:1022C800E1FFF7CFE2FFE7500009D8B4120092D639
:1022D80020EE02F01850D9261950DA22010EDB50F0
:1022E80004E1320EDE5CD8A018D020EE02F01850BF
:1022F800D9261950DA22010EDB500FE1400EDE5CC0
:10230800D8B00BD018C012F019C013F0000E156E1B
:10231800000E146E89EC2BF096D120EE02F01850C6
:10232800D9261950DA22010EDB5004E1400EDE5C9A
:10233800D8A018D020EE02F01850D9261950DA2269
:10234800010EDB500FE14E0EDE5CD8B00BD018C08A
:1023580012F019C013F0000E156E010E146E89EC00
:102368002BF071D120EE02F01850D9261950DA223C
:10237800010EDB5004E14E0EDE5CD8A018D020EE32
:1023880002F01850D9261950DA22010EDB500FE15D
:102398005C0EDE5CD8B00BD018C012F019C013F078
:1023A800000E156E020E146E89EC2BF04CD120EE47
:1023B80002F01850D9261950DA22010EDB5004E138
:1023C8005C0EDE5CD8A018D020EE02F01850D9269A
:1023D8001950DA22010EDB500FE16A0EDE5CD8B02C
:1023E8000BD018C012F019C013F0000E156E030EB2
:1023F800146E89EC2BF027D120EE02F01850D92664
:102408001950DA22010EDB5004E16A0EDE5CD8A016
:1024180018D020EE02F01850D9261950DA22010EF1
:10242800DB500FE1780EDE5CD8B00BD018C012F08C
:1024380019C013F0000E156E040E146E89EC2BF003
:1024480002D120EE02F01850D9261950DA22010ED6
:10245800DB5004E1780EDE5CD8A018D020EE02F044
:102468001850D9261950DA22010EDB500FE1860EDA
:10247800DE5CD8B00BD018C012F019C013F0000EF3
:10248800156E050E146E89EC2BF0DDD020EE02F0EF
:102498001850D9261950DA22010EDB5004E1860EB5
:1024A800DE5CD8A018D020EE02F01850D9261950BA
:1024B800DA22010EDB500FE1960EDE5CD8B00BD0AD
:1024C80018C012F019C013F0000E156E060E146E27
:1024D80089EC2BF0B8D020EE02F01850D92619500C
:1024E800DA22010EDB5004E1960EDE5CD8A018D08B
:1024F80020EE02F01850D9261950DA22010EDB50CE
:102508000FE1A40EDE5CD8B00BD018C012F019C0D1
:1025180013F0000E156E070E146E89EC2BF093D095
:1025280020EE02F01850D9261950DA22010EDB509D
:1025380004E1A40EDE5CD8A018D020EE02F01850FA
:10254800D9261950DA22010EDB500FE1B20EDE5CFB
:10255800D8B00BD018C012F019C013F0000E156EC9
:10256800080E146E89EC2BF06ED020EE02F0185095
:10257800D9261950DA22010EDB5004E1B20EDE5CD6
:10258800D8A018D020EE02F01850D9261950DA2217
:10259800010EDB500FE1C00EDE5CD8B00BD018C0C6
:1025A80012F019C013F0000E156E090E146E89ECA6
:1025B8002BF049D020EE02F01850D9261950DA2213
:1025C800010EDB5004E1C00EDE5CD8A018D020EE6E
:1025D80002F01850D9261950DA22010EDB500FE10B
:1025E800CE0EDE5CD8B00BD018C012F019C013F0B4
:1025F800000E156E0A0E146E89EC2BF024D020EE16
:1026080002F01850D9261950DA22010EDB5004E1E5
:10261800CE0EDE5CD8A017D020EE02F01850D926D6
:102628001950DA22010EDB500EE1D70EDE5CD8B06D
:102638000AD018C012F019C013F0000E156E0B0E58
:10264800146E89EC2BF018C0D9FF19C0DAFF10EE10
:10265800A9F01850E1261950E222DECFE6FFDDCFBF
:10266800E5FF12001CC021F01BC022F01250165CBE
:1026780013501758D8B00CD012C01FF013C020F058
:1026880016C012F017C013F01FC016F020C017F0C4
:102698001450185C15501958D8B00CD014C01FF03D
:1026A80015C020F018C014F019C015F01FC018F09C
:1026B80020C019F01A04D8A455D02A0E806E8B9821
:1026C8008B968B868B8813C080FF8B968B8612C067
:1026D80080FF8B968B8617C080FF8B968B8616C0E3
:1026E80080FF8B968B862B0E806E8B988B968B86B5
:1026F8008B8815C080FF8B968B8614C080FF8B96C5
:102708008B86010E806E8B968B863F0E806E8B9625
:102718008B862C0E806E8B988B968B868B8812C03E
:1027280023F013C024F017D014C01DF015C01EF0FC
:102738000AD021C080FF8B968B8622C080FF8B96A3
:102748008B861D4A1E2A1D50185C1E501958D8B079
:10275800F0D7234A242A2350165C24501758D8A0AF
:102768001200E2D72A0E806E8B988B968B868B8808
:1027780013C080FF8B968B8612C080FF8B968B864A
:1027880017C080FF8B968B8616C080FF8B968B8632
:102798002B0E806E8B988B968B868B8815C080FF4E
:1027A8008B968B8614C080FF8B968B86010E806E6D
:1027B8008B968B863F0E806E8B968B862C0E806E4A
:1027C8008B988B968B868B8812C023F013C024F0CD
:1027D8000AD021C080FF8B968B8622C080FF8B9603
:1027E8008B86234A242A2350165C24501758D8B0C5
:1027F800F0D72B0E806E8B988B968B868B8819C0A2
:1028080080FF8B968B8618C080FF8B968B862C0E4C
:10281800806E8B988B968B868B8812C023F013C0A2
:1028280024F00AD021C080FF8B968B8622C080FFBF
:102838008B968B86234A242A2350165C24501758DB
:10284800D8B0F0D72A0E806E8B988B968B868B88A3
:1028580013C080FF8B968B8612C080FF8B968B8669
:1028680013C080FF8B968B8612C080FF8B968B8659
:102878002B0E806E8B988B968B868B8815C080FF6D
:102888008B968B8614C080FF8B968B86010E806E8C
:102898008B968B863F0E806E8B968B862C0E806E69
:1028A8008B988B968B868B8814C023F015C024F0E8
:1028B8000AD021C080FF8B968B8622C080FF8B9622
:1028C8008B86234A242A2350185C24501958D8B0E0
:1028D800F0D72A0E806E8B988B968B868B8817C0C4
:1028E80080FF8B968B8616C080FF8B968B8617C0D1
:1028F80080FF8B968B8616C080FF8B968B862C0E5E
:10290800806E8B988B968B868B8814C023F015C0AD
:1029180024F00AD021C080FF8B968B8622C080FFCE
:102928008B968B86234A242A2350185C24501958E6
:10293800D8A01200EFD781EC27F0110E806E8B988B
:102948008B968B868B88000E186ED00E176ECA0E6B
:10295800E82EFED7172EFCD7182A090E1864F5D7CB
:10296800360E806E8B988B968B868B88000E806EC9
:102978008B968B863A0E806E8B988B968B868B887F
:10298800550E806E8B968B86B20E806E8B988B96CA
:102998008B868B880C0E806E8B968B860C0E806EC9
:1029A8008B968B86330E806E8B968B86330E806E5D
:1029B8008B968B86B70E806E8B988B968B868B88C2
:1029C800350E806E8B968B86BB0E806E8B988B96A1
:1029D8008B868B882B0E806E8B968B86C00E806EB6
:1029E8008B988B968B868B882C0E806E8B968B861D
:1029F800C20E806E8B988B968B868B88010E806EAC
:102A08008B968B8680688B968B86C30E806E8B9890
:102A18008B968B868B88110E806E8B968B86C40E58
:102A2800806E8B988B968B868B88200E806E8B960B
:102A38008B86C60E806E8B988B968B868B88090E3C
:102A4800806E8B968B86D00E806E8B988B968B863D
:102A58008B88A40E806E8B968B86A10E806E8B96CB
:102A68008B86E00E806E8B988B968B868B88D00E2B
:102A7800806E8B968B86000E806E8B968B86050EED
:102A8800806E8B968B860E0E806E8B968B86150EBF
:102A9800806E8B968B860D0E806E8B968B86370E8E
:102AA800806E8B968B86430E806E8B968B86470E38
:102AB800806E8B968B86090E806E8B968B86150E94
:102AC800806E8B968B86120E806E8B968B86160E7A
:102AD800806E8B968B86190E806E8B968B86E10E98
:102AE800806E8B988B968B868B88D00E806E8B969B
:102AF8008B86000E806E8B968B86050E806E8B966D
:102B08008B860D0E806E8B968B860C0E806E8B9648
:102B18008B86060E806E8B968B862D0E806E8B961E
:102B28008B86440E806E8B968B86400E806E8B96BD
:102B38008B860E0E806E8B968B861C0E806E8B9607
:102B48008B86180E806E8B968B86160E806E8B96F3
:102B58008B86190E806E8B968B862A0E806E8B98CC
:102B68008B968B868B88000E806E8B968B86000EDC
:102B7800806E8B968B86000E806E8B968B86EF0E02
:102B8800806E8B968B862B0E806E8B988B968B86A1
:102B98008B88000E806E8B968B86000E806E8B96CF
:102BA8008B86010E806E8B968B863F0E806E8B9681
:102BB8008B86260E806E8B988B968B868B88010E63
:102BC800806E8B968B86290E806E8B988B968B8663
:102BD8008B8812002350800B306E23502324376ECD
:102BE80022BE37803750D8B40DD03728D8A408D0A3
:102BF800000E206E000E216E000E226E000E236E57
:102C0800228E06D0000E206E000E216E000E226E5F
:102C1800000E236E2750800B301A27502724386E59
:102C280026BE38803850D8B40DD03828D8A408D05B
:102C3800000E246E000E256E000E266E000E276E06
:102C4800268E06D0000E246E000E256E000E266E0F
:102C5800000E276E2450251026102710D8A417D050
:102C6800000E206E000E216E000E226E000E236EE6
:102C7800800E22127F0E23123050231220C020F023
:102C880021C021F022C022F023C023F012003750C7
:102C9800D8A409D0000E206E000E216E000E226E00
:102CA800000E236E1200385037C028F0296A285EBB
:102CB800000E295A7F0E2824316E000E2920326E0C
:102CC80020C02CF021C02DF022C02EF023C02FF000
:102CD800000E206E000E216E000E226E000E236E76
:102CE800000E336E000E346E000E356E000E366E1A
:102CF800000E386E28D03850D8B411D0D8902C3661
:102D08002D362E362F36D8902036213622362336C9
:102D180036BE2080D8903336343635363636245091
:102D28002C5C25502D5826502E5827502F58D8A0A7
:102D380009D0368C24502C5E25502D5A26502E5AF8
:102D480027502F5A382A190E3864D5D72C502D10F1
:102D58002E102F10D8B411D033800FD0D890203631
:102D680021362236233636BE2080D8903336343684
:102D7800353636363106D8A0320622AEEFD7000EE9
:102D8800386E36AE17D0FF0E3314286EFF0E34148B
:102D9800296EFF0E35142A6E7F0E36142B6E2850BE
:102DA80029102A102B10D8B403D0010E386E02D087
:102DB80020B0FBD73850D8B41FD0010E2026000E03
:102DC80021222222232223A017D020C028F021C0AC
:102DD80029F022C02AF023C02BF02B342B322A32C0
:102DE8002932283228C020F029C021F02AC022F038
:102DF8002BC023F0314A322A32BE10D0325003E1C0
:102E08003128D8A00BD0000E326E3168000E206E2B
:102E1800000E216E000E226E000E236E32BE05D00B
:102E2800325011E13104D8B00ED0000E326E000ECF
:102E3800316E000E206E000E216E000E226E000E06
:102E4800236E000E306E31C037F037A002D0228ECC
:102E580001D0229ED8903730236E0ED72DC0B2F005
:102E68002EC0B3F02FC0B4F030C0B5F031C0B6F00A
:102E780032C0B7F033C0B8F034C0B9F0B9AF02D03F
:102E8800010E01D0000EB06FB16BB051B111D8B4C2
:102E980010D0B91FB81FB71FB61FB51FB41FB31F77
:102EA800B26D000EB323B423B523B623B723B823DA
:102EB800B92349AE4A9249BE05D0495008E14804B1
:102EC800D8B005D0000EAD6F010EAC6F04D048C06D
:102ED800ACF049C0ADF046C0AEF047C0AFF0B0515D
:102EE800B111D8A402D04AA403D0AE07D8A0AF0726
:102EF800000EBB6F1F0EBA6F000EA96F7AD0BA070B
:102F0800D8A0BB07BA518A0FD96EDA6AB2C012F0DC
:102F1800B3C013F0B4C014F0B5C015F0B6C016F0C5
:102F2800B7C017F0B8C018F0B9C019F00A0E1A6E79
:102F3800000E1B6E000E1C6E000E1D6E000E1E6E27
:102F4800000E1F6E000E206E000E216E06EC1EF0A5
:102F580012C035F013C036F014C037F015C038F081
:102F680016C039F017C03AF018C03BF019C03CF051
:102F780035C024F037C025F024EC2CF02450300F55
:102F8800DF6EAC07D8A0AD07AE07D8A0AF07B2C0B8
:102F980012F0B3C013F0B4C014F0B5C015F0B6C049
:102FA80016F0B7C017F0B8C018F0B9C019F00A0E7B
:102FB8001A6E000E1B6E000E1C6E000E1D6E000EAB
:102FC8001E6E000E1F6E000E206E000E216E8AEC23
:102FD8001BF012C0B2F013C0B3F014C0B4F015C0A7
:102FE800B5F016C0B6F017C0B7F018C0B8F019C0E1
:102FF800B9F0BBBF1FD0BB5103E1BA05D8A01AD0A6
:10300800B251B311B411B511B611B711B811B91144
:10301800D8A475D7ADBF05D0AD5102E1AC05D8B085
:103028006ED7AFBF07D0AF5103E1AE05D8A002D02D
:103038004AB265D7B051B111D8A402D04AA415D06C
:10304800BA07D8A0BB07B051B111D8A404D0000E5C
:10305800AB6F2B0E03D0000EAB6F2D0EAA6FBA51BB
:103068008A0FD96EDA6AAAC0DFFF2CC01FF0BA51E6
:103078008A0F206EAEC021F0AFC022F08CEC28F091
:103088001FC02CF020C02DF0120025C0D9FF26C08B
:10309800DAFFDECF33F0DDCF34F020EE04F0255038
:1030A800D9262650DA22DECF27F0DDCF28F025C03A
:1030B800D9FF26C0DAFFDECF29F0DDCF2AF027506E
:1030C80029242F6E28502A20306E20EE02F0255039
:1030D800D9262650DA22DECF31F0DDCF32F020EECD
:1030E80006F02550D9262650DA22DECF27F0DDCF8C
:1030F80028F020EE02F02550D9262650DA22DECF1D
:1031080029F0DDCF2AF027502924356E28502A20AF
:10311800366E20EE10F02550D9262650DA22DF50E0
:10312800D8A40DD020EE08F02550D9262650DA2252
:10313800DECF2BF0DDCF2CF020EE0AF012D033C01A
:1031480012F034C013F0010E3524146E000E362030
:10315800156ECEEC1CF012C02BF013C02CF020EE34
:1031680008F02550D9262650DA22DECF2DF0DDCF03
:103178002EF020EE08F02550D9262650DA2210EE3F
:103188000AF02550E1262650E222DE50E61804E136
:10319800DE50E618D8B41200030E3324126E000E67
:1031A8003420136E010E3524146E000E3620156E71
:1031B800030E2F24166E000E3020176E030E3524D2
:1031C800186E000E3620196E010E1A6E2BC01BF0F9
:1031D8002CC01CF036EC13F0010E2F24126E000EDA
:1031E8003020136E030E3124146E000E3220156E3B
:1031F800030E2F24166E000E3020176E030E352492
:10320800186E000E3620196E010E1A6E2BC01BF0B8
:103218002CC01CF036EC13F0010E3324126E000E95
:103228003420136E010E3124146E000E3220156EF8
:10323800FF0E2F24166EFF0E3020176E020E31245B
:10324800186E000E3220196E010E1A6E2DC01BF07A
:103258002EC01CF036EC13F0010E3324126E000E53
:103268003420136E010E3124146E000E3220156EB8
:10327800020E3324166E000E3420176EFF0E35240E
:10328800186EFF0E3620196E010E1A6E2DC01BF037
:103298002EC01CF036EC13F01200D5D0F19A750E42
:1032A800216E300E206E030E226E000E236EFFEC90
:1032B80029F0B9EC2CF01200000EB36F000EB26FBB
:1032C800B251030DF350620FD96EDA6A030EDE189D
:1032D800D8A405D0000E136EB251A5EC2BF0000156
:1032E800B24BB32BB3BFECD7B35104E1080EB25DB8
:1032F800D8A0E6D7F096000E6BEC2BF0C2B2FED742
:10330800C4500001AB6FAA6BC350AA25B46F000E5E
:10331800AB21B56FB55108E1790EB45DD8B004D0D2
:10332800000EB56F780EB46F660E246E660E256EAD
:10333800160E266E400E276E880EAA6FFF0EAB6F14
:10334800B4C0ACF0B5C0ADF0AA51AC27AB51AD23B9
:10335800ACC012F0ADC013F0146A156A000E2EEC62
:103368001CF012C020F013C021F014C022F015C0C8
:1033780023F0EEEC15F020C039F021C03AF022C05D
:103388003BF023C03CF098EC23F039C0B4F03AC0CD
:10339800B5F00001B451F008B46FB551D8A0E82ACF
:1033A8000008B56F010E6BEC2BF0C2B2FED7C4500B
:1033B8000001AB6FAA6BC350AA25B06F000EAB21FA
:1033C800B16FB15108E16A0EB05DD8B004D0000EFB
:1033D800B16F690EB06F970EAA6FFF0EAB6FB0C0DA
:1033E800ACF0B1C0ADF0AA51AC27AB51AD23D89029
:1033F800AD31AE6FAC31B06FAEC0B1F0000E216E22
:10340800040E206E040E226E000E236EFFEC29F0CF
:10341800280EC26EB9EC2CF081B2120043C012F033
:1034280044C013F0B4C014F0B5C015F009EC2DF089
:1034380043C012F044C013F0B0C014F0B1C015F08E
:10344800FEEC2CF012004D500001AA6FAB6BAB5193
:10345800000AD8A41200AA51000AD8B41FD7010A3A
:10346800D8A4120029D720EE04F02550D9262650DA
:10347800DA22DECF27F0DDCF28F0F80E2724126EEF
:10348800FF0E2820136E20EE06F02550D926265070
:10349800DA22DECF29F0DDCF2AF0F80E2924146EC7
:1034A800FF0E2A20156E20EE04F02550D92626504E
:1034B800DA22DECF2BF0DDCF2CF0080E2B24166E8F
:1034C800000E2C20176E20EE06F02550D926265027
:1034D800DA22DECF2DF0DDCF2EF0080E2D24186E67
:1034E800000E2E20196E010E1A6E000E1C6E000EB4
:1034F8001B6E36EC13F025C0D9FF26C0DAFF10EE9C
:1035080004F02550E1262650E222DECFE6FFDDCF8B
:10351800E5FF20EE02F02550D9262650DA2210EEDB
:1035280006F02550E1262650E222DECFE6FFDDCF69
:10353800E5FF25C0D9FF26C0DAFFDECF27F0DDCFB3
:1035480028F0F80E2724126EFF0E2820136E20EEA6
:1035580002F02550D9262650DA22DECF29F0DDCF19
:103568002AF0F80E2924146EFF0E2A20156E25C0A5
:10357800D9FF26C0DAFFDECF2BF0DDCF2CF0080E06
:103588002B24166E000E2C20176E20EE02F025500C
:10359800D9262650DA22DECF2DF0DDCF2EF0080E08
:1035A8002D24186E000E2E20196E010E1A6EF80EBC
:1035B8001C6E000E1B6E36EC13F012003E50D96ED6
:1035C800DA6ADECFF6FFDDCFF7FF0800F550250AEF
:1035D800D8A486D03E50D96EDA6ADE2A000EDD22E3
:1035E800000E476E000E466E46C04AF047C04BF0CC
:1035F800486849683E50D96EDA6ADECFF6FFDDCFFB
:10360800F7FF0800F550640AD8B40CD03E50D96EC4
:10361800DA6ADECFF6FFDDCFF7FF0800F550690A5A
:10362800D8A434D03E50D96EDA6ADE2A000EDD22E4
:103638003F50D96EDA6ADF50DF2ADF2AD96EDA6A9C
:10364800DECFBCF0DDCFBDF0000EBDBFFF0EBE6FFC
:10365800BF6FC06FC16FC26FC36F3DC02CF0BCC0DD
:103668002DF0BDC02EF0BEC02FF0BFC030F0C0C0DE
:1036780031F0C1C032F0C2C033F0C3C034F032EC14
:1036880017F02CC03DF02DC03EF012003E50D96E10
:10369800DA6ADECFF6FFDDCFF7FF0800F550250A1E
:1036A800D8A413D03E50D96EDA6ADE2A000EDD2285
:1036B800000E136E250E126E3DC014F039EC27F083
:1036C800000E3E6E010E3D6E12003E50D96EDA6A53
:1036D800DE2A000EDD22000E3E6E000E3D6E120048
:1036E8003E50D96EDA6ADECFF6FFDDCFF7FF08006D
:1036F800F550126E136A3DC014F039EC27F03E50B5
:10370800D96EDA6ADE2A000EDD22DAD7000E236EC1
:1037180021AE12D0211E201E1F1E1E1E1D1E1C1E85
:103728001B1E1A6C000E1B221C221D221E221F2289
:1037380020222122010E236E19AE12D0191E181E46
:10374800171E161E151E141E131E126C000E1322B1
:10375800142215221622172218221922010E231AC2
:1037680020EE24F0070EDE6AE806FDE21A501B1070
:103778001C101D101E101F1020102110D8B446D088
:10378800010E226E0AD0D8901A361B361C361D360A
:103798001E361F3620362136222A21AEF4D7D8907D
:1037A8002436253626362736283629362A362B3625
:1037B8001A50125C1B5013581C5014581D501558A1
:1037C8001E5016581F501758205018582150195875
:1037D800D8A011D01A50125E1B50135A1C50145AFC
:1037E8001D50155A1E50165A1F50175A2050185A55
:1037F8002150195A2480D890213220321F321E328B
:103808001D321C321B321A32222EC9D72350D8B48B
:1038180010D02B1E2A1E291E281E271E261E251ED6
:10382800246C000E252226222722282229222A2239
:103838002B2224C012F025C013F026C014F027C094
:1038480015F028C016F029C017F02AC018F02BC0B0
:1038580019F012001A6E1A50D8A415AE1AD012C058
:1038680016F013C017F014C018F015C019F0161E82
:10387800171E181E191E162A000E172218221922A2
:1038880016C01CF017C01DF018C01EF019C01FF09C
:1038980008D012C01CF013C01DF014C01EF015C0D3
:1038A8001FF01250131014101510D8A409D0000ED0
:1038B800126E000E136E000E146E000E156E1200BE
:1038C800960E1B6E06D01B2AD8901F321E321D3250
:1038D8001C32000E1C14166E000E1D14176E000EFE
:1038E8001E14186EFE0E1F14196E1650171018109D
:1038F8001910D8B40DD0E7D71B2A010E1C26000ECC
:103908001D221E221F22D8901F321E321D321C3249
:10391800000E1C14166E000E1D14176E000E1E14D9
:10392800186EFF0E1F14196E165017101810191064
:10393800D8B407D0E1D71B06D8901C361D361E36E2
:103948001F361EBE03D0020E1B60F5D71BA01E9E9D
:10395800D8901B321BC016F0176A186A196A16C06D
:1039680019F0186A176A166A16501C1217501D1299
:1039780018501E1219501F121A50D8A415AE01D093
:103988001F8E1CC012F01DC013F01EC014F01FC003
:1039980015F012002A0E806E8B988B968B868B887A
:1039A80013C080FF8B968B8612C080FF8B968B8608
:1039B800000E806E8B968B86EF0E806E8B968B86B4
:1039C8002B0E806E8B988B968B868B8815C080FF0C
:1039D8008B968B8614C080FF8B968B86010E806E2B
:1039E8008B968B863F0E806E8B968B862E0E806E06
:1039F8008B988B968B868B8892688B9400F08B843F
:103A080092688B9400F080CF1AF01B6A8B841AC0DE
:103A180016F01BC017F0D89017321632D89017320C
:103A28001632D8901732163216C01AF017C01BF08B
:103A38001AC016F01BC017F00B0ED89016361736A2
:103A4800E82EFBD716C018F017C019F08B9400F0B9
:103A580080CF1AF01B6A8B841AC016F01BC017F0AF
:103A6800D89017321632D8901732163216C01AF07C
:103A780017C01BF01AC016F01BC017F0050ED8901F
:103A880016361736E82EFBD716501812175019128B
:103A98008B9400F080501A128B841AC016F01BC049
:103AA80017F0D89017321632D89017321632D890AD
:103AB8001732163216C01AF017C01BF01A50181217
:103AC8001B501912000E926E18C012F019C013F094
:103AD800120020EE04F02550D9262650DA22DECF37
:103AE80012F0DDCF13F020EE06F02550D92626502F
:103AF800DA22DECF14F0DDCF15F020EE04F02550E9
:103B0800D9262650DA22DECF27F0DDCF28F0320E74
:103B18002724166E000E2820176E20EE06F025507A
:103B2800D9262650DA22DECF29F0DDCF2AF00A0E78
:103B38002924186E000E2A20196E010E1A6E000E26
:103B48001C6E000E1B6E36EC13F025C0D9FF26C084
:103B5800DAFF10EE04F02550E1262650E222DECFEF
:103B6800E6FFDDCFE5FF20EE02F02550D9262650EE
:103B7800DA2210EE06F02550E1262650E222DECFAA
:103B8800E6FFDDCFE5FF25C0D9FF26C0DAFFDECF8F
:103B980012F0DDCF13F020EE02F02550D926265082
:103BA800DA22DECF14F0DDCF15F025C0D9FF26C00C
:103BB800DAFFDECF27F0DDCF28F0320E2724166E8D
:103BC800000E2820176E20EE02F02550D926265028
:103BD800DA22DECF29F0DDCF2AF00A0E2924186E6A
:103BE800000E2A20196E010E1A6E20EE08F02550DC
:103BF800D9262650DA22DECF1BF0DDCF1CF036ECBA
:103C080013F01200000E236E19AE12D0191E181EE2
:103C1800171E161E151E141E131E126C000E1322DC
:103C2800142215221622172218221922010E236E99
:103C380021AE10D0211E201E1F1E1E1E1D1E1C1E62
:103C48001B1E1A6C000E1B221C221D221E221F2264
:103C5800202221221A501B101C101D101E101F108C
:103C680020102110D8B43CD0010E226E0AD0D89072
:103C78001A361B361C361D361E361F3620362136A0
:103C8800222A21AEF4D71A50125C1B5013581C502C
:103C980014581D5015581E5016581F5017582050AC
:103CA800185821501958D8A010D01A50125E1B501D
:103CB800135A1C50145A1D50155A1E50165A1F508C
:103CC800175A2050185A2150195AD89021322032A8
:103CD8001F321E321D321C321B321A32222ED3D70B
:103CE8002350D8B410D0191E181E171E161E151EE4
:103CF800141E131E126C000E1322142215221622F3
:103D080017221822192212C012F013C013F014C07F
:103D180014F015C015F016C016F017C017F018C02B
:103D280018F019C019F01200000E136E000E126E72
:103D3800AAEC24F09C0E206E7F0E216E7B0E226E64
:103D48007F0E236E020E246E000E266E780E256EF0
:103D5800000E286E320E276EFF0E2A6E2968000E9E
:103D68002C6E000E2B6E87EC0FF0500E0001E42530
:103D7800426E000EE521436E26EC07F0E4C0D9FF41
:103D8800E5C0DAFF000110EEA9F0E451E126E551A3
:103D9800E222DECFE6FFDDCFE5FF980EE425376EA1
:103DA800000EE521386E29EC1FF0A70E206E7F0E5D
:103DB800216E7B0E226E7F0E236E000E246E000E87
:103DC800266E320E256E000E286E5F0E276EFF0ED1
:103DD8002A6E2968000E2C6E000E2B6E87EC0FF0F1
:103DE800000120EE06F0E451D926E551DA2210EE62
:103DF800C2F0E451E126E551E222DECFE6FFDDCF55
:103E0800E5FFB10EE425376E000EE521386E29EC8A
:103E18001FF0F30E206E7F0E216E7B0E226E7F0E3A
:103E2800236E000E246E000E266E320E256E000ED6
:103E3800286E910E276EFF0E2A6E2968000E2C6ED2
:103E4800000E2B6E87EC0FF0120037C0D9FF38C078
:103E5800DAFFDECF3DF0DDCF3EF020EE04F0375044
:103E6800D9263850DA22DECF39F0DDCF3AF037C024
:103E7800D9FF38C0DAFFDECF3BF0DDCF3CF0395058
:103E88003B243F6E3A503C20406E20EE02F0375003
:103E9800D9263850DA22DECF41F0DDCF42F020EECD
:103EA80006F03750D9263850DA22DECF39F0DDCF88
:103EB8003AF020EE02F03750D9263850DA22DECF19
:103EC8003BF0DDCF3CF039503B24436E3A503C2068
:103ED800446E3DC012F03EC013F041C014F042C021
:103EE80015F03FC016F040C017F043C018F044C0AA
:103EF80019F0010E1A6E20EE0AF03750D926385004
:103F0800DA22DECF1BF0DDCF1CF036EC13F03DC01B
:103F180012F03EC013F041C014F042C015F03FC08B
:103F280016F040C017F043C018F044C019F0000E56
:103F38001A6E20EE0CF03750D9263850DA22DECF30
:103F48001BF0DDCF1CF036EC13F037C027F038C07B
:103F580028F08FEC0BF01200406E66D03CC037F0B2
:103F68003DC038F0000E396E81EC09F0070E40189C
:103F7800D8A402D0010E4C6E050E4018D8A4120029
:103F8800020E4C6E20EE06F03C50D9263D50DA2247
:103F9800DECF1AF0DDCF1BF0FF0E1D6EF60E1C6E85
:103FA800A6EC2CF0280E1A24206E000E1B20216E81
:103FB8000A0E226E000E236EFFEC29F012003CC0A0
:103FC80037F03DC038F0000E396E81EC09F0080E6C
:103FD8004018D8A41200000E4C6E12003CC037F0F6
:103FE8003DC038F040C039F081EC09F0080E4018A7
:103FF800D8B4F1D7090E4018D8A41200040E4C6E9C
:10400800750E216E300E206E030E226E000E236E8A
:10401800FFEC29F012003CC037F03DC038F040C03A
:1040280039F081EC09F012004C503E6E3F6A3F5067
:10403800000AD8A412003E50000AD8B48FD7010A4B
:10404800D8B4BDD7030AD8B4C9D7010AD8B4120066
:10405800070AD8A41200DFD728C0D9FF29C0DAFF81
:1040680012C0DEFF13C0DDFF20EE02F02850D92673
:104078002950DA2214C0DEFF15C0DDFF20EE06F05D
:104088002850D9262950DA2218C0DEFF19C0DDFFD2
:1040980020EE04F02850D9262950DA2216C0DEFF77
:1040A80017C0DDFF20EE08F02850D9262950DA2263
:1040B8001AC0DEFF1BC0DDFF20EE0AF02850D9260B
:1040C8002950DA221CC0DEFF1DC0DDFF20EE0CF0F7
:1040D8002850D9262950DA221EC0DEFF1FC0DDFF76
:1040E80020EE0EF02850D9262950DA2220C0DEFF13
:1040F80021C0DDFF20EE11F02850D9262950DA2200
:1041080022C0DEFF23C0DDFF20EE13F02850D926A1
:104118002950DA2224C0DEFF25C0DDFF20EE15F08D
:104128002850D9262950DA2226C0DEFF27C0DDFF15
:1041380020EE17F02850D9262950DA222AC0DFFFAE
:1041480020EE10F02850D9262950DA22000EDF6E12
:10415800120026C0D9FF27C0DAFF12C0DEFF13C045
:10416800DDFF20EE02F02650D9262750DA2214C0AF
:10417800DEFF15C0DDFF20EE06F02650D9262750B9
:10418800DA2218C0DEFF19C0DDFF20EE04F0265049
:10419800D9262750DA2216C0DEFF17C0DDFF20EE31
:1041A80008F02650D9262750DA221AC0DEFF1BC095
:1041B800DDFF20EE0AF02650D9262750DA221CC04F
:1041C800DEFF1DC0DDFF20EE0CF02650D92627505B
:1041D800DA221EC0DEFF1FC0DDFF20EE0EF02650E3
:1041E800D9262750DA2220C0DEFF21C0DDFF20EECD
:1041F80017F02650D9262750DA2224C0DEFF25C022
:10420800DDFF20EE15F02650D9262750DA2222C0ED
:10421800DEFF23C0DDFF20EE11F02650D9262750FF
:10422800DA22000EDE6E000EDD6E20EE13F0265050
:10423800D9262750DA22000EDE6E000EDD6E12003F
:1042480060D0E6C044F0E7C045F0C7EC27F01200A4
:10425800E6C0E4F0E7C0E5F098EC1EF012000B0EA3
:10426800E819D8A408D0D60EE625256E000EE72159
:10427800266E6DEC1DF00C0E0001E819D8A408D0CC
:10428800E00EE625256E000EE721266E6DEC1DF08A
:104298000D0E0001E819D8A408D0CA0EE625256E2F
:1042A800000EE721266E37EC1AF00E0E0001E81911
:1042B800D8A41200EA0EE625D56F000EE721D66FC6
:1042C8000FEC22F0000E136E000E126E000E156E2B
:1042D800A00E146E000E176EEF0E166E000E196EFD
:1042E800A00E186E010E1A6EFF0E1C6E1B6836ECBF
:1042F80013F01200E6C044F0E7C045F052EC24F099
:10430800120000018851E96FEA6BEA51000AD8A44B
:104318001200E951000AD8B494D7010AD8B498D742
:10432800030AD8B49CD7010AD8A41200E3D7FE0E1A
:104338001E6EFF0E1F6E20EECAF01C50D9261D50AF
:10434800DA22DECF20F0DDCF21F01E5020261F50CC
:10435800212220EEE0F01C50D9261D50DA22DECFB3
:1043680022F0DDCF23F0190E2226000E2322205042
:10437800225C21502358D8B016D0E00E1C24126EAF
:10438800000E1D20136E000E156E020E146E000E28
:10439800176E010E166EDAEC22F0000E186E0C0E77
:1043A800D6EC29F0120020EEE0F01C50D9261D5062
:1043B800DA22DECF1EF0DDCF1FF0190E1E26000E0A
:1043C8001F2220EECAF01C50D9261D50DA22DECF5B
:1043D80020F0DDCF21F0020E2026000E21221E50F3
:1043E800205C1F502158D8B01200E00E1C24126E19
:1043F800000E1D20136E000E156E020E146E000EB8
:10440800176E000E166EDAEC22F0000E186E0C0E07
:10441800D6EC29F01200040ED525C86F000ED6215F
:10442800C96FF90ECA6F7F0ECB6FD5C0D9FFD6C042
:10443800DAFFDECFCCF0DDCFCDF0E9EC2AF0040EC8
:10444800D525206E000ED621216E7B0E226E7F0EA2
:10445800236E000E246E000E266E140E256E000EBE
:10446800286EAA0E276EFF0E2A6E2968000E2C6E83
:10447800000E2B6E87EC0FF0040E0001D525C86FD7
:10448800000ED621C96FF90ECA6F7F0ECB6F20EED2
:1044980002F0D551D926D651DA22DECFCCF0DDCFC5
:1044A800CDF0E9EC2AF0040ED525206E000ED621B9
:1044B800216E7B0E226E7F0E236E000E246E000E80
:1044C800266E140E256E000E286E8A0E276EFF0EBD
:1044D8002A6E2968000E2C6E000E2B6E87EC0FF0EA
:1044E800120020EE02F01650D9261750DA22010EDB
:1044F800DB5004E1690EDE5CD8A018D020EE02F093
:104508001650D9261750DA22010EDB500FE1A00E03
:10451800DE5CD8B00BD016C012F017C013F0000E36
:10452800156E020E146E14EC2DF02FD020EE02F052
:104538001650D9261750DA22010EDB5004E1A00EDE
:10454800DE5CD8A018D020EE02F01650D9261750FD
:10455800DA22010EDB500FE1D70EDE5CD8B00BD0AB
:1045680016C012F017C013F0000E156E030E146E6D
:1045780014EC2DF00AD016C012F017C013F0000E7C
:10458800156E010E146E14EC2DF020EE06F0165088
:10459800D9261750DA2210EEC2F01650E12617502D
:1045A800E222DECFE6FFDDCFE5FF1200160417108A
:1045B800D8A42FD012C0D9FF13C0DAFFDECF18F06D
:1045C800DDCF19F0145018261550192212C0D9FF42
:1045D80013C0DAFF18C0DEFF19C0DDFF12C0D9FF13
:1045E80013C0DAFFDECF18F0DDCF19F0320E18262F
:1045F800000E1922195004E1F00E185CD8A0120020
:1046080012C0D9FF13C0DAFFBD0EDE6E000EDD6EDC
:104618001200010E1424186E000E1520196E12C017
:10462800D9FF13C0DAFF1850DE5C1950DE58D8B035
:1046380009D012C0D9FF13C0DAFF000EDE6E000EDB
:10464800DD6E120012C0D9FF13C0DAFFDECF18F0FA
:10465800DDCF19F01450185E1550195A12C0D9FF41
:1046680013C0DAFF18C0DEFF19C0DDFF12009B8CF3
:10467800700ED36E090E0001F06F1E0EEF6FE40E80
:10468800E82EFED7EF2FFCD7F02FFAD700F09FECDB
:1046980014F0000E136E1F0E126EAAEC24F0BD0E5D
:1046A800206E7F0E216E7B0E226E7F0E236E020E11
:1046B800246E000E266E320E256E000E286E320E07
:1046C800276E000E2A6E000E296EFF0E2C6E2B68C8
:1046D80087EC0FF0F28EF096F19A94908B80860E0C
:1046E800D56ED768820ED66EF28A9492BB686650F1
:1046F800F00B0C09666E6768CF0E66169E92BA803C
:10470800BA92BA84A60EC06ECCEC28F0000E2B6EBE
:10471800010E2C6E90EC0DF0000E0001ED6F010EF5
:10472800EE6F80EC2CF012003B343C34426E425069
:10473800D8A409D0000E396E000E3A6E000E3B6EFA
:10474800000E3C6E120039C03DF03AC03EF03BC04E
:104758003FF03CC040F0200E05D0D89040323F32A8
:104768003E323D32E82EF9D73D50416E3B8EFF0E6A
:104778003916FF0E3A16FF0E3B16000E3C16960E23
:10478800425E42AE0DD04250800A970FD8A0D2D7D1
:10479800D8903C323B323A323932423EF9D70DD0CA
:1047A8001F0E426407D0C6D7D89039363A363B3602
:1047B8003C3642064250D8A4F7D74150D8B408D066
:1047C8003C1E3B1E3A1E396C000E3A223B223C220C
:1047D80039C039F03AC03AF03BC03BF03CC03CF03D
:1047E8001200020E1224146E000E1320156E14C04F
:1047F800F6FF15C0F7FF0800F5CF16F0D89016326F
:10480800D8901632D89016321650186E196A010EC2
:104818001224146E000E1320156E14C0F6FF15C076
:10482800F7FF0800F5CF16F0D8901632D890163258
:1048380016501A6E1B6A12C0F6FF13C0F7FF080065
:10484800F5CF14F0D8901432D8901432D89014328E
:1048580014501C6E1D6A1AC014F01BC015F0050E0A
:10486800D89014361536E82EFBD718C016F019C0A4
:1048780017F00B0ED89016361736E82EFBD71450C3
:104888001612155017121C5016101E6E1D501710B8
:104898001F6E1EC012F01FC013F01200000E136E20
:1048A800000E126EAAEC24F0680E4424426E000E2C
:1048B8004520436E26EC07F0800E4424426E000E1D
:1048C8004520436E26EC07F020EEEAF04450D92646
:1048D8004550DA22DE50DE10D8A41CD08F0E206E90
:1048E8007F0E216E7B0E226E7F0E236E020E246ECB
:1048F800000E266E640E256E000E286E320E276E90
:10490800FF0E2A6E2968000E2C6E000E2B6E87ECA7
:104918000FF01200820E206E7F0E216E7B0E226E2B
:104928007F0E236E020E246E000E266E640E256E18
:10493800000E286E320E276EFF0E2A6E2968000EB2
:104948002C6E000E2B6E87EC0FF0120013C014F0C3
:1049580012C015F02A0E806E8B988B968B868B88EA
:10496800000E806E8B968B86000E806E8B968B86E3
:10497800000E806E8B968B86EF0E806E8B968B86E4
:104988002B0E806E8B988B968B868B88000E806E94
:104998008B968B86000E806E8B968B86010E806EB2
:1049A8008B968B863F0E806E8B968B862C0E806E38
:1049B8008B988B968B868B88000E176E000E166E62
:1049C800000E196E000E186E14C080FF8B968B8631
:1049D80015C080FF8B968B86184A192A195004E156
:1049E800F00E185CD8A0F0D7164A172A400E165CAD
:1049F800010E1758D8B01200E3D720EE02F01C5071
:104A0800D9261D50DA22DE50DE10D8B423D020EE8D
:104A180002F01C50D9261D50DA22010EDB501AE193
:104A28006E0EDE5CD8B016D01CC012F01DC013F09C
:104A38006BEC2CF0D60E1C24126E000E1D20136E8B
:104A4800000E156E010E146E000E176E000E166E17
:104A5800DAEC22F020EE02F01C50D9261D50DA22A2
:104A6800010EDB5004E1820EDE5CD8A016D01CC01B
:104A780012F01DC013F06BEC2CF0D60E1C24126E35
:104A8800000E1D20136E000E156E010E146E000E22
:104A9800176E010E166EDAEC22F0000E186E0B0E71
:104AA800D6EC29F0120012C0D9FF13C0DAFFDE508D
:104AB800145CDE501558D8B002D0000E120020EE5B
:104AC80004F01250D9261350DA22DECF18F0DDCFC9
:104AD80019F012C0D9FF13C0DAFFDECF1AF0DDCF0C
:104AE8001BF018501A2619501B2214501A5C155026
:104AF8001B58D8A0E2D720EE02F01250D926135046
:104B0800DA22DE50165CDE501758D8A0D6D720EE31
:104B180006F01250D9261350DA22DECF18F0DDCF76
:104B280019F020EE02F01250D9261350DA22DECF07
:104B38001AF0DDCF1BF018501A2619501B221650F8
:104B48001A5C17501B58D8A0B8D7010E120012C013
:104B5800D9FF13C0DAFFDE50145CDE501558D8B008
:104B680002D0000E120020EE04F01250D926135085
:104B7800DA22DECF18F0DDCF19F012C0D9FF13C04A
:104B8800DAFFDECF1AF0DDCF1BF018501A261950C5
:104B98001B2214501A5C15501B58D8A0E2D720EEDF
:104BA80002F01250D9261350DA22DE50165CDE507D
:104BB8001758D8A0D6D720EE06F01250D926135091
:104BC800DA22DECF18F0DDCF19F020EE02F0125015
:104BD800D9261350DA22DECF1AF0DDCF1BF0185099
:104BE8001A2619501B2216501A5C17501B58D8A0A9
:104BF800B8D7010E1200EF6F3BD0050EEF19D8B4ED
:104C080004D0060EEF19D8A410D0020E886FEBC09E
:104C1800E4F0ECC0E5F0A4EC26F0EBC0E6F0ECC064
:104C2800E7F0EFC0E8F024EC21F0070E0001EF19DF
:104C3800D8A41200010E886FEBC0E6F0ECC0E7F0D4
:104C4800EFC0E8F024EC21F01200080EEF19D8A408
:104C58001200000EF0D7090EEF19D8A402D0030EE7
:104C6800EAD7080EEF19D8B4F4D7E6D70F0EEED767
:104C780000018851ED6FEE6BEE51000AD8A41200C6
:104C8800ED51000AD8B4B9D7010AD8B4DED7030A5F
:104C9800D8B4E1D7010AD8A41200E8D720EE04F06E
:104CA8001250D9261350DA22000EDE6E000EDD6E89
:104CB80020EE06F01250D9261350DA22000EDE6ECE
:104CC800000EDD6E14501510D8B41DD012C0D9FFD7
:104CD80013C0DAFF5A0EDE6E000EDD6E20EE02F013
:104CE8001250D9261350DA22140EDE6E000EDD6E35
:104CF80020EE08F01250D9261350DA22FF0EDE6E8D
:104D0800FF0EDD6E120012C0D9FF13C0DAFF5A0E73
:104D1800DE6E000EDD6E20EE02F01250D926135022
:104D2800DA22180EDE6E010EDD6E20EE08F012504B
:104D3800D9261350DA22FF0EDE6EFF0EDD6E12004A
:104D4800000E136E000E126EAAEC24F0500E000135
:104D5800E425426E000EE521436E26EC07F0000EB6
:104D6800136E000E126E000E156EA00E146E000E5D
:104D7800176EEF0E166E000E196EA00E186E010E4D
:104D88001A6EFF0E1C6E1B6836EC13F0EA0E00015B
:104D9800E425D56F000EE521D66F0FEC22F0D60E74
:104DA8000001E425256E000EE521266E6DEC1DF050
:104DB800E00E0001E425256E000EE521266E6DEC5F
:104DC8001DF0CA0E0001E425256E000EE521266EB1
:104DD80037EC1AF01200000E0D6E000E0C6E0C501F
:104DE800030DF350620FD96EDA6ADF50D8B431D0B0
:104DF8000C50030DF350600FD96EDA6ADE06000E10
:104E0800DD5A0C50030DF350600FD96EDA6ADE508C
:104E1800DE10D8A41ED0010E076E0C50030DF350FF
:104E2800620FD96EDA6ADF5051EC2AF0E806D8A48E
:104E380006D0010E026E0C50BFEC2BF00AD00C50BD
:104E4800030DF350600FD96EDA6A010EDE6E000EA4
:104E5800DD6E0C4A0D2A0DBEC2D70D5005E1080EB5
:104E68000C5CD8B01200BBD712001450D8B403D0D1
:104E78001450D8A404D012503CEC2DF01200145059
:104E8800D96EDA6A040ED926DE50DE10D8B414D0F2
:104E98001450D96EDA6A040ED9261450E16EE26A0B
:104EA800020EE126DE50E65CE650800A196EDE50FE
:104EB800800A1958D8B012001450D96EDA6A020E56
:104EC800D926DECF15F0DDCF16F01450D96EDA6A88
:104ED800DECF17F0DDCF18F015501724D96E165015
:104EE8001820DA6E12C0DFFF1450D96EDA6A020E8B
:104EF800D926DE2A000EDD221200949A9494949604
:104F08009498000E926E8B9A8B848B868B88000EF9
:104F1800136E000E146E000E156E000E166ED00E77
:104F2800126ECA0EE82EFED7122EFCD7010E1326DB
:104F3800000E14221522162216501510141004E122
:104F48000C0E135CD8A0EBD7000E136E000E146E77
:104F5800000E156E000E166ED00E126ECA0EE82EDA
:104F6800FED7122EFCD7010E1326000E142215228E
:104F7800162216501510141005E10C0E135CD8B04B
:104F88001200EAD71200000E136E000E126EAAEC81
:104F980024F0EB0E206E7F0E216E7B0E226E7F0EAC
:104FA800236E020E246E000E266E780E256E000EFD
:104FB800286E320E276EFF0E2A6E2968000E2C6EA0
:104FC800000E2B6E87EC0FF0200E4424426E000E6C
:104FD8004520436E26EC07F0380E4424426E000E3E
:104FE8004520436E26EC07F0080E4424426E000E5E
:104FF8004520436E26EC07F0800E4424426E000ED6
:105008004520436E26EC07F01200000E176E15AE11
:1050180006D0146C151ED8B0152A010E176E13AEE3
:1050280006D0126C131ED8B0132A010E171A000EE0
:10503800196E000E186E14501510D8B41CD0010E3D
:10504800166E04D0D89014361536162A15AEFAD72F
:10505800D890183619361450125C15501358D8A029
:1050680005D01450125E1550135A1880D890153276
:105078001432162EEDD71750D8B404D0186C191E58
:10508800D8B0192A18C012F019C013F0120020EE77
:1050980008F01250D9261350DA22DECF14F0DDCFF3
:1050A80015F012C0D9FF13C0DAFFDECF16F0DDCF3E
:1050B80017F0145016261550172212C0D9FF13C026
:1050C800DAFF16C0DEFF17C0DDFF20EE0AF012502F
:1050D800D9261350DA22DECF14F0DDCF15F020EEFA
:1050E80002F01250D9261350DA22DECF16F0DDCFA7
:1050F80017F0145016261550172220EE02F0125001
:10510800D9261350DA2216C0DEFF17C0DDFF1200C1
:105118004AA006D020C01AF01FC01BF03DEC2CF0AE
:1051280022BE05D021C026F022C027F004D0000EF0
:10513800276E000E266E000E256E000E246E0AD015
:10514800000E136E200E126E1FC014F039EC27F0FB
:10515800244A252A2650245C2550800A236E27508D
:10516800800A2358D8A0ECD74AB006D020C01AF03D
:105178001FC01BF03DEC2CF020C012F0136A0AECA3
:105188002BF0265012241F6E27501320206E120079
:10519800000E136E000E126E1250780FD96EDA6A76
:1051A800000EDF6E124A132A13BEF6D7135004E11D
:1051B8000C0E125CD8A0F0D7000E136E000E126E03
:1051C8001250030DF350600FD96EDA6A000EDE6ECE
:1051D800000EDD6E1250030DF350620FD96EDA6ABD
:1051E800000EDF6E124A132A13BEEAD7135004E1E9
:1051F800080E125CD8A0E4D7000E0001846F000EE0
:10520800856F1200000E176E13AE06D0126C131EB7
:10521800D8B0132A010E176E15AE04D0146C151EE3
:10522800D8B0152A14501510D8B418D0010E166E1F
:1052380004D0D89014361536162A15AEFAD714505D
:10524800125C15501358D8A004D01450125E155093
:10525800135AD89015321432162EF1D71750D8B4E5
:1052680004D0126C131ED8B0132A12C012F013C047
:1052780013F01200000E066E02AE06D0016C021E7C
:10528800D8B0022A010E066E04AE04D0036C041EC8
:10529800D8B0042A03500410D8B418D0010E056EF3
:1052A80004D0D89003360436052A04AEFAD7035042
:1052B800015C04500258D8A004D00350015E045089
:1052C800025AD89004320332052EF1D70650D8B4CA
:1052D80004D0016C021ED8B0022A01C001F002C03D
:1052E80002F0120012C0D9FF13C0DAFF5A0EDE6EA8
:1052F800000EDD6E20EE02F01250D9261350DA228D
:10530800960EDE6E000EDD6E20EE04F01250D926E9
:105318001350DA22140EDE6E000EDD6E20EE06F05B
:105328001250D9261350DA22140EDE6E000EDD6EEE
:1053380020EE08F01250D9261350DA22000EDE6E45
:10534800000EDD6E1200456E1DD04504D8A4120073
:10535800010E4D6EB6C043F0B7C044F051EC19F0E1
:105368001200020E4518D8A408D0000E4D6EB6C023
:1053780043F0B7C044F051EC19F0040E4518D8A416
:105388001200E8D74D500001B86FB96BB951000A47
:10539800D8A41200B851000AD8B4D7D7010AD8A4A3
:1053A8001200DFD7196E185025EC2DF0010E000100
:1053B8008425126E136A000E1322000E156E0C0E51
:1053C800146E06EC29F012501A6E1A508519D8A4DA
:1053D80005D018501FEC2DF0000E12008451780FE4
:1053E800D96EDA6A19C0DFFF1AC084F018501FECB2
:1053F8002DF0010E1200235025EC2DF0000E246E26
:105408002450030DF350620FD96EDA6ADF50D8A426
:1054180013D02450030DF350600FD96EDA6A20C000
:10542800DEFF21C0DDFF2450030DF350620FD96E5B
:10543800DA6A22C0DFFF04D0242A070E2464E0D7EA
:1054480023501FEC2DF01200000E256E000E246E66
:1054580022502310D8B41CD0010E266E04D0D89048
:1054680022362336262A23AEFAD7D8902436253674
:105478002250205C23502158D8A005D02250205E0D
:105488002350215A2480D89023322232262EEDD759
:1054980024C020F025C021F01200086E075031EC1E
:1054A8002DF0010E00018425016E026A000E022211
:1054B800000E046E0C0E036E3EEC29F00150096ECE
:1054C80009508519D8A405D007502BEC2DF0000EF3
:1054D80012008451780FD96EDA6A08C0DFFF09C05C
:1054E80084F007502BEC2DF0010E1200196E1950A4
:1054F80025EC2DF0000185518419D8A405D0195048
:105508001FEC2DF0000E12008551780FD96EDA6A63
:10551800DF50186E010E8525126E136A000E1322D5
:10552800000E156E0C0E146E06EC29F01250856FE5
:1055380019501FEC2DF018501200000E7AEC2AF0CA
:105548000001F06FF051D8B41200F051F2EC2BF0DA
:10555800000E0001B66F010EB76FF051A7EC29F0ED
:10556800000E0001EB6F010EEC6FF051FFEC25F01F
:10557800000E3C6E010E3D6E0001F051B0EC1FF0C4
:105588001200C5C040F0C6C041F0000E876F000E83
:10559800866F0DD0C4C03DF0400E3E6EC7C03FF0D0
:1055A800E2EC1AF03D50000186273E50872340C0A8
:1055B800F6FF41C0F7FF0800F5500009D8A4EAD764
:1055C80086C0C4F087C0C5F01200CC0ECE6FC8C02C
:1055D800CFF0C9C0D0F0000ED26F000ED16F000E10
:1055E800D46F000ED36FCF0EC46FCAC0C5F0CBC046
:1055F800C6F0CE0EC76FC5EC2AF0D151C825D96EBA
:10560800D251C921DA6E000EDF6E120012C014F0FA
:1056180013C015F002D0124A132A12C0F6FF13C0A5
:10562800F7FFF86A050EF76403D00800F55005D0B7
:10563800F6CFE1FFF7CFE2FFE7500009D8A4EBD798
:105648001450125C126E15501358136E1200145039
:105658001510D8B418D0010E166E04D0D890143690
:105668001536162A15AEFAD71450125C1550135871
:10567800D8A004D01450125E1550135AD890153281
:105688001432162EF1D712C012F013C013F0120004
:10569800000E176E000E166E1650030DF350620FB3
:1056A800D96EDA6A030EDE18D8A405D0000E136E80
:1056B8001650A5EC2BF0164A172A17BEEDD717502F
:1056C80005E1080E165CD8B01200E6D71200126E7B
:1056D8001250D8A40BD00F01399393928A929396C3
:1056E8008A86938893843985230EC26E1204D8A4BF
:1056F80012000F01399593948A9493988A88938617
:10570800938239832B0EC26E120012C0D9FF13C0C8
:10571800DAFF14C0DEFF15C0DDFF12C0D9FF13C0C9
:10572800DAFF0B0EDE18DE10D8A402D0676812006C
:1057380012C0D9FF13C0DAFFDF50170DF3CF67FF90
:105748001200146E135025EC2DF01450030DF35075
:10575800600FD96EDA6A000EDE6E000EDD6E145030
:10576800030DF350620FD96EDA6A000EDF6E135024
:105778001FEC2DF01200036E025031EC2DF0035097
:10578800030DF350600FD96EDA6A000EDE6E000E5C
:10579800DD6E0350030DF350620FD96EDA6A000E06
:1057A800DF6E02502BEC2DF0120001EE00F0F00E2F
:1057B800EE6AE806FDE100EE60F04A0EEE6AE806E1
:1057C800FDE100EE46F0080EEE6AE806FDE14E90B7
:1057D8004E92000EF86E000137EF2DF0166E09D0CC
:1057E800030E1618D8A41200010E896F55EC2CF080
:1057F800120000018951146E156A1550000AD8A4C8
:1058080012001450000AD8B4EBD7010A120025C0C0
:105818001BF026C01CF038EC00F0CA0E2524126ECE
:10582800000E2620136E4BEC28F0000E186E0D0E9D
:10583800D6EC29F0000E186E0E0ED6EC29F01200E8
:1058480025BE05D0255010E12404D8B00DD024C0C1
:1058580026F025C027F0261E271E264A272A26C0FE
:1058680024F027C025F0120024C024F025C025F01C
:105878001200000E1E6E000E1D6E09D01CC012F024
:10588800136A1BC014F039EC27F01D4A1E2A1A505F
:105898001D24D96EDA6ADF501C6E1C50D8B4120071
:1058A800EDD705D0D9EC2CF00300FF001200000161
:1058B8008951126E136A1350000AD8A412001250AC
:1058C800000AD8B41200010AD8A41200EBD720EEBF
:1058D80002F01250D9261350DA22000EDE6E000EA6
:1058E800DD6E20EE04F01250D9261350DA22000E95
:1058F800DE6E000EDD6E1200000E896FEDC0EBF05B
:10590800EEC0ECF0F3EC2CF0EDC03CF0EEC03DF056
:10591800E8EC2CF0CAEC2CF055EC2CF0120012C07C
:10592800D9FF13C0DAFF000EDE6E000EDD6E20EE2A
:1059380002F01250D9261350DA22000EDE6E000E45
:10594800DD6E12001A501C02F3CF1EF0F4CF1FF0C8
:105958001A501D02F3501F261B501C02F3501F261D
:105968001EC01AF01FC01BF012000F0139933995A1
:1059780093948A949382F19E020E616E93968A861E
:1059880000F093869388F090F0861200000E4D6E1A
:10599800B9EC2CF0750E216E300E206E030E226EBF
:1059A800000E236EFFEC29F01200820E946E000E9A
:1059B800926E89688B90000E676E8B848B868B88BD
:1059C8008B8AB9EC2CF01200000E4C6E3CC037F0FC
:1059D8003DC038F0000E396E81EC09F01200000E5F
:1059E800886FEBC0E6F0ECC0E7F0000EE86F24EC3F
:1059F80021F0120020EE04F01250D9261350DA22BA
:105A080014C0DEFF15C0DDFF120020EE02F01250B8
:105A1800D9261350DA2214C0DEFF15C0DDFF1200AC
:105A280020EE06F01250D9261350DA2214C0DEFFF9
:105A380015C0DDFF1200126E1250D8A41200F28EAB
:105A48001200126E1250D8A41200F29E1200016EBB
:105A58000150D8A41200F28E1200016E0150D8A491
:105A68001200F29E12003BEC23F0A1EC2AF0FDD7C5
:025A780012001A
:107836000000000000000000000000000000000042
:1078460000C0C0C0C0C0C0C0C000C0C000000000B2
:10785600D8D8D8D8000000000000000000000012B0
:107866001224FEFE48FEFE489090000000107CFCAC
:10787600D6D0F07C1E16D67E7C100000000061007B
:107886009100920092009400658006400A400A40EA
