:020000040000FA
:0400000062EF00F0BB
:100008004E82D9CF0EF0DACF0FF0F3CF10F0F4CF45
:1000180011F0F0A012EF00F014EF00F039EF00F04B
:10002800F0A619EF00F01BEF00F039EF00F0F1BA7D
:1000380020EF00F022EF00F02BEF00F0F18AF090B3
:10004800010E076E010E44EC2FF039EF00F0F1AA13
:1000580030EF00F032EF00F039EF00F0F19AF09055
:10006800010E076E020E44EC2FF0F2A43EEF00F0F2
:1000780040EF00F058EF00F0F2AA45EF00F047EF2C
:1000880000F058EF00F02BEC22F0000E036E050E86
:10009800026E0A0E046E010E056EA6EC2EF0FB0E23
:1000A800D76E1D0ED66EF29411C0F4FF10C0F3FF88
:1000B8000FC0DAFF0EC0D9FF4E92110042EF31F0A7
:1000C800FF0E1D6EFF0E1E6E20EED7F01B50D926B8
:1000D8001C50DA22DECF1FF0DDCF20F01D501F2686
:1000E8001E50202220EECBF01B50D9261C50DA22BD
:1000F800DECF21F0DDCF22F0040E2126000E2222D1
:100108001F50215C20502258D8A08DEF00F08FEFAF
:1001180000F01BEF02F020EEC9F01B50D9261C504E
:10012800DA22DECF1DF0DDCF1EF0040E1D26000EF4
:100138001E2220EED5F01B50D9261C50DA221D5065
:10014800DE5C1E50DE58D8B0ACEF00F0AEEF00F029
:100158001BEF02F020EED5F01B50D9261C50DA22F6
:10016800DECF1DF0DDCF1EF0320E1D26000E1E2242
:10017800FC0E1F6EFF0E206E20EEC9F01B50D92614
:100188001C50DA22DECF21F0DDCF22F01F502126CD
:10019800205022221D50215C1E502258D8B0D7EF83
:1001A80000F0D9EF00F01BEF02F020EED5F01B5065
:1001B800D9261C50DA22DECF1DF0DDCF1EF020EE4E
:1001C800C9F01B50D9261C50DA22DECF1FF0DDCF34
:1001D80020F01D501F5E1E50205A205007E10A0EC5
:1001E8001F5CD8B0FAEF00F0FCEF00F020EF01F050
:1001F80020EED3F01B50D9261C50DA22DECF1DF09A
:10020800DDCF1EF01D1E1E1E1D4A1E2A20EED3F035
:100218001B50D9261C50DA221DC0DEFF1EC0DDFF90
:1002280020EED1F01B50D9261C50DA22FE0EDE6ECD
:10023800FF0EDD6E0DEF02F020EED5F01B50D92633
:100248001C50DA22DECF1DF0DDCF1EF020EEC9F003
:100258001B50D9261C50DA22DECF1FF0DDCF20F04C
:100268001D501F5E1E50205A205007E1140E1F5CBF
:10027800D8B041EF01F043EF01F067EF01F020EE55
:10028800D3F01B50D9261C50DA22DECF1DF0DDCF6B
:100298001EF01D1E1E1E1D4A1E2A20EED3F01B50E6
:1002A800D9261C50DA221DC0DEFF1EC0DDFF20EE5D
:1002B800D1F01B50D9261C50DA22FF0EDE6EFF0E3D
:1002C800DD6E0DEF02F020EED5F01B50D9261C5044
:1002D800DA22DECF1DF0DDCF1EF020EEC9F01B5074
:1002E800D9261C50DA22DECF1FF0DDCF20F01D50BA
:1002F8001F5E1E50205A205007E11E0E1F5CD8B00A
:1003080088EF01F08AEF01F0A4EF01F020EED3F0BE
:100318001B50D9261C50DA22DECF1DF0DDCF1EF08F
:100328001D1E1E1E1D4A1E2A20EED3F01B50D92664
:100338001C50DA221DC0DEFF1EC0DDFF0DEF02F0EB
:1003480020EED5F01B50D9261C50DA22DECF1DF046
:10035800DDCF1EF020EEC9F01B50D9261C50DA2242
:10036800DECF1FF0DDCF20F01D501F5E1E50205A3B
:10037800205007E1280E1F5CD8B0C5EF01F0C7EF89
:1003880001F0EBEF01F020EED3F01B50D9261C5002
:10039800DA22DECF1DF0DDCF1EF01D1E1E1E1D4A07
:1003A8001E2A20EED3F01B50D9261C50DA221DC07D
:1003B800DEFF1EC0DDFF20EED1F01B50D9261C50F9
:1003C800DA22010EDE6E000EDD6E0DEF02F020EE79
:1003D800D3F01B50D9261C50DA22DECF1DF0DDCF1A
:1003E8001EF01D1E1E1E1D4A1E2A20EED3F01B5095
:1003F800D9261C50DA221DC0DEFF1EC0DDFF20EE0C
:10040800D1F01B50D9261C50DA22020EDE6E000EE7
:10041800DD6E20EEE9F01B50D9261C50DA22DE2AC8
:10042800000EDD22000E186E0E0EE0EC2EF0FC0E13
:100438001D6EFF0E1E6E20EECBF01B50D9261C50F1
:10044800DA22DECF1FF0DDCF20F01D501F261E5010
:10045800202220EEE1F01B50D9261C50DA22DECFF4
:1004680021F0DDCF22F00B0E2126000E22221F5094
:10047800215C20502258D8A044EF02F046EF02F049
:10048800D2EF03F020EEC9F01B50D9261C50DA2217
:10049800DECF1DF0DDCF1EF0040E1D26000E1E223D
:1004A80020EEDFF01B50D9261C50DA221D50DE5CEE
:1004B8001E50DE58D8B063EF02F065EF02F0D2EFBD
:1004C80003F020EEDFF01B50D9261C50DA22DECFD5
:1004D8001DF0DDCF1EF0320E1D26000E1E22FC0E72
:1004E8001F6EFF0E206E20EEC9F01B50D9261C503F
:1004F800DA22DECF21F0DDCF22F01F502126205056
:1005080022221D50215C1E502258D8B08EEF02F0D6
:1005180090EF02F0D2EF03F020EEDFF01B50D92667
:100528001C50DA22DECF1DF0DDCF1EF020EEC9F020
:100538001B50D9261C50DA22DECF1FF0DDCF20F069
:100548001D501F5E1E50205A205007E10A0E1F5CE6
:10055800D8B0B1EF02F0B3EF02F0D7EF02F020EE1F
:10056800D3F01B50D9261C50DA22DECF1DF0DDCF88
:100578001EF01D1E1E1E1D4A1E2A20EED3F01B5003
:10058800D9261C50DA221DC0DEFF1EC0DDFF20EE7A
:10059800D1F01B50D9261C50DA22FE0EDE6EFF0E5B
:1005A800DD6EC4EF03F020EEDFF01B50D9261C509F
:1005B800DA22DECF1DF0DDCF1EF020EEC9F01B5091
:1005C800D9261C50DA22DECF1FF0DDCF20F01D50D7
:1005D8001F5E1E50205A205007E1140E1F5CD8B031
:1005E800F8EF02F0FAEF02F01EEF03F020EED3F07E
:1005F8001B50D9261C50DA22DECF1DF0DDCF1EF0AD
:100608001D1E1E1E1D4A1E2A20EED3F01B50D92681
:100618001C50DA221DC0DEFF1EC0DDFF20EED1F027
:100628001B50D9261C50DA22FF0EDE6EFF0EDD6E3F
:10063800C4EF03F020EEDFF01B50D9261C50DA225D
:10064800DECF1DF0DDCF1EF020EEC9F01B50D926FD
:100658001C50DA22DECF1FF0DDCF20F01D501F5EC8
:100668001E50205A205007E11E0E1F5CD8B03FEFE5
:1006780003F041EF03F05BEF03F020EED3F01B50E3
:10068800D9261C50DA22DECF1DF0DDCF1EF01D1E4C
:100698001E1E1D4A1E2A20EED3F01B50D9261C50C0
:1006A800DA221DC0DEFF1EC0DDFFC4EF03F020EE1E
:1006B800DFF01B50D9261C50DA22DECF1DF0DDCF2B
:1006C8001EF020EEC9F01B50D9261C50DA22DECFCE
:1006D8001FF0DDCF20F01D501F5E1E50205A205005
:1006E80007E1280E1F5CD8B07CEF03F07EEF03F023
:1006F800A2EF03F020EED3F01B50D9261C50DA22CB
:10070800DECF1DF0DDCF1EF01D1E1E1E1D4A1E2A47
:1007180020EED3F01B50D9261C50DA221DC0DEFF74
:100728001EC0DDFF20EED1F01B50D9261C50DA2266
:10073800010EDE6E000EDD6EC4EF03F020EED3F086
:100748001B50D9261C50DA22DECF1DF0DDCF1EF05B
:100758001D1E1E1E1D4A1E2A20EED3F01B50D92630
:100768001C50DA221DC0DEFF1EC0DDFF20EED1F0D6
:100778001B50D9261C50DA22020EDE6E000EDD6EEA
:1007880020EEEBF01B50D9261C50DA22DE2A000E90
:10079800DD22000E186E0E0EE0EC2EF020EEC9F0F1
:1007A8001B50D9261C50DA22DECF1DF0DDCF1EF0FB
:1007B800040E1D26000E1E221E5009E1EF0E1D5CC0
:1007C800D8A0E9EF03F0EBEF03F003EF04F020EE1D
:1007D800D1F01B50D9261C50DA22DECF1DF0DDCF18
:1007E8001EF01D1E1E1E1D4A1E2A20EED1F01B5093
:1007F800D9261C50DA221DC0DEFF1EC0DDFFFC0E0C
:100808001D6EFF0E1E6E20EEC9F01B50D9261C501F
:10081800DA22DECF1FF0DDCF20F01D501F261E503C
:1008280020221F502010D8A41CEF04F01EEF04F063
:1008380036EF04F020EED1F01B50D9261C50DA22F6
:10084800DECF1DF0DDCF1EF01D1E1E1E1D4A1E2A06
:1008580020EED1F01B50D9261C50DA221DC0DEFF35
:100868001EC0DDFFFC0E1D6EFF0E1E6E20EECBF0CF
:100878001B50D9261C50DA22DECF1FF0DDCF20F026
:100888001D501F261E502022FB0E216EFF0E226EC9
:1008980020EEE1F01B50D9261C50DA22DECF23F0DF
:1008A800DDCF24F021502326225024221F50235C20
:1008B80020502458D8A063EF04F065EF04F076EFD9
:1008C80004F0000E186E090EE0EC2EF020EEEBF0AE
:1008D8001B50D9261C50DA22000EDE6E000EDD6E8B
:1008E800040E4D6E20EED7F01B50D9261C50DA228C
:1008F800DECF1DF0DDCF1EF0050E1D26000E1E22D8
:1009080020EECBF01B50D9261C50DA22DECF1FF088
:10091800DDCF20F0040E1F26000E20221D501F5C84
:100928001E502058D8A09BEF04F09DEF04F0AEEFC6
:1009380004F0000E186E090EE0EC2EF020EEE9F03F
:100948001B50D9261C50DA22000EDE6E000EDD6E1A
:10095800040E4D6E120027C071F028C072F00A0E06
:10096800000171252D6E000E72212E6E2DC0F6FF2E
:100978002EC0F7FF0900F5CF60F00900F5CF61F050
:100988000900F5CF62F00A00F5CF63F0120E712569
:100998002D6E000E72212E6E2DC0F6FF2EC0F7FFB1
:1009A8000900F5CF76F00A00F5CF77F0160E71251D
:1009B8002D6E000E72212E6E2DC0F6FF2EC0F7FF91
:1009C8000900F5CF6BF00A00F5CF6CF01C0E71250D
:1009D8002D6E000E72212E6E2DC0F6FF2EC0F7FF71
:1009E8000900080EF5180900F510D8A4FEEF04F068
:1009F80000EF05F0A9EF07F01E0E71252D6E000E11
:100A080072212E6E2DC0F6FF2EC0F7FF0900F504E7
:100A18000900F5100900F5100900F510D8B417EF12
:100A280005F019EF05F01BEF05F0A9EF07F0765177
:100A380029242D6E77512A202E6E2E5007E1F10EB3
:100A48002D5CD8B02AEF05F02CEF05F0A9EF07F0E0
:100A58006B512B242D6E6C512C202E6E410E2D5C6B
:100A6800010E2E58D8A03BEF05F03DEF05F03FEF03
:100A780005F0A9EF07F0360E806E8B988B968B8663
:100A88008B88800E806E8B968B86360E2724696F36
:100A9800000E28206A6F6051272661512822000E17
:100AA800646F69C012F06AC013F0D7EC29F012C065
:100AB80078F013C079F02A0E806E8B988B968B860F
:100AC8008B882A50806E8B968B8629C080FF8B96E8
:100AD8008B860001765129242D6E77512A202E6E9F
:100AE800FF0E2D24296EFF0E2E202A6E2A50806EAE
:100AF8008B968B8629C080FF8B968B862B0E806EFB
:100B08008B988B968B868B882BC02DF02CC02EF063
:100B18002D1E2E1E2D4A2E2A6B512D5E6C512E5ADB
:100B2800400E2D24736F010E2E20746F7451806E49
:100B38008B968B8673C080FF8B968B866B51732543
:100B48002D6E6C5174212E6EFF0E2D24736FFF0EC7
:100B58002E20746F7451806E8B968B8673C080FFC5
:100B68008B968B862C0E806E8B988B968B868B88BB
:100B7800000E706F000E6F6F000E686F000E676FCB
:100B880027C0F6FF28C0F7FF0800F5500009D8A4D1
:100B9800D0EF05F0D2EF05F04DEF07F029EF07F0A1
:100BA800020E2726000E2822000E7B6F000E7A6F99
:100BB800E8EF05F07951806E8B968B8678C080FFC0
:100BC8008B968B867A4B7B2B6F51765D2D6E705191
:100BD80077592E6E2D507A5D2E507B59D8A0F7EF9D
:100BE80005F0F9EF05F0DEEF05F0000E706F000E6E
:100BF8006F6F674B682B96EF07F0000E7B6F000E48
:100C08007A6F11EF06F07951806E8B968B8678C0DB
:100C180080FF8B968B867A4B7B2B6F51765D2D6E82
:100C2800705177592E6E2D507A5D2E507B59D8A071
:100C380020EF06F022EF06F007EF06F0000E7B6FBC
:100C4800000E7A6F32EF06F07951806E8B968B86A4
:100C580078C080FF8B968B867A4B7B2B67516B5DB8
:100C68002D6E68516C592E6EFF0E2D241A6EFF0ED4
:100C78002E201B6E76C01CF077C01DF0ABEC31F057
:100C88001A5000017A5D1B507B59D8A04EEF06F030
:100C980050EF06F028EF06F0010E646F96EF07F0AC
:100CA800030E27242D6E000E28202E6E2DC0F6FF71
:100CB8002EC0F7FF0800F5501A6E1B6A76C01CF0AC
:100CC80077C01DF0ABEC31F0020E27242F6E000E1A
:100CD8002820306E2FC0F6FF30C0F7FF0800F5500F
:100CE8001A240001656F000E1B20666F000E7B6FD3
:100CF800000E7A6F8CEF06F06F4B702B7951806E77
:100D08008B968B8678C080FF8B968B867A4B7B2B55
:100D180065517A5D66517B59D8A095EF06F097EF3B
:100D280006F080EF06F065C020F066C021F076C0BE
:100D380022F077C023F06CEC2EF0000167512024DC
:100D4800676F68512120686F6FC012F070C013F090
:100D580076C014F077C015F012EC2FF012C06FF0C7
:100D680013C070F0040E2726000E282296EF07F015
:100D7800010E27242D6E000E28202E6E2DC0F6FFA2
:100D88002EC0F7FF0800F5CF75F0000E7B6F000E40
:100D98007A6FFDEF06F07A5127242D6E7B512820BB
:100DA8002E6E020E2D26000E2E222DC0F6FF2EC00E
:100DB800F7FF0800F550040DF3CF2FF0F4CF30F013
:100DC8002F506925126E30506A21136ED7EC29F026
:100DD80012C06DF013C06EF000016F4B702B6E5196
:100DE800806E8B968B866DC080FF8B968B867A4B38
:100DF8007B2B75512D6E2E6A2D507A5D2E507B59A6
:100E0800D8A009EF07F00BEF07F0CFEF06F0752930
:100E1800D8B411EF07F013EF07F023EF07F07529A7
:100E2800FE0B756F75512D6E2E6A020E2D26000E63
:100E38002E222D5027262E50282296EF07F0020E3C
:100E48002726010E282296EF07F0010E27242D6E83
:100E5800000E28202E6E2DC0F6FF2EC0F7FF0800CA
:100E6800F5502F6E306A3050000AD8B43EEF07F0C4
:100E7800BCEF06F02F50000AD8B4D4EF05F0010AF1
:100E8800D8B401EF06F0030AD8B454EF06F0BCEF6B
:100E980006F027C0F6FF28C0F7FF0800F5CF75F069
:100EA800010E27242D6E000E28202E6E2DC0F6FF71
:100EB8002EC0F7FF0800F550040DF3CF2FF0F4CF44
:100EC80030F02F506925126E30506A21136ED7EC1E
:100ED80029F012C06DF013C06EF0000E00017B6F98
:100EE800000E7A6F84EF07F06F4B702B6E51806E97
:100EF8008B968B866DC080FF8B968B867A4B7B2B6F
:100F080075512D6E2E6A2D507A5D2E507B59D8A0C2
:100F180090EF07F092EF07F078EF07F0020E272620
:100F2800000E282200016451D8B49DEF07F09FEF0E
:100F380007F0C4EF05F0360E806E8B988B968B8683
:100F48008B88000E806E8B968B861200000E000137
:100F58008C6F000E8B6F7CC0D9FF7DC0DAFFDECFAF
:100F68008DF0DDCF8EF020EE04F07C51D9267D5136
:100F7800DA22DECF7EF0DDCF7FF07CC0D9FF7DC0E6
:100F8800DAFFDECF80F0DDCF81F07E5180258F6FD4
:100F98007F518121906F20EE02F07C51D9267D513E
:100FA800DA22DECF91F0DDCF92F020EE06F07C5110
:100FB800D9267D51DA22DECF7EF0DDCF7FF020EE1C
:100FC80002F07C51D9267D51DA22DECF80F0DDCFC8
:100FD80081F07E518025936F7F518121946F20EE9F
:100FE80008F07C51D9267D51DA2210EE0AF07C51A6
:100FF800E1267D51E222DE50E61809E1DE50E618CE
:10100800D8B409EF08F00BEF08F048EF08F08DC0EE
:1010180012F08EC013F091C014F092C015F08FC07A
:1010280016F090C017F093C018F094C019F0010E94
:101038001A6E20EE0AF07C51D9267D51DA22DECFD5
:101048001BF0DDCF1CF069EC16F08DC012F08EC0DD
:1010580013F091C014F092C015F08FC016F090C034
:1010680017F093C018F094C019F0000E1A6E000122
:1010780020EE08F07C51D9267D51DA22DECF1BF014
:10108800DDCF1CF069EC16F0000120EE0CF07C516D
:10109800D9267D51DA22DECFF6FFDDCFF7FF080033
:1010A800F550420AD8A45BEF08F05DEF08F00DEFA9
:1010B80009F020EE0CF07C51D9267D51DA22DECFE2
:1010C8007EF0DDCF7FF0010E7E27000E7F237EC0ED
:1010D800F6FF7FC0F7FF0800F5504D0AD8A477EF58
:1010E80008F079EF08F00DEF09F020EE0CF07C51D4
:1010F800D9267D51DA22DECF9AF0DDCF9BF020EEA3
:1011080002F07C51D9267D51DA22DECF7EF0DDCF88
:101118007FF0160E9A25806F000E9B21816F80C08C
:10112800F6FF81C0F7FF0900F5CF82F00900F5CF7F
:1011380083F00900F5CF84F00900F5CF85F0D89049
:10114800853384338333823320EE06F07C51D926ED
:101158007D51DA22DECF86F0DDCF87F0D890873157
:10116800896F8631886F8251885F8351895B7E5190
:101178008825976F7F518921986F7CC0D9FF7DC0E2
:10118800DAFFDECF7EF0DDCF7FF0120E9A25806F7A
:10119800000E9B21816F80C0F6FF81C0F7FF090018
:1011A800F5CF82F00900F5CF83F00900F5CF84F080
:1011B8000900F5CF85F0D8908533843383338233A3
:1011C80020EE04F07C51D9267D51DA22DECF86F05C
:1011D800DDCF87F0D8908731896F8631886F82514B
:1011E800885F8351895B7E518825956F7F5189215E
:1011F800966F9AC027F09BC028F095C029F096C03A
:101208002AF097C02BF098C02CF0AFEC04F01AEF3E
:101218000AF020EE02F07C51D9267D51DA22DECF89
:101228007EF0DDCF7FF020EE0EF07C51D9267D5187
:10123800DA22DECFF6FFDDCFF7FF0800F550126E99
:10124800136A000E156E020E146EB3EC28F000013E
:1012580020EE06F07C51D9267D51DA22DECF80F0CF
:10126800DDCF81F0D8908131836F8031826F125049
:10127800825F1350835B7E518225976F7F51832154
:10128800986F000E996FA5EF09F020EE0EF07C51D3
:10129800D9267D51DA22DECF7EF0DDCF7FF0010E38
:1012A8007E27000E7F237EC0F6FF7FC0F7FF080071
:1012B800F5CF80F020EE0CF07C51D9267D51DA2252
:1012C800DECF81F0DDCF82F099518127000E822395
:1012D80081C0F6FF82C0F7FF0800F5CF83F0805188
:1012E800835D8A6F8A51030D20EE0EF07C51D9265A
:1012F8007D51DA22DECF7EF0DDCF7FF0030E7E2730
:10130800000E7F237EC0F6FF7FC0F7FF0900F5CFF0
:1013180080F00900F5CF81F0F3508027F450812345
:1013280080C0F6FF81C0F7FF0800F550826F836B1D
:10133800020E8227000E832382518B2783518C2330
:10134800992B20EE0CF07C51D9267D51DA22DECF84
:1013580012F0DDCF13F07EEC30F0000199517E6F72
:101368007F6B12507E5D13507F59D8A0BEEF09F0F5
:10137800C0EF09F049EF09F07CC0D9FF7DC0DAFF62
:10138800DECF7EF0DDCF7FF0D8908C31816F8B314E
:10139800806F20EE04F07C51D9267D51DA22DECF11
:1013A80082F0DDCF83F0D8908331856F8231846FEE
:1013B8008051845F8151855B7E518425956F7F5173
:1013C8008521966F20EE0CF07C51D9267D51DA22CA
:1013D800DECF20F0DDCF21F020EE0EF07C51D926B3
:1013E8007D51DA22DECF22F0DDCF23F0000E246E0D
:1013F80095C025F096C026F097C027F098C028F031
:1014080020EE08F07C51D9267D51DA22DECF29F072
:10141800DDCF2AF020EE0AF07C51D9267D51DA2260
:10142800DECF2BF0DDCF2CF0DBEC0EF07CC025F00E
:101438007DC026F001EC1CF0120020EE0EF02750C3
:10144800D9262850DA22DE50DE10D8B42EEF0AF062
:1014580030EF0AF0BCEF0AF027C0D9FF28C0DAFF46
:10146800DECF29F0DDCF2AF020EE0EF02750D92666
:101478002850DA22DECF2BF0DDCF2CF020EE04F05E
:101488002750D9262850DA22DECF2DF0DDCF2EF0D6
:101498002B502D5C1A6E2C502E581B6E20EE13F01C
:1014A8002750D9262850DA22DECF1CF0DDCF1DF0D8
:1014B800ABEC31F01AC020F01BC021F020EE15F083
:1014C8002750D9262850DA22DECF22F0DDCF23F0AC
:1014D8006CEC2EF0295020262A502122010E2024BF
:1014E800356E000E2120366E20EE0EF02750D926DC
:1014F8002850DA22DECF29F0DDCF2AF03550292610
:1015080036502A22FE0E29242F6EFF0E2A20306E16
:1015180020EE02F02750D9262850DA22DECF29F013
:10152800DDCF2AF0020E2924316E000E2A20326EF9
:1015380020EE06F02750D9262850DA22DECF29F0EF
:10154800DDCF2AF020EE02F02750D9262850DA22E3
:10155800DECF2BF0DDCF2CF029502B262A502C2261
:10156800FE0E2B24336EFF0E2C20346E30EF0BF062
:1015780027C0D9FF28C0DAFFDECF29F0DDCF2AF057
:10158800010E2924356E000E2A20366E27C0D9FF99
:1015980028C0DAFFDECF29F0DDCF2AF020EE04F0F4
:1015A8002750D9262850DA22DECF1AF0DDCF1BF0DB
:1015B80020EE13F02750D9262850DA22DECF1CF06F
:1015C800DDCF1DF0ABEC31F01AC020F01BC021F0CC
:1015D80020EE15F02750D9262850DA22DECF22F047
:1015E800DDCF23F06CEC2EF0295020262A50212242
:1015F800FF0E20242F6EFF0E2120306E20EE02F009
:101608002750D9262850DA22DECF29F0DDCF2AF05C
:10161800020E2924316E000E2A20326E20EE06F0CA
:101628002750D9262850DA22DECF29F0DDCF2AF03C
:1016380020EE02F02750D9262850DA22DECF2BF0F0
:10164800DDCF2CF029502B262A502C22FE0E2B24DD
:10165800336EFF0E2C20346E35C012F036C013F0F6
:1016680031C014F032C015F02FC016F030C017F09A
:1016780033C018F034C019F0010E1A6E20EE0AF0CB
:101688002750D9262850DA22DECF1BF0DDCF1CF0F8
:1016980069EC16F020EE11F02750D9262850DA22EE
:1016A80010EE13F02750E1262850E222DECFE6FFA5
:1016B800DDCFE5FF20EE0EF02750D9262850DA229C
:1016C800DE50DE10D8A46BEF0BF06DEF0BF0E3EFFC
:1016D8000BF027C0D9FF28C0DAFFDECF29F0DDCF15
:1016E8002AF0010E2924356E000E2A20366E27C0F6
:1016F800D9FF28C0DAFFDECF29F0DDCF2AF020EEAF
:1017080004F02750D9262850DA22DECF1AF0DDCF90
:101718001BF020EE11F02750D9262850DA22DECF10
:101728001CF0DDCF1DF0ABEC31F01AC020F01BC06F
:1017380021F020EE15F02750D9262850DA22DECFE6
:1017480022F0DDCF23F06CEC2EF0295020262A5011
:101758002122FF0E20242F6EFF0E2120306E20EE56
:1017680002F02750D9262850DA22DECF29F0DDCF23
:101778002AF0020E2924316E000E2A20326E20EE45
:1017880006F02750D9262850DA22DECF29F0DDCFFF
:101798002AF020EE02F02750D9262850DA22DECF90
:1017A8002BF0DDCF2CF029502B262A502C22FE0EB0
:1017B8002B24336EFF0E2C20346E6DEF0CF027C0F7
:1017C800D9FF28C0DAFFDECF29F0DDCF2AF020EEDE
:1017D8000EF02750D9262850DA22DECF2BF0DDCFA5
:1017E8002CF020EE04F02750D9262850DA22DECF3C
:1017F8002DF0DDCF2EF02B502D5C1A6E2C502E586C
:101808001B6E20EE11F02750D9262850DA22DECFA1
:101818001CF0DDCF1DF0ABEC31F01AC020F01BC07E
:1018280021F020EE15F02750D9262850DA22DECFF5
:1018380022F0DDCF23F06CEC2EF0295020262A5020
:101848002122010E2024356E000E2120366E20EE56
:101858000EF02750D9262850DA22DECF29F0DDCF26
:101868002AF03550292636502A22FE0E29242F6EBA
:10187800FF0E2A20306E20EE02F02750D92628507D
:10188800DA22DECF29F0DDCF2AF0020E2924316ECC
:10189800000E2A20326E20EE06F02750D926285056
:1018A800DA22DECF29F0DDCF2AF020EE02F0275031
:1018B800D9262850DA22DECF2BF0DDCF2CF02950A4
:1018C8002B262A502C22FE0E2B24336EFF0E2C20A2
:1018D800346E35C012F036C013F031C014F032C087
:1018E80015F02FC016F030C017F033C018F034C010
:1018F80019F0010E1A6E20EE08F02750D92628504C
:10190800DA22DECF1BF0DDCF1CF069EC16F01200F6
:1019180020EE04F01850D9261950DA22010EDB50B7
:1019280009E1320EDE5CD8A09CEF0CF09EEF0CF0C3
:10193800BCEF0CF020EE04F01850D9261950DA222A
:10194800010EDB5007E1400EDE5CD8B0AEEF0CF0C4
:10195800B0EF0CF0BCEF0CF018C012F019C013F087
:10196800000E156E000E146EA5EC30F0CCEF0EF0E4
:1019780020EE04F01850D9261950DA22010EDB5057
:1019880009E1400EDE5CD8A0CCEF0CF0CEEF0CF0F5
:10199800ECEF0CF020EE04F01850D9261950DA229A
:1019A800010EDB5007E14E0EDE5CD8B0DEEF0CF026
:1019B800E0EF0CF0ECEF0CF018C012F019C013F0C7
:1019C800000E156E010E146EA5EC30F0CCEF0EF083
:1019D80020EE04F01850D9261950DA22010EDB50F7
:1019E80009E14E0EDE5CD8A0FCEF0CF0FEEF0CF027
:1019F8001CEF0DF020EE04F01850D9261950DA2209
:101A0800010EDB5007E15C0EDE5CD8B00EEF0DF086
:101A180010EF0DF01CEF0DF018C012F019C013F004
:101A2800000E156E020E146EA5EC30F0CCEF0EF021
:101A380020EE04F01850D9261950DA22010EDB5096
:101A480009E15C0EDE5CD8A02CEF0DF02EEF0DF056
:101A58004CEF0DF020EE04F01850D9261950DA2278
:101A6800010EDB5007E16A0EDE5CD8B03EEF0DF0E8
:101A780040EF0DF04CEF0DF018C012F019C013F044
:101A8800000E156E030E146EA5EC30F0CCEF0EF0C0
:101A980020EE04F01850D9261950DA22010EDB5036
:101AA80009E16A0EDE5CD8A05CEF0DF05EEF0DF088
:101AB8007CEF0DF020EE04F01850D9261950DA22E8
:101AC800010EDB5007E1780EDE5CD8B06EEF0DF04A
:101AD80070EF0DF07CEF0DF018C012F019C013F084
:101AE800000E156E040E146EA5EC30F0CCEF0EF05F
:101AF80020EE04F01850D9261950DA22010EDB50D6
:101B080009E1780EDE5CD8A08CEF0DF08EEF0DF0B9
:101B1800ACEF0DF020EE04F01850D9261950DA2257
:101B2800010EDB5007E1860EDE5CD8B09EEF0DF0AB
:101B3800A0EF0DF0ACEF0DF018C012F019C013F0C3
:101B4800000E156E050E146EA5EC30F0CCEF0EF0FD
:101B580020EE04F01850D9261950DA22010EDB5075
:101B680009E1860EDE5CD8A0BCEF0DF0BEEF0DF0EB
:101B7800DCEF0DF020EE04F01850D9261950DA22C7
:101B8800010EDB5007E1960EDE5CD8B0CEEF0DF00B
:101B9800D0EF0DF0DCEF0DF018C012F019C013F003
:101BA800000E156E060E146EA5EC30F0CCEF0EF09C
:101BB80020EE04F01850D9261950DA22010EDB5015
:101BC80009E1960EDE5CD8A0ECEF0DF0EEEF0DF01B
:101BD8000CEF0EF020EE04F01850D9261950DA2236
:101BE800010EDB5007E1A40EDE5CD8B0FEEF0DF06D
:101BF80000EF0EF00CEF0EF018C012F019C013F041
:101C0800000E156E070E146EA5EC30F0CCEF0EF03A
:101C180020EE04F01850D9261950DA22010EDB50B4
:101C280009E1A40EDE5CD8A01CEF0EF01EEF0EF04A
:101C38003CEF0EF020EE04F01850D9261950DA22A5
:101C4800010EDB5007E1B20EDE5CD8B02EEF0EF0CD
:101C580030EF0EF03CEF0EF018C012F019C013F080
:101C6800000E156E080E146EA5EC30F0CCEF0EF0D9
:101C780020EE04F01850D9261950DA22010EDB5054
:101C880009E1B20EDE5CD8A04CEF0EF04EEF0EF07C
:101C98006CEF0EF020EE04F01850D9261950DA2215
:101CA800010EDB5007E1C00EDE5CD8B05EEF0EF02F
:101CB80060EF0EF06CEF0EF018C012F019C013F0C0
:101CC800000E156E090E146EA5EC30F0CCEF0EF078
:101CD80020EE04F01850D9261950DA22010EDB50F4
:101CE80009E1C00EDE5CD8A07CEF0EF07EEF0EF0AE
:101CF8009CEF0EF020EE04F01850D9261950DA2285
:101D0800010EDB5007E1CE0EDE5CD8B08EEF0EF090
:101D180090EF0EF09CEF0EF018C012F019C013F0FF
:101D2800000E156E0A0E146EA5EC30F0CCEF0EF016
:101D380020EE04F01850D9261950DA22010EDB5093
:101D480009E1CE0EDE5CD8A0ACEF0EF0AEEF0EF0DF
:101D5800CCEF0EF020EE04F01850D9261950DA22F4
:101D6800010EDB5007E1D70EDE5CD8B0BEEF0EF0F7
:101D7800C0EF0EF0CCEF0EF018C012F019C013F03F
:101D8800000E156E0B0E146EA5EC30F0CCEF0EF0B5
:101D980018C0D9FF19C0DAFF10EEC1F01850E126BB
:101DA8001950E222DECFE6FFDDCFE5FF1200000E7C
:101DB800416E000E3E6E30EF0FF0010E22242D6EA4
:101DC800000E23202E6E2DC0F6FF2EC0F7FF080050
:101DD800F5CF2FF03E502024306E000E2120316EBA
:101DE80030C0F6FF31C0F7FFF86A050EF76403D07C
:101DF8000800F55005D0F6CFE1FFF7CFE2FFE75036
:101E0800326E2F50325C3F6E3F501A6E1B6A1ABEFC
:101E18001B06000E1D6E030E1C6EABEC31F0030E9C
:101E280022242D6E000E23202E6E2DC0F6FF2EC00C
:101E3800F7FF0900F5CF2FF00900F5CF30F01A5061
:101E48002F261B5030222FC0F6FF30C0F7FF0800A6
:101E5800F550020F41263E2A20C012F021C013F08F
:101E68007EEC30F03E502D6E2E6A12502D5C1350D1
:101E78002E58D8A042EF0FF044EF0FF0E1EF0EF02C
:101E88002404D8A44AEF0FF04CEF0FF055EF0FF0F1
:101E98004150255C256E2650D8A02604266E6DEF8D
:101EA8000FF0020E2418D8A45CEF0FF05EEF0FF0CD
:101EB8006DEF0FF041C012F0136A000E156E020E9E
:101EC800146EB3EC28F01250255C256E135026587A
:101ED800266E010E22242D6E000E23202E6E2DC09C
:101EE800F6FF2EC0F7FF0800F5CF2FF020C0F6FF51
:101EF80021C0F7FFF86A050EF76403D00800F55013
:101F080005D0F6CFE1FFF7CFE2FFE750306E2F5054
:101F1800305C3F6E3F501A6E1B6A1ABE1B06000EDD
:101F28001D6E030E1C6EABEC31F0030E22242D6ED9
:101F3800000E23202E6E2DC0F6FF2EC0F7FF0900DD
:101F4800F5CF2FF00900F5CF30F01A502F261B508F
:101F58003022010E2F26000E30222FC0F6FF30C08F
:101F6800F7FF0900F5CF33F00A00F5CF34F03F5002
:101F78001A6E1B6A1ABE1B06000E1D6E030E1C6E1F
:101F8800ABEC31F0030E22242D6E000E23202E6EB2
:101F98002DC0F6FF2EC0F7FF0900F5CF2FF009007E
:101FA800F5CF30F01A502F261B5030222FC0F6FFE5
:101FB80030C0F7FF0800F5CF41F02A0E806E8B98ED
:101FC8008B968B868B882650806E8B968B8625C049
:101FD80080FF8B968B86415025242D6E000E26207F
:101FE8002E6E010E2D243B6E000E2E203C6E3C50B2
:101FF800806E8B968B863BC080FF8B968B862B0ED4
:10200800806E8B988B968B868B882850806E8B96EB
:102018008B8627C080FF8B968B8622C0F6FF23C055
:10202800F7FF0800F55027242D6E000E28202E6E8D
:10203800FF0E2D24396EFF0E2E203A6E3A50806E18
:102048008B968B8639C080FF8B968B862C0E806E84
:102058008B988B968B868B88000E3D6ECBEF10F09D
:102068003DC01AF01B6A000E156E080E146E070E9E
:102078004124126E136A000E1322B3EC28F012C02A
:102088001CF013C01DF0ABEC31F033501A24356E40
:1020980034501B20366E000E406EAAEF10F040C080
:1020A80012F0136A000E156E080E146EB3EC28F0C9
:1020B800050E22242D6E000E23202E6E2DC0F6FF55
:1020C8002EC0F7FF0900F5CF2FF00900F5CF30F04B
:1020D80012502F261350302235502F2636503022DA
:1020E8002FC0F6FF30C0F7FF0800F5CF37F040C02B
:1020F8002DF0070E2D16800E2E6E000E2F6E2D2A37
:1021080089EF10F02F342F322E322D2E86EF10F05B
:102118002E503714386E3850D8B495EF10F097EF2A
:1021280010F0A1EF10F02A50806E8B968B8629C094
:1021380080FF8B968B86A9EF10F02C50806E8B96C3
:102148008B862BC080FF9DEF10F0402A4150405CE9
:10215800D8A0B1EF10F0B3EF10F053EF10F0000E6D
:10216800406E010E4064BBEF10F0BDEF10F0BFEF02
:1021780010F0CAEF10F02C50806E8B968B862BC017
:1021880080FF8B968B86402AB5EF10F03D2A22C03F
:10219800F6FF23C0F7FF0900F5503D5CD8A0D7EF44
:1021A80010F0D9EF10F034EF10F0415025242D6EC7
:1021B800000E26202E6E020E2D24256E000E2E20D7
:1021C800266E204A212A20C0F6FF21C0F7FFF86AB0
:1021D800050EF76403D00800F55005D0F6CFE1FFEF
:1021E800F7CFE2FFE7500009D8A4FDEF10F0FFEFAA
:1021F80010F06DEF0FF012002BC0D9FF2CC0DAFFE2
:102208000B0EDE6E000EDD6E676820EE02F02B50BE
:10221800D9262C50DA22000EDE6E000EDD6E20EE7E
:1022280004F02B50D9262C50DA22000EDE6E000E58
:10223800DD6E20EE06F02B50D9262C50DA22000E47
:10224800DE6E000EDD6EE90E2B24126E000E2C20C1
:10225800136E98EC31F0C90E2B24126E000E2C2050
:10226800136EF7EC2DF0D50E2B24126E000E2C20D9
:10227800136E000E156E000E146EEFEC2AF0DF0ED2
:102288002B24126E000E2C20136E000E156E010EFC
:10229800146EEFEC2AF0000E136E820E126E000E12
:1022A800156E320E146E000E176E5A0E166E000E54
:1022B800196E140E186EFF0E1B6E1A68000E1D6E36
:1022C800000E1C6EAB0E1E6E7F0E1F6E7F0E206EF4
:1022D8007F0E216E000E226E000E236E000E246EFD
:1022E800000E256E000E266E000E276E080E2B249B
:1022F800286E000E2C20296E010E2A6EC8EC24F0E0
:10230800000E136E0A0E126E000E156EFA0E146E83
:10231800000E176E460E166E000E196E140E186E0D
:10232800FF0E1B6E1A68000E1D6E000E1C6EC90E85
:102338001E6E7F0E1F6E7F0E206E7F0E216E000EAA
:10234800226E000E236E000E246E000E256E000E07
:10235800266E000E276E200E2B24286E000E2C20D1
:10236800296E020E2A6EC8EC24F0000E136E960E2B
:10237800126E000E156EFA0E146E000E176E460ED3
:10238800166E000E196E140E186EFF0E1B6E1A686C
:10239800000E1D6E000E1C6ED20E1E6E7F0E1F6E7E
:1023A8007F0E206E7F0E216E000E226E000E236EB1
:1023B800000E246E000E256E000E266E000E276E8F
:1023C800380E2B24286E000E2C20296E030E2A6E40
:1023D800C8EC24F0000E136E820E126E000E156EFD
:1023E800320E146E000E176E5A0E166E000E196E0F
:1023F800140E186EFF0E1B6E1A68000E1D6E000E6E
:102408001C6EE30E1E6E7F0E1F6E7F0E206E7F0EFB
:10241800216E000E226E000E236E000E246E000E3A
:10242800256E000E266E000E276E500E2B24286E89
:10243800000E2C20296E040E2A6EC8EC24F0000E23
:10244800136E0A0E126E000E156EDC0E146E000E60
:10245800176E460E166E000E196E320E186E000EAE
:102468001B6E000E1A6EFF0E1D6E1C68F70E1E6E98
:102478007F0E1F6E7F0E206E7F0E216E000E226E65
:10248800000E236E000E246E000E256E000E266EC2
:10249800000E276E680E2B24286E000E2C20296E45
:1024A800050E2A6EC8EC24F0000E136E960E126EFE
:1024B800000E156EDC0E146E000E176E460E166EAC
:1024C800000E196E320E186E000E1B6E000E1A6E7C
:1024D800FF0E1D6E1C68FB0E1E6E7F0E1F6E7F0E9C
:1024E800206E7F0E216E000E226E000E236E000EEF
:1024F800246E000E256E000E266E000E276E980EB6
:102508002B24286E000E2C20296E060E2A6EC8EC8D
:1025180024F0000E136E960E126E000E156EDC0E71
:10252800146E000E176E460E166E000E196E320EE1
:10253800186E000E1B6E000E1A6EFF0E1D6E1C68C4
:10254800C00E1E6E7F0E1F6E7F0E206E7F0E216ED8
:10255800000E226E000E236E000E246E000E256EF5
:10256800000E266E000E276E800E2B24286E000E9D
:102578002C20296E060E2A6EC8EC24F0000E136E6D
:10258800320E126E000E156E640E146E000E176E6B
:10259800A50E166E000E196E140E186E000E1B6E28
:1025A800000E1A6EFF0E1D6E1C68F80E1F6E000ED0
:1025B8001E6E000E216E000E206E000E236E0B0E96
:1025C800226E000E246E000E256EB00E2B24266E91
:1025D800000E2C20276EBFEC25F012002350800B34
:1025E800306E23502324376E22AEFDEF12F0FFEF3A
:1025F80012F000EF13F037803750D8B406EF13F01D
:1026080008EF13F01DEF13F03728D8A40EEF13F0DE
:1026180010EF13F018EF13F0000E206E000E216E6D
:10262800000E226E000E236E228E000E236E25EF02
:1026380013F0000E206E000E216E000E226E000EAA
:10264800236E2750800B301A27502724386E26AE69
:1026580030EF13F032EF13F033EF13F038803850C7
:10266800D8B439EF13F03BEF13F050EF13F03828DC
:10267800D8A441EF13F043EF13F04BEF13F0000E23
:10268800246E000E256E000E266E000E276E268E16
:10269800000E276E58EF13F0000E246E000E256E04
:1026A800000E266E000E276E2450251026102710C7
:1026B800D8A461EF13F063EF13F07BEF13F0000E73
:1026C800206E000E216E000E226E000E236E800E0C
:1026D80022127F0E23123050231220C020F021C076
:1026E80021F022C022F023C023F0BEEF14F03750AF
:1026F800D8A481EF13F083EF13F08DEF13F0000EE1
:10270800206E000E216E000E226E000E236EBEEFAC
:1027180014F0385037C028F0296A285E000E295A6C
:102728007F0E2824316E000E2920326E20C02CF036
:1027380021C02DF022C02EF023C02FF0000E206EF5
:10274800000E216E000E226E000E236E000E336EF8
:10275800000E346E000E356E000E366E000E386EAA
:10276800EEEF13F03850D8B4BCEF13F0BEEF13F00F
:10277800D5EF13F0D8902C362D362E362F36D8902C
:10278800203621362236233636AECDEF13F0CFEF82
:1027980013F0D0EF13F02080D89033363436353626
:1027A800363624502C5C25502D5826502E5827504C
:1027B8002F58D8A0E2EF13F0E4EF13F0EDEF13F089
:1027C800368C24502C5E25502D5A26502E5A2750D0
:1027D8002F5A382A190E3864F4EF13F0F6EF13F075
:1027E800B6EF13F02C502D102E102F10D8B4FFEF89
:1027F80013F001EF14F019EF14F0338019EF14F00F
:10280800D890203621362236233636AE0EEF14F015
:1028180010EF14F011EF14F02080D89033363436CE
:10282800353636363106D8A0320622AE1EEF14F001
:1028380020EF14F004EF14F0000E386E36AE27EFD8
:1028480014F029EF14F04DEF14F0FF0E3314286E36
:10285800FF0E3414296EFF0E35142A6E7F0E3614BF
:102868002B6E285029102A102B10D8B43EEF14F0E4
:1028780040EF14F044EF14F0010E386E4DEF14F0F1
:1028880020A049EF14F04BEF14F04DEF14F040EF97
:1028980014F03850D8B453EF14F055EF14F079EF22
:1028A80014F0010E2026000E21222222232223A02A
:1028B80060EF14F062EF14F079EF14F020C028F004
:1028C80021C029F022C02AF023C02BF02B342B3250
:1028D8002A322932283228C020F029C021F02AC003
:1028E80022F02BC023F0314A322A32BE84EF14F092
:1028F800325008E13128D8A084EF14F086EF14F0A4
:1029080091EF14F0000E326E3168000E206E000E4A
:10291800216E000E226E000E236E32BE9EEF14F062
:10292800325006E13104D8B09CEF14F09EEF14F059
:10293800ACEF14F0000E326E000E316E000E206EF9
:10294800000E216E000E226E000E236E000E306EF9
:1029580031C037F037A0B3EF14F0B5EF14F0B8EF8B
:1029680014F0228EB9EF14F0229ED8903730236EDF
:102978006FEF13F0120047EF16F0080E3724126EAF
:10298800000E3820136E20EE04F03750D926385048
:10299800DA22DECF14F0DDCF15F020EE06F0375046
:1029A800D9263850DA22DECF16F0DDCF17F036EC14
:1029B80026F00009D8B4E3EF14F0E5EF14F0F0EFD7
:1029C80014F0000E186E070EE0EC2EF037C012F06F
:1029D80038C013F05BEC31F0200E3724126E000E75
:1029E8003820136E20EE04F03750D9263850DA22FA
:1029F800DECF14F0DDCF15F020EE06F03750D926E3
:102A08003850DA22DECF16F0DDCF17F036EC26F09C
:102A18000009D8B412EF15F014EF15F01FEF15F0F8
:102A2800000E186E050EE0EC2EF037C012F038C01C
:102A380013F05BEC31F0380E3724126E000E38209C
:102A4800136E20EE04F03750D9263850DA22DECF44
:102A580014F0DDCF15F020EE06F03750D9263850A7
:102A6800DA22DECF16F0DDCF17F036EC26F00009BB
:102A7800D8B441EF15F043EF15F068EF16F0000EEB
:102A8800186E060EE0EC2EF037C012F038C013F0C6
:102A98005BEC31F068EF16F0B00E3724126E000EC2
:102AA8003820136E20EE04F03750D9263850DA2239
:102AB800DECF14F0DDCF15F020EE06F03750D92622
:102AC8003850DA22DECF16F0DDCF17F0A5EC26F06D
:102AD8000009D8B472EF15F074EF15F088EF15F00F
:102AE80037C018F038C019F08CEC0CF0B00E372451
:102AF800276E000E3820286E21EC0AF037C012F03D
:102B080038C013F05BEC31F0500E3724126E000E13
:102B18003820136E20EE04F03750D9263850DA22C8
:102B2800DECF14F0DDCF15F020EE06F03750D926B1
:102B38003850DA22DECF16F0DDCF17F036EC26F06B
:102B48000009D8B4AAEF15F0ACEF15F068EF16F04D
:102B5800000E186E080EE0EC2EF037C012F038C0E8
:102B680013F05BEC31F068EF16F03904D8A4BFEF2E
:102B780015F0C1EF15F0C9EF15F037C01CF038C0DB
:102B88001DF045EC25F068EF16F00A0E3918D8A4A8
:102B9800D0EF15F0D2EF15F068EF16F037C025F03A
:102BA80038C026F084EC31F020EEC9F03750D92631
:102BB8003850DA22DECF3AF0DDCF3BF0320E3A263B
:102BC800000E3B223B5009E1EF0E3A5CD8A0EFEF34
:102BD80015F0F1EF15F0FDEF15F020EEDFF03750AE
:102BE800D9263850DA22BD0EDE6E000EDD6E0DEFEE
:102BF80016F020EEC9F03750D9263850DA2210EEF8
:102C0800DFF03750E1263850E222DECFE6FFDDCF95
:102C1800E5FF000E186E0C0EE0EC2EF068EF16F0D3
:102C2800800E3724126E000E3820136E20EE04F04A
:102C38003750D9263850DA22DECF14F0DDCF15F020
:102C480020EE06F03750D9263850DA22DECF16F0BB
:102C5800DDCF17F036EC26F00009D8B436EF16F0C1
:102C680038EF16F068EF16F037C02BF038C02CF0AC
:102C780000EC11F0000E186E0F0EE0EC2EF0000EB6
:102C88004D6E68EF16F04D503A6E3B6A3B50000AA5
:102C9800D8B451EF16F068EF16F03A50000AD8B4DD
:102CA800C1EF14F0010AD8B450EF15F0030AD8B4F4
:102CB800B9EF15F0010AD8B468EF16F0070AD8B4CE
:102CC80014EF16F068EF16F012001C50216E1BC0AE
:102CD80022F01250165C13501758D8B076EF16F041
:102CE80078EF16F084EF16F012C01FF013C020F032
:102CF80016C012F017C013F01FC016F020C017F04E
:102D08001450185C15501958D8B08DEF16F08FEF85
:102D180016F09BEF16F014C01FF015C020F018C075
:102D280014F019C015F01FC018F020C019F01A04CB
:102D3800D8A4A1EF16F0A3EF16F005EF17F02A0EAE
:102D4800806E8B988B968B868B881350806E8B96B3
:102D58008B8612C080FF8B968B861750806E8B9661
:102D68008B8616C080FF8B968B862B0E806E8B9879
:102D78008B968B868B881550806E8B968B8614C0AD
:102D880080FF8B968B86010E806E8B968B863F0E0E
:102D9800806E8B968B862C0E806E8B988B968B868E
:102DA8008B8812C023F013C024F0F8EF16F014C07B
:102DB8001DF015C01EF0EBEF16F021C080FF8B96BA
:102DC8008B8622C080FF8B968B861D4A1E2A1D503B
:102DD800185C1E501958D8B0F4EF16F0F6EF16F03C
:102DE800E1EF16F0234A242A2350165C2450175882
:102DF800D8B001EF17F003EF17F0DBEF16F005EF8F
:102E080018F02A0E806E8B988B968B868B881350C1
:102E1800806E8B968B8612C080FF8B968B861750A0
:102E2800806E8B968B8616C080FF8B968B862B0EBA
:102E3800806E8B988B968B868B881550806E8B96C0
:102E48008B8614C080FF8B968B86010E806E8B96C6
:102E58008B863F0E806E8B968B862C0E806E8B98A1
:102E68008B968B868B8812C023F013C024F047EF13
:102E780017F021C080FF8B968B8622C080FF8B962F
:102E88008B86234A242A2350165C24501758D8B01E
:102E980050EF17F052EF17F03DEF17F02B0E806E42
:102EA8008B988B968B868B881950806E8B968B8629
:102EB80018C080FF8B968B862C0E806E8B988B9615
:102EC8008B868B8812C023F013C024F076EF17F09E
:102ED80021C080FF8B968B8622C080FF8B968B86C5
:102EE800234A242A2350165C24501758D8B07FEF61
:102EF80017F081EF17F06CEF17F02A0E806E8B98A1
:102F08008B968B868B881350806E8B968B8612C01F
:102F180080FF8B968B861350806E8B968B8612C0A3
:102F280080FF8B968B862B0E806E8B988B968B866C
:102F38008B881550806E8B968B8614C080FF8B967D
:102F48008B86010E806E8B968B863F0E806E8B96DD
:102F58008B862C0E806E8B988B968B868B8814C0F4
:102F680023F015C024F0C3EF17F021C080FF8B9623
:102F78008B8622C080FF8B968B86234A242A235077
:102F8800185C24501958D8B0CCEF17F0CEEF17F0D2
:102F9800B9EF17F02A0E806E8B988B968B868B88EC
:102FA8001750806E8B968B8616C080FF8B968B860B
:102FB8001750806E8B968B8616C080FF8B968B86FB
:102FC8002C0E806E8B988B968B868B8814C023F082
:102FD80015C024F0FAEF17F021C080FF8B968B867E
:102FE80022C080FF8B968B86234A242A2350185CA4
:102FF80024501958D8B003EF18F005EF18F0F0EF87
:1030080017F012002FC068F030C069F031C06AF0C4
:1030180032C06BF033C06CF034C06DF035C06EF068
:1030280036C06FF000016FBF1CEF18F01FEF18F0EB
:10303800010E20EF18F0000E666F676B665167117E
:10304800D8B429EF18F02BEF18F03BEF18F06F1FEA
:103058006E1F6D1F6C1F6B1F6A1F691F686D000E46
:1030680069236A236B236C236D236E236F234ABE67
:1030780040EF18F042EF18F043EF18F04B924ABEB9
:1030880050EF18F04A5006E14904D8B04EEF18F056
:1030980050EF18F056EF18F0000E636F010E626FD4
:1030A8005AEF18F049C062F04AC063F047C064F0B4
:1030B80048C065F066516711D8A465EF18F067EF4E
:1030C80018F06EEF18F04BA46CEF18F06EEF18F0D4
:1030D80071EF18F06407D8A06507000E716F1F0E16
:1030E800706F000EFF6FF6EF18F07007D8A0710729
:1030F800E00E7025D96E000E7121DA6E68C012F0EC
:1031080069C013F06AC014F06BC015F06CC016F0FB
:103118006DC017F06EC018F06FC019F00A0E1A6E65
:10312800000E1B6E000E1C6E000E1D6E000E1E6E35
:10313800000E1F6E000E206E000E216E94EC1FF024
:1031480012C037F013C038F014C039F015C03AF087
:1031580016C03BF017C03CF018C03DF019C03EF057
:1031680037C024F039C025F0E9EC30F02450300F96
:10317800DF6E00016207D8A063076407D8A065075F
:1031880068C012F069C013F06AC014F06BC015F083
:103198006CC016F06DC017F06EC018F06FC019F053
:1031A8000A0E1A6E000E1B6E000E1C6E000E1D6EAF
:1031B800000E1E6E000E1F6E000E206E000E216E99
:1031C800D0EC1EF012C068F013C069F014C06AF0A9
:1031D80015C06BF016C06CF017C06DF018C06EF01B
:1031E80019C06FF0000171BF02EF19F0715108E1C9
:1031F8007005D8A002EF19F004EF19F034EF19F0B8
:10320800685169116A116B116C116D116E116F1192
:10321800D8A411EF19F013EF19F079EF18F063BF84
:1032280020EF19F0635106E16205D8B01EEF19F0DE
:1032380020EF19F079EF18F065BF2BEF19F0655101
:1032480008E16405D8A02BEF19F02DEF19F034EF41
:1032580019F04BB232EF19F034EF19F079EF18F09A
:1032680066516711D8A43BEF19F03DEF19F044EF10
:1032780019F04BA442EF19F044EF19F062EF19F07E
:103288007007D8A0710766516711D8A44EEF19F0DE
:1032980050EF19F056EF19F0000E616F2B0E606FAA
:1032A8005AEF19F0000E616F2D0E606FE00E702559
:1032B800D96E000E7121DA6E60C0DFFF2DC022F0DA
:1032C8002EC023F0E00E7025246E000E7121256EAD
:1032D80064C026F065C027F015EC29F022C02DF057
:1032E80023C02EF01200A0EC2CF0110E806E8B98EB
:1032F8008B968B868B88000E186ED00E176ECA0EB2
:10330800E82EFED7172EFCD7182A090E18648FEF5F
:1033180019F091EF19F081EF19F0360E806E8B9845
:103328008B968B868B88000E806E8B968B863A0EDA
:10333800806E8B988B968B868B88550E806E8B96BD
:103348008B86B20E806E8B988B968B868B880C0E34
:10335800806E8B968B860C0E806E8B968B86330ECA
:10336800806E8B968B86330E806E8B968B86B70E0F
:10337800806E8B988B968B868B88350E806E8B969D
:103388008B86BB0E806E8B988B968B868B882B0ECC
:10339800806E8B968B86C00E806E8B988B968B86F4
:1033A8008B882C0E806E8B968B86C20E806E8B98C7
:1033B8008B968B868B88010E806E8B968B868068A9
:1033C8008B968B86C30E806E8B988B968B868B889C
:1033D800110E806E8B968B86C40E806E8B988B96A2
:1033E8008B868B88200E806E8B968B86C60E806EA1
:1033F8008B988B968B868B88090E806E8B968B8626
:10340800D00E806E8B988B968B868B88A40E806EE0
:103418008B968B86A10E806E8B968B86E00E806EC7
:103428008B988B968B868B88D00E806E8B968B862E
:10343800000E806E8B968B86050E806E8B968B8623
:103448000E0E806E8B968B86150E806E8B968B86F5
:103458000D0E806E8B968B86370E806E8B968B86C4
:10346800430E806E8B968B86470E806E8B968B866E
:10347800090E806E8B968B86150E806E8B968B86CA
:10348800120E806E8B968B86160E806E8B968B86B0
:10349800190E806E8B968B86E10E806E8B988B96BC
:1034A8008B868B88D00E806E8B968B86000E806EF6
:1034B8008B968B86050E806E8B968B860D0E806E96
:1034C8008B968B860C0E806E8B968B86060E806E86
:1034D8008B968B862D0E806E8B968B86440E806E17
:1034E8008B968B86400E806E8B968B860E0E806E2A
:1034F8008B968B861C0E806E8B968B86180E806E34
:103508008B968B86160E806E8B968B86190E806E28
:103518008B968B862A0E806E8B988B968B868B88E3
:10352800000E806E8B968B86000E806E8B968B8637
:10353800000E806E8B968B86EF0E806E8B968B8638
:103548002B0E806E8B988B968B868B88000E806EE8
:103558008B968B86000E806E8B968B86010E806E06
:103568008B968B863F0E806E8B968B86260E806E92
:103578008B988B968B868B88010E806E8B968B86AC
:10358800290E806E8B988B968B868B881200EAEFBB
:103598001BF0D1EC31F000EF1CF0F096000E56EC69
:1035A80030F0C2B2DAEF1AF0DCEF1AF0D5EF1AF009
:1035B800C4500001936F926BC3509225AE6F000EFA
:1035C8009321AF6FAF5107E1790EAE5DD8B0EFEF41
:1035D8001AF0F1EF1AF0F5EF1AF0000EAF6F780E4F
:1035E800AE6F660E246E660E256E160E266E400EA3
:1035F800276E880E926FFF0E936FAEC094F0AFC027
:1036080095F0925194279351952394C012F095C048
:1036180013F0146A156A000E1CEC1DF012C020F09D
:1036280013C021F014C022F015C023F0F2EC12F000
:1036380020C039F021C03AF022C03BF023C03CF052
:1036480043EC23F039C0AEF03AC0AFF00001AE5100
:10365800F008AE6FAF51D8A0E82A0008AF6F010E8E
:1036680056EC30F0C2B23BEF1BF03DEF1BF036EFEB
:103678001BF0C4500001936F926BC3509225AC6F3E
:10368800000E9321AD6FAD5107E16A0EAC5DD8B065
:1036980050EF1BF052EF1BF056EF1BF0000EAD6F12
:1036A800690EAC6F970E926FFF0E936FACC094F0DB
:1036B800ADC095F09251942793519523D8909531A8
:1036C800966F9431AC6F96C0ADF0000E146E090E73
:1036D800136E040E156E000E166E32EC2EF0290EC7
:1036E800C26ED1EC31F0F090F08681B27EEF1BF023
:1036F80080EF1BF000EF1CF0980E0001826F000EA7
:10370800836FEB0E846F7F0E856FAEC086F0AFC0FF
:1037180087F02DEC30F0980E206E000E216E7F0E93
:10372800226E7F0E236E010E246E000E266EC80ECA
:10373800256E000E286EC80E276E000E2A6E000E2B
:10374800296EFF0E2C6E2B68DBEC0EF090C012F089
:1037580091C013F0AEC014F0AFC015F001EC32F018
:10376800980E0001826F000E836FF10E846F7F0E3A
:10377800856FACC086F0ADC087F02DEC30F0980EA8
:10378800206E000E216E7F0E226E7F0E236E010EBC
:10379800246E000E266EC80E256E000E286EFA0ED8
:1037A800276E000E2A6E000E296EFF0E2C6E2B68F7
:1037B800DBEC0EF090C012F091C013F0ACC014F026
:1037C800ADC015F0F6EC31F000EF1CF00001DE5151
:1037D800926F936B9351000AD8B4F5EF1BF000EF8A
:1037E8001CF09251000AD8B4CDEF1AF0010AD8B4EF
:1037F800D1EF1AF000EF1CF0120025C0D9FF26C047
:10380800DAFFDECF33F0DDCF34F020EE04F02550C0
:10381800D9262650DA22DECF27F0DDCF28F025C0C2
:10382800D9FF26C0DAFFDECF29F0DDCF2AF02750F6
:1038380029242F6E28502A20306E20EE02F02550C1
:10384800D9262650DA22DECF31F0DDCF32F020EE55
:1038580006F02550D9262650DA22DECF27F0DDCF14
:1038680028F020EE02F02550D9262650DA22DECFA5
:1038780029F0DDCF2AF027502924356E28502A2038
:10388800366E20EE10F02550D9262650DA22DF5069
:10389800D8A451EF1CF053EF1CF069EF1CF020EE98
:1038A80008F02550D9262650DA22DECF2BF0DDCFBE
:1038B8002CF020EE0AF02550D9262650DA22DECF49
:1038C8002DF0DDCF2EF083EF1CF033C012F034C0A2
:1038D80013F0010E3524146E000E3620156EF1EC2F
:1038E80020F012C02BF013C02CF020EE08F0255069
:1038F800D9262650DA22DECF2DF0DDCF2EF020EEAD
:1039080008F02550D9262650DA2210EE0AF0255064
:10391800E1262650E222DE50E61809E1DE50E618DC
:10392800D8B499EF1CF09BEF1CF01BEF1DF0030EB1
:103938003324126E000E3420136E010E3524146EDB
:10394800000E3620156E030E2F24166E000E302042
:10395800176E030E3524186E000E3620196E010EF0
:103968001A6E2BC01BF02CC01CF069EC16F0010E6F
:103978002F24126E000E3020136E030E3124146EA5
:10398800000E3220156E030E2F24166E000E302006
:10399800176E030E3524186E000E3620196E010EB0
:1039A8001A6E2BC01BF02CC01CF069EC16F0010E2F
:1039B8003324126E000E3420136E010E3124146E5F
:1039C800000E3220156EFF0E2F24166EFF0E3020CB
:1039D800176E020E3124186E000E3220196E010E79
:1039E8001A6E2DC01BF02EC01CF069EC16F0010EEB
:1039F8003324126E000E3420136E010E3124146E1F
:103A0800000E3220156E020E3324166E000E34207E
:103A1800176EFF0E3524186EFF0E3620196E010E34
:103A28001A6E2DC01BF02EC01CF069EC16F01200A7
:103A38001A6E1A50D8B423EF1DF025EF1DF047EF8A
:103A48001DF015BE2CEF1DF02AEF1DF047EF1DF0FD
:103A580012C016F013C017F014C018F015C019F0F2
:103A6800161E171E181E191E162A000E17221822B7
:103A7800192216C01CF017C01DF018C01EF019C07E
:103A88001FF04FEF1DF012C01CF013C01DF014C042
:103A98001EF015C01FF01250131014101510D8A4E2
:103AA80058EF1DF05AEF1DF064EF1DF0000E126E76
:103AB800000E136E000E146E000E156EF5EF1DF05D
:103AC800960E1B6E6EEF1DF01B2AD8901F321E3209
:103AD8001D321C32000E1C14166E000E1D14176EBB
:103AE800000E1E14186EFE0E1F14196E16501710B5
:103AF80018101910D8A483EF1DF085EF1DF068EF9A
:103B08001DF093EF1DF01B2A010E1C26000E1D222E
:103B18001E221F22D8901F321E321D321C32000E68
:103B28001C14166E000E1D14176E000E1E14186E4F
:103B3800FF0E1F14196E1650171018101910D8A45C
:103B4800A8EF1DF0AAEF1DF087EF1DF0B2EF1DF0F2
:103B58001B06D8901C361D361E361F361EBEB7EF04
:103B68001DF0B9EF1DF0C1EF1DF0020E1B60BFEF95
:103B78001DF0C1EF1DF0ACEF1DF01BB0C6EF1DF03E
:103B8800C8EF1DF0C9EF1DF01E9ED8901B321BC058
:103B980016F0176A186A196A16C019F0186A176AAF
:103BA800166A16501C1217501D1218501E12195062
:103BB8001F121A50D8B4E3EF1DF0E5EF1DF0EDEF3A
:103BC8001DF015BEECEF1DF0EAEF1DF0EDEF1DF056
:103BD8001F8E1CC012F01DC013F01EC014F01FC0B1
:103BE80015F0120041C0D9FF42C0DAFFDECFF6FF60
:103BF800DDCFF7FF0800F550250AD8A406EF1EF020
:103C080008EF1EF0B4EF1EF041C0D9FF42C0DAFF42
:103C1800DE2A000EDD22000E486E000E476E47C0F9
:103C28004BF048C04CF049684A6841C0D9FF42C0CF
:103C3800DAFFDECFF6FFDDCFF7FF0800F550640AA4
:103C4800D8B429EF1EF02BEF1EF03DEF1EF041C057
:103C5800D9FF42C0DAFFDECFF6FFDDCFF7FF08005D
:103C6800F550690AD8A43BEF1EF03DEF1EF07EEF39
:103C78001EF041C0D9FF42C0DAFFDE2A000EDD2265
:103C880043C0D9FF44C0DAFFDFCF45F0020EDE267D
:103C9800DFCF46F0000EDD2245C0D9FF46C0DAFF6F
:103CA800DECF72F0DDCF73F00001000E73BFFF0EA0
:103CB800746F756F766F776F786F796F3FC02DF07F
:103CC80040C02EF072C02FF073C030F074C031F0D5
:103CD80075C032F076C033F077C034F078C035F074
:103CE80079C036F006EC18F02DC03FF02EC040F039
:103CF800CFEF1EF041C0D9FF42C0DAFFDECFF6FF9A
:103D0800DDCFF7FF0800F550250AD8A48EEF1EF086
:103D180090EF1EF0A7EF1EF041C0D9FF42C0DAFFB6
:103D2800DE2A000EDD22000E136E250E126E3FC035
:103D380014F040C015F0EAEC27F0000E406E010EBA
:103D48003F6ECFEF1EF041C0D9FF42C0DAFFDE2A36
:103D5800000EDD22000E406E000E3F6ECFEF1EF00B
:103D680041C0D9FF42C0DAFFDECFF6FFDDCFF7FF53
:103D78000800F550126E136A3FC014F040C015F0E9
:103D8800EAEC27F041C0D9FF42C0DAFFDE2A000E74
:103D9800DD22A1EF1EF01200000E236E21BED9EF26
:103DA8001EF0D7EF1EF0EBEF1EF0211E201E1F1E87
:103DB8001E1E1D1E1C1E1B1E1A6C000E1B221C2202
:103DC8001D221E221F2220222122010E236E19BE2F
:103DD800F2EF1EF0F0EF1EF004EF1FF0191E181E90
:103DE800171E161E151E141E131E126C000E13220B
:103DF800142215221622172218221922010E231A1C
:103E080020EE24F0070EDE6AE806FDE21A501B10C9
:103E18001C101D101E101F1020102110D8B417EFF1
:103E28001FF019EF1FF06BEF1FF0010E226E27EF46
:103E38001FF0D8901A361B361C361D361E361F3614
:103E480020362136222A21AE2CEF1FF02EEF1FF04C
:103E58001DEF1FF0D890243625362636273628360B
:103E680029362A362B361A50125C1B5013581C5010
:103E780014581D5015581E5016581F5017582050CA
:103E8800185821501958D8A04CEF1FF04EEF1FF0CA
:103E98005FEF1FF01A50125E1B50135A1C50145A31
:103EA8001D50155A1E50165A1F50175A2050185A8E
:103EB8002150195A2480D890213220321F321E32C4
:103EC8001D321C321B321A32222E2EEF1FF02350C5
:103ED800D8B471EF1FF073EF1FF083EF1FF02B1EA4
:103EE8002A1E291E281E271E261E251E246C000E8B
:103EF800252226222722282229222A222B2224C0D0
:103F080012F025C013F026C014F027C015F028C001
:103F180016F029C017F02AC018F02BC019F01200AB
:103F2800000E236E19BE9DEF1FF09BEF1FF0AFEF41
:103F38001FF0191E181E171E161E151E141E131EFE
:103F4800126C000E13221422152216221722182290
:103F58001922010E236E21BEB6EF1FF0B4EF1FF039
:103F6800C6EF1FF0211E201E1F1E1E1E1D1E1C1E1A
:103F78001B1E1A6C000E1B221C221D221E221F2231
:103F8800202221221A501B101C101D101E101F1059
:103F980020102110D8B4D3EF1FF0D5EF1FF01DEF7C
:103FA80020F0010E226EE3EF1FF0D8901A361B3670
:103FB8001C361D361E361F3620362136222A21AEE3
:103FC800E8EF1FF0EAEF1FF0D9EF1FF01A50125C6C
:103FD8001B5013581C5014581D5015581E50165875
:103FE8001F5017582050185821501958D8A0FFEFC3
:103FF8001FF001EF20F011EF20F01A50125E1B5055
:10400800135A1C50145A1D50155A1E50165A1F5038
:10401800175A2050185A2150195AD8902132203254
:104028001F321E321D321C321B321A32222EEAEF88
:104038001FF02350D8B423EF20F025EF20F035EF00
:1040480020F0191E181E171E161E151E141E131EEC
:10405800126C000E1322142215221622172218227F
:10406800192212C012F013C013F014C014F015C0B6
:1040780015F016C016F017C017F018C018F019C0C0
:1040880019F0120020EE04F02550D9262650DA2225
:10409800DECF27F0DDCF28F0FC0E2724126EFF0EAE
:1040A8002820136E20EE06F02550D9262650DA2255
:1040B800DECF29F0DDCF2AF0FC0E2924146EFF0E86
:1040C8002A20156E20EE04F02550D9262650DA2233
:1040D800DECF2BF0DDCF2CF0040E2B24166E000E55
:1040E8002C20176E20EE06F02550D9262650DA220D
:1040F800DECF2DF0DDCF2EF0040E2D24186E000E2D
:104108002E20196E010E1A6E000E1C6E000E1B6E0C
:1041180069EC16F025C0D9FF26C0DAFF10EE04F0CE
:104128002550E1262650E222DECFE6FFDDCFE5FF6F
:1041380020EE02F02550D9262650DA2210EE06F09D
:104148002550E1262650E222DECFE6FFDDCFE5FF4F
:1041580025C0D9FF26C0DAFFDECF27F0DDCF28F053
:10416800FC0E2724126EFF0E2820136E20EE02F09C
:104178002550D9262650DA22DECF29F0DDCF2AF0C5
:10418800FC0E2924146EFF0E2A20156E25C0D9FFB7
:1041980026C0DAFFDECF2BF0DDCF2CF0040E2B2467
:1041A800166E000E2C20176E20EE02F02550D92630
:1041B8002650DA22DECF2DF0DDCF2EF0040E2D248E
:1041C800186E000E2E20196E010E1A6EF80E1C6E57
:1041D800000E1B6E69EC16F012002A0E806E8B988A
:1041E8008B968B868B881350806E8B968B8612C02D
:1041F80080FF8B968B86000E806E8B968B86EF0EDB
:10420800806E8B968B862B0E806E8B988B968B860A
:104218008B881550806E8B968B8614C080FF8B968A
:104228008B86010E806E8B968B863F0E806E8B96EA
:104238008B862E0E806E8B988B968B868B889268D9
:104248008B9400F08B8492688B9400F080CF1AF0E6
:104258001B6A8B841AC016F01BC017F0D89017324F
:104268001632D89017321632D8901732163216C036
:104278001AF017C01BF01AC016F01BC017F00B0E6F
:10428800D89016361736E82E44EF21F016C018F0ED
:1042980017C019F08B9400F080CF1AF01B6A8B843A
:1042A8001AC016F01BC017F0D89017321632D890E3
:1042B8001732163216C01AF017C01BF01AC016F0C3
:1042C8001BC017F0050ED89016361736E82E67EF84
:1042D80021F016501812175019128B9400F08050C4
:1042E8001A128B841AC016F01BC017F0D890173218
:1042F8001632D89017321632D8901732163216C0A6
:104308001AF017C01BF01A5018121B501912000E81
:10431800926E18C012F019C013F0120020EE04F0CB
:104328002550D9262650DA22DECF12F0DDCF13F041
:1043380020EE06F02550D9262650DA22DECF14F0DA
:10434800DDCF15F020EE04F02550D9262650DA22CC
:10435800DECF27F0DDCF28F0320E2724166E000EB0
:104368002820176E20EE06F02550D9262650DA228E
:10437800DECF29F0DDCF2AF00A0E2924186E000EB0
:104388002A20196E010E1A6E000E1C6E000E1B6E8E
:1043980069EC16F025C0D9FF26C0DAFF10EE04F04C
:1043A8002550E1262650E222DECFE6FFDDCFE5FFED
:1043B80020EE02F02550D9262650DA2210EE06F01B
:1043C8002550E1262650E222DECFE6FFDDCFE5FFCD
:1043D80025C0D9FF26C0DAFFDECF12F0DDCF13F0FB
:1043E80020EE02F02550D9262650DA22DECF14F02E
:1043F800DDCF15F025C0D9FF26C0DAFFDECF27F0C4
:10440800DDCF28F0320E2724166E000E2820176EF6
:1044180020EE02F02550D9262650DA22DECF29F0E8
:10442800DDCF2AF00A0E2924186E000E2A20196EF4
:10443800010E1A6E20EE08F02550D9262650DA22F1
:10444800DECF1BF0DDCF1CF069EC16F01200000E79
:104458000D6E000E0C6E0CC001F00DC002F0000EC7
:10446800046E030E036EBEEC31F0B70E0124D96E54
:10447800000E0220DA6EDF50D8B445EF22F047EF85
:1044880022F0ABEF22F00CC001F00DC002F0000EDC
:10449800046E030E036EBEEC31F0B50E0124D96E26
:1044A800000E0220DA6EDE06000EDD5A0CC001F0A6
:1044B8000DC002F0000E046E030E036EBEEC31F068
:1044C800B50E0124D96E000E0220DA6EDE50DE1021
:1044D800D8A471EF22F073EF22F0ABEF22F0010EB7
:1044E800076E0CC001F00DC002F0000E046E030E42
:1044F800036EBEEC31F0B70E0124D96E000E022017
:10450800DA6EDF5044EC2FF0E806D8A48EEF22F0E4
:1045180090EF22F097EF22F0010E026E0C5009EC9A
:1045280031F0ABEF22F00CC001F00DC002F0000E2C
:10453800046E030E036EBEEC31F0B50E0124D96E85
:10454800000E0220DA6E010EDE6E000EDD6E0C4AE1
:104558000D2A0DBEB9EF22F00D5009E1080E0C5CD2
:10456800D8A0B9EF22F0BBEF22F02FEF22F0120013
:1045780037C0D9FF38C0DAFFDECF3DF0DDCF3EF0DF
:1045880020EE04F03750D9263850DA22DECF39F041
:10459800DDCF3AF037C0D9FF38C0DAFFDECF3BF0C5
:1045A800DDCF3CF039503B243F6E3A503C20406E02
:1045B80020EE02F03750D9263850DA22DECF41F00B
:1045C800DDCF42F020EE06F03750D9263850DA22F7
:1045D800DECF39F0DDCF3AF020EE02F03750D926A1
:1045E8003850DA22DECF3BF0DDCF3CF039503B24A7
:1045F800436E3A503C20446E3DC012F03EC013F06A
:1046080041C014F042C015F03FC016F040C017F08A
:1046180043C018F044C019F0010E1A6E20EE0AF0DB
:104628003750D9263850DA22DECF1BF0DDCF1CF008
:1046380069EC16F03DC012F03EC013F041C014F012
:1046480042C015F03FC016F040C017F043C018F044
:1046580044C019F0000E1A6E20EE0CF03750D9261F
:104668003850DA22DECF1BF0DDCF1CF069EC16F0F3
:1046780037C027F038C028F021EC0AF012003B348C
:104688003C34426E4250D8A44CEF23F04EEF23F056
:1046980058EF23F0000E396E000E3A6E000E3B6E96
:1046A800000E3C6EC5EF23F039C03DF03AC03EF035
:1046B8003BC03FF03CC040F0200E68EF23F0D8909C
:1046C80040323F323E323D32E82E63EF23F03D5018
:1046D800416E3B8EFF0E3916FF0E3A16FF0E3B1643
:1046E800000E3C16960E425E42BE7FEF23F07DEF31
:1046F80023F095EF23F04250800A970FD8B087EF48
:1047080023F089EF23F08BEF23F04EEF23F0D890BE
:104718003C323B323A323932423E8BEF23F0ADEF36
:1047280023F01F0E42649BEF23F09DEF23F0A5EFCB
:1047380023F04EEF23F0D89039363A363B363C36E4
:1047480042064250D8A4ABEF23F0ADEF23F09FEF21
:1047580023F04150D8B4B3EF23F0B5EF23F0BDEF09
:1047680023F03C1E3B1E3A1E396C000E3A223B22B7
:104778003C2239C039F03AC03AF03BC03BF03CC06B
:104788003CF0120029EF24F09EC09CF09FC09DF0E1
:10479800BBEC2DF047EF24F09EC09CF09FC09DF02D
:1047A8007AEC2DF047EF24F00B0EA019D8A4DFEF18
:1047B80023F0E1EF23F0E9EF23F0D50E9E25256ED7
:1047C800000E9F21266E92EC21F00C0E0001A0191C
:1047D800D8A4F1EF23F0F3EF23F0FBEF23F0DF0E83
:1047E8009E25256E000E9F21266E92EC21F00D0E5F
:1047F8000001A019D8A403EF24F005EF24F00DEF71
:1048080024F0C90E9E25256E000E9F21266E46ECCB
:1048180020F00E0E0001A019D8A415EF24F017EF10
:1048280024F047EF24F0E90E9E25906F000E9F219B
:10483800916F81EC27F047EF24F09EC09CF09FC059
:104848009DF047EC2BF047EF24F00001DD51A16FFC
:10485800A26BA251000AD8B434EF24F047EF24F039
:10486800A151000AD8B4C8EF23F0010AD8B4D0EF98
:1048780023F0030AD8B4D8EF23F0010AD8B421EF03
:1048880024F047EF24F012000001A76FA9EF24F0ED
:10489800050EA719D8B453EF24F055EF24F05EEFB6
:1048A80024F0060EA719D8A45CEF24F05EEF24F0DC
:1048B8006EEF24F0020EDD6FA3C092F0A4C093F057
:1048C80002EC30F0A3C09EF0A4C09FF0A7C0A0F0F7
:1048D800C6EC23F0070E0001A719D8A476EF24F040
:1048E80078EF24F0C7EF24F0010EDD6FA3C09EF02F
:1048F800A4C09FF0A7C0A0F0C6EC23F0C7EF24F037
:10490800080EA719D8A48BEF24F08DEF24F0C7EF79
:1049180024F0000EDD6F7AEF24F0090EA719D8A451
:1049280098EF24F09AEF24F07AEF24F0030EDD6F6D
:104938007AEF24F00F0EA719D8A4A5EF24F0A7EF5B
:1049480024F0C7EF24F08DEF24F00001DD51A56FAE
:10495800A66BA651000AD8B4B4EF24F0C7EF24F030
:10496800A551000AD8B44CEF24F0010AD8B484EF5A
:1049780024F0030AD8B491EF24F0010AD8B49EEFCA
:1049880024F0C7EF24F0120028C0D9FF29C0DAFFAD
:1049980012C0DEFF13C0DDFF20EE02F02850D9263A
:1049A8002950DA2214C0DEFF15C0DDFF20EE06F024
:1049B8002850D9262950DA2218C0DEFF19C0DDFF99
:1049C80020EE04F02850D9262950DA2216C0DEFF3E
:1049D80017C0DDFF20EE08F02850D9262950DA222A
:1049E8001AC0DEFF1BC0DDFF20EE0AF02850D926D2
:1049F8002950DA221CC0DEFF1DC0DDFF20EE0CF0BE
:104A08002850D9262950DA221EC0DEFF1FC0DDFF3C
:104A180020EE0EF02850D9262950DA2220C0DEFFD9
:104A280021C0DDFF20EE11F02850D9262950DA22C6
:104A380022C0DEFF23C0DDFF20EE13F02850D92668
:104A48002950DA2224C0DEFF25C0DDFF20EE15F054
:104A58002850D9262950DA2226C0DEFF27C0DDFFDC
:104A680020EE17F02850D9262950DA222AC0DFFF75
:104A780020EE10F02850D9262950DA22000EDF6ED9
:104A88001200680E1C24126E000E1D20136E20EEFC
:104A980004F01C50D9261D50DA22DECF14F0DDCFE9
:104AA80015F020EE06F01C50D9261D50DA22DECF74
:104AB80016F0DDCF17F036EC26F00009D8B467EF12
:104AC80025F069EF25F07FEF25F01CC012F01DC01E
:104AD80013F05BEC31F0D50E1C24126E000E1D2075
:104AE800136E000E156E080E146E000E176E000E73
:104AF800166E14EC27F0980E1C24126E000E1D2062
:104B0800136E20EE04F01C50D9261D50DA22DECF99
:104B180014F0DDCF15F020EE06F01C50D9261D50FC
:104B2800DA22DECF16F0DDCF17F036EC26F00009DA
:104B3800D8B4A1EF25F0A3EF25F0B9EF25F01CC0FC
:104B480012F01DC013F05BEC31F0D50E1C24126E70
:104B5800000E1D20136E000E156E080E146E000E4A
:104B6800176E010E166E14EC27F0000E186E0B0E61
:104B7800E0EC2EF0120026C0D9FF27C0DAFF12C0E1
:104B8800DEFF13C0DDFF20EE02F02650D9262750A5
:104B9800DA2214C0DEFF15C0DDFF20EE06F0265035
:104BA800D9262750DA2218C0DEFF19C0DDFF20EE13
:104BB80004F02650D9262750DA2216C0DEFF17C087
:104BC800DDFF20EE08F02650D9262750DA221AC039
:104BD800DEFF1BC0DDFF20EE0AF02650D926275045
:104BE800DA221CC0DEFF1DC0DDFF20EE0CF02650CF
:104BF800D9262750DA221EC0DEFF1FC0DDFF20EEB7
:104C08000EF02650D9262750DA2220C0DEFF21C018
:104C1800DDFF20EE17F02650D9262750DA2224C0CF
:104C2800DEFF25C0DDFF20EE15F02650D9262750DF
:104C3800DA2222C0DEFF23C0DDFF20EE11F026506D
:104C4800D9262750DA22000EDE6E000EDD6E20EE29
:104C580013F02650D9262750DA22000EDE6E000EF9
:104C6800DD6E120012C0D9FF13C0DAFFDE50145CEB
:104C7800DE501558D8B043EF26F045EF26F048EF40
:104C880026F0000EA4EF26F020EE04F01250D926EC
:104C98001350DA22DECF18F0DDCF19F012C0D9FF99
:104CA80013C0DAFFDECF1AF0DDCF1BF018501A263A
:104CB80019501B2214501A5C15501B58D8B067EFB6
:104CC80026F069EF26F06BEF26F045EF26F020EE90
:104CD80002F01250D9261350DA22DE50165CDE504C
:104CE8001758D8B07AEF26F07CEF26F07EEF26F042
:104CF80045EF26F020EE06F01250D9261350DA229E
:104D0800DECF18F0DDCF19F020EE02F01250D926D0
:104D18001350DA22DECF1AF0DDCF1BF018501A2616
:104D280019501B2216501A5C17501B58D8B09FEF09
:104D380026F0A1EF26F0A3EF26F045EF26F0010EAE
:104D4800120012C0D9FF13C0DAFFDE50145CDE5027
:104D58001558D8B0B2EF26F0B4EF26F0B7EF26F02A
:104D6800000E13EF27F020EE04F01250D92613504E
:104D7800DA22DECF18F0DDCF19F012C0D9FF13C048
:104D8800DAFFDECF1AF0DDCF1BF018501A261950C3
:104D98001B2214501A5C15501B58D8B0D6EF26F0B9
:104DA800D8EF26F0DAEF26F0B4EF26F020EE02F086
:104DB8001250D9261350DA22DE50165CDE501758EE
:104DC800D8B0E9EF26F0EBEF26F0EDEF26F0B4EFE0
:104DD80026F020EE06F01250D9261350DA22DECF44
:104DE80018F0DDCF19F020EE02F01250D92613503A
:104DF800DA22DECF1AF0DDCF1BF018501A26195030
:104E08001B2216501A5C17501B58D8B00EEF27F00B
:104E180010EF27F012EF27F0B4EF26F0010E120082
:104E280016041710D8A41BEF27F01DEF27F052EF38
:104E380027F012C0D9FF13C0DAFFDECF18F0DDCF9C
:104E480019F0145018261550192212C0D9FF13C092
:104E5800DAFF18C0DEFF19C0DDFF12C0D9FF13C08A
:104E6800DAFFDECF18F0DDCF19F0320E1826000E6B
:104E78001922195009E1F00E185CD8A046EF27F066
:104E880048EF27F080EF27F012C0D9FF13C0DAFFF0
:104E9800BD0EDE6E000EDD6E80EF27F012C0D9FF6A
:104EA80013C0DAFF010EDB5007E1090EDE5CD8B053
:104EB80060EF27F062EF27F06CEF27F012C0D9FF00
:104EC80013C0DAFF000EDE6E000EDD6E80EF27F0F5
:104ED80012C0D9FF13C0DAFFDECF18F0DDCF19F00A
:104EE8001450185E1550195A12C0D9FF13C0DAFFB2
:104EF80018C0DEFF19C0DDFF1200040E0001902566
:104F0800826F000E9121836FEE0E846F7F0E856F86
:104F180090C0D9FF91C0DAFFDECF86F0DDCF87F0F1
:104F28002DEC30F0040E00019025206E000E91212A
:104F3800216E7F0E226E7F0E236E000E246E000EF1
:104F4800266E000E256E000E286E000E276EFF0ED0
:104F58002A6E2968000E2C6E000E2B6EDBEC0EF00C
:104F6800040E00019025826F000E9121836FEE0ED2
:104F7800846F7F0E856F20EE02F09051D9269151F3
:104F8800DA22DECF86F0DDCF87F02DEC30F0040E8C
:104F980000019025206E000E9121216E7F0E226E59
:104FA8007F0E236E010E246E000E266EEF0E256E08
:104FB800000E286E000E276EFF0E2A6E2968000E5E
:104FC8002C6E000E2B6EDBEC0EF012001450151038
:104FD800D8B4F1EF27F0F3EF27F0FCEF27F01450E7
:104FE8001510D8A4FAEF27F0FCEF27F001EF28F00E
:104FF800125046EC32F04EEF28F020EE04F0145038
:10500800D9261550DA22DE50DE10D8B40EEF28F07B
:1050180010EF28F02BEF28F020EE04F01450D926DA
:105028001550DA2210EE02F01450E1261550E22253
:10503800DE50E65CE650800A1A6EDE50800A1A5886
:10504800D8B029EF28F02BEF28F04EEF28F020EE0B
:1050580002F01450D9261550DA22DECF16F0DDCF33
:1050680017F014C0D9FF15C0DAFFDECF18F0DDCF76
:1050780019F016501824D96E17501920DA6E12C07C
:10508800DFFF20EE02F01450D9261550DA22DE2A6E
:10509800000EDD221200406E91EF28F03CC037F080
:1050A8003DC038F0000E396EBFEC14F0070E401802
:1050B800D8A461EF28F063EF28F065EF28F0010E1F
:1050C8004D6E050E4018D8A46CEF28F06EEF28F04E
:1050D800B2EF28F0020E4D6EB2EF28F03CC037F068
:1050E8003DC038F0000E396EBFEC14F0080E4018C1
:1050F800D8A481EF28F083EF28F0B2EF28F0000E53
:105108004D6EB2EF28F03CC037F03DC038F040C0DB
:1051180039F0BFEC14F0B2EF28F04D503E6E3F6A04
:105128003F50000AD8B49BEF28F0B2EF28F03E5069
:10513800000AD8B452EF28F0010AD8B472EF28F068
:10514800030AD8B487EF28F0010AD8B4B2EF28F0E0
:10515800070AD8B487EF28F0B2EF28F01200000E43
:10516800176E15BEBCEF28F0BAEF28F0C2EF28F092
:10517800146C151ED8B0152A010E176E13BEC9EF90
:1051880028F0C7EF28F0CFEF28F0126C131ED8B024
:10519800132A010E171A000E196E000E186E1450FD
:1051A8001510D8B4DAEF28F0DCEF28F004EF29F076
:1051B800010E166EE4EF28F0D89014361536162A2C
:1051C80015AEE9EF28F0EBEF28F0E0EF28F0D890E3
:1051D800183619361450125C15501358D8A0F7EF2A
:1051E80028F0F9EF28F0FEEF28F01450125E155061
:1051F800135A1880D89015321432162EEBEF28F077
:105208001750D8B40AEF29F00CEF29F010EF29F065
:10521800186C191ED8B0192A18C012F019C013F04A
:1052280012004BA01AEF29F01CEF29F026EF29F005
:1052380024C01BF025C01CF022C01DF023C01EF0A6
:10524800C7EC30F027BE2BEF29F02DEF29F033EF14
:1052580029F026C02BF027C02CF037EF29F0000EDC
:105268002C6E000E2B6E000E2A6E000E296E49EF72
:1052780029F0000E136E200E126E22C014F023C007
:1052880015F0EAEC27F0294A2A2A2B50295C2A50E3
:10529800800A286E2C50800A2858D8A056EF29F08A
:1052A80058EF29F03DEF29F04BB05DEF29F05FEFA3
:1052B80029F069EF29F024C01BF025C01CF022C09A
:1052C8001DF023C01EF0C7EC30F024C012F025C03A
:1052D80013F07EEC30F02B501224226E2C50132049
:1052E800236E12001350146E12C015F02A0E806E31
:1052F8008B988B968B868B88000E806E8B968B8610
:10530800000E806E8B968B86000E806E8B968B8639
:10531800EF0E806E8B968B862B0E806E8B988B96FD
:105328008B868B88000E806E8B968B86000E806E27
:105338008B968B86010E806E8B968B863F0E806EC9
:105348008B968B862C0E806E8B988B968B868B8893
:10535800000E176E000E166E000E196E000E186EF7
:1053680014C080FF8B968B8615C080FF8B968B862A
:10537800184A192A195009E1F00E185CD8A0C7EF8D
:1053880029F0C9EF29F0B4EF29F0164A172A400E80
:10539800165C010E1758D8A0D4EF29F0D6EF29F0E3
:1053A800B0EF29F01200020E1224146E000E132022
:1053B800156E14C0F6FF15C0F7FF0800F5CF16F0FC
:1053C800D8901632D8901632D89016321650186ED9
:1053D800196A010E1224146E000E1320156E14C0E3
:1053E800F6FF15C0F7FF0800F5CF16F0D890163273
:1053F800D890163216501A6E1B6A12C0F6FF13C0E8
:10540800F7FF0800F5CF14F0D8901432D890143272
:10541800D890143214501C6E1D6A1AC014F01BC0A8
:1054280015F0050ED89014361536E82E16EF2AF02A
:1054380018C016F019C017F00B0ED890163617368C
:10544800E82E21EF2AF014501612155017121C508E
:1054580016101E6E1D5017101F6E1EC012F01FC0B2
:1054680013F012009B8C700ED36E090E0001A86F0A
:105478001E0EA76FE40EE82EFED7A72FFCD7A82F85
:10548800FAD700F077EC19F0000E136E1F0E126EAB
:1054980076EC29F0B60E206E7F0E216E7F0E226EFE
:1054A8007F0E236E020E246E000E266E320E256EBF
:1054B800000E286E320E276E000E2A6E000E296E20
:1054C800FF0E2C6E2B68DBEC0EF0F28EF0969490AB
:1054D8008B80860ED56EFB0ED76E1D0ED66EF28AA9
:1054E8009492BB686650F00B0C09666E6768CF0E25
:1054F80066169E92BA80BA92BA84A60EC06E93ECD3
:105508002AF0000E2B6E010E2C6E00EC11F0000E2E
:105518000001A56F010EA66F70EC31F01200000EAD
:10552800216E000E206ECD0E2024D96E000E212093
:10553800DA6E000EDF6E204A212A21BEADEF2AF076
:10554800215009E10C0E205CD8A0ADEF2AF0AFEF96
:105558002AF097EF2AF0000E216E000E206E20C070
:105568001AF021C01BF0000E1D6E030E1C6EABEC72
:1055780031F0B50E1A24D96E000E1B20DA6E000E1B
:10558800DE6E000EDD6E20C01AF021C01BF0000E8A
:105598001D6E030E1C6EABEC31F0B70E1A24D96EDB
:1055A800000E1B20DA6E000EDF6E204A212A21BE73
:1055B800E7EF2AF0215009E1080E205CD8A0E7EFB8
:1055C8002AF0E9EF2AF0B3EF2AF0000E0001D96FB4
:1055D800000EDA6F120020EE04F01250D926135094
:1055E800DA22000EDE6E000EDD6E20EE06F012509E
:1055F800D9261350DA22000EDE6E000EDD6E14502E
:105608001510D8B40AEF2BF00CEF2BF02AEF2BF083
:1056180012C0D9FF13C0DAFF5A0EDE6E000EDD6E1F
:1056280020EE02F01250D9261350DA22140EDE6E44
:10563800000EDD6E20EE08F01250D9261350DA2243
:10564800FF0EDE6EFF0EDD6E46EF2BF012C0D9FFA7
:1056580013C0DAFF5A0EDE6E000EDD6E20EE02F089
:105668001250D9261350DA22180EDE6E010EDD6EA6
:1056780020EE08F01250D9261350DA22FF0EDE6E03
:10568800FF0EDD6E1200000E136E000E126E76EC29
:1056980029F0800E00019C257C6F000E9D217D6FF6
:1056A800AAEC07F0000120EEE9F09C51D9269D51A3
:1056B800DA22DE50DE10D8A464EF2BF066EF2BF070
:1056C80083EF2BF0930E206E7F0E216E7F0E226EDD
:1056D8007F0E236E020E246E000E266E640E256E5B
:1056E800000E286E320E276EFF0E2A6E2968000EF5
:1056F8002C6E000E2B6EDBEC0EF09EEF2BF0860E60
:10570800206E7F0E216E7F0E226E7F0E236E020E9C
:10571800246E000E266E640E256E000E286E320E64
:10572800276EFF0E2A6E2968000E2C6E000E2B6E57
:10573800DBEC0EF01200000E176E13BEA8EF2BF074
:10574800A6EF2BF0AEEF2BF0126C131ED8B0132A75
:10575800010E176E15BEB5EF2BF0B3EF2BF0B9EFB6
:105768002BF0146C151ED8B0152A14501510D8B487
:10577800C0EF2BF0C2EF2BF0E6EF2BF0010E166E08
:10578800CAEF2BF0D89014361536162A15AECFEF7F
:105798002BF0D1EF2BF0C6EF2BF01450125C155004
:1057A8001358D8A0DAEF2BF0DCEF2BF0E0EF2BF05A
:1057B8001450125E1550135AD89015321432162E02
:1057C800D1EF2BF01750D8B4ECEF2BF0EEEF2BF015
:1057D800F2EF2BF0126C131ED8B0132A12C012F07D
:1057E80013C013F01200000E066E02BE00EF2CF07C
:1057F800FEEF2BF006EF2CF0016C021ED8B0022A47
:10580800010E066E04BE0DEF2CF00BEF2CF011EF1D
:105818002CF0036C041ED8B0042A03500410D8B42A
:1058280018EF2CF01AEF2CF03EEF2CF0010E056E5D
:1058380022EF2CF0D89003360436052A04AE27EF61
:105848002CF029EF2CF01EEF2CF00350015C0450D3
:105858000258D8A032EF2CF034EF2CF038EF2CF0AF
:105868000350015E0450025AD89004320332052EC8
:1058780029EF2CF00650D8B444EF2CF046EF2CF06A
:105888004AEF2CF0016C021ED8B0022A01C001F0C8
:1058980002C002F01200166E85EF2CF0030E1618E7
:1058A800D8A459EF2CF05BEF2CF09FEF2CF0010EF1
:1058B800DF6F27EC31F09FEF2CF0030E1618D8A4F9
:1058C80068EF2CF06AEF2CF06EEF2CF0020EDF6F11
:1058D80027EC31F01604D8A474EF2CF076EF2CF0F6
:1058E8009FEF2CF0000E0001DF6F5DEF2CF0160427
:1058F800D8A481EF2CF083EF2CF09FEF2CF076EFFB
:105908002CF00001DF51146E156A1550000AD8B446
:1059180090EF2CF09FEF2CF01450000AD8B452EFFF
:105928002CF0010AD8B461EF2CF0030AD8B47BEF4D
:105938002CF09FEF2CF01200949A949494969498DB
:10594800000E926E8B9A8B848B868B88000E136E5A
:10595800000E146E000E156E000E166ED00E126E2E
:10596800CA0EE82EFED7122EFCD7010E1326000E03
:1059780014221522162216501510141009E10C0EC7
:10598800135CD8A0CAEF2CF0CCEF2CF0B2EF2CF0BF
:10599800000E136E000E146E000E156E000E166EBD
:1059A800D00E126ECA0EE82EFED7122EFCD7010EAC
:1059B8001326000E14221522162216501510141044
:1059C80009E10C0E135CD8A0ECEF2CF0EEEF2CF0F4
:1059D800D4EF2CF012000001B46F22EF2DF0B405C3
:1059E800D8A4F9EF2CF0FBEF2CF038EF2DF0010ED6
:1059F800DE6FB0C090F0B1C091F0CBEC1AF038EF88
:105A08002DF0020EB419D8A40CEF2DF00EEF2DF0E6
:105A180016EF2DF0000EDE6FB0C090F0B1C091F01F
:105A2800CBEC1AF0040E0001B419D8A41EEF2DF027
:105A380020EF2DF038EF2DF0FDEF2CF00001DE51B6
:105A4800B26FB36BB351000AD8B42DEF2DF038EF15
:105A58002DF0B251000AD8B4F3EF2CF0010AD8B4F3
:105A680005EF2DF038EF2DF0120020EE08F012505F
:105A7800D9261350DA22DECF14F0DDCF15F012C08C
:105A8800D9FF13C0DAFFDECF16F0DDCF17F01450C0
:105A980016261550172212C0D9FF13C0DAFF16C0F8
:105AA800DEFF17C0DDFF20EE0AF01250D926135092
:105AB800DA22DECF14F0DDCF15F020EE02F012501E
:105AC800D9261350DA22DECF16F0DDCF17F01450A6
