:020000040000FA
:0400000078EF00F0A5
:100008004E82D9CF0EF0DACF0FF0F3CF10F0F4CF45
:1000180011F0F0A012EF00F014EF00F039EF00F04B
:10002800F0A619EF00F01BEF00F039EF00F0F1BA7D
:1000380020EF00F022EF00F02BEF00F0F18AF090B3
:10004800010E076E010E29EC2FF039EF00F0F1AA2E
:1000580030EF00F032EF00F039EF00F0F19AF09055
:10006800010E076E020E29EC2FF0F2A43EEF00F00D
:1000780040EF00F06EEF00F0F2AA45EF00F047EF16
:1000880000F06EEF00F04CBE55EF00F04C5007E169
:10009800060E4B5CD8B053EF00F055EF00F059EF67
:1000A80000F04B4A4C2A67EF00F0000E036E050E75
:1000B800026E0A0E046E010E056E8BEC2EF0000E19
:1000C8004C6E000E4B6E5DEC22F0FB0ED76E1D0ED3
:1000D800D66EF29411C0F4FF10C0F3FF0FC0DAFF20
:1000E8000EC0D9FF4E92110027EF31F020EED1F06B
:1000F8001B50D9261C50DA22DECF1DF0DDCF1EF0B2
:1001080020EEC9F01B50D9261C50DA22DECF1FF092
:10011800DDCF20F01D501F261E502022080E1F265E
:10012800000E2022205009E1EF0E1F5CD8A09FEF9F
:1001380000F0A1EF00F0B9EF00F020EED1F01B5075
:10014800D9261C50DA22DECF1DF0DDCF1EF01D1E91
:100158001E1E1D4A1E2A20EED1F01B50D9261C5007
:10016800DA221DC0DEFF1EC0DDFFF80E1D6EFF0E79
:100178001E6E20EED1F01B50D9261C50DA22DECF9D
:100188001FF0DDCF20F020EEC9F01B50D9261C50FF
:10019800DA22DECF21F0DDCF22F01F5021262050B9
:1001A80022221D5021261E502222225007E1040E31
:1001B800215CD8B0E2EF00F0E4EF00F0FCEF00F0D3
:1001C80020EED1F01B50D9261C50DA22DECF1DF0CC
:1001D800DDCF1EF01D1E1E1E1D4A1E2A20EED1F068
:1001E8001B50D9261C50DA221DC0DEFF1EC0DDFFC1
:1001F800FF0E1D6EFF0E1E6E20EED7F01B50D92687
:100208001C50DA22DECF1FF0DDCF20F01D501F2654
:100218001E50202220EECBF01B50D9261C50DA228B
:10022800DECF21F0DDCF22F0080E2126000E22229B
:100238001F50215C20502258D8A025EF01F027EF4D
:1002480001F0B1EF02F020EEC9F01B50D9261C5086
:10025800DA22DECF1DF0DDCF1EF0080E1D26000EBF
:100268001E2220EED5F01B50D9261C50DA221D5034
:10027800DE5C1E50DE58D8B044EF01F046EF01F0C6
:10028800B1EF02F020EED5F01B50D9261C50DA222F
:10029800DECF1DF0DDCF1EF0320E1D26000E1E2211
:1002A800F80E1F6EFF0E206E20EEC9F01B50D926E7
:1002B8001C50DA22DECF21F0DDCF22F01F5021269C
:1002C800205022221D50215C1E502258D8B06FEFBA
:1002D80001F071EF01F0B1EF02F020EED5F01B5004
:1002E800D9261C50DA22DECF1DF0DDCF1EF020EE1D
:1002F800C9F01B50D9261C50DA22DECF1FF0DDCF03
:1003080020F01D501F5E1E50205A205007E10A0E93
:100318001F5CD8B092EF01F094EF01F0B8EF01F054
:1003280020EED3F01B50D9261C50DA22DECF1DF068
:10033800DDCF1EF01D1E1E1E1D4A1E2A20EED3F004
:100348001B50D9261C50DA221DC0DEFF1EC0DDFF5F
:1003580020EED1F01B50D9261C50DA22FE0EDE26E4
:10036800FF0EDD22A3EF02F020EED5F01B50D926B8
:100378001C50DA22DECF1DF0DDCF1EF020EEC9F0D2
:100388001B50D9261C50DA22DECF1FF0DDCF20F01B
:100398001D501F5E1E50205A205007E1140E1F5C8E
:1003A800D8B0D9EF01F0DBEF01F0FEEF01F020EE5D
:1003B800D3F01B50D9261C50DA22DECF1DF0DDCF3A
:1003C8001EF01D1E1E1E1D4A1E2A20EED3F01B50B5
:1003D800D9261C50DA221DC0DEFF1EC0DDFF20EE2C
:1003E800D1F01B50D9261C50DA22DE06000EDD5A49
:1003F800A3EF02F020EED5F01B50D9261C50DA22CC
:10040800DECF1DF0DDCF1EF020EEC9F01B50D9263F
:100418001C50DA22DECF1FF0DDCF20F01D501F5E0A
:100428001E50205A205007E11E0E1F5CD8B01FEF47
:1004380002F021EF02F03BEF02F020EED3F01B5068
:10044800D9261C50DA22DECF1DF0DDCF1EF01D1E8E
:100458001E1E1D4A1E2A20EED3F01B50D9261C5002
:10046800DA221DC0DEFF1EC0DDFFA3EF02F020EE82
:10047800D5F01B50D9261C50DA22DECF1DF0DDCF77
:100488001EF020EEC9F01B50D9261C50DA22DECF10
:100498001FF0DDCF20F01D501F5E1E50205A205047
:1004A80007E1280E1F5CD8B05CEF02F05EEF02F0A7
:1004B80081EF02F020EED3F01B50D9261C50DA222F
:1004C800DECF1DF0DDCF1EF01D1E1E1E1D4A1E2A8A
:1004D80020EED3F01B50D9261C50DA221DC0DEFFB7
:1004E8001EC0DDFF20EED1F01B50D9261C50DA22A9
:1004F800DE2A000EDD22A3EF02F020EED3F01B501F
:10050800D9261C50DA22DECF1DF0DDCF1EF01D1ECD
:100518001E1E1D4A1E2A20EED3F01B50D9261C5041
:10052800DA221DC0DEFF1EC0DDFF20EED1F01B5019
:10053800D9261C50DA22020EDE26000EDD2220EE1D
:10054800E9F01B50D9261C50DA22DE2A000EDD22E3
:10055800000E186E0E0EC5EC2EF0F80E1D6EFF0E76
:100568001E6E20EECBF01B50D9261C50DA22DECFAF
:100578001FF0DDCF20F01D501F261E50202220EE38
:10058800E1F01B50D9261C50DA22DECF21F0DDCF56
:1005980022F00B0E2126000E22221F50215C205033
:1005A8002258D8A0DAEF02F0DCEF02F066EF04F090
:1005B80020EEC9F01B50D9261C50DA22DECF1DF0E0
:1005C800DDCF1EF0080E1D26000E1E2220EEDFF0E5
:1005D8001B50D9261C50DA221D50DE5C1E50DE58F6
:1005E800D8B0F9EF02F0FBEF02F066EF04F020EE6E
:1005F800DFF01B50D9261C50DA22DECF1DF0DDCFEC
:100608001EF0320E1D26000E1E22F80E1F6EFF0E63
:10061800206E20EEC9F01B50D9261C50DA22DECFFE
:1006280021F0DDCF22F01F502126205022221D501C
:10063800215C1E502258D8B024EF03F026EF03F0B7
:1006480066EF04F020EEDFF01B50D9261C50DA22AA
:10065800DECF1DF0DDCF1EF020EEC9F01B50D926ED
:100668001C50DA22DECF1FF0DDCF20F01D501F5EB8
:100678001E50205A205007E10A0E1F5CD8B047EFE1
:1006880003F049EF03F06DEF03F020EED3F01B50B9
:10069800D9261C50DA22DECF1DF0DDCF1EF01D1E3C
:1006A8001E1E1D4A1E2A20EED3F01B50D9261C50B0
:1006B800DA221DC0DEFF1EC0DDFF20EED1F01B5088
:1006C800D9261C50DA22FE0EDE26FF0EDD2258EF58
:1006D80004F020EEDFF01B50D9261C50DA22DECFC2
:1006E8001DF0DDCF1EF020EEC9F01B50D9261C509E
:1006F800DA22DECF1FF0DDCF20F01D501F5E1E5026
:10070800205A205007E1140E1F5CD8B08EEF03F07A
:1007180090EF03F0B3EF03F020EED3F01B50D9268F
:100728001C50DA22DECF1DF0DDCF1EF01D1E1E1E6E
:100738001D4A1E2A20EED3F01B50D9261C50DA225F
:100748001DC0DEFF1EC0DDFF20EED1F01B50D926F4
:100758001C50DA22DE06000EDD5A58EF04F020EEB7
:10076800DFF01B50D9261C50DA22DECF1DF0DDCF7A
:100778001EF020EEC9F01B50D9261C50DA22DECF1D
:100788001FF0DDCF20F01D501F5E1E50205A205054
:1007980007E11E0E1F5CD8B0D4EF03F0D6EF03F0CC
:1007A800F0EF03F020EED3F01B50D9261C50DA22CC
:1007B800DECF1DF0DDCF1EF01D1E1E1E1D4A1E2A97
:1007C80020EED3F01B50D9261C50DA221DC0DEFFC4
:1007D8001EC0DDFF58EF04F020EEDFF01B50D926D5
:1007E8001C50DA22DECF1DF0DDCF1EF020EEC9F05E
:1007F8001B50D9261C50DA22DECF1FF0DDCF20F0A7
:100808001D501F5E1E50205A205007E1280E1F5C05
:10081800D8B011EF04F013EF04F036EF04F020EE37
:10082800D3F01B50D9261C50DA22DECF1DF0DDCFC5
:100838001EF01D1E1E1E1D4A1E2A20EED3F01B5040
:10084800D9261C50DA221DC0DEFF1EC0DDFF20EEB7
:10085800D1F01B50D9261C50DA22DE2A000EDD22E8
:1008680058EF04F020EED3F01B50D9261C50DA22A2
:10087800DECF1DF0DDCF1EF01D1E1E1E1D4A1E2AD6
:1008880020EED3F01B50D9261C50DA221DC0DEFF03
:100898001EC0DDFF20EED1F01B50D9261C50DA22F5
:1008A800020EDE26000EDD2220EEEBF01B50D926CC
:1008B8001C50DA22DE2A000EDD22000E186E0E0E03
:1008C800C5EC2EF0F80E1D6EFF0E1E6E20EECBF05E
:1008D8001B50D9261C50DA22DECF1FF0DDCF20F0C6
:1008E8001D501F261E502022FB0E216EFF0E226E69
:1008F80020EEE1F01B50D9261C50DA22DECF23F07F
:10090800DDCF24F021502326225024221F50235CBF
:1009180020502458D8A093EF04F095EF04F0A6EFE8
:1009280004F0000E186E090EC5EC2EF020EEEBF068
:100938001B50D9261C50DA22000EDE6E000EDD6E2A
:10094800040E4D6E20EED7F01B50D9261C50DA222B
:10095800DECF1DF0DDCF1EF0050E1D26000E1E2277
:1009680020EECBF01B50D9261C50DA22DECF1FF028
:10097800DDCF20F0080E1F26000E20221D501F5C20
:100988001E502058D8A0CBEF04F0CDEF04F0DEEFD6
:1009980004F0000E186E090EC5EC2EF020EEE9F0FA
:1009A8001B50D9261C50DA22000EDE6E000EDD6EBA
:1009B800040E4D6E120027C071F028C072F00A0EA6
:1009C800000171252D6E000E72212E6E2DC0F6FFCE
:1009D8002EC0F7FF0900F5CF60F00900F5CF61F0F0
:1009E8000900F5CF62F00A00F5CF63F0120E712509
:1009F8002D6E000E72212E6E2DC0F6FF2EC0F7FF51
:100A08000900F5CF76F00A00F5CF77F0160E7125BC
:100A18002D6E000E72212E6E2DC0F6FF2EC0F7FF30
:100A28000900F5CF6BF00A00F5CF6CF01C0E7125AC
:100A38002D6E000E72212E6E2DC0F6FF2EC0F7FF10
:100A48000900080EF5180900F510D8A42EEF05F0D6
:100A580030EF05F0D9EF07F01E0E71252D6E000E50
:100A680072212E6E2DC0F6FF2EC0F7FF0900F50487
:100A78000900F5100900F5100900F510D8B447EF82
:100A880005F049EF05F04BEF05F0D9EF07F0765187
:100A980029242D6E77512A202E6E2E5007E1F10E53
:100AA8002D5CD8B05AEF05F05CEF05F0D9EF07F0F0
:100AB8006B512B242D6E6C512C202E6E410E2D5C0B
:100AC800010E2E58D8A06BEF05F06DEF05F06FEF13
:100AD80005F0D9EF07F0360E806E8B988B968B86D3
:100AE8008B88800E806E8B968B86360E2724696FD6
:100AF800000E28206A6F6051272661512822000EB7
:100B0800646F69C012F06AC013F009EC2AF012C0D1
:100B180078F013C079F02A0E806E8B988B968B86AE
:100B28008B882A50806E8B968B8629C080FF8B9687
:100B38008B860001765129242D6E77512A202E6E3E
:100B4800FF0E2D24296EFF0E2E202A6E2A50806E4D
:100B58008B968B8629C080FF8B968B862B0E806E9A
:100B68008B988B968B868B882BC02DF02CC02EF003
:100B78002D1E2E1E2D4A2E2A6B512D5E6C512E5A7B
:100B8800400E2D24736F010E2E20746F7451806EE9
:100B98008B968B8673C080FF8B968B866B517325E3
:100BA8002D6E6C5174212E6EFF0E2D24736FFF0E67
:100BB8002E20746F7451806E8B968B8673C080FF65
:100BC8008B968B862C0E806E8B988B968B868B885B
:100BD800000E706F000E6F6F000E686F000E676F6B
:100BE80027C0F6FF28C0F7FF0800F5500009D8A471
:100BF80000EF06F002EF06F07DEF07F059EF07F07F
:100C0800020E2726000E2822000E7B6F000E7A6F38
:100C180018EF06F07951806E8B968B8678C080FF2E
:100C28008B968B867A4B7B2B6F51765D2D6E705130
:100C380077592E6E2D507A5D2E507B59D8A027EF0C
:100C480006F029EF06F00EEF06F0000E706F000EAA
:100C58006F6F674B682BC6EF07F0000E7B6F000EB7
:100C68007A6F41EF06F07951806E8B968B8678C04B
:100C780080FF8B968B867A4B7B2B6F51765D2D6E22
:100C8800705177592E6E2D507A5D2E507B59D8A011
:100C980050EF06F052EF06F037EF06F0000E7B6FCC
:100CA800000E7A6F62EF06F07951806E8B968B8614
:100CB80078C080FF8B968B867A4B7B2B67516B5D58
:100CC8002D6E68516C592E6EFF0E2D241A6EFF0E74
:100CD8002E201B6E76C01CF077C01DF090EC31F012
:100CE8001A5000017A5D1B507B59D8A07EEF06F0A0
:100CF80080EF06F058EF06F0010E646FC6EF07F0BC
:100D0800030E27242D6E000E28202E6E2DC0F6FF10
:100D18002EC0F7FF0800F5501A6E1B6A76C01CF04B
:100D280077C01DF090EC31F0020E27242F6E000ED4
:100D38002820306E2FC0F6FF30C0F7FF0800F550AE
:100D48001A240001656F000E1B20666F000E7B6F72
:100D5800000E7A6FBCEF06F06F4B702B7951806EE6
:100D68008B968B8678C080FF8B968B867A4B7B2BF5
:100D780065517A5D66517B59D8A0C5EF06F0C7EF7B
:100D880006F0B0EF06F065C020F066C021F076C02E
:100D980022F077C023F051EC2EF000016751202497
:100DA800676F68512120686F6FC012F070C013F030
:100DB80076C014F077C015F0F7EC2EF012C06FF083
:100DC80013C070F0040E2726000E2822C6EF07F085
:100DD800010E27242D6E000E28202E6E2DC0F6FF42
:100DE8002EC0F7FF0800F5CF75F0000E7B6F000EE0
:100DF8007A6F2DEF07F07A5127242D6E7B5128202A
:100E08002E6E020E2D26000E2E222DC0F6FF2EC0AD
:100E1800F7FF0800F550040DF3CF2FF0F4CF30F0B2
:100E28002F506925126E30506A21136E09EC2AF092
:100E380012C06DF013C06EF000016F4B702B6E5135
:100E4800806E8B968B866DC080FF8B968B867A4BD7
:100E58007B2B75512D6E2E6A2D507A5D2E507B5945
:100E6800D8A039EF07F03BEF07F0FFEF06F0752940
:100E7800D8B441EF07F043EF07F053EF07F07529B7
:100E8800FE0B756F75512D6E2E6A020E2D26000E03
:100E98002E222D5027262E502822C6EF07F0020EAC
:100EA8002726010E2822C6EF07F0010E27242D6EF3
:100EB800000E28202E6E2DC0F6FF2EC0F7FF08006A
:100EC800F5502F6E306A3050000AD8B46EEF07F034
:100ED800ECEF06F02F50000AD8B404EF06F0010A30
:100EE800D8B431EF06F0030AD8B484EF06F0ECEF7B
:100EF80006F027C0F6FF28C0F7FF0800F5CF75F009
:100F0800010E27242D6E000E28202E6E2DC0F6FF10
:100F18002EC0F7FF0800F550040DF3CF2FF0F4CFE3
:100F280030F02F506925126E30506A21136E09EC8B
:100F38002AF012C06DF013C06EF0000E00017B6F36
:100F4800000E7A6FB4EF07F06F4B702B6E51806E06
:100F58008B968B866DC080FF8B968B867A4B7B2B0E
:100F680075512D6E2E6A2D507A5D2E507B59D8A062
:100F7800C0EF07F0C2EF07F0A8EF07F0020E272630
:100F8800000E282200016451D8B4CDEF07F0CFEF4E
:100F980007F0F4EF05F0360E806E8B988B968B86F3
:100FA8008B88000E806E8B968B861200000E0001D7
:100FB8008C6F000E8B6F7CC0D9FF7DC0DAFFDECF4F
:100FC8008DF0DDCF8EF020EE04F07C51D9267D51D6
:100FD800DA22DECF7EF0DDCF7FF07CC0D9FF7DC086
:100FE800DAFFDECF80F0DDCF81F07E5180258F6F74
:100FF8007F518121906F20EE02F07C51D9267D51DE
:10100800DA22DECF91F0DDCF92F020EE06F07C51AF
:10101800D9267D51DA22DECF7EF0DDCF7FF020EEBB
:1010280002F07C51D9267D51DA22DECF80F0DDCF67
:1010380081F07E518025936F7F518121946F20EE3E
:1010480008F07C51D9267D51DA2210EE0AF07C5145
:10105800E1267D51E222DE50E61809E1DE50E6186D
:10106800D8B439EF08F03BEF08F078EF08F08DC0FE
:1010780012F08EC013F091C014F092C015F08FC01A
:1010880016F090C017F093C018F094C019F0010E34
:101098001A6E20EE0AF07C51D9267D51DA22DECF75
:1010A8001BF0DDCF1CF09AEC16F08DC012F08EC04C
:1010B80013F091C014F092C015F08FC016F090C0D4
:1010C80017F093C018F094C019F0000E1A6E0001C2
:1010D80020EE08F07C51D9267D51DA22DECF1BF0B4
:1010E800DDCF1CF09AEC16F0000120EE0CF07C51DC
:1010F800D9267D51DA22DECFF6FFDDCFF7FF0800D3
:10110800F550420AD8A48BEF08F08DEF08F03DEFB8
:1011180009F020EE0CF07C51D9267D51DA22DECF81
:101128007EF0DDCF7FF0010E7E27000E7F237EC08C
:10113800F6FF7FC0F7FF0800F5504D0AD8A4A7EFC7
:1011480008F0A9EF08F03DEF09F020EE0CF07C5113
:10115800D9267D51DA22DECF9AF0DDCF9BF020EE42
:1011680002F07C51D9267D51DA22DECF7EF0DDCF28
:101178007FF0160E9A25806F000E9B21816F80C02C
:10118800F6FF81C0F7FF0900F5CF82F00900F5CF1F
:1011980083F00900F5CF84F00900F5CF85F0D890E9
:1011A800853384338333823320EE06F07C51D9268D
:1011B8007D51DA22DECF86F0DDCF87F0D8908731F7
:1011C800896F8631886F8251885F8351895B7E5130
:1011D8008825976F7F518921986F7CC0D9FF7DC082
:1011E800DAFFDECF7EF0DDCF7FF0120E9A25806F1A
:1011F800000E9B21816F80C0F6FF81C0F7FF0900B8
:10120800F5CF82F00900F5CF83F00900F5CF84F01F
:101218000900F5CF85F0D890853384338333823342
:1012280020EE04F07C51D9267D51DA22DECF86F0FB
:10123800DDCF87F0D8908731896F8631886F8251EA
:10124800885F8351895B7E518825956F7F518921FD
:10125800966F9AC027F09BC028F095C029F096C0D9
:101268002AF097C02BF098C02CF0DFEC04F04AEF7E
:101278000AF020EE02F07C51D9267D51DA22DECF29
:101288007EF0DDCF7FF020EE0EF07C51D9267D5127
:10129800DA22DECFF6FFDDCFF7FF0800F550126E39
:1012A800136A000E156E020E146EE5EC28F00001AC
:1012B80020EE06F07C51D9267D51DA22DECF80F06F
:1012C800DDCF81F0D8908131836F8031826F1250E9
:1012D800825F1350835B7E518225976F7F518321F4
:1012E800986F000E996FD5EF09F020EE0EF07C5143
:1012F800D9267D51DA22DECF7EF0DDCF7FF0010ED8
:101308007E27000E7F237EC0F6FF7FC0F7FF080010
:10131800F5CF80F020EE0CF07C51D9267D51DA22F1
:10132800DECF81F0DDCF82F099518127000E822334
:1013380081C0F6FF82C0F7FF0800F5CF83F0805127
:10134800835D8A6F8A51030D20EE0EF07C51D926F9
:101358007D51DA22DECF7EF0DDCF7FF0030E7E27CF
:10136800000E7F237EC0F6FF7FC0F7FF0900F5CF90
:1013780080F00900F5CF81F0F3508027F4508123E5
:1013880080C0F6FF81C0F7FF0800F550826F836BBD
:10139800020E8227000E832382518B2783518C23D0
:1013A800992B20EE0CF07C51D9267D51DA22DECF24
:1013B80012F0DDCF13F063EC30F0000199517E6F2D
:1013C8007F6B12507E5D13507F59D8A0EEEF09F065
:1013D800F0EF09F079EF09F07CC0D9FF7DC0DAFFA2
:1013E800DECF7EF0DDCF7FF0D8908C31816F8B31EE
:1013F800806F20EE04F07C51D9267D51DA22DECFB1
:1014080082F0DDCF83F0D8908331856F8231846F8D
:101418008051845F8151855B7E518425956F7F5112
:101428008521966F20EE0CF07C51D9267D51DA2269
:10143800DECF20F0DDCF21F020EE0EF07C51D92652
:101448007D51DA22DECF22F0DDCF23F0000E246EAC
:1014580095C025F096C026F097C027F098C028F0D0
:1014680020EE08F07C51D9267D51DA22DECF29F012
:10147800DDCF2AF020EE0AF07C51D9267D51DA2200
:10148800DECF2BF0DDCF2CF00BEC0FF07CC025F07D
:101498007DC026F033EC1CF0120020EE0EF0275031
:1014A800D9262850DA22DE50DE10D8B45EEF0AF0D2
:1014B80060EF0AF0ECEF0AF027C0D9FF28C0DAFF86
:1014C800DECF29F0DDCF2AF020EE0EF02750D92606
:1014D8002850DA22DECF2BF0DDCF2CF020EE04F0FE
:1014E8002750D9262850DA22DECF2DF0DDCF2EF076
:1014F8002B502D5C1A6E2C502E581B6E20EE13F0BC
:101508002750D9262850DA22DECF1CF0DDCF1DF077
:1015180090EC31F01AC020F01BC021F020EE15F03D
:101528002750D9262850DA22DECF22F0DDCF23F04B
:1015380051EC2EF0295020262A502122010E202479
:10154800356E000E2120366E20EE0EF02750D9267B
:101558002850DA22DECF29F0DDCF2AF035502926AF
:1015680036502A22FE0E29242F6EFF0E2A20306EB6
:1015780020EE02F02750D9262850DA22DECF29F0B3
:10158800DDCF2AF0020E2924316E000E2A20326E99
:1015980020EE06F02750D9262850DA22DECF29F08F
:1015A800DDCF2AF020EE02F02750D9262850DA2283
:1015B800DECF2BF0DDCF2CF029502B262A502C2201
:1015C800FE0E2B24336EFF0E2C20346E60EF0BF0D2
:1015D80027C0D9FF28C0DAFFDECF29F0DDCF2AF0F7
:1015E800010E2924356E000E2A20366E27C0D9FF39
:1015F80028C0DAFFDECF29F0DDCF2AF020EE04F094
:101608002750D9262850DA22DECF1AF0DDCF1BF07A
:1016180020EE13F02750D9262850DA22DECF1CF00E
:10162800DDCF1DF090EC31F01AC020F01BC021F086
:1016380020EE15F02750D9262850DA22DECF22F0E6
:10164800DDCF23F051EC2EF0295020262A502122FC
:10165800FF0E20242F6EFF0E2120306E20EE02F0A8
:101668002750D9262850DA22DECF29F0DDCF2AF0FC
:10167800020E2924316E000E2A20326E20EE06F06A
:101688002750D9262850DA22DECF29F0DDCF2AF0DC
:1016980020EE02F02750D9262850DA22DECF2BF090
:1016A800DDCF2CF029502B262A502C22FE0E2B247D
:1016B800336EFF0E2C20346E35C012F036C013F096
:1016C80031C014F032C015F02FC016F030C017F03A
:1016D80033C018F034C019F0010E1A6E20EE0AF06B
:1016E8002750D9262850DA22DECF1BF0DDCF1CF098
:1016F8009AEC16F020EE11F02750D9262850DA225D
:1017080010EE13F02750E1262850E222DECFE6FF44
:10171800DDCFE5FF20EE0EF02750D9262850DA223B
:10172800DE50DE10D8A49BEF0BF09DEF0BF013EF0B
:101738000CF027C0D9FF28C0DAFFDECF29F0DDCFB3
:101748002AF0010E2924356E000E2A20366E27C095
:10175800D9FF28C0DAFFDECF29F0DDCF2AF020EE4E
:1017680004F02750D9262850DA22DECF1AF0DDCF30
:101778001BF020EE11F02750D9262850DA22DECFB0
:101788001CF0DDCF1DF090EC31F01AC020F01BC02A
:1017980021F020EE15F02750D9262850DA22DECF86
:1017A80022F0DDCF23F051EC2EF0295020262A50CC
:1017B8002122FF0E20242F6EFF0E2120306E20EEF6
:1017C80002F02750D9262850DA22DECF29F0DDCFC3
:1017D8002AF0020E2924316E000E2A20326E20EEE5
:1017E80006F02750D9262850DA22DECF29F0DDCF9F
:1017F8002AF020EE02F02750D9262850DA22DECF30
:101808002BF0DDCF2CF029502B262A502C22FE0E4F
:101818002B24336EFF0E2C20346E9DEF0CF027C066
:10182800D9FF28C0DAFFDECF29F0DDCF2AF020EE7D
:101838000EF02750D9262850DA22DECF2BF0DDCF44
:101848002CF020EE04F02750D9262850DA22DECFDB
:101858002DF0DDCF2EF02B502D5C1A6E2C502E580B
:101868001B6E20EE11F02750D9262850DA22DECF41
:101878001CF0DDCF1DF090EC31F01AC020F01BC039
:1018880021F020EE15F02750D9262850DA22DECF95
:1018980022F0DDCF23F051EC2EF0295020262A50DB
:1018A8002122010E2024356E000E2120366E20EEF6
:1018B8000EF02750D9262850DA22DECF29F0DDCFC6
:1018C8002AF03550292636502A22FE0E29242F6E5A
:1018D800FF0E2A20306E20EE02F02750D92628501D
:1018E800DA22DECF29F0DDCF2AF0020E2924316E6C
:1018F800000E2A20326E20EE06F02750D9262850F6
:10190800DA22DECF29F0DDCF2AF020EE02F02750D0
:10191800D9262850DA22DECF2BF0DDCF2CF0295043
:101928002B262A502C22FE0E2B24336EFF0E2C2041
:10193800346E35C012F036C013F031C014F032C026
:1019480015F02FC016F030C017F033C018F034C0AF
:1019580019F0010E1A6E20EE08F02750D9262850EB
:10196800DA22DECF1BF0DDCF1CF09AEC16F0120065
:1019780020EE04F01850D9261950DA22010EDB5057
:1019880009E1320EDE5CD8A0CCEF0CF0CEEF0CF003
:10199800ECEF0CF020EE04F01850D9261950DA229A
:1019A800010EDB5007E1400EDE5CD8B0DEEF0CF034
:1019B800E0EF0CF0ECEF0CF018C012F019C013F0C7
:1019C800000E156E000E146E8AEC30F0FCEF0EF06F
:1019D80020EE04F01850D9261950DA22010EDB50F7
:1019E80009E1400EDE5CD8A0FCEF0CF0FEEF0CF035
:1019F8001CEF0DF020EE04F01850D9261950DA2209
:101A0800010EDB5007E14E0EDE5CD8B00EEF0DF094
:101A180010EF0DF01CEF0DF018C012F019C013F004
:101A2800000E156E010E146E8AEC30F0FCEF0EF00D
:101A380020EE04F01850D9261950DA22010EDB5096
:101A480009E14E0EDE5CD8A02CEF0DF02EEF0DF064
:101A58004CEF0DF020EE04F01850D9261950DA2278
:101A6800010EDB5007E15C0EDE5CD8B03EEF0DF0F6
:101A780040EF0DF04CEF0DF018C012F019C013F044
:101A8800000E156E020E146E8AEC30F0FCEF0EF0AC
:101A980020EE04F01850D9261950DA22010EDB5036
:101AA80009E15C0EDE5CD8A05CEF0DF05EEF0DF096
:101AB8007CEF0DF020EE04F01850D9261950DA22E8
:101AC800010EDB5007E16A0EDE5CD8B06EEF0DF058
:101AD80070EF0DF07CEF0DF018C012F019C013F084
:101AE800000E156E030E146E8AEC30F0FCEF0EF04B
:101AF80020EE04F01850D9261950DA22010EDB50D6
:101B080009E16A0EDE5CD8A08CEF0DF08EEF0DF0C7
:101B1800ACEF0DF020EE04F01850D9261950DA2257
:101B2800010EDB5007E1780EDE5CD8B09EEF0DF0B9
:101B3800A0EF0DF0ACEF0DF018C012F019C013F0C3
:101B4800000E156E040E146E8AEC30F0FCEF0EF0E9
:101B580020EE04F01850D9261950DA22010EDB5075
:101B680009E1780EDE5CD8A0BCEF0DF0BEEF0DF0F9
:101B7800DCEF0DF020EE04F01850D9261950DA22C7
:101B8800010EDB5007E1860EDE5CD8B0CEEF0DF01B
:101B9800D0EF0DF0DCEF0DF018C012F019C013F003
:101BA800000E156E050E146E8AEC30F0FCEF0EF088
:101BB80020EE04F01850D9261950DA22010EDB5015
:101BC80009E1860EDE5CD8A0ECEF0DF0EEEF0DF02B
:101BD8000CEF0EF020EE04F01850D9261950DA2236
:101BE800010EDB5007E1960EDE5CD8B0FEEF0DF07B
:101BF80000EF0EF00CEF0EF018C012F019C013F041
:101C0800000E156E060E146E8AEC30F0FCEF0EF026
:101C180020EE04F01850D9261950DA22010EDB50B4
:101C280009E1960EDE5CD8A01CEF0EF01EEF0EF058
:101C38003CEF0EF020EE04F01850D9261950DA22A5
:101C4800010EDB5007E1A40EDE5CD8B02EEF0EF0DB
:101C580030EF0EF03CEF0EF018C012F019C013F080
:101C6800000E156E070E146E8AEC30F0FCEF0EF0C5
:101C780020EE04F01850D9261950DA22010EDB5054
:101C880009E1A40EDE5CD8A04CEF0EF04EEF0EF08A
:101C98006CEF0EF020EE04F01850D9261950DA2215
:101CA800010EDB5007E1B20EDE5CD8B05EEF0EF03D
:101CB80060EF0EF06CEF0EF018C012F019C013F0C0
:101CC800000E156E080E146E8AEC30F0FCEF0EF064
:101CD80020EE04F01850D9261950DA22010EDB50F4
:101CE80009E1B20EDE5CD8A07CEF0EF07EEF0EF0BC
:101CF8009CEF0EF020EE04F01850D9261950DA2285
:101D0800010EDB5007E1C00EDE5CD8B08EEF0EF09E
:101D180090EF0EF09CEF0EF018C012F019C013F0FF
:101D2800000E156E090E146E8AEC30F0FCEF0EF002
:101D380020EE04F01850D9261950DA22010EDB5093
:101D480009E1C00EDE5CD8A0ACEF0EF0AEEF0EF0ED
:101D5800CCEF0EF020EE04F01850D9261950DA22F4
:101D6800010EDB5007E1CE0EDE5CD8B0BEEF0EF000
:101D7800C0EF0EF0CCEF0EF018C012F019C013F03F
:101D8800000E156E0A0E146E8AEC30F0FCEF0EF0A1
:101D980020EE04F01850D9261950DA22010EDB5033
:101DA80009E1CE0EDE5CD8A0DCEF0EF0DEEF0EF01F
:101DB800FCEF0EF020EE04F01850D9261950DA2264
:101DC800010EDB5007E1D70EDE5CD8B0EEEF0EF067
:101DD800F0EF0EF0FCEF0EF018C012F019C013F07F
:101DE800000E156E0B0E146E8AEC30F0FCEF0EF040
:101DF80018C0D9FF19C0DAFF10EEC1F01850E1265B
:101E08001950E222DECFE6FFDDCFE5FF1200000E1B
:101E1800416E000E3E6E60EF0FF0010E22242D6E13
:101E2800000E23202E6E2DC0F6FF2EC0F7FF0800EF
:101E3800F5CF2FF03E502024306E000E2120316E59
:101E480030C0F6FF31C0F7FFF86A050EF76403D01B
:101E58000800F55005D0F6CFE1FFF7CFE2FFE750D5
:101E6800326E2F50325C3F6E3F501A6E1B6A1ABE9C
:101E78001B06000E1D6E030E1C6E90EC31F0030E57
:101E880022242D6E000E23202E6E2DC0F6FF2EC0AC
:101E9800F7FF0900F5CF2FF00900F5CF30F01A5001
:101EA8002F261B5030222FC0F6FF30C0F7FF080046
:101EB800F550020F41263E2A20C012F021C013F02F
:101EC80063EC30F03E502D6E2E6A12502D5C13508C
:101ED8002E58D8A072EF0FF074EF0FF011EF0FF03B
:101EE8002404D8A47AEF0FF07CEF0FF085EF0FF001
:101EF8004150255C256E2650D8A02604266E9DEFFD
:101F08000FF0020E2418D8A48CEF0FF08EEF0FF00C
:101F18009DEF0FF041C012F0136A000E156E020E0D
:101F2800146EE5EC28F01250255C256E13502658E7
:101F3800266E010E22242D6E000E23202E6E2DC03B
:101F4800F6FF2EC0F7FF0800F5CF2FF020C0F6FFF0
:101F580021C0F7FFF86A050EF76403D00800F550B2
:101F680005D0F6CFE1FFF7CFE2FFE750306E2F50F4
:101F7800305C3F6E3F501A6E1B6A1ABE1B06000E7D
:101F88001D6E030E1C6E90EC31F0030E22242D6E94
:101F9800000E23202E6E2DC0F6FF2EC0F7FF09007D
:101FA800F5CF2FF00900F5CF30F01A502F261B502F
:101FB8003022010E2F26000E30222FC0F6FF30C02F
:101FC800F7FF0900F5CF33F00A00F5CF34F03F50A2
:101FD8001A6E1B6A1ABE1B06000E1D6E030E1C6EBF
:101FE80090EC31F0030E22242D6E000E23202E6E6D
:101FF8002DC0F6FF2EC0F7FF0900F5CF2FF009001E
:10200800F5CF30F01A502F261B5030222FC0F6FF84
:1020180030C0F7FF0800F5CF41F02A0E806E8B988C
:102028008B968B868B882650806E8B968B8625C0E8
:1020380080FF8B968B86415025242D6E000E26201E
:102048002E6E010E2D243B6E000E2E203C6E3C5051
:10205800806E8B968B863BC080FF8B968B862B0E73
:10206800806E8B988B968B868B882850806E8B968B
:102078008B8627C080FF8B968B8622C0F6FF23C0F5
:10208800F7FF0800F55027242D6E000E28202E6E2D
:10209800FF0E2D24396EFF0E2E203A6E3A50806EB8
:1020A8008B968B8639C080FF8B968B862C0E806E24
:1020B8008B988B968B868B88000E3D6EFBEF10F00D
:1020C8003DC01AF01B6A000E156E080E146E070E3E
:1020D8004124126E136A000E1322E5EC28F012C098
:1020E8001CF013C01DF090EC31F033501A24356EFB
:1020F80034501B20366E000E406EDAEF10F040C0F0
:1021080012F0136A000E156E080E146EE5EC28F036
:10211800050E22242D6E000E23202E6E2DC0F6FFF4
:102128002EC0F7FF0900F5CF2FF00900F5CF30F0EA
:1021380012502F261350302235502F263650302279
:102148002FC0F6FF30C0F7FF0800F5CF37F040C0CA
:102158002DF0070E2D16800E2E6E000E2F6E2D2AD6
:10216800B9EF10F02F342F322E322D2EB6EF10F09B
:102178002E503714386E3850D8B4C5EF10F0C7EF6A
:1021880010F0D1EF10F02A50806E8B968B8629C004
:1021980080FF8B968B86D9EF10F02C50806E8B9633
:1021A8008B862BC080FFCDEF10F0402A4150405C59
:1021B800D8A0E1EF10F0E3EF10F083EF10F0000E7D
:1021C800406E010E4064EBEF10F0EDEF10F0EFEF12
:1021D80010F0FAEF10F02C50806E8B968B862BC087
:1021E80080FF8B968B86402AE5EF10F03D2A22C0AF
:1021F800F6FF23C0F7FF0900F5503D5CD8A007EFB4
:1022080011F009EF11F064EF10F0415025242D6E04
:10221800000E26202E6E020E2D24256E000E2E2076
:10222800266E204A212A20C0F6FF21C0F7FFF86A4F
:10223800050EF76403D00800F55005D0F6CFE1FF8E
:10224800F7CFE2FFE7500009D8A42DEF11F02FEFE8
:1022580011F09DEF0FF012002BC0D9FF2CC0DAFF50
:102268000B0EDE6E000EDD6E676820EE02F02B505E
:10227800D9262C50DA22000EDE6E000EDD6E20EE1E
:1022880004F02B50D9262C50DA22000EDE6E000EF8
:10229800DD6E20EE06F02B50D9262C50DA22000EE7
:1022A800DE6E000EDD6EE90E2B24126E000E2C2061
:1022B800136E7DEC31F0C90E2B24126E000E2C200B
:1022C800136EDCEC2DF0D50E2B24126E000E2C2094
:1022D800136E000E156E000E146E22EC2BF0DF0E3E
:1022E8002B24126E000E2C20136E000E156E010E9C
:1022F800146E22EC2BF0000E136E820E126E000E7E
:10230800156E320E146E000E176E5A0E166E000EF3
:10231800196E140E186EFF0E1B6E1A68000E1D6ED5
:10232800000E1C6EAB0E1E6E7F0E1F6E7F0E206E93
:102338007F0E216E000E226E000E236E000E246E9C
:10234800000E256E000E266E000E276E080E2B243A
:10235800286E000E2C20296E010E2A6EFAEC24F04D
:10236800000E136E0A0E126E000E156EFA0E146E23
:10237800000E176E460E166E000E196E140E186EAD
:10238800FF0E1B6E1A68000E1D6E000E1C6EC90E25
:102398001E6E7F0E1F6E7F0E206E7F0E216E000E4A
:1023A800226E000E236E000E246E000E256E000EA7
:1023B800266E000E276E200E2B24286E000E2C2071
:1023C800296E020E2A6EFAEC24F0000E136E960E99
:1023D800126E000E156EFA0E146E000E176E460E73
:1023E800166E000E196E140E186EFF0E1B6E1A680C
:1023F800000E1D6E000E1C6ED20E1E6E7F0E1F6E1E
:102408007F0E206E7F0E216E000E226E000E236E50
:10241800000E246E000E256E000E266E000E276E2E
:10242800380E2B24286E000E2C20296E030E2A6EDF
:10243800FAEC24F0000E136E820E126E000E156E6A
:10244800320E146E000E176E5A0E166E000E196EAE
:10245800140E186EFF0E1B6E1A68000E1D6E000E0D
:102468001C6EE30E1E6E7F0E1F6E7F0E206E7F0E9B
:10247800216E000E226E000E236E000E246E000EDA
:10248800256E000E266E000E276E500E2B24286E29
:10249800000E2C20296E040E2A6EFAEC24F0000E91
:1024A800136E0A0E126E000E156EDC0E146E000E00
:1024B800176E460E166E000E196E320E186E000E4E
:1024C8001B6E000E1A6EFF0E1D6E1C68F70E1E6E38
:1024D8007F0E1F6E7F0E206E7F0E216E000E226E05
:1024E800000E236E000E246E000E256E000E266E62
:1024F800000E276E680E2B24286E000E2C20296EE5
:10250800050E2A6EFAEC24F0000E136E960E126E6B
:10251800000E156EDC0E146E000E176E460E166E4B
:10252800000E196E320E186E000E1B6E000E1A6E1B
:10253800FF0E1D6E1C68FB0E1E6E7F0E1F6E7F0E3B
:10254800206E7F0E216E000E226E000E236E000E8E
:10255800246E000E256E000E266E000E276E980E55
:102568002B24286E000E2C20296E060E2A6EFAECFB
:1025780024F0000E136E960E126E000E156EDC0E11
:10258800146E000E176E460E166E000E196E320E81
:10259800186E000E1B6E000E1A6EFF0E1D6E1C6864
:1025A800C00E1E6E7F0E1F6E7F0E206E7F0E216E78
:1025B800000E226E000E236E000E246E000E256E95
:1025C800000E266E000E276E800E2B24286E000E3D
:1025D8002C20296E060E2A6EFAEC24F0000E136EDB
:1025E800320E126E000E156E640E146E000E176E0B
:1025F800A50E166E000E196E140E186E000E1B6EC8
:10260800000E1A6EFF0E1D6E1C68F80E1F6E000E6F
:102618001E6E000E216E000E206E000E236E0B0E35
:10262800226E000E246E000E256EB00E2B24266E30
:10263800000E2C20276EF1EC25F012002350800BA1
:10264800306E23502324376E22AE2DEF13F02FEF78
:1026580013F030EF13F037803750D8B436EF13F05B
:1026680038EF13F04DEF13F03728D8A43EEF13F0EE
:1026780040EF13F048EF13F0000E206E000E216EAD
:10268800000E226E000E236E228E000E236E55EF72
:1026980013F0000E206E000E216E000E226E000E4A
:1026A800236E2750800B301A27502724386E26AE09
:1026B80060EF13F062EF13F063EF13F038803850D7
:1026C800D8B469EF13F06BEF13F080EF13F03828EC
:1026D800D8A471EF13F073EF13F07BEF13F0000E33
:1026E800246E000E256E000E266E000E276E268EB6
:1026F800000E276E88EF13F0000E246E000E256E74
:10270800000E266E000E276E245025102610271066
:10271800D8A491EF13F093EF13F0ABEF13F0000E82
:10272800206E000E216E000E226E000E236E800EAB
:1027380022127F0E23123050231220C020F021C015
:1027480021F022C022F023C023F0EEEF14F037501E
:10275800D8A4B1EF13F0B3EF13F0BDEF13F0000EF0
:10276800206E000E216E000E226E000E236EEEEF1C
:1027780014F0385037C028F0296A285E000E295A0C
:102788007F0E2824316E000E2920326E20C02CF0D6
:1027980021C02DF022C02EF023C02FF0000E206E95
:1027A800000E216E000E226E000E236E000E336E98
:1027B800000E346E000E356E000E366E000E386E4A
:1027C8001EEF14F03850D8B4ECEF13F0EEEF13F01E
:1027D80005EF14F0D8902C362D362E362F36D8909B
:1027E800203621362236233636AEFDEF13F0FFEFC2
:1027F80013F000EF14F02080D89033363436353695
:10280800363624502C5C25502D5826502E582750EB
:102818002F58D8A012EF14F014EF14F01DEF14F095
:10282800368C24502C5E25502D5A26502E5A27506F
:102838002F5A382A190E386424EF14F026EF14F0B2
:10284800E6EF13F02C502D102E102F10D8B42FEFC8
:1028580014F031EF14F049EF14F0338049EF14F01D
:10286800D890203621362236233636AE3EEF14F085
:1028780040EF14F041EF14F02080D890333634360E
:10288800353636363106D8A0320622AE4EEF14F071
:1028980050EF14F034EF14F0000E386E36AE57EFE8
:1028A80014F059EF14F07DEF14F0FF0E3314286E76
:1028B800FF0E3414296EFF0E35142A6E7F0E36145F
:1028C8002B6E285029102A102B10D8B46EEF14F054
:1028D80070EF14F074EF14F0010E386E7DEF14F001
:1028E80020A079EF14F07BEF14F07DEF14F070EF77
:1028F80014F03850D8B483EF14F085EF14F0A9EF32
:1029080014F0010E2026000E21222222232223A0C9
:1029180090EF14F092EF14F0A9EF14F020C028F013
:1029280021C029F022C02AF023C02BF02B342B32EF
:102938002A322932283228C020F029C021F02AC0A2
:1029480022F02BC023F0314A322A32BEB4EF14F001
:10295800325008E13128D8A0B4EF14F0B6EF14F0E3
:10296800C1EF14F0000E326E3168000E206E000EBA
:10297800216E000E226E000E236E32BECEEF14F0D2
:10298800325006E13104D8B0CCEF14F0CEEF14F099
:10299800DCEF14F0000E326E000E316E000E206E69
:1029A800000E216E000E226E000E236E000E306E99
:1029B80031C037F037A0E3EF14F0E5EF14F0E8EF9B
:1029C80014F0228EE9EF14F0229ED8903730236E4F
:1029D8009FEF13F0120078EF16F0080E3724126EEE
:1029E800000E3820136E20EE04F03750D9263850E8
:1029F800DA22DECF14F0DDCF15F020EE06F03750E6
:102A0800D9263850DA22DECF16F0DDCF17F068EC81
:102A180026F00009D8B413EF15F015EF15F020EFE4
:102A280015F0000E186E070EC5EC2EF037C012F028
:102A380038C013F040EC31F0200E3724126E000E2F
:102A48003820136E20EE04F03750D9263850DA2299
:102A5800DECF14F0DDCF15F020EE06F03750D92682
:102A68003850DA22DECF16F0DDCF17F068EC26F00A
:102A78000009D8B442EF15F044EF15F04FEF15F008
:102A8800000E186E050EC5EC2EF037C012F038C0D7
:102A980013F040EC31F0380E3724126E000E382057
:102AA800136E20EE04F03750D9263850DA22DECFE4
:102AB80014F0DDCF15F020EE06F03750D926385047
:102AC800DA22DECF16F0DDCF17F068EC26F0000929
:102AD800D8B471EF15F073EF15F099EF16F0000EFA
:102AE800186E060EC5EC2EF037C012F038C013F081
:102AF80040EC31F099EF16F0B00E3724126E000E4C
:102B08003820136E20EE04F03750D9263850DA22D8
:102B1800DECF14F0DDCF15F020EE06F03750D926C1
:102B28003850DA22DECF16F0DDCF17F0D7EC26F0DA
:102B38000009D8B4A2EF15F0A4EF15F0B8EF15F01E
:102B480037C018F038C019F0BCEC0CF0B00E3724C0
:102B5800276E000E3820286E51EC0AF037C012F0AC
:102B680038C013F040EC31F0500E3724126E000ECE
:102B78003820136E20EE04F03750D9263850DA2268
:102B8800DECF14F0DDCF15F020EE06F03750D92651
:102B98003850DA22DECF16F0DDCF17F068EC26F0D9
:102BA8000009D8B4DAEF15F0DCEF15F099EF16F05C
:102BB800000E186E080EC5EC2EF037C012F038C0A3
:102BC80013F040EC31F099EF16F0040E3918D8A440
:102BD800F0EF15F0F2EF15F0FAEF15F037C01CF032
:102BE80038C01DF077EC25F099EF16F00A0E391869
:102BF800D8A401EF16F003EF16F099EF16F037C0DE
:102C080025F038C026F069EC31F020EEC9F03750D5
:102C1800D9263850DA22DECF3AF0DDCF3BF0320E3B
:102C28003A26000E3B223B5009E1EF0E3A5CD8A051
:102C380020EF16F022EF16F02EEF16F020EEDFF060
:102C48003750D9263850DA22BD0EDE6E000EDD6E02
:102C58003EEF16F020EEC9F03750D9263850DA2268
:102C680010EEDFF03750E1263850E222DECFE6FFE3
:102C7800DDCFE5FF000E186E0C0EC5EC2EF099EFB7
:102C880016F0800E3724126E000E3820136E20EED8
:102C980004F03750D9263850DA22DECF14F0DDCFD1
:102CA80015F020EE06F03750D9263850DA22DECF5C
:102CB80016F0DDCF17F068EC26F00009D8B467EFFE
:102CC80016F069EF16F099EF16F037C02BF038C000
:102CD8002CF030EC11F0000E186E0F0EC5EC2EF033
:102CE800000E4D6E99EF16F04D503A6E3B6A3B5010
:102CF800000AD8B482EF16F099EF16F03A50000A9D
:102D0800D8B4F1EF14F0010AD8B480EF15F0030A33
:102D1800D8B4E9EF15F0010AD8B499EF16F0070A0C
:102D2800D8B445EF16F099EF16F012001C50216E3A
:102D38001BC022F01250165C13501758D8B0A7EFDA
:102D480016F0A9EF16F0B5EF16F012C01FF013C079
:102D580020F016C012F017C013F01FC016F020C0E4
:102D680017F01450185C15501958D8B0BEEF16F06B
:102D7800C0EF16F0CCEF16F014C01FF015C020F00D
:102D880018C014F019C015F01FC018F020C019F0B1
:102D98001A04D8A4D2EF16F0D4EF16F036EF17F0D5
:102DA8002A0E806E8B988B968B868B881350806E3C
:102DB8008B968B8612C080FF8B968B861750806E01
:102DC8008B968B8616C080FF8B968B862B0E806E1B
:102DD8008B988B968B868B881550806E8B968B86FE
:102DE80014C080FF8B968B86010E806E8B968B8627
:102DF8003F0E806E8B968B862C0E806E8B988B96F2
:102E08008B868B8812C023F013C024F029EF17F0AB
:102E180014C01DF015C01EF01CEF17F021C080FF74
:102E28008B968B8622C080FF8B968B861D4A1E2A26
:102E38001D50185C1E501958D8B025EF17F027EF11
:102E480017F012EF17F0234A242A2350165C245057
:102E58001758D8B032EF17F034EF17F00CEF17F01F
:102E680036EF18F02A0E806E8B988B968B868B889F
:102E78001350806E8B968B8612C080FF8B968B8644
:102E88001750806E8B968B8616C080FF8B968B862C
:102E98002B0E806E8B988B968B868B881550806E48
:102EA8008B968B8614C080FF8B968B86010E806E66
:102EB8008B968B863F0E806E8B968B862C0E806E43
:102EC8008B988B968B868B8812C023F013C024F0C6
:102ED80078EF17F021C080FF8B968B8622C080FF89
:102EE8008B968B86234A242A2350165C2450175825
:102EF800D8B081EF17F083EF17F06EEF17F02B0EB5
:102F0800806E8B988B968B868B881950806E8B96EB
:102F18008B8618C080FF8B968B862C0E806E8B98C4
:102F28008B968B868B8812C023F013C024F0A7EFF2
:102F380017F021C080FF8B968B8622C080FF8B966E
:102F48008B86234A242A2350165C24501758D8B05D
:102F5800B0EF17F0B2EF17F09DEF17F02A0E806E62
:102F68008B988B968B868B881350806E8B968B866E
:102F780012C080FF8B968B861350806E8B968B8643
:102F880012C080FF8B968B862B0E806E8B988B964B
:102F98008B868B881550806E8B968B8614C080FF2D
:102FA8008B968B86010E806E8B968B863F0E806E7D
:102FB8008B968B862C0E806E8B988B968B868B8847
:102FC80014C023F015C024F0F4EF17F021C080FFDF
:102FD8008B968B8622C080FF8B968B86234A242A69
:102FE8002350185C24501958D8B0FDEF17F0FFEFA4
:102FF80017F0EAEF17F02A0E806E8B988B968B8667
:103008008B881750806E8B968B8616C080FF8B96A8
:103018008B861750806E8B968B8616C080FF8B969A
:103028008B862C0E806E8B988B968B868B8814C023
:1030380023F015C024F02BEF18F021C080FF8B96E9
:103048008B8622C080FF8B968B86234A242A2350A6
:10305800185C24501958D8B034EF18F036EF18F02F
:1030680021EF18F012002FC068F030C069F031C0AD
:103078006AF032C06BF033C06CF034C06DF035C00C
:103088006EF036C06FF000016FBF4DEF18F050EFD3
:1030980018F0010E51EF18F0000E666F676B66515D
:1030A8006711D8B45AEF18F05CEF18F06CEF18F00D
:1030B8006F1F6E1F6D1F6C1F6B1F6A1F691F686D66
:1030C800000E69236A236B236C236D236E236F2301
:1030D80048BE71EF18F073EF18F074EF18F04992CA
:1030E80048BE81EF18F0485006E14704D8B07FEF9A
:1030F80018F081EF18F087EF18F0000E636F010EDB
:10310800626F8BEF18F047C062F048C063F045C0AB
:1031180064F046C065F066516711D8A496EF18F0C0
:1031280098EF18F09FEF18F049A49DEF18F09FEF63
:1031380018F0A2EF18F06407D8A06507000E716FA9
:103148001F0E706F000EFF6F27EF19F07007D8A0E1
:103158007107E00E7025D96E000E7121DA6E68C015
:1031680012F069C013F06AC014F06BC015F06CC09F
:1031780016F06DC017F06EC018F06FC019F00A0E87
:103188001A6E000E1B6E000E1C6E000E1D6E000ED9
:103198001E6E000E1F6E000E206E000E216EC6EC15
:1031A8001FF012C037F013C038F014C039F015C042
:1031B8003AF016C03BF017C03CF018C03DF019C0FB
:1031C8003EF037C024F039C025F0CEEC30F0245062
:1031D800300FDF6E00016207D8A063076407D8A02C
:1031E800650768C012F069C013F06AC014F06BC0BC
:1031F80015F06CC016F06DC017F06EC018F06FC0F7
:1032080019F00A0E1A6E000E1B6E000E1C6E000ED0
:103218001D6E000E1E6E000E1F6E000E206E000E3C
:10322800216E02EC1FF012C068F013C069F014C0E0
:103238006AF015C06BF016C06CF017C06DF018C0BE
:103248006EF019C06FF0000171BF33EF19F07151C2
:1032580008E17005D8A033EF19F035EF19F065EFE4
:1032680019F0685169116A116B116C116D116E11A9
:103278006F11D8A442EF19F044EF19F0AAEF18F033
:1032880063BF51EF19F0635106E16205D8B04FEF03
:1032980019F051EF19F0AAEF18F065BF5CEF19F0BB
:1032A800655108E16405D8A05CEF19F05EEF19F0EC
:1032B80065EF19F049B263EF19F065EF19F0AAEF5D
:1032C80018F066516711D8A46CEF19F06EEF19F079
:1032D80075EF19F049A473EF19F075EF19F093EF32
:1032E80019F07007D8A0710766516711D8A47FEF4D
:1032F80019F081EF19F087EF19F0000E616F2B0EAE
:10330800606F8BEF19F0000E616F2D0E606FE00E8D
:103318007025D96E000E7121DA6E60C0DFFF2DC0F6
:1033280022F02EC023F0E00E7025246E000E7121CD
:10333800256E64C026F065C027F047EC29F022C04E
:103348002DF023C02EF0120082EC2CF0110E806EAE
:103358008B988B968B868B88000E186ED00E176E06
:10336800CA0EE82EFED7172EFCD7182A090E1864A5
:10337800C0EF19F0C2EF19F0B2EF19F0360E806EF7
:103388008B988B968B868B88000E806E8B968B869F
:103398003A0E806E8B988B968B868B88550E806E36
:1033A8008B968B86B20E806E8B988B968B868B88CD
:1033B8000C0E806E8B968B860C0E806E8B968B8691
:1033C800330E806E8B968B86330E806E8B968B8633
:1033D800B70E806E8B988B968B868B88350E806E99
:1033E8008B968B86BB0E806E8B988B968B868B8884
:1033F8002B0E806E8B968B86C00E806E8B988B966C
:103408008B868B882C0E806E8B968B86C20E806E78
:103418008B988B968B868B88010E806E8B968B860D
:1034280080688B968B86C30E806E8B988B968B8666
:103438008B88110E806E8B968B86C40E806E8B984F
:103448008B968B868B88200E806E8B968B86C60E0D
:10345800806E8B988B968B868B88090E806E8B96E8
:103468008B86D00E806E8B988B968B868B88A40E5D
:10347800806E8B968B86A10E806E8B968B86E00E67
:10348800806E8B988B968B868B88D00E806E8B96F1
:103498008B86000E806E8B968B86050E806E8B96C3
:1034A8008B860E0E806E8B968B86150E806E8B9695
:1034B8008B860D0E806E8B968B86370E806E8B9664
:1034C8008B86430E806E8B968B86470E806E8B960E
:1034D8008B86090E806E8B968B86150E806E8B966A
:1034E8008B86120E806E8B968B86160E806E8B9650
:1034F8008B86190E806E8B968B86E10E806E8B986C
:103508008B968B868B88D00E806E8B968B86000E62
:10351800806E8B968B86050E806E8B968B860D0E35
:10352800806E8B968B860C0E806E8B968B86060E25
:10353800806E8B968B862D0E806E8B968B86440EB6
:10354800806E8B968B86400E806E8B968B860E0EC9
:10355800806E8B968B861C0E806E8B968B86180ED3
:10356800806E8B968B86160E806E8B968B86190EC8
:10357800806E8B968B862A0E806E8B988B968B86A8
:103588008B88000E806E8B968B86000E806E8B96D5
:103598008B86000E806E8B968B86EF0E806E8B96D8
:1035A8008B862B0E806E8B988B968B868B88000E65
:1035B800806E8B968B86000E806E8B968B86010EA6
:1035C800806E8B968B863F0E806E8B968B86260E32
:1035D800806E8B988B968B868B88010E806E8B966F
:1035E8008B86290E806E8B988B968B868B88120023
:1035F8001CEF1CF0F19AB6EC31F032EF1CF0F096AB
:10360800000E3BEC30F0C2B20CEF1BF00EEF1BF0DB
:1036180007EF1BF0C4500001956F946BC3509425BD
:10362800B06F000E9521B16FB15107E1790EB05D11
:10363800D8B021EF1BF023EF1BF027EF1BF0000E93
:10364800B16F780EB06F660E246E660E256E160E7C
:10365800266E400E276E880E946FFF0E956FB0C0D1
:1036680096F0B1C097F0945196279551972396C03C
:1036780012F097C013F0146A156A000E4EEC1DF094
:1036880012C020F013C021F014C022F015C023F09E
:1036980022EC13F020C039F021C03AF022C03BF0F0
:1036A80023C03CF075EC23F039C0B0F03AC0B1F05B
:1036B8000001B051F008B06FB151D8A0E82A000855
:1036C800B16F010E3BEC30F0C2B26DEF1BF06FEF43
:1036D8001BF068EF1BF0C4500001956F946BC3504A
:1036E8009425AE6F000E9521AF6FAF5107E16A0EBA
:1036F800AE5DD8B082EF1BF084EF1BF088EF1BF0B3
:10370800000EAF6F690EAE6F970E946FFF0E956F38
:10371800AEC096F0AFC097F0945196279551972375
:10372800D8909731986F9631AE6F98C0AFF0000E71
:10373800146E090E136E040E156E000E166E17EC3D
:103748002EF0280EC26EB6EC31F0F090F08681B201
:10375800B0EF1BF0B2EF1BF032EF1CF09A0E000135
:10376800846F000E856FEB0E866F7F0E876FB0C07B
:1037780088F0B1C089F012EC30F09A0E206E000E7D
:10378800216E7F0E226E7F0E236E010E246E000EB8
:10379800266EC80E256E000E286EC80E276E000E07
:1037A8002A6E000E296EFF0E2C6E2B680BEC0FF0A4
:1037B80092C012F093C013F0B0C014F0B1C015F06D
:1037C800E5EC31F09A0E0001846F000E856FF10E62
:1037D800866F7F0E876FAEC088F0AFC089F012EC9D
:1037E80030F09A0E206E000E216E7F0E226E7F0E34
:1037F800236E010E246E000E266EC80E256E000E76
:10380800286EFA0E276E000E2A6E000E296EFF0E25
:103818002C6E2B680BEC0FF092C012F093C013F0D3
:10382800AEC014F0AFC015F0DAEC31F032EF1CF096
:103838000001DE51946F956B9551000AD8B427EFBB
:103848001CF032EF1CF09451000AD8B4FEEF1AF0C5
:10385800010AD8B403EF1BF032EF1CF0120025C0A8
:10386800D9FF26C0DAFFDECF33F0DDCF34F020EE0B
:1038780004F02550D9262650DA22DECF27F0DDCFF6
:1038880028F025C0D9FF26C0DAFFDECF29F0DDCF2A
:103898002AF0275029242F6E28502A20306E20EE37
:1038A80002F02550D9262650DA22DECF31F0DDCFBE
:1038B80032F020EE06F02550D9262650DA22DECF47
:1038C80027F0DDCF28F020EE02F02550D92626502B
:1038D800DA22DECF29F0DDCF2AF027502924356EF1
:1038E80028502A20366E20EE10F02550D926265072
:1038F800DA22DF50D8A483EF1CF085EF1CF09BEF91
:103908001CF020EE08F02550D9262650DA22DECF0A
:103918002BF0DDCF2CF020EE0AF02550D9262650CA
:10392800DA22DECF2DF0DDCF2EF0B5EF1CF033C05C
:1039380012F034C013F0010E3524146E000E362038
:10394800156E23EC21F012C02BF013C02CF020EEE2
:1039580008F02550D9262650DA22DECF2DF0DDCF0B
:103968002EF020EE08F02550D9262650DA2210EE47
:103978000AF02550E1262650E222DE50E61809E139
:10398800DE50E618D8B4CBEF1CF0CDEF1CF04DEFAD
:103998001DF0030E3324126E000E3420136E010E38
:1039A8003524146E000E3620156E030E2F24166E65
:1039B800000E3020176E030E3524186E000E3620C8
:1039C800196E010E1A6E2BC01BF02CC01CF09AEC5D
:1039D80016F0010E2F24126E000E3020136E030E07
:1039E8003124146E000E3220156E030E2F24166E2D
:1039F800000E3020176E030E3524186E000E362088
:103A0800196E010E1A6E2BC01BF02CC01CF09AEC1C
:103A180016F0010E3324126E000E3420136E010EC0
:103A28003124146E000E3220156EFF0E2F24166EF0
:103A3800FF0E3020176E020E3124186E000E322051
:103A4800196E010E1A6E2DC01BF02EC01CF09AECD8
:103A580016F0010E3324126E000E3420136E010E80
:103A68003124146E000E3220156E020E3324166EA9
:103A7800000E3420176EFF0E3524186EFF0E362008
:103A8800196E010E1A6E2DC01BF02EC01CF09AEC98
:103A980016F012001A6E1A50D8B455EF1DF057EFF1
:103AA8001DF079EF1DF015BE5EEF1DF05CEF1DF007
:103AB80079EF1DF012C016F013C017F014C018F0FB
:103AC80015C019F0161E171E181E191E162A000EEC
:103AD80017221822192216C01CF017C01DF018C092
:103AE8001EF019C01FF081EF1DF012C01CF013C0AA
:103AF8001DF014C01EF015C01FF012501310141042
:103B08001510D8A48AEF1DF08CEF1DF096EF1DF06C
:103B1800000E126E000E136E000E146E000E156E5F
:103B280027EF1EF0960E1B6EA0EF1DF01B2AD890F3
:103B38001F321E321D321C32000E1C14166E000E6F
:103B48001D14176E000E1E14186EFE0E1F14196E2B
:103B58001650171018101910D8A4B5EF1DF0B7EFAC
:103B68001DF09AEF1DF0C5EF1DF01B2A010E1C2653
:103B7800000E1D221E221F22D8901F321E321D3217
:103B88001C32000E1C14166E000E1D14176E000E4B
:103B98001E14186EFF0E1F14196E165017101810E9
:103BA8001910D8A4DAEF1DF0DCEF1DF0B9EF1DF005
:103BB800E4EF1DF01B06D8901C361D361E361F3646
:103BC8001EBEE9EF1DF0EBEF1DF0F3EF1DF0020E46
:103BD8001B60F1EF1DF0F3EF1DF0DEEF1DF01BB0E1
:103BE800F8EF1DF0FAEF1DF0FBEF1DF01E9ED890C8
:103BF8001B321BC016F0176A186A196A16C019F02A
:103C0800186A176A166A16501C1217501D12185097
:103C18001E1219501F121A50D8B415EF1EF017EFC4
:103C28001EF01FEF1EF015BE1EEF1EF01CEF1EF05B
:103C38001FEF1EF01F8E1CC012F01DC013F01EC017
:103C480014F01FC015F0120041C0D9FF42C0DAFFBE
:103C5800DECFF6FFDDCFF7FF0800F550250AD8A420
:103C680038EF1EF03AEF1EF0E6EF1EF041C0D9FF24
:103C780042C0DAFFDE2A000EDD22000E466E000E7C
:103C8800456E45C049F046C04AF04768486841C09B
:103C9800D9FF42C0DAFFDECFF6FFDDCFF7FF08001D
:103CA800F550640AD8B45BEF1EF05DEF1EF06FEFBD
:103CB8001EF041C0D9FF42C0DAFFDECFF6FFDDCFEC
:103CC800F7FF0800F550690AD8A46DEF1EF06FEFF2
:103CD8001EF0B0EF1EF041C0D9FF42C0DAFFDE2A65
:103CE800000EDD2243C0D9FF44C0DAFFDFCF72F0F7
:103CF800020EDE26DFCF73F0000EDD2272C0D9FF80
:103D080073C0DAFFDECF74F0DDCF75F00001000E6E
:103D180075BFFF0E766F776F786F796F7A6F7B6FED
:103D28003FC02DF040C02EF074C02FF075C030F0A9
:103D380076C031F077C032F078C033F079C034F013
:103D48007AC035F07BC036F037EC18F02DC03FF064
:103D58002EC040F001EF1FF041C0D9FF42C0DAFF8A
:103D6800DECFF6FFDDCFF7FF0800F550250AD8A40F
:103D7800C0EF1EF0C2EF1EF0D9EF1EF041C0D9FF10
:103D880042C0DAFFDE2A000EDD22000E136E250E79
:103D9800126E3FC014F040C015F01CEC28F0000E65
:103DA800406E010E3F6E01EF1FF041C0D9FF42C0C7
:103DB800DAFFDE2A000EDD22000E406E000E3F6E96
:103DC80001EF1FF041C0D9FF42C0DAFFDECFF6FF96
:103DD800DDCFF7FF0800F550126E136A3FC014F0EC
:103DE80040C015F01CEC28F041C0D9FF42C0DAFFF2
:103DF800DE2A000EDD22D3EF1EF01200000E236E25
:103E080021BE0BEF1FF009EF1FF01DEF1FF0211E61
:103E1800201E1F1E1E1E1D1E1C1E1B1E1A6C000EA1
:103E28001B221C221D221E221F2220222122010EBB
:103E3800236E19BE24EF1FF022EF1FF036EF1FF09C
:103E4800191E181E171E161E151E141E131E126C80
:103E5800000E1322142215221622172218221922C4
:103E6800010E231A20EE24F0070EDE6AE806FDE2B2
:103E78001A501B101C101D101E101F10201021108E
:103E8800D8B449EF1FF04BEF1FF09DEF1FF0010E64
:103E9800226E59EF1FF0D8901A361B361C361D3685
:103EA8001E361F3620362136222A21AE5EEF1FF03D
:103EB80060EF1FF04FEF1FF0D890243625362636D6
:103EC8002736283629362A362B361A50125C1B50CC
:103ED80013581C5014581D5015581E5016581F5072
:103EE80017582050185821501958D8A07EEF1FF0A5
:103EF80080EF1FF091EF1FF01A50125E1B50135AFB
:103F08001C50145A1D50155A1E50165A1F50175A35
:103F18002050185A2150195A2480D8902132203222
:103F28001F321E321D321C321B321A32222E60EF13
:103F38001FF02350D8B4A3EF1FF0A5EF1FF0B5EF83
:103F48001FF02B1E2A1E291E281E271E261E251E70
:103F5800246C000E252226222722282229222A2202
:103F68002B2224C012F025C013F026C014F027C05D
:103F780015F028C016F029C017F02AC018F02BC079
:103F880019F01200000E236E19BECFEF1FF0CDEF0F
:103F98001FF0E1EF1FF0191E181E171E161E151E22
:103FA800141E131E126C000E132214221522162240
:103FB800172218221922010E236E21BEE8EF1FF0E6
:103FC800E6EF1FF0F8EF1FF0211E201E1F1E1E1E19
:103FD8001D1E1C1E1B1E1A6C000E1B221C221D22DD
:103FE8001E221F22202221221A501B101C101D10D5
:103FF8001E101F1020102110D8B405EF20F007EF75
:1040080020F04FEF20F0010E226E15EF20F0D8902F
:104018001A361B361C361D361E361F3620362136FC
:10402800222A21AE1AEF20F01CEF20F00BEF20F02F
:104038001A50125C1B5013581C5014581D50155818
:104048001E5016581F5017582050185821501958EC
:10405800D8A031EF20F033EF20F043EF20F01A50D2
:10406800125E1B50135A1C50145A1D50155A1E50DC
:10407800165A1F50175A2050185A2150195AD890BA
:10408800213220321F321E321D321C321B321A32AC
:10409800222E1CEF20F02350D8B455EF20F057EF14
:1040A80020F067EF20F0191E181E171E161E151E89
:1040B800141E131E126C000E13221422152216222F
:1040C80017221822192212C012F013C013F014C0BC
:1040D80014F015C015F016C016F017C017F018C068
:1040E80018F019C019F0120020EE04F02550D92656
:1040F8002650DA22DECF27F0DDCF28F0F80E27246D
:10410800126EFF0E2820136E20EE06F02550D926D9
:104118002650DA22DECF29F0DDCF2AF0F80E292446
:10412800146EFF0E2A20156E20EE04F02550D926B5
:104138002650DA22DECF2BF0DDCF2CF0080E2B2410
:10414800166E000E2C20176E20EE06F02550D9268C
:104158002650DA22DECF2DF0DDCF2EF0080E2D24EA
:10416800186E000E2E20196E010E1A6E000E1C6EAF
:10417800000E1B6E9AEC16F025C0D9FF26C0DAFF98
:1041880010EE04F02550E1262650E222DECFE6FFAD
:10419800DDCFE5FF20EE02F02550D9262650DA22A1
:1041A80010EE06F02550E1262650E222DECFE6FF8B
:1041B800DDCFE5FF25C0D9FF26C0DAFFDECF27F027
:1041C800DDCF28F0F80E2724126EFF0E2820136E7C
:1041D80020EE02F02550D9262650DA22DECF29F02B
:1041E800DDCF2AF0F80E2924146EFF0E2A20156E52
:1041F80025C0D9FF26C0DAFFDECF2BF0DDCF2CF0AB
:10420800080E2B24166E000E2C20176E20EE02F0DE
:104218002550D9262650DA22DECF2DF0DDCF2EF01C
:10422800080E2D24186E000E2E20196E010E1A6E1F
:10423800F80E1C6E000E1B6E9AEC16F012002A0E79
:10424800806E8B988B968B868B881350806E8B969E
:104258008B8612C080FF8B968B86000E806E8B96A5
:104268008B86EF0E806E8B968B862B0E806E8B98CE
:104278008B968B868B881550806E8B968B8614C098
:1042880080FF8B968B86010E806E8B968B863F0EF9
:10429800806E8B968B862E0E806E8B988B968B8677
:1042A8008B8892688B9400F08B8492688B9400F0D2
:1042B80080CF1AF01B6A8B841AC016F01BC017F047
:1042C800D89017321632D89017321632D890173243
:1042D800163216C01AF017C01BF01AC016F01BC011
:1042E80017F00B0ED89016361736E82E76EF21F019
:1042F80016C018F017C019F08B9400F080CF1AF090
:104308001B6A8B841AC016F01BC017F0D89017329E
:104318001632D8901732163216C01AF017C01BF092
:104328001AC016F01BC017F0050ED89016361736AF
:10433800E82E99EF21F016501812175019128B9485
:1043480000F080501A128B841AC016F01BC017F0A8
:10435800D89017321632D89017321632D8901732B2
:10436800163216C01AF017C01BF01A5018121B503C
:104378001912000E926E18C012F019C013F0120034
:1043880020EE04F02550D9262650DA22DECF12F08E
:10439800DDCF13F020EE06F02550D9262650DA227C
:1043A800DECF14F0DDCF15F020EE04F02550D9262D
:1043B8002650DA22DECF27F0DDCF28F0320E272470
:1043C800166E000E2820176E20EE06F02550D9260E
:1043D8002650DA22DECF29F0DDCF2AF00A0E292472
:1043E800186E000E2A20196E010E1A6E000E1C6E31
:1043F800000E1B6E9AEC16F025C0D9FF26C0DAFF16
:1044080010EE04F02550E1262650E222DECFE6FF2A
:10441800DDCFE5FF20EE02F02550D9262650DA221E
:1044280010EE06F02550E1262650E222DECFE6FF08
:10443800DDCFE5FF25C0D9FF26C0DAFFDECF12F0B9
:10444800DDCF13F020EE02F02550D9262650DA22CF
:10445800DECF14F0DDCF15F025C0D9FF26C0DAFF76
:10446800DECF27F0DDCF28F0320E2724166E000E9F
:104478002820176E20EE02F02550D9262650DA2281
:10448800DECF29F0DDCF2AF00A0E2924186E000E9F
:104498002A20196E010E1A6E20EE08F02550D92632
:1044A8002650DA22DECF1BF0DDCF1CF09AEC16F096
:1044B8001200000E0D6E000E0C6E0CC001F00DC047
:1044C80002F0000E046E030E036EA3EC31F0B70E7B
:1044D8000124D96E000E0220DA6EDF50D8B477EFCF
:1044E80022F079EF22F0DDEF22F00CC001F00DC0D0
:1044F80002F0000E046E030E036EA3EC31F0B50E4D
:104508000124D96E000E0220DA6EDE06000EDD5A96
:104518000CC001F00DC002F0000E046E030E036E15
:10452800A3EC31F0B50E0124D96E000E0220DA6E2C
:10453800DE50DE10D8A4A3EF22F0A5EF22F0DDEFC5
:1045480022F0010E076E0CC001F00DC002F0000E43
:10455800046E030E036EA3EC31F0B70E0124D96E7E
:10456800000E0220DA6EDF5029EC2FF0E806D8A4FE
:10457800C0EF22F0C2EF22F0C9EF22F0010E026E66
:104588000C50EEEC30F0DDEF22F00CC001F00DC065
:1045980002F0000E046E030E036EA3EC31F0B50EAC
:1045A8000124D96E000E0220DA6E010EDE6E000EB6
:1045B800DD6E0C4A0D2A0DBEEBEF22F00D5009E11D
:1045C800080E0C5CD8A0EBEF22F0EDEF22F061EFC3
:1045D80022F0120037C0D9FF38C0DAFFDECF3DF035
:1045E800DDCF3EF020EE04F03750D9263850DA22DD
:1045F800DECF39F0DDCF3AF037C0D9FF38C0DAFF67
:10460800DECF3BF0DDCF3CF039503B243F6E3A50D3
:104618003C20406E20EE02F03750D9263850DA227E
:10462800DECF41F0DDCF42F020EE06F03750D9263C
:104638003850DA22DECF39F0DDCF3AF020EE02F042
:104648003750D9263850DA22DECF3BF0DDCF3CF0A8
:1046580039503B24436E3A503C20446E3DC012F022
:104668003EC013F041C014F042C015F03FC016F030
:1046780040C017F043C018F044C019F0010E1A6E7C
:1046880020EE0AF03750D9263850DA22DECF1BF058
:10469800DDCF1CF09AEC16F03DC012F03EC013F0CE
:1046A80041C014F042C015F03FC016F040C017F0EA
:1046B80043C018F044C019F0000E1A6E20EE0CF03A
:1046C8003750D9263850DA22DECF1BF0DDCF1CF068
:1046D8009AEC16F037C027F038C028F051EC0AF0F1
:1046E80012003B343C34426E4250D8A47EEF23F093
:1046F80080EF23F08AEF23F0000E396E000E3A6E39
:10470800000E3B6E000E3C6EF7EF23F039C03DF013
:104718003AC03EF03BC03FF03CC040F0200E9AEF5C
:1047280023F0D89040323F323E323D32E82E95EFAA
:1047380023F03D50416E3B8EFF0E3916FF0E3A16A0
:10474800FF0E3B16000E3C16960E425E42BEB1EFBF
:1047580023F0AFEF23F0C7EF23F04250800A970F02
:10476800D8B0B9EF23F0BBEF23F0BDEF23F080EF13
:1047780023F0D8903C323B323A323932423EBDEFD8
:1047880023F0DFEF23F01F0E4264CDEF23F0CFEFCD
:1047980023F0D7EF23F080EF23F0D89039363A365C
:1047A8003B363C3642064250D8A4DDEF23F0DFEF1B
:1047B80023F0D1EF23F04150D8B4E5EF23F0E7EF31
:1047C80023F0EFEF23F03C1E3B1E3A1E396C000E1F
:1047D8003A223B223C2239C039F03AC03AF03BC079
:1047E8003BF03CC03CF012005BEF24F09EC09CF014
:1047F8009FC09DF0A0EC2DF079EF24F09EC09CF0B6
:104808009FC09DF05FEC2DF079EF24F00B0EA019FE
:10481800D8A411EF24F013EF24F01BEF24F0D50EE9
:104828009E25256E000E9F21266EC4EC21F00C0EED
:104838000001A019D8A423EF24F025EF24F02DEFD0
:1048480024F0DF0E9E25256E000E9F21266EC4ECF7
:1048580021F00D0E0001A019D8A435EF24F037EF90
:1048680024F03FEF24F0C90E9E25256E000E9F21EF
:10487800266E78EC20F00E0E0001A019D8A447EFA0
:1048880024F049EF24F079EF24F0E90E9E25926F89
:10489800000E9F21936FB3EC27F079EF24F09EC0B0
:1048A8009CF09FC09DF07AEC2BF079EF24F000018A
:1048B800DD51A16FA26BA251000AD8B466EF24F0B3
:1048C80079EF24F0A151000AD8B4FAEF23F0010AD5
:1048D800D8B402EF24F0030AD8B40AEF24F0010A8E
:1048E800D8B453EF24F079EF24F012000001A76F39
:1048F800DBEF24F0050EA719D8B485EF24F087EF75
:1049080024F090EF24F0060EA719D8A48EEF24F017
:1049180090EF24F0A0EF24F0020EDD6FA3C094F016
:10492800A4C095F0E7EC2FF0A3C09EF0A4C09FF0C0
:10493800A7C0A0F0F8EC23F0070E0001A719D8A42F
:10494800A8EF24F0AAEF24F0F9EF24F0010EDD6FB0
:10495800A3C09EF0A4C09FF0A7C0A0F0F8EC23F07D
:10496800F9EF24F0080EA719D8A4BDEF24F0BFEF83
:1049780024F0F9EF24F0000EDD6FACEF24F0090EFF
:10498800A719D8A4CAEF24F0CCEF24F0ACEF24F098
:10499800030EDD6FACEF24F00F0EA719D8A4D7EFE4
:1049A80024F0D9EF24F0F9EF24F0BFEF24F0000150
:1049B800DD51A56FA66BA651000AD8B4E6EF24F026
:1049C800F9EF24F0A551000AD8B47EEF24F0010ACB
:1049D800D8B4B6EF24F0030AD8B4C3EF24F0010A20
:1049E800D8B4D0EF24F0F9EF24F0120028C0D9FF92
:1049F80029C0DAFF12C0DEFF13C0DDFF20EE02F08F
:104A08002850D9262950DA2214C0DEFF15C0DDFF50
:104A180020EE06F02850D9262950DA2218C0DEFFE9
:104A280019C0DDFF20EE04F02850D9262950DA22DB
:104A380016C0DEFF17C0DDFF20EE08F02850D9268B
:104A48002950DA221AC0DEFF1BC0DDFF20EE0AF073
:104A58002850D9262950DA221CC0DEFF1DC0DDFFF0
:104A680020EE0CF02850D9262950DA221EC0DEFF8D
:104A78001FC0DDFF20EE0EF02850D9262950DA227B
:104A880020C0DEFF21C0DDFF20EE11F02850D9261E
:104A98002950DA2222C0DEFF23C0DDFF20EE13F00A
:104AA8002850D9262950DA2224C0DEFF25C0DDFF90
:104AB80020EE15F02850D9262950DA2226C0DEFF2C
:104AC80027C0DDFF20EE17F02850D9262950DA221A
:104AD8002AC0DFFF20EE10F02850D9262950DA220C
:104AE800000EDF6E1200680E1C24126E000E1D20D0
:104AF800136E20EE04F01C50D9261D50DA22DECFAA
:104B080014F0DDCF15F020EE06F01C50D9261D500C
:104B1800DA22DECF16F0DDCF17F068EC26F00009B8
:104B2800D8B499EF25F09BEF25F0B1EF25F01CC024
:104B380012F01DC013F040EC31F0D50E1C24126E9B
:104B4800000E1D20136E000E156E140E146E000E4E
:104B5800176E000E166E46EC27F0980E1C24126E87
:104B6800000E1D20136E20EE04F01C50D9261D5097
:104B7800DA22DECF14F0DDCF15F020EE06F01C505F
:104B8800D9261D50DA22DECF16F0DDCF17F068ECFB
:104B980026F00009D8B4D3EF25F0D5EF25F0EBEFD8
:104BA80025F01CC012F01DC013F040EC31F0D50EFA
:104BB8001C24126E000E1D20136E000E156E140EAE
:104BC800146E000E176E010E166E46EC27F0000EDE
:104BD800186E0B0EC5EC2EF0120026C0D9FF27C0A8
:104BE800DAFF12C0DEFF13C0DDFF20EE02F0265010
:104BF800D9262750DA2214C0DEFF15C0DDFF20EECB
:104C080006F02650D9262750DA2218C0DEFF19C030
:104C1800DDFF20EE04F02650D9262750DA2216C0F0
:104C2800DEFF17C0DDFF20EE08F02650D9262750FA
:104C3800DA221AC0DEFF1BC0DDFF20EE0AF0265084
:104C4800D9262750DA221CC0DEFF1DC0DDFF20EE6A
:104C58000CF02650D9262750DA221EC0DEFF1FC0CE
:104C6800DDFF20EE0EF02650D9262750DA2220C08C
:104C7800DEFF21C0DDFF20EE17F02650D926275091
:104C8800DA2224C0DEFF25C0DDFF20EE15F0265015
:104C9800D9262750DA2222C0DEFF23C0DDFF20EE0E
:104CA80011F02650D9262750DA22000EDE6E000EAB
:104CB800DD6E20EE13F02650D9262750DA22000E9A
:104CC800DE6E000EDD6E120012C0D9FF13C0DAFFCF
:104CD800DE50145CDE501558D8B075EF26F077EF2B
:104CE80026F07AEF26F0000ED6EF26F020EE04F03C
:104CF8001250D9261350DA22DECF18F0DDCF19F082
:104D080012C0D9FF13C0DAFFDECF1AF0DDCF1BF0D7
:104D180018501A2619501B2214501A5C15501B588B
:104D2800D8B099EF26F09BEF26F09DEF26F077EFAD
:104D380026F020EE02F01250D9261350DA22DE5067
:104D4800165CDE501758D8B0ACEF26F0AEEF26F060
:104D5800B0EF26F077EF26F020EE06F01250D926B5
:104D68001350DA22DECF18F0DDCF19F020EE02F072
:104D78001250D9261350DA22DECF1AF0DDCF1BF0FD
:104D880018501A2619501B2216501A5C17501B5817
:104D9800D8B0D1EF26F0D3EF26F0D5EF26F077EF95
:104DA80026F0010E120012C0D9FF13C0DAFFDE5040
:104DB800145CDE501558D8B0E4EF26F0E6EF26F084
:104DC800E9EF26F0000E45EF27F020EE04F0125030
:104DD800D9261350DA22DECF18F0DDCF19F012C031
:104DE800D9FF13C0DAFFDECF1AF0DDCF1BF0185061
:104DF8001A2619501B2214501A5C15501B58D8B08B
:104E080008EF27F00AEF27F00CEF27F0E6EF26F07F
:104E180020EE02F01250D9261350DA22DE50165C2A
:104E2800DE501758D8B01BEF27F01DEF27F01FEF03
:104E380027F0E6EF26F020EE06F01250D9261350A0
:104E4800DA22DECF18F0DDCF19F020EE02F0125092
:104E5800D9261350DA22DECF1AF0DDCF1BF0185016
:104E68001A2619501B2216501A5C17501B58D8B016
:104E780040EF27F042EF27F044EF27F0E6EF26F067
:104E8800010E120016041710D8A44DEF27F04FEFAB
:104E980027F084EF27F012C0D9FF13C0DAFFDECF66
:104EA80018F0DDCF19F0145018261550192212C029
:104EB800D9FF13C0DAFF18C0DEFF19C0DDFF12C02A
:104EC800D9FF13C0DAFFDECF18F0DDCF19F0320EAC
:104ED8001826000E1922195009E1F00E185CD8A006
:104EE80078EF27F07AEF27F0B2EF27F012C0D9FF5A
:104EF80013C0DAFFBD0EDE6E000EDD6EB2EF27F0D6
:104F080012C0D9FF13C0DAFF010EDB5007E1150EFE
:104F1800DE5CD8B092EF27F094EF27F09EEF27F0F1
:104F280012C0D9FF13C0DAFF000EDE6E000EDD6E70
:104F3800B2EF27F012C0D9FF13C0DAFFDECF18F0A6
:104F4800DDCF19F01450185E1550195A12C0D9FF48
:104F580013C0DAFF18C0DEFF19C0DDFF1200040E0F
:104F680000019225846F000E9321856FEE0E866FE7
:104F78007F0E876F92C0D9FF93C0DAFFDECF88F02B
:104F8800DDCF89F012EC30F0040E00019225206E7E
:104F9800000E9321216E7F0E226E7F0E236E000E6F
:104FA800246E000E266E000E256E000E286E000E72
:104FB800276EFF0E2A6E2968000E2C6E000E2B6ECF
:104FC8000BEC0FF0040E00019225846F000E932164
:104FD800856FEE0E866F7F0E876F20EE02F092517E
:104FE800D9269351DA22DECF88F0DDCF89F012EC92
:104FF80030F0040E00019225206E000E9321216EE0
:105008007F0E226E7F0E236E010E246E000E266E1A
:10501800EF0E256E000E286E000E276EFF0E2A6E0C
:105028002968000E2C6E000E2B6E0BEC0FF0120090
:1050380014501510D8B423EF28F025EF28F02EEFE0
:1050480028F014501510D8A42CEF28F02EEF28F0D3
:1050580033EF28F012502BEC32F080EF28F020EEDE
:1050680004F01450D9261550DA22DE50DE10D8B4D8
:1050780040EF28F042EF28F05DEF28F020EE04F032
:105088001450D9261550DA2210EE02F01450E126F9
:105098001550E222DE50E65CE650800A1A6EDE50B9
:1050A800800A1A58D8B05BEF28F05DEF28F080EF3F
:1050B80028F020EE02F01450D9261550DA22DECF5F
:1050C80016F0DDCF17F014C0D9FF15C0DAFFDECF18
:1050D80018F0DDCF19F016501824D96E1750192082
:1050E800DA6E12C0DFFF20EE02F01450D9261550F8
:1050F800DA22DE2A000EDD221200406EC3EF28F00D
:105108003CC037F03DC038F0000E396EEFEC14F0BB
:10511800070E4018D8A493EF28F095EF28F097EFE2
:1051280028F0010E4D6E050E4018D8A49EEF28F009
:10513800A0EF28F0E4EF28F0020E4D6EE4EF28F01F
:105148003CC037F03DC038F0000E396EEFEC14F07B
:10515800080E4018D8A4B3EF28F0B5EF28F0E4EF14
:1051680028F0000E4D6EE4EF28F03CC037F03DC04B
:1051780038F040C039F0EFEC14F0E4EF28F04D506F
:105188003E6E3F6A3F50000AD8B4CDEF28F0E4EFF6
:1051980028F03E50000AD8B484EF28F0010AD8B4A9
:1051A800A4EF28F0030AD8B4B9EF28F0010AD8B45C
:1051B800E4EF28F0070AD8B4B9EF28F0E4EF28F0B4
:1051C8001200000E176E15BEEEEF28F0ECEF28F077
:1051D800F4EF28F0146C151ED8B0152A010E176EBE
:1051E80013BEFBEF28F0F9EF28F001EF29F0126C5D
:1051F800131ED8B0132A010E171A000E196E000ECE
:10520800186E14501510D8B40CEF29F00EEF29F0D1
:1052180036EF29F0010E166E16EF29F0D8901436E5
:105228001536162A15AE1BEF29F01DEF29F012EFDF
:1052380029F0D890183619361450125C15501358A6
:10524800D8A029EF29F02BEF29F030EF29F01450DE
:10525800125E1550135A1880D89015321432162E33
:105268001DEF29F01750D8B43CEF29F03EEF29F094
:1052780042EF29F0186C191ED8B0192A18C012F07C
:1052880019C013F0120049A04CEF29F04EEF29F095
:1052980058EF29F024C01BF025C01CF022C01DF0D7
:1052A80023C01EF0ACEC30F027BE5DEF29F05FEFB5
:1052B80029F065EF29F026C02BF027C02CF069EF04
:1052C80029F0000E2C6E000E2B6E000E2A6E000EBA
:1052D800296E7BEF29F0000E136E200E126E22C08D
:1052E80014F023C015F01CEC28F0294A2A2A2B5068
:1052F800295C2A50800A286E2C50800A2858D8A089
:1053080088EF29F08AEF29F06FEF29F049B08FEF85
:1053180029F091EF29F09BEF29F024C01BF025C05C
:105328001CF022C01DF023C01EF0ACEC30F024C0ED
:1053380012F025C013F063EC30F02B501224226ECB
:105348002C501320236E12001350146E12C015F047
:105358002A0E806E8B988B968B868B88000E806EBB
:105368008B968B86000E806E8B968B86000E806ED9
:105378008B968B86EF0E806E8B968B862B0E806EAF
:105388008B988B968B868B88000E806E8B968B867F
:10539800000E806E8B968B86010E806E8B968B86A8
:1053A8003F0E806E8B968B862C0E806E8B988B961C
:1053B8008B868B88000E176E000E166E000E196E07
:1053C800000E186E14C080FF8B968B8615C080FF68
:1053D8008B968B86184A192A195009E1F00E185C29
:1053E800D8A0F9EF29F0FBEF29F0E6EF29F0164AEB
:1053F800172A400E165C010E1758D8A006EF2AF09F
:1054080008EF2AF0E2EF29F01200020E1224146EBF
:10541800000E1320156E14C0F6FF15C0F7FF080024
:10542800F5CF16F0D8901632D8901632D89016329A
:105438001650186E196A010E1224146E000E1320ED
:10544800156E14C0F6FF15C0F7FF0800F5CF16F06B
:10545800D8901632D890163216501A6E1B6A12C09F
:10546800F6FF13C0F7FF0800F5CF14F0D8901432F8
:10547800D8901432D890143214501C6E1D6A1AC079
:1054880014F01BC015F0050ED89014361536E82E0A
:1054980048EF2AF018C016F019C017F00B0ED89074
:1054A80016361736E82E53EF2AF0145016121550F8
:1054B80017121C5016101E6E1D5017101F6E1EC09E
:1054C80012F01FC013F012009B8C700ED36E090EE1
:1054D8000001A86F1E0EA76FE40EE82EFED7A72FB7
:1054E800FCD7A82FFAD700F0A8EC19F0000E136E1D
:1054F8001F0E126EA8EC29F0B60E206E7F0E216EDC
:105508007F0E226E7F0E236E020E246E000E266E14
:10551800320E256E000E286E320E276E000E2A6E91
:10552800000E296EFF0E2C6E2B680BEC0FF0F28E1E
:10553800F096F19A94908B80860ED56EFB0ED76EFE
:105548001D0ED66EF28A9492BB686650F00B0C0959
:10555800666E6768CF0E66169E92BA80BA92BA8453
:10556800A60EC06EC6EC2AF0000E2B6E010E2C6E35
:1055780030EC11F0000E0001A56F010EA66F55EC7E
:1055880031F01200000E216E000E206ECD0E202488
:10559800D96E000E2120DA6E000EDF6E204A212A15
:1055A80021BEE0EF2AF0215009E10C0E205CD8A0C2
:1055B800E0EF2AF0E2EF2AF0CAEF2AF0000E216E9F
:1055C800000E206E20C01AF021C01BF0000E1D6EC8
:1055D800030E1C6E90EC31F0B50E1A24D96E000E35
:1055E8001B20DA6E000EDE6E000EDD6E20C01AF093
:1055F80021C01BF0000E1D6E030E1C6E90EC31F0E6
:10560800B70E1A24D96E000E1B20DA6E000EDF6E5C
:10561800204A212A21BE1AEF2BF0215009E1080E59
:10562800205CD8A01AEF2BF01CEF2BF0E6EF2AF045
:10563800000E0001D96F000EDA6F120020EE04F0A0
:105648001250D9261350DA22000EDE6E000EDD6EDF
:1056580020EE06F01250D9261350DA22000EDE6E24
:10566800000EDD6E14501510D8B43DEF2BF03FEF4F
:105678002BF05DEF2BF012C0D9FF13C0DAFF5A0EE2
:10568800DE6E000EDD6E20EE02F01250D9261350A9
:10569800DA22140EDE6E000EDD6E20EE08F01250D7
:1056A800D9261350DA22FF0EDE6EFF0EDD6E79EF7B
:1056B8002BF012C0D9FF13C0DAFF5A0EDE6E000EAF
:1056C800DD6E20EE02F01250D9261350DA22180EA1
:1056D800DE6E010EDD6E20EE08F01250D926135052
:1056E800DA22FF0EDE6EFF0EDD6E1200000E136E64
:1056F800000E126EA8EC29F0800E00019C257C6F2C
:10570800000E9D217D6FDAEC07F0000120EEE9F034
:105718009C51D9269D51DA22DE50DE10D8A497EF8D
:105728002BF099EF2BF0B6EF2BF0930E206E7F0E37
:10573800216E7F0E226E7F0E236E020E246E000EE7
:10574800266E640E256E000E286E320E276EFF0E32
:105758002A6E2968000E2C6E000E2B6E0BEC0FF0D3
:10576800D1EF2BF0860E206E7F0E216E7F0E226EFB
:105778007F0E236E020E246E000E266E640E256EBA
:10578800000E286E320E276EFF0E2A6E2968000E54
:105798002C6E000E2B6E0BEC0FF01200000E176E25
:1057A80013BEDBEF2BF0D9EF2BF0E1EF2BF0126CEF
:1057B800131ED8B0132A010E176E15BEE8EF2BF092
:1057C800E6EF2BF0ECEF2BF0146C151ED8B0152A71
:1057D80014501510D8B4F3EF2BF0F5EF2BF019EFA8
:1057E8002CF0010E166EFDEF2BF0D89014361536FE
:1057F800162A15AE02EF2CF004EF2CF0F9EF2BF07F
:105808001450125C15501358D8A00DEF2CF00FEF60
:105818002CF013EF2CF01450125E1550135AD89038
:1058280015321432162E04EF2CF01750D8B41FEF8F
:105838002CF021EF2CF025EF2CF0126C131ED8B0B1
:10584800132A12C012F013C013F01200000E066ED5
:1058580002BE33EF2CF031EF2CF039EF2CF0016C55
:10586800021ED8B0022A010E066E04BE40EF2CF0CC
:105878003EEF2CF044EF2CF0036C041ED8B0042A41
:1058880003500410D8B44BEF2CF04DEF2CF071EF0F
:105898002CF0010E056E55EF2CF0D8900336043627
:1058A800052A04AE5AEF2CF05CEF2CF051EF2CF0E7
:1058B8000350015C04500258D8A065EF2CF067EF44
:1058C8002CF06BEF2CF00350015E0450025AD89074
:1058D80004320332052E5CEF2CF00650D8B477EF73
:1058E8002CF079EF2CF07DEF2CF0016C021ED8B073
:1058F800022A01C001F002C002F01200949A9494A6
:1059080094969498000E926E8B9A8B848B868B88D3
:10591800000E136E000E146E000E156E000E166E3D
:10592800D00E126ECA0EE82EFED7122EFCD7010E2C
:105938001326000E142215221622165015101410C4
:1059480009E10C0E135CD8A0ACEF2CF0AEEF2CF0F4
:1059580094EF2CF0000E136E000E146E000E156EF0
:10596800000E166ED00E126ECA0EE82EFED7122E3C
:10597800FCD7010E1326000E1422152216221650EB
:105988001510141009E10C0E135CD8A0CEEF2CF002
:10599800D0EF2CF0B6EF2CF012000001B46F06EF38
:1059A8002DF00001B405D8A4DCEF2CF0DEEF2CF0CC
:1059B8001DEF2DF0010EDE6FB2C092F0B3C093F070
:1059C800FCEC1AF01DEF2DF0020E0001B419D8A45A
:1059D800F0EF2CF0F2EF2CF0FAEF2CF0000EDE6F67
:1059E800B2C092F0B3C093F0FCEC1AF0040E0001C0
:1059F800B419D8A402EF2DF004EF2DF01DEF2DF00F
:105A0800E0EF2CF00001DE510101EF6FF06BF05177
:105A1800000AD8B412EF2DF01DEF2DF0EF51000A57
:105A2800D8B4D5EF2CF0010AD8B4E8EF2CF01DEF6C
:105A38002DF0120020EE08F01250D9261350DA2269
:105A4800DECF14F0DDCF15F012C0D9FF13C0DAFF96
:105A5800DECF16F0DDCF17F014501626155017229A
:105A680012C0D9FF13C0DAFF16C0DEFF17C0DDFF72
:105A780020EE0AF01250D9261350DA22DECF14F0A5
:105A8800DDCF15F020EE02F01250D9261350DA229D
:105A9800DECF16F0DDCF17F014501626155017225A
:105AA80020EE02F01250D9261350DA2216C0DEFF7B
:105AB80017C0DDFF1200FF0E136E1268A8EC29F064
:105AC800A00E206E7F0E216E7F0E226E7F0E236E3B
