:020000040000FA
:0400000062EF00F0BB
:100008004E82D9CF0EF0DACF0FF0F3CF10F0F4CF45
:1000180011F0F0A012EF00F014EF00F039EF00F04B
:10002800F0A619EF00F01BEF00F039EF00F0F1BA7D
:1000380020EF00F022EF00F02BEF00F0F18AF090B3
:10004800010E076E010ED3EC2CF039EF00F0F1AA87
:1000580030EF00F032EF00F039EF00F0F19AF09055
:10006800010E076E020ED3EC2CF0F2A43EEF00F066
:1000780040EF00F058EF00F0F2AA45EF00F047EF2C
:1000880000F058EF00F002EC21F0000E036E050EB0
:10009800026E0A0E046E010E056ECDEC2BF0FB0EFF
:1000A800D76E1D0ED66EF29411C0F4FF10C0F3FF88
:1000B8000FC0DAFF0EC0D9FF4E921100CDEF2EF01F
:1000C800FF0E146EFF0E156E20EEBBF01250D926EF
:1000D8001350DA22DECF16F0DDCF17F014501626B3
:1000E8001550172220EEB3F01250D9261350DA22F9
:1000F800DECF18F0DDCF19F0080E1826000E1922F1
:100108001650185C17501958D8A08DEF00F08FEFD3
:1001180000F016EF02F020EEB1F01250D92613507D
:10012800DA22DECF14F0DDCF15F0080E1426000E0B
:10013800152220EEB9F01250D9261350DA221450A5
:10014800DE5C1550DE58D8B0ACEF00F0AEEF00F032
:1001580016EF02F020EEB9F01250D9261350DA2229
:10016800DECF14F0DDCF15F0320E1426000E152266
:10017800F80E166EFF0E176E20EEB1F01250D9264B
:100188001350DA22DECF18F0DDCF19F016501826FA
:10019800175019221450185C15501958D8B0D7EFB9
:1001A80000F0D9EF00F016EF02F020EEB9F012508F
:1001B800D9261350DA22DECF14F0DDCF15F020EE69
:1001C800B1F01250D9261350DA22DECF16F0DDCF67
:1001D80017F01450165E1550175A175007E10A0EFB
:1001E800165CD8B0FAEF00F0FCEF00F020EF01F059
:1001F80020EEB7F01250D9261350DA22DECF14F0D1
:10020800DDCF15F0141E151E144A152A20EEB7F07E
:100218001250D9261350DA2214C0DEFF15C0DDFFB4
:1002280020EEB5F01250D9261350DA22FE0EDE6EFB
:10023800FF0EDD6E0DEF02F020EEB9F01250D92658
:100248001350DA22DECF14F0DDCF15F020EEB1F036
:100258001250D9261350DA22DECF16F0DDCF17F070
:100268001450165E1550175A175007E1140E165CF5
:10027800D8B041EF01F043EF01F067EF01F020EE55
:10028800B7F01250D9261350DA22DECF14F0DDCFA2
:1002980015F0141E151E144A152A20EEB7F0125038
:1002A800D9261350DA2214C0DEFF15C0DDFF20EE78
:1002B800B5F01250D9261350DA22FF0EDE6EFF0E6B
:1002C800DD6E0DEF02F020EEB9F01250D926135072
:1002D800DA22DECF14F0DDCF15F020EEB1F01250A7
:1002E800D9261350DA22DECF16F0DDCF17F01450DE
:1002F800165E1550175A175007E11E0E165CD8B037
:1003080088EF01F08AEF01F0A4EF01F020EEB7F0DA
:100318001250D9261350DA22DECF14F0DDCF15F0B3
:10032800141E151E144A152A20EEB7F01250D926AD
:100338001350DA2214C0DEFF15C0DDFF0DEF02F006
:1003480020EEB9F01250D9261350DA22DECF14F07D
:10035800DDCF15F020EEB1F01250D9261350DA2275
:10036800DECF16F0DDCF17F01450165E1550175A71
:10037800175007E1280E165CD8B0C5EF01F0C7EF9B
:1003880001F0EBEF01F020EEB7F01250D926135030
:10039800DA22DECF14F0DDCF15F0141E151E144A34
:1003A800152A20EEB7F01250D9261350DA2214C0BD
:1003B800DEFF15C0DDFF20EEB5F01250D926135030
:1003C800DA22010EDE6E000EDD6E0DEF02F020EE79
:1003D800B7F01250D9261350DA22DECF14F0DDCF51
:1003E80015F0141E151E144A152A20EEB7F01250E7
:1003F800D9261350DA2214C0DEFF15C0DDFF20EE27
:10040800B5F01250D9261350DA22020EDE6E000E15
:10041800DD6E20EEC5F01250D9261350DA22DE2AFE
:10042800000EDD22F80E146EFF0E156E20EEB3F0EE
:100438001250D9261350DA22DECF16F0DDCF17F08E
:10044800145016261550172220EEC1F01250D92646
:100458001350DA22DECF18F0DDCF19F0150E18266A
:10046800000E19221650185C17501958D8A03FEFE3
:1004780002F041EF02F0C8EF03F020EEB1F01250A5
:10048800D9261350DA22DECF14F0DDCF15F0080E8E
:100498001426000E152220EEBFF01250D926135054
:1004A800DA221450DE5C1550DE58D8B05EEF02F048
:1004B80060EF02F0C8EF03F020EEBFF01250D9262B
:1004C8001350DA22DECF14F0DDCF15F0320E1426E9
:1004D800000E1522F80E166EFF0E176E20EEB1F004
:1004E8001250D9261350DA22DECF18F0DDCF19F0DA
:1004F80016501826175019221450185C1550195800
:10050800D8B089EF02F08BEF02F0C8EF03F020EECD
:10051800BFF01250D9261350DA22DECF14F0DDCF07
:1005280015F020EEB1F01250D9261350DA22DECFA2
:1005380016F0DDCF17F01450165E1550175A1750E5
:1005480007E10A0E165CD8B0ACEF02F0AEEF02F08D
:10055800D2EF02F020EEB7F01250D9261350DA226B
:10056800DECF14F0DDCF15F0141E151E144A152A1F
:1005780020EEB7F01250D9261350DA2214C0DEFF4D
:1005880015C0DDFF20EEB5F01250D9261350DA223F
:10059800FE0EDE6EFF0EDD6EBFEF03F020EEBFF045
:1005A8001250D9261350DA22DECF14F0DDCF15F021
:1005B80020EEB1F01250D9261350DA22DECF16F011
:1005C800DDCF17F01450165E1550175A175007E173
:1005D800140E165CD8B0F3EF02F0F5EF02F019EF45
:1005E80003F020EEB7F01250D9261350DA22DECFEE
:1005F80014F0DDCF15F0141E151E144A152A20EE2E
:10060800B7F01250D9261350DA2214C0DEFF15C0F5
:10061800DDFF20EEB5F01250D9261350DA22FF0E76
:10062800DE6EFF0EDD6EBFEF03F020EEBFF012505E
:10063800D9261350DA22DECF14F0DDCF15F020EEE4
:10064800B1F01250D9261350DA22DECF16F0DDCFE2
:1006580017F01450165E1550175A175007E11E0E62
:10066800165CD8B03AEF03F03CEF03F056EF03F016
:1006780020EEB7F01250D9261350DA22DECF14F04C
:10068800DDCF15F0141E151E144A152A20EEB7F0FA
:100698001250D9261350DA2214C0DEFF15C0DDFF30
:1006A800BFEF03F020EEBFF01250D9261350DA2224
:1006B800DECF14F0DDCF15F020EEB1F01250D926C0
:1006C8001350DA22DECF16F0DDCF17F01450165E85
:1006D8001550175A175007E1280E165CD8B077EF57
:1006E80003F079EF03F09DEF03F020EEB7F012501E
:1006F800D9261350DA22DECF14F0DDCF15F0141E00
:10070800151E144A152A20EEB7F01250D926135098
:10071800DA2214C0DEFF15C0DDFF20EEB5F012505E
:10072800D9261350DA22010EDE6E000EDD6EBFEF01
:1007380003F020EEB7F01250D9261350DA22DECF9C
:1007480014F0DDCF15F0141E151E144A152A20EEDC
:10075800B7F01250D9261350DA2214C0DEFF15C0A4
:10076800DDFF20EEB5F01250D9261350DA22020E22
:10077800DE6E000EDD6E20EEC7F01250D926135043
:10078800DA22DE2A000EDD2220EEB1F01250D92640
:100798001350DA22DECF14F0DDCF15F0080E142640
:1007A800000E1522155009E1EF0E145CD8A0DFEFFA
:1007B80003F0E1EF03F0F9EF03F020EEB5F012508B
:1007C800D9261350DA22DECF14F0DDCF15F0141E2F
:1007D800151E144A152A20EEB5F01250D9261350CA
:1007E800DA2214C0DEFF15C0DDFFF80E146EFF0E0E
:1007F800156E20EEB1F01250D9261350DA22DECF52
:1008080016F0DDCF17F01450162615501722165083
:100818001710D8A412EF04F014EF04F02EEF04F030
:1008280020EEB5F01250D9261350DA22DECF14F09C
:10083800DDCF15F0141E151E144A152A20EEB5F04A
:100848001250D9261350DA2214C0DEFF15C0DDFF7E
:100858002EEF04F0120027C071F028C072F00A0EC3
:10086800000171252D6E000E72212E6E2DC0F6FF2F
:100878002EC0F7FF0900F5CF60F00900F5CF61F051
:100888000900F5CF62F00A00F5CF63F0120E71256A
:100898002D6E000E72212E6E2DC0F6FF2EC0F7FFB2
:1008A8000900F5CF76F00A00F5CF77F0160E71251E
:1008B8002D6E000E72212E6E2DC0F6FF2EC0F7FF92
:1008C8000900F5CF6BF00A00F5CF6CF01C0E71250E
:1008D8002D6E000E72212E6E2DC0F6FF2EC0F7FF72
:1008E8000900080EF5180900F510D8A47EEF04F0E9
:1008F80080EF04F029EF07F01E0E71252D6E000E13
:1009080072212E6E2DC0F6FF2EC0F7FF0900F504E8
:100918000900F5100900F5100900F510D8B497EF93
:1009280004F099EF04F09BEF04F029EF07F07651FB
:1009380029242D6E77512A202E6E2E5007E1F10EB4
:100948002D5CD8B0AAEF04F0ACEF04F029EF07F063
:100958006B512B242D6E6C512C202E6E410E2D5C6C
:10096800010E2E58D8A0BBEF04F0BDEF04F0BFEF86
:1009780004F029EF07F0360E806E8B988B968B86E5
:100988008B88800E806E8B968B86360E2724696F37
:10099800000E28206A6F6051272661512822000E18
:1009A800646F69C012F06AC013F064EC27F012C0DB
:1009B80078F013C079F02A0E806E8B988B968B8610
:1009C8008B882A50806E8B968B8629C080FF8B96E9
:1009D8008B860001765129242D6E77512A202E6EA0
:1009E800FF0E2D24296EFF0E2E202A6E2A50806EAF
:1009F8008B968B8629C080FF8B968B862B0E806EFC
:100A08008B988B968B868B882BC02DF02CC02EF064
:100A18002D1E2E1E2D4A2E2A6B512D5E6C512E5ADC
:100A2800400E2D24736F010E2E20746F7451806E4A
:100A38008B968B8673C080FF8B968B866B51732544
:100A48002D6E6C5174212E6EFF0E2D24736FFF0EC8
:100A58002E20746F7451806E8B968B8673C080FFC6
:100A68008B968B862C0E806E8B988B968B868B88BC
:100A7800000E706F000E6F6F000E686F000E676FCC
:100A880027C0F6FF28C0F7FF0800F5500009D8A4D2
:100A980050EF05F052EF05F0CDEF06F0A9EF06F0A4
:100AA800020E2726000E2822000E7B6F000E7A6F9A
:100AB80068EF05F07951806E8B968B8678C080FF41
:100AC8008B968B867A4B7B2B6F51765D2D6E705192
:100AD80077592E6E2D507A5D2E507B59D8A077EF1E
:100AE80005F079EF05F05EEF05F0000E706F000E6F
:100AF8006F6F674B682B16EF07F0000E7B6F000EC9
:100B08007A6F91EF05F07951806E8B968B8678C05D
:100B180080FF8B968B867A4B7B2B6F51765D2D6E83
:100B2800705177592E6E2D507A5D2E507B59D8A072
:100B3800A0EF05F0A2EF05F087EF05F0000E7B6F40
:100B4800000E7A6FB2EF05F07951806E8B968B8626
:100B580078C080FF8B968B867A4B7B2B67516B5DB9
:100B68002D6E68516C592E6EFF0E2D241A6EFF0ED5
:100B78002E201B6E76C01CF077C01DF00FEC2FF0F6
:100B88001A5000017A5D1B507B59D8A0CEEF05F0B2
:100B9800D0EF05F0A8EF05F0010E646F16EF07F02F
:100BA800030E27242D6E000E28202E6E2DC0F6FF72
:100BB8002EC0F7FF0800F5501A6E1B6A76C01CF0AD
:100BC80077C01DF00FEC2FF0020E27242F6E000EB9
:100BD8002820306E2FC0F6FF30C0F7FF0800F55010
:100BE8001A240001656F000E1B20666F000E7B6FD4
:100BF800000E7A6F0CEF06F06F4B702B7951806EF8
:100C08008B968B8678C080FF8B968B867A4B7B2B56
:100C180065517A5D66517B59D8A015EF06F017EF3C
:100C280006F000EF06F065C020F066C021F076C03F
:100C380022F077C023F093EC2BF0000167512024B9
:100C4800676F68512120686F6FC012F070C013F091
:100C580076C014F077C015F0A1EC2CF012C06FF03C
:100C680013C070F0040E2726000E282216EF07F096
:100C7800010E27242D6E000E28202E6E2DC0F6FFA3
:100C88002EC0F7FF0800F5CF75F0000E7B6F000E41
:100C98007A6F7DEF06F07A5127242D6E7B5128203C
:100CA8002E6E020E2D26000E2E222DC0F6FF2EC00F
:100CB800F7FF0800F550040DF3CF2FF0F4CF30F014
:100CC8002F506925126E30506A21136E64EC27F09C
:100CD80012C06DF013C06EF000016F4B702B6E5197
:100CE800806E8B968B866DC080FF8B968B867A4B39
:100CF8007B2B75512D6E2E6A2D507A5D2E507B59A7
:100D0800D8A089EF06F08BEF06F04FEF06F07529B3
:100D1800D8B491EF06F093EF06F0A3EF06F075292B
:100D2800FE0B756F75512D6E2E6A020E2D26000E64
:100D38002E222D5027262E50282216EF07F0020EBD
:100D48002726010E282216EF07F0010E27242D6E04
:100D5800000E28202E6E2DC0F6FF2EC0F7FF0800CB
:100D6800F5502F6E306A3050000AD8B4BEEF06F046
:100D78003CEF06F02F50000AD8B454EF05F0010AF2
:100D8800D8B481EF05F0030AD8B4D4EF05F03CEFEE
:100D980006F027C0F6FF28C0F7FF0800F5CF75F06A
:100DA800010E27242D6E000E28202E6E2DC0F6FF72
:100DB8002EC0F7FF0800F550040DF3CF2FF0F4CF45
:100DC80030F02F506925126E30506A21136E64EC92
:100DD80027F012C06DF013C06EF0000E00017B6F9B
:100DE800000E7A6F04EF07F06F4B702B6E51806E18
:100DF8008B968B866DC080FF8B968B867A4B7B2B70
:100E080075512D6E2E6A2D507A5D2E507B59D8A0C3
:100E180010EF07F012EF07F0F8EF06F0020E2726A2
:100E2800000E282200016451D8B41DEF07F01FEF0F
:100E380007F044EF05F0360E806E8B988B968B8604
:100E48008B88000E806E8B968B861200000E000138
:100E58008C6F000E8B6F7CC0D9FF7DC0DAFFDECFB0
:100E68008DF0DDCF8EF020EE04F07C51D9267D5137
:100E7800DA22DECF7EF0DDCF7FF07CC0D9FF7DC0E7
:100E8800DAFFDECF80F0DDCF81F07E5180258F6FD5
:100E98007F518121906F20EE02F07C51D9267D513F
:100EA800DA22DECF91F0DDCF92F020EE06F07C5111
:100EB800D9267D51DA22DECF7EF0DDCF7FF020EE1D
:100EC80002F07C51D9267D51DA22DECF80F0DDCFC9
:100ED80081F07E518025936F7F518121946F20EEA0
:100EE80008F07C51D9267D51DA2210EE0AF07C51A7
:100EF800E1267D51E222DE50E61809E1DE50E618CF
:100F0800D8B489EF07F08BEF07F0C8EF07F08DC072
:100F180012F08EC013F091C014F092C015F08FC07B
:100F280016F090C017F093C018F094C019F0010E95
:100F38001A6E20EE0AF07C51D9267D51DA22DECFD6
:100F48001BF0DDCF1CF002EC14F08DC012F08EC047
:100F580013F091C014F092C015F08FC016F090C035
:100F680017F093C018F094C019F0000E1A6E000123
:100F780020EE08F07C51D9267D51DA22DECF1BF015
:100F8800DDCF1CF002EC14F0000120EE0CF07C51D7
:100F9800D9267D51DA22DECFF6FFDDCFF7FF080034
:100FA800F550420AD8A4DBEF07F0DDEF07F08DEF2C
:100FB80008F020EE0CF07C51D9267D51DA22DECFE4
:100FC8007EF0DDCF7FF0010E7E27000E7F237EC0EE
:100FD800F6FF7FC0F7FF0800F5504D0AD8A4F7EFD9
:100FE80007F0F9EF07F08DEF08F020EE0CF07C51D8
:100FF800D9267D51DA22DECF9AF0DDCF9BF020EEA4
:1010080002F07C51D9267D51DA22DECF7EF0DDCF89
:101018007FF0160E9A25806F000E9B21816F80C08D
:10102800F6FF81C0F7FF0900F5CF82F00900F5CF80
:1010380083F00900F5CF84F00900F5CF85F0D8904A
:10104800853384338333823320EE06F07C51D926EE
:101058007D51DA22DECF86F0DDCF87F0D890873158
:10106800896F8631886F8251885F8351895B7E5191
:101078008825976F7F518921986F7CC0D9FF7DC0E3
:10108800DAFFDECF7EF0DDCF7FF0120E9A25806F7B
:10109800000E9B21816F80C0F6FF81C0F7FF090019
:1010A800F5CF82F00900F5CF83F00900F5CF84F081
:1010B8000900F5CF85F0D8908533843383338233A4
:1010C80020EE04F07C51D9267D51DA22DECF86F05D
:1010D800DDCF87F0D8908731896F8631886F82514C
:1010E800885F8351895B7E518825956F7F5189215F
:1010F800966F9AC027F09BC028F095C029F096C03B
:101108002AF097C02BF098C02CF02FEC04F09AEF3F
:1011180009F020EE02F07C51D9267D51DA22DECF8B
:101128007EF0DDCF7FF020EE0EF07C51D9267D5188
:10113800DA22DECFF6FFDDCFF7FF0800F550126E9A
:10114800136A000E156E020E146E40EC26F00001B4
:1011580020EE06F07C51D9267D51DA22DECF80F0D0
:10116800DDCF81F0D8908131836F8031826F12504A
:10117800825F1350835B7E518225976F7F51832155
:10118800986F000E996F25EF09F020EE0EF07C5154
:10119800D9267D51DA22DECF7EF0DDCF7FF0010E39
:1011A8007E27000E7F237EC0F6FF7FC0F7FF080072
:1011B800F5CF80F020EE0CF07C51D9267D51DA2253
:1011C800DECF81F0DDCF82F099518127000E822396
:1011D80081C0F6FF82C0F7FF0800F5CF83F0805189
:1011E800835D8A6F8A51030D20EE0EF07C51D9265B
:1011F8007D51DA22DECF7EF0DDCF7FF0030E7E2731
:10120800000E7F237EC0F6FF7FC0F7FF0900F5CFF1
:1012180080F00900F5CF81F0F3508027F450812346
:1012280080C0F6FF81C0F7FF0800F550826F836B1E
:10123800020E8227000E832382518B2783518C2331
:10124800992B20EE0CF07C51D9267D51DA22DECF85
:1012580012F0DDCF13F009EC2EF0000199517E6FEA
:101268007F6B12507E5D13507F59D8A03EEF09F076
:1012780040EF09F0C9EF08F07CC0D9FF7DC0DAFF64
:10128800DECF7EF0DDCF7FF0D8908C31816F8B314F
:10129800806F20EE04F07C51D9267D51DA22DECF12
:1012A80082F0DDCF83F0D8908331856F8231846FEF
:1012B8008051845F8151855B7E518425956F7F5174
:1012C8008521966F20EE0CF07C51D9267D51DA22CB
:1012D800DECF20F0DDCF21F020EE0EF07C51D926B4
:1012E8007D51DA22DECF22F0DDCF23F0000E246E0E
:1012F80095C025F096C026F097C027F098C028F032
:1013080020EE08F07C51D9267D51DA22DECF29F073
:10131800DDCF2AF020EE0AF07C51D9267D51DA2261
:10132800DECF2BF0DDCF2CF05BEC0EF07CC025F08F
:101338007DC026F09AEC19F0120020EE0EF027502E
:10134800D9262850DA22DE50DE10D8B4AEEF09F0E4
:10135800B0EF09F03CEF0AF027C0D9FF28C0DAFF48
:10136800DECF29F0DDCF2AF020EE0EF02750D92667
:101378002850DA22DECF2BF0DDCF2CF020EE04F05F
:101388002750D9262850DA22DECF2DF0DDCF2EF0D7
:101398002B502D5C1A6E2C502E581B6E20EE13F01D
:1013A8002750D9262850DA22DECF1CF0DDCF1DF0D9
:1013B8000FEC2FF01AC020F01BC021F020EE15F022
:1013C8002750D9262850DA22DECF22F0DDCF23F0AD
:1013D80093EC2BF0295020262A502122010E20249C
:1013E800356E000E2120366E20EE0EF02750D926DD
:1013F8002850DA22DECF29F0DDCF2AF03550292611
:1014080036502A22FE0E29242F6EFF0E2A20306E17
:1014180020EE02F02750D9262850DA22DECF29F014
:10142800DDCF2AF0020E2924316E000E2A20326EFA
:1014380020EE06F02750D9262850DA22DECF29F0F0
:10144800DDCF2AF020EE02F02750D9262850DA22E4
:10145800DECF2BF0DDCF2CF029502B262A502C2262
:10146800FE0E2B24336EFF0E2C20346EB0EF0AF0E4
:1014780027C0D9FF28C0DAFFDECF29F0DDCF2AF058
:10148800010E2924356E000E2A20366E27C0D9FF9A
:1014980028C0DAFFDECF29F0DDCF2AF020EE04F0F5
:1014A8002750D9262850DA22DECF1AF0DDCF1BF0DC
:1014B80020EE13F02750D9262850DA22DECF1CF070
:1014C800DDCF1DF00FEC2FF01AC020F01BC021F06B
:1014D80020EE15F02750D9262850DA22DECF22F048
:1014E800DDCF23F093EC2BF0295020262A5021221F
:1014F800FF0E20242F6EFF0E2120306E20EE02F00A
:101508002750D9262850DA22DECF29F0DDCF2AF05D
:10151800020E2924316E000E2A20326E20EE06F0CB
:101528002750D9262850DA22DECF29F0DDCF2AF03D
:1015380020EE02F02750D9262850DA22DECF2BF0F1
:10154800DDCF2CF029502B262A502C22FE0E2B24DE
:10155800336EFF0E2C20346E35C012F036C013F0F7
:1015680031C014F032C015F02FC016F030C017F09B
:1015780033C018F034C019F0010E1A6E20EE0AF0CC
:101588002750D9262850DA22DECF1BF0DDCF1CF0F9
:1015980002EC14F020EE11F02750D9262850DA2258
:1015A80010EE13F02750E1262850E222DECFE6FFA6
:1015B800DDCFE5FF20EE0EF02750D9262850DA229D
:1015C800DE50DE10D8A4EBEF0AF0EDEF0AF063EF7F
:1015D8000BF027C0D9FF28C0DAFFDECF29F0DDCF16
:1015E8002AF0010E2924356E000E2A20366E27C0F7
:1015F800D9FF28C0DAFFDECF29F0DDCF2AF020EEB0
:1016080004F02750D9262850DA22DECF1AF0DDCF91
:101618001BF020EE11F02750D9262850DA22DECF11
:101628001CF0DDCF1DF00FEC2FF01AC020F01BC00E
:1016380021F020EE15F02750D9262850DA22DECFE7
:1016480022F0DDCF23F093EC2BF0295020262A50EE
:101658002122FF0E20242F6EFF0E2120306E20EE57
:1016680002F02750D9262850DA22DECF29F0DDCF24
:101678002AF0020E2924316E000E2A20326E20EE46
:1016880006F02750D9262850DA22DECF29F0DDCF00
:101698002AF020EE02F02750D9262850DA22DECF91
:1016A8002BF0DDCF2CF029502B262A502C22FE0EB1
:1016B8002B24336EFF0E2C20346EEDEF0BF027C079
:1016C800D9FF28C0DAFFDECF29F0DDCF2AF020EEDF
:1016D8000EF02750D9262850DA22DECF2BF0DDCFA6
:1016E8002CF020EE04F02750D9262850DA22DECF3D
:1016F8002DF0DDCF2EF02B502D5C1A6E2C502E586D
:101708001B6E20EE11F02750D9262850DA22DECFA2
:101718001CF0DDCF1DF00FEC2FF01AC020F01BC01D
:1017280021F020EE15F02750D9262850DA22DECFF6
:1017380022F0DDCF23F093EC2BF0295020262A50FD
:101748002122010E2024356E000E2120366E20EE57
:101758000EF02750D9262850DA22DECF29F0DDCF27
:101768002AF03550292636502A22FE0E29242F6EBB
:10177800FF0E2A20306E20EE02F02750D92628507E
:10178800DA22DECF29F0DDCF2AF0020E2924316ECD
:10179800000E2A20326E20EE06F02750D926285057
:1017A800DA22DECF29F0DDCF2AF020EE02F0275032
:1017B800D9262850DA22DECF2BF0DDCF2CF02950A5
:1017C8002B262A502C22FE0E2B24336EFF0E2C20A3
:1017D800346E35C012F036C013F031C014F032C088
:1017E80015F02FC016F030C017F033C018F034C011
:1017F80019F0010E1A6E20EE08F02750D92628504D
:10180800DA22DECF1BF0DDCF1CF002EC14F0120060
:1018180020EE04F01850D9261950DA22010EDB50B8
:1018280009E1320EDE5CD8A01CEF0CF01EEF0CF0C4
:101838003CEF0CF020EE04F01850D9261950DA22AB
:10184800010EDB5007E1400EDE5CD8B02EEF0CF045
:1018580030EF0CF03CEF0CF018C012F019C013F088
:10186800000E156E000E146E52EC2EF04CEF0EF0BA
:1018780020EE04F01850D9261950DA22010EDB5058
:1018880009E1400EDE5CD8A04CEF0CF04EEF0CF0F6
:101898006CEF0CF020EE04F01850D9261950DA221B
:1018A800010EDB5007E14E0EDE5CD8B05EEF0CF0A7
:1018B80060EF0CF06CEF0CF018C012F019C013F0C8
:1018C800000E156E010E146E52EC2EF04CEF0EF059
:1018D80020EE04F01850D9261950DA22010EDB50F8
:1018E80009E14E0EDE5CD8A07CEF0CF07EEF0CF028
:1018F8009CEF0CF020EE04F01850D9261950DA228B
:10190800010EDB5007E15C0EDE5CD8B08EEF0CF008
:1019180090EF0CF09CEF0CF018C012F019C013F007
:10192800000E156E020E146E52EC2EF04CEF0EF0F7
:1019380020EE04F01850D9261950DA22010EDB5097
:1019480009E15C0EDE5CD8A0ACEF0CF0AEEF0CF059
:10195800CCEF0CF020EE04F01850D9261950DA22FA
:10196800010EDB5007E16A0EDE5CD8B0BEEF0CF06A
:10197800C0EF0CF0CCEF0CF018C012F019C013F047
:10198800000E156E030E146E52EC2EF04CEF0EF096
:1019980020EE04F01850D9261950DA22010EDB5037
:1019A80009E16A0EDE5CD8A0DCEF0CF0DEEF0CF08B
:1019B800FCEF0CF020EE04F01850D9261950DA226A
:1019C800010EDB5007E1780EDE5CD8B0EEEF0CF0CC
:1019D800F0EF0CF0FCEF0CF018C012F019C013F087
:1019E800000E156E040E146E52EC2EF04CEF0EF035
:1019F80020EE04F01850D9261950DA22010EDB50D7
:101A080009E1780EDE5CD8A00CEF0DF00EEF0DF0BA
:101A18002CEF0DF020EE04F01850D9261950DA22D8
:101A2800010EDB5007E1860EDE5CD8B01EEF0DF02C
:101A380020EF0DF02CEF0DF018C012F019C013F0C4
:101A4800000E156E050E146E52EC2EF04CEF0EF0D3
:101A580020EE04F01850D9261950DA22010EDB5076
:101A680009E1860EDE5CD8A03CEF0DF03EEF0DF0EC
:101A78005CEF0DF020EE04F01850D9261950DA2248
:101A8800010EDB5007E1960EDE5CD8B04EEF0DF08C
:101A980050EF0DF05CEF0DF018C012F019C013F004
:101AA800000E156E060E146E52EC2EF04CEF0EF072
:101AB80020EE04F01850D9261950DA22010EDB5016
:101AC80009E1960EDE5CD8A06CEF0DF06EEF0DF01C
:101AD8008CEF0DF020EE04F01850D9261950DA22B8
:101AE800010EDB5007E1A40EDE5CD8B07EEF0DF0EE
:101AF80080EF0DF08CEF0DF018C012F019C013F044
:101B0800000E156E070E146E52EC2EF04CEF0EF010
:101B180020EE04F01850D9261950DA22010EDB50B5
:101B280009E1A40EDE5CD8A09CEF0DF09EEF0DF04D
:101B3800BCEF0DF020EE04F01850D9261950DA2227
:101B4800010EDB5007E1B20EDE5CD8B0AEEF0DF04F
:101B5800B0EF0DF0BCEF0DF018C012F019C013F083
:101B6800000E156E080E146E52EC2EF04CEF0EF0AF
:101B780020EE04F01850D9261950DA22010EDB5055
:101B880009E1B20EDE5CD8A0CCEF0DF0CEEF0DF07F
:101B9800ECEF0DF020EE04F01850D9261950DA2297
:101BA800010EDB5007E1C00EDE5CD8B0DEEF0DF0B1
:101BB800E0EF0DF0ECEF0DF018C012F019C013F0C3
:101BC800000E156E090E146E52EC2EF04CEF0EF04E
:101BD80020EE04F01850D9261950DA22010EDB50F5
:101BE80009E1C00EDE5CD8A0FCEF0DF0FEEF0DF0B1
:101BF8001CEF0EF020EE04F01850D9261950DA2206
:101C0800010EDB5007E1CE0EDE5CD8B00EEF0EF011
:101C180010EF0EF01CEF0EF018C012F019C013F000
:101C2800000E156E0A0E146E52EC2EF04CEF0EF0EC
:101C380020EE04F01850D9261950DA22010EDB5094
:101C480009E1CE0EDE5CD8A02CEF0EF02EEF0EF0E0
:101C58004CEF0EF020EE04F01850D9261950DA2275
:101C6800010EDB5007E1D70EDE5CD8B03EEF0EF078
:101C780040EF0EF04CEF0EF018C012F019C013F040
:101C8800000E156E0B0E146E52EC2EF04CEF0EF08B
:101C980018C0D9FF19C0DAFF10EEA9F01850E126D4
:101CA8001950E222DECFE6FFDDCFE5FF1200000E7D
:101CB800416E000E3E6EB0EF0EF0010E22242D6E26
:101CC800000E23202E6E2DC0F6FF2EC0F7FF080051
:101CD800F5CF2FF03E502024306E000E2120316EBB
:101CE80030C0F6FF31C0F7FFF86A050EF76403D07D
:101CF8000800F55005D0F6CFE1FFF7CFE2FFE75037
:101D0800326E2F50325C3F6E3F501A6E1B6A1ABEFD
:101D18001B06000E1D6E030E1C6E0FEC2FF0030E3B
:101D280022242D6E000E23202E6E2DC0F6FF2EC00D
:101D3800F7FF0900F5CF2FF00900F5CF30F01A5062
:101D48002F261B5030222FC0F6FF30C0F7FF0800A7
:101D5800F550020F41263E2A20C012F021C013F090
:101D680009EC2EF03E502D6E2E6A12502D5C135049
:101D78002E58D8A0C2EF0EF0C4EF0EF061EF0EF0AF
:101D88002404D8A4CAEF0EF0CCEF0EF0D5EF0EF075
:101D98004150255C256E2650D8A02604266EEDEF0E
:101DA8000EF0020E2418D8A4DCEF0EF0DEEF0EF0D1
:101DB800EDEF0EF041C012F0136A000E156E020E20
:101DC800146E40EC26F01250255C256E13502658F0
:101DD800266E010E22242D6E000E23202E6E2DC09D
:101DE800F6FF2EC0F7FF0800F5CF2FF020C0F6FF52
:101DF80021C0F7FFF86A050EF76403D00800F55014
:101E080005D0F6CFE1FFF7CFE2FFE750306E2F5055
:101E1800305C3F6E3F501A6E1B6A1ABE1B06000EDE
:101E28001D6E030E1C6E0FEC2FF0030E22242D6E78
:101E3800000E23202E6E2DC0F6FF2EC0F7FF0900DE
:101E4800F5CF2FF00900F5CF30F01A502F261B5090
:101E58003022010E2F26000E30222FC0F6FF30C090
:101E6800F7FF0900F5CF33F00A00F5CF34F03F5003
:101E78001A6E1B6A1ABE1B06000E1D6E030E1C6E20
:101E88000FEC2FF0030E22242D6E000E23202E6E51
:101E98002DC0F6FF2EC0F7FF0900F5CF2FF009007F
:101EA800F5CF30F01A502F261B5030222FC0F6FFE6
:101EB80030C0F7FF0800F5CF41F02A0E806E8B98EE
:101EC8008B968B868B882650806E8B968B8625C04A
:101ED80080FF8B968B86415025242D6E000E262080
:101EE8002E6E010E2D243B6E000E2E203C6E3C50B3
:101EF800806E8B968B863BC080FF8B968B862B0ED5
:101F0800806E8B988B968B868B882850806E8B96EC
:101F18008B8627C080FF8B968B8622C0F6FF23C056
:101F2800F7FF0800F55027242D6E000E28202E6E8E
:101F3800FF0E2D24396EFF0E2E203A6E3A50806E19
:101F48008B968B8639C080FF8B968B862C0E806E85
:101F58008B988B968B868B88000E3D6E4BEF10F01E
:101F68003DC01AF01B6A000E156E080E146E070E9F
:101F78004124126E136A000E132240EC26F012C0A0
:101F88001CF013C01DF00FEC2FF033501A24356EDF
:101F980034501B20366E000E406E2AEF10F040C001
:101FA80012F0136A000E156E080E146E40EC26F03F
:101FB800050E22242D6E000E23202E6E2DC0F6FF56
:101FC8002EC0F7FF0900F5CF2FF00900F5CF30F04C
:101FD80012502F261350302235502F2636503022DB
:101FE8002FC0F6FF30C0F7FF0800F5CF37F040C02C
:101FF8002DF0070E2D16800E2E6E000E2F6E2D2A38
:1020080009EF10F02F342F322E322D2E06EF10F05C
:102018002E503714386E3850D8B415EF10F017EF2B
:1020280010F021EF10F02A50806E8B968B8629C015
:1020380080FF8B968B8629EF10F02C50806E8B9644
:102048008B862BC080FF1DEF10F0402A4150405C6A
:10205800D8A031EF10F033EF10F0D3EF0FF0000EEF
:10206800406E010E40643BEF10F03DEF10F03FEF83
:1020780010F04AEF10F02C50806E8B968B862BC098
:1020880080FF8B968B86402A35EF10F03D2A22C0C0
:10209800F6FF23C0F7FF0900F5503D5CD8A057EFC5
:1020A80010F059EF10F0B4EF0FF0415025242D6EC9
:1020B800000E26202E6E020E2D24256E000E2E20D8
:1020C800266E204A212A20C0F6FF21C0F7FFF86AB1
:1020D800050EF76403D00800F55005D0F6CFE1FFF0
:1020E800F7CFE2FFE7500009D8A47DEF10F07FEFAB
:1020F80010F0EDEF0EF012002350800B306E2350DD
:102108002324376E22AE8BEF10F08DEF10F08EEF98
:1021180010F037803750D8B494EF10F096EF10F0E5
:10212800ABEF10F03728D8A49CEF10F09EEF10F01A
:10213800A6EF10F0000E206E000E216E000E226E2B
:10214800000E236E228E000E236EB3EF10F0000EE9
:10215800206E000E216E000E226E000E236E275098
:10216800800B301A27502724386E26AEBEEF10F0A9
:10217800C0EF10F0C1EF10F038803850D8B4C7EF76
:1021880010F0C9EF10F0DEEF10F03828D8A4CFEF28
:1021980010F0D1EF10F0D9EF10F0000E246E000E01
:1021A800256E000E266E000E276E268E000E276EF8
:1021B800E6EF10F0000E246E000E256E000E266E5F
:1021C800000E276E2450251026102710D8A4EFEFF4
:1021D80010F0F1EF10F009EF11F0000E206E000E74
:1021E800216E000E226E000E236E800E22127F0ECC
:1021F80023123050231220C020F021C021F022C029
:1022080022F023C023F04CEF12F03750D8A40FEF80
:1022180011F011EF11F01BEF11F0000E206E000EFF
:10222800216E000E226E000E236E4CEF12F0385015
:1022380037C028F0296A285E000E295A7F0E282404
:10224800316E000E2920326E20C02CF021C02DF0F6
:1022580022C02EF023C02FF0000E206E000E216E3B
:10226800000E226E000E236E000E336E000E346ECA
:10227800000E356E000E366E000E386E7CEF11F0D3
:102288003850D8B44AEF11F04CEF11F063EF11F069
:10229800D8902C362D362E362F36D890203621362B
:1022A8002236233636AE5BEF11F05DEF11F05EEFAC
:1022B80011F02080D89033363436353636362450EF
:1022C8002C5C25502D5826502E5827502F58D8A012
:1022D80070EF11F072EF11F07BEF11F0368C245093
:1022E8002C5E25502D5A26502E5A27502F5A382A00
:1022F800190E386482EF11F084EF11F044EF11F0F9
:102308002C502D102E102F10D8B48DEF11F08FEF08
:1023180011F0A7EF11F03380A7EF11F0D890203615
:1023280021362236233636AE9CEF11F09EEF11F09F
:102338009FEF11F02080D890333634363536363654
:102348003106D8A0320622AEACEF11F0AEEF11F094
:1023580092EF11F0000E386E36AEB5EF11F0B7EF10
:1023680011F0DBEF11F0FF0E3314286EFF0E34145A
:10237800296EFF0E35142A6E7F0E36142B6E2850E8
:1023880029102A102B10D8B4CCEF11F0CEEF11F091
:10239800D2EF11F0010E386EDBEF11F020A0D7EF6D
:1023A80011F0D9EF11F0DBEF11F0CEEF11F038504A
:1023B800D8B4E1EF11F0E3EF11F007EF12F0010EDE
:1023C8002026000E21222222232223A0EEEF11F044
:1023D800F0EF11F007EF12F020C028F021C029F02B
:1023E80022C02AF023C02BF02B342B322A32293278
:1023F800283228C020F029C021F02AC022F02BC0A2
:1024080023F0314A322A32BE12EF12F0325008E17C
:102418003128D8A012EF12F014EF12F01FEF12F0CB
:10242800000E326E3168000E206E000E216E000E16
:10243800226E000E236E32BE2CEF12F0325006E1EF
:102448003104D8B02AEF12F02CEF12F03AEF12F064
:10245800000E326E000E316E000E206E000E216EE0
:10246800000E226E000E236E000E306E31C037F063
:1024780037A041EF12F043EF12F046EF12F0228E30
:1024880047EF12F0229ED8903730236EFDEF10F000
:1024980012002BC0D9FF2CC0DAFF0B0EDE6E000E27
:1024A800DD6E676820EE02F02B50D9262C50DA2218
:1024B800000EDE6E000EDD6E20EE04F02B50D926E5
:1024C8002C50DA22000EDE6E000EDD6E20EE06F0D5
:1024D8002B50D9262C50DA22000EDE6E000EDD6E4F
:1024E800B10E2B24126E000E2C20136EE2EC2DF090
:1024F800B90E2B24126E000E2C20136E000E156ED2
:10250800000E146E59EC2AF0BF0E2B24126E000E2A
:102518002C20136E000E156E010E146E59EC2AF065
:10252800000E136E820E126E000E156E320E146EB1
:10253800000E176E5A0E166E000E196E140E186ED7
:10254800FF0E1B6E1A68000E1D6E000E1C6EB30E79
:102558001E6E7F0E1F6EA10E206E7F0E216E000E66
:10256800226E000E236E000E246E000E256E000EE5
:10257800266E000E276E080E2B24286E000E2C20C7
:10258800296E010E2A6E27EC23F0000E136E0A0E38
:10259800126E000E156EFA0E146E000E176E460EB1
:1025A800166E000E196E140E186EFF0E1B6E1A684A
:1025B800000E1D6E000E1C6EC80E1E6E7F0E1F6E66
:1025C800A10E206E7F0E216E000E226E000E236E6D
:1025D800000E246E000E256E000E266E000E276E6D
:1025E800200E2B24286E000E2C20296E020E2A6E37
:1025F80027EC23F0000E136E960E126E000E156E69
:10260800FA0E146E000E176E460E166E000E196E38
:10261800140E186EFF0E1B6E1A68000E1D6E000E4B
:102628001C6ED10E1E6E7F0E1F6EA10E206E7F0EC9
:10263800216E000E226E000E236E000E246E000E18
:10264800256E000E266E000E276E380E2B24286E7F
:10265800000E2C20296E030E2A6E27EC23F0000EA4
:10266800136E820E126E000E156E320E146E000E70
:10267800176E5A0E166E000E196E140E186EFF0E97
:102688001B6E1A68000E1D6E000E1C6EE20E1E6E8A
:102698007F0E1F6EA10E206E7F0E216E000E226E21
:1026A800000E236E000E246E000E256E000E266EA0
:1026B800000E276E500E2B24286E000E2C20296E3B
:1026C800040E2A6E27EC23F0000E136E0A0E126E0B
:1026D800000E156EDC0E146E000E176E460E166E8A
:1026E800000E196E320E186E000E1B6E000E1A6E5A
:1026F800FF0E1D6E1C68F60E1E6E7F0E1F6EA10E5D
:10270800206E7F0E216E000E226E000E236E000ECC
:10271800246E000E256E000E266E000E276E680EC3
:102728002B24286E000E2C20296E050E2A6E27EC0D
:1027380023F0000E136E960E126E000E156EDC0E50
:10274800146E000E176E460E166E000E196E320EBF
:10275800186E000E1B6E000E1A6EFF0E1D6E1C68A2
:10276800FA0E1E6E7F0E1F6EA10E206E7F0E216E5A
:10277800000E226E000E236E000E246E000E256ED3
:10278800000E266E000E276E800E2B24286E000E7B
:102798002C20296E060E2A6E27EC23F0000E136EED
:1027A800320E126E000E156E640E146E000E176E49
:1027B800A50E166E000E196E140E186E000E1B6E06
:1027C800000E1A6EFF0E1D6E1C68F80E1F6E000EAE
:1027D8001E6E000E216E000E206E000E236E0B0E74
:1027E800226E000E246E000E256E980E2B24266E87
:1027F800000E2C20276E21EC24F012001C50216EB4
:102808001BC022F01250165C13501758D8B00FEFA7
:1028180014F011EF14F01DEF14F012C01FF013C0E4
:1028280020F016C012F017C013F01FC016F020C019
:1028380017F01450185C15501958D8B026EF14F03A
:1028480028EF14F034EF14F014C01FF015C020F076
:1028580018C014F019C015F01FC018F020C019F0E6
:102868001A04D8A43AEF14F03CEF14F09EEF14F0D9
:102878002A0E806E8B988B968B868B881350806E71
:102888008B968B8612C080FF8B968B861750806E36
:102898008B968B8616C080FF8B968B862B0E806E50
:1028A8008B988B968B868B881550806E8B968B8633
:1028B80014C080FF8B968B86010E806E8B968B865C
:1028C8003F0E806E8B968B862C0E806E8B988B9627
:1028D8008B868B8812C023F013C024F091EF14F07C
:1028E80014C01DF015C01EF084EF14F021C080FF45
:1028F8008B968B8622C080FF8B968B861D4A1E2A5C
:102908001D50185C1E501958D8B08DEF14F08FEF79
:1029180014F07AEF14F0234A242A2350165C24502A
:102928001758D8B09AEF14F09CEF14F074EF14F025
:102938009EEF15F02A0E806E8B988B968B868B886F
:102948001350806E8B968B8612C080FF8B968B8679
:102958001750806E8B968B8616C080FF8B968B8661
:102968002B0E806E8B988B968B868B881550806E7D
:102978008B968B8614C080FF8B968B86010E806E9B
:102988008B968B863F0E806E8B968B862C0E806E78
:102998008B988B968B868B8812C023F013C024F0FB
:1029A800E0EF14F021C080FF8B968B8622C080FF59
:1029B8008B968B86234A242A2350165C245017585A
:1029C800D8B0E9EF14F0EBEF14F0D6EF14F02B0EBB
:1029D800806E8B988B968B868B881950806E8B9621
:1029E8008B8618C080FF8B968B862C0E806E8B98FA
:1029F8008B968B868B8812C023F013C024F00FEFC0
:102A080015F021C080FF8B968B8622C080FF8B96A5
:102A18008B86234A242A2350165C24501758D8B092
:102A280018EF15F01AEF15F005EF15F02A0E806E65
:102A38008B988B968B868B881350806E8B968B86A3
:102A480012C080FF8B968B861350806E8B968B8678
:102A580012C080FF8B968B862B0E806E8B988B9680
:102A68008B868B881550806E8B968B8614C080FF62
:102A78008B968B86010E806E8B968B863F0E806EB2
:102A88008B968B862C0E806E8B988B968B868B887C
:102A980014C023F015C024F05CEF15F021C080FFAE
:102AA8008B968B8622C080FF8B968B86234A242A9E
:102AB8002350185C24501958D8B065EF15F067EF0B
:102AC80015F052EF15F02A0E806E8B988B968B8638
:102AD8008B881750806E8B968B8616C080FF8B96DE
:102AE8008B861750806E8B968B8616C080FF8B96D0
:102AF8008B862C0E806E8B988B968B868B8814C059
:102B080023F015C024F093EF15F021C080FF8B96B9
:102B18008B8622C080FF8B968B86234A242A2350DB
:102B2800185C24501958D8B09CEF15F09EEF15F09A
:102B380089EF15F012002FC068F030C069F031C07D
:102B48006AF032C06BF033C06CF034C06DF035C041
:102B58006EF036C06FF000016FBFB5EF15F0B8EF3B
:102B680015F0010EB9EF15F0000E666F676B665130
:102B78006711D8B4C2EF15F0C4EF15F0D4EF15F013
:102B88006F1F6E1F6D1F6C1F6B1F6A1F691F686D9B
:102B9800000E69236A236B236C236D236E236F2336
:102BA8004ABED9EF15F0DBEF15F0DCEF15F04B92CC
:102BB8004ABEE9EF15F04A5006E14904D8B0E7EFFC
:102BC80015F0E9EF15F0EFEF15F0000E636F010E49
:102BD800626FF3EF15F049C062F04AC063F047C076
:102BE80064F048C065F066516711D8A4FEEF15F08F
:102BF80000EF16F007EF16F04BA405EF16F007EFFD
:102C080016F00AEF16F06407D8A06507000E716F7A
:102C18001F0E706F000EFF6F8FEF16F07007D8A0B1
:102C28007107E00E7025D96E000E7121DA6E68C04A
:102C380012F069C013F06AC014F06BC015F06CC0D4
:102C480016F06DC017F06EC018F06FC019F00A0EBC
:102C58001A6E000E1B6E000E1C6E000E1D6E000E0E
:102C68001E6E000E1F6E000E206E000E216E0BEC05
:102C78001FF012C037F013C038F014C039F015C077
:102C88003AF016C03BF017C03CF018C03DF019C030
:102C98003EF037C024F039C025F074EC2EF02450F3
:102CA800300FDF6E00016207D8A063076407D8A061
:102CB800650768C012F069C013F06AC014F06BC0F1
:102CC80015F06CC016F06DC017F06EC018F06FC02C
:102CD80019F00A0E1A6E000E1B6E000E1C6E000E06
:102CE8001D6E000E1E6E000E1F6E000E206E000E72
:102CF800216E47EC1EF012C068F013C069F014C0D2
:102D08006AF015C06BF016C06CF017C06DF018C0F3
:102D18006EF019C06FF0000171BF9BEF16F0715192
:102D280008E17005D8A09BEF16F09DEF16F0CDEFE7
:102D380016F0685169116A116B116C116D116E11E1
:102D48006F11D8A4AAEF16F0ACEF16F012EF16F038
:102D580063BFB9EF16F0635106E16205D8B0B7EF6B
:102D680016F0B9EF16F012EF16F065BFC4EF16F0C3
:102D7800655108E16405D8A0C4EF16F0C6EF16F057
:102D8800CDEF16F04BB2CBEF16F0CDEF16F012EFF9
:102D980016F066516711D8A4D4EF16F0D6EF16F0E6
:102DA800DDEF16F04BA4DBEF16F0DDEF16F0FBEFCE
:102DB80016F07007D8A0710766516711D8A4E7EF1D
:102DC80016F0E9EF16F0EFEF16F0000E616F2B0E1C
:102DD800606FF3EF16F0000E616F2D0E606FE00E5E
:102DE8007025D96E000E7121DA6E60C0DFFF2DC02C
:102DF80022F02EC023F0E00E7025246E000E712103
:102E0800256E64C026F065C027F0A2EC26F022C02B
:102E18002DF023C02EF012007BEC29F0110E806EED
:102E28008B988B968B868B88000E186ED00E176E3B
:102E3800CA0EE82EFED7172EFCD7182A090E1864DA
:102E480028EF17F02AEF17F01AEF17F0360E806EFA
:102E58008B988B968B868B88000E806E8B968B86D4
:102E68003A0E806E8B988B968B868B88550E806E6B
:102E78008B968B86B20E806E8B988B968B868B8802
:102E88000C0E806E8B968B860C0E806E8B968B86C6
:102E9800330E806E8B968B86330E806E8B968B8668
:102EA800B70E806E8B988B968B868B88350E806ECE
:102EB8008B968B86BB0E806E8B988B968B868B88B9
:102EC8002B0E806E8B968B86C00E806E8B988B96A1
:102ED8008B868B882C0E806E8B968B86C20E806EAE
:102EE8008B988B968B868B88010E806E8B968B8643
:102EF80080688B968B86C30E806E8B988B968B869C
:102F08008B88110E806E8B968B86C40E806E8B9884
:102F18008B968B868B88200E806E8B968B86C60E42
:102F2800806E8B988B968B868B88090E806E8B961D
:102F38008B86D00E806E8B988B968B868B88A40E92
:102F4800806E8B968B86A10E806E8B968B86E00E9C
:102F5800806E8B988B968B868B88D00E806E8B9626
:102F68008B86000E806E8B968B86050E806E8B96F8
:102F78008B860E0E806E8B968B86150E806E8B96CA
:102F88008B860D0E806E8B968B86370E806E8B9699
:102F98008B86430E806E8B968B86470E806E8B9643
:102FA8008B86090E806E8B968B86150E806E8B969F
:102FB8008B86120E806E8B968B86160E806E8B9685
:102FC8008B86190E806E8B968B86E10E806E8B98A1
:102FD8008B968B868B88D00E806E8B968B86000E98
:102FE800806E8B968B86050E806E8B968B860D0E6B
:102FF800806E8B968B860C0E806E8B968B86060E5B
:10300800806E8B968B862D0E806E8B968B86440EEB
:10301800806E8B968B86400E806E8B968B860E0EFE
:10302800806E8B968B861C0E806E8B968B86180E08
:10303800806E8B968B86160E806E8B968B86190EFD
:10304800806E8B968B862A0E806E8B988B968B86DD
:103058008B88000E806E8B968B86000E806E8B960A
:103068008B86000E806E8B968B86EF0E806E8B960D
:103078008B862B0E806E8B988B968B868B88000E9A
:10308800806E8B968B86000E806E8B968B86010EDB
:10309800806E8B968B863F0E806E8B968B86260E67
:1030A800806E8B988B968B868B88010E806E8B96A4
:1030B8008B86290E806E8B988B968B868B88120058
:1030C80083EF19F044EC2FF099EF19F0F096000E09
:1030D800BAEC2DF0C2B273EF18F075EF18F06EEF7E
:1030E80018F0C4500001936F926BC3509225AE6FD5
:1030F800000E9321AF6FAF5107E1790EAE5DD8B0E6
:1031080088EF18F08AEF18F08EEF18F0000EAF6F06
:10311800780EAE6F660E246E660E256E160E266E3F
:10312800400E276E880E926FFF0E936FAEC094F01C
:10313800AFC095F0925194279351952394C012F003
:1031480095C013F0146A156A000EA7EC1CF012C0A3
:1031580020F013C021F014C022F015C023F080EC39
:1031680010F020C039F021C03AF022C03BF023C053
:103178003CF0A4EC22F039C0AEF03AC0AFF0000148
:10318800AE51F008AE6FAF51D8A0E82A0008AF6F73
:10319800010EBAEC2DF0C2B2D4EF18F0D6EF18F049
:1031A800CFEF18F0C4500001936F926BC350922573
:1031B800AC6F000E9321AD6FAD5107E16A0EAC5DA7
:1031C800D8B0E9EF18F0EBEF18F0EFEF18F0000EB9
:1031D800AD6F690EAC6F970E926FFF0E936FACC018
:1031E80094F0ADC095F09251942793519523D890BF
:1031F8009531966F9431AC6F96C0ADF0000E146E99
:10320800090E136E040E156E000E166E59EC2BF097
:10321800290EC26E44EC2FF0F090F08681B217EFC1
:1032280019F019EF19F099EF19F0980E0001826F53
:10323800000E836FEA0E846F7F0E856FAEC086F036
:10324800AFC087F091EC2DF0980E206E000E216E25
:10325800A10E226E7F0E236E010E246E000E266EC6
:10326800C80E256E000E286EC80E276E000E2A6E38
:10327800000E296EFF0E2C6E2B685BEC0EF090C0D2
:1032880012F091C013F0AEC014F0AFC015F05DECB1
:103298002FF0980E0001826F000E836FF00E846F7E
:1032A8007F0E856FACC086F0ADC087F091EC2DF035
:1032B800980E206E000E216EA10E226E7F0E236ED8
:1032C800010E246E000E266EC80E256E000E286EA6
:1032D800FA0E276E000E2A6E000E296EFF0E2C6E57
:1032E8002B685BEC0EF090C012F091C013F0ACC0EC
:1032F80014F0ADC015F052EC2FF099EF19F0000161
:10330800DE51926F936B9351000AD8B48EEF19F087
:1033180099EF19F09251000AD8B466EF18F0010A33
:10332800D8B46AEF18F099EF19F0120025C0D9FF48
:1033380026C0DAFFDECF33F0DDCF34F020EE04F024
:103348002550D9262650DA22DECF27F0DDCF28F007
:1033580025C0D9FF26C0DAFFDECF29F0DDCF2AF05D
:10336800275029242F6E28502A20306E20EE02F094
:103378002550D9262650DA22DECF31F0DDCF32F0C3
:1033880020EE06F02550D9262650DA22DECF27F087
:10339800DDCF28F020EE02F02550D9262650DA227B
:1033A800DECF29F0DDCF2AF027502924356E2850AA
:1033B8002A20366E20EE10F02550D9262650DA2223
:1033C800DF50D8A4EAEF19F0ECEF19F002EF1AF089
:1033D80020EE08F02550D9262650DA22DECF2BF031
:1033E800DDCF2CF020EE0AF02550D9262650DA221F
:1033F800DECF2DF0DDCF2EF01CEF1AF033C012F027
:1034080034C013F0010E3524146E000E3620156EEC
:1034180061EC20F012C02BF013C02CF020EE08F065
:103428002550D9262650DA22DECF2DF0DDCF2EF01A
:1034380020EE08F02550D9262650DA2210EE0AF0A0
:103448002550E1262650E222DE50E61809E1DE503A
:10345800E618D8B432EF1AF034EF1AF0B4EF1AF0D5
:10346800030E3324126E000E3420136E010E352421
:10347800146E000E3620156E030E2F24166E000EE5
:103488003020176E030E3524186E000E3620196E84
:10349800010E1A6E2BC01BF02CC01CF002EC14F0AD
:1034A800010E2F24126E000E3020136E030E3124ED
:1034B800146E000E3220156E030E2F24166E000EA9
:1034C8003020176E030E3524186E000E3620196E44
:1034D800010E1A6E2BC01BF02CC01CF002EC14F06D
:1034E800010E3324126E000E3420136E010E3124A7
:1034F800146E000E3220156EFF0E2F24166EFF0E6E
:103508003020176E020E3124186E000E3220196E0C
:10351800010E1A6E2DC01BF02EC01CF002EC14F028
:10352800010E3324126E000E3420136E010E312466
:10353800146E000E3220156E020E3324166E000E25
:103548003420176EFF0E3524186EFF0E3620196EC4
:10355800010E1A6E2DC01BF02EC01CF002EC14F0E8
:103568001200AFEF1BF0080E3724126E000E382041
:10357800136E20EE04F03750D9263850DA22DECF09
:1035880014F0DDCF15F020EE06F03750D92638506C
:10359800DA22DECF16F0DDCF17F007EC25F00009B0
:1035A800D8B4D9EF1AF0DBEF1AF0E6EF1AF0000EF4
:1035B800186E070E6FEC2CF037C012F038C013F0FD
:1035C800E6EC2EF0200E3724126E000E3820136E13
:1035D80020EE04F03750D9263850DA22DECF14F026
:1035E800DDCF15F020EE06F03750D9263850DA2214
:1035F800DECF16F0DDCF17F007EC25F00009D8B4C0
:1036080008EF1BF00AEF1BF015EF1BF0000E186E09
:10361800050E6FEC2CF037C012F038C013F0E6EC52
:103628002EF0380E3724126E000E3820136E20EE5E
:1036380004F03750D9263850DA22DECF14F0DDCF27
:1036480015F020EE06F03750D9263850DA22DECFB2
:1036580016F0DDCF17F007EC25F00009D8B437EFE6
:103668001BF039EF1BF0CCEF1BF0000E186E060EA6
:103678006FEC2CF037C012F038C013F0E6EC2EF0E7
:10368800CCEF1BF0980E3724126E000E3820136E04
:1036980020EE04F03750D9263850DA22DECF14F065
:1036A800DDCF15F020EE06F03750D9263850DA2253
:1036B800DECF16F0DDCF17F098EC24F00009D8B46F
:1036C80068EF1BF06AEF1BF07EEF1BF037C018F0B5
:1036D80038C019F00CEC0CF0980E3724276E000E49
:1036E8003820286EA1EC09F037C012F038C013F06A
:1036F800E6EC2EF0500E3724126E000E3820136EB2
:1037080020EE04F03750D9263850DA22DECF14F0F4
:10371800DDCF15F020EE06F03750D9263850DA22E2
:10372800DECF16F0DDCF17F007EC25F00009D8B48E
:10373800A0EF1BF0A2EF1BF0CCEF1BF0000E186EF1
:10374800080E6FEC2CF037C012F038C013F0E6EC1E
:103758002EF0CCEF1BF04D50396E3A6A3A50000A01
:10376800D8B4B9EF1BF0CCEF1BF03950000AD8B42D
:10377800B7EF1AF0010AD8B446EF1BF0030AD8B421
:10378800CCEF1BF0010AD8B4CCEF1BF0CCEF1BF048
:10379800120041C0D9FF42C0DAFFDECFF6FFDDCF0D
:1037A800F7FF0800F550250AD8A4DDEF1BF0DFEF7E
:1037B8001BF08BEF1CF041C0D9FF42C0DAFFDE2AB4
:1037C800000EDD22000E486E000E476E47C04BF01B
:1037D80048C04CF049684A6841C0D9FF42C0DAFF86
:1037E800DECFF6FFDDCFF7FF0800F550640AD8B446
:1037F80000EF1CF002EF1CF014EF1CF041C0D9FFE1
:1038080042C0DAFFDECFF6FFDDCFF7FF0800F55044
:10381800690AD8A412EF1CF014EF1CF055EF1CF045
:1038280041C0D9FF42C0DAFFDE2A000EDD2243C0C4
:10383800D9FF44C0DAFFDFCF45F0020EDE26DFCF26
:1038480046F0000EDD2245C0D9FF46C0DAFFDECFC4
:1038580072F0DDCF73F00001000E73BFFF0E746FBE
:10386800756F766F776F786F796F3FC02DF040C0B6
:103878002EF072C02FF073C030F074C031F075C0F4
:1038880032F076C033F077C034F078C035F079C0C4
:1038980036F09FEC15F02DC03FF02EC040F0A6EF9B
:1038A8001CF041C0D9FF42C0DAFFDECFF6FFDDCF02
:1038B800F7FF0800F550250AD8A465EF1CF067EF5C
:1038C8001CF07EEF1CF041C0D9FF42C0DAFFDE2AAF
:1038D800000EDD22000E136E250E126E3FC014F08E
:1038E80040C015F076EC25F0000E406E010E3F6EDC
:1038F800A6EF1CF041C0D9FF42C0DAFFDE2A000E55
:10390800DD22000E406E000E3F6EA6EF1CF041C097
:10391800D9FF42C0DAFFDECFF6FFDDCFF7FF0800A0
:10392800F550126E136A3FC014F040C015F076ECE3
:1039380025F041C0D9FF42C0DAFFDE2A000EDD22A1
:1039480078EF1CF012001A6E1A50D8B4AEEF1CF0C3
:10395800B0EF1CF0D2EF1CF015BEB7EF1CF0B5EFBE
:103968001CF0D2EF1CF012C016F013C017F014C0F0
:1039780018F015C019F0161E171E181E191E162A43
:10398800000E17221822192216C01CF017C01DF0AD
:1039980018C01EF019C01FF0DAEF1CF012C01CF09E
:1039A80013C01DF014C01EF015C01FF012501310E4
:1039B80014101510D8A4E3EF1CF0E5EF1CF0EFEF9E
:1039C8001CF0000E126E000E136E000E146E000E28
:1039D800156E80EF1DF0960E1B6EF9EF1CF01B2A7A
:1039E800D8901F321E321D321C32000E1C14166E67
:1039F800000E1D14176E000E1E14186EFE0E1F14F6
:103A0800196E1650171018101910D8A40EEF1DF0C3
:103A180010EF1DF0F3EF1CF01EEF1DF01B2A010E36
:103A28001C26000E1D221E221F22D8901F321E3275
:103A38001D321C32000E1C14166E000E1D14176E5B
:103A4800000E1E14186EFF0E1F14196E1650171054
:103A580018101910D8A433EF1DF035EF1DF012EF30
:103A68001DF03DEF1DF01B06D8901C361D361E3686
:103A78001F361EBE42EF1DF044EF1DF04CEF1DF047
:103A8800020E1B604AEF1DF04CEF1DF037EF1DF0E2
:103A98001BB051EF1DF053EF1DF054EF1DF01E9EAB
:103AA800D8901B321BC016F0176A186A196A16C01C
:103AB80019F0186A176A166A16501C1217501D1248
:103AC80018501E1219501F121A50D8B46EEF1DF05C
:103AD80070EF1DF078EF1DF015BE77EF1DF075EF54
:103AE8001DF078EF1DF01F8E1CC012F01DC013F0E2
:103AF8001EC014F01FC015F01200416E29EF1EF011
:103B08003BC037F03CC038F0B5EC1AF0070E41184E
:103B1800D8A491EF1DF093EF1DF095EF1DF0010E65
:103B28004D6E050E4118D8A49CEF1DF09EEF1DF0B8
:103B380046EF1EF0020E4D6E46EF1EF03BC037F00A
:103B48003CC038F0B5EC1AF0080E4118D8A4AFEF15
:103B58001DF0B1EF1DF046EF1EF0000E4D6E46EF62
:103B68001EF04104D8A4BBEF1DF0BDEF1DF0C5EF5A
:103B78001DF03BC02FF03CC030F0A4EC23F046EF22
:103B88001EF00A0E4118D8A4CCEF1DF0CEEF1DF0A0
:103B980046EF1EF03BC039F03CC03AF035EC2FF050
:103BA80020EEBFF03B50D9263C50DA22DECF12F08F
:103BB800DDCF13F020EEC1F03B50D9263C50DA227D
:103BC800DECF14F0DDCF15F020EEBFF03B50D92644
:103BD8003C50DA22DECF3DF0DDCF3EF0320E3D2400
:103BE800166E000E3E20176E20EEC1F03B50D9260F
:103BF8003C50DA22DECF3FF0DDCF40F0140E3F24F8
:103C0800186E000E4020196E010E1A6EFF0E1C6E03
:103C18001B6802EC14F020EEB1F03B50D9263C5062
:103C2800DA2210EEBFF03B50E1263C50E222DECF14
:103C3800E6FFDDCFE5FFBF0E3B24256E000E3C20DE
:103C4800266EDEEC2AF046EF1EF04D503D6E3E6AC1
:103C58003E50000AD8B433EF1EF046EF1EF03D5038
:103C6800000AD8B484EF1DF0010AD8B4A2EF1DF001
:103C7800030AD8B4B5EF1DF0010AD8B446EF1EF018
:103C880046EF1EF01200000E236E21BE50EF1EF00C
:103C98004EEF1EF062EF1EF0211E201E1F1E1E1E7C
:103CA8001D1E1C1E1B1E1A6C000E1B221C221D2210
:103CB8001E221F2220222122010E236E19BE69EF27
:103CC8001EF067EF1EF07BEF1EF0191E181E171E60
:103CD800161E151E141E131E126C000E132214221B
:103CE80015221622172218221922010E231A20EE55
:103CF80024F0070EDE6AE806FDE21A501B101C10BD
:103D08001D101E101F1020102110D8B48EEF1EF0A9
:103D180090EF1EF0E2EF1EF0010E226E9EEF1EF0F5
:103D2800D8901A361B361C361D361E361F362036DE
:103D38002136222A21AEA3EF1EF0A5EF1EF094EF44
:103D48001EF0D890243625362636273628362936CA
:103D58002A362B361A50125C1B5013581C50145814
:103D68001D5015581E5016581F50175820501858D7
:103D780021501958D8A0C3EF1EF0C5EF1EF0D6EF9A
:103D88001EF01A50125E1B50135A1C50145A1D5024
:103D9800155A1E50165A1F50175A2050185A21509B
:103DA800195A2480D890213220321F321E321D32F7
:103DB8001C321B321A32222EA5EF1EF02350D8B423
:103DC800E8EF1EF0EAEF1EF0FAEF1EF02B1E2A1E97
:103DD800291E281E271E261E251E246C000E25229D
:103DE80026222722282229222A222B2224C012F026
:103DF80025C013F026C014F027C015F028C016F00F
:103E080029C017F02AC018F02BC019F01200000EB4
:103E1800236E19BE14EF1FF012EF1FF026EF1FF0EC
:103E2800191E181E171E161E151E141E131E126CA0
:103E3800000E1322142215221622172218221922E4
:103E4800010E236E21BE2DEF1FF02BEF1FF03DEF6B
:103E58001FF0211E201E1F1E1E1E1D1E1C1E1B1EA7
:103E68001A6C000E1B221C221D221E221F22202239
:103E780021221A501B101C101D101E101F1020107C
:103E88002110D8B44AEF1FF04CEF1FF094EF1FF049
:103E9800010E226E5AEF1FF0D8901A361B361C36C8
:103EA8001D361E361F3620362136222A21AE5FEFF8
:103EB8001FF061EF1FF050EF1FF01A50125C1B50FB
:103EC80013581C5014581D5015581E5016581F5082
:103ED80017582050185821501958D8A076EF1FF0BD
:103EE80078EF1FF088EF1FF01A50125E1B50135A1C
:103EF8001C50145A1D50155A1E50165A1F50175A46
:103F08002050185A2150195AD890213220321F3285
:103F18001E321D321C321B321A32222E61EF1FF064
:103F28002350D8B49AEF1FF09CEF1FF0ACEF1FF0AE
:103F3800191E181E171E161E151E141E131E126C8F
:103F4800000E1322142215221622172218221922D3
:103F580012C012F013C013F014C014F015C015F0FD
:103F680016C016F017C017F018C018F019C019F0CD
:103F7800120025C0D9FF26C0DAFFDECF12F0DDCF50
:103F880013F020EE02F02550D9262650DA22DECF93
:103F980014F0DDCF15F025C0D9FF26C0DAFFDECF3B
:103FA8002BF0DDCF2CF0320E2B24166E000E2C20B9
:103FB800176E20EE02F02550D9262650DA22DECFE1
:103FC8002DF0DDCF2EF0140E2D24186E000E2E20AD
:103FD800196E010E1A6EFF0E1C6E1B6802EC14F0AF
:103FE80029042A10D8A4FBEF1FF0FDEF1FF032EFD1
:103FF80020F025C0D9FF26C0DAFFDECF2BF0DDCFB9
:104008002CF027502B2628502C2225C0D9FF26C05B
:10401800DAFF2BC0DEFF2CC0DDFF25C0D9FF26C08C
:10402800DAFFDECF2BF0DDCF2CF0320E2B26000E80
:104038002C222C5009E1F00E2B5CD8A026EF20F0A2
:1040480028EF20F060EF20F025C0D9FF26C0DAFF66
:10405800BD0EDE6E000EDD6E60EF20F025C0D9FFCC
:1040680026C0DAFF010EDB5007E1090EDE5CD8B08E
:1040780040EF20F042EF20F04CEF20F025C0D9FFB0
:1040880026C0DAFF000EDE6E000EDD6E60EF20F057
:1040980025C0D9FF26C0DAFFDECF2BF0DDCF2CF00C
:1040A80027502B5E28502C5A25C0D9FF26C0DAFF8E
:1040B8002BC0DEFF2CC0DDFF12002A0E806E8B980D
:1040C8008B968B868B881350806E8B968B8612C04E
:1040D80080FF8B968B86000E806E8B968B86EF0EFC
:1040E800806E8B968B862B0E806E8B988B968B862C
:1040F8008B881550806E8B968B8614C080FF8B96AC
:104108008B86010E806E8B968B863F0E806E8B960B
:104118008B862E0E806E8B988B968B868B889268FA
:104128008B9400F08B8492688B9400F080CF1AF007
:104138001B6A8B841AC016F01BC017F0D890173270
:104148001632D89017321632D8901732163216C057
:104158001AF017C01BF01AC016F01BC017F00B0E90
:10416800D89016361736E82EB4EF20F016C018F09F
:1041780017C019F08B9400F080CF1AF01B6A8B845B
:104188001AC016F01BC017F0D89017321632D89004
:104198001732163216C01AF017C01BF01AC016F0E4
:1041A8001BC017F0050ED89016361736E82ED7EF35
:1041B80020F016501812175019128B9400F08050E6
:1041C8001A128B841AC016F01BC017F0D890173239
:1041D8001632D89017321632D8901732163216C0C7
:1041E8001AF017C01BF01A5018121B501912000EA3
:1041F800926E18C012F019C013F01200000E0D6E66
:10420800000E0C6E0CC001F00DC002F0000E046E22
:10421800030E036E22EC2FF0B70E0124D96E000EA8
:104228000220DA6EDF50D8B41CEF21F01EEF21F027
:1042380082EF21F00CC001F00DC002F0000E046EF8
:10424800030E036E22EC2FF0B50E0124D96E000E7A
:104258000220DA6EDE06000EDD5A0CC001F00DC039
:1042680002F0000E046E030E036E22EC2FF0B50E62
:104278000124D96E000E0220DA6EDE50DE10D8A4BA
:1042880048EF21F04AEF21F082EF21F0010E076E8E
:104298000CC001F00DC002F0000E046E030E036E98
:1042A80022EC2FF0B70E0124D96E000E0220DA6E30
:1042B800DF50D3EC2CF0E806D8A465EF21F067EFC7
:1042C80021F06EEF21F0010E026E0C5094EC2EF0EE
:1042D80082EF21F00CC001F00DC002F0000E046E58
:1042E800030E036E22EC2FF0B50E0124D96E000EDA
:1042F8000220DA6E010EDE6E000EDD6E0C4A0D2A0B
:104308000DBE90EF21F00D5009E1080E0C5CD8A00D
:1043180090EF21F092EF21F006EF21F012002FC06C
:10432800D9FF30C0DAFFDECF31F0DDCF32F0F80E42
:104338003124126EFF0E3220136E20EE02F02F5041
:10434800D9263050DA22DECF33F0DDCF34F0F80E44
:104358003324146EFF0E3420156E2FC0D9FF30C0E1
:10436800DAFFDECF35F0DDCF36F0080E3524166ED5
:10437800000E3620176E20EE02F02F50D92630504E
:10438800DA22DECF37F0DDCF38F0080E3724186E8A
:10439800000E3820196E010E1A6EFF0E1C6E1B6877
:1043A80002EC14F020EE04F02F50D9263050DA2217
:1043B800DECF31F0DDCF32F02FC0D9FF30C0DAFFC9
:1043C800DECF33F0DDCF34F0315033263250342293
:1043D8002FC0D9FF30C0DAFF33C0DEFF34C0DDFFA5
:1043E80020EE06F02F50D9263050DA22DECF31F0F9
:1043F800DDCF32F020EE02F02F50D9263050DA22ED
:10440800DECF33F0DDCF34F0315033263250342252
:1044180020EE02F02F50D9263050DA2233C0DEFFCA
:1044280034C0DDFF2FC025F030C026F014EC2AF090
:10443800120037C0D9FF38C0DAFFDECF3DF0DDCF3C
:104448003EF020EE04F03750D9263850DA22DECF7D
:1044580039F0DDCF3AF037C0D9FF38C0DAFFDECF08
:104468003BF0DDCF3CF039503B243F6E3A503C20C6
:10447800406E20EE02F03750D9263850DA22DECFCF
:1044880041F0DDCF42F020EE06F03750D926385003
:10449800DA22DECF39F0DDCF3AF020EE02F03750E5
:1044A800D9263850DA22DECF3BF0DDCF3CF0395048
:1044B8003B24436E3A503C20446E3DC012F03EC04F
:1044C80013F041C014F042C015F03FC016F040C0D0
:1044D80017F043C018F044C019F0010E1A6E20EE10
:1044E8000AF03750D9263850DA22DECF1BF0DDCF5C
:1044F8001CF002EC14F03DC012F03EC013F041C0B5
:1045080014F042C015F03FC016F040C017F043C089
:1045180018F044C019F0000E1A6E20EE0CF0375057
:10452800D9263850DA22DECF1BF0DDCF1CF002ECA2
:1045380014F037C027F038C028F0A1EC09F01200B9
:104548003B343C34426E4250D8A4ADEF22F0AFEF7A
:1045580022F0B9EF22F0000E396E000E3A6E000E0E
:104568003B6E000E3C6E26EF23F039C03DF03AC09A
:104578003EF03BC03FF03CC040F0200EC9EF22F0B7
:10458800D89040323F323E323D32E82EC4EF22F01E
:104598003D50416E3B8EFF0E3916FF0E3A16FF0E48
:1045A8003B16000E3C16960E425E42BEE0EF22F02D
:1045B800DEEF22F0F6EF22F04250800A970FD8B0D3
:1045C800E8EF22F0EAEF22F0ECEF22F0AFEF22F072
:1045D800D8903C323B323A323932423EECEF22F04C
:1045E8000EEF23F01F0E4264FCEF22F0FEEF22F0E4
:1045F80006EF23F0AFEF22F0D89039363A363B3643
:104608003C3642064250D8A40CEF23F00EEF23F0BC
:1046180000EF23F04150D8B414EF23F016EF23F045
:104628001EEF23F03C1E3B1E3A1E396C000E3A2248
:104638003B223C2239C039F03AC03AF03BC03BF04B
:104648003CC03CF0120028C0D9FF29C0DAFF12C0D4
:10465800DEFF13C0DDFF20EE02F02850D9262950D6
:10466800DA2214C0DEFF15C0DDFF20EE06F0285068
:10467800D9262950DA2218C0DEFF19C0DDFF20EE46
:1046880004F02850D9262950DA2216C0DEFF17C0B8
:10469800DDFF20EE08F02850D9262950DA221AC06A
:1046A800DEFF1BC0DDFF20EE0AF02850D926295076
:1046B800DA221CC0DEFF1DC0DDFF20EE0CF0285002
:1046C800D9262950DA221EC0DEFF1FC0DDFF20EEEA
:1046D8000EF02850D9262950DA2220C0DEFF21C04A
:1046E800DDFF20EE11F02850D9262950DA2222C009
:1046F800DEFF23C0DDFF20EE13F02850D926295015
:10470800DA2224C0DEFF25C0DDFF20EE15F0285098
:10471800D9262950DA2226C0DEFF27C0DDFF20EE89
:1047280017F02850D9262950DA222AC0DFFF20EEB8
:1047380010F02850D9262950DA22000EDF6E120018
:10474800680E2F24126E000E3020136E20EE04F037
:104758002F50D9263050DA22DECF14F0DDCF15F0F5
:1047680020EE06F02F50D9263050DA22DECF16F090
:10477800DDCF17F007EC25F00009D8B4C6EF23F019
:10478800C8EF23F0DEEF23F02FC012F030C013F093
:10479800E6EC2EF0B90E2F24256E000E3020266E82
:1047A800000E286E080E276E000E2A6E000E296E67
:1047B800BDEC1FF0800E2F24126E000E3020136EF9
:1047C80020EE04F02F50D9263050DA22DECF14F034
:1047D800DDCF15F020EE06F02F50D9263050DA2222
:1047E800DECF16F0DDCF17F007EC25F00009D8B4BE
:1047F80000EF24F002EF24F018EF24F02FC012F09D
:1048080030C013F0E6EC2EF0B90E2F24256E000E02
:104818003020266E000E286E080E276E000E2A6EB7
:10482800010E296EBDEC1FF0B90E2F24256E000E67
:104838003020266EDEEC2AF0120026C0D9FF27C0F1
:10484800DAFF12C0DEFF13C0DDFF20EE02F02650B3
:10485800D9262750DA2214C0DEFF15C0DDFF20EE6E
:1048680006F02650D9262750DA2218C0DEFF19C0D4
:10487800DDFF20EE04F02650D9262750DA2216C094
:10488800DEFF17C0DDFF20EE08F02650D92627509E
:10489800DA221AC0DEFF1BC0DDFF20EE0AF0265028
:1048A800D9262750DA221CC0DEFF1DC0DDFF20EE0E
:1048B8000CF02650D9262750DA221EC0DEFF1FC072
:1048C800DDFF20EE0EF02650D9262750DA2220C030
:1048D800DEFF21C0DDFF20EE17F02650D926275035
:1048E800DA2224C0DEFF25C0DDFF20EE15F02650B9
:1048F800D9262750DA2222C0DEFF23C0DDFF20EEB2
:1049080011F02650D9262750DA22000EDE6E000E4E
:10491800DD6E20EE13F02650D9262750DA22000E3D
:10492800DE6E000EDD6E120012C0D9FF13C0DAFF72
:10493800DE50145CDE501558D8B0A5EF24F0A7EF70
:1049480024F0AAEF24F0000E06EF25F020EE04F084
:104958001250D9261350DA22DECF18F0DDCF19F025
:1049680012C0D9FF13C0DAFFDECF1AF0DDCF1BF07B
:1049780018501A2619501B2214501A5C15501B582F
:10498800D8B0C9EF24F0CBEF24F0CDEF24F0A7EF97
:1049980024F020EE02F01250D9261350DA22DE500D
:1049A800165CDE501758D8B0DCEF24F0DEEF24F0A8
:1049B800E0EF24F0A7EF24F020EE06F01250D926FD
:1049C8001350DA22DECF18F0DDCF19F020EE02F016
:1049D8001250D9261350DA22DECF1AF0DDCF1BF0A1
:1049E80018501A2619501B2216501A5C17501B58BB
:1049F800D8B001EF25F003EF25F005EF25F0A7EF7C
:104A080024F0010E120012C0D9FF13C0DAFFDE50E5
:104A1800145CDE501558D8B014EF25F016EF25F0C9
:104A280019EF25F0000E75EF25F020EE04F0125076
:104A3800D9261350DA22DECF18F0DDCF19F012C0D4
:104A4800D9FF13C0DAFFDECF1AF0DDCF1BF0185004
:104A58001A2619501B2214501A5C15501B58D8B02E
:104A680038EF25F03AEF25F03CEF25F016EF25F06A
:104A780020EE02F01250D9261350DA22DE50165CCE
:104A8800DE501758D8B04BEF25F04DEF25F04FEF1B
:104A980025F016EF25F020EE06F01250D926135017
:104AA800DA22DECF18F0DDCF19F020EE02F0125036
:104AB800D9261350DA22DECF1AF0DDCF1BF01850BA
:104AC8001A2619501B2216501A5C17501B58D8B0BA
:104AD80070EF25F072EF25F074EF25F016EF25F052
:104AE800010E120014501510D8B47DEF25F07FEF99
:104AF80025F088EF25F014501510D8A486EF25F07E
:104B080088EF25F08DEF25F01250B5EC2FF0DAEF95
:104B180025F020EE04F01450D9261550DA22DE5084
:104B2800DE10D8B49AEF25F09CEF25F0B7EF25F00A
:104B380020EE04F01450D9261550DA2210EE02F0B7
:104B48001450E1261550E222DE50E65CE650800A59
:104B58001A6EDE50800A1A58D8B0B5EF25F0B7EFB4
:104B680025F0DAEF25F020EE02F01450D926155082
:104B7800DA22DECF16F0DDCF17F014C0D9FF15C04A
:104B8800DAFFDECF18F0DDCF19F016501824D96EF1
:104B980017501920DA6E12C0DFFF20EE02F0145011
:104BA800D9261550DA22DE2A000EDD221200000175
:104BB800A46F25EF26F0050EA419D8B4E6EF25F06A
:104BC800E8EF25F0F1EF25F0060EA419D8A4EFEFD1
:104BD80025F0F1EF25F0F9EF25F0020EDD6FA0C00A
:104BE8009EF0A1C09FF007EC2CF0070E0001A4195D
:104BF800D8A401EF26F003EF26F03FEF26F0010ED0
:104C0800DD6FA0C09EF0A1C09FF007EC2CF03FEF35
:104C180026F0080EA419D8A414EF26F016EF26F0F3
:104C28003FEF26F0000EDD6F05EF26F0090EA41900
:104C3800D8A421EF26F023EF26F03FEF26F016EF59
:104C480026F00001DD51A26FA36BA351000AD8B46E
:104C580030EF26F03FEF26F0A251000AD8B4DFEF7C
:104C680025F0010AD8B40DEF26F0030AD8B41AEFDC
:104C780026F03FEF26F01200000E176E15BE49EF22
:104C880026F047EF26F04FEF26F0146C151ED8B02B
:104C9800152A010E176E13BE56EF26F054EF26F0B4
:104CA8005CEF26F0126C131ED8B0132A010E171AE7
:104CB800000E196E000E186E14501510D8B467EF58
:104CC80026F069EF26F091EF26F0010E166E71EFCF
:104CD80026F0D89014361536162A15AE76EF26F03B
:104CE80078EF26F06DEF26F0D89018361936145064
:104CF800125C15501358D8A084EF26F086EF26F0E2
:104D08008BEF26F01450125E1550135A1880D89065
:104D180015321432162E78EF26F01750D8B497EFC4
:104D280026F099EF26F09DEF26F0186C191ED8B0E2
:104D3800192A18C012F019C013F012004BA0A7EFDF
:104D480026F0A9EF26F0B3EF26F024C01BF025C00B
:104D58001CF022C01DF023C01EF030EC2EF027BE40
:104D6800B8EF26F0BAEF26F0C0EF26F026C02BF0F9
:104D780027C02CF0C4EF26F0000E2C6E000E2B6E10
:104D8800000E2A6E000E296ED6EF26F0000E136E66
:104D9800200E126E22C014F023C015F076EC25F018
:104DA800294A2A2A2B50295C2A50800A286E2C501E
:104DB800800A2858D8A0E3EF26F0E5EF26F0CAEFDE
:104DC80026F04BB0EAEF26F0ECEF26F0F6EF26F0EF
:104DD80024C01BF025C01CF022C01DF023C01EF00B
:104DE80030EC2EF024C012F025C013F009EC2EF0A0
:104DF8002B501224226E2C501320236E12001350B5
:104E0800146E12C015F02A0E806E8B988B968B86C6
:104E18008B88000E806E8B968B86000E806E8B962C
:104E28008B86000E806E8B968B86EF0E806E8B962F
:104E38008B862B0E806E8B988B968B868B88000EBC
:104E4800806E8B968B86000E806E8B968B86010EFD
:104E5800806E8B968B863F0E806E8B968B862C0E83
:104E6800806E8B988B968B868B88000E176E000E43
:104E7800166E000E196E000E186E14C080FF8B9609
:104E88008B8615C080FF8B968B86184A192A195075
:104E980009E1F00E185CD8A054EF27F056EF27F080
:104EA80041EF27F0164A172A400E165C010E1758D4
:104EB800D8A061EF27F063EF27F03DEF27F012004D
:104EC800020E1224146E000E1320156E14C0F6FF85
:104ED80015C0F7FF0800F5CF16F0D8901632D89015
:104EE8001632D89016321650186E196A010E12240E
:104EF800146E000E1320156E14C0F6FF15C0F7FFD0
:104F08000800F5CF16F0D8901632D8901632165001
:104F18001A6E1B6A12C0F6FF13C0F7FF0800F5CF20
:104F280014F0D8901432D8901432D8901432145007
:104F38001C6E1D6A1AC014F01BC015F0050ED8901F
:104F480014361536E82EA3EF27F018C016F019C04E
:104F580017F00B0ED89016361736E82EAEEF27F05E
:104F680014501612155017121C5016101E6E1D5094
:104F780017101F6E1EC012F01FC013F01200000E93
:104F8800216E000E206ECD0E2024D96E000E212039
:104F9800DA6E000EDF6E204A212A21BEDDEF27F0EF
:104FA800215009E10C0E205CD8A0DDEF27F0DFEFDF
:104FB80027F0C7EF27F0000E216E000E206E20C0EC
:104FC8001AF021C01BF0000E1D6E030E1C6E0FECB4
:104FD8002FF0B50E1A24D96E000E1B20DA6E000EC3
:104FE800DE6E000EDD6E20C01AF021C01BF0000E30
:104FF8001D6E030E1C6E0FEC2FF0B70E1A24D96E1F
:10500800000E1B20DA6E000EDF6E204A212A21BE18
:1050180017EF28F0215009E1080E205CD8A017EFFF
:1050280028F019EF28F0E3EF27F0000E0001D96F00
:10503800000EDA6F12009B8C700ED36E090E000101
:10504800A56F1E0EA46FE40EE82EFED7A42FFCD782
:10505800A52FFAD700F010EC17F0000E136E1F0EF4
:10506800126E03EC27F0BE0E206E7F0E216EA10E8D
:10507800226E7F0E236E020E246E000E266E320EF6
:10508800256E000E286E320E276E000E2A6E000E58
:10509800296EFF0E2C6E2B685BEC0EF0F28EF096EC
:1050A800860ED56EFB0ED76E1D0ED66EF28A9492C2
:1050B800BB686650F00B0C09666E6768CF0E661603
:1050C8009E92BA80BA92BA84A60EC06EC3EC27F03C
:1050D800000E2B6E010E2C6E4DEC12F0000E00012E
:1050E800A26F010EA36FFBEC2EF01200000E176EDC
:1050F80013BE83EF28F081EF28F089EF28F0126CB7
:10510800131ED8B0132A010E176E15BE90EF28F0A3
:105118008EEF28F094EF28F0146C151ED8B0152ADD
:1051280014501510D8B49BEF28F09DEF28F0C1EF6C
:1051380028F0010E166EA5EF28F0D8901436153613
:10514800162A15AEAAEF28F0ACEF28F0A1EF28F048
:105158001450125C15501358D8A0B5EF28F0B7EFCB
:1051680028F0BBEF28F01450125E1550135AD8904F
:1051780015321432162EACEF28F01750D8B4C7EFFA
:1051880028F0C9EF28F0CDEF28F0126C131ED8B024
:10519800132A12C012F013C013F01200000E066E8C
:1051A80002BEDBEF28F0D9EF28F0E1EF28F0016C20
:1051B800021ED8B0022A010E066E04BEE8EF28F0DF
:1051C800E6EF28F0ECEF28F0036C041ED8B0042AB0
:1051D80003500410D8B4F3EF28F0F5EF28F019EFD6
:1051E80029F0010E056EFDEF28F0D890033604363D
:1051F800052A04AE02EF29F004EF29F0F9EF28F0B0
:105208000350015C04500258D8A00DEF29F00FEFAD
:1052180029F013EF29F00350015E0450025AD89088
:1052280004320332052E04EF29F00650D8B41FEFDC
:1052380029F021EF29F025EF29F0016C021ED8B0E2
:10524800022A01C001F002C002F01200166E60EFDF
:1052580029F0030E1618D8A434EF29F036EF29F0F8
:105268007AEF29F0010EDF6FB2EC2EF07AEF29F019
:10527800030E1618D8A443EF29F045EF29F049EF9B
:1052880029F0020EDF6FB2EC2EF01604D8A44FEF0F
:1052980029F051EF29F07AEF29F0000E0001DF6FB5
:1052A80038EF29F01604D8A45CEF29F05EEF29F056
:1052B8007AEF29F051EF29F00001DF51146E156AD9
:1052C8001550000AD8B46BEF29F07AEF29F0145082
:1052D800000AD8B42DEF29F0010AD8B43CEF29F020
:1052E800030AD8B456EF29F07AEF29F01200949AFD
:1052F800949494969498000E926E8B9A8B848B86D5
:105308008B88000E136E000E146E000E156E000EC4
:10531800166ED00E126ECA0EE82EFED7122EFCD7CD
:10532800010E1326000E14221522162216501510EF
:10533800141009E10C0E135CD8A0A5EF29F0A7EF13
:1053480029F08DEF29F0000E136E000E146E000E7A
:10535800156E000E166ED00E126ECA0EE82EFED70F
:10536800122EFCD7010E1326000E14221522162227
:1053780016501510141009E10C0E135CD8A0C7EFD5
:1053880029F0C9EF29F0AFEF29F012000001B46F3E
:10539800FDEF29F0B405D8A4D4EF29F0D6EF29F011
:1053A80013EF2AF0010EDE6FB0C090F0B1C091F09B
:1053B80064EC18F013EF2AF0020EB419D8A4E7EF42
:1053C80029F0E9EF29F0F1EF29F0000EDE6FB0C007
:1053D80090F0B1C091F064EC18F0040E0001B4191B
:1053E800D8A4F9EF29F0FBEF29F013EF2AF0D8EF52
:1053F80029F00001DE51B26FB36BB351000AD8B483
:1054080008EF2AF013EF2AF0B251000AD8B4CEEF11
:1054180029F0010AD8B4E0EF29F013EF2AF01200BE
:1054280025C0D9FF26C0DAFFDECF27F0DDCF28F070
:10543800F80E2724126EFF0E2820136E20EE02F0BD
:105448002550D9262650DA22DECF29F0DDCF2AF0E2
:10545800F80E2924146EFF0E2A20156E25C0D9FFD8
:1054680026C0DAFFDECF2BF0DDCF2CF0080E2B2480
:10547800166E000E2C20176E20EE02F02550D9264D
:105488002650DA22DECF2DF0DDCF2EF0080E2D24A7
:10549800186E000E2E20196E010E1A6EF80E1C6E74
:1054A800000E1B6E02EC14F0120014501510D8B444
:1054B80060EF2AF062EF2AF080EF2AF012C0D9FFDD
:1054C80013C0DAFF5A0EDE6E000EDD6E20EE02F01B
:1054D8001250D9261350DA22140EDE6E000EDD6E3D
:1054E80020EE04F01250D9261350DA221F0EDE6E79
:1054F800000EDD6E9CEF2AF012C0D9FF13C0DAFF50
:105508005A0EDE6E000EDD6E20EE02F01250D92625
:105518001350DA22180EDE6E010EDD6E20EE04F056
:105528001250D9261350DA221F0EDE6E000EDD6EE1
:105538001200FF0E136E126803EC27F0A80E206EFF
:105548007F0E216EA10E226E7F0E236E020E246E38
:10555800000E266E320E256E000E286E320E276E55
:10556800000E2A6E000E296EFF0E2C6E2B685BEC67
:105578000EF0500E00019C257C6F000E9D217D6F62
:105588002AEC07F09CC0D9FF9DC0DAFF000110EE9D
:10559800A9F09C51E1269D51E222DECFE6FFDDCF46
:1055A800E5FF980E9C25376E000E9D21386E1DEC88
:1055B80022F0120025C0D9FF26C0DAFFDECF12F094
:1055C800DDCF13F020EE02F02550D9262650DA223E
:1055D800DECF14F0DDCF15F025C0D9FF26C0DAFFE5
:1055E800DECF27F0DDCF28F0320E2724166E000E0E
:1055F8002820176E20EE02F02550D9262650DA22F0
:10560800DECF29F0DDCF2AF0140E2924186E000E03
:105618002A20196E010E1A6E20EE04F02550D926A4
:105628002650DA22DECF1BF0DDCF1CF002EC14F09E
:105638001200FF0E136E126803EC27F0DA0E206ECC
:105648007F0E216EA10E226E7F0E236E020E246E37
:10565800000E266E320E256E000E286E320E276E54
:10566800000E2A6E000E296EFF0E2C6E2B685BEC66
:105678000EF0080E00019C257C6F000E9D217D6FA9
:105688002AEC07F0200E00019C257C6F000E9D215E
:105698007D6F2AEC07F0380E00019C257C6F000E08
:1056A8009D217D6F2AEC07F01200165073EC2FF045
:1056B800000E176E1750030DB70EF324D96E000EA7
:1056C800F420DA6EDF50D8A46CEF2BF06EEF2BF0DD
:1056D80086EF2BF01750030DB50EF324D96E000E8C
:1056E800F420DA6E13C0DEFF14C0DDFF1750030D7F
:1056F800B70EF324D96E000EF420DA6E15C0DFFF62
:105708008FEF2BF0172A070E17648DEF2BF08FEF12
:105718002BF05EEF2BF0165068EC2FF01200000E05
:10572800266E000E256E22502310D8B49EEF2BF063
:10573800A0EF2BF0C8EF2BF0010E246EA8EF2BF092
:10574800D89022362336242A23AEADEF2BF0AFEFC4
:105758002BF0A4EF2BF0D890253626362250205C6B
:1057680023502158D8A0BBEF2BF0BDEF2BF0C2EF90
:105778002BF02250205E2350215A2580D8902332C6
:105788002232242EAFEF2BF025C020F026C021F0C6
:105798001200055089EC2FF0000E066E0650030D1E
:1057A800B70EF324D96E000EF420DA6EDF50D8A4B9
:1057B800E0EF2BF0E2EF2BF0FAEF2BF00650030DA1
:1057C800B50EF324D96E000EF420DA6E02C0DEFFA7
:1057D80003C0DDFF0650030DB70EF324D96E000E8B
:1057E800F420DA6E04C0DFFF03EF2CF0062A070E60
:1057F800066401EF2CF003EF2CF0D2EF2BF00550EC
:105808007EEC2FF0120021EF2CF09EC09CF09FC080
:105818009DF01DEC2BF03BEF2CF09EC09CF09FC040
:105828009DF09DEC2AF03BEF2CF09EC09CF09FC0B1
:105838009DF03CEC2CF03BEF2CF00001DD51456E67
:10584800466A4650000AD8B42CEF2CF03BEF2CF0F7
:105858004550000AD8B409EF2CF0010AD8B411EF6A
:105868002CF0030AD8B419EF2CF03BEF2CF01200FF
:10587800FF0E136E126803EC27F0800E00019C25C2
:105888007C6F000E9D217D6F2AEC07F0680E0001E9
:105898009C257C6F000E9D217D6F2AEC07F0B90EC8
:1058A80000019C25256E000E9D21266EDEEC2AF057
:1058B800BF0E00019C25256E000E9D21266EDEEC94
:1058C8002AF0B10E00019C25256E000E9D21266E42
:1058D80014EC2AF01200196E185073EC2FF0010E18
:1058E8000001D925126E136A000E1322000E156EE0
:1058F8000C0E146E7AEC28F012501A6E1A50000131
:10590800DA19D8A48AEF2CF08CEF2CF092EF2CF057
:10591800185068EC2FF0000EA0EF2CF0CD0ED92512
:10592800D96EDA6A000EDA2219C0DFFF1AC0D9F080
:10593800185068EC2FF0010E120014501510D8B44E
:10594800A8EF2CF0AAEF2CF0CEEF2CF0010E166E7B
:10595800B2EF2CF0D89014361536162A15AEB7EFDC
:105968002CF0B9EF2CF0AEEF2CF01450125C15505F
:105978001358D8A0C2EF2CF0C4EF2CF0C8EF2CF0CD
:105988001450125E1550135AD89015321432162E30
:10599800B9EF2CF012C012F013C013F01200086E09
:1059A800075089EC2FF0010E0001D925016E026A1B
:1059B800000E0222000E046E0C0E036ED2EC28F0CC
:1059C8000150096E09500001DA19D8A4EEEF2CF045
:1059D800F0EF2CF0F6EF2CF007507EEC2FF0000ED5
:1059E80004EF2DF0CD0ED925D96EDA6A000EDA2231
:1059F80008C0DFFF09C0D9F007507EEC2FF0010E78
:105A080012007CC080F07DC081F0000E0001DC6FC8
:105A1800000EDB6F23EF2DF07AC03FF07BC040F023
:105A2800800E416E000E426E7EC043F07FC044F08F
:105A3800CDEC1BF03F500001DB274050DC2380C039
:105A4800F6FF81C0F7FF0800F5500009D8A42FEF32
:105A58002DF031EF2DF010EF2DF0DBC07AF0DCC027
:105A68007BF01200196E195073EC2FF00001DA5117
:105A7800D919D8A442EF2DF044EF2DF04AEF2DF0BC
:105A8800195068EC2FF0000E65EF2DF0CD0EDA25D9
:105A9800D96EDA6A000EDA22DF50186E010EDA25A6
:105AA800126E136A000E1322000E156E0C0E146E81
:105AB8007AEC28F012500001DA6F195068EC2FF0D8
:105AC80018501200000E36EC2DF00101C96FC951B3
