:020000040000FA
:0400000058EF00F0C5
:100008004E82D9CF0EF0DACF0FF0F3CF10F0F4CF45
:1000180011F0F0A012EF00F014EF00F039EF00F04B
:10002800F0A619EF00F01BEF00F039EF00F0F1BA7D
:1000380020EF00F022EF00F02BEF00F0F18AF090B3
:10004800010E076E010EDEEC2EF039EF00F0F1AA7A
:1000580030EF00F032EF00F039EF00F0F19AF09055
:10006800010E076E020EDEEC2EF0F2A43EEF00F059
:1000780040EF00F04EEF00F0F2AA45EF00F047EF36
:1000880000F04EEF00F045EC22F0FB0ED76E1D0E8F
:10009800D66EF29411C0F4FF10C0F3FF0FC0DAFF60
:1000A8000EC0D9FF4E921100DCEF30F020EED1F0F7
:1000B8001B50D9261C50DA22DECF1DF0DDCF1EF0F2
:1000C80020EEC9F01B50D9261C50DA22DECF1FF0D3
:1000D800DDCF20F01D501F261E502022080E1F269F
:1000E800000E2022205009E1EF0E1F5CD8A07FEF00
:1000F80000F081EF00F099EF00F020EED1F01B50F6
:10010800D9261C50DA22DECF1DF0DDCF1EF01D1ED1
:100118001E1E1D4A1E2A20EED1F01B50D9261C5047
:10012800DA221DC0DEFF1EC0DDFFF80E1D6EFF0EB9
:100138001E6E20EED1F01B50D9261C50DA22DECFDD
:100148001FF0DDCF20F020EEC9F01B50D9261C503F
:10015800DA22DECF21F0DDCF22F01F5021262050F9
:1001680022221D5021261E502222225007E1040E71
:10017800215CD8B0C2EF00F0C4EF00F0DCEF00F073
:1001880020EED1F01B50D9261C50DA22DECF1DF00C
:10019800DDCF1EF01D1E1E1E1D4A1E2A20EED1F0A8
:1001A8001B50D9261C50DA221DC0DEFF1EC0DDFF01
:1001B800FF0E1D6EFF0E1E6E20EED7F01B50D926C7
:1001C8001C50DA22DECF1FF0DDCF20F01D501F2695
:1001D8001E50202220EECBF01B50D9261C50DA22CC
:1001E800DECF21F0DDCF22F0080E2126000E2222DC
:1001F8001F50215C20502258D8A005EF01F007EFCE
:1002080001F091EF02F020EEC9F01B50D9261C50E6
:10021800DA22DECF1DF0DDCF1EF0080E1D26000EFF
:100228001E2220EED5F01B50D9261C50DA221D5074
:10023800DE5C1E50DE58D8B024EF01F026EF01F046
:1002480091EF02F020EED5F01B50D9261C50DA228F
:10025800DECF1DF0DDCF1EF0320E1D26000E1E2251
:10026800F80E1F6EFF0E206E20EEC9F01B50D92627
:100278001C50DA22DECF21F0DDCF22F01F502126DC
:10028800205022221D50215C1E502258D8B04FEF1A
:1002980001F051EF01F091EF02F020EED5F01B5084
:1002A800D9261C50DA22DECF1DF0DDCF1EF020EE5D
:1002B800C9F01B50D9261C50DA22DECF1FF0DDCF43
:1002C80020F01D501F5E1E50205A205007E10A0ED4
:1002D8001F5CD8B072EF01F074EF01F098EF01F0F5
:1002E80020EED3F01B50D9261C50DA22DECF1DF0A9
:1002F800DDCF1EF01D1E1E1E1D4A1E2A20EED3F045
:100308001B50D9261C50DA221DC0DEFF1EC0DDFF9F
:1003180020EED1F01B50D9261C50DA22FE0EDE2624
:10032800FF0EDD2283EF02F020EED5F01B50D92618
:100338001C50DA22DECF1DF0DDCF1EF020EEC9F012
:100348001B50D9261C50DA22DECF1FF0DDCF20F05B
:100358001D501F5E1E50205A205007E1140E1F5CCE
:10036800D8B0B9EF01F0BBEF01F0DEEF01F020EEFD
:10037800D3F01B50D9261C50DA22DECF1DF0DDCF7A
:100388001EF01D1E1E1E1D4A1E2A20EED3F01B50F5
:10039800D9261C50DA221DC0DEFF1EC0DDFF20EE6C
:1003A800D1F01B50D9261C50DA22DE06000EDD5A89
:1003B80083EF02F020EED5F01B50D9261C50DA222C
:1003C800DECF1DF0DDCF1EF020EEC9F01B50D92680
:1003D8001C50DA22DECF1FF0DDCF20F01D501F5E4B
:1003E8001E50205A205007E11E0E1F5CD8B0FFEFA8
:1003F80001F001EF02F01BEF02F020EED3F01B50EA
:10040800D9261C50DA22DECF1DF0DDCF1EF01D1ECE
:100418001E1E1D4A1E2A20EED3F01B50D9261C5042
:10042800DA221DC0DEFF1EC0DDFF83EF02F020EEE2
:10043800D5F01B50D9261C50DA22DECF1DF0DDCFB7
:100448001EF020EEC9F01B50D9261C50DA22DECF50
:100458001FF0DDCF20F01D501F5E1E50205A205087
:1004680007E1280E1F5CD8B03CEF02F03EEF02F027
:1004780061EF02F020EED3F01B50D9261C50DA228F
:10048800DECF1DF0DDCF1EF01D1E1E1E1D4A1E2ACA
:1004980020EED3F01B50D9261C50DA221DC0DEFFF7
:1004A8001EC0DDFF20EED1F01B50D9261C50DA22E9
:1004B800DE2A000EDD2283EF02F020EED3F01B507F
:1004C800D9261C50DA22DECF1DF0DDCF1EF01D1E0E
:1004D8001E1E1D4A1E2A20EED3F01B50D9261C5082
:1004E800DA221DC0DEFF1EC0DDFF20EED1F01B505A
:1004F800D9261C50DA22020EDE26000EDD2220EE5E
:10050800E9F01B50D9261C50DA22DE2A000EDD2223
:10051800000E186E0E0E7AEC2EF0F80E1D6EFF0E01
:100528001E6E20EECBF01B50D9261C50DA22DECFEF
:100538001FF0DDCF20F01D501F261E50202220EE78
:10054800E1F01B50D9261C50DA22DECF21F0DDCF96
:1005580022F00B0E2126000E22221F50215C205073
:100568002258D8A0BAEF02F0BCEF02F046EF04F030
:1005780020EEC9F01B50D9261C50DA22DECF1DF020
:10058800DDCF1EF0080E1D26000E1E2220EEDFF025
:100598001B50D9261C50DA221D50DE5C1E50DE5836
:1005A800D8B0D9EF02F0DBEF02F046EF04F020EE0E
:1005B800DFF01B50D9261C50DA22DECF1DF0DDCF2C
:1005C8001EF0320E1D26000E1E22F80E1F6EFF0EA4
:1005D800206E20EEC9F01B50D9261C50DA22DECF3F
:1005E80021F0DDCF22F01F502126205022221D505D
:1005F800215C1E502258D8B004EF03F006EF03F038
:1006080046EF04F020EEDFF01B50D9261C50DA220A
:10061800DECF1DF0DDCF1EF020EEC9F01B50D9262D
:100628001C50DA22DECF1FF0DDCF20F01D501F5EF8
:100638001E50205A205007E10A0E1F5CD8B027EF41
:1006480003F029EF03F04DEF03F020EED3F01B5039
:10065800D9261C50DA22DECF1DF0DDCF1EF01D1E7C
:100668001E1E1D4A1E2A20EED3F01B50D9261C50F0
:10067800DA221DC0DEFF1EC0DDFF20EED1F01B50C8
:10068800D9261C50DA22FE0EDE26FF0EDD2238EFB8
:1006980004F020EEDFF01B50D9261C50DA22DECF02
:1006A8001DF0DDCF1EF020EEC9F01B50D9261C50DE
:1006B800DA22DECF1FF0DDCF20F01D501F5E1E5066
:1006C800205A205007E1140E1F5CD8B06EEF03F0DB
:1006D80070EF03F093EF03F020EED3F01B50D92610
:1006E8001C50DA22DECF1DF0DDCF1EF01D1E1E1EAF
:1006F8001D4A1E2A20EED3F01B50D9261C50DA22A0
:100708001DC0DEFF1EC0DDFF20EED1F01B50D92634
:100718001C50DA22DE06000EDD5A38EF04F020EE17
:10072800DFF01B50D9261C50DA22DECF1DF0DDCFBA
:100738001EF020EEC9F01B50D9261C50DA22DECF5D
:100748001FF0DDCF20F01D501F5E1E50205A205094
:1007580007E11E0E1F5CD8B0B4EF03F0B6EF03F04C
:10076800D0EF03F020EED3F01B50D9261C50DA222C
:10077800DECF1DF0DDCF1EF01D1E1E1E1D4A1E2AD7
:1007880020EED3F01B50D9261C50DA221DC0DEFF04
:100798001EC0DDFF38EF04F020EEDFF01B50D92635
:1007A8001C50DA22DECF1DF0DDCF1EF020EEC9F09E
:1007B8001B50D9261C50DA22DECF1FF0DDCF20F0E7
:1007C8001D501F5E1E50205A205007E1280E1F5C46
:1007D800D8B0F1EF03F0F3EF03F016EF04F020EEDA
:1007E800D3F01B50D9261C50DA22DECF1DF0DDCF06
:1007F8001EF01D1E1E1E1D4A1E2A20EED3F01B5081
:10080800D9261C50DA221DC0DEFF1EC0DDFF20EEF7
:10081800D1F01B50D9261C50DA22DE2A000EDD2228
:1008280038EF04F020EED3F01B50D9261C50DA2202
:10083800DECF1DF0DDCF1EF01D1E1E1E1D4A1E2A16
:1008480020EED3F01B50D9261C50DA221DC0DEFF43
:100858001EC0DDFF20EED1F01B50D9261C50DA2235
:10086800020EDE26000EDD2220EEEBF01B50D9260C
:100878001C50DA22DE2A000EDD22000E186E0E0E43
:100888007AEC2EF0F80E1D6EFF0E1E6E20EECBF0E9
:100898001B50D9261C50DA22DECF1FF0DDCF20F006
:1008A8001D501F261E502022FB0E216EFF0E226EA9
:1008B80020EEE1F01B50D9261C50DA22DECF23F0BF
:1008C800DDCF24F021502326225024221F50235C00
:1008D80020502458D8A073EF04F075EF04F086EF89
:1008E80004F0000E186E090E7AEC2EF020EEEBF0F4
:1008F8001B50D9261C50DA22000EDE6E000EDD6E6B
:10090800040E4D6E20EED7F01B50D9261C50DA226B
:10091800DECF1DF0DDCF1EF0050E1D26000E1E22B7
:1009280020EECBF01B50D9261C50DA22DECF1FF068
:10093800DDCF20F0080E1F26000E20221D501F5C60
:100948001E502058D8A0ABEF04F0ADEF04F0BEEF76
:1009580004F0000E186E090E7AEC2EF020EEE9F085
:100968001B50D9261C50DA22000EDE6E000EDD6EFA
:10097800040E4D6E120027C071F028C072F00A0EE6
:10098800000171252D6E000E72212E6E2DC0F6FF0E
:100998002EC0F7FF0900F5CF60F00900F5CF61F030
:1009A8000900F5CF62F00A00F5CF63F0120E712549
:1009B8002D6E000E72212E6E2DC0F6FF2EC0F7FF91
:1009C8000900F5CF76F00A00F5CF77F0160E7125FD
:1009D8002D6E000E72212E6E2DC0F6FF2EC0F7FF71
:1009E8000900F5CF6BF00A00F5CF6CF01C0E7125ED
:1009F8002D6E000E72212E6E2DC0F6FF2EC0F7FF51
:100A08000900080EF5180900F510D8A40EEF05F036
:100A180010EF05F0B9EF07F01E0E71252D6E000ED0
:100A280072212E6E2DC0F6FF2EC0F7FF0900F504C7
:100A38000900F5100900F5100900F510D8B427EFE2
:100A480005F029EF05F02BEF05F0B9EF07F0765127
:100A580029242D6E77512A202E6E2E5007E1F10E93
:100A68002D5CD8B03AEF05F03CEF05F0B9EF07F090
:100A78006B512B242D6E6C512C202E6E410E2D5C4B
:100A8800010E2E58D8A04BEF05F04DEF05F04FEFB3
:100A980005F0B9EF07F0360E806E8B988B968B8633
:100AA8008B88800E806E8B968B86360E2724696F16
:100AB800000E28206A6F6051272661512822000EF7
:100AC800646F69C012F06AC013F0FBEC29F012C021
:100AD80078F013C079F02A0E806E8B988B968B86EF
:100AE8008B882A50806E8B968B8629C080FF8B96C8
:100AF8008B860001765129242D6E77512A202E6E7F
:100B0800FF0E2D24296EFF0E2E202A6E2A50806E8D
:100B18008B968B8629C080FF8B968B862B0E806EDA
:100B28008B988B968B868B882BC02DF02CC02EF043
:100B38002D1E2E1E2D4A2E2A6B512D5E6C512E5ABB
:100B4800400E2D24736F010E2E20746F7451806E29
:100B58008B968B8673C080FF8B968B866B51732523
:100B68002D6E6C5174212E6EFF0E2D24736FFF0EA7
:100B78002E20746F7451806E8B968B8673C080FFA5
:100B88008B968B862C0E806E8B988B968B868B889B
:100B9800000E706F000E6F6F000E686F000E676FAB
:100BA80027C0F6FF28C0F7FF0800F5500009D8A4B1
:100BB800E0EF05F0E2EF05F05DEF07F039EF07F041
:100BC800020E2726000E2822000E7B6F000E7A6F79
:100BD800F8EF05F07951806E8B968B8678C080FF90
:100BE8008B968B867A4B7B2B6F51765D2D6E705171
:100BF80077592E6E2D507A5D2E507B59D8A007EF6D
:100C080006F009EF06F0EEEF05F0000E706F000E2B
:100C18006F6F674B682BA6EF07F0000E7B6F000E17
:100C28007A6F21EF06F07951806E8B968B8678C0AB
:100C380080FF8B968B867A4B7B2B6F51765D2D6E62
:100C4800705177592E6E2D507A5D2E507B59D8A051
:100C580030EF06F032EF06F017EF06F0000E7B6F6C
:100C6800000E7A6F42EF06F07951806E8B968B8674
:100C780078C080FF8B968B867A4B7B2B67516B5D98
:100C88002D6E68516C592E6EFF0E2D241A6EFF0EB4
:100C98002E201B6E76C01CF077C01DF045EC31F09D
:100CA8001A5000017A5D1B507B59D8A05EEF06F000
:100CB80060EF06F038EF06F0010E646FA6EF07F05C
:100CC800030E27242D6E000E28202E6E2DC0F6FF51
:100CD8002EC0F7FF0800F5501A6E1B6A76C01CF08C
:100CE80077C01DF045EC31F0020E27242F6E000E60
:100CF8002820306E2FC0F6FF30C0F7FF0800F550EF
:100D08001A240001656F000E1B20666F000E7B6FB2
:100D1800000E7A6F9CEF06F06F4B702B7951806E46
:100D28008B968B8678C080FF8B968B867A4B7B2B35
:100D380065517A5D66517B59D8A0A5EF06F0A7EFFB
:100D480006F090EF06F065C020F066C021F076C08E
:100D580022F077C023F040EC2EF0000167512024E8
:100D6800676F68512120686F6FC012F070C013F070
:100D780076C014F077C015F0ACEC2EF012C06FF00E
:100D880013C070F0040E2726000E2822A6EF07F0E5
:100D9800010E27242D6E000E28202E6E2DC0F6FF82
:100DA8002EC0F7FF0800F5CF75F0000E7B6F000E20
:100DB8007A6F0DEF07F07A5127242D6E7B5128208A
:100DC8002E6E020E2D26000E2E222DC0F6FF2EC0EE
:100DD800F7FF0800F550040DF3CF2FF0F4CF30F0F3
:100DE8002F506925126E30506A21136EFBEC29F0E2
:100DF80012C06DF013C06EF000016F4B702B6E5176
:100E0800806E8B968B866DC080FF8B968B867A4B17
:100E18007B2B75512D6E2E6A2D507A5D2E507B5985
:100E2800D8A019EF07F01BEF07F0DFEF06F07529E0
:100E3800D8B421EF07F023EF07F033EF07F0752957
:100E4800FE0B756F75512D6E2E6A020E2D26000E43
:100E58002E222D5027262E502822A6EF07F0020E0C
:100E68002726010E2822A6EF07F0010E27242D6E53
:100E7800000E28202E6E2DC0F6FF2EC0F7FF0800AA
:100E8800F5502F6E306A3050000AD8B44EEF07F094
:100E9800CCEF06F02F50000AD8B4E4EF05F0010AB1
:100EA800D8B411EF06F0030AD8B464EF06F0CCEF1B
:100EB80006F027C0F6FF28C0F7FF0800F5CF75F049
:100EC800010E27242D6E000E28202E6E2DC0F6FF51
:100ED8002EC0F7FF0800F550040DF3CF2FF0F4CF24
:100EE80030F02F506925126E30506A21136EFBECDA
:100EF80029F012C06DF013C06EF0000E00017B6F78
:100F0800000E7A6F94EF07F06F4B702B6E51806E66
:100F18008B968B866DC080FF8B968B867A4B7B2B4E
:100F280075512D6E2E6A2D507A5D2E507B59D8A0A2
:100F3800A0EF07F0A2EF07F088EF07F0020E2726D0
:100F4800000E282200016451D8B4ADEF07F0AFEFCE
:100F580007F0D4EF05F0360E806E8B988B968B8653
:100F68008B88000E806E8B968B861200000E000117
:100F78008C6F000E8B6F7CC0D9FF7DC0DAFFDECF8F
:100F88008DF0DDCF8EF020EE04F07C51D9267D5116
:100F9800DA22DECF7EF0DDCF7FF07CC0D9FF7DC0C6
:100FA800DAFFDECF80F0DDCF81F07E5180258F6FB4
:100FB8007F518121906F20EE02F07C51D9267D511E
:100FC800DA22DECF91F0DDCF92F020EE06F07C51F0
:100FD800D9267D51DA22DECF7EF0DDCF7FF020EEFC
:100FE80002F07C51D9267D51DA22DECF80F0DDCFA8
:100FF80081F07E518025936F7F518121946F20EE7F
:1010080008F07C51D9267D51DA2210EE0AF07C5185
:10101800E1267D51E222DE50E61809E1DE50E618AD
:10102800D8B419EF08F01BEF08F058EF08F08DC09E
:1010380012F08EC013F091C014F092C015F08FC05A
:1010480016F090C017F093C018F094C019F0010E74
:101058001A6E20EE0AF07C51D9267D51DA22DECFB5
:101068001BF0DDCF1CF084EC16F08DC012F08EC0A2
:1010780013F091C014F092C015F08FC016F090C014
:1010880017F093C018F094C019F0000E1A6E000102
:1010980020EE08F07C51D9267D51DA22DECF1BF0F4
:1010A800DDCF1CF084EC16F0000120EE0CF07C5132
:1010B800D9267D51DA22DECFF6FFDDCFF7FF080013
:1010C800F550420AD8A46BEF08F06DEF08F01DEF59
:1010D80009F020EE0CF07C51D9267D51DA22DECFC2
:1010E8007EF0DDCF7FF0010E7E27000E7F237EC0CD
:1010F800F6FF7FC0F7FF0800F5504D0AD8A487EF28
:1011080008F089EF08F01DEF09F020EE0CF07C5193
:10111800D9267D51DA22DECF9AF0DDCF9BF020EE82
:1011280002F07C51D9267D51DA22DECF7EF0DDCF68
:101138007FF0160E9A25806F000E9B21816F80C06C
:10114800F6FF81C0F7FF0900F5CF82F00900F5CF5F
:1011580083F00900F5CF84F00900F5CF85F0D89029
:10116800853384338333823320EE06F07C51D926CD
:101178007D51DA22DECF86F0DDCF87F0D890873137
:10118800896F8631886F8251885F8351895B7E5170
:101198008825976F7F518921986F7CC0D9FF7DC0C2
:1011A800DAFFDECF7EF0DDCF7FF0120E9A25806F5A
:1011B800000E9B21816F80C0F6FF81C0F7FF0900F8
:1011C800F5CF82F00900F5CF83F00900F5CF84F060
:1011D8000900F5CF85F0D890853384338333823383
:1011E80020EE04F07C51D9267D51DA22DECF86F03C
:1011F800DDCF87F0D8908731896F8631886F82512B
:10120800885F8351895B7E518825956F7F5189213D
:10121800966F9AC027F09BC028F095C029F096C019
:101228002AF097C02BF098C02CF0BFEC04F02AEFFE
:101238000AF020EE02F07C51D9267D51DA22DECF69
:101248007EF0DDCF7FF020EE0EF07C51D9267D5167
:10125800DA22DECFF6FFDDCFF7FF0800F550126E79
:10126800136A000E156E020E146ED7EC28F00001FA
:1012780020EE06F07C51D9267D51DA22DECF80F0AF
:10128800DDCF81F0D8908131836F8031826F125029
:10129800825F1350835B7E518225976F7F51832134
:1012A800986F000E996FB5EF09F020EE0EF07C51A3
:1012B800D9267D51DA22DECF7EF0DDCF7FF0010E18
:1012C8007E27000E7F237EC0F6FF7FC0F7FF080051
:1012D800F5CF80F020EE0CF07C51D9267D51DA2232
:1012E800DECF81F0DDCF82F099518127000E822375
:1012F80081C0F6FF82C0F7FF0800F5CF83F0805168
:10130800835D8A6F8A51030D20EE0EF07C51D92639
:101318007D51DA22DECF7EF0DDCF7FF0030E7E270F
:10132800000E7F237EC0F6FF7FC0F7FF0900F5CFD0
:1013380080F00900F5CF81F0F3508027F450812325
:1013480080C0F6FF81C0F7FF0800F550826F836BFD
:10135800020E8227000E832382518B2783518C2310
:10136800992B20EE0CF07C51D9267D51DA22DECF64
:1013780012F0DDCF13F018EC30F0000199517E6FB8
:101388007F6B12507E5D13507F59D8A0CEEF09F0C5
:10139800D0EF09F059EF09F07CC0D9FF7DC0DAFF22
:1013A800DECF7EF0DDCF7FF0D8908C31816F8B312E
:1013B800806F20EE04F07C51D9267D51DA22DECFF1
:1013C80082F0DDCF83F0D8908331856F8231846FCE
:1013D8008051845F8151855B7E518425956F7F5153
:1013E8008521966F20EE0CF07C51D9267D51DA22AA
:1013F800DECF20F0DDCF21F020EE0EF07C51D92693
:101408007D51DA22DECF22F0DDCF23F0000E246EEC
:1014180095C025F096C026F097C027F098C028F010
:1014280020EE08F07C51D9267D51DA22DECF29F052
:10143800DDCF2AF020EE0AF07C51D9267D51DA2240
:10144800DECF2BF0DDCF2CF0EBEC0EF07CC025F0DE
:101458007DC026F01BEC1CF0120020EE0EF0275089
:10146800D9262850DA22DE50DE10D8B43EEF0AF032
:1014780040EF0AF0CCEF0AF027C0D9FF28C0DAFF06
:10148800DECF29F0DDCF2AF020EE0EF02750D92646
:101498002850DA22DECF2BF0DDCF2CF020EE04F03E
:1014A8002750D9262850DA22DECF2DF0DDCF2EF0B6
:1014B8002B502D5C1A6E2C502E581B6E20EE13F0FC
:1014C8002750D9262850DA22DECF1CF0DDCF1DF0B8
:1014D80045EC31F01AC020F01BC021F020EE15F0C9
:1014E8002750D9262850DA22DECF22F0DDCF23F08C
:1014F80040EC2EF0295020262A502122010E2024CB
:10150800356E000E2120366E20EE0EF02750D926BB
:101518002850DA22DECF29F0DDCF2AF035502926EF
:1015280036502A22FE0E29242F6EFF0E2A20306EF6
:1015380020EE02F02750D9262850DA22DECF29F0F3
:10154800DDCF2AF0020E2924316E000E2A20326ED9
:1015580020EE06F02750D9262850DA22DECF29F0CF
:10156800DDCF2AF020EE02F02750D9262850DA22C3
:10157800DECF2BF0DDCF2CF029502B262A502C2241
:10158800FE0E2B24336EFF0E2C20346E40EF0BF032
:1015980027C0D9FF28C0DAFFDECF29F0DDCF2AF037
:1015A800010E2924356E000E2A20366E27C0D9FF79
:1015B80028C0DAFFDECF29F0DDCF2AF020EE04F0D4
:1015C8002750D9262850DA22DECF1AF0DDCF1BF0BB
:1015D80020EE13F02750D9262850DA22DECF1CF04F
:1015E800DDCF1DF045EC31F01AC020F01BC021F012
:1015F80020EE15F02750D9262850DA22DECF22F027
:10160800DDCF23F040EC2EF0295020262A5021224D
:10161800FF0E20242F6EFF0E2120306E20EE02F0E8
:101628002750D9262850DA22DECF29F0DDCF2AF03C
:10163800020E2924316E000E2A20326E20EE06F0AA
:101648002750D9262850DA22DECF29F0DDCF2AF01C
:1016580020EE02F02750D9262850DA22DECF2BF0D0
:10166800DDCF2CF029502B262A502C22FE0E2B24BD
:10167800336EFF0E2C20346E35C012F036C013F0D6
:1016880031C014F032C015F02FC016F030C017F07A
:1016980033C018F034C019F0010E1A6E20EE0AF0AB
:1016A8002750D9262850DA22DECF1BF0DDCF1CF0D8
:1016B80084EC16F020EE11F02750D9262850DA22B3
:1016C80010EE13F02750E1262850E222DECFE6FF85
:1016D800DDCFE5FF20EE0EF02750D9262850DA227C
:1016E800DE50DE10D8A47BEF0BF07DEF0BF0F3EFAC
:1016F8000BF027C0D9FF28C0DAFFDECF29F0DDCFF5
:101708002AF0010E2924356E000E2A20366E27C0D5
:10171800D9FF28C0DAFFDECF29F0DDCF2AF020EE8E
:1017280004F02750D9262850DA22DECF1AF0DDCF70
:101738001BF020EE11F02750D9262850DA22DECFF0
:101748001CF0DDCF1DF045EC31F01AC020F01BC0B5
:1017580021F020EE15F02750D9262850DA22DECFC6
:1017680022F0DDCF23F040EC2EF0295020262A501D
:101778002122FF0E20242F6EFF0E2120306E20EE36
:1017880002F02750D9262850DA22DECF29F0DDCF03
:101798002AF0020E2924316E000E2A20326E20EE25
:1017A80006F02750D9262850DA22DECF29F0DDCFDF
:1017B8002AF020EE02F02750D9262850DA22DECF70
:1017C8002BF0DDCF2CF029502B262A502C22FE0E90
:1017D8002B24336EFF0E2C20346E7DEF0CF027C0C7
:1017E800D9FF28C0DAFFDECF29F0DDCF2AF020EEBE
:1017F8000EF02750D9262850DA22DECF2BF0DDCF85
:101808002CF020EE04F02750D9262850DA22DECF1B
:101818002DF0DDCF2EF02B502D5C1A6E2C502E584B
:101828001B6E20EE11F02750D9262850DA22DECF81
:101838001CF0DDCF1DF045EC31F01AC020F01BC0C4
:1018480021F020EE15F02750D9262850DA22DECFD5
:1018580022F0DDCF23F040EC2EF0295020262A502C
:101868002122010E2024356E000E2120366E20EE36
:101878000EF02750D9262850DA22DECF29F0DDCF06
:101888002AF03550292636502A22FE0E29242F6E9A
:10189800FF0E2A20306E20EE02F02750D92628505D
:1018A800DA22DECF29F0DDCF2AF0020E2924316EAC
:1018B800000E2A20326E20EE06F02750D926285036
:1018C800DA22DECF29F0DDCF2AF020EE02F0275011
:1018D800D9262850DA22DECF2BF0DDCF2CF0295084
:1018E8002B262A502C22FE0E2B24336EFF0E2C2082
:1018F800346E35C012F036C013F031C014F032C067
:1019080015F02FC016F030C017F033C018F034C0EF
:1019180019F0010E1A6E20EE08F02750D92628502B
:10192800DA22DECF1BF0DDCF1CF084EC16F01200BB
:1019380020EE04F01850D9261950DA22010EDB5097
:1019480009E1320EDE5CD8A0ACEF0CF0AEEF0CF083
:10195800CCEF0CF020EE04F01850D9261950DA22FA
:10196800010EDB5007E1400EDE5CD8B0BEEF0CF094
:10197800C0EF0CF0CCEF0CF018C012F019C013F047
:10198800000E156E000E146E3FEC30F0DCEF0EF01A
:1019980020EE04F01850D9261950DA22010EDB5037
:1019A80009E1400EDE5CD8A0DCEF0CF0DEEF0CF0B5
:1019B800FCEF0CF020EE04F01850D9261950DA226A
:1019C800010EDB5007E14E0EDE5CD8B0EEEF0CF0F6
:1019D800F0EF0CF0FCEF0CF018C012F019C013F087
:1019E800000E156E010E146E3FEC30F0DCEF0EF0B9
:1019F80020EE04F01850D9261950DA22010EDB50D7
:101A080009E14E0EDE5CD8A00CEF0DF00EEF0DF0E4
:101A18002CEF0DF020EE04F01850D9261950DA22D8
:101A2800010EDB5007E15C0EDE5CD8B01EEF0DF056
:101A380020EF0DF02CEF0DF018C012F019C013F0C4
:101A4800000E156E020E146E3FEC30F0DCEF0EF057
:101A580020EE04F01850D9261950DA22010EDB5076
:101A680009E15C0EDE5CD8A03CEF0DF03EEF0DF016
:101A78005CEF0DF020EE04F01850D9261950DA2248
:101A8800010EDB5007E16A0EDE5CD8B04EEF0DF0B8
:101A980050EF0DF05CEF0DF018C012F019C013F004
:101AA800000E156E030E146E3FEC30F0DCEF0EF0F6
:101AB80020EE04F01850D9261950DA22010EDB5016
:101AC80009E16A0EDE5CD8A06CEF0DF06EEF0DF048
:101AD8008CEF0DF020EE04F01850D9261950DA22B8
:101AE800010EDB5007E1780EDE5CD8B07EEF0DF01A
:101AF80080EF0DF08CEF0DF018C012F019C013F044
:101B0800000E156E040E146E3FEC30F0DCEF0EF094
:101B180020EE04F01850D9261950DA22010EDB50B5
:101B280009E1780EDE5CD8A09CEF0DF09EEF0DF079
:101B3800BCEF0DF020EE04F01850D9261950DA2227
:101B4800010EDB5007E1860EDE5CD8B0AEEF0DF07B
:101B5800B0EF0DF0BCEF0DF018C012F019C013F083
:101B6800000E156E050E146E3FEC30F0DCEF0EF033
:101B780020EE04F01850D9261950DA22010EDB5055
:101B880009E1860EDE5CD8A0CCEF0DF0CEEF0DF0AB
:101B9800ECEF0DF020EE04F01850D9261950DA2297
:101BA800010EDB5007E1960EDE5CD8B0DEEF0DF0DB
:101BB800E0EF0DF0ECEF0DF018C012F019C013F0C3
:101BC800000E156E060E146E3FEC30F0DCEF0EF0D2
:101BD80020EE04F01850D9261950DA22010EDB50F5
:101BE80009E1960EDE5CD8A0FCEF0DF0FEEF0DF0DB
:101BF8001CEF0EF020EE04F01850D9261950DA2206
:101C0800010EDB5007E1A40EDE5CD8B00EEF0EF03B
:101C180010EF0EF01CEF0EF018C012F019C013F000
:101C2800000E156E070E146E3FEC30F0DCEF0EF070
:101C380020EE04F01850D9261950DA22010EDB5094
:101C480009E1A40EDE5CD8A02CEF0EF02EEF0EF00A
:101C58004CEF0EF020EE04F01850D9261950DA2275
:101C6800010EDB5007E1B20EDE5CD8B03EEF0EF09D
:101C780040EF0EF04CEF0EF018C012F019C013F040
:101C8800000E156E080E146E3FEC30F0DCEF0EF00F
:101C980020EE04F01850D9261950DA22010EDB5034
:101CA80009E1B20EDE5CD8A05CEF0EF05EEF0EF03C
:101CB8007CEF0EF020EE04F01850D9261950DA22E5
:101CC800010EDB5007E1C00EDE5CD8B06EEF0EF0FF
:101CD80070EF0EF07CEF0EF018C012F019C013F080
:101CE800000E156E090E146E3FEC30F0DCEF0EF0AE
:101CF80020EE04F01850D9261950DA22010EDB50D4
:101D080009E1C00EDE5CD8A08CEF0EF08EEF0EF06D
:101D1800ACEF0EF020EE04F01850D9261950DA2254
:101D2800010EDB5007E1CE0EDE5CD8B09EEF0EF060
:101D3800A0EF0EF0ACEF0EF018C012F019C013F0BF
:101D4800000E156E0A0E146E3FEC30F0DCEF0EF04C
:101D580020EE04F01850D9261950DA22010EDB5073
:101D680009E1CE0EDE5CD8A0BCEF0EF0BEEF0EF09F
:101D7800DCEF0EF020EE04F01850D9261950DA22C4
:101D8800010EDB5007E1D70EDE5CD8B0CEEF0EF0C7
:101D9800D0EF0EF0DCEF0EF018C012F019C013F0FF
:101DA800000E156E0B0E146E3FEC30F0DCEF0EF0EB
:101DB80018C0D9FF19C0DAFF10EEC1F01850E1269B
:101DC8001950E222DECFE6FFDDCFE5FF1200000E5C
:101DD800416E000E3E6E40EF0FF0010E22242D6E74
:101DE800000E23202E6E2DC0F6FF2EC0F7FF080030
:101DF800F5CF2FF03E502024306E000E2120316E9A
:101E080030C0F6FF31C0F7FFF86A050EF76403D05B
:101E18000800F55005D0F6CFE1FFF7CFE2FFE75015
:101E2800326E2F50325C3F6E3F501A6E1B6A1ABEDC
:101E38001B06000E1D6E030E1C6E45EC31F0030EE2
:101E480022242D6E000E23202E6E2DC0F6FF2EC0EC
:101E5800F7FF0900F5CF2FF00900F5CF30F01A5041
:101E68002F261B5030222FC0F6FF30C0F7FF080086
:101E7800F550020F41263E2A20C012F021C013F06F
:101E880018EC30F03E502D6E2E6A12502D5C135017
:101E98002E58D8A052EF0FF054EF0FF0F1EF0EF0DC
:101EA8002404D8A45AEF0FF05CEF0FF065EF0FF0A1
:101EB8004150255C256E2650D8A02604266E7DEF5D
:101EC8000FF0020E2418D8A46CEF0FF06EEF0FF08D
:101ED8007DEF0FF041C012F0136A000E156E020E6E
:101EE800146ED7EC28F01250255C256E1350265836
:101EF800266E010E22242D6E000E23202E6E2DC07C
:101F0800F6FF2EC0F7FF0800F5CF2FF020C0F6FF30
:101F180021C0F7FFF86A050EF76403D00800F550F2
:101F280005D0F6CFE1FFF7CFE2FFE750306E2F5034
:101F3800305C3F6E3F501A6E1B6A1ABE1B06000EBD
:101F48001D6E030E1C6E45EC31F0030E22242D6E1F
:101F5800000E23202E6E2DC0F6FF2EC0F7FF0900BD
:101F6800F5CF2FF00900F5CF30F01A502F261B506F
:101F78003022010E2F26000E30222FC0F6FF30C06F
:101F8800F7FF0900F5CF33F00A00F5CF34F03F50E2
:101F98001A6E1B6A1ABE1B06000E1D6E030E1C6EFF
:101FA80045EC31F0030E22242D6E000E23202E6EF8
:101FB8002DC0F6FF2EC0F7FF0900F5CF2FF009005E
:101FC800F5CF30F01A502F261B5030222FC0F6FFC5
:101FD80030C0F7FF0800F5CF41F02A0E806E8B98CD
:101FE8008B968B868B882650806E8B968B8625C029
:101FF80080FF8B968B86415025242D6E000E26205F
:102008002E6E010E2D243B6E000E2E203C6E3C5091
:10201800806E8B968B863BC080FF8B968B862B0EB3
:10202800806E8B988B968B868B882850806E8B96CB
:102038008B8627C080FF8B968B8622C0F6FF23C035
:10204800F7FF0800F55027242D6E000E28202E6E6D
:10205800FF0E2D24396EFF0E2E203A6E3A50806EF8
:102068008B968B8639C080FF8B968B862C0E806E64
:102078008B988B968B868B88000E3D6EDBEF10F06D
:102088003DC01AF01B6A000E156E080E146E070E7E
:102098004124126E136A000E1322D7EC28F012C0E6
:1020A8001CF013C01DF045EC31F033501A24356E86
:1020B80034501B20366E000E406EBAEF10F040C050
:1020C80012F0136A000E156E080E146ED7EC28F085
:1020D800050E22242D6E000E23202E6E2DC0F6FF35
:1020E8002EC0F7FF0900F5CF2FF00900F5CF30F02B
:1020F80012502F261350302235502F2636503022BA
:102108002FC0F6FF30C0F7FF0800F5CF37F040C00A
:102118002DF0070E2D16800E2E6E000E2F6E2D2A16
:1021280099EF10F02F342F322E322D2E96EF10F01B
:102138002E503714386E3850D8B4A5EF10F0A7EFEA
:1021480010F0B1EF10F02A50806E8B968B8629C064
:1021580080FF8B968B86B9EF10F02C50806E8B9693
:102168008B862BC080FFADEF10F0402A4150405CB9
:10217800D8A0C1EF10F0C3EF10F063EF10F0000E1D
:10218800406E010E4064CBEF10F0CDEF10F0CFEFB2
:1021980010F0DAEF10F02C50806E8B968B862BC0E7
:1021A80080FF8B968B86402AC5EF10F03D2A22C00F
:1021B800F6FF23C0F7FF0900F5503D5CD8A0E7EF14
:1021C80010F0E9EF10F044EF10F0415025242D6E87
:1021D800000E26202E6E020E2D24256E000E2E20B7
:1021E800266E204A212A20C0F6FF21C0F7FFF86A90
:1021F800050EF76403D00800F55005D0F6CFE1FFCF
:10220800F7CFE2FFE7500009D8A40DEF11F00FEF68
:1022180011F07DEF0FF012002BC0D9FF2CC0DAFFB0
:102228000B0EDE6E000EDD6E676820EE02F02B509E
:10223800D9262C50DA22000EDE6E000EDD6E20EE5E
:1022480004F02B50D9262C50DA22000EDE6E000E38
:10225800DD6E20EE06F02B50D9262C50DA22000E27
:10226800DE6E000EDD6EE90E2B24126E000E2C20A1
:10227800136E32EC31F0C90E2B24126E000E2C2096
:10228800136ECBEC2DF0D50E2B24126E000E2C20E5
:10229800136E000E156E000E146E14EC2BF0DF0E8C
:1022A8002B24126E000E2C20136E000E156E010EDC
:1022B800146E14EC2BF0000E136E820E126E000ECC
:1022C800156E320E146E000E176E5A0E166E000E34
:1022D800196E140E186EFF0E1B6E1A68000E1D6E16
:1022E800000E1C6EAB0E1E6E7F0E1F6E7F0E206ED4
:1022F8007F0E216E000E226E000E236E000E246EDD
:10230800000E256E000E266E000E276E080E2B247A
:10231800286E000E2C20296E010E2A6EE2EC24F0A5
:10232800000E136E0A0E126E000E156EFA0E146E63
:10233800000E176E460E166E000E196E140E186EED
:10234800FF0E1B6E1A68000E1D6E000E1C6EC90E65
:102358001E6E7F0E1F6E7F0E206E7F0E216E000E8A
:10236800226E000E236E000E246E000E256E000EE7
:10237800266E000E276E200E2B24286E000E2C20B1
:10238800296E020E2A6EE2EC24F0000E136E960EF1
:10239800126E000E156EFA0E146E000E176E460EB3
:1023A800166E000E196E140E186EFF0E1B6E1A684C
:1023B800000E1D6E000E1C6ED20E1E6E7F0E1F6E5E
:1023C8007F0E206E7F0E216E000E226E000E236E91
:1023D800000E246E000E256E000E266E000E276E6F
:1023E800380E2B24286E000E2C20296E030E2A6E20
:1023F800E2EC24F0000E136E820E126E000E156EC3
:10240800320E146E000E176E5A0E166E000E196EEE
:10241800140E186EFF0E1B6E1A68000E1D6E000E4D
:102428001C6EE30E1E6E7F0E1F6E7F0E206E7F0EDB
:10243800216E000E226E000E236E000E246E000E1A
:10244800256E000E266E000E276E500E2B24286E69
:10245800000E2C20296E040E2A6EE2EC24F0000EE9
:10246800136E0A0E126E000E156EDC0E146E000E40
:10247800176E460E166E000E196E320E186E000E8E
:102488001B6E000E1A6EFF0E1D6E1C68F70E1E6E78
:102498007F0E1F6E7F0E206E7F0E216E000E226E45
:1024A800000E236E000E246E000E256E000E266EA2
:1024B800000E276E680E2B24286E000E2C20296E25
:1024C800050E2A6EE2EC24F0000E136E960E126EC4
:1024D800000E156EDC0E146E000E176E460E166E8C
:1024E800000E196E320E186E000E1B6E000E1A6E5C
:1024F800FF0E1D6E1C68FB0E1E6E7F0E1F6E7F0E7C
:10250800206E7F0E216E000E226E000E236E000ECE
:10251800246E000E256E000E266E000E276E980E95
:102528002B24286E000E2C20296E060E2A6EE2EC53
:1025380024F0000E136E960E126E000E156EDC0E51
:10254800146E000E176E460E166E000E196E320EC1
:10255800186E000E1B6E000E1A6EFF0E1D6E1C68A4
:10256800C00E1E6E7F0E1F6E7F0E206E7F0E216EB8
:10257800000E226E000E236E000E246E000E256ED5
:10258800000E266E000E276E800E2B24286E000E7D
:102598002C20296E060E2A6EE2EC24F0000E136E33
:1025A800320E126E000E156E640E146E000E176E4B
:1025B800A50E166E000E196E140E186E000E1B6E08
:1025C800000E1A6EFF0E1D6E1C68F80E1F6E000EB0
:1025D8001E6E000E216E000E206E000E236E0B0E76
:1025E800226E000E246E000E256EB00E2B24266E71
:1025F800000E2C20276ED9EC25F012002350800BFA
:10260800306E23502324376E22AE0DEF13F00FEFF8
:1026180013F010EF13F037803750D8B416EF13F0DB
:1026280018EF13F02DEF13F03728D8A41EEF13F08E
:1026380020EF13F028EF13F0000E206E000E216E2D
:10264800000E226E000E236E228E000E236E35EFD2
:1026580013F0000E206E000E216E000E226E000E8A
:10266800236E2750800B301A27502724386E26AE49
:1026780040EF13F042EF13F043EF13F03880385077
:10268800D8B449EF13F04BEF13F060EF13F038288C
:10269800D8A451EF13F053EF13F05BEF13F0000ED3
:1026A800246E000E256E000E266E000E276E268EF6
:1026B800000E276E68EF13F0000E246E000E256ED4
:1026C800000E266E000E276E2450251026102710A7
:1026D800D8A471EF13F073EF13F08BEF13F0000E23
:1026E800206E000E216E000E226E000E236E800EEC
:1026F80022127F0E23123050231220C020F021C056
:1027080021F022C022F023C023F0CEEF14F037507E
:10271800D8A491EF13F093EF13F09DEF13F0000E90
:10272800206E000E216E000E226E000E236ECEEF7C
:1027380014F0385037C028F0296A285E000E295A4C
:102748007F0E2824316E000E2920326E20C02CF016
:1027580021C02DF022C02EF023C02FF0000E206ED5
:10276800000E216E000E226E000E236E000E336ED8
:10277800000E346E000E356E000E366E000E386E8A
:10278800FEEF13F03850D8B4CCEF13F0CEEF13F0BF
:10279800E5EF13F0D8902C362D362E362F36D890FC
:1027A800203621362236233636AEDDEF13F0DFEF42
:1027B80013F0E0EF13F02080D890333634363536F6
:1027C800363624502C5C25502D5826502E5827502C
:1027D8002F58D8A0F2EF13F0F4EF13F0FDEF13F039
:1027E800368C24502C5E25502D5A26502E5A2750B0
:1027F8002F5A382A190E386404EF14F006EF14F033
:10280800C6EF13F02C502D102E102F10D8B40FEF48
:1028180014F011EF14F029EF14F0338029EF14F0BD
:10282800D890203621362236233636AE1EEF14F0E5
:1028380020EF14F021EF14F02080D890333634368E
:10284800353636363106D8A0320622AE2EEF14F0D1
:1028580030EF14F014EF14F0000E386E36AE37EF88
:1028680014F039EF14F05DEF14F0FF0E3314286EF6
:10287800FF0E3414296EFF0E35142A6E7F0E36149F
:102888002B6E285029102A102B10D8B44EEF14F0B4
:1028980050EF14F054EF14F0010E386E5DEF14F0A1
:1028A80020A059EF14F05BEF14F05DEF14F050EF37
:1028B80014F03850D8B463EF14F065EF14F089EFD2
:1028C80014F0010E2026000E21222222232223A00A
:1028D80070EF14F072EF14F089EF14F020C028F0B4
:1028E80021C029F022C02AF023C02BF02B342B3230
:1028F8002A322932283228C020F029C021F02AC0E3
:1029080022F02BC023F0314A322A32BE94EF14F061
:10291800325008E13128D8A094EF14F096EF14F063
:10292800A1EF14F0000E326E3168000E206E000E1A
:10293800216E000E226E000E236E32BEAEEF14F032
:10294800325006E13104D8B0ACEF14F0AEEF14F019
:10295800BCEF14F0000E326E000E316E000E206EC9
:10296800000E216E000E226E000E236E000E306ED9
:1029780031C037F037A0C3EF14F0C5EF14F0C8EF3B
:1029880014F0228EC9EF14F0229ED8903730236EAF
:102998007FEF13F0120062EF16F0080E3724126E64
:1029A800000E3820136E20EE04F03750D926385028
:1029B800DA22DECF14F0DDCF15F020EE06F0375026
:1029C800D9263850DA22DECF16F0DDCF17F050ECDA
:1029D80026F00009D8B4F3EF14F0F5EF14F000EF87
:1029E80015F0000E186E070E7AEC2EF037C012F0B4
:1029F80038C013F0F5EC30F0200E3724126E000EBC
:102A08003820136E20EE04F03750D9263850DA22D9
:102A1800DECF14F0DDCF15F020EE06F03750D926C2
:102A28003850DA22DECF16F0DDCF17F050EC26F062
:102A38000009D8B422EF15F024EF15F02FEF15F0A8
:102A4800000E186E050E7AEC2EF037C012F038C062
:102A580013F0F5EC30F0380E3724126E000E3820E3
:102A6800136E20EE04F03750D9263850DA22DECF24
:102A780014F0DDCF15F020EE06F03750D926385087
:102A8800DA22DECF16F0DDCF17F050EC26F0000981
:102A9800D8B451EF15F053EF15F083EF16F0000E90
:102AA800186E060E7AEC2EF037C012F038C013F00C
:102AB800F5EC30F083EF16F0B00E3724126E000EEE
:102AC8003820136E20EE04F03750D9263850DA2219
:102AD800DECF14F0DDCF15F020EE06F03750D92602
:102AE8003850DA22DECF16F0DDCF17F0BFEC26F033
:102AF8000009D8B482EF15F084EF15F098EF15F0BF
:102B080037C018F038C019F09CEC0CF0B00E372420
:102B1800276E000E3820286E31EC0AF037C012F00C
:102B280038C013F0F5EC30F0500E3724126E000E5A
:102B38003820136E20EE04F03750D9263850DA22A8
:102B4800DECF14F0DDCF15F020EE06F03750D92691
:102B58003850DA22DECF16F0DDCF17F050EC26F031
:102B68000009D8B4BAEF15F0BCEF15F083EF16F0F2
:102B7800000E186E080E7AEC2EF037C012F038C02E
:102B880013F0F5EC30F083EF16F0040E3918D8A4E2
:102B9800D0EF15F0D2EF15F0DAEF15F037C01CF0D2
:102BA80038C01DF05FEC25F083EF16F00A0E3918D7
:102BB800D8A4E1EF15F0E3EF15F083EF16F037C076
:102BC80025F038C026F01EEC31F020EEC9F0375061
:102BD800D9263850DA22DECF3AF0DDCF3BF0320E7C
:102BE8003A26000E3B223B5009E1EF0E3A5CD8A092
:102BF80000EF16F002EF16F00EEF16F020EEDFF001
:102C08003750D9263850DA22BD0EDE6E000EDD6E42
:102C18001EEF16F020EEC9F03750D9263850DA22C8
:102C280010EEDFF03750E1263850E222DECFE6FF23
:102C3800DDCFE5FF000E186E0C0E7AEC2EF0000EBC
:102C4800146E050E136E0A0E156E010E166E06EC46
:102C58002EF083EF16F0800E3724126E000E382007
:102C6800136E20EE04F03750D9263850DA22DECF22
:102C780014F0DDCF15F020EE06F03750D926385085
:102C8800DA22DECF16F0DDCF17F050EC26F000097F
:102C9800D8B451EF16F053EF16F083EF16F037C0A3
:102CA8002BF038C02CF010EC11F0000E186E0F0E3F
:102CB8007AEC2EF0000E4D6E83EF16F04D503A6E02
:102CC8003B6A3B50000AD8B46CEF16F083EF16F05D
:102CD8003A50000AD8B4D1EF14F0010AD8B460EF22
:102CE80015F0030AD8B4C9EF15F0010AD8B483EF78
:102CF80016F0070AD8B42FEF16F083EF16F012007B
:102D08001C50216E1BC022F01250165C135017582D
:102D1800D8B091EF16F093EF16F09FEF16F012C0AF
:102D28001FF013C020F016C012F017C013F01FC018
:102D380016F020C017F01450185C15501958D8B068
:102D4800A8EF16F0AAEF16F0B6EF16F014C01FF0B1
:102D580015C020F018C014F019C015F01FC018F0E5
:102D680020C019F01A04D8A4BCEF16F0BEEF16F074
:102D780020EF17F02A0E806E8B988B968B868B88A7
:102D88001350806E8B968B8612C080FF8B968B8635
:102D98001750806E8B968B8616C080FF8B968B861D
:102DA8002B0E806E8B988B968B868B881550806E39
:102DB8008B968B8614C080FF8B968B86010E806E57
:102DC8008B968B863F0E806E8B968B862C0E806E34
:102DD8008B988B968B868B8812C023F013C024F0B7
:102DE80013EF17F014C01DF015C01EF006EF17F012
:102DF80021C080FF8B968B8622C080FF8B968B86A6
:102E08001D4A1E2A1D50185C1E501958D8B00FEFC5
:102E180017F011EF17F0FCEF16F0234A242A23507D
:102E2800165C24501758D8B01CEF17F01EEF17F097
:102E3800F6EF16F020EF18F02A0E806E8B988B961E
:102E48008B868B881350806E8B968B8612C080FF82
:102E58008B968B861750806E8B968B8616C080FF5C
:102E68008B968B862B0E806E8B988B968B868B8899
:102E78001550806E8B968B8614C080FF8B968B8640
:102E8800010E806E8B968B863F0E806E8B968B869E
:102E98002C0E806E8B988B968B868B8812C023F0B5
:102EA80013C024F062EF17F021C080FF8B968B8649
:102EB80022C080FF8B968B86234A242A2350165CD7
:102EC80024501758D8B06BEF17F06DEF17F058EF84
:102ED80017F02B0E806E8B988B968B868B881950EB
:102EE800806E8B968B8618C080FF8B968B862C0EF7
:102EF800806E8B988B968B868B8812C023F013C0BC
:102F080024F091EF17F021C080FF8B968B8622C0AA
:102F180080FF8B968B86234A242A2350165C2450E4
:102F28001758D8B09AEF17F09CEF17F087EF17F003
:102F38002A0E806E8B988B968B868B881350806EAA
:102F48008B968B8612C080FF8B968B861350806E73
:102F58008B968B8612C080FF8B968B862B0E806E8D
:102F68008B988B968B868B881550806E8B968B866C
:102F780014C080FF8B968B86010E806E8B968B8695
:102F88003F0E806E8B968B862C0E806E8B988B9660
:102F98008B868B8814C023F015C024F0DEEF17F061
:102FA80021C080FF8B968B8622C080FF8B968B86F4
:102FB800234A242A2350185C24501958D8B0E7EF24
:102FC80017F0E9EF17F0D4EF17F02A0E806E8B9800
:102FD8008B968B868B881750806E8B968B8616C047
:102FE80080FF8B968B861750806E8B968B8616C0CB
:102FF80080FF8B968B862C0E806E8B988B968B869B
:103008008B8814C023F015C024F015EF18F021C0E8
:1030180080FF8B968B8622C080FF8B968B86234AF7
:10302800242A2350185C24501958D8B01EEF18F0E1
:1030380020EF18F00BEF18F012002FC068F030C026
:1030480069F031C06AF032C06BF033C06CF034C044
:103058006DF035C06EF036C06FF000016FBF37EF0E
:1030680018F03AEF18F0010E3BEF18F0000E666FFB
:10307800676B66516711D8B444EF18F046EF18F043
:1030880056EF18F06F1F6E1F6D1F6C1F6B1F6A1FA6
:10309800691F686D000E69236A236B236C236D23F7
:1030A8006E236F234ABE5BEF18F05DEF18F05EEFFA
:1030B80018F04B924ABE6BEF18F04A5006E14904EB
:1030C800D8B069EF18F06BEF18F071EF18F0000E38
:1030D800636F010E626F75EF18F049C062F04AC065
:1030E80063F047C064F048C065F066516711D8A422
:1030F80080EF18F082EF18F089EF18F04BA487EFF3
:1031080018F089EF18F08CEF18F06407D8A065075D
:10311800000E716F1F0E706F000EFF6F11EF19F028
:103128007007D8A07107E00E7025D96E000E7121C6
:10313800DA6E68C012F069C013F06AC014F06BC090
:1031480015F06CC016F06DC017F06EC018F06FC0A7
:1031580019F00A0E1A6E000E1B6E000E1C6E000E81
:103168001D6E000E1E6E000E1F6E000E206E000EED
:10317800216EAEEC1FF012C037F013C038F014C047
:1031880039F015C03AF016C03BF017C03CF018C033
:103198003DF019C03EF037C024F039C025F083EC6B
:1031A80030F02450300FDF6E00016207D8A06307AB
:1031B8006407D8A0650768C012F069C013F06AC038
:1031C80014F06BC015F06CC016F06DC017F06EC02F
:1031D80018F06FC019F00A0E1A6E000E1B6E000E62
:1031E8001C6E000E1D6E000E1E6E000E1F6E000E71
:1031F800206E000E216EEAEC1EF012C068F013C0BB
:1032080069F014C06AF015C06BF016C06CF017C0F6
:103218006DF018C06EF019C06FF0000171BF1DEF9E
:1032280019F0715108E17005D8A01DEF19F01FEFD2
:1032380019F04FEF19F0685169116A116B116C118F
:103248006D116E116F11D8A42CEF19F02EEF19F033
:1032580094EF18F063BF3BEF19F0635106E1620584
:10326800D8B039EF19F03BEF19F094EF18F065BFBB
:1032780046EF19F0655108E16405D8A046EF19F04A
:1032880048EF19F04FEF19F04BB24DEF19F04FEF2F
:1032980019F094EF18F066516711D8A456EF19F099
:1032A80058EF19F05FEF19F04BA45DEF19F05FEFDD
:1032B80019F07DEF19F07007D8A0710766516711F2
:1032C800D8A469EF19F06BEF19F071EF19F0000E3F
:1032D800616F2B0E606F75EF19F0000E616F2D0E88
:1032E800606FE00E7025D96E000E7121DA6E60C035
:1032F800DFFF2DC022F02EC023F0E00E7025246ED3
:10330800000E7121256E64C026F065C027F039ECE7
:1033180029F022C02DF023C02EF0120074EC2CF0FE
:10332800110E806E8B988B968B868B88000E186E8C
:10333800D00E176ECA0EE82EFED7172EFCD7182A05
:10334800090E1864AAEF19F0ACEF19F09CEF19F008
:10335800360E806E8B988B968B868B88000E806ECF
:103368008B968B863A0E806E8B988B968B868B8885
:10337800550E806E8B968B86B20E806E8B988B96D0
:103388008B868B880C0E806E8B968B860C0E806ECF
:103398008B968B86330E806E8B968B86330E806E63
:1033A8008B968B86B70E806E8B988B968B868B88C8
:1033B800350E806E8B968B86BB0E806E8B988B96A7
:1033C8008B868B882B0E806E8B968B86C00E806EBC
:1033D8008B988B968B868B882C0E806E8B968B8623
:1033E800C20E806E8B988B968B868B88010E806EB2
:1033F8008B968B8680688B968B86C30E806E8B9897
:103408008B968B868B88110E806E8B968B86C40E5E
:10341800806E8B988B968B868B88200E806E8B9611
:103428008B86C60E806E8B988B968B868B88090E42
:10343800806E8B968B86D00E806E8B988B968B8643
:103448008B88A40E806E8B968B86A10E806E8B96D1
:103458008B86E00E806E8B988B968B868B88D00E31
:10346800806E8B968B86000E806E8B968B86050EF3
:10347800806E8B968B860E0E806E8B968B86150EC5
:10348800806E8B968B860D0E806E8B968B86370E94
:10349800806E8B968B86430E806E8B968B86470E3E
:1034A800806E8B968B86090E806E8B968B86150E9A
:1034B800806E8B968B86120E806E8B968B86160E80
:1034C800806E8B968B86190E806E8B968B86E10E9E
:1034D800806E8B988B968B868B88D00E806E8B96A1
:1034E8008B86000E806E8B968B86050E806E8B9673
:1034F8008B860D0E806E8B968B860C0E806E8B964F
:103508008B86060E806E8B968B862D0E806E8B9624
:103518008B86440E806E8B968B86400E806E8B96C3
:103528008B860E0E806E8B968B861C0E806E8B960D
:103538008B86180E806E8B968B86160E806E8B96F9
:103548008B86190E806E8B968B862A0E806E8B98D2
:103558008B968B868B88000E806E8B968B86000EE2
:10356800806E8B968B86000E806E8B968B86EF0E08
:10357800806E8B968B862B0E806E8B988B968B86A7
:103588008B88000E806E8B968B86000E806E8B96D5
:103598008B86010E806E8B968B863F0E806E8B9687
:1035A8008B86260E806E8B988B968B868B88010E69
:1035B800806E8B968B86290E806E8B988B968B8669
:1035C8008B88120004EF1CF0F19A6BEC31F01AEFC3
:1035D8001CF0F096000EF0EC2FF0C2B2F6EF1AF0E5
:1035E800F8EF1AF0F1EF1AF0C4500001936F926BE4
:1035F800C3509225AE6F000E9321AF6FAF5107E114
:10360800790EAE5DD8B00BEF1BF00DEF1BF011EF8C
:103618001BF0000EAF6F780EAE6F660E246E660E4E
:10362800256E160E266E400E276E880E926FFF0EC0
:10363800936FAEC094F0AFC095F092519427935118
:10364800952394C012F095C013F0146A156A000E01
:1036580036EC1DF012C020F013C021F014C022F087
:1036680015C023F002EC13F020C039F021C03AF065
:1036780022C03BF023C03CF05DEC23F039C0AEF033
:103688003AC0AFF00001AE51F008AE6FAF51D8A00C
:10369800E82A0008AF6F010EF0EC2FF0C2B257EF26
:1036A8001BF059EF1BF052EF1BF0C4500001936F51
:1036B800926BC3509225AC6F000E9321AD6FAD5144
:1036C80007E16A0EAC5DD8B06CEF1BF06EEF1BF033
:1036D80072EF1BF0000EAD6F690EAC6F970E926F14
:1036E800FF0E936FACC094F0ADC095F09251942743
:1036F80093519523D8909531966F9431AC6F96C0BD
:10370800ADF0000E146E090E136E040E156E000E49
:10371800166E06EC2EF0280EC26E6BEC31F081B2FC
:1037280098EF1BF09AEF1BF01AEF1CF0980E0001AF
:10373800826F000E836FEB0E846F7F0E856FAEC0B5
:1037480086F0AFC087F0C7EC2FF0980E206E000E01
:10375800216E7F0E226E7F0E236E010E246E000EE8
:10376800266EC80E256E000E286EC80E276E000E37
:103778002A6E000E296EFF0E2C6E2B68EBEC0EF0F5
:1037880090C012F091C013F0AEC014F0AFC015F0A5
:103798009EEC31F0980E0001826F000E836FF10EDF
:1037A800846F7F0E856FACC086F0ADC087F0C7EC24
:1037B8002FF0980E206E000E216E7F0E226E7F0E67
:1037C800236E010E246E000E266EC80E256E000EA6
:1037D800286EFA0E276E000E2A6E000E296EFF0E56
:1037E8002C6E2B68EBEC0EF090C012F091C013F029
:1037F800ACC014F0ADC015F093EC31F01AEF1CF02A
:103808000001DE51926F936B9351000AD8B40FEF09
:103818001CF01AEF1CF09251000AD8B4E8EF1AF025
:10382800010AD8B4EDEF1AF01AEF1CF0120025C007
:10383800D9FF26C0DAFFDECF33F0DDCF34F020EE3B
:1038480004F02550D9262650DA22DECF27F0DDCF26
:1038580028F025C0D9FF26C0DAFFDECF29F0DDCF5A
:103868002AF0275029242F6E28502A20306E20EE67
:1038780002F02550D9262650DA22DECF31F0DDCFEE
:1038880032F020EE06F02550D9262650DA22DECF77
:1038980027F0DDCF28F020EE02F02550D92626505B
:1038A800DA22DECF29F0DDCF2AF027502924356E21
:1038B80028502A20366E20EE10F02550D9262650A2
:1038C800DA22DF50D8A46BEF1CF06DEF1CF083EF09
:1038D8001CF020EE08F02550D9262650DA22DECF3B
:1038E8002BF0DDCF2CF020EE0AF02550D9262650FB
:1038F800DA22DECF2DF0DDCF2EF09DEF1CF033C0A5
:1039080012F034C013F0010E3524146E000E362068
:10391800156E0BEC21F012C02BF013C02CF020EE2A
:1039280008F02550D9262650DA22DECF2DF0DDCF3B
:103938002EF020EE08F02550D9262650DA2210EE77
:103948000AF02550E1262650E222DE50E61809E169
:10395800DE50E618D8B4B3EF1CF0B5EF1CF035EF25
:103968001DF0030E3324126E000E3420136E010E68
:103978003524146E000E3620156E030E2F24166E95
:10398800000E3020176E030E3524186E000E3620F8
:10399800196E010E1A6E2BC01BF02CC01CF084ECA3
:1039A80016F0010E2F24126E000E3020136E030E37
:1039B8003124146E000E3220156E030E2F24166E5D
:1039C800000E3020176E030E3524186E000E3620B8
:1039D800196E010E1A6E2BC01BF02CC01CF084EC63
:1039E80016F0010E3324126E000E3420136E010EF1
:1039F8003124146E000E3220156EFF0E2F24166E21
:103A0800FF0E3020176E020E3124186E000E322081
:103A1800196E010E1A6E2DC01BF02EC01CF084EC1E
:103A280016F0010E3324126E000E3420136E010EB0
:103A38003124146E000E3220156E020E3324166ED9
:103A4800000E3420176EFF0E3524186EFF0E362038
:103A5800196E010E1A6E2DC01BF02EC01CF084ECDE
:103A680016F012001A6E1A50D8B43DEF1DF03FEF51
:103A78001DF061EF1DF015BE46EF1DF044EF1DF07F
:103A880061EF1DF012C016F013C017F014C018F043
:103A980015C019F0161E171E181E191E162A000E1C
:103AA80017221822192216C01CF017C01DF018C0C2
:103AB8001EF019C01FF069EF1DF012C01CF013C0F2
:103AC8001DF014C01EF015C01FF012501310141072
:103AD8001510D8A472EF1DF074EF1DF07EEF1DF0E5
:103AE800000E126E000E136E000E146E000E156E90
:103AF8000FEF1EF0960E1B6E88EF1DF01B2AD89054
:103B08001F321E321D321C32000E1C14166E000E9F
:103B18001D14176E000E1E14186EFE0E1F14196E5B
:103B28001650171018101910D8A49DEF1DF09FEF0C
:103B38001DF082EF1DF0ADEF1DF01B2A010E1C26B3
:103B4800000E1D221E221F22D8901F321E321D3247
:103B58001C32000E1C14166E000E1D14176E000E7B
:103B68001E14186EFF0E1F14196E16501710181019
:103B78001910D8A4C2EF1DF0C4EF1DF0A1EF1DF07D
:103B8800CCEF1DF01B06D8901C361D361E361F368E
:103B98001EBED1EF1DF0D3EF1DF0DBEF1DF0020EBE
:103BA8001B60D9EF1DF0DBEF1DF0C6EF1DF01BB059
:103BB800E0EF1DF0E2EF1DF0E3EF1DF01E9ED89040
:103BC8001B321BC016F0176A186A196A16C019F05A
:103BD800186A176A166A16501C1217501D121850C8
:103BE8001E1219501F121A50D8B4FDEF1DF0FFEF26
:103BF8001DF007EF1EF015BE06EF1EF004EF1EF0D5
:103C080007EF1EF01F8E1CC012F01DC013F01EC05F
:103C180014F01FC015F0120041C0D9FF42C0DAFFEE
:103C2800DECFF6FFDDCFF7FF0800F550250AD8A450
:103C380020EF1EF022EF1EF0CEEF1EF041C0D9FF9C
:103C480042C0DAFFDE2A000EDD22000E486E000EAA
:103C5800476E47C04BF048C04CF049684A6841C0BD
:103C6800D9FF42C0DAFFDECFF6FFDDCFF7FF08004D
:103C7800F550640AD8B443EF1EF045EF1EF057EF35
:103C88001EF041C0D9FF42C0DAFFDECFF6FFDDCF1C
:103C9800F7FF0800F550690AD8A455EF1EF057EF52
:103CA8001EF098EF1EF041C0D9FF42C0DAFFDE2AAD
:103CB800000EDD2243C0D9FF44C0DAFFDFCF45F054
:103CC800020EDE26DFCF46F0000EDD2245C0D9FF0A
:103CD80046C0DAFFDECF72F0DDCF73F00001000ED0
:103CE80073BFFF0E746F756F766F776F786F796F2C
:103CF8003FC02DF040C02EF072C02FF073C030F0DE
:103D080074C031F075C032F076C033F077C034F04B
:103D180078C035F079C036F021EC18F02DC03FF0AE
:103D28002EC040F0E9EF1EF041C0D9FF42C0DAFFD3
:103D3800DECFF6FFDDCFF7FF0800F550250AD8A43F
:103D4800A8EF1EF0AAEF1EF0C1EF1EF041C0D9FF88
:103D580042C0DAFFDE2A000EDD22000E136E250EA9
:103D6800126E3FC014F040C015F072EC28F0000E3F
:103D7800406E010E3F6EE9EF1EF041C0D9FF42C010
:103D8800DAFFDE2A000EDD22000E406E000E3F6EC6
:103D9800E9EF1EF041C0D9FF42C0DAFFDECFF6FFDF
:103DA800DDCFF7FF0800F550126E136A3FC014F01C
:103DB80040C015F072EC28F041C0D9FF42C0DAFFCC
:103DC800DE2A000EDD22BBEF1EF01200000E236E6D
:103DD80021BEF3EF1EF0F1EF1EF005EF1FF0211EDC
:103DE800201E1F1E1E1E1D1E1C1E1B1E1A6C000ED2
:103DF8001B221C221D221E221F2220222122010EEC
:103E0800236E19BE0CEF1FF00AEF1FF01EEF1FF014
:103E1800191E181E171E161E151E141E131E126CB0
:103E2800000E1322142215221622172218221922F4
:103E3800010E231A20EE24F0070EDE6AE806FDE2E2
:103E48001A501B101C101D101E101F1020102110BE
:103E5800D8B431EF1FF033EF1FF085EF1FF0010EDC
:103E6800226E41EF1FF0D8901A361B361C361D36CD
:103E78001E361F3620362136222A21AE46EF1FF085
:103E880048EF1FF037EF1FF0D89024362536263636
:103E98002736283629362A362B361A50125C1B50FC
:103EA80013581C5014581D5015581E5016581F50A2
:103EB80017582050185821501958D8A066EF1FF0ED
:103EC80068EF1FF079EF1FF01A50125E1B50135A5B
:103ED8001C50145A1D50155A1E50165A1F50175A66
:103EE8002050185A2150195A2480D8902132203253
:103EF8001F321E321D321C321B321A32222E48EF5C
:103F08001FF02350D8B48BEF1FF08DEF1FF09DEFFB
:103F18001FF02B1E2A1E291E281E271E261E251EA0
:103F2800246C000E252226222722282229222A2232
:103F38002B2224C012F025C013F026C014F027C08D
:103F480015F028C016F029C017F02AC018F02BC0A9
:103F580019F01200000E236E19BEB7EF1FF0B5EF6F
:103F68001FF0C9EF1FF0191E181E171E161E151E6A
:103F7800141E131E126C000E132214221522162270
:103F8800172218221922010E236E21BED0EF1FF02E
:103F9800CEEF1FF0E0EF1FF0211E201E1F1E1E1E79
:103FA8001D1E1C1E1B1E1A6C000E1B221C221D220D
:103FB8001E221F22202221221A501B101C101D1005
:103FC8001E101F1020102110D8B4EDEF1FF0EFEFD6
:103FD8001FF037EF20F0010E226EFDEF1FF0D89092
:103FE8001A361B361C361D361E361F36203621362D
:103FF800222A21AE02EF20F004EF20F0F3EF1FF0A9
:104008001A50125C1B5013581C5014581D50155848
:104018001E5016581F50175820501858215019581C
:10402800D8A019EF20F01BEF20F02BEF20F01A504A
:10403800125E1B50135A1C50145A1D50155A1E500C
:10404800165A1F50175A2050185A2150195AD890EA
:10405800213220321F321E321D321C321B321A32DC
:10406800222E04EF20F02350D8B43DEF20F03FEF8C
:1040780020F04FEF20F0191E181E171E161E151ED1
:10408800141E131E126C000E13221422152216225F
:1040980017221822192212C012F013C013F014C0EC
:1040A80014F015C015F016C016F017C017F018C098
:1040B80018F019C019F0120020EE04F02550D92686
:1040C8002650DA22DECF27F0DDCF28F0F80E27249D
:1040D800126EFF0E2820136E20EE06F02550D9260A
:1040E8002650DA22DECF29F0DDCF2AF0F80E292477
:1040F800146EFF0E2A20156E20EE04F02550D926E6
:104108002650DA22DECF2BF0DDCF2CF0080E2B2440
:10411800166E000E2C20176E20EE06F02550D926BC
:104128002650DA22DECF2DF0DDCF2EF0080E2D241A
:10413800186E000E2E20196E010E1A6E000E1C6EDF
:10414800000E1B6E84EC16F025C0D9FF26C0DAFFDE
:1041580010EE04F02550E1262650E222DECFE6FFDD
:10416800DDCFE5FF20EE02F02550D9262650DA22D1
:1041780010EE06F02550E1262650E222DECFE6FFBB
:10418800DDCFE5FF25C0D9FF26C0DAFFDECF27F057
:10419800DDCF28F0F80E2724126EFF0E2820136EAC
:1041A80020EE02F02550D9262650DA22DECF29F05B
:1041B800DDCF2AF0F80E2924146EFF0E2A20156E82
:1041C80025C0D9FF26C0DAFFDECF2BF0DDCF2CF0DB
:1041D800080E2B24166E000E2C20176E20EE02F00F
:1041E8002550D9262650DA22DECF2DF0DDCF2EF04D
:1041F800080E2D24186E000E2E20196E010E1A6E50
:10420800F80E1C6E000E1B6E84EC16F012002A0EBF
:10421800806E8B988B968B868B881350806E8B96CE
:104228008B8612C080FF8B968B86000E806E8B96D5
:104238008B86EF0E806E8B968B862B0E806E8B98FE
:104248008B968B868B881550806E8B968B8614C0C8
:1042580080FF8B968B86010E806E8B968B863F0E29
:10426800806E8B968B862E0E806E8B988B968B86A7
:104278008B8892688B9400F08B8492688B9400F002
:1042880080CF1AF01B6A8B841AC016F01BC017F077
:10429800D89017321632D89017321632D890173273
:1042A800163216C01AF017C01BF01AC016F01BC041
:1042B80017F00B0ED89016361736E82E5EEF21F061
:1042C80016C018F017C019F08B9400F080CF1AF0C0
:1042D8001B6A8B841AC016F01BC017F0D8901732CF
:1042E8001632D8901732163216C01AF017C01BF0C3
:1042F8001AC016F01BC017F0050ED89016361736E0
:10430800E82E81EF21F016501812175019128B94CD
:1043180000F080501A128B841AC016F01BC017F0D8
:10432800D89017321632D89017321632D8901732E2
:10433800163216C01AF017C01BF01A5018121B506C
:104348001912000E926E18C012F019C013F0120064
:1043580020EE04F02550D9262650DA22DECF12F0BE
:10436800DDCF13F020EE06F02550D9262650DA22AC
:10437800DECF14F0DDCF15F020EE04F02550D9265D
:104388002650DA22DECF27F0DDCF28F0320E2724A0
:10439800166E000E2820176E20EE06F02550D9263E
:1043A8002650DA22DECF29F0DDCF2AF00A0E2924A2
:1043B800186E000E2A20196E010E1A6E000E1C6E61
:1043C800000E1B6E84EC16F025C0D9FF26C0DAFF5C
:1043D80010EE04F02550E1262650E222DECFE6FF5B
:1043E800DDCFE5FF20EE02F02550D9262650DA224F
:1043F80010EE06F02550E1262650E222DECFE6FF39
:10440800DDCFE5FF25C0D9FF26C0DAFFDECF12F0E9
:10441800DDCF13F020EE02F02550D9262650DA22FF
:10442800DECF14F0DDCF15F025C0D9FF26C0DAFFA6
:10443800DECF27F0DDCF28F0320E2724166E000ECF
:104448002820176E20EE02F02550D9262650DA22B1
:10445800DECF29F0DDCF2AF00A0E2924186E000ECF
:104468002A20196E010E1A6E20EE08F02550D92662
:104478002650DA22DECF1BF0DDCF1CF084EC16F0DC
:104488001200000E0D6E000E0C6E0CC001F00DC077
:1044980002F0000E046E030E036E58EC31F0B70EF6
:1044A8000124D96E000E0220DA6EDF50D8B45FEF17
:1044B80022F061EF22F0C5EF22F00CC001F00DC030
:1044C80002F0000E046E030E036E58EC31F0B50EC8
:1044D8000124D96E000E0220DA6EDE06000EDD5AC7
:1044E8000CC001F00DC002F0000E046E030E036E46
:1044F80058EC31F0B50E0124D96E000E0220DA6EA8
:10450800DE50DE10D8A48BEF22F08DEF22F0C5EF3D
:1045180022F0010E076E0CC001F00DC002F0000E73
:10452800046E030E036E58EC31F0B70E0124D96EF9
:10453800000E0220DA6EDF50DEEC2EF0E806D8A47A
:10454800A8EF22F0AAEF22F0B1EF22F0010E026EDE
:104558000C50A3EC30F0C5EF22F00CC001F00DC0F8
:1045680002F0000E046E030E036E58EC31F0B50E27
:104578000124D96E000E0220DA6E010EDE6E000EE6
:10458800DD6E0C4A0D2A0DBED3EF22F00D5009E165
:10459800080E0C5CD8A0D3EF22F0D5EF22F049EF3B
:1045A80022F0120037C0D9FF38C0DAFFDECF3DF065
:1045B800DDCF3EF020EE04F03750D9263850DA220D
:1045C800DECF39F0DDCF3AF037C0D9FF38C0DAFF97
:1045D800DECF3BF0DDCF3CF039503B243F6E3A5004
:1045E8003C20406E20EE02F03750D9263850DA22AF
:1045F800DECF41F0DDCF42F020EE06F03750D9266D
:104608003850DA22DECF39F0DDCF3AF020EE02F072
:104618003750D9263850DA22DECF3BF0DDCF3CF0D8
:1046280039503B24436E3A503C20446E3DC012F052
:104638003EC013F041C014F042C015F03FC016F060
:1046480040C017F043C018F044C019F0010E1A6EAC
:1046580020EE0AF03750D9263850DA22DECF1BF088
:10466800DDCF1CF084EC16F03DC012F03EC013F014
:1046780041C014F042C015F03FC016F040C017F01A
:1046880043C018F044C019F0000E1A6E20EE0CF06A
:104698003750D9263850DA22DECF1BF0DDCF1CF098
:1046A80084EC16F037C027F038C028F031EC0AF057
:1046B80012003B343C34426E4250D8A466EF23F0DB
:1046C80068EF23F072EF23F0000E396E000E3A6E99
:1046D800000E3B6E000E3C6EDFEF23F039C03DF05C
:1046E8003AC03EF03BC03FF03CC040F0200E82EFA5
:1046F80023F0D89040323F323E323D32E82E7DEFF3
:1047080023F03D50416E3B8EFF0E3916FF0E3A16D0
:10471800FF0E3B16000E3C16960E425E42BE99EF07
:1047280023F097EF23F0AFEF23F04250800A970F62
:10473800D8B0A1EF23F0A3EF23F0A5EF23F068EFA3
:1047480023F0D8903C323B323A323932423EA5EF20
:1047580023F0C7EF23F01F0E4264B5EF23F0B7EF45
:1047680023F0BFEF23F068EF23F0D89039363A36BC
:104778003B363C3642064250D8A4C5EF23F0C7EF7B
:1047880023F0B9EF23F04150D8B4CDEF23F0CFEFA9
:1047980023F0D7EF23F03C1E3B1E3A1E396C000E67
:1047A8003A223B223C2239C039F03AC03AF03BC0A9
:1047B8003BF03CC03CF0120043EF24F09EC09CF05C
:1047C8009FC09DF08FEC2DF061EF24F09EC09CF00F
:1047D8009FC09DF04EEC2DF061EF24F00B0EA01958
:1047E800D8A4F9EF23F0FBEF23F003EF24F0D50E64
:1047F8009E25256E000E9F21266EACEC21F00C0E36
:104808000001A019D8A40BEF24F00DEF24F015EF48
:1048180024F0DF0E9E25256E000E9F21266EACEC3F
:1048280021F00D0E0001A019D8A41DEF24F01FEFF0
:1048380024F027EF24F0C90E9E25256E000E9F2137
:10484800266E60EC20F00E0E0001A019D8A42FEF00
:1048580024F031EF24F061EF24F0E90E9E25906FEB
:10486800000E9F21916F09EC28F061EF24F09EC0A3
:104878009CF09FC09DF06CEC2BF061EF24F00001E0
:10488800DD51A16FA26BA251000AD8B44EEF24F0FB
:1048980061EF24F0A151000AD8B4E2EF23F0010A35
:1048A800D8B4EAEF23F0030AD8B4F2EF23F0010AF0
:1048B800D8B43BEF24F061EF24F012000001A76F99
:1048C800C3EF24F0050EA719D8B46DEF24F06FEFED
:1048D80024F078EF24F0060EA719D8A476EF24F078
:1048E80078EF24F088EF24F0020EDD6FA3C092F079
:1048F800A4C093F09CEC2FF0A3C09EF0A4C09FF03E
:10490800A7C0A0F0E0EC23F0070E0001A719D8A477
:1049180090EF24F092EF24F0E1EF24F0010EDD6F28
:10492800A3C09EF0A4C09FF0A7C0A0F0E0EC23F0C5
:10493800E1EF24F0080EA719D8A4A5EF24F0A7EFFB
:1049480024F0E1EF24F0000EDD6F94EF24F0090E5F
:10495800A719D8A4B2EF24F0B4EF24F094EF24F010
:10496800030EDD6F94EF24F00F0EA719D8A4BFEF44
:1049780024F0C1EF24F0E1EF24F0A7EF24F00001C8
:10498800DD51A56FA66BA651000AD8B4CEEF24F06E
:10499800E1EF24F0A551000AD8B466EF24F0010A2B
:1049A800D8B49EEF24F0030AD8B4ABEF24F0010A80
:1049B800D8B4B8EF24F0E1EF24F0120028C0D9FFF2
:1049C80029C0DAFF12C0DEFF13C0DDFF20EE02F0BF
:1049D8002850D9262950DA2214C0DEFF15C0DDFF81
:1049E80020EE06F02850D9262950DA2218C0DEFF1A
:1049F80019C0DDFF20EE04F02850D9262950DA220C
:104A080016C0DEFF17C0DDFF20EE08F02850D926BB
:104A18002950DA221AC0DEFF1BC0DDFF20EE0AF0A3
:104A28002850D9262950DA221CC0DEFF1DC0DDFF20
:104A380020EE0CF02850D9262950DA221EC0DEFFBD
:104A48001FC0DDFF20EE0EF02850D9262950DA22AB
:104A580020C0DEFF21C0DDFF20EE11F02850D9264E
:104A68002950DA2222C0DEFF23C0DDFF20EE13F03A
:104A78002850D9262950DA2224C0DEFF25C0DDFFC0
:104A880020EE15F02850D9262950DA2226C0DEFF5C
:104A980027C0DDFF20EE17F02850D9262950DA224A
:104AA8002AC0DFFF20EE10F02850D9262950DA223C
:104AB800000EDF6E1200680E1C24126E000E1D2000
:104AC800136E20EE04F01C50D9261D50DA22DECFDA
:104AD80014F0DDCF15F020EE06F01C50D9261D503D
:104AE800DA22DECF16F0DDCF17F050EC26F0000901
:104AF800D8B481EF25F083EF25F099EF25F01CC09D
:104B080012F01DC013F0F5EC30F0D50E1C24126E17
:104B1800000E1D20136E000E156E140E146E000E7E
:104B2800176E000E166E9CEC27F0980E1C24126E61
:104B3800000E1D20136E20EE04F01C50D9261D50C7
:104B4800DA22DECF14F0DDCF15F020EE06F01C508F
:104B5800D9261D50DA22DECF16F0DDCF17F050EC43
:104B680026F00009D8B4BBEF25F0BDEF25F0D3EF50
:104B780025F01CC012F01DC013F0F5EC30F0D50E76
:104B88001C24126E000E1D20136E000E156E140EDE
:104B9800146E000E176E010E166E9CEC27F0000EB8
:104BA800186E0B0E7AEC2EF0120026C0D9FF27C023
:104BB800DAFF12C0DEFF13C0DDFF20EE02F0265040
:104BC800D9262750DA2214C0DEFF15C0DDFF20EEFB
:104BD80006F02650D9262750DA2218C0DEFF19C061
:104BE800DDFF20EE04F02650D9262750DA2216C021
:104BF800DEFF17C0DDFF20EE08F02650D92627502B
:104C0800DA221AC0DEFF1BC0DDFF20EE0AF02650B4
:104C1800D9262750DA221CC0DEFF1DC0DDFF20EE9A
:104C28000CF02650D9262750DA221EC0DEFF1FC0FE
:104C3800DDFF20EE0EF02650D9262750DA2220C0BC
:104C4800DEFF21C0DDFF20EE17F02650D9262750C1
:104C5800DA2224C0DEFF25C0DDFF20EE15F0265045
:104C6800D9262750DA2222C0DEFF23C0DDFF20EE3E
:104C780011F02650D9262750DA22000EDE6E000EDB
:104C8800DD6E20EE13F02650D9262750DA22000ECA
:104C9800DE6E000EDD6E120012C0D9FF13C0DAFFFF
:104CA800DE50145CDE501558D8B05DEF26F05FEF8B
:104CB80026F062EF26F0000EBEEF26F020EE04F09C
:104CC8001250D9261350DA22DECF18F0DDCF19F0B2
:104CD80012C0D9FF13C0DAFFDECF1AF0DDCF1BF008
:104CE80018501A2619501B2214501A5C15501B58BC
:104CF800D8B081EF26F083EF26F085EF26F05FEF3E
:104D080026F020EE02F01250D9261350DA22DE5097
:104D1800165CDE501758D8B094EF26F096EF26F0C0
:104D280098EF26F05FEF26F020EE06F01250D92615
:104D38001350DA22DECF18F0DDCF19F020EE02F0A2
:104D48001250D9261350DA22DECF1AF0DDCF1BF02D
:104D580018501A2619501B2216501A5C17501B5847
:104D6800D8B0B9EF26F0BBEF26F0BDEF26F05FEF25
:104D780026F0010E120012C0D9FF13C0DAFFDE5070
:104D8800145CDE501558D8B0CCEF26F0CEEF26F0E4
:104D9800D1EF26F0000E2DEF27F020EE04F0125090
:104DA800D9261350DA22DECF18F0DDCF19F012C061
:104DB800D9FF13C0DAFFDECF1AF0DDCF1BF0185091
:104DC8001A2619501B2214501A5C15501B58D8B0BB
:104DD800F0EF26F0F2EF26F0F4EF26F0CEEF26F013
:104DE80020EE02F01250D9261350DA22DE50165C5B
:104DF800DE501758D8B003EF27F005EF27F007EF7C
:104E080027F0CEEF26F020EE06F01250D9261350E8
:104E1800DA22DECF18F0DDCF19F020EE02F01250C2
:104E2800D9261350DA22DECF1AF0DDCF1BF0185046
:104E38001A2619501B2216501A5C17501B58D8B046
:104E480028EF27F02AEF27F02CEF27F0CEEF26F0F7
:104E5800010E1200406E7AEF27F03CC037F03DC0DB
:104E680038F0000E396ECFEC14F0070E4018D8A4B5
:104E780040EF27F042EF27F044EF27F0010E4D6E88
:104E8800050E4018D8A44BEF27F04DEF27F09BEF05
:104E980027F0020E4D6E000E146E050E136E0A0EEC
:104EA800156E010E166E06EC2EF09BEF27F03CC037
:104EB80037F03DC038F0000E396ECFEC14F0080E14
:104EC8004018D8A46AEF27F06CEF27F09BEF27F083
:104ED800000E4D6E9BEF27F03CC037F03DC038F018
:104EE80040C039F0CFEC14F09BEF27F04D503E6EE8
:104EF8003F6A3F50000AD8B484EF27F09BEF27F0B1
:104F08003E50000AD8B431EF27F0010AD8B45BEF5D
:104F180027F0030AD8B470EF27F0010AD8B49BEF42
:104F280027F0070AD8B470EF27F09BEF27F012009C
:104F380016041710D8A4A3EF27F0A5EF27F0DAEF8F
:104F480027F012C0D9FF13C0DAFFDECF18F0DDCF8B
:104F580019F0145018261550192212C0D9FF13C081
:104F6800DAFF18C0DEFF19C0DDFF12C0D9FF13C079
:104F7800DAFFDECF18F0DDCF19F0320E1826000E5A
:104F88001922195009E1F00E185CD8A0CEEF27F0CD
:104F9800D0EF27F008EF28F012C0D9FF13C0DAFFCE
:104FA800BD0EDE6E000EDD6E08EF28F012C0D9FFD0
:104FB80013C0DAFF010EDB5007E1150EDE5CD8B036
:104FC800E8EF27F0EAEF27F0F4EF27F012C0D9FF57
:104FD80013C0DAFF000EDE6E000EDD6E08EF28F05B
:104FE80012C0D9FF13C0DAFFDECF18F0DDCF19F0F9
:104FF8001450185E1550195A12C0D9FF13C0DAFFA1
:1050080018C0DEFF19C0DDFF1200040E0001902554
:10501800826F000E9121836FEE0E846F7F0E856F75
:1050280090C0D9FF91C0DAFFDECF86F0DDCF87F0E0
:10503800C7EC2FF0040E00019025206E000E912180
:10504800216E7F0E226E7F0E236E000E246E000EE0
:10505800266E000E256E000E286E000E276EFF0EBF
:105068002A6E2968000E2C6E000E2B6EEBEC0EF0EB
:10507800040E00019025826F000E9121836FEE0EC1
:10508800846F7F0E856F20EE02F09051D9269151E2
:10509800DA22DECF86F0DDCF87F0C7EC2FF0040EE2
:1050A80000019025206E000E9121216E7F0E226E48
:1050B8007F0E236E010E246E000E266EEF0E256EF7
:1050C800000E286E000E276EFF0E2A6E2968000E4D
:1050D8002C6E000E2B6EEBEC0EF012001450151017
:1050E800D8B479EF28F07BEF28F084EF28F014503B
:1050F8001510D8A482EF28F084EF28F089EF28F063
:105108001250E4EC31F0D6EF28F020EE04F0145001
:10511800D9261550DA22DE50DE10D8B496EF28F0E2
:1051280098EF28F0B3EF28F020EE04F01450D926B9
:105138001550DA2210EE02F01450E1261550E22242
:10514800DE50E65CE650800A1A6EDE50800A1A5875
:10515800D8B0B1EF28F0B3EF28F0D6EF28F020EE62
:1051680002F01450D9261550DA22DECF16F0DDCF22
:1051780017F014C0D9FF15C0DAFFDECF18F0DDCF65
:1051880019F016501824D96E17501920DA6E12C06B
:10519800DFFF20EE02F01450D9261550DA22DE2A5D
:1051A800000EDD221200000E176E15BEE0EF28F08B
:1051B800DEEF28F0E6EF28F0146C151ED8B0152A9B
:1051C800010E176E13BEEDEF28F0EBEF28F0F3EFAA
:1051D80028F0126C131ED8B0132A010E171A000EED
:1051E800196E000E186E14501510D8B4FEEF28F082
:1051F80000EF29F028EF29F0010E166E08EF29F0CC
:10520800D89014361536162A15AE0DEF29F00FEF83
:1052180029F004EF29F0D890183619361450125C8A
:1052280015501358D8A01BEF29F01DEF29F022EFD5
:1052380029F01450125E1550135A1880D890153260
:105248001432162E0FEF29F01750D8B42EEF29F08C
:1052580030EF29F034EF29F0186C191ED8B0192A4C
:1052680018C012F019C013F012004BA03EEF29F03D
:1052780040EF29F04AEF29F024C01BF025C01CF0AC
:1052880022C01DF023C01EF061EC30F027BE4FEFA6
:1052980029F051EF29F057EF29F026C02BF027C04D
:1052A8002CF05BEF29F0000E2C6E000E2B6E000E1A
:1052B8002A6E000E296E6DEF29F0000E136E200E77
:1052C800126E22C014F023C015F072EC28F0294A9F
:1052D8002A2A2B50295C2A50800A286E2C50800AD2
:1052E8002858D8A07AEF29F07CEF29F061EF29F04F
:1052F8004BB081EF29F083EF29F08DEF29F024C01E
:105308001BF025C01CF022C01DF023C01EF061EC6C
:1053180030F024C012F025C013F018EC30F02B50F8
:105328001224226E2C501320236E12001350146E78
:1053380012C015F02A0E806E8B988B968B868B8800
:10534800000E806E8B968B86000E806E8B968B86F9
:10535800000E806E8B968B86EF0E806E8B968B86FA
:105368002B0E806E8B988B968B868B88000E806EAA
:105378008B968B86000E806E8B968B86010E806EC8
:105388008B968B863F0E806E8B968B862C0E806E4E
:105398008B988B968B868B88000E176E000E166E78
:1053A800000E196E000E186E14C080FF8B968B8647
:1053B80015C080FF8B968B86184A192A195009E167
:1053C800F00E185CD8A0EBEF29F0EDEF29F0D8EF3C
:1053D80029F0164A172A400E165C010E1758D8A055
:1053E800F8EF29F0FAEF29F0D4EF29F01200020EB5
:1053F8001224146E000E1320156E14C0F6FF15C08B
:10540800F7FF0800F5CF16F0D8901632D89016326C
:10541800D89016321650186E196A010E1224146E9E
:10542800000E1320156E14C0F6FF15C0F7FF080014
:10543800F5CF16F0D8901632D890163216501A6E4C
:105448001B6A12C0F6FF13C0F7FF0800F5CF14F06F
:10545800D8901432D8901432D890143214501C6E4C
:105468001D6A1AC014F01BC015F0050ED89014362A
:105478001536E82E3AEF2AF018C016F019C017F0C2
:105488000B0ED89016361736E82E45EF2AF0145032
:105498001612155017121C5016101E6E1D5017109C
:1054A8001F6E1EC012F01FC013F012009B8C700EEE
:1054B800D36E090E0001A86F1E0EA76FE40EE82E2A
:1054C800FED7A72FFCD7A82FFAD700F092EC19F037
:1054D800000E136E1F0E126E9AEC29F0B60E206E97
:1054E8007F0E216E7F0E226E7F0E236E020E246EBB
:1054F800000E266E320E256E000E286E320E276EB6
:10550800000E2A6E000E296EFF0E2C6E2B68EBEC37
:105518000EF0F28EF096F19A94908B80860ED56EEE
:10552800FB0ED76E1D0ED66EF28A9492BB6866503B
:10553800F00B0C09666E6768CF0E66169E92BA80ED
:10554800BA92BA84A60EC06EB8EC2AF0000E2B6E82
:10555800010E2C6E10EC11F0000E0001A56F010E6B
:10556800A66F0AEC31F01200000E216E000E206EBC
:10557800CD0E2024D96E000E2120DA6E000EDF6ECB
:10558800204A212A21BED2EF2AF0215009E10C0E2F
:10559800205CD8A0D2EF2AF0D4EF2AF0BCEF2AF092
:1055A800000E216E000E206E20C01AF021C01BF0E4
:1055B800000E1D6E030E1C6E45EC31F0B50E1A245C
:1055C800D96E000E1B20DA6E000EDE6E000EDD6E48
:1055D80020C01AF021C01BF0000E1D6E030E1C6EB9
:1055E80045EC31F0B70E1A24D96E000E1B20DA6E86
:1055F800000EDF6E204A212A21BE0CEF2BF021502D
:1056080009E1080E205CD8A00CEF2BF00EEF2BF070
:10561800D8EF2AF0000E0001D96F000EDA6F1200E1
:1056280020EE04F01250D9261350DA22000EDE6E56
:10563800000EDD6E20EE06F01250D9261350DA2245
:10564800000EDE6E000EDD6E14501510D8B42FEF6C
:105658002BF031EF2BF04FEF2BF012C0D9FF13C016
:10566800DAFF5A0EDE6E000EDD6E20EE02F01250EA
:10567800D9261350DA22140EDE6E000EDD6E20EEEF
:1056880008F01250D9261350DA22FF0EDE6EFF0EF4
:10569800DD6E6BEF2BF012C0D9FF13C0DAFF5A0E84
:1056A800DE6E000EDD6E20EE02F01250D926135089
:1056B800DA22180EDE6E010EDD6E20EE08F01250B2
:1056C800D9261350DA22FF0EDE6EFF0EDD6E1200B1
:1056D800000E136E000E126E9AEC29F0800E000177
:1056E8009C257C6F000E9D217D6FBAEC07F00001B0
:1056F80020EEE9F09C51D9269D51DA22DE50DE10C9
:10570800D8A489EF2BF08BEF2BF0A8EF2BF0930E9A
:10571800206E7F0E216E7F0E226E7F0E236E020E8C
:10572800246E000E266E640E256E000E286E320E54
:10573800276EFF0E2A6E2968000E2C6E000E2B6E47
:10574800EBEC0EF0C3EF2BF0860E206E7F0E216E71
:105758007F0E226E7F0E236E020E246E000E266EC2
:10576800640E256E000E286E320E276EFF0E2A6E0E
:105778002968000E2C6E000E2B6EEBEC0EF012005A
:10578800000E176E13BECDEF2BF0CBEF2BF0D3EF3F
:105798002BF0126C131ED8B0132A010E176E15BE0B
:1057A800DAEF2BF0D8EF2BF0DEEF2BF0146C151E90
:1057B800D8B0152A14501510D8B4E5EF2BF0E7EF40
:1057C8002BF00BEF2CF0010E166EEFEF2BF0D890AC
:1057D80014361536162A15AEF4EF2BF0F6EF2BF02B
:1057E800EBEF2BF01450125C15501358D8A0FFEFB4
:1057F8002BF001EF2CF005EF2CF01450125E155031
:10580800135AD89015321432162EF6EF2BF0175083
:10581800D8B411EF2CF013EF2CF017EF2CF0126C1A
:10582800131ED8B0132A12C012F013C013F01200BE
:10583800000E066E02BE25EF2CF023EF2CF02BEFA6
:105848002CF0016C021ED8B0022A010E066E04BEAE
:1058580032EF2CF030EF2CF036EF2CF0036C041EF6
:10586800D8B0042A03500410D8B43DEF2CF03FEF11
:105878002CF063EF2CF0010E056E47EF2CF0D8905A
:1058880003360436052A04AE4CEF2CF04EEF2CF00C
:1058980043EF2CF00350015C04500258D8A057EF96
:1058A8002CF059EF2CF05DEF2CF00350015E045002
:1058B800025AD89004320332052E4EEF2CF00650CF
:1058C800D8B469EF2CF06BEF2CF06FEF2CF0016C73
:1058D800021ED8B0022A01C001F002C002F0120074
:1058E800949A949494969498000E926E8B9A8B84C2
:1058F8008B868B88000E136E000E146E000E156ECC
:10590800000E166ED00E126ECA0EE82EFED7122E9C
:10591800FCD7010E1326000E14221522162216504B
:105928001510141009E10C0E135CD8A09EEF2CF092
:10593800A0EF2CF086EF2CF0000E136E000E146E04
:10594800000E156E000E166ED00E126ECA0EE82EE0
:10595800FED7122EFCD7010E1326000E1422152294
:10596800162216501510141009E10C0E135CD8A05D
:10597800C0EF2CF0C2EF2CF0A8EF2CF012000001C1
:10598800B46FF6EF2CF0B405D8A4CDEF2CF0CFEF20
:105998002CF00CEF2DF0010EDE6FB0C090F0B1C00E
:1059A80091F0E6EC1AF00CEF2DF0020EB419D8A421
:1059B800E0EF2CF0E2EF2CF0EAEF2CF0000EDE6FB7
:1059C800B0C090F0B1C091F0E6EC1AF0040E0001FE
:1059D800B419D8A4F2EF2CF0F4EF2CF00CEF2DF062
:1059E800D1EF2CF00001DE51B26FB36BB351000A56
:1059F800D8B401EF2DF00CEF2DF0B251000AD8B455
:105A0800C7EF2CF0010AD8B4D9EF2CF00CEF2DF029
:105A1800120020EE08F01250D9261350DA22DECFF9
:105A280014F0DDCF15F012C0D9FF13C0DAFFDECFB6
:105A380016F0DDCF17F0145016261550172212C095
:105A4800D9FF13C0DAFF16C0DEFF17C0DDFF20EE56
:105A58000AF01250D9261350DA22DECF14F0DDCF27
:105A680015F020EE02F01250D9261350DA22DECFBC
:105A780016F0DDCF17F0145016261550172220EE19
:105A880002F01250D9261350DA2216C0DEFF17C0D2
:105A9800DDFF1200FF0E136E12689AEC29F0A00EBB
:105AA800206E7F0E216E7F0E226E7F0E236E020EF9
:105AB800246E000E266E320E256E000E286E320EF3
:105AC800276E000E2A6E000E296EFF0E2C6E2B68B4
