:020000040000FA
:0400000058EF00F0C5
:100008004E82D9CF0EF0DACF0FF0F3CF10F0F4CF45
:1000180011F0F0A012EF00F014EF00F039EF00F04B
:10002800F0A619EF00F01BEF00F039EF00F0F1BA7D
:1000380020EF00F022EF00F02BEF00F0F18AF090B3
:10004800010E076E010E42EC25F039EF00F0F1AA1F
:1000580030EF00F032EF00F039EF00F0F19AF09055
:10006800010E076E020E42EC25F0F2A43EEF00F0FE
:1000780040EF00F04EEF00F0F2AA45EF00F047EF36
:1000880000F04EEF00F0C0EC1AF0E70ED76E950EB8
:10009800D66EF29411C0F4FF10C0F3FF0FC0DAFF60
:1000A8000EC0D9FF4E92110069EF27F027C071F0FA
:1000B80028C072F00A0E000171252D6E000E722103
:1000C8002E6E2DC0F6FF2EC0F7FF0900F5CF60F0A9
:1000D8000900F5CF61F00900F5CF62F00A00F5CF0D
:1000E80063F0120E71252D6E000E72212E6E2DC03A
:1000F800F6FF2EC0F7FF0900F5CF76F00A00F5CF1E
:1001080077F0160E71252D6E000E72212E6E2DC001
:10011800F6FF2EC0F7FF0900F5CF6BF00A00F5CF08
:100128006CF01C0E71252D6E000E72212E6E2DC0E6
:10013800F6FF2EC0F7FF0900080EF5180900F510A4
:10014800D8A4A9EF00F0ABEF00F054EF03F01E0EB7
:1001580071252D6E000E72212E6E2DC0F6FF2EC059
:10016800F7FF0900F5040900F5100900F51009006A
:10017800F510D8B4C2EF00F0C4EF00F0C6EF00F0FD
:1001880054EF03F0765129242D6E77512A202E6ED4
:100198002E5007E1F10E2D5CD8B0D5EF00F0D7EF67
:1001A80000F054EF03F06B512B242D6E6C512C2072
:1001B8002E6E410E2D5C010E2E58D8A0E6EF00F0F1
:1001C800E8EF00F0EAEF00F054EF03F0360E806E2F
:1001D8008B988B968B868B88800E806E8B968B8601
:1001E800360E2724696F000E28206A6F6051272673
:1001F80061512822000E646F69C012F06AC013F0C2
:1002080067EC20F012C078F013C079F02A0E806EE7
:100218008B988B968B868B882A50806E8B968B86D4
:1002280029C080FF8B968B860001765129242D6E7C
:1002380077512A202E6EFF0E2D24296EFF0E2E20B8
:100248002A6E2A50806E8B968B8629C080FF8B96EB
:100258008B862B0E806E8B988B968B868B882BC00B
:100268002DF02CC02EF02D1E2E1E2D4A2E2A6B513D
:100278002D5E6C512E5A400E2D24736F010E2E20C8
:10028800746F7451806E8B968B8673C080FF8B96CB
:100298008B866B5173252D6E6C5174212E6EFF0E5B
:1002A8002D24736FFF0E2E20746F7451806E8B9601
:1002B8008B8673C080FF8B968B862C0E806E8B98F6
:1002C8008B968B868B88000E706F000E6F6F000EFA
:1002D800686F000E676F27C0F6FF28C0F7FF080099
:1002E800F5500009D8A47BEF01F07DEF01F0F8EF9D
:1002F80002F0D4EF02F0020E2726000E2822000E8C
:100308007B6F000E7A6F93EF01F07951806E8B96B8
:100318008B8678C080FF8B968B867A4B7B2B6F51B0
:10032800765D2D6E705177592E6E2D507A5D2E5058
:100338007B59D8A0A2EF01F0A4EF01F089EF01F0FA
:10034800000E706F000E6F6F674B682B41EF03F064
:10035800000E7B6F000E7A6FBCEF01F07951806E52
:100368008B968B8678C080FF8B968B867A4B7B2BFF
:100378006F51765D2D6E705177592E6E2D507A5DC6
:100388002E507B59D8A0CBEF01F0CDEF01F0B2EFA2
:1003980001F0000E7B6F000E7A6FDDEF01F07951EE
:1003A800806E8B968B8678C080FF8B968B867A4B77
:1003B8007B2B67516B5D2D6E68516C592E6EFF0E4D
:1003C8002D241A6EFF0E2E201B6E76C01CF077C0EF
:1003D8001DF096EC27F01A5000017A5D1B507B59EE
:1003E800D8A0F9EF01F0FBEF01F0D3EF01F0010E17
:1003F800646F41EF03F0030E27242D6E000E2820B2
:100408002E6E2DC0F6FF2EC0F7FF0800F5501A6EAD
:100418001B6A76C01CF077C01DF096EC27F0020E20
:1004280027242F6E000E2820306E2FC0F6FF30C014
:10043800F7FF0800F5501A240001656F000E1B2015
:10044800666F000E7B6F000E7A6F37EF02F06F4B0E
:10045800702B7951806E8B968B8678C080FF8B9637
:100468008B867A4B7B2B65517A5D66517B59D8A078
:1004780040EF02F042EF02F02BEF02F065C020F0EF
:1004880066C021F076C022F077C023F06FEC24F02C
:10049800000167512024676F68512120686F6FC081
:1004A80012F070C013F076C014F077C015F010EC9D
:1004B80025F012C06FF013C070F0040E2726000E4E
:1004C800282241EF03F0010E27242D6E000E28206C
:1004D8002E6E2DC0F6FF2EC0F7FF0800F5CF75F081
:1004E800000E7B6F000E7A6FA8EF02F07A51272476
:1004F8002D6E7B5128202E6E020E2D26000E2E22E8
:100508002DC0F6FF2EC0F7FF0800F550040DF3CFFD
:100518002FF0F4CF30F02F506925126E30506A2139
:10052800136E67EC20F012C06DF013C06EF000017E
:100538006F4B702B6E51806E8B968B866DC080FFD3
:100548008B968B867A4B7B2B75512D6E2E6A2D5090
:100558007A5D2E507B59D8A0B4EF02F0B6EF02F0C6
:100568007AEF02F07529D8B4BCEF02F0BEEF02F0C2
:10057800CEEF02F07529FE0B756F75512D6E2E6A40
:10058800020E2D26000E2E222D5027262E50282210
:1005980041EF03F0020E2726010E282241EF03F057
:1005A800010E27242D6E000E28202E6E2DC0F6FF7A
:1005B8002EC0F7FF0800F5502F6E306A3050000A41
:1005C800D8B4E9EF02F067EF02F02F50000AD8B470
:1005D8007FEF01F0010AD8B4ACEF01F0030AD8B4F8
:1005E800FFEF01F067EF02F027C0F6FF28C0F7FF22
:1005F8000800F5CF75F0010E27242D6E000E282077
:100608002E6E2DC0F6FF2EC0F7FF0800F550040D22
:10061800F3CF2FF0F4CF30F02F506925126E305001
:100628006A21136E67EC20F012C06DF013C06EF0F3
:10063800000E00017B6F000E7A6F2FEF03F06F4BF7
:10064800702B6E51806E8B968B866DC080FF8B965B
:100658008B867A4B7B2B75512D6E2E6A2D507A5DC9
:100668002E507B59D8A03BEF03F03DEF03F023EF6A
:1006780003F0020E2726000E282200016451D8B488
:1006880048EF03F04AEF03F06FEF01F0360E806E8B
:100698008B988B968B868B88000E806E8B968B86BC
:1006A8001200000E00018C6F000E8B6F7CC0D9FF0A
:1006B8007DC0DAFFDECF8DF0DDCF8EF020EE04F0C6
:1006C8007C51D9267D51DA22DECF7EF0DDCF7FF056
:1006D8007CC0D9FF7DC0DAFFDECF80F0DDCF81F0AE
:1006E8007E5180258F6F7F518121906F20EE02F01F
:1006F8007C51D9267D51DA22DECF91F0DDCF92F000
:1007080020EE06F07C51D9267D51DA22DECF7EF02C
:10071800DDCF7FF020EE02F07C51D9267D51DA2220
:10072800DECF80F0DDCF81F07E518025936F7F5141
:100738008121946F20EE08F07C51D9267D51DA2270
:1007480010EE0AF07C51E1267D51E222DE50E618D7
:1007580009E1DE50E618D8B4B4EF03F0B6EF03F0C1
:10076800F3EF03F08DC012F08EC013F091C014F0B7
:1007780092C015F08FC016F090C017F093C018F013
:1007880094C019F0010E1A6E20EE0AF07C51D92699
:100798007D51DA22DECF1BF0DDCF1CF068EC10F0C3
:1007A8008DC012F08EC013F091C014F092C015F0F5
:1007B8008FC016F090C017F093C018F094C019F0CD
:1007C800000E1A6E000120EE08F07C51D9267D51EA
:1007D800DA22DECF1BF0DDCF1CF068EC10F0000150
:1007E80020EE0CF07C51D9267D51DA22DECFF6FFBF
:1007F800DDCFF7FF0800F550420AD8A406EF04F051
:1008080008EF04F0B8EF04F020EE0CF07C51D92684
:100818007D51DA22DECF7EF0DDCF7FF0010E7E271C
:10082800000E7F237EC0F6FF7FC0F7FF0800F5505B
:100838004D0AD8A422EF04F024EF04F0B8EF04F036
:1008480020EE0CF07C51D9267D51DA22DECF9AF0C9
:10085800DDCF9BF020EE02F07C51D9267D51DA22C3
:10086800DECF7EF0DDCF7FF0160E9A25806F000E6A
:100878009B21816F80C0F6FF81C0F7FF0900F5CF8B
:1008880082F00900F5CF83F00900F5CF84F0090064
:10089800F5CF85F0D890853384338333823320EEC7
:1008A80006F07C51D9267D51DA22DECF86F0DDCFE5
:1008B80087F0D8908731896F8631886F8251885F39
:1008C8008351895B7E518825976F7F518921986F65
:1008D8007CC0D9FF7DC0DAFFDECF7EF0DDCF7FF0B0
:1008E800120E9A25806F000E9B21816F80C0F6FF43
:1008F80081C0F7FF0900F5CF82F00900F5CF83F03A
:100908000900F5CF84F00900F5CF85F0D89085333C
:1009180084338333823320EE04F07C51D9267D5111
:10092800DA22DECF86F0DDCF87F0D8908731896F65
:100938008631886F8251885F8351895B7E51882513
:10094800956F7F518921966F9AC027F09BC028F038
:1009580095C029F096C02AF097C02BF098C02CF0CB
:100968005AEC00F0C5EF05F020EE02F07C51D926D4
:100978007D51DA22DECF7EF0DDCF7FF020EE0EF063
:100988007C51D9267D51DA22DECFF6FFDDCFF7FF85
:100998000800F550126E136A000E156E020E146EE2
:1009A80043EC1FF0000120EE06F07C51D9267D5162
:1009B800DA22DECF80F0DDCF81F0D8908131836FED
:1009C8008031826F1250825F1350835B7E51822583
:1009D800976F7F518321986F000E996F50EF05F044
:1009E80020EE0EF07C51D9267D51DA22DECF7EF042
:1009F800DDCF7FF0010E7E27000E7F237EC0F6FF3D
:100A08007FC0F7FF0800F5CF80F020EE0CF07C5196
:100A1800D9267D51DA22DECF81F0DDCF82F09951DF
:100A28008127000E822381C0F6FF82C0F7FF0800ED
:100A3800F5CF83F08051835D8A6F8A51030D20EED4
:100A48000EF07C51D9267D51DA22DECF7EF0DDCF43
:100A58007FF0030E7E27000E7F237EC0F6FF7FC047
:100A6800F7FF0900F5CF80F00900F5CF81F0F350CA
:100A78008027F450812380C0F6FF81C0F7FF08006B
:100A8800F550826F836B020E8227000E83238251FA
:100A98008B2783518C23992B20EE0CF07C51D9267F
:100AA8007D51DA22DECF12F0DDCF13F0A5EC26F06F
:100AB800000199517E6F7F6B12507E5D13507F59F4
:100AC800D8A069EF05F06BEF05F0F4EF04F07CC0F7
:100AD800D9FF7DC0DAFFDECF7EF0DDCF7FF0D89082
:100AE8008C31816F8B31806F20EE04F07C51D926D8
:100AF8007D51DA22DECF82F0DDCF83F0D8908331CA
:100B0800856F8231846F8051845F8151855B7E510E
:100B18008425956F7F518521966F20EE0CF07C51CE
:100B2800D9267D51DA22DECF20F0DDCF21F020EE6C
:100B38000EF07C51D9267D51DA22DECF22F0DDCFAE
:100B480023F0000E246E95C025F096C026F097C0BD
:100B580027F098C028F020EE08F07C51D9267D5166
:100B6800DA22DECF29F0DDCF2AF020EE0AF07C5120
:100B7800D9267D51DA22DECF2BF0DDCF2CF086ECA2
:100B88000AF07CC025F07DC026F0CAEC14F01200F3
:100B980020EE0EF02750D9262850DA22DE50DE103B
:100BA800D8B4D9EF05F0DBEF05F067EF06F027C002
:100BB800D9FF28C0DAFFDECF29F0DDCF2AF020EEFA
:100BC8000EF02750D9262850DA22DECF2BF0DDCFC1
:100BD8002CF020EE04F02750D9262850DA22DECF58
:100BE8002DF0DDCF2EF02B502D5C1A6E2C502E5888
:100BF8001B6E20EE13F02750D9262850DA22DECFBC
:100C08001CF0DDCF1DF096EC27F01AC020F01BC0B9
:100C180021F020EE15F02750D9262850DA22DECF11
:100C280022F0DDCF23F06FEC24F0295020262A5043
:100C38002122010E2024356E000E2120366E20EE72
:100C48000EF02750D9262850DA22DECF29F0DDCF42
:100C58002AF03550292636502A22FE0E29242F6ED6
:100C6800FF0E2A20306E20EE02F02750D926285099
:100C7800DA22DECF29F0DDCF2AF0020E2924316EE8
:100C8800000E2A20326E20EE06F02750D926285072
:100C9800DA22DECF29F0DDCF2AF020EE02F027504D
:100CA800D9262850DA22DECF2BF0DDCF2CF02950C0
:100CB8002B262A502C22FE0E2B24336EFF0E2C20BE
:100CC800346EDBEF06F027C0D9FF28C0DAFFDECF8D
:100CD80029F0DDCF2AF0010E2924356E000E2A20D6
:100CE800366E27C0D9FF28C0DAFFDECF29F0DDCF66
:100CF8002AF020EE04F02750D9262850DA22DECF39
:100D08001AF0DDCF1BF020EE13F02750D92628501B
:100D1800DA22DECF1CF0DDCF1DF096EC27F01AC0EA
:100D280020F01BC021F020EE15F02750D9262850BE
:100D3800DA22DECF22F0DDCF23F06FEC24F0295049
:100D480020262A502122FF0E20242F6EFF0E21205C
:100D5800306E20EE02F02750D9262850DA22DECF56
:100D680029F0DDCF2AF0020E2924316E000E2A2048
:100D7800326E20EE06F02750D9262850DA22DECF30
:100D880029F0DDCF2AF020EE02F02750D92628508E
:100D9800DA22DECF2BF0DDCF2CF029502B262A507B
:100DA8002C22FE0E2B24336EFF0E2C20346E35C001
:100DB80012F036C013F031C014F032C015F02FC055
:100DC80016F030C017F033C018F034C019F0010E17
:100DD8001A6E20EE0AF02750D9262850DA22DECFE4
:100DE8001BF0DDCF1CF068EC10F020EE11F027505E
:100DF800D9262850DA2210EE13F02750E126285081
:100E0800E222DECFE6FFDDCFE5FF20EE0EF0275031
:100E1800D9262850DA22DE50DE10D8A416EF07F0C3
:100E280018EF07F08EEF07F027C0D9FF28C0DAFFC8
:100E3800DECF29F0DDCF2AF0010E2924356E000E11
:100E48002A20366E27C0D9FF28C0DAFFDECF29F066
:100E5800DDCF2AF020EE04F02750D9262850DA22D8
:100E6800DECF1AF0DDCF1BF020EE11F02750D92687
:100E78002850DA22DECF1CF0DDCF1DF096EC27F0EB
:100E88001AC020F01BC021F020EE15F02750D926FB
:100E98002850DA22DECF22F0DDCF23F06FEC24F0E9
:100EA800295020262A502122FF0E20242F6EFF0EC3
:100EB8002120306E20EE02F02750D9262850DA2261
:100EC800DECF29F0DDCF2AF0020E2924316E000E84
:100ED8002A20326E20EE06F02750D9262850DA2232
:100EE800DECF29F0DDCF2AF020EE02F02750D926F8
:100EF8002850DA22DECF2BF0DDCF2CF029502B261C
:100F08002A502C22FE0E2B24336EFF0E2C20346E1A
:100F180018EF08F027C0D9FF28C0DAFFDECF29F084
:100F2800DDCF2AF020EE0EF02750D9262850DA22FD
:100F3800DECF2BF0DDCF2CF020EE04F02750D926A1
:100F48002850DA22DECF2DF0DDCF2EF02B502D5C8D
:100F58001A6E2C502E581B6E20EE11F02750D926F1
:100F68002850DA22DECF1CF0DDCF1DF096EC27F0FA
:100F78001AC020F01BC021F020EE15F02750D9260A
:100F88002850DA22DECF22F0DDCF23F06FEC24F0F8
:100F9800295020262A502122010E2024356E000EC9
:100FA8002120366E20EE0EF02750D9262850DA225E
:100FB800DECF29F0DDCF2AF03550292636502A22F7
:100FC800FE0E29242F6EFF0E2A20306E20EE02F02E
:100FD8002750D9262850DA22DECF29F0DDCF2AF093
:100FE800020E2924316E000E2A20326E20EE06F001
:100FF8002750D9262850DA22DECF29F0DDCF2AF073
:1010080020EE02F02750D9262850DA22DECF2BF026
:10101800DDCF2CF029502B262A502C22FE0E2B2413
:10102800336EFF0E2C20346E35C012F036C013F02C
:1010380031C014F032C015F02FC016F030C017F0D0
:1010480033C018F034C019F0010E1A6E20EE08F003
:101058002750D9262850DA22DECF1BF0DDCF1CF02E
:1010680068EC10F0120020EE04F01850D926195040
:10107800DA22010EDB5009E1320EDE5CD8A047EF20
:1010880008F049EF08F067EF08F020EE04F0185078
:10109800D9261950DA22010EDB5007E1400EDE5C3A
:1010A800D8B059EF08F05BEF08F067EF08F018C008
:1010B80012F019C013F0000E156E000E146EEEEC4F
:1010C80026F077EF0AF020EE04F01850D9261950D0
:1010D800DA22010EDB5009E1400EDE5CD8A077EF82
:1010E80008F079EF08F097EF08F020EE04F01850B8
:1010F800D9261950DA22010EDB5007E14E0EDE5CCC
:10110800D8B089EF08F08BEF08F097EF08F018C017
:1011180012F019C013F0000E156E010E146EEEECED
:1011280026F077EF0AF020EE04F01850D92619506F
:10113800DA22010EDB5009E14E0EDE5CD8A0A7EFE3
:1011480008F0A9EF08F0C7EF08F020EE04F01850F7
:10115800D9261950DA22010EDB5007E15C0EDE5C5D
:10116800D8B0B9EF08F0BBEF08F0C7EF08F018C027
:1011780012F019C013F0000E156E020E146EEEEC8C
:1011880026F077EF0AF020EE04F01850D92619500F
:10119800DA22010EDB5009E15C0EDE5CD8A0D7EF45
:1011A80008F0D9EF08F0F7EF08F020EE04F0185037
:1011B800D9261950DA22010EDB5007E16A0EDE5CEF
:1011C800D8B0E9EF08F0EBEF08F0F7EF08F018C037
:1011D80012F019C013F0000E156E030E146EEEEC2B
:1011E80026F077EF0AF020EE04F01850D9261950AF
:1011F800DA22010EDB5009E16A0EDE5CD8A007EFA7
:1012080009F009EF09F027EF09F020EE04F0185073
:10121800D9261950DA22010EDB5007E1780EDE5C80
:10122800D8B019EF09F01BEF09F027EF09F018C043
:1012380012F019C013F0000E156E040E146EEEECC9
:1012480026F077EF0AF020EE04F01850D92619504E
:10125800DA22010EDB5009E1780EDE5CD8A037EF08
:1012680009F039EF09F057EF09F020EE04F01850B3
:10127800D9261950DA22010EDB5007E1860EDE5C12
:10128800D8B049EF09F04BEF09F057EF09F018C053
:1012980012F019C013F0000E156E050E146EEEEC68
:1012A80026F077EF0AF020EE04F01850D9261950EE
:1012B800DA22010EDB5009E1860EDE5CD8A067EF6A
:1012C80009F069EF09F087EF09F020EE04F01850F3
:1012D800D9261950DA22010EDB5007E1960EDE5CA2
:1012E800D8B079EF09F07BEF09F087EF09F018C063
:1012F80012F019C013F0000E156E060E146EEEEC07
:1013080026F077EF0AF020EE04F01850D92619508D
:10131800DA22010EDB5009E1960EDE5CD8A097EFC9
:1013280009F099EF09F0B7EF09F020EE04F0185032
:10133800D9261950DA22010EDB5007E1A40EDE5C33
:10134800D8B0A9EF09F0ABEF09F0B7EF09F018C072
:1013580012F019C013F0000E156E070E146EEEECA5
:1013680026F077EF0AF020EE04F01850D92619502D
:10137800DA22010EDB5009E1A40EDE5CD8A0C7EF2B
:1013880009F0C9EF09F0E7EF09F020EE04F0185072
:10139800D9261950DA22010EDB5007E1B20EDE5CC5
:1013A800D8B0D9EF09F0DBEF09F0E7EF09F018C082
:1013B80012F019C013F0000E156E080E146EEEEC44
:1013C80026F077EF0AF020EE04F01850D9261950CD
:1013D800DA22010EDB5009E1B20EDE5CD8A0F7EF8D
:1013E80009F0F9EF09F017EF0AF020EE04F01850B1
:1013F800D9261950DA22010EDB5007E1C00EDE5C57
:10140800D8B009EF0AF00BEF0AF017EF0AF018C08E
:1014180012F019C013F0000E156E090E146EEEECE2
:1014280026F077EF0AF020EE04F01850D92619506C
:10143800DA22010EDB5009E1C00EDE5CD8A027EFEE
:101448000AF029EF0AF047EF0AF020EE04F01850EE
:10145800D9261950DA22010EDB5007E1CE0EDE5CE8
:10146800D8B039EF0AF03BEF0AF047EF0AF018C09E
:1014780012F019C013F0000E156E0A0E146EEEEC81
:1014880026F077EF0AF020EE04F01850D92619500C
:10149800DA22010EDB5009E1CE0EDE5CD8A057EF50
:1014A8000AF059EF0AF077EF0AF020EE04F018502E
:1014B800D9261950DA22010EDB5007E1D70EDE5C7F
:1014C800D8B069EF0AF06BEF0AF077EF0AF018C0AE
:1014D80012F019C013F0000E156E0B0E146EEEEC20
:1014E80026F077EF0AF018C0D9FF19C0DAFF10EE1E
:1014F800A9F01850E1261950E222DECFE6FFDDCF31
:10150800E5FF1200000E416E000E3E6EDBEF0AF0A2
:10151800010E22242D6E000E23202E6E2DC0F6FF04
:101528002EC0F7FF0800F5CF2FF03E502024306E74
:10153800000E2120316E30C0F6FF31C0F7FFF86A87
:10154800050EF76403D00800F55005D0F6CFE1FF8B
:10155800F7CFE2FFE750326E2F50325C3F6E3F50BC
:101568001A6E1B6A1ABE1B06000E1D6E030E1C6E39
:1015780096EC27F0030E22242D6E000E23202E6EEB
:101588002DC0F6FF2EC0F7FF0900F5CF2FF0090098
:10159800F5CF30F01A502F261B5030222FC0F6FFFF
:1015A80030C0F7FF0800F550020F41263E2A20C040
:1015B80012F021C013F0A5EC26F03E502D6E2E6AD5
:1015C80012502D5C13502E58D8A0EDEF0AF0EFEF13
:1015D8000AF08CEF0AF02404D8A4F5EF0AF0F7EF2C
:1015E8000AF000EF0BF04150255C256E2650D8A07C
:1015F8002604266E18EF0BF0020E2418D8A407EF65
:101608000BF009EF0BF018EF0BF041C012F0136A62
:10161800000E156E020E146E43EC1FF01250255C7E
:10162800256E13502658266E010E22242D6E000EAC
:1016380023202E6E2DC0F6FF2EC0F7FF0800F5CF31
:101648002FF020C0F6FF21C0F7FFF86A050EF764F7
:1016580003D00800F55005D0F6CFE1FFF7CFE2FF41
:10166800E750306E2F50305C3F6E3F501A6E1B6A49
:101678001ABE1B06000E1D6E030E1C6E96EC27F09C
:10168800030E22242D6E000E23202E6E2DC0F6FF91
:101698002EC0F7FF0900F5CF2FF00900F5CF30F085
:1016A8001A502F261B503022010E2F26000E3022F2
:1016B8002FC0F6FF30C0F7FF0900F5CF33F00A005E
:1016C800F5CF34F03F501A6E1B6A1ABE1B06000E87
:1016D8001D6E030E1C6E96EC27F0030E22242D6E51
:1016E800000E23202E6E2DC0F6FF2EC0F7FF090036
:1016F800F5CF2FF00900F5CF30F01A502F261B50E8
:1017080030222FC0F6FF30C0F7FF0800F5CF41F0B8
:101718002A0E806E8B988B968B868B882650806ECF
:101728008B968B8625C080FF8B968B86415025240F
:101738002D6E000E26202E6E010E2D243B6E000EFF
:101748002E203C6E3C50806E8B968B863BC080FF73
:101758008B968B862B0E806E8B988B968B868B88C0
:101768002850806E8B968B8627C080FF8B968B8641
:1017780022C0F6FF23C0F7FF0800F55027242D6E7E
:10178800000E28202E6EFF0E2D24396EFF0E2E20FF
:101798003A6E3A50806E8B968B8639C080FF8B9656
:1017A8008B862C0E806E8B988B968B868B88000E82
:1017B8003D6E76EF0CF03DC01AF01B6A000E156EF8
:1017C800080E146E070E4124126E136A000E1322BF
:1017D80043EC1FF012C01CF013C01DF096EC27F06C
:1017E80033501A24356E34501B20366E000E406E6E
:1017F80055EF0CF040C012F0136A000E156E080E7B
:10180800146E43EC1FF0050E22242D6E000E2320CB
:101818002E6E2DC0F6FF2EC0F7FF0900F5CF2FF072
:101828000900F5CF30F012502F26135030223550D2
:101838002F26365030222FC0F6FF30C0F7FF0800A1
:10184800F5CF37F040C02DF0070E2D16800E2E6E06
:10185800000E2F6E2D2A34EF0CF02F342F322E323B
:101868002D2E31EF0CF02E503714386E3850D8B476
:1018780040EF0CF042EF0CF04CEF0CF02A50806E69
:101888008B968B8629C080FF8B968B8654EF0CF045
:101898002C50806E8B968B862BC080FF48EF0CF007
:1018A800402A4150405CD8A05CEF0CF05EEF0CF091
:1018B800FEEF0BF0000E406E010E406466EF0CF078
:1018C80068EF0CF06AEF0CF075EF0CF02C50806E9E
:1018D8008B968B862BC080FF8B968B86402A60EF79
:1018E8000CF03D2A22C0F6FF23C0F7FF0900F5508F
:1018F8003D5CD8A082EF0CF084EF0CF0DFEF0BF02A
:10190800415025242D6E000E26202E6E020E2D2409
:10191800256E000E2E20266E204A212A20C0F6FFB2
:1019280021C0F7FFF86A050EF76403D00800F550E8
:1019380005D0F6CFE1FFF7CFE2FFE7500009D8A4C2
:10194800A8EF0CF0AAEF0CF018EF0BF0120095EFCF
:101958000EF0080E3724126E000E3820136E20EE9B
:1019680004F03750D9263850DA22DECF14F0DDCF14
:1019780015F020EE06F03750D9263850DA22DECF9F
:1019880016F0DDCF17F03BEC1DF00009D8B4CFEF0F
:101998000CF0D1EF0CF0EAEF0CF0000E186E070E09
:1019A800DEEC24F020EE04F03750D9263850DA2245
:1019B800000EDE6E000EDD6E20EE06F03750D926E2
:1019C8003850DA22000EDE6E000EDD6E200E37244F
:1019D800126E000E3820136E20EE04F03750D92610
:1019E8003850DA22DECF14F0DDCF15F020EE06F005
:1019F8003750D9263850DA22DECF16F0DDCF17F06F
:101A08003BEC1DF00009D8B40CEF0DF00EEF0DF013
:101A180027EF0DF0000E186E050EDEEC24F020EE18
:101A280004F03750D9263850DA22000EDE6E000E48
:101A3800DD6E20EE06F03750D9263850DA22000E37
:101A4800DE6E000EDD6E380E3724126E000E382062
:101A5800136E20EE04F03750D9263850DA22DECF44
:101A680014F0DDCF15F020EE06F03750D9263850A7
:101A7800DA22DECF16F0DDCF17F03BEC1DF00009BF
:101A8800D8B449EF0DF04BEF0DF0B2EF0EF0000EA9
:101A9800186E060EDEEC24F020EE04F03750D9263E
:101AA8003850DA22000EDE6E000EDD6E20EE06F0F3
:101AB8003750D9263850DA22000EDE6E000EDD6E61
:101AC800B2EF0EF0980E3724126E000E3820136E07
:101AD80020EE04F03750D9263850DA22DECF14F041
:101AE800DDCF15F020EE06F03750D9263850DA222F
:101AF800DECF16F0DDCF17F0CCEC1CF00009D8B41F
:101B080088EF0DF08AEF0DF0ACEF0DF037C018F04C
:101B180038C019F037EC08F0980E3724276E000EFD
:101B28003820286ECCEC05F020EE04F03750D9268A
:101B38003850DA22000EDE6E000EDD6E20EE06F062
:101B48003750D9263850DA22000EDE6E000EDD6ED0
:101B5800500E3724126E000E3820136E20EE04F05B
:101B68003750D9263850DA22DECF14F0DDCF15F001
:101B780020EE06F03750D9263850DA22DECF16F09C
:101B8800DDCF17F03BEC1DF00009D8B4CEEF0DF017
:101B9800D0EF0DF0B2EF0EF0000E186E080EDEEC6E
:101BA80024F020EE04F03750D9263850DA22000EFF
:101BB800DE6E000EDD6E20EE06F03750D926385066
:101BC800DA22000EDE6E000EDD6EB2EF0EF0680E49
:101BD8003724126E000E3820136E20EE04F03750B2
:101BE800D9263850DA22DECF14F0DDCF15F020EEFA
:101BF80006F03750D9263850DA22DECF16F0DDCF7E
:101C080017F03BEC1DF00009D8B40DEF0EF00FEF04
:101C18000EF033EF0EF020EE04F03750D92638508E
:101C2800DA22000EDE6E000EDD6E20EE06F0375072
:101C3800D9263850DA22000EDE6E000EDD6EB90E9F
:101C48003724256E000E3820266E000E286E080EEA
:101C5800276E000E2A6E000E296ED5EC17F0800E46
:101C68003724126E000E3820136E20EE04F0375021
:101C7800D9263850DA22DECF14F0DDCF15F020EE69
:101C880006F03750D9263850DA22DECF16F0DDCFED
:101C980017F03BEC1DF00009D8B455EF0EF057EFE4
:101CA8000EF07BEF0EF020EE04F03750D9263850B6
:101CB800DA22000EDE6E000EDD6E20EE06F03750E2
:101CC800D9263850DA22000EDE6E000EDD6EB90E0F
:101CD8003724256E000E3820266E000E286E080E5A
:101CE800276E000E2A6E010E296ED5EC17F0B90E7C
:101CF8003724256E000E3820266E2DEC22F0680E53
:101D08003724256E000E3820266ECAEC14F0800E9B
:101D18003724256E000E3820266ECAEC14F0B2EF78
:101D28000EF04D50396E3A6A3A50000AD8B49FEF17
:101D38000EF0B2EF0EF03950000AD8B4ADEF0CF047
:101D4800010AD8B466EF0DF0030AD8B4EBEF0DF032
:101D5800010AD8B4B2EF0EF0B2EF0EF012002BC0A9
:101D6800D9FF2CC0DAFF0B0EDE6E000EDD6E676841
:101D780020EE02F02B50D9262C50DA22000EDE6E0F
:101D8800000EDD6E20EE04F02B50D9262C50DA22FE
:101D9800000EDE6E000EDD6E20EE06F02B50D9260A
:101DA8002C50DA22000EDE6E000EDD6EB10E2B24F2
:101DB800126E000E2C20136E7EEC26F0B90E2B242A
:101DC800126E000E2C20136E000E156E000E146E8F
:101DD800AAEC1DF0C30E2B24126E000E2C20136EDD
:101DE800000E156E010E146EAAEC1DF0000E136E97
:101DF800820E126E000E156E320E146E000E176EE5
:101E08005A0E166E000E196E140E186EFF0E1B6E0B
:101E18001A68000E1D6E000E1C6EAB0E1E6E7F0E35
:101E28001F6E990E206E7F0E216E000E226E000E20
:101E3800236E000E246E000E256E000E266E000E18
:101E4800276E080E2B24286E000E2C20296E010EFA
:101E58002A6ED8EC1BF0000E136E0A0E126E000EDE
:101E6800156EFA0E146E000E176E460E166E000EE4
:101E7800196E140E186EFF0E1B6E1A68000E1D6E7A
:101E8800000E1C6EC00E1E6E7F0E1F6E990E206E09
:101E98007F0E216E000E226E000E236E000E246E41
:101EA800000E256E000E266E000E276E200E2B24C7
:101EB800286E000E2C20296E020E2A6ED8EC1BF01C
:101EC800000E136E960E126E000E156EFA0E146E3C
:101ED800000E176E460E166E000E196E140E186E52
:101EE800FF0E1B6E1A68000E1D6E000E1C6EC90ECA
:101EF8001E6E7F0E1F6E990E206E7F0E216E000ED5
:101F0800226E000E236E000E246E000E256E000E4B
:101F1800266E000E276E380E2B24286E000E2C20FD
:101F2800296E030E2A6ED8EC1BF0000E136E820E7B
:101F3800126E000E156E320E146E000E176E5A0ECB
:101F4800166E000E196E140E186EFF0E1B6E1A68B0
:101F5800000E1D6E000E1C6EDA0E1E6E7F0E1F6EBA
:101F6800990E206E7F0E216E000E226E000E236EDB
:101F7800000E246E000E256E000E266E000E276ED3
:101F8800500E2B24286E000E2C20296E040E2A6E6B
:101F9800D8EC1BF0000E136E0A0E126E000E156EB2
:101FA800DC0E146E000E176E460E166E000E196EBD
:101FB800320E186E000E1B6E000E1A6EFF0E1D6E8E
:101FC8001C68F50E1E6E7F0E1F6E990E206E7F0E1A
:101FD800216E000E226E000E236E000E246E000E7F
:101FE800256E000E266E000E276E680E2B24286EB6
:101FF800000E2C20296E050E2A6ED8EC1BF0000E60
:10200800136E960E126E000E156EDC0E146E000E18
:10201800176E460E166E000E196E320E186E000EF2
:102028001B6E000E1A6EFF0E1D6E1C68F90E1E6EDA
:102038007F0E1F6E990E206E7F0E216E000E226E8F
:10204800000E236E000E246E000E256E000E266E06
:10205800000E276E800E2B24286E000E2C20296E71
:10206800060E2A6ED8EC1BF0000E136E320E126E9E
:10207800000E156E640E146E000E176EA50E166E09
:10208800000E196E140E186E000E1B6E000E1A6EDE
:10209800FF0E1D6E1C68F80E1F6E000E1E6E000EE1
:1020A800216E000E206E000E236E0B0E226E000EA7
:1020B800246E000E256E980E2B24266E000E2C2002
:1020C800276E55EC1CF012001C50216E1BC022F02C
:1020D8001250165C13501758D8B075EF10F077EF00
:1020E80010F083EF10F012C01FF013C020F016C0DC
:1020F80012F017C013F01FC016F020C017F01450CC
:10210800185C15501958D8B08CEF10F08EEF10F0FD
:102118009AEF10F014C01FF015C020F018C014F08A
:1021280019C015F01FC018F020C019F01A04D8A45F
:10213800A0EF10F0A2EF10F004EF11F02A0E806E5D
:102148008B988B968B868B881350806E8B968B869C
:1021580012C080FF8B968B861750806E8B968B866D
:1021680016C080FF8B968B862B0E806E8B988B9675
:102178008B868B881550806E8B968B8614C080FF5B
:102188008B968B86010E806E8B968B863F0E806EAB
:102198008B968B862C0E806E8B988B968B868B8875
:1021A80012C023F013C024F0F7EF10F014C01DF094
:1021B80015C01EF0EAEF10F021C080FF8B968B86C9
:1021C80022C080FF8B968B861D4A1E2A1D50185CE4
:1021D8001E501958D8B0F3EF10F0F5EF10F0E0EFFB
:1021E80010F0234A242A2350165C24501758D8B0DC
:1021F80000EF11F002EF11F0DAEF10F004EF12F037
:102208002A0E806E8B988B968B868B881350806EE7
:102218008B968B8612C080FF8B968B861750806EAC
:102228008B968B8616C080FF8B968B862B0E806EC6
:102238008B988B968B868B881550806E8B968B86A9
:1022480014C080FF8B968B86010E806E8B968B86D2
:102258003F0E806E8B968B862C0E806E8B988B969D
:102268008B868B8812C023F013C024F046EF11F040
:1022780021C080FF8B968B8622C080FF8B968B8631
:10228800234A242A2350165C24501758D8B04FEFFD
:1022980011F051EF11F03CEF11F02B0E806E8B987E
:1022A8008B968B868B881950806E8B968B8618C080
:1022B80080FF8B968B862C0E806E8B988B968B86E8
:1022C8008B8812C023F013C024F075EF11F021C0E1
:1022D80080FF8B968B8622C080FF8B968B86234A45
:1022E800242A2350165C24501758D8B07EEF11F0DA
:1022F80080EF11F06BEF11F02A0E806E8B988B96A1
:102308008B868B881350806E8B968B8612C080FFCD
:102318008B968B861350806E8B968B8612C080FFAF
:102328008B968B862B0E806E8B988B968B868B88E4
:102338001550806E8B968B8614C080FF8B968B868B
:10234800010E806E8B968B863F0E806E8B968B86E9
:102358002C0E806E8B988B968B868B8814C023F0FE
:1023680015C024F0C2EF11F021C080FF8B968B8638
:1023780022C080FF8B968B86234A242A2350185C20
:1023880024501958D8B0CBEF11F0CDEF11F0B8EFB9
:1023980011F02A0E806E8B988B968B868B8817503F
:1023A800806E8B968B8616C080FF8B968B86175017
:1023B800806E8B968B8616C080FF8B968B862C0E34
:1023C800806E8B988B968B868B8814C023F015C0F3
:1023D80024F0F9EF11F021C080FF8B968B8622C084
:1023E80080FF8B968B86234A242A2350185C24501E
:1023F8001958D8B002EF12F004EF12F0EFEF11F015
:1024080012002FC068F030C069F031C06AF032C0E5
:102418006BF033C06CF034C06DF035C06EF036C070
:102428006FF000016FBF1BEF12F01EEF12F0010EEC
:102438001FEF12F0000E666F676B66516711D8B414
:1024480028EF12F02AEF12F03AEF12F06F1F6E1F0A
:102458006D1F6C1F6B1F6A1F691F686D000E692353
:102468006A236B236C236D236E236F234ABE3FEFD1
:1024780012F041EF12F042EF12F04B924ABE4FEFCA
:1024880012F04A5006E14904D8B04DEF12F04FEF70
:1024980012F055EF12F0000E636F010E626F59EFE4
:1024A80012F049C062F04AC063F047C064F048C007
:1024B80065F066516711D8A464EF12F066EF12F068
:1024C8006DEF12F04BA46BEF12F06DEF12F070EF9E
:1024D80012F06407D8A06507000E716F1F0E706FA9
:1024E800000EFF6FF5EF12F07007D8A07107E00E2D
:1024F8007025D96E000E7121DA6E68C012F069C0BD
:1025080013F06AC014F06BC015F06CC016F06DC003
:1025180017F06EC018F06FC019F00A0E1A6E000E90
:102528001B6E000E1C6E000E1D6E000E1E6E000E41
:102538001F6E000E206E000E216E6DEC19F012C099
:1025480037F013C038F014C039F015C03AF016C08F
:102558003BF017C03CF018C03DF019C03EF037C042
:1025680024F039C025F010EC27F02450300FDF6E2E
:1025780000016207D8A063076407D8A0650768C090
:1025880012F069C013F06AC014F06BC015F06CC08B
:1025980016F06DC017F06EC018F06FC019F00A0E73
:1025A8001A6E000E1B6E000E1C6E000E1D6E000EC5
:1025B8001E6E000E1F6E000E206E000E216EA9EC1E
:1025C80018F012C068F013C069F014C06AF015C0A2
:1025D8006BF016C06CF017C06DF018C06EF019C023
:1025E8006FF0000171BF01EF13F0715108E1700540
:1025F800D8A001EF13F003EF13F033EF13F0685195
:1026080069116A116B116C116D116E116F11D8A4DB
:1026180010EF13F012EF13F078EF12F063BF1FEF13
:1026280013F0635106E16205D8B01DEF13F01FEFF8
:1026380013F078EF12F065BF2AEF13F0655108E147
:102648006405D8A02AEF13F02CEF13F033EF13F042
:102658004BB231EF13F033EF13F078EF12F066510D
:102668006711D8A43AEF13F03CEF13F043EF13F0DF
:102678004BA441EF13F043EF13F061EF13F0700731
:10268800D8A0710766516711D8A44DEF13F04FEF2A
:1026980013F055EF13F0000E616F2B0E606F59EFBA
:1026A80013F0000E616F2D0E606FE00E7025D96E6D
:1026B800000E7121DA6E60C0DFFF2DC022F02EC03F
:1026C80023F0E00E7025246E000E7121256E64C083
:1026D80026F065C027F0A5EC1FF022C02DF023C01E
:1026E8002EF01200D1EC22F0110E806E8B988B9692
:1026F8008B868B88000E186ED00E176ECA0EE82EC9
:10270800FED7172EFCD7182A090E18648EEF13F07F
:1027180090EF13F080EF13F0360E806E8B988B9647
:102728008B868B88000E806E8B968B863A0E806E19
:102738008B988B968B868B88550E806E8B968B86A6
:10274800B20E806E8B988B968B868B880C0E806E63
:102758008B968B860C0E806E8B968B86330E806ED6
:102768008B968B86330E806E8B968B86B70E806E1B
:102778008B988B968B868B88350E806E8B968B8686
:10278800BB0E806E8B988B968B868B882B0E806EFB
:102798008B968B86C00E806E8B988B968B868B88DB
:1027A8002C0E806E8B968B86C20E806E8B988B96C5
:1027B8008B868B88010E806E8B968B8680688B96B5
:1027C8008B86C30E806E8B988B968B868B88110EAA
:1027D800806E8B968B86C40E806E8B988B968B86BC
:1027E8008B88200E806E8B968B86C60E806E8B989B
:1027F8008B968B868B88090E806E8B968B86D00E77
:10280800806E8B988B968B868B88A40E806E8B96A9
:102818008B86A10E806E8B968B86E00E806E8B98D1
:102828008B968B868B88D00E806E8B968B86000E4F
:10283800806E8B968B86050E806E8B968B860E0E21
:10284800806E8B968B86150E806E8B968B860D0E02
:10285800806E8B968B86370E806E8B968B86430E9A
:10286800806E8B968B86470E806E8B968B86090EB4
:10287800806E8B968B86150E806E8B968B86120ECD
:10288800806E8B968B86160E806E8B968B86190EB5
:10289800806E8B968B86E10E806E8B988B968B86DE
:1028A8008B88D00E806E8B968B86000E806E8B96F2
:1028B8008B86050E806E8B968B860D0E806E8B96A2
:1028C8008B860C0E806E8B968B86060E806E8B9692
:1028D8008B862D0E806E8B968B86440E806E8B9623
:1028E8008B86400E806E8B968B860E0E806E8B9636
:1028F8008B861C0E806E8B968B86180E806E8B9640
:102908008B86160E806E8B968B86190E806E8B9634
:102918008B862A0E806E8B988B968B868B88000E02
:10292800806E8B968B86000E806E8B968B86000E43
:10293800806E8B968B86EF0E806E8B968B862B0E19
:10294800806E8B988B968B868B88000E806E8B960C
:102958008B86000E806E8B968B86010E806E8B9612
:102968008B863F0E806E8B968B86260E806E8B989C
:102978008B968B868B88010E806E8B968B86290EA4
:10298800806E8B988B968B868B88120025C0D9FF1A
:1029980026C0DAFFDECF33F0DDCF34F020EE04F0CE
:1029A8002550D9262650DA22DECF27F0DDCF28F0B1
:1029B80025C0D9FF26C0DAFFDECF29F0DDCF2AF007
:1029C800275029242F6E28502A20306E20EE02F03E
:1029D8002550D9262650DA22DECF31F0DDCF32F06D
:1029E80020EE06F02550D9262650DA22DECF27F031
:1029F800DDCF28F020EE02F02550D9262650DA2225
:102A0800DECF29F0DDCF2AF027502924356E285053
:102A18002A20366E20EE10F02550D9262650DA22CC
:102A2800DF50D8A41AEF15F01CEF15F032EF15F0AF
:102A380020EE08F02550D9262650DA22DECF2BF0DA
:102A4800DDCF2CF020EE0AF02550D9262650DA22C8
:102A5800DECF2DF0DDCF2EF04CEF15F033C012F0A5
:102A680034C013F0010E3524146E000E3620156E96
:102A78001FEC1AF012C02BF013C02CF020EE08F057
:102A88002550D9262650DA22DECF2DF0DDCF2EF0C4
:102A980020EE08F02550D9262650DA2210EE0AF04A
:102AA8002550E1262650E222DE50E61809E1DE50E4
:102AB800E618D8B462EF15F064EF15F0E4EF15F0FE
:102AC800030E3324126E000E3420136E010E3524CB
:102AD800146E000E3620156E030E2F24166E000E8F
:102AE8003020176E030E3524186E000E3620196E2E
:102AF800010E1A6E2BC01BF02CC01CF068EC10F0F5
:102B0800010E2F24126E000E3020136E030E312496
:102B1800146E000E3220156E030E2F24166E000E52
:102B28003020176E030E3524186E000E3620196EED
:102B3800010E1A6E2BC01BF02CC01CF068EC10F0B4
:102B4800010E3324126E000E3420136E010E312450
:102B5800146E000E3220156EFF0E2F24166EFF0E17
:102B68003020176E020E3124186E000E3220196EB6
:102B7800010E1A6E2DC01BF02EC01CF068EC10F070
:102B8800010E3324126E000E3420136E010E312410
:102B9800146E000E3220156E020E3324166E000ECF
:102BA8003420176EFF0E3524186EFF0E3620196E6E
:102BB800010E1A6E2DC01BF02EC01CF068EC10F030
:102BC8001200E4EF16F0BCEC27F0FAEF16F0000E56
:102BD80055EC26F0C2B2F3EF15F0F5EF15F0EEEF75
:102BE80015F0C4500001936F926BC3509225AE6FDD
:102BF800000E9321AF6FAE512008AE6FAF51D8A031
:102C0800E82A0308AF6FAF5109E1960EAE5DD8A070
:102C180010EF16F012EF16F027EF16F06A0E926F0B
:102C2800FF0E936FAEC094F0AFC095F09251942709
:102C380093519523D8909531966F9431AE6F96C085
:102C4800AFF02BEF16F0000EAF6F000EAE6F010E57
:102C580055EC26F0C2B233EF16F035EF16F02EEF32
:102C680016F0C4500001936F926BC3509225AC6F5D
:102C7800000E9321AD6FAD5109E17D0EAC5DD8A07A
:102C880048EF16F04AEF16F05FEF16F0830E926FDA
:102C9800FF0E936FACC094F0ADC095F0925194279D
:102CA80093519523D8909531966F9431AC6F96C017
:102CB800ADF063EF16F0000EAD6F000EAC6F000EB6
:102CC800146E010E136E040E156E000E166E35ECA2
:102CD80024F0290EC26EBCEC27F0F090F08681B289
:102CE80078EF16F07AEF16F0FAEF16F0980E00016A
:102CF800826F000E836FE90E846F7F0E856FAEC002
:102D080086F0AFC087F02CEC26F0980E206E000EEF
:102D1800216E990E226E7F0E236E010E246E000E18
:102D2800266EC80E256E000E286EC80E276E000E81
:102D38002A6E000E296EFF0E2C6E2B6886EC0AF0A8
:102D480090C012F091C013F0AEC014F0AFC015F0EF
:102D5800D5EC27F0980E0001826F000E836FEF0EFE
:102D6800846F7F0E856FACC086F0ADC087F02CEC09
:102D780026F0980E206E000E216E990E226E7F0EA0
:102D8800236E010E246E000E266EC80E256E000EF0
:102D9800286EFA0E276E000E2A6E000E296EFF0EA0
:102DA8002C6E2B6886EC0AF090C012F091C013F0DC
:102DB800ACC014F0ADC015F0CAEC27F0FAEF16F06D
:102DC8000001DE51926F936B9351000AD8B4EFEF74
:102DD80016F0FAEF16F09251000AD8B4E7EF15F0A2
:102DE800010AD8B4EBEF15F0FAEF16F0120041C063
:102DF800D9FF42C0DAFFDECFF6FFDDCFF7FF0800CC
:102E0800F550250AD8A40BEF17F00DEF17F0B9EF1E
:102E180017F041C0D9FF42C0DAFFDE2A000EDD22DA
:102E2800000E486E000E476E47C04BF048C04CF08D
:102E380049684A6841C0D9FF42C0DAFFDECFF6FFD1
:102E4800DDCFF7FF0800F550640AD8B42EEF17F06D
:102E580030EF17F042EF17F041C0D9FF42C0DAFF58
:102E6800DECFF6FFDDCFF7FF0800F550690AD8A4DA
:102E780040EF17F042EF17F083EF17F041C0D9FF8A
:102E880042C0DAFFDE2A000EDD2243C0D9FF44C06B
:102E9800DAFFDFCF45F0020EDE26DFCF46F0000E68
:102EA800DD2245C0D9FF46C0DAFFDECF72F0DDCFA4
:102EB80073F00001000E73BFFF0E746F756F766FAD
:102EC800776F786F796F3FC02DF040C02EF072C0D9
:102ED8002FF073C030F074C031F075C032F076C096
:102EE80033F077C034F078C035F079C036F005ECAF
:102EF80012F02DC03FF02EC040F0D4EF17F041C0C3
:102F0800D9FF42C0DAFFDECFF6FFDDCFF7FF0800BA
:102F1800F550250AD8A493EF17F095EF17F0ACEF0A
:102F280017F041C0D9FF42C0DAFFDE2A000EDD22C9
:102F3800000E136E250E126E3FC014F040C015F03F
:102F480016EC1EF0000E406E010E3F6ED4EF17F027
:102F580041C0D9FF42C0DAFFDE2A000EDD22000E92
:102F6800406E000E3F6ED4EF17F041C0D9FF42C04B
:102F7800DAFFDECFF6FFDDCFF7FF0800F550126E5F
:102F8800136A3FC014F040C015F016EC1EF041C0A3
:102F9800D9FF42C0DAFFDE2A000EDD22A6EF17F0C5
:102FA800120025C0D9FF26C0DAFFDECF12F0DDCF30
:102FB80013F020EE02F02550D9262650DA22DECF73
:102FC80014F0DDCF15F020EE04F02550D926265058
:102FD800DA22DECF2BF0DDCF2CF025C0D9FF26C0BA
:102FE800DAFFDECF2DF0DDCF2EF02B502D24166E1C
:102FF8002C502E20176E20EE06F02550D92626508C
:10300800DA22DECF2FF0DDCF30F020EE02F02550AF
:10301800D9262650DA22DECF31F0DDCF32F02F501C
:103028003124186E30503220196E010E1A6EFF0EC0
:103038001C6E1B6868EC10F029042A10D8A427EF2E
:1030480018F029EF18F07AEF18F025C0D9FF26C03C
:10305800DAFFDECF2BF0DDCF2CF027502B262850BF
:103068002C2225C0D9FF26C0DAFF2BC0DEFF2CC0DA
:10307800DDFF20EE04F02550D9262650DA22DECFD7
:103088002BF0DDCF2CF025C0D9FF26C0DAFFDECF2C
:103098002DF0DDCF2EF02B502D262C502E222E5029
:1030A80009E1F00E2D5CD8A05CEF18F05EEF18F087
:1030B800A8EF18F020EE04F02550D9262650DA2281
:1030C800DECF2BF0DDCF2CF0EF0E2D6E000E2E6E26
:1030D8002B502D5E2C502E5A25C0D9FF26C0DAFF62
:1030E8002DC0DEFF2EC0DDFFA8EF18F025C0D9FFE8
:1030F80026C0DAFF010EDB5007E1090EDE5CD8B00E
:1031080088EF18F08AEF18F094EF18F025C0D9FF6F
:1031180026C0DAFF000EDE6E000EDD6EA8EF18F096
:1031280025C0D9FF26C0DAFFDECF2BF0DDCF2CF08B
:1031380027502B5E28502C5A25C0D9FF26C0DAFF0D
:103148002BC0DEFF2CC0DDFF1200000E236E21BE57
:10315800B2EF18F0B0EF18F0C4EF18F0211E201EDF
:103168001F1E1E1E1D1E1C1E1B1E1A6C000E1B225F
:103178001C221D221E221F2220222122010E236E24
:1031880019BECBEF18F0C9EF18F0DDEF18F0191ED3
:10319800181E171E161E151E141E131E126C000E66
:1031A8001322142215221622172218221922010E80
:1031B800231A20EE24F0070EDE6AE806FDE21A5014
:1031C8001B101C101D101E101F1020102110D8B429
:1031D800F0EF18F0F2EF18F044EF19F0010E226E3C
:1031E80000EF19F0D8901A361B361C361D361E36DD
:1031F8001F3620362136222A21AE05EF19F007EFB7
:1032080019F0F6EF18F0D8902436253626362736EA
:10321800283629362A362B361A50125C1B5013587A
:103228001C5014581D5015581E5016581F5017582A
:103238002050185821501958D8A025EF19F027EF19
:1032480019F038EF19F01A50125E1B50135A1C501F
:10325800145A1D50155A1E50165A1F50175A2050EE
:10326800185A2150195A2480D890213220321F32FE
:103278001E321D321C321B321A32222E07EF19F071
:103288002350D8B44AEF19F04CEF19F05CEF19F05D
:103298002B1E2A1E291E281E271E261E251E246CAC
:1032A800000E252226222722282229222A222B2202
:1032B80024C012F025C013F026C014F027C015F062
:1032C80028C016F029C017F02AC018F02BC019F032
:1032D8001200000E236E19BE76EF19F074EF19F084
:1032E80088EF19F0191E181E171E161E151E141E1B
:1032F800131E126C000E13221422152216221722F6
:1033080018221922010E236E21BE8FEF19F08DEFBE
:1033180019F09FEF19F0211E201E1F1E1E1E1D1ED4
:103328001C1E1B1E1A6C000E1B221C221D221E2294
:103338001F22202221221A501B101C101D101E10A3
:103348001F1020102110D8B4ACEF19F0AEEF19F00F
:10335800F6EF19F0010E226EBCEF19F0D8901A366C
:103368001B361C361D361E361F3620362136222ABD
:1033780021AEC1EF19F0C3EF19F0B2EF19F01A50EE
:10338800125C1B5013581C5014581D5015581E50D1
:1033980016581F5017582050185821501958D8A09F
:1033A800D8EF19F0DAEF19F0EAEF19F01A50125EB7
:1033B8001B50135A1C50145A1D50155A1E50165A99
:1033C8001F50175A2050185A2150195AD890213294
:1033D80020321F321E321D321C321B321A32222E6C
:1033E800C3EF19F02350D8B4FCEF19F0FEEF19F031
:1033F8000EEF1AF0191E181E171E161E151E141E83
:10340800131E126C000E13221422152216221722E4
:103418001822192212C012F013C013F014C014F0AD
:1034280015C015F016C016F017C017F018C018F020
:1034380019C019F012002A0E806E8B988B968B8615
:103448008B881350806E8B968B8612C080FF8B966C
:103458008B86000E806E8B968B86EF0E806E8B9619
:103468008B862B0E806E8B988B968B868B8815504F
:10347800806E8B968B8614C080FF8B968B86010E90
:10348800806E8B968B863F0E806E8B968B862E0E6B
:10349800806E8B988B968B868B8892688B9400F0C5
:1034A8008B8492688B9400F080CF1AF01B6A8B840F
:1034B8001AC016F01BC017F0D89017321632D890E1
:1034C80017321632D8901732163216C01AF017C0B3
:1034D8001BF01AC016F01BC017F00B0ED89016364A
:1034E8001736E82E72EF1AF016C018F017C019F048
:1034F8008B9400F080CF1AF01B6A8B841AC016F0E8
:103508001BC017F0D89017321632D89017321632DF
:1035180016C01AF017C01BF01AC016F01BC017F01F
:10352800050ED89016361736E82E95EF1AF0165075
:103538001812175019128B9400F080501A128B84AD
:103548001AC016F01BC017F0D89017321632D89050
:1035580017321632D8901732163216C01AF017C022
:103568001BF01A5018121B501912000E926E18C038
:1035780012F019C013F01200000E0D6E000E0C6E42
:103588000CC001F00DC002F0000E046E030E036EB5
:10359800A9EC27F0B70E0124D96E000E0220DA6ECE
:1035A800DF50D8B4DAEF1AF0DCEF1AF040EF1BF076
:1035B8000CC001F00DC002F0000E046E030E036E85
:1035C800A9EC27F0B50E0124D96E000E0220DA6EA0
:1035D800DE06000EDD5A0CC001F00DC002F0000E30
:1035E800046E030E036EA9EC27F0B50E0124D96E04
:1035F800000E0220DA6EDE50DE10D8A406EF1BF0B3
:1036080008EF1BF040EF1BF0010E076E0CC001F035
:103618000DC002F0000E046E030E036EA9EC27F035
:10362800B70E0124D96E000E0220DA6EDF5042EC8C
:1036380025F0E806D8A423EF1BF025EF1BF02CEFAC
:103648001BF0010E026E0C5030EC27F040EF1BF01F
:103658000CC001F00DC002F0000E046E030E036EE4
:10366800A9EC27F0B50E0124D96E000E0220DA6EFF
:10367800010EDE6E000EDD6E0C4A0D2A0DBE4EEFF9
:103688001BF00D5009E1080E0C5CD8A04EEF1BF0A2
:1036980050EF1BF0C4EF1AF0120037C0D9FF38C042
:1036A800DAFFDECF3DF0DDCF3EF020EE04F03750FC
:1036B800D9263850DA22DECF39F0DDCF3AF037C0DC
:1036C800D9FF38C0DAFFDECF3BF0DDCF3CF0395010
:1036D8003B243F6E3A503C20406E20EE02F03750BB
:1036E800D9263850DA22DECF41F0DDCF42F020EE85
:1036F80006F03750D9263850DA22DECF39F0DDCF40
:103708003AF020EE02F03750D9263850DA22DECFD0
:103718003BF0DDCF3CF039503B24436E3A503C201F
:10372800446E3DC012F03EC013F041C014F042C0D8
:1037380015F03FC016F040C017F043C018F044C061
:1037480019F0010E1A6E20EE0AF03750D9263850BB
:10375800DA22DECF1BF0DDCF1CF068EC10F03DC0A4
:1037680012F03EC013F041C014F042C015F03FC043
:1037780016F040C017F043C018F044C019F0000E0E
:103788001A6E20EE0CF03750D9263850DA22DECFE8
:103798001BF0DDCF1CF068EC10F037C027F038C004
:1037A80028F0CCEC05F0120028C0D9FF29C0DAFFB8
:1037B80012C0DEFF13C0DDFF20EE02F02850D9262C
:1037C8002950DA2214C0DEFF15C0DDFF20EE06F016
:1037D8002850D9262950DA2218C0DEFF19C0DDFF8B
:1037E80020EE04F02850D9262950DA2216C0DEFF30
:1037F80017C0DDFF20EE08F02850D9262950DA221C
:103808001AC0DEFF1BC0DDFF20EE0AF02850D926C3
:103818002950DA221CC0DEFF1DC0DDFF20EE0CF0AF
:103828002850D9262950DA221EC0DEFF1FC0DDFF2E
:1038380020EE0EF02850D9262950DA2220C0DEFFCB
:1038480021C0DDFF20EE11F02850D9262950DA22B8
:1038580022C0DEFF23C0DDFF20EE13F02850D9265A
:103868002950DA2224C0DEFF25C0DDFF20EE15F046
:103878002850D9262950DA2226C0DEFF27C0DDFFCE
:1038880020EE17F02850D9262950DA222AC0DFFF67
:1038980020EE10F02850D9262950DA22000EDF6ECB
:1038A800120026C0D9FF27C0DAFF12C0DEFF13C0FE
:1038B800DDFF20EE02F02650D9262750DA2214C068
:1038C800DEFF15C0DDFF20EE06F02650D926275072
:1038D800DA2218C0DEFF19C0DDFF20EE04F0265002
:1038E800D9262750DA2216C0DEFF17C0DDFF20EEEA
:1038F80008F02650D9262750DA221AC0DEFF1BC04E
:10390800DDFF20EE0AF02650D9262750DA221CC007
:10391800DEFF1DC0DDFF20EE0CF02650D926275013
:10392800DA221EC0DEFF1FC0DDFF20EE0EF026509B
:10393800D9262750DA2220C0DEFF21C0DDFF20EE85
:1039480017F02650D9262750DA2224C0DEFF25C0DA
:10395800DDFF20EE15F02650D9262750DA2222C0A6
:10396800DEFF23C0DDFF20EE11F02650D9262750B8
:10397800DA22000EDE6E000EDD6E20EE13F0265009
:10398800D9262750DA22000EDE6E000EDD6E1200F8
:1039980012C0D9FF13C0DAFFDE50145CDE50155890
:1039A800D8B0D9EF1CF0DBEF1CF0DEEF1CF0000EF6
:1039B8003AEF1DF020EE04F01250D9261350DA2207
:1039C800DECF18F0DDCF19F012C0D9FF13C0DAFF2F
:1039D800DECF1AF0DDCF1BF018501A2619501B2223
:1039E80014501A5C15501B58D8B0FDEF1CF0FFEFAF
:1039F8001CF001EF1DF0DBEF1CF020EE02F012507E
:103A0800D9261350DA22DE50165CDE501758D8B08B
:103A180010EF1DF012EF1DF014EF1DF0DBEF1CF09E
:103A280020EE06F01250D9261350DA22DECF18F015
:103A3800DDCF19F020EE02F01250D9261350DA2209
:103A4800DECF1AF0DDCF1BF018501A2619501B22B2
:103A580016501A5C17501B58D8B035EF1DF037EFC9
:103A68001DF039EF1DF0DBEF1CF0010E120012C043
:103A7800D9FF13C0DAFFDE50145CDE501558D8B0F9
:103A880048EF1DF04AEF1DF04DEF1DF0000EA9EFB5
:103A98001DF020EE04F01250D9261350DA22DECFA2
:103AA80018F0DDCF19F012C0D9FF13C0DAFFDECF4E
:103AB8001AF0DDCF1BF018501A2619501B2214508B
:103AC8001A5C15501B58D8B06CEF1DF06EEF1DF046
:103AD80070EF1DF04AEF1DF020EE02F01250D926CB
:103AE8001350DA22DE50165CDE501758D8B07FEF3C
:103AF8001DF081EF1DF083EF1DF04AEF1DF020EE61
:103B080006F01250D9261350DA22DECF18F0DDCF96
:103B180019F020EE02F01250D9261350DA22DECF27
:103B28001AF0DDCF1BF018501A2619501B22165018
:103B38001A5C17501B58D8B0A4EF1DF0A6EF1DF063
:103B4800A8EF1DF04AEF1DF0010E120014501510D9
:103B5800D8B4B1EF1DF0B3EF1DF0E5EF1DF012C0C2
:103B6800D9FF13C0DAFF5A0EDE6E000EDD6E20EEAE
:103B780002F01250D9261350DA22140EDE6E000E0F
:103B8800DD6E20EE04F01250D9261350DA22320EE0
:103B9800DE6E000EDD6E20EE06F01250D9261350B0
:103BA800DA22140EDE6E000EDD6E20EE08F01250E2
:103BB800D9261350DA221F0EDE6E000EDD6E15EFC9
:103BC8001EF012C0D9FF13C0DAFF5A0EDE6E000EC7
:103BD800DD6E20EE02F01250D9261350DA22180EAC
:103BE800DE6E010EDD6E20EE04F01250D926135061
:103BF800DA22320EDE6E000EDD6E20EE06F0125076
:103C0800D9261350DA22140EDE6E000EDD6E20EE79
:103C180008F01250D9261350DA221F0EDE6E000E5D
:103C2800DD6E120014501510D8B41DEF1EF01FEFF2
:103C38001EF028EF1EF014501510D8A426EF1EF021
:103C480028EF1EF02DEF1EF012502DEC28F07AEF21
:103C58001EF020EE04F01450D9261550DA22DE505A
:103C6800DE10D8B43AEF1EF03CEF1EF057EF1EF00E
:103C780020EE04F01450D9261550DA2210EE02F086
:103C88001450E1261550E222DE50E65CE650800A28
:103C98001A6EDE50800A1A58D8B055EF1EF057EF4A
:103CA8001EF07AEF1EF020EE02F01450D9261550BF
:103CB800DA22DECF16F0DDCF17F014C0D9FF15C019
:103CC800DAFFDECF18F0DDCF19F016501824D96EC0
:103CD80017501920DA6E12C0DFFF20EE02F01450E0
:103CE800D9261550DA22DE2A000EDD221200000144
:103CF800A46FC5EF1EF0050EA419D8B486EF1EF008
:103D080088EF1EF091EF1EF0060EA419D8A48FEFCD
:103D18001EF091EF1EF099EF1EF0020EDD6FA0C0AD
:103D28009EF0A1C09FF0A9EC24F0070E0001A41991
:103D3800D8A4A1EF1EF0A3EF1EF0DFEF1EF0010ED6
:103D4800DD6FA0C09EF0A1C09FF0A9EC24F0DFEFCA
:103D58001EF0080EA419D8A4B4EF1EF0B6EF1EF09A
:103D6800DFEF1EF0000EDD6FA5EF1EF0090EA4199F
:103D7800D8A4C1EF1EF0C3EF1EF0DFEF1EF0B6EFC0
:103D88001EF00001DD51A26FA36BA351000AD8B445
:103D9800D0EF1EF0DFEF1EF0A251000AD8B47FEF7B
:103DA8001EF0010AD8B4ADEF1EF0030AD8B4BAEF7A
:103DB8001EF0DFEF1EF012003F6E25EF1FF03BC034
:103DC80037F03CC038F0ABEC0CF0070E3F18D8A425
:103DD800F0EF1EF0F2EF1EF0F4EF1EF0010E4D6E44
:103DE800050E3F18D8A4FBEF1EF0FDEF1EF042EFC2
:103DF8001FF0020E4D6E42EF1FF03BC037F03CC083
:103E080038F0ABEC0CF0080E3F18D8A40EEF1FF0FA
:103E180010EF1FF042EF1FF0000E4D6E42EF1FF043
:103E2800040E3F18D8A41BEF1FF01DEF1FF042EF40
:103E38001FF03BC037F03CC038F0ABEC0CF042EF61
:103E48001FF04D503D6E3E6A3E50000AD8B42FEF29
:103E58001FF042EF1FF03D50000AD8B4E3EF1EF008
:103E6800010AD8B401EF1FF0030AD8B414EF1FF009
:103E7800010AD8B442EF1FF042EF1FF01200000E03
:103E8800176E15BE4CEF1FF04AEF1FF052EF1FF0F0
:103E9800146C151ED8B0152A010E176E13BE59EFF3
:103EA8001FF057EF1FF05FEF1FF0126C131ED8B012
:103EB800132A010E171A000E196E000E186E1450F0
:103EC8001510D8B46AEF1FF06CEF1FF094EF1FF0D5
:103ED800010E166E74EF1FF0D89014361536162A98
:103EE80015AE79EF1FF07BEF1FF070EF1FF0D89041
:103EF800183619361450125C15501358D8A087EF8D
:103F08001FF089EF1FF08EEF1FF01450125E15504E
:103F1800135A1880D89015321432162E7BEF1FF0E2
:103F28001750D8B49AEF1FF09CEF1FF0A0EF1FF0C6
:103F3800186C191ED8B0192A18C012F019C013F03D
:103F480012004BA0AAEF1FF0ACEF1FF0B6EF1FF066
:103F580024C01BF025C01CF022C01DF023C01EF099
:103F6800CCEC26F027BEBBEF1FF0BDEF1FF0C3EF70
:103F78001FF026C02BF027C02CF0C7EF1FF0000E53
:103F88002C6E000E2B6E000E2A6E000E296ED9EFD5
:103F98001FF0000E136E200E126E22C014F023C004
:103FA80015F016EC1EF0294A2A2A2B50295C2A50B3
:103FB800800A286E2C50800A2858D8A0E6EF1FF0F7
:103FC800E8EF1FF0CDEF1FF04BB0EDEF1FF0EFEF74
:103FD8001FF0F9EF1FF024C01BF025C01CF022C011
:103FE8001DF023C01EF0CCEC26F024C012F025C032
:103FF80013F0A5EC26F02B501224226E2C5013201F
:10400800236E12001350146E12C015F02A0E806E23
:104018008B988B968B868B88000E806E8B968B8602
:10402800000E806E8B968B86000E806E8B968B862C
:10403800EF0E806E8B968B862B0E806E8B988B96F0
:104048008B868B88000E806E8B968B86000E806E1A
:104058008B968B86010E806E8B968B863F0E806EBC
:104068008B968B862C0E806E8B988B968B868B8886
:10407800000E176E000E166E000E196E000E186EEA
:1040880014C080FF8B968B8615C080FF8B968B861D
:10409800184A192A195009E1F00E185CD8A057EFF0
:1040A80020F059EF20F044EF20F0164A172A400E6E
:1040B800165C010E1758D8A064EF20F066EF20F0C8
:1040C80040EF20F01200020E1224146E000E13208E
:1040D800156E14C0F6FF15C0F7FF0800F5CF16F0EF
:1040E800D8901632D8901632D89016321650186ECC
:1040F800196A010E1224146E000E1320156E14C0D6
:10410800F6FF15C0F7FF0800F5CF16F0D890163265
:10411800D890163216501A6E1B6A12C0F6FF13C0DA
:10412800F7FF0800F5CF14F0D8901432D890143265
:10413800D890143214501C6E1D6A1AC014F01BC09B
:1041480015F0050ED89014361536E82EA6EF20F097
:1041580018C016F019C017F00B0ED890163617367F
:10416800E82EB1EF20F014501612155017121C50FB
:1041780016101E6E1D5017101F6E1EC012F01FC0A5
:1041880013F01200000E216E000E206ECD0E2024BA
:10419800D96E000E2120DA6E000EDF6E204A212A29
:1041A80021BEE0EF20F0215009E10C0E205CD8A0E0
:1041B800E0EF20F0E2EF20F0CAEF20F0000E216ED1
:1041C800000E206E20C01AF021C01BF0000E1D6EDC
:1041D800030E1C6E96EC27F0B50E1A24D96E000E4D
:1041E8001B20DA6E000EDE6E000EDD6E20C01AF0A7
:1041F80021C01BF0000E1D6E030E1C6E96EC27F0FE
:10420800B70E1A24D96E000E1B20DA6E000EDF6E70
:10421800204A212A21BE1AEF21F0215009E1080E77
:10422800205CD8A01AEF21F01CEF21F0E6EF20F077
:10423800000E0001D96F000EDA6F12009B8C700E11
:10424800D36E090E0001A56F1E0EA46FE40EE82EB2
:10425800FED7A42FFCD7A52FFAD700F076EC13F0E1
:10426800000E136E1F0E126E06EC20F0B60E206EB6
:104278007F0E216E990E226E7F0E236E020E246E23
:10428800000E266E320E256E000E286E320E276E38
:10429800000E2A6E000E296EFF0E2C6E2B6886EC1F
:1042A8000AF0F28EF096860ED56EE70ED76E950E52
:1042B800D66EF28A9492BB686650F00B0C09666E53
:1042C8006768CF0E66169E92BA80BA92BA84A60E16
:1042D800C06EC6EC20F0000E2B6E010E2C6EB3ECF7
:1042E8000EF0000E0001A26F010EA36F82EC27F002
:1042F8001200000E176E13BE86EF21F084EF21F036
:104308008CEF21F0126C131ED8B0132A010E176E11
:1043180015BE93EF21F091EF21F097EF21F0146C87
:10432800151ED8B0152A14501510D8B49EEF21F0D8
:10433800A0EF21F0C4EF21F0010E166EA8EF21F0D6
:10434800D89014361536162A15AEADEF21F0AFEF1A
:1043580021F0A4EF21F01450125C15501358D8A086
:10436800B8EF21F0BAEF21F0BEEF21F01450125E41
:104378001550135AD89015321432162EAFEF21F07B
:104388001750D8B4CAEF21F0CCEF21F0D0EF21F0CC
:10439800126C131ED8B0132A12C012F013C013F0F7
:1043A8001200000E066E02BEDEEF21F0DCEF21F0F7
:1043B800E4EF21F0016C021ED8B0022A010E066E4D
:1043C80004BEEBEF21F0E9EF21F0EFEF21F0036CF1
:1043D800041ED8B0042A03500410D8B4F6EF21F014
:1043E800F8EF21F01CEF22F0010E056E00EF22F02D
:1043F800D89003360436052A04AE05EF22F007EFFD
:1044080022F0FCEF21F00350015C04500258D8A0C0
:1044180010EF22F012EF22F016EF22F00350015EA7
:104428000450025AD89004320332052E07EF22F0C6
:104438000650D8B422EF22F024EF22F028EF22F021
:10444800016C021ED8B0022A01C001F002C002F0BD
:10445800120025C0D9FF26C0DAFFDECF12F0DDCF6B
:1044680013F020EE02F02550D9262650DA22DECFAE
:1044780014F0DDCF15F020EE04F02550D926265093
:10448800DA22DECF27F0DDCF28F025C0D9FF26C0FD
:10449800DAFFDECF29F0DDCF2AF027502924166E67
:1044A80028502A20176E20EE06F02550D9262650CF
:1044B800DA22DECF2BF0DDCF2CF020EE02F02550F3
:1044C800D9262650DA22DECF2DF0DDCF2EF02B5064
:1044D8002D24186E2C502E20196E010E1A6E20EE07
:1044E80008F02550D9262650DA22DECF1BF0DDCF82
:1044F8001CF068EC10F01200166EB6EF22F0030EF6
:104508001618D8A48AEF22F08CEF22F0D0EF22F010
:10451800010EDF6F4EEC27F0D0EF22F0030E1618D5
:10452800D8A499EF22F09BEF22F09FEF22F0020E21
:10453800DF6F4EEC27F01604D8A4A5EF22F0A7EF02
:1045480022F0D0EF22F0000E0001DF6F8EEF22F094
:104558001604D8A4B2EF22F0B4EF22F0D0EF22F084
:10456800A7EF22F00001DF51146E156A1550000AFA
:10457800D8B4C1EF22F0D0EF22F01450000AD8B41A
:1045880083EF22F0010AD8B492EF22F0030AD8B4DC
:10459800ACEF22F0D0EF22F01200949A9494949603
:1045A8009498000E926E8B9A8B848B868B88000E63
:1045B800136E000E146E000E156E000E166ED00EE1
:1045C800126ECA0EE82EFED7122EFCD7010E132645
:1045D800000E14221522162216501510141009E187
:1045E8000C0E135CD8A0FBEF22F0FDEF22F0E3EFF6
:1045F80022F0000E136E000E146E000E156E000EE3
:10460800166ED00E126ECA0EE82EFED7122EFCD7EA
:10461800010E1326000E142215221622165015100C
:10462800141009E10C0E135CD8A01DEF23F01FEF46
:1046380023F005EF23F01200FF0E136E126806EC4C
:1046480020F0E20E206E7F0E216E990E226E7F0EF4
:10465800236E020E246E000E266E320E256E000E9C
:10466800286E320E276E000E2A6E000E296EFF0E7F
:104678002C6E2B6886EC0AF0800E00019C257C6F5E
:10468800000E9D217D6F55EC03F0680E00019C25FE
:104698007C6F000E9D217D6F55EC03F0B90E000173
:1046A8009C25256E000E9D21266E2DEC22F0C30E52
:1046B80000019C25256E000E9D21266E2DEC22F012
:1046C800B10E00019C25426E000E9D21436ED5EC73
:1046D80025F012000001B46FA1EF23F0B405D8A4AF
:1046E80078EF23F07AEF23F0B7EF23F0010EDE6FB7
:1046F800B0C090F0B1C091F0E5EC15F0B7EF23F041
:10470800020EB419D8A48BEF23F08DEF23F095EFA8
:1047180023F0000EDE6FB0C090F0B1C091F0E5EC70
:1047280015F0040E0001B419D8A49DEF23F09FEFF3
:1047380023F0B7EF23F07CEF23F00001DE51B26FD6
:10474800B36BB351000AD8B4ACEF23F0B7EF23F042
:10475800B251000AD8B472EF23F0010AD8B484EF3A
:1047680023F0B7EF23F01200FF0E136E126806EC69
:1047780020F0A00E206E7F0E216E990E226E7F0E05
:10478800236E020E246E000E266E320E256E000E6B
:10479800286E320E276E000E2A6E000E296EFF0E4E
:1047A8002C6E2B6886EC0AF0500E00019C257C6F5D
:1047B800000E9D217D6F55EC03F09CC0D9FF9DC074
:1047C800DAFF000110EEA9F09C51E1269D51E2228A
:1047D800DECFE6FFDDCFE5FF980E9C25376E000E95
:1047E8009D21386E51EC1BF01200FF0E136E1268FB
:1047F80006EC20F0D20E206E7F0E216E990E226EEE
:104808007F0E236E020E246E000E266E320E256E6B
:10481800000E286E320E276E000E2A6E000E296ECC
:10482800FF0E2C6E2B6886EC0AF0080E00019C2502
:104838007C6F000E9D217D6F55EC03F0200E00016A
:104848009C257C6F000E9D217D6F55EC03F0380E82
:1048580000019C257C6F000E9D217D6F55EC03F0B7
:1048680012001650EBEC27F0000E176E1750030DD0
:10487800B70EF324D96E000EF420DA6EDF50D8A4F8
:1048880048EF24F04AEF24F062EF24F01750030DAC
:10489800B50EF324D96E000EF420DA6E13C0DEFFD5
:1048A80014C0DDFF1750030DB70EF324D96E000EA8
:1048B800F420DA6E15C0DFFF6BEF24F0172A070E1D
:1048C800176469EF24F06BEF24F03AEF24F01650E8
:1048D800E0EC27F01200000E266E000E256E225026
:1048E8002310D8B47AEF24F07CEF24F0A4EF24F05E
:1048F800010E246E84EF24F0D89022362336242A21
:1049080023AE89EF24F08BEF24F080EF24F0D890C9
:10491800253626362250205C23502158D8A097EF00
:1049280024F099EF24F09EEF24F02250205E2350CB
:10493800215A2580D89023322232242E8BEF24F05E
:1049480025C020F026C021F01200C3EF24F09EC03D
:104958009CF09FC09DF0F9EC23F0DDEF24F09EC0A1
:104968009CF09FC09DF0B8EC23F0DDEF24F09EC0D2
:104978009CF09FC09DF020EC23F0DDEF24F00001B7
:10498800DD51456E466A4650000AD8B4CEEF24F091
:10499800DDEF24F04550000AD8B4ABEF24F0010A4B
:1049A800D8B4B3EF24F0030AD8B4BBEF24F0DDEF9A
:1049B80024F01200196E1850EBEC27F0010E0001DC
:1049C800D925126E136A000E1322000E156E0C0EF6
:1049D800146E7DEC21F012501A6E1A500001DA198B
:1049E800D8A4F9EF24F0FBEF24F001EF25F01850DC
:1049F800E0EC27F0000E0FEF25F0CD0ED925D96E8B
:104A0800DA6A000EDA2219C0DFFF1AC0D9F018508E
:104A1800E0EC27F0010E120014501510D8B417EF6F
:104A280025F019EF25F03DEF25F0010E166E21EF68
:104A380025F0D89014361536162A15AE26EF25F02F
:104A480028EF25F01DEF25F01450125C155013586F
:104A5800D8A031EF25F033EF25F037EF25F01450CB
:104A6800125E1550135AD89015321432162E28EFAC
:104A780025F012C012F013C013F01200086E075090
:104A880001EC28F0010E0001D925016E026A000E22
:104A98000222000E046E0C0E036ED5EC21F00150BC
:104AA800096E09500001DA19D8A45DEF25F05FEF0F
:104AB80025F065EF25F00750F6EC27F0000E73EFB0
:104AC80025F0CD0ED925D96EDA6A000EDA2208C093
:104AD800DFFF09C0D9F00750F6EC27F0010E1200ED
:104AE8007CC080F07DC081F0000E0001DC6F000EFC
:104AF800DB6F92EF25F07AC03FF07BC040F0800E6C
:104B0800416E000E426E7EC043F07FC044F0FBEC65
:104B180016F03F500001DB274050DC2380C0F6FF31
:104B280081C0F7FF0800F5500009D8A49EEF25F0D2
:104B3800A0EF25F07FEF25F0DBC07AF0DCC07BF03A
:104B48001200196E1950EBEC27F00001DA51D9194F
:104B5800D8A4B1EF25F0B3EF25F0B9EF25F019503F
:104B6800E0EC27F0000ED4EF25F0CD0EDA25D96E53
:104B7800DA6A000EDA22DF50186E010EDA25126E9C
:104B8800136A000E1322000E156E0C0E146E7DECC7
:104B980021F012500001DA6F1950E0EC27F018509C
:104BA8001200FD0E206E7F0E216E990E226E7F0E72
:104BB800236E000E246E42C0D9FF43C0DAFFDECF59
:104BC80025F0DDCF26F020EE02F04250D9264350E2
:104BD800DA22DECF27F0DDCF28F020EE06F04250B3
:104BE800D9264350DA22DECF29F0DDCF2AF0FF0E96
:104BF8002C6E2B6886EC0AF01200000EA5EC25F04E
:104C08000101D16FD151D8B40CEF26F00EEF26F088
:104C18002BEF26F0D15180EC22F0000E0001B06F8E
:104C2800010EB16F0101D1516EEC23F0000E0001AD
:104C3800A06F010EA16F0101D1517BEC1EF0000E97
:104C48003B6E010E3C6E0101D151E0EC1EF01200EA
:104C5800860E0001886F000E896F82C08AF083C0BB
:104C68008BF0000E8D6F000E8C6F000E8F6F000E94
:104C78008E6F8A0E7A6F000E7B6F84C07CF085C0C1
:104C88007DF0880E7E6F000E7F6F74EC25F00001BA
:104C98008C518225D96E8D518321DA6E000EDF6E1C
:104CA8001200126E1250D8A45CEF26F05EEF26F0C8
:104CB8006AEF26F0F0960F01399393928A929396B1
:104CC8008A86938893843985230EC26E1204D8A4E9
:104CD80070EF26F072EF26F07DEF26F00F01399580
:104CE80093948A9493988A889386938239832B0E17
:104CF800C26E120012C0D9FF13C0DAFF5A0EDE6E60
:104D0800000EDD6E20EE02F01250D9261350DA2282
:104D1800960EDE6E000EDD6E20EE04F01250D926DF
:104D28001350DA220A0EDE6E000EDD6E20EE06F05B
:104D38001250D9261350DA22000EDE6EF80EDD6E00
:104D4800120012C014F013C015F0ADEF26F0124A8D
:104D5800132A12C0F6FF13C0F7FFF86A050EF764AE
:104D680003D00800F55005D0F6CFE1FFF7CFE2FFFA
:104D7800E7500009D8A4C3EF26F0C5EF26F0ABEF43
:104D880026F01450125C126E15501358136E120050
:104D9800000E216E000E206EDDEF26F01FC012F00F
:104DA800136A1DC014F01EC015F016EC1EF0204A40
:104DB800212A20501B24D96E21501C20DA6EDF5086
:104DC8001F6E1F50D8A4EBEF26F0EDEF26F0D2EFC0
:104DD80026F0120012C0D9FF13C0DAFF14C0DEFF9C
:104DE80015C0DDFF12C0D9FF13C0DAFF0B0EDE18A5
:104DF800DE10D8A402EF27F004EF27F007EF27F022
:104E080067680FEF27F012C0D9FF13C0DAFFDF5031
:104E1800170DF3CF67FF120025BE1DEF27F02550B1
:104E280006E12404D8B01BEF27F01DEF27F02BEF85
:104E380027F024C026F025C027F0261E271E264A64
:104E4800272A26C024F027C025F02FEF27F024C0FA
:104E580024F025C025F01200036E025001EC28F062
:104E68000350030DB50EF324D96E000EF420DA6E4C
:104E7800000EDE6E000EDD6E0350030DB70EF32438
:104E8800D96E000EF420DA6E000EDF6E0250F6ECDA
:104E980027F012000001DF51126E136A1350000A46
:104EA800D8B459EF27F068EF27F01250000AD8B4A9
:104EB80068EF27F0010AD8B468EF27F0030AD8B4DE
:104EC80068EF27F068EF27F0120001EE00F0D10E2E
:104ED800EE6AE806FDE100EEB5F04B0EEE6AE80674
:104EE800FDE100EE47F0070EEE6AE806FDE14E90A0
:104EF8004E92000EF86E00011FEF28F0000E000120
:104F0800DF6FA2C0A0F0A3C0A1F00CEC28F0A2C0F3
:104F18003BF0A3C03CF016EC28F027EC28F04EEC50
:104F280027F012001A501C02F3CF1EF0F4CF1FF026
:104F38001A501D02F3501F261B501C02F3501F2647
:104F48001EC01AF01FC01BF0120001500302F3CF5D
:104F580005F0F4CF06F001500402F3500626025083
:104F68000302F350062605C001F006C002F0120045
:104F78000F013993399593948A949382F19E020E86
:104F8800616EF19A93869388F086120020EE06F0FF
:104F98001250D9261350DA2214C0DEFF15C0DDFFE7
:104FA800120020EE04F01250D9261350DA2214C051
:104FB800DEFF15C0DDFF1200126E1250D8A4E7EF15
:104FC80027F0E9EF27F0EAEF27F0F28E1200126ED1
:104FD8001250D8A4F2EF27F0F4EF27F0F5EF27F0FE
:104FE800F29E1200016E0150D8A4FDEF27F0FFEFEA
:104FF80027F000EF28F0F28E1200016E0150D8A4BD
:1050080008EF28F00AEF28F00BEF28F0F29E1200C4
:10501800000E0001DD6FA0C09EF0A1C09FF0A9ECBA
:1050280024F01200000E4D6E3BC037F03CC038F043
:10503800ABEC0CF0120022EC21F001EC26F021EF91
:1050480028F058EF00F0000E0001DE6FBCEC27F0EE
:045058001200120030
:107854000000000000000000000000000000000024
:1078640000C0C0C0C0C0C0C0C000C0C00000000094
:10787400D8D8D8D800000000000000000000001292
:107884001224FEFE48FEFE489090000000107CFC8E
:10789400D6D0F07C1E16D67E7C100000000061005D
:1078A4009100920092009400658006400A400A40CC
:1078B4001240118000000000000000387C6C7C3015
:1078C40078DACECEFF7A00000000C0C0C0C000004D
:1078D40000000000000000000010206060C0C0C074
:1078E400C0C0C06060201000804060203030303064
:1078F4003030606040800020A8F820505000000024
:10790400000000000000000000303030FCFC30308B
:107914003000000000000000000000000000C0C0B3
:1079240040408000000000000000F0F00000000073
:10793400000000000000000000000000C0C00000C3
:1079440000003030306060606060C0C0C000000083
:10795400007878CCCCCCCCCCCCCC787800000000AF
:10796400303070F0B030303030303000000000384B
:107974007CCCCC0C18387060FCFC0000000078FC57
:10798400CC0C38380C0CCCF878000000000C1C1C13
:107994003C2C6CCCFEFE0C0C000000007C7C60D8FF
:1079A400FCCC0CCCCC7878000000007078D8C0F007
:1079B400F8D8D8D8787000000000F8F818103030E3
:1079C40020606060600000000078FCCCCC7878CC4B
:1079D400CCCCFC780000000070F8CCCCCCFC7C0C47
:1079E400CCF87000000000000000C0C000000000DF
:1079F400C0C000000000000000C0C000000000C0C3
:107A0400C04040800000041C38F0C0F0381C040062
:107A140000000000000000FCFC00FCFC0000000072
:107A24000000000080E0703C0C1C70E0800000004E
:107A3400000078FCCCCC1C18303000303000000042
:107A440000000FC01FE0303066D8EFD8DDD8D898DA
:107A5400D998D9B0DFF06EC870103FE00FC00000B5
:107A64001C001C001C0036003600360063007F003A
:107A74007F00C180C18000000000000000FCFEC641
:107A8400C6FCFCC6C6C6FEFC000000003C7E67C205
:107A9400C0C0C0C2677E3C00000000F8FCCEC6C671
:107AA400C6C6C6CEFCF800000000FEFEC0C0FEFE46
:107AB400C0C0C0FEFE00000000FCFCC0C0F8F8C05E
:107AC400C0C0C0C0000000003C7E67C3C0CFCFC3AD
:107AD400637F3C00000000C6C6C6C6FEFEC6C6C61E
:107AE400C6C600000000C0C0C0C0C0C0C0C0C0C086
:107AF400C0000000000C0C0C0C0C0C0CCCCCFC7862
:107B040000000000C3C6CCCCD8FCECC6C6C3C3007E
:107B1400000000C0C0C0C0C0C0C0C0C0FEFE0000A5
:107B2400000000E380E380E380F780D580D580D532
:107B340080D580DD80D980C980000000000000006D
:107B4400C6E6E6E6F6D6DEDECECEC6000000003C93
:107B54007E67C3C3C3C3C3667E3C00000000FCFE53
:107B6400C6C6C6FEFCC0C0C0C000000000003C0089
:107B74007E00E700C300C300C300C300CB0066005F
:107B84007F003D8000800000000000FCFEC6C6FEB1
:107B9400FCCCC6C6C6C3000000007CFEC6C6F07C92
:107BA4000EC6C6FE7C00000000FFFF181818181847
:107BB4001818181800000000C6C6C6C6C6C6C6C631
:107BC400C67E380000000000C180C18063006300ED
:107BD40063003600360036001C001C001C00000048
:107BE400000000000000C460C460CA606AC06AC0CB
:107BF4006AC06AC06AC031803180318000000000F0
:107C040000000000C1806300360036001C001C0028
:107C14001C00360036006300C18000000000000034
:107C240000C366663C3C18181818181800000000B9
:107C3400FEFE060C18303060C0FEFE00000000E0BE
:107C4400E0C0C0C0C0C0C0C0C0C0C0E0E000C0C090
:107C5400C0606060606030303000000000E0E060D0
:107C6400606060606060606060E0E00038386C6CA8
:107C74006CC60000000000000000000000000000CE
:107C840000000000000000FE0000C06000000000D2
:107C940000000000000000000000000078FCCC3C64
:107CA400FCCCFC6C00000000C0C0C0F8FCCCCCCC08
:107CB400CCF8F8000000000000007078D8C0C0D8EC
:107CC4007870000000000C0C0C7CFCCCCCCCCCFC00
:107CD4007C0000000000000070F8D8F8C0D8F870EC
:107CE40000000000307060F0F06060606060600070
:107CF4000000000000006CFCCCCCCCCCFC6C0CCCA8
:107D04007800C0C0C0D8FCCCCCCCCCCCCC0000001B
:107D140000C0C000C0C0C0C0C0C0C0C000000000DF
:107D2400303000303030303030303030F0E000C0AF
:107D3400C0C0CCD8F0F8D8D8CCCC00000000C0C06B
:107D4400C0C0C0C0C0C0C0C0C0000000000000006F
:107D540000000000D980FFC0CCC0CCC0CCC0CCC0D7
:107D6400CCC0CCC000000000000000000000D8FC23
:107D7400CCCCCCCCCCCC000000000000007878CC7B
:107D8400CCCCCC787800000000000000D8FCCCCC2F
:107D9400CCCCF8D8C0C0C0000000006CFCCCCCCC6B
:107DA400CCFC6C0C0C0C00000000D0F0C0C0C0C0B7
:107DB400C0C00000000000000070F8C8E03898F867
:107DC4007000000000206060F0F06060606070701F
:107DD40000000000000000CCCCCCCCCCCCFC6C006F
:107DE400000000000000C6C66C6C6C383838000017
:107DF400000000000000000000DD80DD80DD80D593
:107E04008055007700770077000000000000000034
:107E1400000000CC787830307878CC000000000086
:107E24000000C6C66C6C6C38383830F0E0000000D6
:107E340000FCFC18303060FCFC0000000030706076
:107E4400606060C0C060606060703000C0C0C0C06E
:107E5400C0C0C0C0C0C0C0C0C0C000C0E0606060DE
:107E640060303060606060E0C00000000000E4FC4E
:107E74009C00000000000000080000020F00051E26
:107E840000072D00073C000A4B0008690002780037
:107E940004870004960005A50006B40002C300048C
:107EA400D20002E10004F00006FF00040E01061DEA
:107EB40001062C01073B01064A0105590105680129
:107EC40006770106860102950102A40106B30106A4
:107ED400C20106D10106E0010DEF01090D02072BD5
:107EE40002083A02074902075802066702087602A6
:107EF40007850202940206A30208B20207C102091E
:107F0400D00207EE0208FD02070C03091B0308391F
:107F1400030748030857030766030975030B930314
:107F240009B10308CF0307DE0303ED0304FC0303D5
:107F34000B04071A040729040338040647040656E9
:107F44000405650406740405830404920406A1046C
:107F540006B00402BF0404CE0406DD0402EC040AE5
:107F6400FB040619050628050637050646050455CB
:107F74000505640504730506820507910509A00536
:107F840006BE0507CD0506DC0504EB0502FA05046B
:107F940009060618060F207E7C7E55785041524112
:107FA4004D455445525300506172616D657472655C
:107FB40073004D656E755374617274003120506C9A
:107FC40061796572003220506C61796572005745A1
:107FD4004C434F4D45005155495454455200494E68
:107FE40047414D4500583A20256400593A202564FC
:0C7FF400003C2D2D002D2D3E004F000004
:020000040020DA
:08000000FFFFFFFFFFFFFFFF00
:020000040030CA
:0E000000FF381F3EFFBD85FF0FC00FE00F4011
:00000001FF
