:020000040000FA
:0400000058EF00F0C5
:100008004E82D9CF0EF0DACF0FF0F3CF10F0F4CF45
:1000180011F0F0A012EF00F014EF00F039EF00F04B
:10002800F0A619EF00F01BEF00F039EF00F0F1BA7D
:1000380020EF00F022EF00F02BEF00F0F18AF090B3
:10004800010E076E010E6DEC30F039EF00F0F1AAE9
:1000580030EF00F032EF00F039EF00F0F19AF09055
:10006800010E076E020E6DEC30F0F2A43EEF00F0C8
:1000780040EF00F04EEF00F0F2AA45EF00F047EF36
:1000880000F04EEF00F058EC23F0FB0ED76E1D0E7B
:10009800D66EF29411C0F4FF10C0F3FF0FC0DAFF60
:1000A8000EC0D9FF4E9211009CEF32F020EEBCF04A
:1000B8001B50D9261C50DA22DECF1DF0DDCF1EF0F2
:1000C80020EEB4F01B50D9261C50DA22DECF1FF0E8
:1000D800DDCF20F01D501F261E502022080E1F269F
:1000E800000E2022205009E1EF0E1F5CD8A07FEF00
:1000F80000F081EF00F0ADEF00F020EEBCF01B50F7
:10010800D9261C50DA22DECF1DF0DDCF1EF01D1ED1
:100118001E1E1D4A1E2A20EEBCF01B50D9261C505C
:10012800DA221DC0DEFF1EC0DDFF20EEBCF01B5032
:10013800D9261C50DA22DECF1DF0DDCF1EF020EECE
:10014800B4F01B50D9261C50DA221D50DE261E5052
:10015800DD22F80E1D6EFF0E1E6E20EEBCF01B5049
:10016800D9261C50DA22DECF1FF0DDCF20F020EE9A
:10017800B4F01B50D9261C50DA22DECF21F0DDCF97
:1001880022F01F502126205022221D5021261E50C9
:10019800222222BEDBEF00F0225007E1020E215C92
:1001A800D8B0D9EF00F0DBEF00F007EF01F020EE58
:1001B800BCF01B50D9261C50DA22DECF1DF0DDCF53
:1001C8001EF01D1E1E1E1D4A1E2A20EEBCF01B50CE
:1001D800D9261C50DA221DC0DEFF1EC0DDFF20EE2E
:1001E800BCF01B50D9261C50DA22DECF1DF0DDCF23
:1001F8001EF020EEB4F01B50D9261C50DA221D50F8
:10020800DE261E50DD22FF0E1D6EFF0E1E6E20EE36
:10021800C2F01B50D9261C50DA22DECF1FF0DDCFEA
:1002280020F01D501F261E50202220EEB6F01B5035
:10023800D9261C50DA22DECF21F0DDCF22F0080EBD
:100248002126000E22221F50211807E120502218D3
:10025800D8A431EF01F033EF01F0BDEF02F020EE4A
:10026800B4F01B50D9261C50DA22DECF1DF0DDCFAA
:100278001EF0080E1D26000E1E2220EEC0F01B5098
:10028800D9261C50DA221D50DE5C1E50DE58D8B02C
:1002980050EF01F052EF01F0BDEF02F020EEC0F098
:1002A8001B50D9261C50DA22DECF1DF0DDCF1EF000
:1002B800320E1D26000E1E22F80E1F6EFF0E206E37
:1002C80020EEB4F01B50D9261C50DA22DECF21F0E4
:1002D800DDCF22F01F502126205022221D50215C04
:1002E8001E502258D8B07BEF01F07DEF01F0BDEF32
:1002F80002F020EEC0F01B50D9261C50DA22DECFC7
:100308001DF0DDCF1EF020EEB4F01B50D9261C5096
:10031800DA22DECF1FF0DDCF20F01D501F5E1E5009
:10032800205A205007E10A0E1F5CD8B09EEF01F05A
:10033800A0EF01F0C4EF01F020EEBEF01B50D9266B
:100348001C50DA22DECF1DF0DDCF1EF01D1E1E1E52
:100358001D4A1E2A20EEBEF01B50D9261C50DA2258
:100368001DC0DEFF1EC0DDFF20EEBCF01B50D926ED
:100378001C50DA22FE0EDE26FF0EDD22AFEF02F061
:1003880020EEC0F01B50D9261C50DA22DECF1DF01B
:10039800DDCF1EF020EEB4F01B50D9261C50DA2217
:1003A800DECF1FF0DDCF20F01D501F5E1E50205AFB
:1003B800205007E1140E1F5CD8B0E5EF01F0E7EF1D
:1003C80001F00AEF02F020EEBEF01B50D9261C50B7
:1003D800DA22DECF1DF0DDCF1EF01D1E1E1E1D4AC7
:1003E8001E2A20EEBEF01B50D9261C50DA221DC052
:1003F800DEFF1EC0DDFF20EEBCF01B50D9261C50CE
:10040800DA22DE06000EDD5AAFEF02F020EEC0F071
:100418001B50D9261C50DA22DECF1DF0DDCF1EF08E
:1004280020EEB4F01B50D9261C50DA22DECF1FF084
:10043800DDCF20F01D501F5E1E50205A205007E1CE
:100448001E0E1F5CD8B02BEF02F02DEF02F047EF25
:1004580002F020EEBEF01B50D9261C50DA22DECF67
:100468001DF0DDCF1EF01D1E1E1E1D4A1E2A20EE89
:10047800BEF01B50D9261C50DA221DC0DEFF1EC05C
:10048800DDFFAFEF02F020EEC0F01B50D9261C5064
:10049800DA22DECF1DF0DDCF1EF020EEB4F01B50C7
:1004A800D9261C50DA22DECF1FF0DDCF20F01D50F8
:1004B8001F5E1E50205A205007E1280E1F5CD8B03E
:1004C80068EF02F06AEF02F08DEF02F020EEBEF066
:1004D8001B50D9261C50DA22DECF1DF0DDCF1EF0CE
:1004E8001D1E1E1E1D4A1E2A20EEBEF01B50D926B8
:1004F8001C50DA221DC0DEFF1EC0DDFF20EEBCF05E
:100508001B50D9261C50DA22DE2A000EDD22AFEF5E
:1005180002F020EEBEF01B50D9261C50DA22DECFA6
:100528001DF0DDCF1EF01D1E1E1E1D4A1E2A20EEC8
:10053800BEF01B50D9261C50DA221DC0DEFF1EC09B
:10054800DDFF20EEBCF01B50D9261C50DA22020E2B
:10055800DE26000EDD2220EED4F01B50D9261C50DA
:10056800DA22DE2A000EDD22000E186E0E0E09ECCD
:1005780030F020EECCF01B50D9261C50DA22DECF0A
:100588001DF0DDCF1EF00B0E1D26000E1E22F80EEC
:100598001F6EFF0E206E20EEB6F01B50D9261C50A1
:1005A800DA22DECF21F0DDCF22F01F5021262050A5
:1005B80022221D50211807E11E502218D8A4E7EF67
:1005C80002F0E9EF02F073EF04F020EEB4F01B50F4
:1005D800D9261C50DA22DECF1DF0DDCF1EF0080E22
:1005E8001D26000E1E2220EECAF01B50D9261C50D4
:1005F800DA221D50DE5C1E50DE58D8B006EF03F03C
:1006080008EF03F073EF04F020EECAF01B50D92670
:100618001C50DA22DECF1DF0DDCF1EF0320E1D2673
:10062800000E1E22F80E1F6EFF0E206E20EEB4F094
:100638001B50D9261C50DA22DECF21F0DDCF22F064
:100648001F502126205022221D50215C1E50225866
:10065800D8B031EF03F033EF03F073EF04F020EE7E
:10066800CAF01B50D9261C50DA22DECF1DF0DDCF90
:100678001EF020EEB4F01B50D9261C50DA22DECF33
:100688001FF0DDCF20F01D501F5E1E50205A205055
:1006980007E10A0E1F5CD8B054EF03F056EF03F0E1
:1006A8007AEF03F020EEBEF01B50D9261C50DA2258
:1006B800DECF1DF0DDCF1EF01D1E1E1E1D4A1E2A98
:1006C80020EEBEF01B50D9261C50DA221DC0DEFFDA
:1006D8001EC0DDFF20EEBCF01B50D9261C50DA22CC
:1006E800FE0EDE26FF0EDD2265EF04F020EECAF0D6
:1006F8001B50D9261C50DA22DECF1DF0DDCF1EF0AC
:1007080020EEB4F01B50D9261C50DA22DECF1FF0A1
:10071800DDCF20F01D501F5E1E50205A205007E1EB
:10072800140E1F5CD8B09BEF03F09DEF03F0C0EFF1
:1007380003F020EEBEF01B50D9261C50DA22DECF83
:100748001DF0DDCF1EF01D1E1E1E1D4A1E2A20EEA6
:10075800BEF01B50D9261C50DA221DC0DEFF1EC079
:10076800DDFF20EEBCF01B50D9261C50DA22DE0635
:10077800000EDD5A65EF04F020EECAF01B50D926B2
:100788001C50DA22DECF1DF0DDCF1EF020EEB4F0D3
:100798001B50D9261C50DA22DECF1FF0DDCF20F007
:1007A8001D501F5E1E50205A205007E11E0E1F5C70
:1007B800D8B0E1EF03F0E3EF03F0FDEF03F020EE34
:1007C800BEF01B50D9261C50DA22DECF1DF0DDCF3B
:1007D8001EF01D1E1E1E1D4A1E2A20EEBEF01B50B6
:1007E800D9261C50DA221DC0DEFF1EC0DDFF65EFD2
:1007F80004F020EECAF01B50D9261C50DA22DECFB6
:100808001DF0DDCF1EF020EEB4F01B50D9261C5091
:10081800DA22DECF1FF0DDCF20F01D501F5E1E5004
:10082800205A205007E1280E1F5CD8B01EEF04F0B4
:1008380020EF04F043EF04F020EEBEF01B50D92661
:100848001C50DA22DECF1DF0DDCF1EF01D1E1E1E4D
:100858001D4A1E2A20EEBEF01B50D9261C50DA2253
:100868001DC0DEFF1EC0DDFF20EEBCF01B50D926E8
:100878001C50DA22DE2A000EDD2265EF04F020EE9D
:10088800BEF01B50D9261C50DA22DECF1DF0DDCF7A
:100898001EF01D1E1E1E1D4A1E2A20EEBEF01B50F5
:1008A800D9261C50DA221DC0DEFF1EC0DDFF20EE57
:1008B800BCF01B50D9261C50DA22020EDE26000E90
:1008C800DD2220EED6F01B50D9261C50DA22DE2A73
:1008D800000EDD22000E186E0E0E09EC30F0F60E3A
:1008E8001D6EFF0E1E6E20EECCF01B50D9261C503C
:1008F800DA22DECF1FF0DDCF20F01D501F261E505C
:100908002022F80E216EFF0E226E20EEB6F01B504C
:10091800D9261C50DA22DECF23F0DDCF24F0215077
:100928002326225024221F50235C20502458D8B05C
:10093800A0EF04F0A2EF04F0B1EF04F0000E186E7F
:10094800090E09EC30F020EED6F01B50D9261C50C9
:10095800DA22000EDE6E000EDD6E20EEB6F01B50C1
:10096800D9261C50DA22DECF1DF0DDCF1EF0080E8E
:100978001D26000E1E2220EEC2F01B50D9261C5048
:10098800DA22DECF1FF0DDCF20F00A0E1F26000E80
:1009980020221D501F5C1E502058D8B0D6EF04F0FE
:1009A800D8EF04F0E7EF04F0000E186E090E09EC1A
:1009B80030F020EED4F01B50D9261C50DA22000E5D
:1009C800DE6E000EDD6E120027C071F028C072F0D6
:1009D8000A0E000171252D6E000E72212E6E2DC09B
:1009E800F6FF2EC0F7FF0900F5CF60F00900F5CF3C
:1009F80061F00900F5CF62F00A00F5CF63F0120E3E
:100A080071252D6E000E72212E6E2DC0F6FF2EC0A0
:100A1800F7FF0900F5CF76F00A00F5CF77F0160E4C
:100A280071252D6E000E72212E6E2DC0F6FF2EC080
:100A3800F7FF0900F5CF6BF00A00F5CF6CF01C0E3C
:100A480071252D6E000E72212E6E2DC0F6FF2EC060
:100A5800F7FF0900080EF5180900F510D8A437EFBC
:100A680005F039EF05F0E2EF07F01E0E71252D6E47
:100A7800000E72212E6E2DC0F6FF2EC0F7FF090062
:100A8800F5040900F5100900F5100900F510D8B4AF
:100A980050EF05F052EF05F054EF05F0E2EF07F0E4
:100AA800765129242D6E77512A202E6E2E5007E17B
:100AB800F10E2D5CD8B063EF05F065EF05F0E2EFBD
:100AC80007F06B512B242D6E6C512C202E6E410E8D
:100AD8002D5C010E2E58D8A074EF05F076EF05F0C6
:100AE80078EF05F0E2EF07F0360E806E8B988B9664
:100AF8008B868B88800E806E8B968B86360E27248D
:100B0800696F000E28206A6F6051272661512822DC
:100B1800000E646F69C012F06AC013F006EC2CF086
:100B280012C078F013C079F02A0E806E8B988B96DD
:100B38008B868B882A50806E8B968B8629C080FF87
:100B48008B968B860001765129242D6E77512A20A9
:100B58002E6EFF0E2D24296EFF0E2E202A6E2A508F
:100B6800806E8B968B8629C080FF8B968B862B0E8A
:100B7800806E8B988B968B868B882BC02DF02CC023
:100B88002EF02D1E2E1E2D4A2E2A6B512D5E6C51D5
:100B98002E5A400E2D24736F010E2E20746F74513F
:100BA800806E8B968B8673C080FF8B968B866B517D
:100BB80073252D6E6C5174212E6EFF0E2D24736FCC
:100BC800FF0E2E20746F7451806E8B968B8673C0C7
:100BD80080FF8B968B862C0E806E8B988B968B86DF
:100BE8008B88000E706F000E6F6F000E686F000E1E
:100BF800676F27C0F6FF28C0F7FF0800F550000907
:100C0800D8A409EF06F00BEF06F086EF07F062EFC5
:100C180007F0020E2726000E2822000E7B6F000E1A
:100C28007A6F21EF06F07951806E8B968B8678C0AB
:100C380080FF8B968B867A4B7B2B6F51765D2D6E62
:100C4800705177592E6E2D507A5D2E507B59D8A051
:100C580030EF06F032EF06F017EF06F0000E706F77
:100C6800000E6F6F674B682BCFEF07F0000E7B6F9E
:100C7800000E7A6F4AEF06F07951806E8B968B865C
:100C880078C080FF8B968B867A4B7B2B6F51765D75
:100C98002D6E705177592E6E2D507A5D2E507B59DE
:100CA800D8A059EF06F05BEF06F040EF06F0000E13
:100CB8007B6F000E7A6F6BEF06F07951806E8B9622
:100CC8008B8678C080FF8B968B867A4B7B2B6751FF
:100CD8006B5D2D6E68516C592E6EFF0E2D241A6EA9
:100CE800FF0E2E201B6E76C01CF077C01DF005ECA1
:100CF80033F01A5000017A5D1B507B59D8A087EF5A
:100D080006F089EF06F061EF06F0010E646FCFEF91
:100D180007F0030E27242D6E000E28202E6E2DC0FE
:100D2800F6FF2EC0F7FF0800F5501A6E1B6A76C052
:100D38001CF077C01DF005EC33F0020E27242F6E4F
:100D4800000E2820306E2FC0F6FF30C0F7FF0800D5
:100D5800F5501A240001656F000E1B20666F000E07
:100D68007B6F000E7A6FC5EF06F06F4B702B7951D1
:100D7800806E8B968B8678C080FF8B968B867A4B9D
:100D88007B2B65517A5D66517B59D8A0CEEF06F072
:100D9800D0EF06F0B9EF06F065C020F066C021F08C
:100DA80076C022F077C023F0CFEC2FF00001675116
:100DB8002024676F68512120686F6FC012F070C0DF
:100DC80013F076C014F077C015F03BEC30F012C089
:100DD8006FF013C070F0040E2726000E2822CFEF04
:100DE80007F0010E27242D6E000E28202E6E2DC030
:100DF800F6FF2EC0F7FF0800F5CF75F0000E7B6FE9
:100E0800000E7A6F36EF07F07A5127242D6E7B514A
:100E180028202E6E020E2D26000E2E222DC0F6FF43
:100E28002EC0F7FF0800F550040DF3CF2FF0F4CFD4
:100E380030F02F506925126E30506A21136E06EC7F
:100E48002CF012C06DF013C06EF000016F4B702BC8
:100E58006E51806E8B968B866DC080FF8B968B86CD
:100E68007A4B7B2B75512D6E2E6A2D507A5D2E5044
:100E78007B59D8A042EF07F044EF07F008EF07F0DE
:100E88007529D8B44AEF07F04CEF07F05CEF07F08C
:100E98007529FE0B756F75512D6E2E6A020E2D2663
:100EA800000E2E222D5027262E502822CFEF07F095
:100EB800020E2726010E2822CFEF07F0010E272465
:100EC8002D6E000E28202E6E2DC0F6FF2EC0F7FFC7
:100ED8000800F5502F6E306A3050000AD8B477EF0A
:100EE80007F0F5EF06F02F50000AD8B40DEF06F022
:100EF800010AD8B43AEF06F0030AD8B48DEF06F029
:100F0800F5EF06F027C0F6FF28C0F7FF0800F5CF79
:100F180075F0010E27242D6E000E28202E6E2DC090
:100F2800F6FF2EC0F7FF0800F550040DF3CF2FF0A1
:100F3800F4CF30F02F506925126E30506A21136EAD
:100F480006EC2CF012C06DF013C06EF0000E00011C
:100F58007B6F000E7A6FBDEF07F06F4B702B6E51F1
:100F6800806E8B968B866DC080FF8B968B867A4BB6
:100F78007B2B75512D6E2E6A2D507A5D2E507B5924
:100F8800D8A0C9EF07F0CBEF07F0B1EF07F0020EDA
:100F98002726000E282200016451D8B4D6EF07F0A6
:100FA800D8EF07F0FDEF05F0360E806E8B988B9624
:100FB8008B868B88000E806E8B968B861200000EB7
:100FC80000018C6F000E8B6F7CC0D9FF7DC0DAFFEB
:100FD800DECF8DF0DDCF8EF020EE04F07C51D926E7
:100FE8007D51DA22DECF7EF0DDCF7FF07CC0D9FFE5
:100FF8007DC0DAFFDECF80F0DDCF81F07E51802525
:101008008F6F7F518121906F20EE02F07C51D9269D
:101018007D51DA22DECF91F0DDCF92F020EE06F09E
:101028007C51D9267D51DA22DECF7EF0DDCF7FF0EC
:1010380020EE02F07C51D9267D51DA22DECF80F0F5
:10104800DDCF81F07E518025936F7F518121946F90
:1010580020EE08F07C51D9267D51DA2210EE0AF0F4
:101068007C51E1267D51E222DE50E61809E1DE508E
:10107800E618D8B442EF08F044EF08F081EF08F022
:101088008DC012F08EC013F091C014F092C015F00C
:101098008FC016F090C017F093C018F094C019F0E4
:1010A800010E1A6E20EE0AF07C51D9267D51DA2203
:1010B800DECF1BF0DDCF1CF0D3EC16F08DC012F0A4
:1010C8008EC013F091C014F092C015F08FC016F0C6
:1010D80090C017F093C018F094C019F0000E1A6E63
:1010E800000120EE08F07C51D9267D51DA22DECFAE
:1010F8001BF0DDCF1CF0D3EC16F0000120EE0CF055
:101108007C51D9267D51DA22DECFF6FFDDCFF7FFFD
:101118000800F550420AD8A494EF08F096EF08F0BA
:1011280046EF09F020EE0CF07C51D9267D51DA22E9
:10113800DECF7EF0DDCF7FF0010E7E27000E7F230D
:101148007EC0F6FF7FC0F7FF0800F5504D0AD8A40F
:10115800B0EF08F0B2EF08F046EF09F020EE0CF01F
:101168007C51D9267D51DA22DECF9AF0DDCF9BF073
:1011780020EE02F07C51D9267D51DA22DECF7EF0B6
:10118800DDCF7FF0160E9A25806F000E9B21816FB0
:1011980080C0F6FF81C0F7FF0900F5CF82F0090093
:1011A800F5CF83F00900F5CF84F00900F5CF85F07D
:1011B800D890853384338333823320EE06F07C5114
:1011C800D9267D51DA22DECF86F0DDCF87F0D890A0
:1011D8008731896F8631886F8251885F8351895B37
:1011E8007E518825976F7F518921986F7CC0D9FFE0
:1011F8007DC0DAFFDECF7EF0DDCF7FF0120E9A25BC
:10120800806F000E9B21816F80C0F6FF81C0F7FFC1
:101218000900F5CF82F00900F5CF83F00900F5CF7A
:1012280084F00900F5CF85F0D89085338433833373
:10123800823320EE04F07C51D9267D51DA22DECFAC
:1012480086F0DDCF87F0D8908731896F8631886F37
:101258008251885F8351895B7E518825956F7F51C4
:101268008921966F9AC027F09BC028F095C029F075
:1012780096C02AF097C02BF098C02CF0E8EC04F048
:1012880053EF0AF020EE02F07C51D9267D51DA2284
:10129800DECF7EF0DDCF7FF020EE0EF07C51D92638
:1012A8007D51DA22DECFF6FFDDCFF7FF0800F550DB
:1012B800126E136A000E156E020E146EE2EC2AF01E
:1012C800000120EE06F07C51D9267D51DA22DECFCE
:1012D80080F0DDCF81F0D8908131836F8031826FCB
:1012E8001250825F1350835B7E518225976F7F5126
:1012F8008321986F000E996FDEEF09F020EE0EF053
:101308007C51D9267D51DA22DECF7EF0DDCF7FF009
:10131800010E7E27000E7F237EC0F6FF7FC0F7FFF9
:101328000800F5CF80F020EE0CF07C51D9267D51D5
:10133800DA22DECF81F0DDCF82F099518127000ECD
:10134800822381C0F6FF82C0F7FF0800F5CF83F043
:101358008051835D8A6F8A51030D20EE0EF07C5117
:10136800D9267D51DA22DECF7EF0DDCF7FF0030E65
:101378007E27000E7F237EC0F6FF7FC0F7FF09009F
:10138800F5CF80F00900F5CF81F0F3508027F450B5
:10139800812380C0F6FF81C0F7FF0800F550826FF7
:1013A800836B020E8227000E832382518B27835181
:1013B8008C23992B20EE0CF07C51D9267D51DA2212
:1013C800DECF12F0DDCF13F0D8EC31F000019951E7
:1013D8007E6F7F6B12507E5D13507F59D8A0F7EF58
:1013E80009F0F9EF09F082EF09F07CC0D9FF7DC060
:1013F800DAFFDECF7EF0DDCF7FF0D8908C31816FC1
:101408008B31806F20EE04F07C51D9267D51DA2291
:10141800DECF82F0DDCF83F0D8908331856F8231C3
:10142800846F8051845F8151855B7E518425956FDF
:101438007F518521966F20EE0CF07C51D9267D5185
:10144800DA22DECF20F0DDCF21F020EE0EF07C5145
:10145800D9267D51DA22DECF22F0DDCF23F0000E2F
:10146800246E95C025F096C026F097C027F098C046
:1014780028F020EE08F07C51D9267D51DA22DECF03
:1014880029F0DDCF2AF020EE0AF07C51D9267D51D3
:10149800DA22DECF2BF0DDCF2CF014EC0FF07CC07D
:1014A80025F07DC026F06AEC1CF0120020EE0EF04C
:1014B8002750D9262850DA22DE50DE10D8B467EF3C
:1014C8000AF069EF0AF0F5EF0AF027C0D9FF28C043
:1014D800DAFFDECF29F0DDCF2AF020EE0EF027501C
:1014E800D9262850DA22DECF2BF0DDCF2CF020EEE3
:1014F80004F02750D9262850DA22DECF2DF0DDCF90
:101508002EF02B502D5C1A6E2C502E581B6E20EE90
:1015180013F02750D9262850DA22DECF1CF0DDCF71
:101528001DF005EC33F01AC020F01BC021F020EEAE
:1015380015F02750D9262850DA22DECF22F0DDCF49
:1015480023F0CFEC2FF0295020262A502122010E1B
:101558002024356E000E2120366E20EE0EF0275026
:10156800D9262850DA22DECF29F0DDCF2AF03550EF
:10157800292636502A22FE0E29242F6EFF0E2A20F5
:10158800306E20EE02F02750D9262850DA22DECF1E
:1015980029F0DDCF2AF0020E2924316E000E2A2010
:1015A800326E20EE06F02750D9262850DA22DECFF8
:1015B80029F0DDCF2AF020EE02F02750D926285056
:1015C800DA22DECF2BF0DDCF2CF029502B262A5043
:1015D8002C22FE0E2B24336EFF0E2C20346E69EF66
:1015E8000BF027C0D9FF28C0DAFFDECF29F0DDCF06
:1015F8002AF0010E2924356E000E2A20366E27C0E7
:10160800D9FF28C0DAFFDECF29F0DDCF2AF020EE9F
:1016180004F02750D9262850DA22DECF1AF0DDCF81
:101628001BF020EE13F02750D9262850DA22DECFFF
:101638001CF0DDCF1DF005EC33F01AC020F01BC004
:1016480021F020EE15F02750D9262850DA22DECFD7
:1016580022F0DDCF23F0CFEC2FF0295020262A509E
:101668002122FF0E20242F6EFF0E2120306E20EE47
:1016780002F02750D9262850DA22DECF29F0DDCF14
:101688002AF0020E2924316E000E2A20326E20EE36
:1016980006F02750D9262850DA22DECF29F0DDCFF0
:1016A8002AF020EE02F02750D9262850DA22DECF81
:1016B8002BF0DDCF2CF029502B262A502C22FE0EA1
:1016C8002B24336EFF0E2C20346E35C012F036C03A
:1016D80013F031C014F032C015F02FC016F030C02E
:1016E80017F033C018F034C019F0010E1A6E20EE4E
:1016F8000AF02750D9262850DA22DECF1BF0DDCF9A
:101708001CF0D3EC16F020EE11F02750D926285003
:10171800DA2210EE13F02750E1262850E222DECF1D
:10172800E6FFDDCFE5FF20EE0EF02750D926285042
:10173800DA22DE50DE10D8A4A4EF0BF0A6EF0BF0EF
:101748001CEF0CF027C0D9FF28C0DAFFDECF29F044
:10175800DDCF2AF0010E2924356E000E2A20366EC0
:1017680027C0D9FF28C0DAFFDECF29F0DDCF2AF065
:1017780020EE04F02750D9262850DA22DECF1AF0BE
:10178800DDCF1BF020EE11F02750D9262850DA22A1
:10179800DECF1CF0DDCF1DF005EC33F01AC020F0D1
:1017A8001BC021F020EE15F02750D9262850DA2248
:1017B800DECF22F0DDCF23F0CFEC2FF0295020260A
:1017C8002A502122FF0E20242F6EFF0E2120306E7A
:1017D80020EE02F02750D9262850DA22DECF29F051
:1017E800DDCF2AF0020E2924316E000E2A20326E37
:1017F80020EE06F02750D9262850DA22DECF29F02D
:10180800DDCF2AF020EE02F02750D9262850DA2220
:10181800DECF2BF0DDCF2CF029502B262A502C229E
:10182800FE0E2B24336EFF0E2C20346EA6EF0CF028
:1018380027C0D9FF28C0DAFFDECF29F0DDCF2AF094
:1018480020EE0EF02750D9262850DA22DECF2BF0D2
:10185800DDCF2CF020EE04F02750D9262850DA22CC
:10186800DECF2DF0DDCF2EF02B502D5C1A6E2C50D4
:101878002E581B6E20EE11F02750D9262850DA2258
:10188800DECF1CF0DDCF1DF005EC33F01AC020F0E0
:101898001BC021F020EE15F02750D9262850DA2257
:1018A800DECF22F0DDCF23F0CFEC2FF02950202619
:1018B8002A502122010E2024356E000E2120366E7A
:1018C80020EE0EF02750D9262850DA22DECF29F054
:1018D800DDCF2AF03550292636502A22FE0E29243B
:1018E8002F6EFF0E2A20306E20EE02F02750D926E8
:1018F8002850DA22DECF29F0DDCF2AF0020E292483
:10190800316E000E2A20326E20EE06F02750D926BE
:101918002850DA22DECF29F0DDCF2AF020EE02F0BF
:101928002750D9262850DA22DECF2BF0DDCF2CF035
:1019380029502B262A502C22FE0E2B24336EFF0E04
:101948002C20346E35C012F036C013F031C014F0BC
:1019580032C015F02FC016F030C017F033C018F0A1
:1019680034C019F0010E1A6E20EE08F02750D9265F
:101978002850DA22DECF1BF0DDCF1CF0D3EC16F0B6
:10198800120020EE04F01850D9261950DA22010E60
:10199800DB5009E1320EDE5CD8A0D5EF0CF0D7EFB2
:1019A8000CF0F5EF0CF020EE04F01850D926195081
:1019B800DA22010EDB5007E1400EDE5CD8B0E7EF1B
:1019C8000CF0E9EF0CF0F5EF0CF018C012F019C0AC
:1019D80013F0000E156E000E146EFFEC31F005EFDB
:1019E8000FF020EE04F01850D9261950DA22010E13
:1019F800DB5009E1400EDE5CD8A005EF0DF007EFE3
:101A08000DF025EF0DF020EE04F01850D9261950EE
:101A1800DA22010EDB5007E14E0EDE5CD8B017EF7C
:101A28000DF019EF0DF025EF0DF018C012F019C0E8
:101A380013F0000E156E010E146EFFEC31F005EF79
:101A48000FF020EE04F01850D9261950DA22010EB2
:101A5800DB5009E14E0EDE5CD8A035EF0DF037EF14
:101A68000DF055EF0DF020EE04F01850D92619505E
:101A7800DA22010EDB5007E15C0EDE5CD8B047EFDE
:101A88000DF049EF0DF055EF0DF018C012F019C028
:101A980013F0000E156E020E146EFFEC31F005EF18
:101AA8000FF020EE04F01850D9261950DA22010E52
:101AB800DB5009E15C0EDE5CD8A065EF0DF067EF46
:101AC8000DF085EF0DF020EE04F01850D9261950CE
:101AD800DA22010EDB5007E16A0EDE5CD8B077EF40
:101AE8000DF079EF0DF085EF0DF018C012F019C068
:101AF80013F0000E156E030E146EFFEC31F005EFB7
:101B08000FF020EE04F01850D9261950DA22010EF1
:101B1800DB5009E16A0EDE5CD8A095EF0DF097EF77
:101B28000DF0B5EF0DF020EE04F01850D92619503D
:101B3800DA22010EDB5007E1780EDE5CD8B0A7EFA1
:101B48000DF0A9EF0DF0B5EF0DF018C012F019C0A7
:101B580013F0000E156E040E146EFFEC31F005EF55
:101B68000FF020EE04F01850D9261950DA22010E91
:101B7800DB5009E1780EDE5CD8A0C5EF0DF0C7EFA9
:101B88000DF0E5EF0DF020EE04F01850D9261950AD
:101B9800DA22010EDB5007E1860EDE5CD8B0D7EF03
:101BA8000DF0D9EF0DF0E5EF0DF018C012F019C0E7
:101BB80013F0000E156E050E146EFFEC31F005EFF4
:101BC8000FF020EE04F01850D9261950DA22010E31
:101BD800DB5009E1860EDE5CD8A0F5EF0DF0F7EFDB
:101BE8000DF015EF0EF020EE04F01850D92619501C
:101BF800DA22010EDB5007E1960EDE5CD8B007EF63
:101C08000EF009EF0EF015EF0EF018C012F019C023
:101C180013F0000E156E060E146EFFEC31F005EF92
:101C28000FF020EE04F01850D9261950DA22010ED0
:101C3800DB5009E1960EDE5CD8A025EF0EF027EF09
:101C48000EF045EF0EF020EE04F01850D92619508A
:101C5800DA22010EDB5007E1A40EDE5CD8B037EFC4
:101C68000EF039EF0EF045EF0EF018C012F019C063
:101C780013F0000E156E070E146EFFEC31F005EF31
:101C88000FF020EE04F01850D9261950DA22010E70
:101C9800DB5009E1A40EDE5CD8A055EF0EF057EF3B
:101CA8000EF075EF0EF020EE04F01850D9261950FA
:101CB800DA22010EDB5007E1B20EDE5CD8B067EF26
:101CC8000EF069EF0EF075EF0EF018C012F019C0A3
:101CD80013F0000E156E080E146EFFEC31F005EFD0
:101CE8000FF020EE04F01850D9261950DA22010E10
:101CF800DB5009E1B20EDE5CD8A085EF0EF087EF6D
:101D08000EF0A5EF0EF020EE04F01850D926195069
:101D1800DA22010EDB5007E1C00EDE5CD8B097EF87
:101D28000EF099EF0EF0A5EF0EF018C012F019C0E2
:101D380013F0000E156E090E146EFFEC31F005EF6E
:101D48000FF020EE04F01850D9261950DA22010EAF
:101D5800DB5009E1C00EDE5CD8A0B5EF0EF0B7EF9E
:101D68000EF0D5EF0EF020EE04F01850D9261950D9
:101D7800DA22010EDB5007E1CE0EDE5CD8B0C7EFE9
:101D88000EF0C9EF0EF0D5EF0EF018C012F019C022
:101D980013F0000E156E0A0E146EFFEC31F005EF0D
:101DA8000FF020EE04F01850D9261950DA22010E4F
:101DB800DB5009E1CE0EDE5CD8A0E5EF0EF0E7EFD0
:101DC8000EF005EF0FF020EE04F01850D926195048
:101DD800DA22010EDB5007E1D70EDE5CD8B0F7EF50
:101DE8000EF0F9EF0EF005EF0FF018C012F019C061
:101DF80013F0000E156E0B0E146EFFEC31F005EFAC
:101E08000FF018C0D9FF19C0DAFF10EE93F0185080
:101E1800E1261950E222DECFE6FFDDCFE5FF120012
:101E2800000E416E000E3E6E69EF0FF0010E222487
:101E38002D6E000E23202E6E2DC0F6FF2EC0F7FF4C
:101E48000800F5CF2FF03E502024306E000E2120E0
:101E5800316E30C0F6FF31C0F7FFF86A050EF7643F
:101E680003D00800F55005D0F6CFE1FFF7CFE2FF29
:101E7800E750326E2F50325C3F6E3F501A6E1B6A2D
:101E88001ABE1B06000E1D6E030E1C6E05EC33F009
:101E9800030E22242D6E000E23202E6E2DC0F6FF79
:101EA8002EC0F7FF0900F5CF2FF00900F5CF30F06D
:101EB8001A502F261B5030222FC0F6FF30C0F7FFD4
:101EC8000800F550020F41263E2A20C012F021C01A
:101ED80013F0D8EC31F03E502D6E2E6A12502D5C66
:101EE80013502E58D8A07BEF0FF07DEF0FF01AEFAC
:101EF8000FF02404D8A483EF0FF085EF0FF08EEFD6
:101F08000FF04150255C256E2650D8A02604266E79
:101F1800A6EF0FF0020E2418D8A495EF0FF097EF54
:101F28000FF0A6EF0FF041C012F0136A000E156E05
:101F3800020E146EE2EC2AF01250255C256E135046
:101F48002658266E010E22242D6E000E23202E6E9A
:101F58002DC0F6FF2EC0F7FF0800F5CF2FF020C0E8
:101F6800F6FF21C0F7FFF86A050EF76403D00800F2
:101F7800F55005D0F6CFE1FFF7CFE2FFE750306E1E
:101F88002F50305C3F6E3F501A6E1B6A1ABE1B06FC
:101F9800000E1D6E030E1C6E05EC33F0030E22249A
:101FA8002D6E000E23202E6E2DC0F6FF2EC0F7FFDB
:101FB8000900F5CF2FF00900F5CF30F01A502F2681
:101FC8001B503022010E2F26000E30222FC0F6FFA4
:101FD80030C0F7FF0900F5CF33F00A00F5CF34F031
:101FE8003F501A6E1B6A1ABE1B06000E1D6E030EAA
:101FF8001C6E05EC33F0030E22242D6E000E2320F8
:102008002E6E2DC0F6FF2EC0F7FF0900F5CF2FF07A
:102018000900F5CF30F01A502F261B5030222FC060
:10202800F6FF30C0F7FF0800F5CF41F02A0E806EAA
:102038008B988B968B868B882650806E8B968B869A
:1020480025C080FF8B968B86415025242D6E000E6F
:1020580026202E6E010E2D243B6E000E2E203C6E87
:102068003C50806E8B968B863BC080FF8B968B8610
:102078002B0E806E8B988B968B868B882850806E63
:102088008B968B8627C080FF8B968B8622C0F6FFA7
:1020980023C0F7FF0800F55027242D6E000E2820D6
:1020A8002E6EFF0E2D24396EFF0E2E203A6E3A50FA
:1020B800806E8B968B8639C080FF8B968B862C0E14
:1020C800806E8B988B968B868B88000E3D6E04EF06
:1020D80011F03DC01AF01B6A000E156E080E146E42
:1020E800070E4124126E136A000E1322E2EC2AF046
:1020F80012C01CF013C01DF005EC33F033501A2445
:10210800356E34501B20366E000E406EE3EF10F033
:1021180040C012F0136A000E156E080E146EE2EC41
:102128002AF0050E22242D6E000E23202E6E2DC0BF
:10213800F6FF2EC0F7FF0900F5CF2FF00900F5CF05
:1021480030F012502F261350302235502F2636509B
:1021580030222FC0F6FF30C0F7FF0800F5CF37F068
:1021680040C02DF0070E2D16800E2E6E000E2F6E1D
:102178002D2AC2EF10F02F342F322E322D2EBFEF22
:1021880010F02E503714386E3850D8B4CEEF10F007
:10219800D0EF10F0DAEF10F02A50806E8B968B8615
:1021A80029C080FF8B968B86E2EF10F02C50806E52
:1021B8008B968B862BC080FFD6EF10F0402A4150BB
:1021C800405CD8A0EAEF10F0ECEF10F08CEF10F0C4
:1021D800000E406E010E4064F4EF10F0F6EF10F0C0
:1021E800F8EF10F003EF11F02C50806E8B968B8671
:1021F8002BC080FF8B968B86402AEEEF10F03D2A8D
:1022080022C0F6FF23C0F7FF0900F5503D5CD8A0B7
:1022180010EF11F012EF11F06DEF10F0415025247E
:102228002D6E000E26202E6E020E2D24256E000E19
:102238002E20266E204A212A20C0F6FF21C0F7FF53
:10224800F86A050EF76403D00800F55005D0F6CFFC
:10225800E1FFF7CFE2FFE7500009D8A436EF11F00D
:1022680038EF11F0A6EF0FF0120019EF13F00A0E75
:102278003724126E000E3820136E20EE04F037500B
:10228800D9263850DA22DECF14F0DDCF15F020EE53
:1022980006F03750D9263850DA22DECF16F0DDCFD7
:1022A80017F0D5EC28F00009D8B45DEF11F05FEF16
:1022B80011F06AEF11F0000E186E070E09EC30F0FD
:1022C80037C012F038C013F0B5EC32F0220E3724C4
:1022D800126E000E3820136E20EE04F03750D92607
:1022E8003850DA22DECF14F0DDCF15F020EE06F0FC
:1022F8003750D9263850DA22DECF16F0DDCF17F066
:10230800D5EC28F00009D8B48CEF11F08EEF11F05D
:1023180099EF11F0000E186E050E09EC30F037C079
:1023280012F038C013F0B5EC32F03A0E3724126EC2
:10233800000E3820136E20EE04F03750D92638509E
:10234800DA22DECF14F0DDCF15F020EE06F037509C
:10235800D9263850DA22DECF16F0DDCF17F0D5ECCB
:1023680028F00009D8B4BBEF11F0BDEF11F03AEF37
:1023780013F0000E186E060E09EC30F037C012F09C
:1023880038C013F0B5EC32F03AEF13F03AEF13F02F
:10239800820E3724126E000E3820136E20EE04F0E1
:1023A8003750D9263850DA22DECF14F0DDCF15F0B9
:1023B80020EE06F03750D9263850DA22DECF16F054
:1023C800DDCF17F066EC28F00009D8B4EEEF11F075
:1023D800F0EF11F004EF12F037C018F038C019F020
:1023E800C5EC0CF0820E3724276E000E3820286EBC
:1023F8005AEC0AF037C012F038C013F0B5EC32F0DE
:102408009B0E3724126E000E3820136E20EE04F057
:102418003750D9263850DA22DECF14F0DDCF15F048
:1024280020EE06F03750D9263850DA22DECF16F0E3
:10243800DDCF17F066EC28F00009D8B426EF12F0CB
:1024480028EF12F03CEF12F037C016F038C017F042
:1024580002EC27F09B0E3724276E000E3820286EDA
:102468005AEC0AF037C012F038C013F0B5EC32F06D
:10247800520E3724126E000E3820136E20EE04F030
:102488003750D9263850DA22DECF14F0DDCF15F0D8
:1024980020EE06F03750D9263850DA22DECF16F073
:1024A800DDCF17F0D5EC28F00009D8B45EEF12F0B4
:1024B80060EF12F03AEF13F0000E186E080E09ECF8
:1024C80030F037C012F038C013F0B5EC32F03AEF04
:1024D80013F0040E3918D8A474EF12F076EF12F046
:1024E8007EEF12F037C01CF038C01DF018EC2AF04F
:1024F8003AEF13F00A0E3918D8A485EF12F087EFD7
:1025080012F03AEF13F037C025F038C026F0DEECB1
:1025180032F037C01CF038C01DF044EC29F020EE32
:1025280008F03750D9263850DA22030EDE18DE10AC
:10253800D8A4A1EF12F0A3EF12F0AFEF12F0000E43
:10254800146E010E136E0A0E156E010E166E95ECC2
:102558002FF03AEF13F020EE08F03750D926385014
:10256800DA22020EDE18DE10D8A4BDEF12F0BFEF9B
:1025780012F0CBEF12F0000E146E020E136E0A0E5C
:10258800156E010E166E95EC2FF03AEF13F020EE53
:1025980008F03750D9263850DA22DE04DE10D8A4E5
:1025A800D8EF12F0DAEF12F0CAEF11F0000E146E45
:1025B800030E136E0A0E156E010E166E95EC2FF0B3
:1025C8003AEF13F06A0E3724126E000E3820136E9D
:1025D80020EE04F03750D9263850DA22DECF14F036
:1025E800DDCF15F020EE06F03750D9263850DA2224
:1025F800DECF16F0DDCF17F0D5EC28F00009D8B4FF
:1026080008EF13F00AEF13F03AEF13F037C02BF08E
:1026180038C02CF008EC15F0000E186E0F0E09ECFF
:1026280030F0000E4D6E3AEF13F04D503A6E3B6AA3
:102638003B50000AD8B423EF13F03AEF13F03A50A6
:10264800000AD8B43BEF11F0010AD8B4CCEF11F06E
:10265800030AD8B46DEF12F0010AD8B43AEF13F0B8
:10266800070AD8B4E6EF12F03AEF13F0120023503D
:10267800800B306E23502324376E22AE46EF13F0C2
:1026880048EF13F049EF13F037803750D8B44FEFC5
:1026980013F051EF13F066EF13F03728D8A457EF73
:1026A80013F059EF13F061EF13F0000E206E000ED7
:1026B800216E000E226E000E236E228E000E236EF7
:1026C8006EEF13F0000E206E000E216E000E226ECB
:1026D800000E236E2750800B301A27502724386E9F
:1026E80026AE79EF13F07BEF13F07CEF13F0388010
:1026F8003850D8B482EF13F084EF13F099EF13F049
:102708003828D8A48AEF13F08CEF13F094EF13F065
:10271800000E246E000E256E000E266E000E276E2B
:10272800268E000E276EA1EF13F0000E246E000E09
:10273800256E000E266E000E276E245025102610DA
:102748002710D8A4AAEF13F0ACEF13F0C4EF13F0DE
:10275800000E206E000E216E000E226E000E236EFB
:10276800800E22127F0E23123050231220C020F038
:1027780021C021F022C022F023C023F007EF15F07A
:102788003750D8A4CAEF13F0CCEF13F0D6EF13F0FC
:10279800000E206E000E216E000E226E000E236EBB
:1027A80007EF15F0385037C028F0296A285E000E68
:1027B800295A7F0E2824316E000E2920326E20C03F
:1027C8002CF021C02DF022C02EF023C02FF0000ED7
:1027D800206E000E216E000E226E000E236E000E7B
:1027E800336E000E346E000E356E000E366E000E1F
:1027F800386E37EF14F03850D8B405EF14F007EFFF
:1028080014F01EEF14F0D8902C362D362E362F36B5
:10281800D890203621362236233636AE16EF14F0FD
:1028280018EF14F019EF14F02080D89033363436AE
:102838003536363624502C5C25502D5826502E58C7
:1028480027502F58D8A02BEF14F02DEF14F036EFA7
:1028580014F0368C24502C5E25502D5A26502E5AB2
:1028680027502F5A382A190E38643DEF14F03FEFDD
:1028780014F0FFEF13F02C502D102E102F10D8B499
:1028880048EF14F04AEF14F062EF14F0338062EF6F
:1028980014F0D890203621362236233636AE57EF3C
:1028A80014F059EF14F05AEF14F02080D890333612
:1028B8003436353636363106D8A0320622AE67EFC2
:1028C80014F069EF14F04DEF14F0000E386E36AEC8
:1028D80070EF14F072EF14F096EF14F0FF0E33144B
:1028E800286EFF0E3414296EFF0E35142A6E7F0EE3
:1028F80036142B6E285029102A102B10D8B487EFC5
:1029080014F089EF14F08DEF14F0010E386E96EF85
:1029180014F020A092EF14F094EF14F096EF14F056
:1029280089EF14F03850D8B49CEF14F09EEF14F0EF
:10293800C2EF14F0010E2026000E212222222322AB
:1029480023A0A9EF14F0ABEF14F0C2EF14F020C0ED
:1029580028F021C029F022C02AF023C02BF02B3404
:102968002B322A322932283228C020F029C021F0FF
:102978002AC022F02BC023F0314A322A32BECDEFD2
:1029880014F0325008E13128D8A0CDEF14F0CFEF81
:1029980014F0DAEF14F0000E326E3168000E206E7B
:1029A800000E216E000E226E000E236E32BEE7EF7F
:1029B80014F0325006E13104D8B0E5EF14F0E7EF37
:1029C80014F0F5EF14F0000E326E000E316E000EAA
:1029D800206E000E216E000E226E000E236E000E79
:1029E800306E31C037F037A0FCEF14F0FEEF14F072
:1029F80001EF15F0228E02EF15F0229ED8903730A5
:102A0800236EB8EF13F012002BC0D9FF2CC0DAFFE9
:102A18000B0EDE6E000EDD6E676820EE02F02B50A6
:102A2800D9262C50DA22000EDE6E000EDD6E20EE66
:102A380004F02B50D9262C50DA22000EDE6E000E40
:102A4800DD6E20EE06F02B50D9262C50DA22000E2F
:102A5800DE6E000EDD6E20EE08F02B50D9262C50CD
:102A6800DA22010EDE6E000EDD6ED40E2B24126EFD
:102A7800000E2C20136EF2EC32F0B40E2B24126EE2
:102A8800000E2C20136E9FEC30F020EEBEF02B5081
:102A9800D9262C50DA22010EDE6E000EDD6EC00E35
:102AA8002B24126E000E2C20136E000E156E000ED5
:102AB800146E1FEC2DF0CA0E2B24126E000E2C2063
:102AC800136E000E156E010E146E1FEC2DF0000E25
:102AD800136E820E126E000E156E320E146E000EFC
:102AE800176E5A0E166E000E196E140E186EFF0E23
:102AF8001B6E1A68000E1D6E000E1C6EB20E1E6E46
:102B08007F0E1F6E7B0E206E7F0E216E000E226ED2
:102B1800000E236E000E246E000E256E000E266E2B
:102B2800000E276E0A0E2B24286E000E2C20296E0C
:102B3800010E2A6E85EC26F0000E136E0A0E126E38
:102B4800000E156EFA0E146E000E176E460E166EF7
:102B5800000E196E140E186EFF0E1B6E1A68000E0A
:102B68001D6E000E1C6ED00E1E6E7F0E1F6E7B0E2D
:102B7800206E7F0E216E000E226E000E236E000E58
:102B8800246E000E256E000E266E000E276E220E95
:102B98002B24286E000E2C20296E020E2A6E85EC3E
:102BA80026F0000E136E960E126E000E156EFA0EBB
:102BB800146E000E176E460E166E000E196E140E69
:102BC800186EFF0E1B6E1A68000E1D6E000E1C6E2E
:102BD800D90E1E6E7F0E1F6E7B0E206E7F0E216E2D
:102BE800000E226E000E236E000E246E000E256E5F
:102BF800000E266E000E276E3A0E2B24286E000E4D
:102C08002C20296E030E2A6E85EC26F0000E136E1A
:102C1800D20E126E000E156E0A0E146E000E176E8E
:102C2800140E166E000E196E140E186EFF0E1B6E23
:102C38001A68F80E1D6E000E1C6EFC0E1E6E7F0EBE
:102C48001F6E7B0E206E7F0E216E000E226E000E10
:102C5800236E000E246E000E256E000E266E000EEA
:102C6800276E520E2B24286E000E2C20296E040E7F
:102C78002A6E85EC26F0000E136E960E126E000E6C
:102C8800156EDC0E146E000E176E460E166E000ED4
:102C9800196E320E186E000E1B6E000E1A6EFF0EA5
:102CA8001D6E1C68C70E1E6E7F0E1F6E7B0E206E7B
:102CB8007F0E216E000E226E000E236E000E246E13
:102CC800000E256E000E266E000E276E6A0E2B244F
:102CD800286E000E2C20296E050E2A6E85EC26F033
:102CE800000E136E320E126E000E156E6E0E146EFE
:102CF800000E176EA50E166E000E196E140E186EC5
:102D0800000E1B6E000E1A6EFF0E1D6E1C68F80E6C
:102D18001F6E000E1E6E000E216E000E206E000E3D
:102D2800236E0B0E226E000E246E000E256E820E90
:102D38002B24266E000E2C20276E7DEC27F0000E2B
:102D4800136E320E126E000E156EA00E146E000E6B
:102D5800176EA50E166E000E196E140E186E000E64
:102D68001B6E000E1A6EFF0E1D6E1C68F80E1F6E8D
:102D7800000E1E6E000E216E000E206E000E236ED9
:102D8800030E226E000E246E000E256E9B0E2B2461
:102D9800266E000E2C20276E7DEC27F012001C50AA
:102DA800216E1BC022F01250165C13501758D8B071
:102DB800E0EF16F0E2EF16F0EEEF16F012C01FF09B
:102DC80013C020F016C012F017C013F01FC016F081
:102DD80020C017F01450185C15501958D8B0F7EFE8
:102DE80016F0F9EF16F005EF17F014C01FF015C034
:102DF80020F018C014F019C015F01FC018F020C03A
:102E080019F01A04D8A40BEF17F00DEF17F06FEFB5
:102E180017F02A0E806E8B988B968B868B881350B2
:102E2800806E8B968B8612C080FF8B968B86175090
:102E3800806E8B968B8616C080FF8B968B862B0EAA
:102E4800806E8B988B968B868B881550806E8B96B0
:102E58008B8614C080FF8B968B86010E806E8B96B6
:102E68008B863F0E806E8B968B862C0E806E8B9891
:102E78008B968B868B8812C023F013C024F062EFE8
:102E880017F014C01DF015C01EF055EF17F021C043
:102E980080FF8B968B8622C080FF8B968B861D4A7F
:102EA8001E2A1D50185C1E501958D8B05EEF17F036
:102EB80060EF17F04BEF17F0234A242A2350165CD3
:102EC80024501758D8B06BEF17F06DEF17F045EF97
:102ED80017F06FEF18F02A0E806E8B988B968B8602
:102EE8008B881350806E8B968B8612C080FF8B96D2
:102EF8008B861750806E8B968B8616C080FF8B96BC
:102F08008B862B0E806E8B988B968B868B881550B4
:102F1800806E8B968B8614C080FF8B968B86010EF5
:102F2800806E8B968B863F0E806E8B968B862C0ED2
:102F3800806E8B988B968B868B8812C023F013C07B
:102F480024F0B1EF17F021C080FF8B968B8622C04A
:102F580080FF8B968B86234A242A2350165C2450A4
:102F68001758D8B0BAEF17F0BCEF17F0A7EF17F063
:102F78002B0E806E8B988B968B868B881950806E63
:102F88008B968B8618C080FF8B968B862C0E806E56
:102F98008B988B968B868B8812C023F013C024F0F5
:102FA800E0EF17F021C080FF8B968B8622C080FF50
:102FB8008B968B86234A242A2350165C2450175854
:102FC800D8B0E9EF17F0EBEF17F0D6EF17F02A0EAD
:102FD800806E8B988B968B868B881350806E8B9621
:102FE8008B8612C080FF8B968B861350806E8B96D3
:102FF8008B8612C080FF8B968B862B0E806E8B98EB
:103008008B968B868B881550806E8B968B8614C01A
:1030180080FF8B968B86010E806E8B968B863F0E7B
:10302800806E8B968B862C0E806E8B988B968B86FB
:103038008B8814C023F015C024F02DEF18F021C0A0
:1030480080FF8B968B8622C080FF8B968B86234AC7
:10305800242A2350185C24501958D8B036EF18F099
:1030680038EF18F023EF18F02A0E806E8B988B96A5
:103078008B868B881750806E8B968B8616C080FF48
:103088008B968B861750806E8B968B8616C080FF2A
:103098008B968B862C0E806E8B988B968B868B8866
:1030A80014C023F015C024F064EF18F021C080FF8D
:1030B8008B968B8622C080FF8B968B86234A242A88
:1030C8002350185C24501958D8B06DEF18F06FEFE2
:1030D80018F05AEF18F012002FC068F030C069F0ED
:1030E80031C06AF032C06BF033C06CF034C06DF0A0
:1030F80035C06EF036C06FF000016FBF86EF18F074
:1031080089EF18F0010E8AEF18F0000E666F676BF2
:1031180066516711D8B493EF18F095EF18F0A5EF42
:1031280018F06F1F6E1F6D1F6C1F6B1F6A1F691FC2
:10313800686D000E69236A236B236C236D236E234D
:103148006F234ABEAAEF18F0ACEF18F0ADEF18F0F5
:103158004B924ABEBAEF18F04A5006E14904D8B07B
:10316800B8EF18F0BAEF18F0C0EF18F0000E636F60
:10317800010E626FC4EF18F049C062F04AC063F0F4
:1031880047C064F048C065F066516711D8A4CFEF16
:1031980018F0D1EF18F0D8EF18F04BA4D6EF18F0CC
:1031A800D8EF18F0DBEF18F06407D8A06507000E19
:1031B800716F1F0E706F000EFF6F60EF19F07007D0
:1031C800D8A07107E00E7025D96E000E7121DA6E55
:1031D80068C012F069C013F06AC014F06BC015F033
:1031E8006CC016F06DC017F06EC018F06FC019F003
:1031F8000A0E1A6E000E1B6E000E1C6E000E1D6E5F
:10320800000E1E6E000E1F6E000E206E000E216E48
:10321800C1EC20F012C037F013C038F014C039F0F8
:1032280015C03AF016C03BF017C03CF018C03DF08E
:1032380019C03EF037C024F039C025F043EC32F015
:103248002450300FDF6E00016207D8A063076407BF
:10325800D8A0650768C012F069C013F06AC014F0FE
:103268006BC015F06CC016F06DC017F06EC018F08A
:103278006FC019F00A0E1A6E000E1B6E000E1C6E3F
:10328800000E1D6E000E1E6E000E1F6E000E206ECC
:10329800000E216EFDEC1FF012C068F013C069F03B
:1032A80014C06AF015C06BF016C06CF017C06DF052
:1032B80018C06EF019C06FF0000171BF6CEF19F003
:1032C800715108E17005D8A06CEF19F06EEF19F094
:1032D8009EEF19F0685169116A116B116C116D112B
:1032E8006E116F11D8A47BEF19F07DEF19F0E3EFA1
:1032F80018F063BF8AEF19F0635106E16205D8B090
:1033080088EF19F08AEF19F0E3EF18F065BF95EF31
:1033180019F0655108E16405D8A095EF19F097EF09
:1033280019F09EEF19F04BB29CEF19F09EEF19F0CF
:10333800E3EF18F066516711D8A4A5EF19F0A7EFCD
:1033480019F0AEEF19F04BA4ACEF19F0AEEF19F08D
:10335800CCEF19F07007D8A0710766516711D8A48F
:10336800B8EF19F0BAEF19F0C0EF19F0000E616F5D
:103378002B0E606FC4EF19F0000E616F2D0E606F99
:10338800E00E7025D96E000E7121DA6E60C0DFFF85
:103398002DC022F02EC023F0E00E7025246E000E02
:1033A8007121256E64C026F065C027F044EC2BF02F
:1033B80022C02DF023C02EF012007FEC2EF0110E4B
:1033C800806E8B988B968B868B88000E186ED00E2D
:1033D800176ECA0EE82EFED7172EFCD7182A090E2C
:1033E8001864F9EF19F0FBEF19F0EBEF19F0360E4E
:1033F800806E8B988B968B868B88000E806E8B9652
:103408008B863A0E806E8B988B968B868B88550EA2
:10341800806E8B968B86B20E806E8B988B968B8681
:103428008B880C0E806E8B968B860C0E806E8B961E
:103438008B86330E806E8B968B86330E806E8B96C2
:103448008B86B70E806E8B988B968B868B88350E05
:10345800806E8B968B86BB0E806E8B988B968B8638
:103468008B882B0E806E8B968B86C00E806E8B9809
:103478008B968B868B882C0E806E8B968B86C20ED5
:10348800806E8B988B968B868B88010E806E8B96C0
:103498008B8680688B968B86C30E806E8B988B96F6
:1034A8008B868B88110E806E8B968B86C40E806EF1
:1034B8008B988B968B868B88200E806E8B968B864E
:1034C800C60E806E8B988B968B868B88090E806EC5
:1034D8008B968B86D00E806E8B988B968B868B887E
:1034E800A40E806E8B968B86A10E806E8B968B8633
:1034F800E00E806E8B988B968B868B88D00E806EB4
:103508008B968B86000E806E8B968B86050E806E52
:103518008B968B860E0E806E8B968B86150E806E24
:103528008B968B860D0E806E8B968B86370E806EF3
:103538008B968B86430E806E8B968B86470E806E9D
:103548008B968B86090E806E8B968B86150E806EF9
:103558008B968B86120E806E8B968B86160E806EDF
:103568008B968B86190E806E8B968B86E10E806EFD
:103578008B988B968B868B88D00E806E8B968B86DD
:10358800000E806E8B968B86050E806E8B968B86D2
:103598000D0E806E8B968B860C0E806E8B968B86AE
:1035A800060E806E8B968B862D0E806E8B968B8684
:1035B800440E806E8B968B86400E806E8B968B8623
:1035C8000E0E806E8B968B861C0E806E8B968B866D
:1035D800180E806E8B968B86160E806E8B968B8659
:1035E800190E806E8B968B862A0E806E8B988B9622
:1035F8008B868B88000E806E8B968B86000E806E75
:103608008B968B86000E806E8B968B86EF0E806E67
:103618008B968B862B0E806E8B988B968B868B88E1
:10362800000E806E8B968B86000E806E8B968B8636
:10363800010E806E8B968B863F0E806E8B968B86E6
:10364800260E806E8B988B968B868B88010E806EEB
:103658008B968B86290E806E8B988B968B868B88A3
:10366800120053EF1CF0F19A2BEC33F069EF1CF0C9
:10367800F096000EB0EC31F0C2B245EF1BF047EF08
:103688001BF040EF1BF0C4500001936F926BC350C6
:103698009225AE6F000E9321AF6FAF5107E1790EFF
:1036A800AE5DD8B05AEF1BF05CEF1BF060EF1BF07B
:1036B800000EAF6F780EAE6F660E246E660E256E26
:1036C800160E266E400E276E880E926FFF0E936FB1
:1036D800AEC094F0AFC095F09251942793519523C2
:1036E80094C012F095C013F0146A156A000E85ECA8
:1036F8001DF012C020F013C021F014C022F015C034
:1037080023F03BEC13F020C039F021C03AF022C07E
:103718003BF023C03CF000EC25F039C0AEF03AC0D5
:10372800AFF00001AE51F008AE6FAF51D8A0E82A53
:103738000008AF6F010EB0EC31F0C2B2A6EF1BF07B
:10374800A8EF1BF0A1EF1BF0C4500001936F926B20
:10375800C3509225AC6F000E9321AD6FAD5107E1B8
:103768006A0EAC5DD8B0BBEF1BF0BDEF1BF0C1EF2C
:103778001BF0000EAD6F690EAC6F970E926FFF0EC7
:10378800936FACC094F0ADC095F0925194279351CB
:103798009523D8909531966F9431AC6F96C0ADF063
:1037A800000E146E090E136E040E156E000E166EC2
:1037B80095EC2FF0280EC26E2BEC33F081B2E7EFB8
:1037C8001BF0E9EF1BF069EF1CF0980E0001826F07
:1037D800000E836FEA0E846F7F0E856FAEC086F091
:1037E800AFC087F087EC31F0980E206E000E216E86
:1037F8007B0E226E7F0E236E010E246E000E266E47
:10380800C80E256E000E286EC80E276E000E2A6E92
:10381800000E296EFF0E2C6E2B6814EC0FF090C072
:1038280012F091C013F0AEC014F0AFC015F05EEC0A
:1038380033F0980E0001826F000E836FF00E846FD4
:103848007F0E856FACC086F0ADC087F087EC31F095
:10385800980E206E000E216E7B0E226E7F0E236E58
:10386800010E246E000E266EC80E256E000E286E00
:10387800FA0E276E000E2A6E000E296EFF0E2C6EB1
:103888002B6814EC0FF090C012F091C013F0ACC08C
:1038980014F0ADC015F053EC33F069EF1CF00001E3
:1038A800DE51926F936B9351000AD8B45EEF1CF00F
:1038B80069EF1CF09251000AD8B437EF1BF0010AE7
:1038C800D8B43CEF1BF069EF1CF0120025C0D9FFFB
:1038D80026C0DAFFDECF33F0DDCF34F020EE04F07F
:1038E8002550D9262650DA22DECF27F0DDCF28F062
:1038F80025C0D9FF26C0DAFFDECF29F0DDCF2AF0B8
:10390800275029242F6E28502A20306E20EE02F0EE
:103918002550D9262650DA22DECF31F0DDCF32F01D
:1039280020EE06F02550D9262650DA22DECF27F0E1
:10393800DDCF28F020EE02F02550D9262650DA22D5
:10394800DECF29F0DDCF2AF027502924356E285004
:103958002A20366E20EE10F02550D9262650DA227D
:10396800DF50D8A4BAEF1CF0BCEF1CF0D2EF1CF06B
:1039780020EE08F02550D9262650DA22DECF2BF08B
:10398800DDCF2CF020EE0AF02550D9262650DA2279
:10399800DECF2DF0DDCF2EF0ECEF1CF033C012F0AF
:1039A80034C013F0010E3524146E000E3620156E47
:1039B8001EEC22F012C02BF013C02CF020EE08F001
:1039C8002550D9262650DA22DECF2DF0DDCF2EF075
:1039D80020EE08F02550D9262650DA2210EE0AF0FB
:1039E8002550E1262650E222DE50E61809E1DE5095
:1039F800E618D8B402EF1DF004EF1DF084EF1DF0B7
:103A0800030E3324126E000E3420136E010E35247B
:103A1800146E000E3620156E030E2F24166E000E3F
:103A28003020176E030E3524186E000E3620196EDE
:103A3800010E1A6E2BC01BF02CC01CF0D3EC16F034
:103A4800010E2F24126E000E3020136E030E312447
:103A5800146E000E3220156E030E2F24166E000E03
:103A68003020176E030E3524186E000E3620196E9E
:103A7800010E1A6E2BC01BF02CC01CF0D3EC16F0F4
:103A8800010E3324126E000E3420136E010E312401
:103A9800146E000E3220156EFF0E2F24166EFF0EC8
:103AA8003020176E020E3124186E000E3220196E67
:103AB800010E1A6E2DC01BF02EC01CF0D3EC16F0B0
:103AC800010E3324126E000E3420136E010E3124C1
:103AD800146E000E3220156E020E3324166E000E80
:103AE8003420176EFF0E3524186EFF0E3620196E1F
:103AF800010E1A6E2DC01BF02EC01CF0D3EC16F070
:103B080012001A6E1A50D8B48CEF1DF08EEF1DF00B
:103B1800B0EF1DF015BE95EF1DF093EF1DF0B0EF5F
:103B28001DF012C016F013C017F014C018F015C01D
:103B380019F0161E171E181E191E162A000E172217
:103B48001822192216C01CF017C01DF018C01EF04C
:103B580019C01FF0B8EF1DF012C01CF013C01DF003
:103B680014C01EF015C01FF01250131014101510B9
:103B7800D8A4C1EF1DF0C3EF1DF0CDEF1DF0000E6E
:103B8800126E000E136E000E146E000E156E5EEFB0
:103B98001EF0960E1B6ED7EF1DF01B2AD8901F3211
:103BA8001E321D321C32000E1C14166E000E1D141F
:103BB800176E000E1E14186EFE0E1F14196E165086
:103BC800171018101910D8A4ECEF1DF0EEEF1DF027
:103BD800D1EF1DF0FCEF1DF01B2A010E1C26000E74
:103BE8001D221E221F22D8901F321E321D321C3267
:103BF800000E1C14166E000E1D14176E000E1E14F7
:103C0800186EFF0E1F14196E165017101810191081
:103C1800D8A411EF1EF013EF1EF0F0EF1DF01BEF0C
:103C28001EF01B06D8901C361D361E361F361EBECB
:103C380020EF1EF022EF1EF02AEF1EF0020E1B608E
:103C480028EF1EF02AEF1EF015EF1EF01BB02FEF25
:103C58001EF031EF1EF032EF1EF01E9ED8901B3280
:103C68001BC016F0176A186A196A16C019F0186A84
:103C7800176A166A16501C1217501D1218501E1279
:103C880019501F121A50D8B44CEF1EF04EEF1EF008
:103C980056EF1EF015BE55EF1EF053EF1EF056EF0F
:103CA8001EF01F8E1CC012F01DC013F01EC014F0B1
:103CB8001FC015F0120041C0D9FF42C0DAFFDECFA5
:103CC800F6FFDDCFF7FF0800F550250AD8A46FEFFF
:103CD8001EF071EF1EF01DEF1FF041C0D9FF42C06A
:103CE800DAFFDE2A000EDD22000E486E000E476E57
:103CF80047C04BF048C04CF049684A6841C0D9FFFA
:103D080042C0DAFFDECFF6FFDDCFF7FF0800F5503F
:103D1800640AD8B492EF1EF094EF1EF0A6EF1EF0DE
:103D280041C0D9FF42C0DAFFDECFF6FFDDCFF7FF93
:103D38000800F550690AD8A4A4EF1EF0A6EF1EF0FB
:103D4800E7EF1EF041C0D9FF42C0DAFFDE2A000EBD
:103D5800DD2243C0D9FF44C0DAFFDFCF45F0020EB1
:103D6800DE26DFCF46F0000EDD2245C0D9FF46C073
:103D7800DAFFDECF72F0DDCF73F00001000E73BF03
:103D8800FF0E746F756F766F776F786F796F3FC0BE
:103D98002DF040C02EF072C02FF073C030F074C008
:103DA80031F075C032F076C033F077C034F078C0A7
:103DB80035F079C036F070EC18F02DC03FF02EC009
:103DC80040F038EF1FF041C0D9FF42C0DAFFDECF24
:103DD800F6FFDDCFF7FF0800F550250AD8A4F7EF66
:103DE8001EF0F9EF1EF010EF1FF041C0D9FF42C0DE
:103DF800DAFFDE2A000EDD22000E136E250E126E8B
:103E08003FC014F040C015F07DEC2AF0000E406E63
:103E1800010E3F6E38EF1FF041C0D9FF42C0DAFFF4
:103E2800DE2A000EDD22000E406E000E3F6E38EFD7
:103E38001FF041C0D9FF42C0DAFFDECFF6FFDDCF69
:103E4800F7FF0800F550126E136A3FC014F040C027
:103E580015F07DEC2AF041C0D9FF42C0DAFFDE2A16
:103E6800000EDD220AEF1FF01200406EDBEF1FF09C
:103E78003CC037F03DC038F0000E396E39EC11F017
:103E8800070E4018D8A44BEF1FF04DEF1FF04FEF6F
:103E98001FF0010E4D6E050E4018D8A456EF1FF006
:103EA80058EF1FF0FCEF1FF0020E4D6E20EE08F0E9
:103EB8003C50D9263D50DA22030EDE18DE10D8A475
:103EC80068EF1FF06AEF1FF076EF1FF0000E146E18
:103ED800010E136E0A0E156E010E166E95EC2FF07C
:103EE800FCEF1FF020EE08F03C50D9263D50DA22B6
:103EF800020EDE18DE10D8A484EF1FF086EF1FF044
:103F080092EF1FF0000E146E020E136E0A0E156E5D
:103F1800010E166E95EC2FF0FCEF1FF020EE08F066
:103F28003C50D9263D50DA22DE04DE10D8A49FEF9B
:103F38001FF0A1EF1FF0ADEF1FF0000E146E030E7F
:103F4800136E0A0E156E010E166E95EC2FF0FCEF2F
:103F58001FF0FCEF1FF03CC037F03DC038F0000EFA
:103F6800396E39EC11F0080E4018D8A4BEEF1FF0D6
:103F7800C0EF1FF0FCEF1FF0000E4D6EFCEF1FF0BE
:103F8800090E4018D8A4CBEF1FF0CDEF1FF0D1EFEA
:103F98001FF0040E4D6EFCEF1FF03CC037F03DC023
:103FA80038F040C039F039EC11F0FCEF1FF04D50FB
:103FB8003E6E3F6A3F50000AD8B4E5EF1FF0FCEFB1
:103FC8001FF03E50000AD8B43CEF1FF0010AD8B4E5
:103FD800AFEF1FF0030AD8B4C4EF1FF0010AD8B43A
:103FE800FCEF1FF0070AD8B4D1EF1FF0FCEF1FF069
:103FF8001200000E236E21BE06EF20F004EF20F021
:1040080018EF20F0211E201E1F1E1E1E1D1E1C1E26
:104018001B1E1A6C000E1B221C221D221E221F2290
:1040280020222122010E236E19BE1FEF20F01DEF62
:1040380020F031EF20F0191E181E171E161E151E2F
:10404800141E131E126C000E13221422152216229F
:10405800172218221922010E231A20EE24F0070E27
:10406800DE6AE806FDE21A501B101C101D101E1017
:104078001F1020102110D8B444EF20F046EF20F094
:1040880098EF20F0010E226E54EF20F0D8901A36E7
:104098001B361C361D361E361F3620362136222A80
:1040A80021AE59EF20F05BEF20F04AEF20F0D890D6
:1040B8002436253626362736283629362A362B360C
:1040C8001A50125C1B5013581C5014581D50155888
:1040D8001E5016581F50175820501858215019585C
:1040E800D8A079EF20F07BEF20F08CEF20F01A5069
:1040F800125E1B50135A1C50145A1D50155A1E504C
:10410800165A1F50175A2050185A2150195A2480ED
:10411800D890213220321F321E321D321C321B32FF
:104128001A32222E5BEF20F02350D8B49EEF20F0F5
:10413800A0EF20F0B0EF20F02B1E2A1E291E281E0B
:10414800271E261E251E246C000E25222622272225
:10415800282229222A222B2224C012F025C013F05B
:1041680026C014F027C015F028C016F029C017F093
:104178002AC018F02BC019F01200000E236E19BEC9
:10418800CAEF20F0C8EF20F0DCEF20F0191E181E4F
:10419800171E161E151E141E131E126C000E132257
:1041A800142215221622172218221922010E236E14
:1041B80021BEE3EF20F0E1EF20F0F3EF20F0211E25
:1041C800201E1F1E1E1E1D1E1C1E1B1E1A6C000EEE
:1041D8001B221C221D221E221F22202221221A50AD
:1041E8001B101C101D101E101F1020102110D8B4F9
:1041F80000EF21F002EF21F04AEF21F0010E226ECC
:1042080010EF21F0D8901A361B361C361D361E3694
:104218001F3620362136222A21AE15EF21F017EF5E
:1042280021F006EF21F01A50125C1B5013581C5055
:1042380014581D5015581E5016581F501758205006
:10424800185821501958D8A02CEF21F02EEF21F042
:104258003EEF21F01A50125E1B50135A1C50145A8C
:104268001D50155A1E50165A1F50175A2050185ACA
:104278002150195AD890213220321F321E321D3255
:104288001C321B321A32222E17EF21F02350D8B4D9
:1042980050EF21F052EF21F062EF21F0191E181EA5
:1042A800171E161E151E141E131E126C000E132246
:1042B80014221522162217221822192212C012F0CF
:1042C80013C013F014C014F015C015F016C016F082
:1042D80017C017F018C018F019C019F0120020EE16
:1042E80004F02550D9262650DA22DECF27F0DDCF7C
:1042F80028F0F80E2724126EFF0E2820136E20EEE9
:1043080006F02550D9262650DA22DECF29F0DDCF57
:104318002AF0F80E2924146EFF0E2A20156E20EEBE
:1043280004F02550D9262650DA22DECF2BF0DDCF37
:104338002CF0080E2B24166E000E2C20176E20EE83
:1043480006F02550D9262650DA22DECF2DF0DDCF13
:104358002EF0080E2D24186E000E2E20196E010E58
:104368001A6E000E1C6E000E1B6ED3EC16F025C0E4
:10437800D9FF26C0DAFF10EE04F02550E1262650BA
:10438800E222DECFE6FFDDCFE5FF20EE02F025508A
:10439800D9262650DA2210EE06F02550E1262650BE
:1043A800E222DECFE6FFDDCFE5FF25C0D9FF26C03C
:1043B800DAFFDECF27F0DDCF28F0F80E2724126EC3
:1043C800FF0E2820136E20EE02F02550D926265025
:1043D800DA22DECF29F0DDCF2AF0F80E2924146E78
:1043E800FF0E2A20156E25C0D9FF26C0DAFFDECFC2
:1043F8002BF0DDCF2CF0080E2B24166E000E2C208F
:10440800176E20EE02F02550D9262650DA22DECF8C
:104418002DF0DDCF2EF0080E2D24186E000E2E2064
:10442800196E010E1A6EF80E1C6E000E1B6ED3EC80
:1044380016F012002A0E806E8B988B968B868B88CE
:104448001350806E8B968B8612C080FF8B968B865E
:10445800000E806E8B968B86EF0E806E8B968B8609
:104468002B0E806E8B988B968B868B881550806E62
:104478008B968B8614C080FF8B968B86010E806E80
:104488008B968B863F0E806E8B968B862E0E806E5B
:104498008B988B968B868B8892688B9400F08B8494
:1044A80092688B9400F080CF1AF01B6A8B841AC034
:1044B80016F01BC017F0D89017321632D890173262
:1044C8001632D8901732163216C01AF017C01BF0E1
:1044D8001AC016F01BC017F00B0ED89016361736F8
:1044E800E82E71EF22F016C018F017C019F08B945F
:1044F80000F080CF1AF01B6A8B841AC016F01BC01C
:1045080017F0D89017321632D8901732163216C0D4
:104518001AF017C01BF01AC016F01BC017F0050ED2
:10452800D89016361736E82E94EF22F01650181247
:10453800175019128B9400F080501A128B841AC0ED
:1045480016F01BC017F0D89017321632D8901732D1
:104558001632D8901732163216C01AF017C01BF050
:104568001A5018121B501912000E926E18C012F031
:1045780019C013F0120020EE04F02550D926265059
:10458800DA22DECF12F0DDCF13F020EE06F0255050
:10459800D9262650DA22DECF14F0DDCF15F020EE32
:1045A80004F02550D9262650DA22DECF27F0DDCFB9
:1045B80028F0320E2724166E000E2820176E20EEE3
:1045C80006F02550D9262650DA22DECF29F0DDCF95
:1045D8002AF00A0E2924186E000E2A20196E010EE0
:1045E8001A6E000E1C6E000E1B6ED3EC16F025C062
:1045F800D9FF26C0DAFF10EE04F02550E126265038
:10460800E222DECFE6FFDDCFE5FF20EE02F0255007
:10461800D9262650DA2210EE06F02550E12626503B
:10462800E222DECFE6FFDDCFE5FF25C0D9FF26C0B9
:10463800DAFFDECF12F0DDCF13F020EE02F02550C6
:10464800D9262650DA22DECF14F0DDCF15F025C0AA
:10465800D9FF26C0DAFFDECF27F0DDCF28F0320EF3
:104668002724166E000E2820176E20EE02F0255023
:10467800D9262650DA22DECF29F0DDCF2AF00A0E1D
:104688002924186E000E2A20196E010E1A6E20EECB
:1046980008F02550D9262650DA22DECF1BF0DDCFD0
:1046A8001CF0D3EC16F01200000E0D6E000E0C6E0E
:1046B8000CC001F00DC002F0000E046E030E036E74
:1046C80018EC33F0B70E0124D96E000E0220DA6E12
:1046D800DF50D8B472EF23F074EF23F0D8EF23F053
:1046E8000CC001F00DC002F0000E046E030E036E44
:1046F80018EC33F0B50E0124D96E000E0220DA6EE4
:10470800DE06000EDD5A0CC001F00DC002F0000EEE
:10471800046E030E036E18EC33F0B50E0124D96E47
:10472800000E0220DA6EDE50DE10D8A49EEF23F0D1
:10473800A0EF23F0D8EF23F0010E076E0CC001F0B4
:104748000DC002F0000E046E030E036E18EC33F079
:10475800B70E0124D96E000E0220DA6EDF506DEC20
:1047680030F0E806D8A4BBEF23F0BDEF23F0C4EF88
:1047780023F0010E026E0C5063EC32F0D8EF23F0F8
:104788000CC001F00DC002F0000E046E030E036EA3
:1047980018EC33F0B50E0124D96E000E0220DA6E43
:1047A800010EDE6E000EDD6E0C4A0D2A0DBEE6EF20
:1047B80023F00D5009E1080E0C5CD8A0E6EF23F0B9
:1047C800E8EF23F05CEF23F01200FF0E136E12687F
:1047D800A5EC2BF09C0E206E7F0E216E7B0E226EB8
:1047E8007F0E236E000E246E000E266E0A0E256EB6
:1047F800000E286E320E276E000E2A6E000E296EED
:10480800FF0E2C6E2B6814EC0FF0520E00019C2545
:104818007C6F000E9D217D6FE3EC07F09CC0D9FFF3
:104828009DC0DAFF000110EE93F09C51E1269D51E6
:10483800E222DECFE6FFDDCFE5FF820E9C25376E54
:10484800000E9D21386E79EC24F0A70E206E7F0EA5
:10485800216E7B0E226E7F0E236E000E246E000EDC
:10486800266E320E256E000E286E5F0E276E000E25
:104878002A6E000E296EFF0E2C6E2B6814EC0FF0BA
:10488800000120EE08F09C51D9269D51DA2210EE45
:10489800ACF09C51E1269D51E222DECFE6FFDDCF50
:1048A800E5FF9B0E9C25376E000E9D21386E79EC36
:1048B80024F0F60E206E7F0E216E7B0E226E7F0E88
:1048C800236E000E246E000E266E320E256E000E2C
:1048D800286E910E276E000E2A6E000E296EFF0EAE
:1048E8002C6E2B6814EC0FF0120037C0D9FF38C0BB
:1048F800DAFFDECF3DF0DDCF3EF020EE04F037509A
:10490800D9263850DA22DECF39F0DDCF3AF037C079
:10491800D9FF38C0DAFFDECF3BF0DDCF3CF03950AD
:104928003B243F6E3A503C20406E20EE02F0375058
:10493800D9263850DA22DECF41F0DDCF42F020EE22
:1049480006F03750D9263850DA22DECF39F0DDCFDD
:104958003AF020EE02F03750D9263850DA22DECF6E
:104968003BF0DDCF3CF039503B24436E3A503C20BD
:10497800446E3DC012F03EC013F041C014F042C076
:1049880015F03FC016F040C017F043C018F044C0FF
:1049980019F0010E1A6E20EE0AF03750D926385059
:1049A800DA22DECF1BF0DDCF1CF0D3EC16F03DC0D1
:1049B80012F03EC013F041C014F042C015F03FC0E1
:1049C80016F040C017F043C018F044C019F0000EAC
:1049D8001A6E20EE0CF03750D9263850DA22DECF86
:1049E8001BF0DDCF1CF0D3EC16F037C027F038C031
:1049F80028F05AEC0AF012003B343C34426E425024
:104A0800D8A409EF25F00BEF25F015EF25F0000EDF
:104A1800396E000E3A6E000E3B6E000E3C6E82EF51
:104A280025F039C03DF03AC03EF03BC03FF03CC0F5
:104A380040F0200E25EF25F0D89040323F323E322C
:104A48003D32E82E20EF25F03D50416E3B8EFF0EA3
:104A58003916FF0E3A16FF0E3B16000E3C16960E40
:104A6800425E42BE3CEF25F03AEF25F052EF25F0CA
:104A78004250800A970FD8B044EF25F046EF25F052
:104A880048EF25F00BEF25F0D8903C323B323A3214
:104A98003932423E48EF25F06AEF25F01F0E426496
:104AA80058EF25F05AEF25F062EF25F00BEF25F0CF
:104AB800D89039363A363B363C3642064250D8A46E
:104AC80068EF25F06AEF25F05CEF25F04150D8B487
:104AD80070EF25F072EF25F07AEF25F03C1E3B1EB3
:104AE8003A1E396C000E3A223B223C2239C039F07A
:104AF8003AC03AF03BC03BF03CC03CF01200E6EF55
:104B080025F09EC09CF09FC09DF059EC2FF004EF5B
:104B180026F09EC09CF09FC09DF0E9EC23F004EFC6
:104B280026F00B0EA019D8A49CEF25F09EEF25F0D7
:104B3800A6EF25F0C00E9E25256E000E9F21266E3D
:104B4800BFEC22F00C0E0001A019D8A4AEEF25F09E
:104B5800B0EF25F0B8EF25F0CA0E9E25256E000EA1
:104B68009F21266EBFEC22F00D0E0001A019D8A4DB
:104B7800C0EF25F0C2EF25F0CAEF25F0B40E9E2550
:104B8800256E000E9F21266E73EC21F00E0E00019B
:104B9800A019D8A4D2EF25F0D4EF25F004EF26F021
:104BA800D40E9E25906F000E9F21916FAFEC29F0D7
:104BB80004EF26F09EC09CF09FC09DF077EC2DF08E
:104BC80004EF26F00001DD51A16FA26BA251000A8B
:104BD800D8B4F1EF25F004EF26F0A151000AD8B4BB
:104BE80085EF25F0010AD8B48DEF25F0030AD8B473
:104BF80095EF25F0010AD8B4DEEF25F004EF26F092
:104C080012000001A76F66EF26F0050EA719D8B4A9
:104C180010EF26F012EF26F01BEF26F0060EA7196C
:104C2800D8A419EF26F01BEF26F02BEF26F0020E82
:104C3800DD6FA3C092F0A4C093F05CEC31F0A3C088
:104C48009EF0A4C09FF0A7C0A0F083EC25F0070E4B
:104C58000001A719D8A433EF26F035EF26F084EF2A
:104C680026F0010EDD6FA3C09EF0A4C09FF0A7C080
:104C7800A0F083EC25F084EF26F0080EA719D8A43D
:104C880048EF26F04AEF26F084EF26F0000EDD6F9D
:104C980037EF26F0090EA719D8A455EF26F057EFDD
:104CA80026F037EF26F0030EDD6F37EF26F00F0EF4
:104CB800A719D8A462EF26F064EF26F084EF26F057
:104CC8004AEF26F00001DD51A56FA66BA651000A38
:104CD800D8B471EF26F084EF26F0A551000AD8B4B5
:104CE80009EF26F0010AD8B441EF26F0030AD8B438
:104CF8004EEF26F0010AD8B45BEF26F084EF26F0D9
:104D0800120028C0D9FF29C0DAFF12C0DEFF13C085
:104D1800DDFF20EE02F02850D9262950DA2214C0EF
:104D2800DEFF15C0DDFF20EE06F02850D9262950F9
:104D3800DA2218C0DEFF19C0DDFF20EE04F028508B
:104D4800D9262950DA2216C0DEFF17C0DDFF20EE73
:104D580008F02850D9262950DA221AC0DEFF1BC0D5
:104D6800DDFF20EE0AF02850D9262950DA221CC08F
:104D7800DEFF1DC0DDFF20EE0CF02850D92629509B
:104D8800DA221EC0DEFF1FC0DDFF20EE0EF0285025
:104D9800D9262950DA2220C0DEFF21C0DDFF20EE0F
:104DA80011F02850D9262950DA2222C0DEFF23C06C
:104DB800DDFF20EE13F02850D9262950DA2224C02E
:104DC800DEFF25C0DDFF20EE15F02850D92629503A
:104DD800DA2226C0DEFF27C0DDFF20EE17F02850BC
:104DE800D9262950DA222AC0DFFF20EE10F02850F9
:104DF800D9262950DA22000EDF6E120020EE04F0C8
:104E08001650D9261750DA22010EDB5009E1690E37
:104E1800DE5CD8A012EF27F014EF27F032EF27F06E
:104E280020EE04F01650D9261750DA22010EDB5076
:104E380007E1A00EDE5CD8B024EF27F026EF27F0BC
:104E480032EF27F016C012F017C013F0000E156EDF
:104E5800020E146E69EC33F06CEF27F020EE04F0CC
:104E68001650D9261750DA22010EDB5009E1A00EA0
:104E7800DE5CD8A042EF27F044EF27F062EF27F07E
:104E880020EE04F01650D9261750DA22010EDB5016
:104E980007E1D70EDE5CD8B054EF27F056EF27F0C5
:104EA80062EF27F016C012F017C013F0000E156E4F
:104EB800030E146E69EC33F06CEF27F016C012F095
:104EC80017C013F0000E156E010E146E69EC33F066
:104ED80020EE08F01650D9261750DA2210EEACF062
:104EE8001650E1261750E222DECFE6FFDDCFE5FFC0
:104EF800120026C0D9FF27C0DAFF12C0DEFF13C098
:104F0800DDFF20EE02F02650D9262750DA2214C001
:104F1800DEFF15C0DDFF20EE06F02650D92627500B
:104F2800DA2218C0DEFF19C0DDFF20EE04F026509B
:104F3800D9262750DA2216C0DEFF17C0DDFF20EE83
:104F480008F02650D9262750DA221AC0DEFF1BC0E7
:104F5800DDFF20EE0AF02650D9262750DA221CC0A1
:104F6800DEFF1DC0DDFF20EE0CF02650D9262750AD
:104F7800DA221EC0DEFF1FC0DDFF20EE0EF0265035
:104F8800D9262750DA2220C0DEFF21C0DDFF20EE1F
:104F980017F02650D9262750DA2224C0DEFF25C074
:104FA800DDFF20EE15F02650D9262750DA2222C040
:104FB800DEFF23C0DDFF20EE11F02650D926275052
:104FC800DA22000EDE6E000EDD6E20EE13F02650A3
:104FD800D9262750DA22000EDE6E000EDD6E120092
:104FE80016041710D8A4FBEF27F0FDEF27F032EFD7
:104FF80028F012C0D9FF13C0DAFFDECF18F0DDCFDA
:1050080019F0145018261550192212C0D9FF13C0D0
:10501800DAFF18C0DEFF19C0DDFF12C0D9FF13C0C8
:10502800DAFFDECF18F0DDCF19F0320E1826000EA9
:105038001922195009E1F00E185CD8A026EF28F0C3
:1050480028EF28F065EF28F012C0D9FF13C0DAFF67
:10505800BD0EDE6E000EDD6E65EF28F0010E142425
:10506800186E000E1520196E12C0D9FF13C0DAFF92
:105078001850DE5C1950DE58D8B045EF28F047EFDD
:1050880028F051EF28F012C0D9FF13C0DAFF000E44
:10509800DE6E000EDD6E65EF28F012C0D9FF13C07A
:1050A800DAFFDECF18F0DDCF19F01450185E155076
:1050B800195A12C0D9FF13C0DAFF18C0DEFF19C091
:1050C800DDFF120012C0D9FF13C0DAFFDE50145CF6
:1050D800DE501558D8B073EF28F075EF28F078EF48
:1050E80028F0000ED4EF28F020EE04F01250D92654
:1050F8001350DA22DECF18F0DDCF19F012C0D9FF35
:1051080013C0DAFFDECF1AF0DDCF1BF018501A26D5
:1051180019501B2214501A5C15501B58D8B097EF21
:1051280028F099EF28F09BEF28F075EF28F020EE93
:1051380002F01250D9261350DA22DE50165CDE50E7
:105148001758D8B0AAEF28F0ACEF28F0AEEF28F047
:1051580075EF28F020EE06F01250D9261350DA2207
:10516800DECF18F0DDCF19F020EE02F01250D9266C
:105178001350DA22DECF1AF0DDCF1BF018501A26B2
:1051880019501B2216501A5C17501B58D8B0CFEF75
:1051980028F0D1EF28F0D3EF28F075EF28F0010EB2
:1051A800120012C0D9FF13C0DAFFDE50145CDE50C3
:1051B8001558D8B0E2EF28F0E4EF28F0E7EF28F030
:1051C800000E43EF29F020EE04F01250D9261350B8
:1051D800DA22DECF18F0DDCF19F012C0D9FF13C0E4
:1051E800DAFFDECF1AF0DDCF1BF018501A2619505F
:1051F8001B2214501A5C15501B58D8B006EF29F022
:1052080008EF29F00AEF29F0E4EF28F020EE02F089
:105218001250D9261350DA22DE50165CDE50175889
:10522800D8B019EF29F01BEF29F01DEF29F0E4EFB2
:1052380028F020EE06F01250D9261350DA22DECFDD
:1052480018F0DDCF19F020EE02F01250D9261350D5
:10525800DA22DECF1AF0DDCF1BF018501A261950CB
:105268001B2216501A5C17501B58D8B03EEF29F075
:1052780040EF29F042EF29F0E4EF28F0010E120088
:1052880020EEB4F01C50D9261D50DA2210EECAF0D8
:105298001C50E1261D50E222E6CF20F0E5CF21F098
:1052A800190E2026000E2122DE50205CDE502158E7
:1052B800D8B061EF29F063EF29F07AEF29F0CA0E30
:1052C8001C24126E000E1D20136E000E156E020EA9
:1052D800146E000E176E010E166EF4EC27F0000E19
:1052E800186E0C0E09EC30F0AEEF29F020EECAF083
:1052F8001C50D9261D50DA22DECF1EF0DDCF1FF05C
:10530800190E1E26000E1F2220EEB4F01C50D926BE
:105318001D50DA221E50DE5C1F50DE58D8B097EFC1
:1053280029F099EF29F0AEEF29F0CA0E1C24126E6D
:10533800000E1D20136E000E156E020E146E000E68
:10534800176E000E166EF4EC27F0000E186E0C0E99
:1053580009EC30F01200040E00019025826F000E57
:105368009121836FED0E846F7F0E856F90C0D9FFFA
:1053780091C0DAFFDECF86F0DDCF87F087EC31F021
:10538800040E00019025206E000E9121216E7B0EE7
:10539800226E7F0E236E000E246E000E266E000E07
:1053A800256E000E286E000E276EFF0E2A6E2968E5
:1053B800000E2C6E000E2B6E14EC0FF0040E000184
:1053C8009025826F000E9121836FED0E846F7F0E02
:1053D800856F20EE02F09051D9269151DA22DECF66
:1053E80086F0DDCF87F087EC31F0040E00019025C0
:1053F800206E000E9121216E7B0E226E7F0E236E91
:10540800010E246E000E266EEF0E256E000E286E1D
:10541800000E276EFF0E2A6E2968000E2C6E000EF5
:105428002B6E14EC0FF0120020EE04F01C50D9265D
:105438001D50DA22DE50DE10D8B425EF2AF027EF0F
:105448002AF04FEF2AF020EE04F01C50D9261D5008
:10545800DA22010EDB5007E16E0EDE5CD8B037EFC2
:105468002AF039EF2AF04FEF2AF01CC012F01DC0C5
:1054780013F0B5EC32F0C00E1C24126E000E1D2085
:10548800136E000E156E140E146E000E176E000EBD
:10549800166EF4EC27F020EE04F01C50D9261D50AF
:1054A800DA22010EDB5009E1820EDE5CD8A05FEF44
:1054B8002AF061EF2AF077EF2AF01CC012F01DC025
:1054C80013F0B5EC32F0C00E1C24126E000E1D2035
:1054D800136E000E156E140E146E000E176E010E6C
:1054E800166EF4EC27F0000E186E0B0E09EC30F077
:1054F800120014501510D8B484EF2AF086EF2AF061
:105508008FEF2AF014501510D8A48DEF2AF08FEFE2
:105518002AF094EF2AF01250AFEC33F0E1EF2AF0C2
:1055280020EE04F01450D9261550DA22DE50DE1091
:10553800D8B4A1EF2AF0A3EF2AF0BEEF2AF020EEAC
:1055480004F01450D9261550DA2210EE02F0145047
:10555800E1261550E222DE50E65CE650800A1A6E1B
:10556800DE50800A1A58D8B0BCEF2AF0BEEF2AF0F5
:10557800E1EF2AF020EE02F01450D9261550DA2275
:10558800DECF16F0DDCF17F014C0D9FF15C0DAFF53
:10559800DECF18F0DDCF19F016501824D96E175049
:1055A8001920DA6E12C0DFFF20EE02F01450D9265F
:1055B8001550DA22DE2A000EDD221200000E176EC8
:1055C80015BEEBEF2AF0E9EF2AF0F1EF2AF0146CA0
:1055D800151ED8B0152A010E176E13BEF8EF2AF063
:1055E800F6EF2AF0FEEF2AF0126C131ED8B0132A39
:1055F800010E171A000E196E000E186E14501510B1
:10560800D8B409EF2BF00BEF2BF033EF2BF0010E92
:10561800166E13EF2BF0D89014361536162A15AEE1
:1056280018EF2BF01AEF2BF00FEF2BF0D89018365D
:1056380019361450125C15501358D8A026EF2BF0C9
:1056480028EF2BF02DEF2BF01450125E1550135A43
:105658001880D89015321432162E1AEF2BF01750E6
:10566800D8B439EF2BF03BEF2BF03FEF2BF0186C51
:10567800191ED8B0192A18C012F019C013F0120058
:105688004BA049EF2BF04BEF2BF055EF2BF024C03C
:105698001BF025C01CF022C01DF023C01EF021EC19
:1056A80032F027BE5AEF2BF05CEF2BF062EF2BF0B5
:1056B80026C02BF027C02CF066EF2BF0000E2C6EC6
:1056C800000E2B6E000E2A6E000E296E78EF2BF05E
:1056D800000E136E200E126E22C014F023C015F0B7
:1056E8007DEC2AF0294A2A2A2B50295C2A50800A64
:1056F800286E2C50800A2858D8A085EF2BF087EF09
:105708002BF06CEF2BF04BB08CEF2BF08EEF2BF0D7
:1057180098EF2BF024C01BF025C01CF022C01DF010
:1057280023C01EF021EC32F024C012F025C013F083
:10573800D8EC31F02B501224226E2C501320236EFB
:1057480012001350146E12C015F02A0E806E8B983A
:105758008B968B868B88000E806E8B968B86000EC0
:10576800806E8B968B86000E806E8B968B86EF0EE6
:10577800806E8B968B862B0E806E8B988B968B8685
:105788008B88000E806E8B968B86000E806E8B96B3
:105798008B86010E806E8B968B863F0E806E8B9665
:1057A8008B862C0E806E8B988B968B868B88000E42
:1057B800176E000E166E000E196E000E186E14C0CD
:1057C80080FF8B968B8615C080FF8B968B86184A38
:1057D800192A195009E1F00E185CD8A0F6EF2BF041
:1057E800F8EF2BF0E3EF2BF0164A172A400E165C61
:1057F800010E1758D8A003EF2CF005EF2CF0DFEFBF
:105808002BF01200020E1224146E000E1320156ED7
:1058180014C0F6FF15C0F7FF0800F5CF16F0D890B2
:105828001632D8901632D89016321650186E196A59
:10583800010E1224146E000E1320156E14C0F6FF0C
:1058480015C0F7FF0800F5CF16F0D8901632D8909B
:10585800163216501A6E1B6A12C0F6FF13C0F7FFF5
:105868000800F5CF14F0D8901432D8901432D8909C
:10587800143214501C6E1D6A1AC014F01BC015F0A7
:10588800050ED89014361536E82E45EF2CF018C0C2
:1058980016F019C017F00B0ED89016361736E82EEA
:1058A80050EF2CF014501612155017121C501610E9
:1058B8001E6E1D5017101F6E1EC012F01FC013F071
:1058C80012009B8C700ED36E090E0001A86F1E0E7D
:1058D800A76FE40EE82EFED7A72FFCD7A82FFAD77C
:1058E80000F0E1EC19F0000E136E1F0E126EA5EC1D
:1058F8002BF0BD0E206E7F0E216E7B0E226E7F0E6A
:10590800236E020E246E000E266E320E256E000ED9
:10591800286E320E276E000E2A6E000E296EFF0EBC
:105928002C6E2B6814EC0FF0F28EF096F19A94908E
:105938008B80860ED56EFB0ED76E1D0ED66EF28A44
:105948009492BB686650F00B0C09666E6768CF0EC0
:1059580066169E92BA80BA92BA84A60EC06EC3EC3E
:105968002CF0000E2B6E010E2C6E08EC15F0000EBC
:105978000001A56F010EA66FCAEC32F01200000EEE
:10598800216E000E206ECD0E2024D96E000E21202F
:10599800DA6E000EDF6E204A212A21BEDDEF2CF0E0
:1059A800215009E10C0E205CD8A0DDEF2CF0DFEFD0
:1059B8002CF0C7EF2CF0000E216E000E206E20C0D8
:1059C8001AF021C01BF0000E1D6E030E1C6E05ECB4
:1059D80033F0B50E1A24D96E000E1B20DA6E000EB5
:1059E800DE6E000EDD6E20C01AF021C01BF0000E26
:1059F8001D6E030E1C6E05EC33F0B70E1A24D96E1B
:105A0800000E1B20DA6E000EDF6E204A212A21BE0E
:105A180017EF2DF0215009E1080E205CD8A017EFF0
:105A28002DF019EF2DF0E3EF2CF0000E0001D96FE7
:105A3800000EDA6F120020EE04F01250D92613502F
:105A4800DA22000EDE6E000EDD6E20EE06F0125039
:105A5800D9261350DA22000EDE6E000EDD6E1450C9
:105A68001510D8B43AEF2DF03CEF2DF05AEF2DF089
:105A780012C0D9FF13C0DAFF5A0EDE6E000EDD6EBB
:105A880020EE02F01250D9261350DA22140EDE6EE0
:105A9800000EDD6E20EE08F01250D9261350DA22DF
:105AA800FF0EDE6EFF0EDD6E76EF2DF012C0D9FF11
:105AB80013C0DAFF5A0EDE6E000EDD6E20EE02F025
:105AC8001250D9261350DA22180EDE6E010EDD6E42
