:020000040000FA
:0400000058EF00F0C5
:100008004E82D9CF0EF0DACF0FF0F3CF10F0F4CF45
:1000180011F0F0A012EF00F014EF00F039EF00F04B
:10002800F0A619EF00F01BEF00F039EF00F0F1BA7D
:1000380020EF00F022EF00F02BEF00F0F18AF090B3
:10004800010E076E010EF5EC0DF039EF00F0F1AA84
:1000580030EF00F032EF00F039EF00F0F19AF09055
:10006800010E076E020EF5EC0DF0F2A43EEF00F063
:1000780040EF00F04EEF00F0F2AA45EF00F047EF36
:1000880000F04EEF00F083EC08F0E70ED76E950E07
:10009800D66EF29411C0F4FF10C0F3FF0FC0DAFF60
:1000A8000EC0D9FF4E921100FCEF0FF0000E0001B8
:1000B8006E6F000E6B6FB2EF00F0010E22242D6EF2
:1000C800000E23202E6E2DC0F6FF2EC0F7FF08006D
:1000D800F5CF2FF06B512024306E000E2120316EA9
:1000E80030C0F6FF31C0F7FFF86A050EF76403D099
:1000F8000800F55005D0F6CFE9FFF7CFEAFFEF503B
:10010800326E2F50325C00016C6F6C511A6E1B6A94
:100118001ABE1B06000E1D6E030E1C6E15EC10F0A9
:10012800030E22242D6E000E23202E6E2DC0F6FF06
:100138002EC0F7FF0900F5CF2FF00900F5CF30F0FA
:100148001A502F261B5030222FC0F6FF30C0F7FF61
:100158000800F550020F00016E276B2B20C012F02B
:1001680021C013F009EC0FF000016B512D6E2E6ABF
:1001780012502D5C13502E58D8A0C5EF00F0C7EFD1
:1001880000F061EF00F02404D8A4CDEF00F0CFEF29
:1001980000F0D8EF00F06E51255C256E2650D8A0EF
:1001A8002604266EF0EF00F0020E2418D8A4DFEF24
:1001B80000F0E1EF00F0F0EF00F06EC012F0136A0B
:1001C800000E156E020E146EFBEC09F01250255C41
:1001D800256E13502658266E010E22242D6E000E11
:1001E80023202E6E2DC0F6FF2EC0F7FF0800F5CF96
:1001F8002FF020C0F6FF21C0F7FFF86A050EF7645C
:1002080003D00800F55005D0F6CFE9FFF7CFEAFF95
:10021800EF50306E2F50305C00016C6F6C511A6ECD
:100228001B6A1ABE1B06000E1D6E030E1C6E15EC13
:1002380010F0030E22242D6E000E23202E6E2DC0EA
:10024800F6FF2EC0F7FF0900F5CF2FF00900F5CF14
:1002580030F01A502F261B503022010E2F26000E88
:1002680030222FC0F6FF30C0F7FF0900F5CF60F04D
:100278000A00F5CF61F000016C511A6E1B6A1ABEB4
:100288001B06000E1D6E030E1C6E15EC10F0030EFF
:1002980022242D6E000E23202E6E2DC0F6FF2EC0B8
:1002A800F7FF0900F5CF2FF00900F5CF30F01A500D
:1002B8002F261B5030222FC0F6FF30C0F7FF080052
:1002C800F5CF6EF02A0E806E8B988B968B868B8876
:1002D8002650806E8B968B8625C080FF8B968B86EA
:1002E80000016E5125242D6E000E26202E6E010E63
:1002F8002D24686F000E2E20696F6951806E8B96D1
:100308008B8668C080FF8B968B862B0E806E8B98B1
:100318008B968B868B882850806E8B968B8627C011
:1003280080FF8B968B8622C0F6FF23C0F7FF08005C
:10033800F55027242D6E000E28202E6EFF0E2D243A
:10034800666FFF0E2E20676F6751806E8B968B86C7
:1003580066C080FF8B968B862C0E806E8B988B9652
:100368008B868B88000E6A6F54EF02F06AC01AF011
:100378001B6A000E156E080E146E070E6E25126E9F
:10038800136A000E1322FBEC09F012C01CF013C014
:100398001DF015EC10F0000160511A24626F6151D4
:1003A8001B20636F000E6D6F33EF02F06DC012F00B
:1003B800136A000E156E080E146EFBEC09F0050E9C
:1003C80022242D6E000E23202E6E2DC0F6FF2EC087
:1003D800F7FF0900F5CF2FF00900F5CF30F01250E4
:1003E8002F2613503022000162512F2663513022EC
:1003F8002FC0F6FF30C0F7FF0800F5CF64F06DC0DE
:100408002DF0070E2D16800E2E6E000E2F6E2D2A43
:1004180011EF02F02F342F322E322D2E0EEF02F074
:100428002E5000016415656F6551D8B41EEF02F0B7
:1004380020EF02F02AEF02F02A50806E8B968B860E
:1004480029C080FF8B968B8632EF02F02C50806E8D
:100458008B968B862BC080FF26EF02F06D2B6E519A
:100468006D5DD8A03AEF02F03CEF02F0DAEF01F050
:10047800000E6D6F010E6D6544EF02F046EF02F05D
:1004880048EF02F053EF02F02C50806E8B968B866B
:100498002BC080FF8B968B866D2B3EEF02F06A2B6C
:1004A80022C0F6FF23C0F7FF0900F5506A5DD8A007
:1004B80060EF02F062EF02F0BAEF01F06E5125240E
:1004C8002D6E000E26202E6E020E2D24256E000E97
:1004D8002E20266E204A212A20C0F6FF21C0F7FFD1
:1004E800F86A050EF76403D00800F55005D0F6CF7A
:1004F800E9FFF7CFEAFFEF500009D8A486EF02F032
:1005080088EF02F0F0EF00F012002FC070F030C05A
:1005180071F031C072F032C073F033C074F034C07F
:1005280075F035C076F036C077F0000177BF9FEFE1
:1005380002F0A2EF02F0010EA3EF02F0000E6E6FC0
:100548006F6B6E516F11D8B4ACEF02F0AEEF02F0E2
:10055800BEEF02F0771F761F751F741F731F721F7F
:10056800711F706D000E712372237323742375231A
:100578007623772349BEC3EF02F0C5EF02F0C6EF3A
:1005880002F04A9249BED3EF02F0495006E148040E
:10059800D8B0D1EF02F0D3EF02F0D9EF02F0000E9D
:1005A8006B6F010E6A6FDDEF02F048C06AF049C058
:1005B8006BF046C06CF047C06DF06E516F11D8A457
:1005C800E8EF02F0EAEF02F0F1EF02F04AA4EFEFF1
:1005D80002F0F1EF02F0F4EF02F06C07D8A06D071B
:1005E800000E796F1F0E786F000E01011F6F7AEFF2
:1005F80003F07807D8A07907000E7825D96E010E88
:100608007921DA6E70C012F071C013F072C014F064
:1006180073C015F074C016F075C017F076C018F0E6
:1006280077C019F00A0E1A6E000E1B6E000E1C6EB3
:10063800000E1D6E000E1E6E000E1F6E000E206E48
:10064800000E216ED1EC07F012C060F013C061F00B
:1006580014C062F015C063F016C064F017C065F0EE
:1006680018C066F019C067F060C024F062C025F0B9
:1006780052EC0FF02450300FDF6E00016A07D8A04B
:100688006B076C07D8A06D0770C012F071C013F02B
:1006980072C014F073C015F074C016F075C017F06E
:1006A80076C018F077C019F00A0E1A6E000E1B6E8D
:1006B800000E1C6E000E1D6E000E1E6E000E1F6ECC
:1006C800000E206E000E216E0DEC07F012C070F0C7
:1006D80013C071F014C072F015C073F016C074F036
:1006E80017C075F018C076F019C077F0000179BF0F
:1006F80086EF03F0795108E17805D8A086EF03F07A
:1007080088EF03F0B8EF03F0705171117211731193
:100718007411751176117711D8A495EF03F097EF3E
:1007280003F0FDEF02F06BBFA4EF03F06B5106E19D
:100738006A05D8B0A2EF03F0A4EF03F0FDEF02F0D2
:100748006DBFAFEF03F06D5108E16C05D8A0AFEFB6
:1007580003F0B1EF03F0B8EF03F04AB2B6EF03F0DD
:10076800B8EF03F0FDEF02F06E516F11D8A4BFEFA0
:1007780003F0C1EF03F0C8EF03F04AA4C6EF03F09B
:10078800C8EF03F0E6EF03F07807D8A079076E51B9
:100798006F11D8A4D2EF03F0D4EF03F0DAEF03F02F
:1007A800000E696F2B0E686FDEEF03F0000E696FA5
:1007B8002D0E686F000E7825D96E010E7921DA6E3C
:1007C80068C0DFFF2DC022F02EC023F0000E782570
:1007D800246E010E7921256E6CC026F06DC027F0BD
:1007E8005DEC0AF022C02DF023C02EF012002CEC94
:1007F8000DF0110E806E8B988B968B868B88000E71
:10080800186ED00E176ECA0EE82EFED7172EFCD71C
:10081800182A090E186413EF04F015EF04F005EF19
:1008280004F0360E806E8B988B968B868B88000E24
:10083800806E8B968B863A0E806E8B988B968B8605
:100848008B88550E806E8B968B86B20E806E8B9839
:100858008B968B868B880C0E806E8B968B860C0EF7
:10086800806E8B968B86330E806E8B968B86330EBE
:10087800806E8B968B86B70E806E8B988B968B8648
:100888008B88350E806E8B968B86BB0E806E8B9810
:100898008B968B868B882B0E806E8B968B86C00EE4
:1008A800806E8B988B968B868B882C0E806E8B96A1
:1008B8008B86C20E806E8B988B968B868B88010EEA
:1008C800806E8B968B8680688B968B86C30E806E27
:1008D8008B988B968B868B88110E806E8B968B8669
:1008E800C40E806E8B988B968B868B88200E806EBC
:1008F8008B968B86C60E806E8B988B968B868B8894
:10090800090E806E8B968B86D00E806E8B988B9698
:100918008B868B88A40E806E8B968B86A10E806E3C
:100928008B968B86E00E806E8B988B968B868B8849
:10093800D00E806E8B968B86000E806E8B968B8683
:10094800050E806E8B968B860E0E806E8B968B8630
:10095800150E806E8B968B860D0E806E8B968B8611
:10096800370E806E8B968B86430E806E8B968B86A9
:10097800470E806E8B968B86090E806E8B968B86C3
:10098800150E806E8B968B86120E806E8B968B86DC
:10099800160E806E8B968B86190E806E8B968B86C4
:1009A800E10E806E8B988B968B868B88D00E806E2E
:1009B8008B968B86000E806E8B968B86050E806ECE
:1009C8008B968B860D0E806E8B968B860C0E806EAA
:1009D8008B968B86060E806E8B968B862D0E806E80
:1009E8008B968B86440E806E8B968B86400E806E1F
:1009F8008B968B860E0E806E8B968B861C0E806E69
:100A08008B968B86180E806E8B968B86160E806E54
:100A18008B968B86190E806E8B968B862A0E806E2F
:100A28008B988B968B868B88000E806E8B968B8628
:100A3800000E806E8B968B86000E806E8B968B8652
:100A4800EF0E806E8B968B862B0E806E8B988B9616
:100A58008B868B88000E806E8B968B86000E806E40
:100A68008B968B86010E806E8B968B863F0E806EE2
:100A78008B968B86260E806E8B988B968B868B88B2
:100A8800010E806E8B968B86290E806E8B988B96C6
:100A98008B868B8812001CEF06F00F01399339956D
:100AA80093948A949382F086F19E020E616EF19A75
:100AB8009386938832EF06F0F0960F01399393925C
:100AC8008A9293968A86938893843985230EC26E78
:100AD800C2B271EF05F073EF05F06CEF05F0C4508A
:100AE80000019A6F9B6BD8909A379B37D8909A37AA
:100AF8009B37C3509A25B06F000E9B21B16F0F0131
:100B0800399593948A9493988A88938693823983A3
:100B18002B0EC26EC2B293EF05F095EF05F08EEF83
:100B280005F0C45000019A6F9B6BD8909A379B3799
:100B3800D8909A379B37C3509A25B26F000E9B21E5
:100B4800B36F000E146E010E136E040E156E000EB8
:100B5800166EBBEC0DF0290EC26E0F013993399554
:100B680093948A949382F18AF19E020E616E938621
:100B78009388F090F08681B2C4EF05F0C6EF05F0D7
:100B880032EF06F09C0E00018C6F000E8D6FF30E95
:100B98008E6F7F0E8F6FB0C090F0B1C091F0B9EC3E
:100BA8000EF09C0E206E000E216EC80E226E7F0E77
:100BB800236E020E246E000E266E640E256E000E45
:100BC800286E640E276E000E2A6E000E296EFF0E28
:100BD8002C6E2B685AEC00F09C0E00018C6F000EF6
:100BE8008D6FF90E8E6F7F0E8F6FB2C090F0B3C00D
:100BF80091F0B9EC0EF09C0E206E000E216EC80E1E
:100C0800226E7F0E236E020E246E000E266E640E78
:100C1800256E000E286EC80E276E000E2A6E000E76
:100C2800296EFF0E2C6E2B685AEC00F032EF06F09E
:100C38000001DF519A6F9B6B9B51000AD8B427EFD4
:100C480006F032EF06F09A51000AD8B451EF05F0D9
:100C5800010AD8B460EF05F032EF06F0120039C08F
:100C6800D9FF3AC0DAFFDECFF6FFDDCFF7FF080085
:100C7800F550250AD8A443EF06F045EF06F0F1EF4A
:100C880006F039C0D9FF3AC0DAFFDE2A000EDD22AD
:100C9800000E476E000E466E46C04AF047C04BF045
:100CA8004868496839C0D9FF3AC0DAFFDECFF6FF95
:100CB800DDCFF7FF0800F550640AD8B466EF06F0F8
:100CC80068EF06F07AEF06F039C0D9FF3AC0DAFFCC
:100CD800DECFF6FFDDCFF7FF0800F550690AD8A48C
:100CE80078EF06F07AEF06F0BBEF06F039C0D9FFCF
:100CF8003AC0DAFFDE2A000EDD223BC0D9FF3CC035
:100D0800DAFFDFCF7AF0020EDE26DFCF7BF0000EAF
:100D1800DD227AC0D9FF7BC0DAFFDECF7CF0DDCFE1
:100D28007DF00001000E7DBFFF0E7E6F7F6F806F2C
:100D3800816F826F836F37C02DF038C02EF07CC072
:100D48002FF07DC030F07EC031F07FC032F080C01F
:100D580033F081C034F082C035F083C036F089ECBE
:100D680002F02DC037F02EC038F00CEF07F039C074
:100D7800D9FF3AC0DAFFDECFF6FFDDCFF7FF080074
:100D8800F550250AD8A4CBEF06F0CDEF06F0E4EF36
:100D980006F039C0D9FF3AC0DAFFDE2A000EDD229C
:100DA800000E136E250E126E37C014F038C015F001
:100DB80096EC09F0000E386E010E376E0CEF07F056
:100DC80039C0D9FF3AC0DAFFDE2A000EDD22000E54
:100DD800386E000E376E0CEF07F039C0D9FF3AC0F5
:100DE800DAFFDECFF6FFDDCFF7FF0800F550126E11
:100DF800136A37C014F038C015F096EC09F039C002
:100E0800D9FF3AC0DAFFDE2A000EDD22DEEF06F057
:100E18001200000E236E21BE16EF07F014EF07F044
:100E280028EF07F0211E201E1F1E1E1E1D1E1C1E41
:100E38001B1E1A6C000E1B221C221D221E221F22A2
:100E480020222122010E236E19BE2FEF07F02DEF6D
:100E580007F041EF07F0191E181E171E161E151E63
:100E6800141E131E126C000E1322142215221622B1
:100E7800172218221922010E231A20EE24F0070E39
:100E8800DE6AE806FDE21A501B101C101D101E1029
:100E98001F1020102110D8B454EF07F056EF07F0B8
:100EA800A8EF07F0010E226E64EF07F0D8901A360B
:100EB8001B361C361D361E361F3620362136222A92
:100EC80021AE69EF07F06BEF07F05AEF07F0D89003
:100ED8002436253626362736283629362A362B361E
:100EE8001A50125C1B5013581C5014581D5015589A
:100EF8001E5016581F50175820501858215019586E
:100F0800D8A089EF07F08BEF07F09CEF07F01A5095
:100F1800125E1B50135A1C50145A1D50155A1E505D
:100F2800165A1F50175A2050185A2150195A2480FF
:100F3800D890213220321F321E321D321C321B3211
:100F48001A32222E6BEF07F02350D8B4AEEF07F019
:100F5800B0EF07F0C0EF07F02B1E2A1E291E281E2F
:100F6800271E261E251E246C000E25222622272237
:100F7800282229222A222B2224C012F025C013F06D
:100F880026C014F027C015F028C016F029C017F0A5
:100F98002AC018F02BC019F01200000E236E19BEDB
:100FA800DAEF07F0D8EF07F0ECEF07F0191E181E7C
:100FB800171E161E151E141E131E126C000E132269
:100FC800142215221622172218221922010E236E26
:100FD80021BEF3EF07F0F1EF07F003EF08F0211E51
:100FE800201E1F1E1E1E1D1E1C1E1B1E1A6C000E00
:100FF8001B221C221D221E221F22202221221A50BF
:101008001B101C101D101E101F1020102110D8B40A
:1010180010EF08F012EF08F05AEF08F0010E226EF8
:1010280020EF08F0D8901A361B361C361D361E36AF
:101038001F3620362136222A21AE25EF08F027EF69
:1010480008F016EF08F01A50125C1B5013581C5089
:1010580014581D5015581E5016581F501758205018
:10106800185821501958D8A03CEF08F03EEF08F066
:101078004EEF08F01A50125E1B50135A1C50145AA7
:101088001D50155A1E50165A1F50175A2050185ADC
:101098002150195AD890213220321F321E321D3267
:1010A8001C321B321A32222E27EF08F02350D8B4F4
:1010B80060EF08F062EF08F072EF08F0191E181ED2
:1010C800171E161E151E141E131E126C000E132258
:1010D80014221522162217221822192212C012F0E1
:1010E80013C013F014C014F015C015F016C016F094
:1010F80017C017F018C018F019C019F01200000E28
:101108000D6E000E0C6E0CC001F00DC002F0000E4A
:10111800046E030E036E28EC10F0B90E0124D96E8C
:10112800000E0220DA6EDF50D8B49DEF08F09FEF72
:1011380008F003EF09F00CC001F00DC002F0000E3A
:10114800046E030E036E28EC10F0B70E0124D96E5E
:10115800000E0220DA6EDE06000EDD5A0CC001F029
:101168000DC002F0000E046E030E036E28EC10F0A2
:10117800B70E0124D96E000E0220DA6EDE50DE10A2
:10118800D8A4C9EF08F0CBEF08F003EF09F0010E7F
:10119800076E0CC001F00DC002F0000E046E030EC5
:1011A800036E28EC10F0B90E0124D96E000E02204F
:1011B800DA6EDF50F5EC0DF0E806D8A4E6EF08F09B
:1011C800E8EF08F0EFEF08F0010E026E0C5072EC39
:1011D8000FF003EF09F00CC001F00DC002F0000E93
:1011E800046E030E036E28EC10F0B70E0124D96EBE
:1011F800000E0220DA6E010EDE6E000EDD6E0C4A65
:101208000D2A0DBE11EF09F00D5009E1080E0C5C16
:10121800D8A011EF09F013EF09F087EF08F01200DA
:101228007CEF09F0FF0E136E1268BEEC0AF0E40EB4
:10123800206E7F0E216EC80E226E7F0E236E020E68
:10124800246E000E266E320E256E000E286E320EAB
:10125800276E000E2A6E000E296EFF0E2C6E2B686C
:101268005AEC00F095EF09F0FF0E136E1268BEEC11
:101278000AF0CF0E206E7F0E216EC80E226E7F0EF2
:10128800236E020E246E000E266E320E256E000EA0
:10129800286E320E276E000E2A6E000E296EFF0E83
:1012A8002C6E2B685AEC00F095EF09F0FF0E136EC8
:1012B8001268BEEC0AF0EC0E206E7F0E216EC80E8E
:1012C800226E7F0E236E020E246E000E266E320EE4
:1012D800256E000E286E320E276E000E2A6E000E46
:1012E800296EFF0E2C6E2B685AEC00F095EF09F072
:1012F8004D50336E346A3450000AD8B486EF09F082
:1013080095EF09F03350000AD8B416EF09F0010A36
:10131800D8B438EF09F0030AD8B45AEF09F095EFBA
:1013280009F0120014501510D8B49DEF09F09FEF82
:1013380009F0A8EF09F014501510D8A4A6EF09F089
:10134800A8EF09F0ADEF09F012508BEC10F0FAEFAE
:1013580009F020EE04F01450D9261550DA22DE5098
:10136800DE10D8B4BAEF09F0BCEF09F0D7EF09F0F6
:1013780020EE04F01450D9261550DA2210EE02F0AF
:101388001450E1261550E222DE50E65CE650800A51
:101398001A6EDE50800A1A58D8B0D5EF09F0D7EF88
:1013A80009F0FAEF09F020EE02F01450D926155092
:1013B800DA22DECF16F0DDCF17F014C0D9FF15C042
:1013C800DAFFDECF18F0DDCF19F016501824D96EE9
:1013D80017501920DA6E12C0DFFF20EE02F0145009
:1013E800D9261550DA22DE2A000EDD221200000E60
:1013F800176E15BE04EF0AF002EF0AF00AEF0AF0C2
:10140800146C151ED8B0152A010E176E13BE11EFF5
:101418000AF00FEF0AF017EF0AF0126C131ED8B09B
:10142800132A010E171A000E196E000E186E1450AA
:101438001510D8B422EF0AF024EF0AF04CEF0AF0A6
:10144800010E166E2CEF0AF0D89014361536162AAF
:1014580015AE31EF0AF033EF0AF028EF0AF0D89012
:10146800183619361450125C15501358D8A03FEF8F
:101478000AF041EF0AF046EF0AF01450125E1550D8
:10148800135A1880D89015321432162E33EF0AF0FA
:101498001750D8B452EF0AF054EF0AF058EF0AF098
:1014A800186C191ED8B0192A18C012F019C013F0F8
:1014B80012004AA062EF0AF064EF0AF06EEF0AF039
:1014C80024C01BF025C01CF022C01DF023C01EF054
:1014D80030EC0FF027BE73EF0AF075EF0AF07BEFE0
:1014E8000AF026C02BF027C02CF07FEF0AF0000E80
:1014F8002C6E000E2B6E000E2A6E000E296E91EFD8
:101508000AF0000E136E200E126E22C014F023C0D3
:1015180015F096EC09F0294A2A2A2B50295C2A5002
:10152800800A286E2C50800A2858D8A09EEF0AF00E
:10153800A0EF0AF085EF0AF04AB0A5EF0AF0A7EF8E
:101548000AF0B1EF0AF024C01BF025C01CF022C03D
:101558001DF023C01EF030EC0FF024C012F025C09F
:1015680013F009EC0FF02B501224226E2C5013208C
:10157800236E12001350146E12C015F02A0E806EDE
:101588008B988B968B868B88000E806E8B968B86BD
:10159800000E806E8B968B86000E806E8B968B86E7
:1015A800EF0E806E8B968B862B0E806E8B988B96AB
:1015B8008B868B88000E806E8B968B86000E806ED5
:1015C8008B968B86010E806E8B968B863F0E806E77
:1015D8008B968B862C0E806E8B988B968B868B8841
:1015E800000E176E000E166E000E196E000E186EA5
:1015F80014C080FF8B968B8615C080FF8B968B86D8
:10160800184A192A195009E1F00E185CD8A00FEFF2
:101618000BF011EF0BF0FCEF0AF0164A172A400EF8
:10162800165C010E1758D8A01CEF0BF01EEF0BF03C
:10163800F8EF0AF01200000E216E000E206ECF0E99
:101648002024D96E000E2120DA6E000EDF6E204AAB
:10165800212A21BE39EF0BF0215009E10C0E205C44
:10166800D8A039EF0BF03BEF0BF023EF0BF0000E97
:10167800216E000E206E20C01AF021C01BF0000E53
:101688001D6E030E1C6E15EC10F0B70E1A24D96EE1
:10169800000E1B20DA6E000EDE6E000EDD6E20C01E
:1016A8001AF021C01BF0000E1D6E030E1C6E15EC07
:1016B80010F0B90E1A24D96E000E1B20DA6E000E37
:1016C800DF6E204A212A21BE73EF0BF0215009E179
:1016D800080E205CD8A073EF0BF075EF0BF03FEF0E
:1016E8000BF0000E0001DB6F000EDC6F1200376E8E
:1016F800BBEF0BF0050E3718D8B485EF0BF087EF6A
:101708000BF090EF0BF0060E3718D8A48EEF0BF005
:1017180090EF0BF094EF0BF0020E4D6E14EC09F005
:10172800070E3718D8A49BEF0BF09DEF0BF0D4EF02
:101738000BF0010E4D6E14EC09F0D4EF0BF0080E0F
:101748003718D8A4AAEF0BF0ACEF0BF0D4EF0BF0DE
:10175800000E4D6E9FEF0BF00A0E3718D8A4B7EFA6
:101768000BF0B9EF0BF0D4EF0BF0ACEF0BF04D50E2
:10177800356E366A3650000AD8B4C5EF0BF0D4EF90
:101788000BF03550000AD8B47EEF0BF0010AD8B43C
:10179800A3EF0BF0030AD8B4B0EF0BF0D4EF0BF0C3
:1017A8001200000E176E13BEDEEF0BF0DCEF0BF02D
:1017B800E4EF0BF0126C131ED8B0132A010E176E4B
:1017C80015BEEBEF0BF0E9EF0BF0EFEF0BF0146C3D
:1017D800151ED8B0152A14501510D8B4F6EF0BF012
:1017E800F8EF0BF01CEF0CF0010E166E00EF0CF08A
:1017F800D89014361536162A15AE05EF0CF007EFFB
:101808000CF0FCEF0BF01450125C15501358D8A0D4
:1018180010EF0CF012EF0CF016EF0CF01450125EF3
:101828001550135AD89015321432162E07EF0CF0B3
:101838001750D8B422EF0CF024EF0CF028EF0CF07E
:10184800126C131ED8B0132A12C012F013C013F072
:101858001200000E066E02BE36EF0CF034EF0CF0EC
:101868003CEF0CF0016C021ED8B0022A010E066E85
:1018780004BE43EF0CF041EF0CF047EF0CF0036CA3
:10188800041ED8B0042A03500410D8B44EEF0CF04C
:1018980050EF0CF074EF0CF0010E056E58EF0CF0E1
:1018A800D89003360436052A04AE5DEF0CF05FEFDE
:1018B8000CF054EF0CF00350015C04500258D8A00F
:1018C80068EF0CF06AEF0CF06EEF0CF00350015E5D
:1018D8000450025AD89004320332052E5FEF0CF000
:1018E8000650D8B47AEF0CF07CEF0CF080EF0CF0D7
:1018F800016C021ED8B0022A01C001F002C002F039
:1019080012009B8C700ED36E090E0001B56F1E0E6F
:10191800B46FE40EE82EFED7B42FFCD7B52FFAD754
:1019280000F0FBEC03F0000E136E1F0E126EBEECFF
:101938000AF0DA0E206E7F0E216EC80E226E7F0E20
:10194800236E020E246E000E266E320E256E000ED9
:10195800286E320E276E000E2A6E000E296EFF0EBC
:101968002C6E2B685AEC00F0F28EF0969492860E4C
:10197800D56EE70ED76E950ED66EF28A260EC06E1D
:101988001FEC0BF03BEC10F0F50E126E000E136E10
:10199800E2EC0EF0EB0E126E000E136E27EC0EF05A
:1019A800E10E126E000E136E27EC0EF01200166E8A
:1019B80011EF0DF0030E1618D8A4E5EF0CF0E7EFC1
:1019C8000CF02BEF0DF0010EE06FADEC0FF02BEFEC
:1019D8000DF0030E1618D8A4F4EF0CF0F6EF0CF087
:1019E800FAEF0CF0020EE06FADEC0FF01604D8A47D
:1019F80000EF0DF002EF0DF02BEF0DF0000E0001DF
:101A0800E06FE9EF0CF01604D8A40DEF0DF00FEF1E
:101A18000DF02BEF0DF002EF0DF00001E051146E08
:101A2800156A1550000AD8B41CEF0DF02BEF0DF015
:101A38001450000AD8B4DEEF0CF0010AD8B4EDEF68
:101A48000CF0030AD8B407EF0DF02BEF0DF01200DD
:101A5800949A949494969498000E926E8B9A8B8490
:101A68008B868B88000E136E000E146E000E156E9A
:101A7800000E166ED00E126ECA0EE82EFED7122E6B
:101A8800FCD7010E1326000E14221522162216501A
:101A98001510141009E10C0E135CD8A056EF0DF0C8
:101AA80058EF0DF03EEF0DF0000E136E000E146EA1
:101AB800000E156E000E166ED00E126ECA0EE82EAF
:101AC800FED7122EFCD7010E1326000E1422152263
:101AD800162216501510141009E10C0E135CD8A02C
:101AE80078EF0DF07AEF0DF060EF0DF012003D6E1B
:101AF800A4EF0DF03D04D8A484EF0DF086EF0DF0AF
:101B0800BAEF0DF0010EDF6F4FEC05F0BAEF0DF0F4
:101B1800020E3D18D8A493EF0DF095EF0DF099EF54
:101B28000DF0000EDF6F4FEC05F0040E3D18D8A441
:101B3800A0EF0DF0A2EF0DF0BAEF0DF088EF0DF069
:101B48000001DF51B46FB56BB551000AD8B4AFEFDF
:101B58000DF0BAEF0DF0B451000AD8B47EEF0DF0D5
:101B6800010AD8B48CEF0DF0BAEF0DF01200165040
:101B780052EC10F0000E176E1750030DB90EF32437
:101B8800D96E000EF420DA6EDF50D8A4CEEF0DF037
:101B9800D0EF0DF0E8EF0DF01750030DB70EF3245A
:101BA800D96E000EF420DA6E13C0DEFF14C0DDFF1C
:101BB8001750030DB90EF324D96E000EF420DA6E17
:101BC80015C0DFFFF1EF0DF0172A070E1764EFEFCE
:101BD8000DF0F1EF0DF0C0EF0DF0165047EC10F0DE
:101BE8001200086E075068EC10F0010E0001DB25AA
:101BF800016E026A000E0222000E046E0C0E036EC5
:101C08002DEC0CF00150096E09500001DC19D8A424
:101C180010EF0EF012EF0EF018EF0EF007505DEC1B
:101C280010F0000E26EF0EF0CF0EDB25D96EDA6A23
:101C3800000EDA2208C0DFFF09C0DBF007505DECB8
:101C480010F0010E120012C0D9FF13C0DAFF000E07
:101C5800DE6E000EDD6E20EE02F01250D926135013
:101C6800DA22000EDE6E000EDD6E20EE04F0125059
:101C7800D9261350DA22000EDE6E000EDD6E20EE3D
:101C880006F01250D9261350DA22000EDE6E000E2E
:101C9800DD6E20EE08F01250D9261350DA22000E1D
:101CA800DE6E000EDD6E120086C08AF087C08BF0F3
:101CB800000E0001DE6F000EDD6F76EF0EF084C0BF
:101CC80037F085C038F08A0E396E000E3A6E88C03B
:101CD8003BF089C03CF033EC06F037500001DD27BB
:101CE8003850DE238AC0F6FF8BC0F7FF0800F55096
:101CF8000009D8A482EF0EF084EF0EF063EF0EF027
:101D0800DDC084F0DEC085F01200196E195052EC67
:101D180010F00001DC51DB19D8A495EF0EF097EF15
:101D28000EF09DEF0EF0195047EC10F0000EB8EFD2
:101D38000EF0CF0EDC25D96EDA6A000EDA22DF50FB
:101D4800186E010EDC25126E136A000E1322000EA7
:101D5800156E0C0E146ED5EC0BF012500001DC6FF2
:101D6800195047EC10F018501200900E0001926FB5
:101D7800000E936F8CC094F08DC095F0000E976F95
:101D8800000E966F000E996F000E986F940E846F78
:101D9800000E856F8EC086F08FC087F0920E886F18
:101DA800000E896F58EC0EF0000196518C25D96E03
:101DB80097518D21DA6E000EDF6E120012C0D9FF26
:101DC80013C0DAFF000EDE6E000EDD6E20EE02F0AC
:101DD8001250D9261350DA22000EDE6E000EDD6E88
:101DE80020EE04F01250D9261350DA22000EDE6ECF
:101DF800000EDD6E20EE06F01250D9261350DA22BE
:101E0800000EDE6E000EDD6E120012C014F013C05C
:101E180015F011EF0FF0124A132A12C0F6FF13C083
:101E2800F7FFF86A050EF76403D00800F55005D0EF
:101E3800F6CFE9FFF7CFEAFFEF500009D8A427EF64
:101E48000FF029EF0FF00FEF0FF01450125C126E25
:101E580015501358136E1200000E216E000E206EDE
:101E680041EF0FF01FC012F0136A1DC014F01EC01E
:101E780015F096EC09F0204A212A20501B24D96E2F
:101E880021501C20DA6EDF501F6E1F50D8A44FEF70
:101E98000FF051EF0FF036EF0FF0120025BE5FEF95
:101EA8000FF0255006E12404D8B05DEF0FF05FEF86
:101EB8000FF06DEF0FF024C026F025C027F0261E86
:101EC800271E264A272A26C024F027C025F071EFAE
:101ED8000FF024C024F025C025F01200036E025034
:101EE80068EC10F00350030DB70EF324D96E000E02
:101EF800F420DA6E000EDE6E000EDD6E0350030D68
:101F0800B90EF324D96E000EF420DA6E000EDF6EDF
:101F180002505DEC10F01200000E89EC0EF000018A
:101F2800B66FB651D8B49BEF0FF09DEF0FF0ACEF42
:101F38000FF0B651DBEC0CF00001B6517BEC0DF064
:101F48000001B6517BEC0BF00001B651E2EC0FF04A
:101F580012000001E051126E136A1350000AD8B43F
:101F6800B8EF0FF0C7EF0FF01250000AD8B4C7EF60
:101F78000FF0010AD8B4C7EF0FF0030AD8B4C7EFBF
:101F88000FF0C7EF0FF012004C50126E136A135087
:101F9800000AD8B4D2EF0FF0E1EF0FF01250000AA8
:101FA800D8B4E1EF0FF0010AD8B4E1EF0FF0030A5B
:101FB800D8B4E1EF0FF0E1EF0FF012004C50126EC1
:101FC800136A1350000AD8B4ECEF0FF0FBEF0FF0D0
:101FD8001250000AD8B4FBEF0FF0010AD8B4FBEF97
:101FE8000FF0030AD8B4FBEF0FF0FBEF0FF012006D
:101FF80001EE00F0200EEE6AE806FDE100EEB7F013
:10200800460EEE6AE806FDE100EE3EF0100EEE6ABE
:10201800E806FDE14E904E92000EF86E000173EF57
:1020280010F01A501C02F3CF1EF0F4CF1FF01A5014
:102038001D02F3501F261B501C02F3501F261EC002
:102048001AF01FC01BF0120001500302F3CF05F075
:10205800F4CF06F001500402F350062602500302A2
:10206800F350062605C001F006C002F01200000E6B
:102078000001E06F86EC10F081EC10F07BEC10F0C2
:10208800ADEC0FF01200126E1250D8A44EEF10F003
:1020980050EF10F051EF10F0F28E1200126E125045
:1020A800D8A459EF10F05BEF10F05CEF10F0F29E3F
:1020B8001200016E0150D8A464EF10F066EF10F022
:1020C80067EF10F0F28E1200016E0150D8A46FEF86
:1020D80010F071EF10F072EF10F0F29E120085EC24
:1020E8000CF090EC0FF075EF10F058EF00F0000EC8
:1020F8000001DF6F4FEC05F01200000E4C6EC8ECCB
:102108000FF01200000E4D6E14EC09F012001200D0
:10667A000019207E8E7D8266000000000000000066
:10668A000000000000000000000000000000000000
:10669A0000000000E0E0E0E0E0E0E0E0E0E0C04030
:1066AA000000E0E0E00000000000000000E7E7E78B
:1066BA00E7E7E7000000000000000000000000001B
:1066CA000000000000000000000E300E700C701C6C
:1066DA0060FFF8FFF818E018E038C038C0FFF8FF8C
:1066EA00F83180718073807380618000000000003F
:1066FA000000000000060006000F003FC07FE0F621
:10670A00E0E6E0E660F600FE007F801FC007E006D4
:10671A00F0C670E670E670F6F07FE03FC00F000644
:10672A00000600060006000000000000000000004D
:10673A00780200440600C60C00C60C00C61800C643
:10674A001000C630007C60000047C000C640018CC3
:10675A0060018C60030C60020C60060C600C064041
:10676A000C03800800000000000000000000000088
:10677A0000000000000000000F801FC038E038E071
:10678A0038E01DC01F800F003F087F9CF3DCE1F852
:10679A00E0F8E0F871FE7FDE1F86000000000000CE
:1067AA0000000000000000E0E0E0E0E0E00000009F
:1067BA0000000000000000000000000000000000CF
:1067CA000C183830707070E0E0E0E0E0E0E0E07073
:1067DA0070703038180C000000C0607030383838DB
:1067EA001C1C1C1C1C1C1C1C383838307060C00057
:1067FA000000000C000C000C00EDC07F800C001E95
:10680A00003300210000000000000000000000002A
:10681A00000000000000000000000000000000006E
:10682A0000000000000000000000000E000E000E34
:10683A00000E000E00FFF0FFF0FFF00E000E000E3B
:10684A00000E000E00000000000000000000000022
:10685A00000000000000000000000000000000002E
:10686A000000000060F0F03030E0C00000000000DE
:10687A000000000000000000FEFEFE000000000014
:10688A0000000000000000000000000000000000FE
:10689A00000000000000E0E0E0000000000000004E
:1068AA00000C0C1C1818183830303070606060E02A
:1068BA00C0C000000000000000000000001F003FF0
:1068CA00C070E070E0E070E070E070E070E070E0EE
:1068DA0070E070E070E07070E070E03FC00F800020
:1068EA0000000000000000000000000003070F1F66
:1068FA007FF7E707070707070707070707000000EB
:10690A0000000000000000000F803FE078E0707097
:10691A006070607000F000E003C007800F001E0086
:10692A003C0078007FF0FFF07FF0000000000000DC
:10693A00000000000000000000000F803FC071E06E
:10694A0070E060E000E001E00FC01FC000E00070EE
:10695A006070E070F07070E03FC01F8000000000BF
:10696A0000000000000000000000000000E001E05C
:10697A0003E003E007E00EE01CE038E038E070E0F6
:10698A00E0E0FFF8FFFC00E000E000E000E00000CB
:10699A0000000000000000000000000000003FE0CE
:1069AA003FF03FE07000700070007F807FE070E091
:1069BA00607000700070E070E07070E07FC01F804F
:1069CA0000000000000000000000000000000000BD
:1069DA000F803FC038E070606060E000EF80FFC069
:1069EA00F0E0E070E070E070E070707070E03FC05E
:1069FA000F800000000000000000000000000000FE
:106A0A000000FFF0FFF000F001E001C00380078002
:106A1A0007000F000E000E001E001C001C001C00C8
:106A2A001C00180000000000000000000000000028
:106A3A00000000001F803FC070E070E0606070E0FE
:106A4A0070E03FC03FC070E0E070E070E070E0705E
:106A5A0070E07FE01F8000000000000000000000DE
:106A6A000000000000001F003FC071E0E0E0E0709D
:106A7A00E070E070E07070F03FF01F7000706060CE
:106A8A0070E071C03FC01F0000000000000000005D
:106A9A0000000000000000000000E0E0E00000004C
:106AAA00000000E0E0E0000000000000000000003C
:106ABA00000000E0E0E0000000000000C0E0E0604C
:106ACA0060C080000000000000000000000000100C
:106ADA0000F003F00FF07F80FC00F000FC007F80E4
:106AEA000FE003F000F000100000000000000000BA
:106AFA00000000000000000000000000000000008C
:106B0A00000000000000FFF0FFF0FFF000000000AE
:106B1A00FFF0FFF0FFF0000000000000000000009E
:106B2A00000000000000000000000000000000005B
:106B3A0000008000F000FC007F001FE003F000F07E
:106B4A0003F01FE0FF00FC00F000800000000000DE
:106B5A00000000000000000000000000000000002B
:106B6A001F007FC0F1C0E0E0E0E0C0E003C007C062
:106B7A000F800E001C001C00080000001C001C00F6
:106B8A001C000000000000000000000000000000DF
:106B9A00000000000000FF0003FFC00F01E01C001E
:106BAA007038003830FB9861FF8C638F8CC7070CF4
:106BBA00C7070CCE070CCE071CCE0F18CE0E38CF47
:106BCA001E7067FFE063EF8030000E1C003C0F0070
:106BDA00F807FFE000FF0000000000000003C00308
:106BEA00C007E007E00EF00E700E701C781C383CEF
:106BFA003C3C3C7FFE7FFE700EF00FE007E0070092
:106C0A00000000000000000000000000000000FF7B
:106C1A00E0FFF8E078E038E038E038E078FFF0FFAD
:106C2A00F0E038E01CE01CE01CE01CE03CFFF87FD0
:106C3A00F00000000000000000000000000000005A
:106C4A000007E01FF83FFC783C701EF00EE004E0FD
:106C5A0000E000E000E00CF00E701E783C3FFC1FE4
:106C6A00F807E0000000000000000000000000003B
:106C7A00000000FFC0FFE0FFF0E078E038E01CE031
:106C8A001CE01CE01CE01CE01CE03CE038E078FF63
:106C9A00F0FFF0FFC000000000000000000000004C
:106CAA000000000000FFF0FFF0E000E000E000E07C
:106CBA0000E000FFF0FFF0E000E000E000E000E0AC
:106CCA0000FFF0FFF8FFF0000000000000000000E5
:106CDA0000000000000000FFE0FFF0E000E000E03C
:106CEA0000E000E000FFC0FFC0E000E000E000E0DC
:106CFA0000E000E000E000E000000000000000000A
:106D0A0000000000000000000007F01FFC3C1E7895
:106D1A000E700FE006E000E000E0FFE0FFE007E0B1
:106D2A0007700778073C1F1FFE07F80000000000E5
:106D3A000000000000000000000000E01CE01CE071
:106D4A001CE01CE01CE01CFFFCFFFCFFFCE01CE05C
:106D5A001CE01CE01CE01CE01CE01CE01C00000025
:106D6A0000000000000000000000E0E0E0E0E0E0D9
:106D7A00E0E0E0E0E0E0E0E0E0E0E0000000000069
:106D8A0000000000000000E000E000E000E000E099
:106D9A0000E000E000E000E000E0E0E0E0E0F0E039
:106DAA00F1E07FC03FC01F000000000000000000AB
:106DBA000000000000000000E038E078E0F8E1F0B0
:106DCA00E3E0E7C0EF80FF80FFC0FBC0F1E0E0F046
:106DDA00E0F0E078E03CE03CE01C0000000000004D
:106DEA0000000000000000000000E000E000E000F9
:106DFA00E000E000E000E000E000E000E000E00089
:106E0A00E000E000E000FFE0FFF0FFE0000000002B
:106E1A00000000000000000000000000F81FF81F3A
:106E2A00FC3FFC3FFC3FEC37EE77EE77EE77E66708
:106E3A00E7E7E7E7E7E7E3C7E3C7E3C7E187000078
:106E4A000000000000000000000000000000601CBC
:106E5A00F01CF81CF81CFC1CFE1CEE1CE71CE79C32
:106E6A00E39CE1DCE1FCE0FCE07CE07CE03CE01C53
:106E7A000000000000000000000000000000000008
:106E8A0000000007F0001FFC003FFE007C1F00709E
:106E9A000700F00780E00380E00380E00380E0035E
:106EAA0080E00380F007807007007C1F003FFE002F
:106EBA001FFC0007F00000000000000000000000B6
:106ECA0000000000000000000000007FE0FFF0E08A
:106EDA0078E038E038E038E038E070FFF0FFC0E0F2
:106EEA0000E000E000E000E000E000E00000000058
:106EFA000000000000000000000000000000000088
:106F0A0007F0001FFC003FFE007C1F00700700F026
:106F1A000780E00380E00380E00380E00380E00371
:106F2A0080F1C78070FF007C3F003FFE001FFF809A
:106F3A0007F3C00001C000000000000000000000CC
:106F4A0000000000000000007FF0FFF8E03CE01CB9
:106F5A00E01CE01CE03CFFF8FFE0E1E0E0F0E07854
:106F6A00E078E03CE03CE01CE00C0000000000009F
:106F7A00000000000000000000001F807FE070F0A9
:106F8A00E070E030F000FE007FC03FF007F00078CC
:106F9A00C038E038E038F0707FE01FC00000000021
:106FAA000000000000000000000000007FFCFFFE5F
:106FBA007FFC0380038003800380038003800380B7
:106FCA000380038003800380038003800380000022
:106FDA000000000000000000000000000000E01CAB
:106FEA00E01CE01CE01CE01CE01CE01CE01CE01CB7
:106FFA00E01CE01CE01CF03C78787FF83FF00FC002
:10700A000000000000000000000000000000000076
:10701A00E00EE00EF01E701C781C783C38383C38C4
:10702A003C701C701EF00EE00EE00FE007C007C0B7
:10703A0003800000000000000000000000000000C3
:10704A000000000000E07038E0F838E0F838F0F8A6
:10705A007870D87071DC7071DC7079DCF03B8EE08E
:10706A003B8EE03B8EE03B06E01F07C01F07C01FB8
:10707A0007C01E03C00E03800000000000000000CD
:10708A0000000000000000000000000000603070F6
:10709A0038707078F03CE01DC01FC00F800F800F61
:1070AA00801FC03DE038E078F0F078E038E0380042
:1070BA00000000000000000000000000000000E0E6
:1070CA0018E038F078787078F03DE01DC01FC00FE6
:1070DA0080070007000700070007000700070007EE
:1070EA000000000000000000000000000000000096
:1070FA00007FFC7FFC003C007C00F801F001E0030B
:10710A00E007C00F800F001E003C007C00F800FF63
:10711A00FE7FFE00000000000000000000000000EA
:10712A00FCFCE0E0E0E0E0E0E0E0E0E0E0E0E0E01D
:10713A00E0E0E0FC7C00000000E0E060607070309D
:10714A0030383818181C1C0C0C0C00000000000009
:10715A000000FCFC1C1C1C1C1C1C1C1C1C1C1C1CDD
:10716A001C1C1C1C1CFCFC0000000000000007008A
:10717A000F000F801F801FC039C039C070E0F0F0C7
:10718A0000000000000000000000000000000000F5
:10719A0000000000000000000000000000000000E5
:1071AA0000000000000000000000000000000000D5
:1071BA0000000000000000000000000000000000C5
:1071CA00000000000000FFF000000000000000E0E6
:1071DA00701800000000000000000000000000001D
:1071EA000000000000000000000000000000000095
:1071FA0000000000001FC07FE070F0607001F03FE7
:10720A00F07E70E070E070F1F07FF83E3000000030
:10721A0000000000000000000000000000E000E0A4
:10722A0000E000E000E000E780FFE0F8E0F0F0E0D6
:10723A0070E070E070E070F0F0F8E0FFC0E7800006
:10724A000000000000000000000000000000000034
:10725A000000000000000000001F803FE070E0F026
:10726A0070E020E000E000E020F07070F03FE01FE6
:10727A008000000000000000000000000000000084
:10728A0000007000700070007000701E707FF07156
:10729A00F0F0F0E070E070E070E070F0F071F03F54
:1072AA00F01E700000000000000000000000000056
:1072BA00000000000000000000000000001F803FE6
:1072CA00C070E0E0F0E070FFF0FFE0E000E0307056
:1072DA00F03FE01F800000000000000000000000F6
:1072EA0000000000001F003F80380038003800FE10
:1072FA0000FF0038003800380038003800380038FD
:10730A0000380038003800000000000000000000CB
:10731A000000000000000000000000000000000063
:10732A00001E707FF070F0F0F0E070E070E070E046
:10733A0070E0F070F03FF01E704070E07070E07F17
:10734A00E01F80000000000000E000E000E000E034
:10735A0000E000EF80FFC0F1E0E0E0E0E0E0E0E024
:10736A00E0E0E0E0E0E0E0E0E0E0E0000000000073
:10737A000000000000000000E0E0E00000E0E0E0C3
:10738A00E0E0E0E0E0E0E0E0E00000000000000013
:10739A00001C1C1C00001C1C1C1C1C1C1C1C1C1C77
:1073AA001C1C1C1C1CFCF8000000000000E000E093
:1073BA0000E000E000E000E1C0E3C0E780EF00FE8B
:1073CA0000FF00F700E380E3C0E1C0E0E0E0E00096
:1073DA00000000000000000000000000E0E0E0E023
:1073EA00E0E0E0E0E0E0E0E0E0E0E0E0E000000033
:1073FA000000000000000000000000000000000083
:10740A0000000000000000000000EF9F00FFFFC026
:10741A00F1E3C0E1C1C0E1C1C0E1C1C0E1C1C0E165
:10742A00C1C0E1C1C0E1C1C0E1C1C0E1C1C0000049
:10743A000000000000000000000000000000000042
:10744A0000000000000000000000000000EF80FFC4
:10745A00C0F1E0E0E0E0E0E0E0E0E0E0E0E0E0E031
:10746A00E0E0E0E0E00000000000000000000000B2
:10747A000000000000000000000000000000000FF3
:10748A00803FE078F0F078E038E038E038E038F033
:10749A007878F03FE00F8000000000000000000054
:1074AA0000000000000000000000000000000000D2
:1074BA0000E780FFC0F8E0F0F0E070E070E070E014
:1074CA0070F0F0F8E0FFC0E780E000E000E000E0E4
:1074DA0000E00000000000000000000000000000C2
:1074EA000000001E703FF071F0F0F0E070E070E014
:1074FA0070E070F0F071F03FF01E700070007000E4
:10750A007000700070000000000000000000000021
:10751A000000000000EF00FF80F000E000E000E063
:10752A0000E000E000E000E000E000E00000000011
:10753A000000000000000000000000000000000041
:10754A00000000000000003F007FC0E1C0E0C0F87A
:10755A00007F801FC001E0E0E0F0E07FC03F8000D4
:10756A0000000000000000000000000000000038D9
:10757A00003800380038003800FE00FF00380038B4
:10758A00003800380038003800380038003F801FC3
:10759A0000000000000000000000000000000000E1
:1075AA000000000000000000000000E0E0E0E0E071
:1075BA00E0E0E0E0E0E0E0E0E0E0E0E0E0F1E07F11
:1075CA00E03CE000000000000000000000000000B5
:1075DA0000000000000000000000000000C060E0A1
:1075EA00E0E0E071C071C031803B803B801B001F2E
:1075FA00000E000E00000000000000000000000065
:10760A000000000000000000000000000000000070
:10761A0000000000000000E0C1C0E1E1C0E1E1C0FB
:10762A0071E38073F3807333803B37003F3F003E42
:10763A001F001E1E001E1E000C0C00000000000091
:10764A000000000000000000000000000000000030
:10765A0000000000000000000000E0E0F1E07BC054
:10766A003F801F001F003F803B807BC0F1E0E0E0CD
:10767A00C0E0000000000000000000000000000060
:10768A00000000000000000000000000E060E0E0F0
:10769A00E0E071C071C071C03B803B801B001F00DD
:1076AA001F000E000E000E001C00FC00F800000077
:1076BA0000000000000000000000000000007FE061
:1076CA00FFE001E003C007800F001E001C00380025
:1076DA007800FFF0FFF0000000000000000000004A
:1076EA00000000070F1F1C1C1C1C1C1C78F8F878D3
:1076FA001C1C1C1C1C1C1F0F07000000E0E0E0E023
:10770A00E0E0E0E0E0E0E0E0E0E0E0E0E0E0E0E06F
:10771A00E0E0000000E0F0F83838383838381E1F4A
:10772A001F1E383838383838F8F0E00000000000FA
:10773A000000000000000000000000000000007CC3
:10774A0010FFF0FFF083E0000000000000000000DE
:10775A00000000000000000000000000000000001F
:10776A0000000000000000000000000000C0C0C0CF
:10777A00C0C0C0C0C000C0C000000000D8D8D8D85F
:10778A000000000000000000000000121224FEFEAB
:10779A0048FEFE489090000000107CFCD6D0F07C99
:1077AA001E16D67E7C100000000061009100920037
:1077BA0092009400658006400A400A4012401180F7
:1077CA0000000000000000387C6C7C3078DACECEF5
:1077DA00FF7A00000000C0C0C0C000000000000026
:1077EA00000000000010206060C0C0C0C0C0C060BF
:1077FA0060201000804060203030303030306060CF
:10780A0040800020A8F8205050000000000000002E
:10781A000000000000303030FCFC30303000000046
:10782A0000000000000000000000C0C040408000CE
:10783A00000000000000F0F000000000000000005E
:10784A000000000000000000C0C00000000030304E
:10785A00306060606060C0C0C0000000007878CC12
:10786A00CCCCCCCCCCCC787800000000303070F096
:10787A00B030303030303000000000387CCCCC0CD6
:10788A0018387060FCFC0000000078FCCC0C38381A
:10789A000C0CCCF878000000000C1C1C3C2C6CCCA6
:1078AA00FEFE0C0C000000007C7C60D8FCCC0CCCEA
:1078BA00CC7878000000007078D8C0F0F8D8D8D812
:1078CA00787000000000F8F818103030206060600E
:1078DA00600000000078FCCCCC7878CCCCCCFC786A
:1078EA000000000070F8CCCCCCFC7C0CCCF870000A
:1078FA00000000000000C0C000000000C0C000007E
:10790A000000000000C0C000000000C0C04040806D
:10791A000000041C38F0C0F0381C0400000000000D
:10792A00000000FCFC00FCFC00000000000000005D
:10793A0080E0703C0C1C70E080000000000078FCC5
:10794A00CCCC1C18303000303000000000000FC0D2
:10795A001FE0303066D8EFD8DDD8D898D998D9B09A
:10796A00DFF06EC870103FE00FC000001C001C0062
:10797A001C0036003600360063007F007F00C1809D
:10798A00C18000000000000000FCFEC6C6FCFCC668
:10799A00C6C6FEFC000000003C7E67C2C0C0C0C272
:1079AA00677E3C00000000F8FCCEC6C6C6C6C6CE3E
:1079BA00FCF800000000FEFEC0C0FEFEC0C0C0FE13
:1079CA00FE00000000FCFCC0C0F8F8C0C0C0C0C087
:1079DA00000000003C7E67C3C0CFCFC3637F3C007A
:1079EA00000000C6C6C6C6FEFEC6C6C6C6C600009B
:1079FA000000C0C0C0C0C0C0C0C0C0C0C00000003D
:107A0A00000C0C0C0C0C0C0CCCCCFC78000000000C
:107A1A00C3C6CCCCD8FCECC6C6C3C300000000C0A9
:107A2A00C0C0C0C0C0C0C0C0FEFE0000000000E36D
:107A3A0080E380E380F780D580D580D580D580DD4E
:107A4A0080D980C98000000000000000C6E6E6E692
:107A5A00F6D6DEDECECEC6000000003C7E67C3C38B
:107A6A00C3C3C3667E3C00000000FCFEC6C6C6FE59
:107A7A00FCC0C0C0C000000000003C007E00E7005F
:107A8A00C300C300C300C300CB0066007F003D8073
:107A9A0000800000000000FCFEC6C6FEFCCCC6C684
:107AAA00C6C3000000007CFEC6C6F07C0EC6C6FE39
:107ABA007C00000000FFFF1818181818181818186A
:107ACA0000000000C6C6C6C6C6C6C6C6C67E380000
:107ADA0000000000C180C1806300630063003600BB
:107AEA00360036001C001C001C00000000000000CC
:107AFA000000C460C460CA606AC06AC06AC06AC062
:107B0A006AC031803180318000000000000000002E
:107B1A00C1806300360036001C001C001C003600C1
:107B2A0036006300C18000000000000000C36666E2
:107B3A003C3C18181818181800000000FEFE060C25
:107B4A0018303060C0FEFE00000000E0E0C0C0C097
:107B5A00C0C0C0C0C0C0C0E0E000C0C0C0606060BB
:107B6A00606030303000000000E0E060606060601B
:107B7A006060606060E0E00038386C6C6CC60000E1
:107B8A0000000000000000000000000000000000EB
:107B9A00000000FE0000C0600000000000000000BD
:107BAA00000000000000000078FCCC3CFCCCFC6C1F
:107BBA0000000000C0C0C0F8FCCCCCCCCCF8F80067
:107BCA000000000000007078D8C0C0D878700000AB
:107BDA0000000C0C0C7CFCCCCCCCCCFC7C00000057
:107BEA000000000070F8D8F8C0D8F8700000000053
:107BFA00307060F0F060606060606000000000005B
:107C0A0000006CFCCCCCCCCCFC6C0CCC7800C0C09A
:107C1A00C0D8FCCCCCCCCCCCCC00000000C0C0007E
:107C2A00C0C0C0C0C0C0C0C00000000030300030BA
:107C3A003030303030303030F0E000C0C0C0CCD806
:107C4A00F0F8D8D8CCCC00000000C0C0C0C0C0C07A
:107C5A00C0C0C0C0C000000000000000000000005A
:107C6A00D980FFC0CCC0CCC0CCC0CCC0CCC0CCC0AA
:107C7A0000000000000000000000D8FCCCCCCCCCF6
:107C8A00CCCC000000000000007878CCCCCCCC78BA
:107C9A007800000000000000D8FCCCCCCCCCF8D88E
:107CAA00C0C0C0000000006CFCCCCCCCCCFC6C0C7E
:107CBA000C0C00000000D0F0C0C0C0C0C0C0000062
:107CCA00000000000070F8C8E03898F87000000062
:107CDA0000206060F0F0606060607070000000007A
:107CEA00000000CCCCCCCCCCCCFC6C00000000005A
:107CFA000000C6C66C6C6C38383800000000000002
:107D0A000000000000DD80DD80DD80D58055007731
:107D1A00007700770000000000000000000000CC9F
:107D2A00787830307878CC00000000000000C6C6B1
:107D3A006C6C6C38383830F0E000000000FCFC183D
:107D4A00303060FCFC00000000307060606060C091
:107D5A00C060606060703000C0C0C0C0C0C0C0C039
:107D6A00C0C0C0C0C0C000C0E060606060303060A9
:107D7A00606060E0C00000000000E4FC9C000000BD
:107D8A00000000000800000319000832000D4B0033
:107D9A000C7D0013AF000FFA00032C010645010603
:107DAA005E010A77010CA90104DB0107F401030D46
:107DBA00020626020C3F020871020C8A020CBC025F
:107DCA000EEE020C20030C52030C84030CB6030CB7
:107DDA00E803031A040333040C4C040C7E040CB0AD
:107DEA00040BE204171405105F050E91050FC30575
:107DFA000EF5050D27060C5906108B060EBD060357
:107E0A00EF060B08070E3A070C6C07109E070ED0F8
:107E1A00071102080D4D08127F080ECA080DFC084A
:107E2A000F2E090E60090F920915C4090D0F0A0DCC
:107E3A00410A0F730A06A50A06BE0A06D70A0CF0FB
:107E4A000A0C220B05540B0D6D0B0C9F0B0CD10B5E
:107E5A000C030C0C350C09670C0C990C0BCB0C039E
:107E6A00FD0C06160D0B2F0D03610D127A0D0BC5B5
:107E7A000D0DF70D0C290E0C5B0E098D0E0BBF0EA6
:107E8A0009F10E0B230F0B550F12870F0BD20F0B95
:107E9A0004100C3610086810038110089A100CB3ED
:107EAA0010080000020F00051E00072D00073C0005
:107EBA000A4B00086900027800048700049600054E
:107ECA00A50006B40002C30004D20002E10004F0D7
:107EDA000006FF00040E01061D01062C01073B01E6
:107EEA00064A01055901056801067701068601025D
:107EFA00950102A40106B30106C20106D10106E0FA
:107F0A00010DEF01090D02072B02083A0207490287
:107F1A0007580206670208760207850202940206DB
:107F2A00A30208B20207C10209D00207EE0208FD45
:107F3A0002070C03091B0308390307480308570300
:107F4A000766030975030B930309B10308CF0307F7
:107F5A00DE0303ED0304FC03030B04071A040729D9
:107F6A000403380406470406560405650406740427
:107F7A0005830404920406A10406B00402BF0404A3
:107F8A00CE0406DD0402EC040AFB040619050628E1
:107F9A0005063705064605045505056405047305F7
:107FAA0006820507910509A00506BE0507CD050647
:107FBA00DC0504EB0502FA050409060618060F207B
:107FCA007EAB7E6777504152414D4554455253002E
:107FDA004D656E7553746172740057454C434F4D2D
:107FEA004500494E47414D4500583A2025640059FD
:067FFA003A20256400009E
:020000040020DA
:08000000FFFFFFFFFFFFFFFF00
:020000040030CA
:0E000000FF381F3EFFBD85FF0FC00FE00F4011
:00000001FF
