:020000040000FA
:040000000EEF32F0DD
:1063CA0012001200000E2E6E5AEC32F01200000E6D
:1063DA002D6E2CEC32F01200FAEC32F0E7EC31F0D0
:1063EA00ECEC31F01200306E3050D8A4FFEF31F0EF
:1063FA0001EF32F002EF32F0F29E1200306E3050AE
:10640A00D8A40AEF32F00CEF32F00DEF32F0F28E30
:10641A00120000EE01F02F0EEE6AE806FDE1000E12
:10642A00F86E000142EF32F030503202F3CF34F00E
:10643A00F4CF35F030503302F35035263150320262
:10644A00F350352634C030F035C031F012002D50EB
:10645A00306E316A3150000AD8B436EF32F041EF6B
:10646A0032F03050000AD8B441EF32F0010AD8B401
:10647A0041EF32F041EF32F01200F1EC31F0000E50
:10648A0074EC32F0386E3850D8B44EEF32F050EF28
:10649A0032F044EF32F03850E5EC31F03850E6ECA7
:1064AA0031F044EF32F000EF00F02E50306E316AD6
:1064BA003150000AD8B464EF32F073EF32F0305042
:1064CA00000AD8B473EF32F0010AD8B473EF32F08D
:1064DA00030AD8B473EF32F073EF32F01200376E5A
:1064EA003750F8EC31F026502518D8A47FEF32F057
:1064FA0081EF32F087EF32F0375003EC32F0000EC2
:10650A00A1EF32F0190E2624D96EDA6A000EDA22C9
:10651A00DF50366E010E2624306E316A000E3122AB
:10652A00000E336E0C0E326EA2EC32F03050266E34
:10653A00375003EC32F036501200000E356E31BE81
:10654A00ABEF32F0A9EF32F0B1EF32F0306C311E1E
:10655A00D8B0312A010E356E33BEB8EF32F0B6EF3D
:10656A0032F0BCEF32F0326C331ED8B0332A3250DC
:10657A003310D8B4C3EF32F0C5EF32F0E9EF32F09E
:10658A00010E346ECDEF32F0D89032363336342ADB
:10659A0033AED2EF32F0D4EF32F0C9EF32F03250EC
:1065AA00305C33503158D8A0DDEF32F0DFEF32F0F3
:1065BA00E3EF32F03250305E3350315AD8903332F2
:1065CA003232342ED4EF32F03550D8B4EFEF32F005
:1065DA00F1EF32F0F5EF32F0306C311ED8B0312ADB
:1065EA0030C030F031C031F01200000E376E000EAC
:1065FA00366E190E3624D96E000E3720DA6E000E6A
:10660A00DF6E364A372A37BE14EF33F0375009E1C6
:10661A000C0E365CD8A014EF33F016EF33F0FEEF11
:10662A0032F0000E376E000E366E36C030F037C0CC
:10663A0031F0000E336E030E326E19EC32F0010E99
:10664A003024D96E000E3120DA6E000EDE6E000E96
:10665A00DD6E36C030F037C031F0000E336E030EF7
:10666A00326E19EC32F0030E3024D96E000E31204E
:10667A00DA6E000EDF6E364A372A37BE4EEF33F037
:10668A00375009E1080E365CD8A04EEF33F050EFD0
:10669A0033F01AEF33F0000E256E000E266E12004C
:1066AA000019207EC57DB9660F207EE27E9E7700A6
:1066BA0000000000000000000000000000000000D0
:1066CA000000000000000000000000E0E0E0E0E060
:1066DA00E0E0E0E0E0C0400000E0E0E000000000B0
:1066EA0000000000E7E7E7E7E7E700000000000036
:1066FA000000000000000000000000000000000090
:10670A000E300E700C701C60FFF8FFF818E018E0ED
:10671A0038C038C0FFF8FFF8318071807380738009
:10672A006180000000000000000000000600060072
:10673A000F003FC07FE0F6E0E6E0E660F600FE000C
:10674A007F801FC007E006F0C670E670E670F6F0BC
:10675A007FE03FC00F0006000600060006000000AA
:10676A0000000000000000780200440600C60C0089
:10677A00C60C00C61800C61000C630007C600000B7
:10678A0047C000C640018C60018C60030C60020C9B
:10679A0060060C600C06400C038008000000000034
:1067AA000000000000000000000000000000000FD0
:1067BA00801FC038E038E038E01DC01F800F003F5E
:1067CA00087F9CF3DCE1F8E0F8E0F871FE7FDE1F59
:1067DA008600000000000000000000000000E0E069
:1067EA00E0E0E0E00000000000000000000000001F
:1067FA00000000000000000C183830707070E0E0F3
:10680A00E0E0E0E0E0E07070703038180C00000062
:10681A00C06070303838381C1C1C1C1C1C1C1C38EE
:10682A003838307060C0000000000C000C000C000A
:10683A00EDC07F800C001E00330021000000000024
:10684A00000000000000000000000000000000003E
:10685A00000000000000000000000000000000002E
:10686A0000000E000E000E000E000E00FFF0FFF0FA
:10687A00FFF00E000E000E000E000E0000000000D9
:10688A0000000000000000000000000000000000FE
:10689A00000000000000000000000060F0F030304E
:1068AA00E0C000000000000000000000000000FE40
:1068BA00FEFE0000000000000000000000000000D2
:1068CA0000000000000000000000000000E0E0E01E
:1068DA0000000000000000000C0C1C1818183830CA
:1068EA00303070606060E0C0C0000000000000004E
:1068FA00000000001F003FC070E070E0E070E07030
:10690A00E070E070E070E070E070E070E07070E0FD
:10691A0070E03FC00F80000000000000000000008F
:10692A0000000003070F1F7FF7E70707070707079E
:10693A000707070700000000000000000000000F22
:10694A00803FE078E070706070607000F000E003F3
:10695A00C007800F001E003C0078007FF0FFF07F28
:10696A00F00000000000000000000000000000002D
:10697A00000F803FC071E070E060E000E001E00FCE
:10698A00C01FC000E000706070E070F07070E03FFF
:10699A00C01F80000000000000000000000000008E
:1069AA0000000000E001E003E003E007E00EE01C65
:1069BA00E038E038E070E0E0E0FFF8FFFC00E000DB
:1069CA00E000E000E000000000000000000000001D
:1069DA0000000000003FE03FF03FE07000700070F0
:1069EA00007F807FE070E0607000700070E070E00F
:1069FA007070E07FC01F80000000000000000000EF
:106A0A00000000000000000F803FC038E0706060A6
:106A1A0060E000EF80FFC0F0E0E070E070E070E05E
:106A2A0070707070E03FC00F80000000000000002E
:106A3A00000000000000000000FFF0FFF000F0017D
:106A4A00E001C00380078007000F000E000E001E41
:106A5A00001C001C001C001C0018000000000000A4
:106A6A0000000000000000000000001F803FC0700E
:106A7A00E070E0606070E070E03FC03FC070E0E04E
:106A8A0070E070E070E07070E07FE01F800000004E
:106A9A00000000000000000000000000001F003F8E
:106AAA00C071E0E0E0E070E070E070E07070F03F2C
:106ABA00F01F700070606070E071C03FC01F00007E
:106ACA0000000000000000000000000000000000BC
:106ADA0000E0E0E0000000000000E0E0E00000006C
:106AEA0000000000000000000000E0E0E0000000FC
:106AFA00000000C0E0E06060C0800000000000000C
:106B0A000000000000001000F003F00FF07F80FC8E
:106B1A0000F000FC007F800FE003F000F00010009E
:106B2A00000000000000000000000000000000005B
:106B3A0000000000000000000000000000FFF0FF5D
:106B4A00F0FFF000000000FFF0FFF0FFF00000008F
:106B5A00000000000000000000000000000000002B
:106B6A000000000000000000008000F000FC007F30
:106B7A00001FE003F000F003F01FE0FF00FC00F04C
:106B8A00008000000000000000000000000000007B
:106B9A00000000000000001F007FC0F1C0E0E0E03C
:106BAA00E0C0E003C007C00F800E001C001C0008F4
:106BBA000000001C001C001C000000000000000077
:106BCA0000000000000000000000000000FF0003B9
:106BDA00FFC00F01E01C007038003830FB9861FFDD
:106BEA008C638F8CC7070CC7070CCE070CCE071C0B
:106BFA00CE0F18CE0E38CF1E7067FFE063EF8030DD
:106C0A00000E1C003C0F00F807FFE000FF00000028
:106C1A000000000003C003C007E007E00EF00E709A
:106C2A000E701C781C383C3C3C3C7FFE7FFE700E8C
:106C3A00F00FE007E007000000000000000000007D
:106C4A00000000000000FFE0FFF8E078E038E038DC
:106C5A00E038E078FFF0FFF0E038E01CE01CE01CD0
:106C6A00E01CE03CFFF87FF000000000000000009C
:106C7A00000000000000000007E01FF83FFC783C1D
:106C8A00701EF00EE004E000E000E000E00CF00E00
:106C9A00701E783C3FFC1FF807E00000000000006F
:106CAA0000000000000000000000FFC0FFE0FFF04D
:106CBA00E078E038E01CE01CE01CE01CE01CE01C72
:106CCA00E03CE038E078FFF0FFF0FFC00000000091
:106CDA00000000000000000000000000FFF0FFF0CC
:106CEA00E000E000E000E000E000FFF0FFF0E0007C
:106CFA00E000E000E000E000FFF0FFF8FFF0000035
:106D0A000000000000000000000000000000FFE09A
:106D1A00FFF0E000E000E000E000E000FFC0FFC09C
:106D2A00E000E000E000E000E000E000E000E00059
:106D3A000000000000000000000000000000000049
:106D4A0007F01FFC3C1E780E700FE006E000E00022
:106D5A00E0FFE0FFE007E007700778073C1F1FFE2F
:106D6A0007F800000000000000000000000000001A
:106D7A000000E01CE01CE01CE01CE01CE01CFFFC26
:106D8A00FFFCFFFCE01CE01CE01CE01CE01CE01C1B
:106D9A00E01CE01C000000000000000000000000F1
:106DAA0000E0E0E0E0E0E0E0E0E0E0E0E0E0E0E0B9
:106DBA00E0E0000000000000000000000000E00029
:106DCA00E000E000E000E000E000E000E000E000B9
:106DDA00E0E0E0E0E0F0E0F1E07FC03FC01F00004B
:106DEA00000000000000000000000000000000E0B9
:106DFA0038E078E0F8E1F0E3E0E7C0EF80FF80FFF9
:106E0A00C0FBC0F1E0E0F0E0F0E078E03CE03CE01C
:106E1A001C0000000000000000000000000000004C
:106E2A0000E000E000E000E000E000E000E000E058
:106E3A0000E000E000E000E000E000E000FFE0FF2A
:106E4A00F0FFE00000000000000000000000000069
:106E5A00000000F81FF81FFC3FFC3FFC3FEC37EE38
:106E6A0077EE77EE77E667E7E7E7E7E7E7E3C7E393
:106E7A00C7E3C7E18700000000000000000000002F
:106E8A000000000000601CF01CF81CF81CFC1CFE32
:106E9A001CEE1CE71CE79CE39CE1DCE1FCE0FCE067
:106EAA007CE07CE03CE01C000000000000000000E8
:106EBA000000000000000000000007F0001FFC00B6
:106ECA003FFE007C1F00700700F00780E00380E0AF
:106EDA000380E00380E00380E00380F0078070070E
:106EEA00007C1F003FFE001FFC0007F000000000AE
:106EFA000000000000000000000000000000000088
:106F0A0000007FE0FFF0E078E038E038E038E03871
:106F1A00E070FFF0FFC0E000E000E000E000E00009
:106F2A00E000E00000000000000000000000000097
:106F3A000000000000000007F0001FFC003FFE00F8
:106F4A007C1F00700700F00780E00380E00380E008
:106F5A000380E00380E00380F1C78070FF007C3F7C
:106F6A00003FFE001FFF8007F3C00001C0000000C1
:106F7A000000000000000000000000000000007F88
:106F8A00F0FFF8E03CE01CE01CE01CE03CFFF8FFEE
:106F9A00E0E1E0E0F0E078E078E03CE03CE01CE0B2
:106FAA000C000000000000000000000000000000CB
:106FBA00001F807FE070F0E070E030F000FE007F9C
:106FCA00C03FF007F00078C038E038E038F0707F52
:106FDA00E01FC000000000000000000000000000E8
:106FEA000000007FFCFFFE7FFC0380038003800318
:106FFA00800380038003800380038003800380036F
:10700A0080038003800000000000000000000000F0
:10701A000000000000E01CE01CE01CE01CE01CE09A
:10702A001CE01CE01CE01CE01CE01CE01CF03C78AE
:10703A00787FF83FF00FC000000000000000000059
:10704A0000000000000000E00EE00EF01E701C7848
:10705A001C783C38383C383C701C701EF00EE00E30
:10706A00E00FE007C007C003800000000000000036
:10707A00000000000000000000000000E07038E09E
:10708A00F838E0F838F0F87870D87071DC7071DC94
:10709A007079DCF03B8EE03B8EE03B8EE03B06E015
:1070AA001F07C01F07C01F07C01E03C00E038000B2
:1070BA0000000000000000000000000000000000C6
:1070CA000000000060307038707078F03CE01DC03D
:1070DA001FC00F800F800F801FC03DE038E078F09E
:1070EA00F078E038E03800000000000000000000FE
:1070FA00000000000000E018E038F078787078F0BE
:10710A003DE01DC01FC00F800700070007000700F1
:10711A000700070007000700000000000000000049
:10712A0000000000000000007FFC7FFC003C007CA7
:10713A0000F801F001E003E007C00F800F001E0015
:10714A003C007C00F800FFFE7FFE0000000000000B
:10715A0000000000000000FCFCE0E0E0E0E0E0E00D
:10716A00E0E0E0E0E0E0E0E0E0E0FC7C00000000DD
:10717A00E0E0606070703030383818181C1C0C0C55
:10718A000C0000000000000000FCFC1C1C1C1C1C65
:10719A001C1C1C1C1C1C1C1C1C1C1C1CFCFC00009D
:1071AA00000000000007000F000F801F801FC03979
:1071BA00C039C070E0F0F0000000000000000000DC
:1071CA0000000000000000000000000000000000B5
:1071DA0000000000000000000000000000000000A5
:1071EA000000000000000000000000000000000095
:1071FA0000000000000000000000000000FFF00096
:10720A00000000000000E07018000000000000000C
:10721A000000000000000000000000000000000064
:10722A000000000000000000000000001FC07FE016
:10723A0070F0607001F03FF07E70E070E070F1F085
:10724A007FF83E300000000000000000000000004F
:10725A0000000000E000E000E000E000E000E7805D
:10726A00FFE0F8E0F0F0E070E070E070E070F0F05D
:10727A00F8E0FFC0E7800000000000000000000006
:10728A0000000000000000000000000000000000F4
:10729A001F803FE070E0F070E020E000E000E020B6
:1072AA00F07070F03FE01F80000000000000000056
:1072BA000000000000000000007000700070007004
:1072CA0000701E707FF071F0F0F0E070E070E07016
:1072DA00E070F0F071F03FF01E7000000000000056
:1072EA000000000000000000000000000000000094
:1072FA00000000001F803FC070E0E0F0E070FFF087
:10730A00FFE0E000E03070F03FE01F800000000086
:10731A000000000000000000000000001F003F8085
:10732A00380038003800FE00FF0038003800380006
:10733A0038003800380038003800380038000000BB
:10734A000000000000000000000000000000000033
:10735A0000000000000000001E707FF070F0F0F0E6
:10736A00E070E070E070E070E0F070F03FF01E70E6
:10737A004070E07070E07FE01F80000000000000B5
:10738A00E000E000E000E000E000EF80FFC0F1E094
:10739A00E0E0E0E0E0E0E0E0E0E0E0E0E0E0E0E0E3
:1073AA00E0E000000000000000000000000000E033
:1073BA00E0E00000E0E0E0E0E0E0E0E0E0E0E0E083
:1073CA0000000000000000001C1C1C00001C1C1C0B
:1073DA001C1C1C1C1C1C1C1C1C1C1C1CFCF800005F
:1073EA0000000000E000E000E000E000E000E1C092
:1073FA00E3C0E780EF00FE00FF00F700E380E3C090
:10740A00E1C0E0E0E0E00000000000000000000051
:10741A00000000E0E0E0E0E0E0E0E0E0E0E0E0E002
:10742A00E0E0E0E0000000000000000000000000D2
:10743A000000000000000000000000000000000042
:10744A0000EF9F00FFFFC0F1E3C0E1C1C0E1C1C08E
:10745A00E1C1C0E1C1C0E1C1C0E1C1C0E1C1C0E157
:10746A00C1C0E1C1C000000000000000000000002F
:10747A000000000000000000000000000000000002
:10748A0000000000EF80FFC0F1E0E0E0E0E0E0E0B3
:10749A00E0E0E0E0E0E0E0E0E0E0E0E00000000062
:1074AA0000000000000000000000000000000000D2
:1074BA000000000000000F803FE078F0F078E0382C
:1074CA00E038E038E038F07878F03FE00F800000EC
:1074DA0000000000000000000000000000000000A2
:1074EA000000000000000000E780FFC0F8E0F0F0B4
:1074FA00E070E070E070E070F0F0F8E0FFC0E78064
:10750A00E000E000E000E000E00000000000000011
:10751A00000000000000000000001E703FF071F043
:10752A00F0F0E070E070E070E070F0F071F03FF0C1
:10753A001E70007000700070007000700000000083
:10754A00000000000000000000000000EF00FF80C3
:10755A00F000E000E000E000E000E000E000E00011
:10756A00E000E00000000000000000000000000051
:10757A0000000000000000000000000000003F00C2
:10758A007FC0E1C0E0C0F8007F801FC001E0E0E0FA
:10759A00F0E07FC03F800000000000000000000013
:1075AA0000000000000038003800380038003800B9
:1075BA00FE00FF0038003800380038003800380074
:1075CA00380038003F801F00000000000000000063
:1075DA0000000000000000000000000000000000A1
:1075EA000000E0E0E0E0E0E0E0E0E0E0E0E0E0E051
:1075FA00E0E0E0E0F1E07FE03CE0000000000000B5
:10760A000000000000000000000000000000000070
:10761A0000000000C060E0E0E0E071C071C03180AD
:10762A003B803B801B001F000E000E000000000084
:10763A000000000000000000000000000000000040
:10764A000000000000000000000000000000E0C18F
:10765A00C0E1E1C0E1E1C071E38073F3807333807C
:10766A003B37003F3F003E1F001E1E001E1E000C3F
:10767A000C000000000000000000000000000000F4
:10768A0000000000000000000000000000000000F0
:10769A0000E0E0F1E07BC03F801F001F003F803B1D
:1076AA00807BC0F1E0E0E0C0E000000000000000E4
:1076BA0000000000000000000000000000000000C0
:1076CA00000000E060E0E0E0E071C071C071C03B22
:1076DA00803B801B001F001F000E000E000E001CC6
:1076EA0000FC00F80000000000000000000000009C
:1076FA0000000000007FE0FFE001E003C007800F08
:10770A00001E001C0038007800FFF0FFF0000000A7
:10771A0000000000000000000000070F1F1C1C1CD6
:10772A001C1C1C78F8F8781C1C1C1C1C1C1F0F073E
:10773A00000000E0E0E0E0E0E0E0E0E0E0E0E0E0DF
:10774A00E0E0E0E0E0E0E0E0E0000000E0F0F8384F
:10775A0038383838381E1F1F1E383838383838F845
:10776A00F0E000000000000000000000000000003F
:10777A000000000000007C10FFF0FFF083E0000032
:10778A0000000000000000000000000000000000EF
:10779A0000000000000000000000000000000000DF
:1077AA0000000000C0C0C0C0C0C0C0C000C0C0004F
:1077BA00000000D8D8D8D80000000000000000005F
:1077CA000000121224FEFE48FEFE489090000000BF
:1077DA00107CFCD6D0F07C1E16D67E7C10000000F1
:1077EA000061009100920092009400658006400AB0
:1077FA00400A401240118000000000000000387C5E
:10780A006C7C3078DACECEFF7A00000000C0C0C0AF
:10781A00C0000000000000000000000010206060AE
:10782A00C0C0C0C0C0C0606020100080406020306E
:10783A003030303030606040800020A8F82050504E
:10784A00000000000000000000000000303030FCA2
:10785A00FC30303000000000000000000000000092
:10786A0000C0C040408000000000000000F0F000AE
:10787A00000000000000000000000000000000C03E
:10788A00C0000000003030306060606060C0C0C07E
:10789A00000000007878CCCCCCCCCCCCCC7878006A
:1078AA00000000303070F0B030303030303000003E
:1078BA000000387CCCCC0C18387060FCFC0000004E
:1078CA000078FCCC0C38380C0CCCF878000000009E
:1078DA000C1C1C3C2C6CCCFEFE0C0C000000007C2A
:1078EA007C60D8FCCC0CCCCC787800000000707896
:1078FA00D8C0F0F8D8D8D8787000000000F8F81886
:10790A0010303020606060600000000078FCCCCC51
:10791A007878CCCCCCFC780000000070F8CCCCCCC9
:10792A00FC7C0CCCF87000000000000000C0C00015
:10793A00000000C0C000000000000000C0C000003D
:10794A000000C0C04040800000041C38F0C0F0387D
:10795A001C040000000000000000FCFC00FCFC000D
:10796A000000000000000080E0703C0C1C70E08009
:10797A00000000000078FCCCCC1C183030003030FD
:10798A0000000000000FC01FE0303066D8EFD8DDDD
:10799A00D8D898D998D9B0DFF06EC870103FE00FE8
:1079AA00C000001C001C001C0036003600360063B4
:1079BA00007F007F00C180C180000000000000003D
:1079CA00FCFEC6C6FCFCC6C6C6FEFC000000003CA7
:1079DA007E67C2C0C0C0C2677E3C00000000F8FCDF
:1079EA00CEC6C6C6C6C6CEFCF800000000FEFEC063
:1079FA00C0FEFEC0C0C0FEFE00000000FCFCC0C00D
:107A0A00F8F8C0C0C0C0C0000000003C7E67C3C018
:107A1A00CFCFC3637F3C00000000C6C6C6C6FEFEC9
:107A2A00C6C6C6C6C600000000C0C0C0C0C0C0C02E
:107A3A00C0C0C0C0000000000C0C0C0C0C0C0CCC1C
:107A4A00CCFC7800000000C3C6CCCCD8FCECC6C67F
:107A5A00C3C300000000C0C0C0C0C0C0C0C0C0FED8
:107A6A00FE0000000000E380E380E380F780D58019
:107A7A00D580D580D580DD80D980C98000000000FE
:107A8A00000000C6E6E6E6F6D6DEDECECEC600008A
:107A9A0000003C7E67C3C3C3C3C3667E3C000000CC
:107AAA0000FCFEC6C6C6FEFCC0C0C0C00000000086
:107ABA00003C007E00E700C300C300C300C300CB44
:107ACA000066007F003D8000800000000000FCFE90
:107ADA00C6C6FEFCCCC6C6C6C3000000007CFEC6F5
:107AEA00C6F07C0EC6C6FE7C00000000FFFF181818
:107AFA001818181818181800000000C6C6C6C6C6F6
:107B0A00C6C6C6C67E380000000000C180C18063B8
:107B1A0000630063003600360036001C001C001C9F
:107B2A00000000000000000000C460C460CA606A6F
:107B3A00C06AC06AC06AC06AC031803180318000C0
:107B4A0000000000000000C1806300360036001CFF
:107B5A00001C001C00360036006300C180000000D3
:107B6A0000000000C366663C3C1818181818180074
:107B7A00000000FEFE060C18303060C0FEFE000059
:107B8A000000E0E0C0C0C0C0C0C0C0C0C0C0E0E0EB
:107B9A0000C0C0C06060606060303030000000002B
:107BAA00E0E060606060606060606060E0E0003853
:107BBA00386C6C6CC6000000000000000000000079
:107BCA0000000000000000000000FE0000C060008D
:107BDA000000000000000000000000000000007823
:107BEA00FCCC3CFCCCFC6C00000000C0C0C0F8FC23
:107BFA00CCCCCCCCF8F8000000000000007078D89B
:107C0A00C0C0D87870000000000C0C0C7CFCCCCCF6
:107C1A00CCCCFC7C0000000000000070F8D8F8C052
:107C2A00D8F87000000000307060F0F060606060AA
:107C3A006060000000000000006CFCCCCCCCCCFCE6
:107C4A006C0CCC7800C0C0C0D8FCCCCCCCCCCCCC92
:107C5A0000000000C0C000C0C0C0C0C0C0C0C0009A
:107C6A00000000303000303030303030303030F00A
:107C7A00E000C0C0C0CCD8F0F8D8D8CCCC00000006
:107C8A0000C0C0C0C0C0C0C0C0C0C0C000000000AA
:107C9A0000000000000000D980FFC0CCC0CCC0CCDE
:107CAA00C0CCC0CCC0CCC000000000000000000066
:107CBA0000D8FCCCCCCCCCCCCC000000000000001E
:107CCA007878CCCCCCCC787800000000000000D8C2
:107CDA00FCCCCCCCCCF8D8C0C0C0000000006CFCF6
:107CEA00CCCCCCCCFC6C0C0C0C00000000D0F0C04E
:107CFA00C0C0C0C0C00000000000000070F8C8E0AA
:107D0A003898F87000000000206060F0F060606051
:107D1A0060707000000000000000CCCCCCCCCCCC51
:107D2A00FC6C00000000000000C6C66C6C6C3838A1
:107D3A00380000000000000000000000DD80DD8047
:107D4A00DD80D580550077007700770000000000BD
:107D5A00000000000000CC787830307878CC000041
:107D6A000000000000C6C66C6C6C38383830F0E091
:107D7A0000000000FCFC18303060FCFC0000000031
:107D8A00307060606060C0C060606060703000C069
:107D9A00C0C0C0C0C0C0C0C0C0C0C0C0C000C0E079
:107DAA0060606060303060606060E0C000000000C9
:107DBA0000E4FC9C00000000000000080000031919
:107DCA00000832000D4B000C7D0013AF000FFA00C3
:107DDA00032C01064501065E010A77010CA901047C
:107DEA00DB0107F401030D020626020C3F020871AB
:107DFA00020C8A020CBC020EEE020C20030C520387
:107E0A000C84030CB6030CE803031A040333040CB2
:107E1A004C040C7E040CB0040BE204171405105F2A
:107E2A00050E91050FC3050EF5050D27060C59061B
:107E3A00108B060EBD0603EF060B08070E3A070C59
:107E4A006C07109E070ED0071102080D4D08127F0D
:107E5A00080ECA080DFC080F2E090E60090F9209B8
:107E6A0015C4090D0F0A0D410A0F730A06A50A0661
:107E7A00BE0A06D70A0CF00A0C220B05540B0D6D2C
:107E8A000B0C9F0B0CD10B0C030C0C350C09670C5B
:107E9A000C990C0BCB0C03FD0C06160D0B2F0D03C6
:107EAA00610D127A0D0BC50D0DF70D0C290E0C5B29
:107EBA000E098D0E0BBF0E09F10E0B230F0B550F7A
:107ECA0012870F0BD20F0B04100C36100868100320
:107EDA008110089A100CB310080000020F00051E4A
:107EEA0000072D00073C000A4B00086900027800D1
:107EFA0004870004960005A50006B40002C3000426
:107F0A00D20002E10004F00006FF00040E01061D83
:107F1A0001062C01073B01064A01055901056801C2
:107F2A0006770106860102950102A40106B301063D
:107F3A00C20106D10106E0010DEF01090D02072B6E
:107F4A0002083A020749020758020667020876023F
:107F5A0007850202940206A30208B20207C10209B7
:107F6A00D00207EE0208FD02070C03091B030839B9
:107F7A00030748030857030766030975030B9303AE
:107F8A0009B10308CF0307DE0303ED0304FC03036F
:107F9A000B04071A04072904033804064704065683
:107FAA000405650406740405830404920406A10406
:107FBA0006B00402BF0404CE0406DD0402EC040A7F
:107FCA00FB04061905062805063705064605045565
:107FDA000505640504730506820507910509A005D0
:107FEA0006BE0507CD0506DC0504EB0502FA050405
:067FFA000906061806004E
:020000040020DA
:08000000FFFFFFFFFFFFFFFF00
:020000040030CA
:0E000000FF381F3EFFBD85FF0FC00FE00F4011
:00000001FF
